{
	"contracts/SimpleToken2.sol": {
		"TokenSwap": {
			"abi": [
				{
					"inputs": [
						{
							"internalType": "address",
							"name": "_simpleToken",
							"type": "address"
						}
					],
					"stateMutability": "payable",
					"type": "constructor"
				},
				{
					"inputs": [],
					"name": "simpleToken",
					"outputs": [
						{
							"internalType": "contract IERC20",
							"name": "",
							"type": "address"
						}
					],
					"stateMutability": "view",
					"type": "function"
				},
				{
					"inputs": [
						{
							"internalType": "uint256",
							"name": "amount",
							"type": "uint256"
						}
					],
					"name": "swap",
					"outputs": [
						{
							"internalType": "address",
							"name": "",
							"type": "address"
						},
						{
							"internalType": "address",
							"name": "",
							"type": "address"
						}
					],
					"stateMutability": "nonpayable",
					"type": "function"
				}
			],
			"devdoc": {
				"kind": "dev",
				"methods": {},
				"version": 1
			},
			"evm": {
				"assembly": "    /* \"contracts/SimpleToken2.sol\":1465:2109  contract TokenSwap {... */\n  mstore(0x40, 0x80)\n    /* \"contracts/SimpleToken2.sol\":1523:1618  constructor(address _simpleToken) payable {... */\n  mload(0x40)\n  sub(codesize, bytecodeSize)\n  dup1\n  bytecodeSize\n  dup4\n  codecopy\n  dup2\n  dup2\n  add\n  0x40\n  mstore\n  dup2\n  add\n  swap1\n  tag_1\n  swap2\n  swap1\n  tag_2\n  jump\t// in\ntag_1:\n    /* \"contracts/SimpleToken2.sol\":1597:1609  _simpleToken */\n  dup1\n    /* \"contracts/SimpleToken2.sol\":1576:1587  simpleToken */\n  0x00\n  0x00\n    /* \"contracts/SimpleToken2.sol\":1576:1610  simpleToken = IERC20(_simpleToken) */\n  0x0100\n  exp\n  dup2\n  sload\n  dup2\n  0xffffffffffffffffffffffffffffffffffffffff\n  mul\n  not\n  and\n  swap1\n  dup4\n  0xffffffffffffffffffffffffffffffffffffffff\n  and\n  mul\n  or\n  swap1\n  sstore\n  pop\n    /* \"contracts/SimpleToken2.sol\":1523:1618  constructor(address _simpleToken) payable {... */\n  pop\n    /* \"contracts/SimpleToken2.sol\":1465:2109  contract TokenSwap {... */\n  jump(tag_5)\n    /* \"#utility.yul\":88:205   */\ntag_7:\n    /* \"#utility.yul\":197:198   */\n  0x00\n    /* \"#utility.yul\":194:195   */\n  0x00\n    /* \"#utility.yul\":187:199   */\n  revert\n    /* \"#utility.yul\":334:460   */\ntag_9:\n    /* \"#utility.yul\":371:378   */\n  0x00\n    /* \"#utility.yul\":411:453   */\n  0xffffffffffffffffffffffffffffffffffffffff\n    /* \"#utility.yul\":404:409   */\n  dup3\n    /* \"#utility.yul\":400:454   */\n  and\n    /* \"#utility.yul\":389:454   */\n  swap1\n  pop\n    /* \"#utility.yul\":334:460   */\n  swap2\n  swap1\n  pop\n  jump\t// out\n    /* \"#utility.yul\":466:562   */\ntag_10:\n    /* \"#utility.yul\":503:510   */\n  0x00\n    /* \"#utility.yul\":532:556   */\n  tag_19\n    /* \"#utility.yul\":550:555   */\n  dup3\n    /* \"#utility.yul\":532:556   */\n  tag_9\n  jump\t// in\ntag_19:\n    /* \"#utility.yul\":521:556   */\n  swap1\n  pop\n    /* \"#utility.yul\":466:562   */\n  swap2\n  swap1\n  pop\n  jump\t// out\n    /* \"#utility.yul\":568:690   */\ntag_11:\n    /* \"#utility.yul\":641:665   */\n  tag_21\n    /* \"#utility.yul\":659:664   */\n  dup2\n    /* \"#utility.yul\":641:665   */\n  tag_10\n  jump\t// in\ntag_21:\n    /* \"#utility.yul\":634:639   */\n  dup2\n    /* \"#utility.yul\":631:666   */\n  eq\n    /* \"#utility.yul\":621:684   */\n  tag_22\n  jumpi\n    /* \"#utility.yul\":680:681   */\n  0x00\n    /* \"#utility.yul\":677:678   */\n  0x00\n    /* \"#utility.yul\":670:682   */\n  revert\n    /* \"#utility.yul\":621:684   */\ntag_22:\n    /* \"#utility.yul\":568:690   */\n  pop\n  jump\t// out\n    /* \"#utility.yul\":696:839   */\ntag_12:\n    /* \"#utility.yul\":753:758   */\n  0x00\n    /* \"#utility.yul\":784:790   */\n  dup2\n    /* \"#utility.yul\":778:791   */\n  mload\n    /* \"#utility.yul\":769:791   */\n  swap1\n  pop\n    /* \"#utility.yul\":800:833   */\n  tag_24\n    /* \"#utility.yul\":827:832   */\n  dup2\n    /* \"#utility.yul\":800:833   */\n  tag_11\n  jump\t// in\ntag_24:\n    /* \"#utility.yul\":696:839   */\n  swap3\n  swap2\n  pop\n  pop\n  jump\t// out\n    /* \"#utility.yul\":845:1196   */\ntag_2:\n    /* \"#utility.yul\":915:921   */\n  0x00\n    /* \"#utility.yul\":964:966   */\n  0x20\n    /* \"#utility.yul\":952:961   */\n  dup3\n    /* \"#utility.yul\":943:950   */\n  dup5\n    /* \"#utility.yul\":939:962   */\n  sub\n    /* \"#utility.yul\":935:967   */\n  slt\n    /* \"#utility.yul\":932:1051   */\n  iszero\n  tag_26\n  jumpi\n    /* \"#utility.yul\":970:1049   */\n  tag_27\n  tag_7\n  jump\t// in\ntag_27:\n    /* \"#utility.yul\":932:1051   */\ntag_26:\n    /* \"#utility.yul\":1090:1091   */\n  0x00\n    /* \"#utility.yul\":1115:1179   */\n  tag_28\n    /* \"#utility.yul\":1171:1178   */\n  dup5\n    /* \"#utility.yul\":1162:1168   */\n  dup3\n    /* \"#utility.yul\":1151:1160   */\n  dup6\n    /* \"#utility.yul\":1147:1169   */\n  add\n    /* \"#utility.yul\":1115:1179   */\n  tag_12\n  jump\t// in\ntag_28:\n    /* \"#utility.yul\":1105:1179   */\n  swap2\n  pop\n    /* \"#utility.yul\":1061:1189   */\n  pop\n    /* \"#utility.yul\":845:1196   */\n  swap3\n  swap2\n  pop\n  pop\n  jump\t// out\n    /* \"contracts/SimpleToken2.sol\":1465:2109  contract TokenSwap {... */\ntag_5:\n  dataSize(sub_0)\n  dup1\n  dataOffset(sub_0)\n  0x00\n  codecopy\n  0x00\n  return\nstop\n\nsub_0: assembly {\n        /* \"contracts/SimpleToken2.sol\":1465:2109  contract TokenSwap {... */\n      mstore(0x40, 0x80)\n      callvalue\n      dup1\n      iszero\n      tag_1\n      jumpi\n      revert(0x00, 0x00)\n    tag_1:\n      pop\n      jumpi(tag_2, lt(calldatasize, 0x04))\n      shr(0xe0, calldataload(0x00))\n      dup1\n      0x2a64e635\n      eq\n      tag_3\n      jumpi\n      dup1\n      0x94b918de\n      eq\n      tag_4\n      jumpi\n    tag_2:\n      revert(0x00, 0x00)\n        /* \"contracts/SimpleToken2.sol\":1491:1516  IERC20 public simpleToken */\n    tag_3:\n      tag_5\n      tag_6\n      jump\t// in\n    tag_5:\n      mload(0x40)\n      tag_7\n      swap2\n      swap1\n      tag_8\n      jump\t// in\n    tag_7:\n      mload(0x40)\n      dup1\n      swap2\n      sub\n      swap1\n      return\n        /* \"contracts/SimpleToken2.sol\":1624:2106  function swap(uint256 amount) public returns(address, address) {... */\n    tag_4:\n      tag_9\n      0x04\n      dup1\n      calldatasize\n      sub\n      dup2\n      add\n      swap1\n      tag_10\n      swap2\n      swap1\n      tag_11\n      jump\t// in\n    tag_10:\n      tag_12\n      jump\t// in\n    tag_9:\n      mload(0x40)\n      tag_13\n      swap3\n      swap2\n      swap1\n      tag_14\n      jump\t// in\n    tag_13:\n      mload(0x40)\n      dup1\n      swap2\n      sub\n      swap1\n      return\n        /* \"contracts/SimpleToken2.sol\":1491:1516  IERC20 public simpleToken */\n    tag_6:\n      0x00\n      0x00\n      swap1\n      sload\n      swap1\n      0x0100\n      exp\n      swap1\n      div\n      0xffffffffffffffffffffffffffffffffffffffff\n      and\n      dup2\n      jump\t// out\n        /* \"contracts/SimpleToken2.sol\":1624:2106  function swap(uint256 amount) public returns(address, address) {... */\n    tag_12:\n        /* \"contracts/SimpleToken2.sol\":1669:1676  address */\n      0x00\n        /* \"contracts/SimpleToken2.sol\":1678:1685  address */\n      0x00\n        /* \"contracts/SimpleToken2.sol\":1706:1716  msg.sender */\n      caller\n        /* \"contracts/SimpleToken2.sol\":1718:1729  simpleToken */\n      0x00\n      0x00\n      swap1\n      sload\n      swap1\n      0x0100\n      exp\n      swap1\n      div\n      0xffffffffffffffffffffffffffffffffffffffff\n      and\n        /* \"contracts/SimpleToken2.sol\":1718:1742  simpleToken.transferFrom */\n      0xffffffffffffffffffffffffffffffffffffffff\n      and\n      0x23b872dd\n        /* \"contracts/SimpleToken2.sol\":1743:1753  msg.sender */\n      caller\n        /* \"contracts/SimpleToken2.sol\":1763:1767  this */\n      address\n        /* \"contracts/SimpleToken2.sol\":1770:1776  amount */\n      dup8\n        /* \"contracts/SimpleToken2.sol\":1718:1777  simpleToken.transferFrom(msg.sender, address(this), amount) */\n      mload(0x40)\n      dup5\n      0xffffffff\n      and\n      0xe0\n      shl\n      dup2\n      mstore\n      0x04\n      add\n      tag_16\n      swap4\n      swap3\n      swap2\n      swap1\n      tag_17\n      jump\t// in\n    tag_16:\n      0x20\n      mload(0x40)\n      dup1\n      dup4\n      sub\n      dup2\n      0x00\n      dup8\n      gas\n      call\n      iszero\n      dup1\n      iszero\n      tag_19\n      jumpi\n      returndatacopy(0x00, 0x00, returndatasize)\n      revert(0x00, returndatasize)\n    tag_19:\n      pop\n      pop\n      pop\n      pop\n      mload(0x40)\n      returndatasize\n      not(0x1f)\n      0x1f\n      dup3\n      add\n      and\n      dup3\n      add\n      dup1\n      0x40\n      mstore\n      pop\n      dup2\n      add\n      swap1\n      tag_20\n      swap2\n      swap1\n      tag_21\n      jump\t// in\n    tag_20:\n        /* \"contracts/SimpleToken2.sol\":1698:1778  return (msg.sender, simpleToken.transferFrom(msg.sender, address(this), amount)) */\n      swap2\n      pop\n      swap2\n      pop\n        /* \"contracts/SimpleToken2.sol\":1624:2106  function swap(uint256 amount) public returns(address, address) {... */\n      swap2\n      pop\n      swap2\n      jump\t// out\n        /* \"#utility.yul\":7:133   */\n    tag_22:\n        /* \"#utility.yul\":44:51   */\n      0x00\n        /* \"#utility.yul\":84:126   */\n      0xffffffffffffffffffffffffffffffffffffffff\n        /* \"#utility.yul\":77:82   */\n      dup3\n        /* \"#utility.yul\":73:127   */\n      and\n        /* \"#utility.yul\":62:127   */\n      swap1\n      pop\n        /* \"#utility.yul\":7:133   */\n      swap2\n      swap1\n      pop\n      jump\t// out\n        /* \"#utility.yul\":139:199   */\n    tag_23:\n        /* \"#utility.yul\":167:170   */\n      0x00\n        /* \"#utility.yul\":188:193   */\n      dup2\n        /* \"#utility.yul\":181:193   */\n      swap1\n      pop\n        /* \"#utility.yul\":139:199   */\n      swap2\n      swap1\n      pop\n      jump\t// out\n        /* \"#utility.yul\":205:347   */\n    tag_24:\n        /* \"#utility.yul\":255:264   */\n      0x00\n        /* \"#utility.yul\":288:341   */\n      tag_43\n        /* \"#utility.yul\":306:340   */\n      tag_44\n        /* \"#utility.yul\":315:339   */\n      tag_45\n        /* \"#utility.yul\":333:338   */\n      dup5\n        /* \"#utility.yul\":315:339   */\n      tag_22\n      jump\t// in\n    tag_45:\n        /* \"#utility.yul\":306:340   */\n      tag_23\n      jump\t// in\n    tag_44:\n        /* \"#utility.yul\":288:341   */\n      tag_22\n      jump\t// in\n    tag_43:\n        /* \"#utility.yul\":275:341   */\n      swap1\n      pop\n        /* \"#utility.yul\":205:347   */\n      swap2\n      swap1\n      pop\n      jump\t// out\n        /* \"#utility.yul\":353:479   */\n    tag_25:\n        /* \"#utility.yul\":403:412   */\n      0x00\n        /* \"#utility.yul\":436:473   */\n      tag_47\n        /* \"#utility.yul\":467:472   */\n      dup3\n        /* \"#utility.yul\":436:473   */\n      tag_24\n      jump\t// in\n    tag_47:\n        /* \"#utility.yul\":423:473   */\n      swap1\n      pop\n        /* \"#utility.yul\":353:479   */\n      swap2\n      swap1\n      pop\n      jump\t// out\n        /* \"#utility.yul\":485:624   */\n    tag_26:\n        /* \"#utility.yul\":548:557   */\n      0x00\n        /* \"#utility.yul\":581:618   */\n      tag_49\n        /* \"#utility.yul\":612:617   */\n      dup3\n        /* \"#utility.yul\":581:618   */\n      tag_25\n      jump\t// in\n    tag_49:\n        /* \"#utility.yul\":568:618   */\n      swap1\n      pop\n        /* \"#utility.yul\":485:624   */\n      swap2\n      swap1\n      pop\n      jump\t// out\n        /* \"#utility.yul\":630:787   */\n    tag_27:\n        /* \"#utility.yul\":730:780   */\n      tag_51\n        /* \"#utility.yul\":774:779   */\n      dup2\n        /* \"#utility.yul\":730:780   */\n      tag_26\n      jump\t// in\n    tag_51:\n        /* \"#utility.yul\":725:728   */\n      dup3\n        /* \"#utility.yul\":718:781   */\n      mstore\n        /* \"#utility.yul\":630:787   */\n      pop\n      pop\n      jump\t// out\n        /* \"#utility.yul\":793:1041   */\n    tag_8:\n        /* \"#utility.yul\":899:903   */\n      0x00\n        /* \"#utility.yul\":937:939   */\n      0x20\n        /* \"#utility.yul\":926:935   */\n      dup3\n        /* \"#utility.yul\":922:940   */\n      add\n        /* \"#utility.yul\":914:940   */\n      swap1\n      pop\n        /* \"#utility.yul\":950:1034   */\n      tag_53\n        /* \"#utility.yul\":1031:1032   */\n      0x00\n        /* \"#utility.yul\":1020:1029   */\n      dup4\n        /* \"#utility.yul\":1016:1033   */\n      add\n        /* \"#utility.yul\":1007:1013   */\n      dup5\n        /* \"#utility.yul\":950:1034   */\n      tag_27\n      jump\t// in\n    tag_53:\n        /* \"#utility.yul\":793:1041   */\n      swap3\n      swap2\n      pop\n      pop\n      jump\t// out\n        /* \"#utility.yul\":1128:1245   */\n    tag_29:\n        /* \"#utility.yul\":1237:1238   */\n      0x00\n        /* \"#utility.yul\":1234:1235   */\n      0x00\n        /* \"#utility.yul\":1227:1239   */\n      revert\n        /* \"#utility.yul\":1374:1451   */\n    tag_31:\n        /* \"#utility.yul\":1411:1418   */\n      0x00\n        /* \"#utility.yul\":1440:1445   */\n      dup2\n        /* \"#utility.yul\":1429:1445   */\n      swap1\n      pop\n        /* \"#utility.yul\":1374:1451   */\n      swap2\n      swap1\n      pop\n      jump\t// out\n        /* \"#utility.yul\":1457:1579   */\n    tag_32:\n        /* \"#utility.yul\":1530:1554   */\n      tag_59\n        /* \"#utility.yul\":1548:1553   */\n      dup2\n        /* \"#utility.yul\":1530:1554   */\n      tag_31\n      jump\t// in\n    tag_59:\n        /* \"#utility.yul\":1523:1528   */\n      dup2\n        /* \"#utility.yul\":1520:1555   */\n      eq\n        /* \"#utility.yul\":1510:1573   */\n      tag_60\n      jumpi\n        /* \"#utility.yul\":1569:1570   */\n      0x00\n        /* \"#utility.yul\":1566:1567   */\n      0x00\n        /* \"#utility.yul\":1559:1571   */\n      revert\n        /* \"#utility.yul\":1510:1573   */\n    tag_60:\n        /* \"#utility.yul\":1457:1579   */\n      pop\n      jump\t// out\n        /* \"#utility.yul\":1585:1724   */\n    tag_33:\n        /* \"#utility.yul\":1631:1636   */\n      0x00\n        /* \"#utility.yul\":1669:1675   */\n      dup2\n        /* \"#utility.yul\":1656:1676   */\n      calldataload\n        /* \"#utility.yul\":1647:1676   */\n      swap1\n      pop\n        /* \"#utility.yul\":1685:1718   */\n      tag_62\n        /* \"#utility.yul\":1712:1717   */\n      dup2\n        /* \"#utility.yul\":1685:1718   */\n      tag_32\n      jump\t// in\n    tag_62:\n        /* \"#utility.yul\":1585:1724   */\n      swap3\n      swap2\n      pop\n      pop\n      jump\t// out\n        /* \"#utility.yul\":1730:2059   */\n    tag_11:\n        /* \"#utility.yul\":1789:1795   */\n      0x00\n        /* \"#utility.yul\":1838:1840   */\n      0x20\n        /* \"#utility.yul\":1826:1835   */\n      dup3\n        /* \"#utility.yul\":1817:1824   */\n      dup5\n        /* \"#utility.yul\":1813:1836   */\n      sub\n        /* \"#utility.yul\":1809:1841   */\n      slt\n        /* \"#utility.yul\":1806:1925   */\n      iszero\n      tag_64\n      jumpi\n        /* \"#utility.yul\":1844:1923   */\n      tag_65\n      tag_29\n      jump\t// in\n    tag_65:\n        /* \"#utility.yul\":1806:1925   */\n    tag_64:\n        /* \"#utility.yul\":1964:1965   */\n      0x00\n        /* \"#utility.yul\":1989:2042   */\n      tag_66\n        /* \"#utility.yul\":2034:2041   */\n      dup5\n        /* \"#utility.yul\":2025:2031   */\n      dup3\n        /* \"#utility.yul\":2014:2023   */\n      dup6\n        /* \"#utility.yul\":2010:2032   */\n      add\n        /* \"#utility.yul\":1989:2042   */\n      tag_33\n      jump\t// in\n    tag_66:\n        /* \"#utility.yul\":1979:2042   */\n      swap2\n      pop\n        /* \"#utility.yul\":1935:2052   */\n      pop\n        /* \"#utility.yul\":1730:2059   */\n      swap3\n      swap2\n      pop\n      pop\n      jump\t// out\n        /* \"#utility.yul\":2065:2161   */\n    tag_34:\n        /* \"#utility.yul\":2102:2109   */\n      0x00\n        /* \"#utility.yul\":2131:2155   */\n      tag_68\n        /* \"#utility.yul\":2149:2154   */\n      dup3\n        /* \"#utility.yul\":2131:2155   */\n      tag_22\n      jump\t// in\n    tag_68:\n        /* \"#utility.yul\":2120:2155   */\n      swap1\n      pop\n        /* \"#utility.yul\":2065:2161   */\n      swap2\n      swap1\n      pop\n      jump\t// out\n        /* \"#utility.yul\":2167:2285   */\n    tag_35:\n        /* \"#utility.yul\":2254:2278   */\n      tag_70\n        /* \"#utility.yul\":2272:2277   */\n      dup2\n        /* \"#utility.yul\":2254:2278   */\n      tag_34\n      jump\t// in\n    tag_70:\n        /* \"#utility.yul\":2249:2252   */\n      dup3\n        /* \"#utility.yul\":2242:2279   */\n      mstore\n        /* \"#utility.yul\":2167:2285   */\n      pop\n      pop\n      jump\t// out\n        /* \"#utility.yul\":2291:2623   */\n    tag_14:\n        /* \"#utility.yul\":2412:2416   */\n      0x00\n        /* \"#utility.yul\":2450:2452   */\n      0x40\n        /* \"#utility.yul\":2439:2448   */\n      dup3\n        /* \"#utility.yul\":2435:2453   */\n      add\n        /* \"#utility.yul\":2427:2453   */\n      swap1\n      pop\n        /* \"#utility.yul\":2463:2534   */\n      tag_72\n        /* \"#utility.yul\":2531:2532   */\n      0x00\n        /* \"#utility.yul\":2520:2529   */\n      dup4\n        /* \"#utility.yul\":2516:2533   */\n      add\n        /* \"#utility.yul\":2507:2513   */\n      dup6\n        /* \"#utility.yul\":2463:2534   */\n      tag_35\n      jump\t// in\n    tag_72:\n        /* \"#utility.yul\":2544:2616   */\n      tag_73\n        /* \"#utility.yul\":2612:2614   */\n      0x20\n        /* \"#utility.yul\":2601:2610   */\n      dup4\n        /* \"#utility.yul\":2597:2615   */\n      add\n        /* \"#utility.yul\":2588:2594   */\n      dup5\n        /* \"#utility.yul\":2544:2616   */\n      tag_35\n      jump\t// in\n    tag_73:\n        /* \"#utility.yul\":2291:2623   */\n      swap4\n      swap3\n      pop\n      pop\n      pop\n      jump\t// out\n        /* \"#utility.yul\":2629:2747   */\n    tag_36:\n        /* \"#utility.yul\":2716:2740   */\n      tag_75\n        /* \"#utility.yul\":2734:2739   */\n      dup2\n        /* \"#utility.yul\":2716:2740   */\n      tag_31\n      jump\t// in\n    tag_75:\n        /* \"#utility.yul\":2711:2714   */\n      dup3\n        /* \"#utility.yul\":2704:2741   */\n      mstore\n        /* \"#utility.yul\":2629:2747   */\n      pop\n      pop\n      jump\t// out\n        /* \"#utility.yul\":2753:3195   */\n    tag_17:\n        /* \"#utility.yul\":2902:2906   */\n      0x00\n        /* \"#utility.yul\":2940:2942   */\n      0x60\n        /* \"#utility.yul\":2929:2938   */\n      dup3\n        /* \"#utility.yul\":2925:2943   */\n      add\n        /* \"#utility.yul\":2917:2943   */\n      swap1\n      pop\n        /* \"#utility.yul\":2953:3024   */\n      tag_77\n        /* \"#utility.yul\":3021:3022   */\n      0x00\n        /* \"#utility.yul\":3010:3019   */\n      dup4\n        /* \"#utility.yul\":3006:3023   */\n      add\n        /* \"#utility.yul\":2997:3003   */\n      dup7\n        /* \"#utility.yul\":2953:3024   */\n      tag_35\n      jump\t// in\n    tag_77:\n        /* \"#utility.yul\":3034:3106   */\n      tag_78\n        /* \"#utility.yul\":3102:3104   */\n      0x20\n        /* \"#utility.yul\":3091:3100   */\n      dup4\n        /* \"#utility.yul\":3087:3105   */\n      add\n        /* \"#utility.yul\":3078:3084   */\n      dup6\n        /* \"#utility.yul\":3034:3106   */\n      tag_35\n      jump\t// in\n    tag_78:\n        /* \"#utility.yul\":3116:3188   */\n      tag_79\n        /* \"#utility.yul\":3184:3186   */\n      0x40\n        /* \"#utility.yul\":3173:3182   */\n      dup4\n        /* \"#utility.yul\":3169:3187   */\n      add\n        /* \"#utility.yul\":3160:3166   */\n      dup5\n        /* \"#utility.yul\":3116:3188   */\n      tag_36\n      jump\t// in\n    tag_79:\n        /* \"#utility.yul\":2753:3195   */\n      swap5\n      swap4\n      pop\n      pop\n      pop\n      pop\n      jump\t// out\n        /* \"#utility.yul\":3201:3323   */\n    tag_37:\n        /* \"#utility.yul\":3274:3298   */\n      tag_81\n        /* \"#utility.yul\":3292:3297   */\n      dup2\n        /* \"#utility.yul\":3274:3298   */\n      tag_34\n      jump\t// in\n    tag_81:\n        /* \"#utility.yul\":3267:3272   */\n      dup2\n        /* \"#utility.yul\":3264:3299   */\n      eq\n        /* \"#utility.yul\":3254:3317   */\n      tag_82\n      jumpi\n        /* \"#utility.yul\":3313:3314   */\n      0x00\n        /* \"#utility.yul\":3310:3311   */\n      0x00\n        /* \"#utility.yul\":3303:3315   */\n      revert\n        /* \"#utility.yul\":3254:3317   */\n    tag_82:\n        /* \"#utility.yul\":3201:3323   */\n      pop\n      jump\t// out\n        /* \"#utility.yul\":3329:3472   */\n    tag_38:\n        /* \"#utility.yul\":3386:3391   */\n      0x00\n        /* \"#utility.yul\":3417:3423   */\n      dup2\n        /* \"#utility.yul\":3411:3424   */\n      mload\n        /* \"#utility.yul\":3402:3424   */\n      swap1\n      pop\n        /* \"#utility.yul\":3433:3466   */\n      tag_84\n        /* \"#utility.yul\":3460:3465   */\n      dup2\n        /* \"#utility.yul\":3433:3466   */\n      tag_37\n      jump\t// in\n    tag_84:\n        /* \"#utility.yul\":3329:3472   */\n      swap3\n      swap2\n      pop\n      pop\n      jump\t// out\n        /* \"#utility.yul\":3478:3829   */\n    tag_21:\n        /* \"#utility.yul\":3548:3554   */\n      0x00\n        /* \"#utility.yul\":3597:3599   */\n      0x20\n        /* \"#utility.yul\":3585:3594   */\n      dup3\n        /* \"#utility.yul\":3576:3583   */\n      dup5\n        /* \"#utility.yul\":3572:3595   */\n      sub\n        /* \"#utility.yul\":3568:3600   */\n      slt\n        /* \"#utility.yul\":3565:3684   */\n      iszero\n      tag_86\n      jumpi\n        /* \"#utility.yul\":3603:3682   */\n      tag_87\n      tag_29\n      jump\t// in\n    tag_87:\n        /* \"#utility.yul\":3565:3684   */\n    tag_86:\n        /* \"#utility.yul\":3723:3724   */\n      0x00\n        /* \"#utility.yul\":3748:3812   */\n      tag_88\n        /* \"#utility.yul\":3804:3811   */\n      dup5\n        /* \"#utility.yul\":3795:3801   */\n      dup3\n        /* \"#utility.yul\":3784:3793   */\n      dup6\n        /* \"#utility.yul\":3780:3802   */\n      add\n        /* \"#utility.yul\":3748:3812   */\n      tag_38\n      jump\t// in\n    tag_88:\n        /* \"#utility.yul\":3738:3812   */\n      swap2\n      pop\n        /* \"#utility.yul\":3694:3822   */\n      pop\n        /* \"#utility.yul\":3478:3829   */\n      swap3\n      swap2\n      pop\n      pop\n      jump\t// out\n\n    auxdata: 0xa264697066735822122006092a6c2a76322e5d40b06686f2a42798409dee0bc65a7f325da17dfb4fbd7c64736f6c634300081e0033\n}\n",
				"bytecode": {
					"linkReferences": {},
					"object": "608060405260405161045f38038061045f833981810160405281019061002591906100c8565b805f5f6101000a81548173ffffffffffffffffffffffffffffffffffffffff021916908373ffffffffffffffffffffffffffffffffffffffff160217905550506100f3565b5f5ffd5b5f73ffffffffffffffffffffffffffffffffffffffff82169050919050565b5f6100978261006e565b9050919050565b6100a78161008d565b81146100b1575f5ffd5b50565b5f815190506100c28161009e565b92915050565b5f602082840312156100dd576100dc61006a565b5b5f6100ea848285016100b4565b91505092915050565b61035f806101005f395ff3fe608060405234801561000f575f5ffd5b5060043610610034575f3560e01c80632a64e6351461003857806394b918de14610056575b5f5ffd5b610040610087565b60405161004d91906101ce565b60405180910390f35b610070600480360381019061006b919061021e565b6100ab565b60405161007e929190610269565b60405180910390f35b5f5f9054906101000a900473ffffffffffffffffffffffffffffffffffffffff1681565b5f5f335f5f9054906101000a900473ffffffffffffffffffffffffffffffffffffffff1673ffffffffffffffffffffffffffffffffffffffff166323b872dd3330876040518463ffffffff1660e01b815260040161010b9392919061029f565b6020604051808303815f875af1158015610127573d5f5f3e3d5ffd5b505050506040513d601f19601f8201168201806040525081019061014b91906102fe565b91509150915091565b5f73ffffffffffffffffffffffffffffffffffffffff82169050919050565b5f819050919050565b5f61019661019161018c84610154565b610173565b610154565b9050919050565b5f6101a78261017c565b9050919050565b5f6101b88261019d565b9050919050565b6101c8816101ae565b82525050565b5f6020820190506101e15f8301846101bf565b92915050565b5f5ffd5b5f819050919050565b6101fd816101eb565b8114610207575f5ffd5b50565b5f81359050610218816101f4565b92915050565b5f60208284031215610233576102326101e7565b5b5f6102408482850161020a565b91505092915050565b5f61025382610154565b9050919050565b61026381610249565b82525050565b5f60408201905061027c5f83018561025a565b610289602083018461025a565b9392505050565b610299816101eb565b82525050565b5f6060820190506102b25f83018661025a565b6102bf602083018561025a565b6102cc6040830184610290565b949350505050565b6102dd81610249565b81146102e7575f5ffd5b50565b5f815190506102f8816102d4565b92915050565b5f60208284031215610313576103126101e7565b5b5f610320848285016102ea565b9150509291505056fea264697066735822122006092a6c2a76322e5d40b06686f2a42798409dee0bc65a7f325da17dfb4fbd7c64736f6c634300081e0033",
					"opcodes": "PUSH1 0x80 PUSH1 0x40 MSTORE PUSH1 0x40 MLOAD PUSH2 0x45F CODESIZE SUB DUP1 PUSH2 0x45F DUP4 CODECOPY DUP2 DUP2 ADD PUSH1 0x40 MSTORE DUP2 ADD SWAP1 PUSH2 0x25 SWAP2 SWAP1 PUSH2 0xC8 JUMP JUMPDEST DUP1 PUSH0 PUSH0 PUSH2 0x100 EXP DUP2 SLOAD DUP2 PUSH20 0xFFFFFFFFFFFFFFFFFFFFFFFFFFFFFFFFFFFFFFFF MUL NOT AND SWAP1 DUP4 PUSH20 0xFFFFFFFFFFFFFFFFFFFFFFFFFFFFFFFFFFFFFFFF AND MUL OR SWAP1 SSTORE POP POP PUSH2 0xF3 JUMP JUMPDEST PUSH0 PUSH0 REVERT JUMPDEST PUSH0 PUSH20 0xFFFFFFFFFFFFFFFFFFFFFFFFFFFFFFFFFFFFFFFF DUP3 AND SWAP1 POP SWAP2 SWAP1 POP JUMP JUMPDEST PUSH0 PUSH2 0x97 DUP3 PUSH2 0x6E JUMP JUMPDEST SWAP1 POP SWAP2 SWAP1 POP JUMP JUMPDEST PUSH2 0xA7 DUP2 PUSH2 0x8D JUMP JUMPDEST DUP2 EQ PUSH2 0xB1 JUMPI PUSH0 PUSH0 REVERT JUMPDEST POP JUMP JUMPDEST PUSH0 DUP2 MLOAD SWAP1 POP PUSH2 0xC2 DUP2 PUSH2 0x9E JUMP JUMPDEST SWAP3 SWAP2 POP POP JUMP JUMPDEST PUSH0 PUSH1 0x20 DUP3 DUP5 SUB SLT ISZERO PUSH2 0xDD JUMPI PUSH2 0xDC PUSH2 0x6A JUMP JUMPDEST JUMPDEST PUSH0 PUSH2 0xEA DUP5 DUP3 DUP6 ADD PUSH2 0xB4 JUMP JUMPDEST SWAP2 POP POP SWAP3 SWAP2 POP POP JUMP JUMPDEST PUSH2 0x35F DUP1 PUSH2 0x100 PUSH0 CODECOPY PUSH0 RETURN INVALID PUSH1 0x80 PUSH1 0x40 MSTORE CALLVALUE DUP1 ISZERO PUSH2 0xF JUMPI PUSH0 PUSH0 REVERT JUMPDEST POP PUSH1 0x4 CALLDATASIZE LT PUSH2 0x34 JUMPI PUSH0 CALLDATALOAD PUSH1 0xE0 SHR DUP1 PUSH4 0x2A64E635 EQ PUSH2 0x38 JUMPI DUP1 PUSH4 0x94B918DE EQ PUSH2 0x56 JUMPI JUMPDEST PUSH0 PUSH0 REVERT JUMPDEST PUSH2 0x40 PUSH2 0x87 JUMP JUMPDEST PUSH1 0x40 MLOAD PUSH2 0x4D SWAP2 SWAP1 PUSH2 0x1CE JUMP JUMPDEST PUSH1 0x40 MLOAD DUP1 SWAP2 SUB SWAP1 RETURN JUMPDEST PUSH2 0x70 PUSH1 0x4 DUP1 CALLDATASIZE SUB DUP2 ADD SWAP1 PUSH2 0x6B SWAP2 SWAP1 PUSH2 0x21E JUMP JUMPDEST PUSH2 0xAB JUMP JUMPDEST PUSH1 0x40 MLOAD PUSH2 0x7E SWAP3 SWAP2 SWAP1 PUSH2 0x269 JUMP JUMPDEST PUSH1 0x40 MLOAD DUP1 SWAP2 SUB SWAP1 RETURN JUMPDEST PUSH0 PUSH0 SWAP1 SLOAD SWAP1 PUSH2 0x100 EXP SWAP1 DIV PUSH20 0xFFFFFFFFFFFFFFFFFFFFFFFFFFFFFFFFFFFFFFFF AND DUP2 JUMP JUMPDEST PUSH0 PUSH0 CALLER PUSH0 PUSH0 SWAP1 SLOAD SWAP1 PUSH2 0x100 EXP SWAP1 DIV PUSH20 0xFFFFFFFFFFFFFFFFFFFFFFFFFFFFFFFFFFFFFFFF AND PUSH20 0xFFFFFFFFFFFFFFFFFFFFFFFFFFFFFFFFFFFFFFFF AND PUSH4 0x23B872DD CALLER ADDRESS DUP8 PUSH1 0x40 MLOAD DUP5 PUSH4 0xFFFFFFFF AND PUSH1 0xE0 SHL DUP2 MSTORE PUSH1 0x4 ADD PUSH2 0x10B SWAP4 SWAP3 SWAP2 SWAP1 PUSH2 0x29F JUMP JUMPDEST PUSH1 0x20 PUSH1 0x40 MLOAD DUP1 DUP4 SUB DUP2 PUSH0 DUP8 GAS CALL ISZERO DUP1 ISZERO PUSH2 0x127 JUMPI RETURNDATASIZE PUSH0 PUSH0 RETURNDATACOPY RETURNDATASIZE PUSH0 REVERT JUMPDEST POP POP POP POP PUSH1 0x40 MLOAD RETURNDATASIZE PUSH1 0x1F NOT PUSH1 0x1F DUP3 ADD AND DUP3 ADD DUP1 PUSH1 0x40 MSTORE POP DUP2 ADD SWAP1 PUSH2 0x14B SWAP2 SWAP1 PUSH2 0x2FE JUMP JUMPDEST SWAP2 POP SWAP2 POP SWAP2 POP SWAP2 JUMP JUMPDEST PUSH0 PUSH20 0xFFFFFFFFFFFFFFFFFFFFFFFFFFFFFFFFFFFFFFFF DUP3 AND SWAP1 POP SWAP2 SWAP1 POP JUMP JUMPDEST PUSH0 DUP2 SWAP1 POP SWAP2 SWAP1 POP JUMP JUMPDEST PUSH0 PUSH2 0x196 PUSH2 0x191 PUSH2 0x18C DUP5 PUSH2 0x154 JUMP JUMPDEST PUSH2 0x173 JUMP JUMPDEST PUSH2 0x154 JUMP JUMPDEST SWAP1 POP SWAP2 SWAP1 POP JUMP JUMPDEST PUSH0 PUSH2 0x1A7 DUP3 PUSH2 0x17C JUMP JUMPDEST SWAP1 POP SWAP2 SWAP1 POP JUMP JUMPDEST PUSH0 PUSH2 0x1B8 DUP3 PUSH2 0x19D JUMP JUMPDEST SWAP1 POP SWAP2 SWAP1 POP JUMP JUMPDEST PUSH2 0x1C8 DUP2 PUSH2 0x1AE JUMP JUMPDEST DUP3 MSTORE POP POP JUMP JUMPDEST PUSH0 PUSH1 0x20 DUP3 ADD SWAP1 POP PUSH2 0x1E1 PUSH0 DUP4 ADD DUP5 PUSH2 0x1BF JUMP JUMPDEST SWAP3 SWAP2 POP POP JUMP JUMPDEST PUSH0 PUSH0 REVERT JUMPDEST PUSH0 DUP2 SWAP1 POP SWAP2 SWAP1 POP JUMP JUMPDEST PUSH2 0x1FD DUP2 PUSH2 0x1EB JUMP JUMPDEST DUP2 EQ PUSH2 0x207 JUMPI PUSH0 PUSH0 REVERT JUMPDEST POP JUMP JUMPDEST PUSH0 DUP2 CALLDATALOAD SWAP1 POP PUSH2 0x218 DUP2 PUSH2 0x1F4 JUMP JUMPDEST SWAP3 SWAP2 POP POP JUMP JUMPDEST PUSH0 PUSH1 0x20 DUP3 DUP5 SUB SLT ISZERO PUSH2 0x233 JUMPI PUSH2 0x232 PUSH2 0x1E7 JUMP JUMPDEST JUMPDEST PUSH0 PUSH2 0x240 DUP5 DUP3 DUP6 ADD PUSH2 0x20A JUMP JUMPDEST SWAP2 POP POP SWAP3 SWAP2 POP POP JUMP JUMPDEST PUSH0 PUSH2 0x253 DUP3 PUSH2 0x154 JUMP JUMPDEST SWAP1 POP SWAP2 SWAP1 POP JUMP JUMPDEST PUSH2 0x263 DUP2 PUSH2 0x249 JUMP JUMPDEST DUP3 MSTORE POP POP JUMP JUMPDEST PUSH0 PUSH1 0x40 DUP3 ADD SWAP1 POP PUSH2 0x27C PUSH0 DUP4 ADD DUP6 PUSH2 0x25A JUMP JUMPDEST PUSH2 0x289 PUSH1 0x20 DUP4 ADD DUP5 PUSH2 0x25A JUMP JUMPDEST SWAP4 SWAP3 POP POP POP JUMP JUMPDEST PUSH2 0x299 DUP2 PUSH2 0x1EB JUMP JUMPDEST DUP3 MSTORE POP POP JUMP JUMPDEST PUSH0 PUSH1 0x60 DUP3 ADD SWAP1 POP PUSH2 0x2B2 PUSH0 DUP4 ADD DUP7 PUSH2 0x25A JUMP JUMPDEST PUSH2 0x2BF PUSH1 0x20 DUP4 ADD DUP6 PUSH2 0x25A JUMP JUMPDEST PUSH2 0x2CC PUSH1 0x40 DUP4 ADD DUP5 PUSH2 0x290 JUMP JUMPDEST SWAP5 SWAP4 POP POP POP POP JUMP JUMPDEST PUSH2 0x2DD DUP2 PUSH2 0x249 JUMP JUMPDEST DUP2 EQ PUSH2 0x2E7 JUMPI PUSH0 PUSH0 REVERT JUMPDEST POP JUMP JUMPDEST PUSH0 DUP2 MLOAD SWAP1 POP PUSH2 0x2F8 DUP2 PUSH2 0x2D4 JUMP JUMPDEST SWAP3 SWAP2 POP POP JUMP JUMPDEST PUSH0 PUSH1 0x20 DUP3 DUP5 SUB SLT ISZERO PUSH2 0x313 JUMPI PUSH2 0x312 PUSH2 0x1E7 JUMP JUMPDEST JUMPDEST PUSH0 PUSH2 0x320 DUP5 DUP3 DUP6 ADD PUSH2 0x2EA JUMP JUMPDEST SWAP2 POP POP SWAP3 SWAP2 POP POP JUMP INVALID LOG2 PUSH5 0x6970667358 0x22 SLT KECCAK256 MOD MULMOD 0x2A PUSH13 0x2A76322E5D40B06686F2A42798 BLOCKHASH SWAP14 RETURNCONTRACT 0xB 0xC6 GAS PUSH32 0x325DA17DFB4FBD7C64736F6C634300081E003300000000000000000000000000 "
				},
				"gasEstimates": {
					"creation": {
						"codeDepositCost": "172600",
						"executionCost": "infinite",
						"totalCost": "infinite"
					},
					"external": {
						"simpleToken()": "infinite",
						"swap(uint256)": "infinite"
					}
				},
				"methodIdentifiers": {
					"simpleToken()": "2a64e635",
					"swap(uint256)": "94b918de"
				}
			},
			"storageLayout": {
				"storage": [
					{
						"astId": 103,
						"contract": "contracts/SimpleToken2.sol:TokenSwap",
						"label": "simpleToken",
						"offset": 0,
						"slot": "0",
						"type": "t_contract(IERC20)21"
					}
				],
				"types": {
					"t_contract(IERC20)21": {
						"encoding": "inplace",
						"label": "contract IERC20",
						"numberOfBytes": "20"
					}
				}
			},
			"userdoc": {
				"kind": "user",
				"methods": {},
				"version": 1
			}
		}
	}
}