{
	"contracts/SimpleToken2.sol": {
		"SimpleToken": {
			"abi": [
				{
					"inputs": [],
					"stateMutability": "nonpayable",
					"type": "constructor"
				},
				{
					"inputs": [
						{
							"internalType": "address",
							"name": "",
							"type": "address"
						},
						{
							"internalType": "address",
							"name": "",
							"type": "address"
						}
					],
					"name": "_allowances",
					"outputs": [
						{
							"internalType": "uint256",
							"name": "",
							"type": "uint256"
						}
					],
					"stateMutability": "view",
					"type": "function"
				},
				{
					"inputs": [
						{
							"internalType": "address",
							"name": "",
							"type": "address"
						}
					],
					"name": "_balances",
					"outputs": [
						{
							"internalType": "uint256",
							"name": "",
							"type": "uint256"
						}
					],
					"stateMutability": "view",
					"type": "function"
				},
				{
					"inputs": [
						{
							"internalType": "address",
							"name": "spender",
							"type": "address"
						},
						{
							"internalType": "uint256",
							"name": "amount",
							"type": "uint256"
						}
					],
					"name": "approve",
					"outputs": [],
					"stateMutability": "nonpayable",
					"type": "function"
				},
				{
					"inputs": [
						{
							"internalType": "address",
							"name": "from",
							"type": "address"
						},
						{
							"internalType": "address",
							"name": "to",
							"type": "address"
						},
						{
							"internalType": "uint256",
							"name": "amount",
							"type": "uint256"
						}
					],
					"name": "transferFrom",
					"outputs": [
						{
							"internalType": "address",
							"name": "",
							"type": "address"
						}
					],
					"stateMutability": "nonpayable",
					"type": "function"
				}
			],
			"devdoc": {
				"kind": "dev",
				"methods": {},
				"version": 1
			},
			"evm": {
				"assembly": "    /* \"contracts/SimpleToken2.sol\":862:1463  contract SimpleToken {... */\n  mstore(0x40, 0x80)\n    /* \"contracts/SimpleToken2.sol\":1014:1083  constructor() {... */\n  callvalue\n  dup1\n  iszero\n  tag_1\n  jumpi\n  revert(0x00, 0x00)\ntag_1:\n  pop\n    /* \"contracts/SimpleToken2.sol\":1063:1075  100 * 10**18 */\n  0x056bc75e2d63100000\n    /* \"contracts/SimpleToken2.sol\":1039:1048  _balances */\n  0x00\n    /* \"contracts/SimpleToken2.sol\":1039:1060  _balances[msg.sender] */\n  0x00\n    /* \"contracts/SimpleToken2.sol\":1049:1059  msg.sender */\n  caller\n    /* \"contracts/SimpleToken2.sol\":1039:1060  _balances[msg.sender] */\n  0xffffffffffffffffffffffffffffffffffffffff\n  and\n  0xffffffffffffffffffffffffffffffffffffffff\n  and\n  dup2\n  mstore\n  0x20\n  add\n  swap1\n  dup2\n  mstore\n  0x20\n  add\n  0x00\n  keccak256\n    /* \"contracts/SimpleToken2.sol\":1039:1075  _balances[msg.sender] = 100 * 10**18 */\n  dup2\n  swap1\n  sstore\n  pop\n    /* \"contracts/SimpleToken2.sol\":862:1463  contract SimpleToken {... */\n  dataSize(sub_0)\n  dup1\n  dataOffset(sub_0)\n  0x00\n  codecopy\n  0x00\n  return\nstop\n\nsub_0: assembly {\n        /* \"contracts/SimpleToken2.sol\":862:1463  contract SimpleToken {... */\n      mstore(0x40, 0x80)\n      callvalue\n      dup1\n      iszero\n      tag_1\n      jumpi\n      revert(0x00, 0x00)\n    tag_1:\n      pop\n      jumpi(tag_2, lt(calldatasize, 0x04))\n      shr(0xe0, calldataload(0x00))\n      dup1\n      0x024c2ddd\n      eq\n      tag_3\n      jumpi\n      dup1\n      0x095ea7b3\n      eq\n      tag_4\n      jumpi\n      dup1\n      0x23b872dd\n      eq\n      tag_5\n      jumpi\n      dup1\n      0x6ebcf607\n      eq\n      tag_6\n      jumpi\n    tag_2:\n      revert(0x00, 0x00)\n        /* \"contracts/SimpleToken2.sol\":941:1007  mapping(address => mapping(address => uint256)) public _allowances */\n    tag_3:\n      tag_7\n      0x04\n      dup1\n      calldatasize\n      sub\n      dup2\n      add\n      swap1\n      tag_8\n      swap2\n      swap1\n      tag_9\n      jump\t// in\n    tag_8:\n      tag_10\n      jump\t// in\n    tag_7:\n      mload(0x40)\n      tag_11\n      swap2\n      swap1\n      tag_12\n      jump\t// in\n    tag_11:\n      mload(0x40)\n      dup1\n      swap2\n      sub\n      swap1\n      return\n        /* \"contracts/SimpleToken2.sol\":1089:1208  function approve(address spender, uint256 amount) external {... */\n    tag_4:\n      tag_13\n      0x04\n      dup1\n      calldatasize\n      sub\n      dup2\n      add\n      swap1\n      tag_14\n      swap2\n      swap1\n      tag_15\n      jump\t// in\n    tag_14:\n      tag_16\n      jump\t// in\n    tag_13:\n      stop\n        /* \"contracts/SimpleToken2.sol\":1214:1460  function transferFrom(address from, address to, uint256 amount) external returns(address) {... */\n    tag_5:\n      tag_17\n      0x04\n      dup1\n      calldatasize\n      sub\n      dup2\n      add\n      swap1\n      tag_18\n      swap2\n      swap1\n      tag_19\n      jump\t// in\n    tag_18:\n      tag_20\n      jump\t// in\n    tag_17:\n      mload(0x40)\n      tag_21\n      swap2\n      swap1\n      tag_22\n      jump\t// in\n    tag_21:\n      mload(0x40)\n      dup1\n      swap2\n      sub\n      swap1\n      return\n        /* \"contracts/SimpleToken2.sol\":890:934  mapping(address => uint256) public _balances */\n    tag_6:\n      tag_23\n      0x04\n      dup1\n      calldatasize\n      sub\n      dup2\n      add\n      swap1\n      tag_24\n      swap2\n      swap1\n      tag_25\n      jump\t// in\n    tag_24:\n      tag_26\n      jump\t// in\n    tag_23:\n      mload(0x40)\n      tag_27\n      swap2\n      swap1\n      tag_12\n      jump\t// in\n    tag_27:\n      mload(0x40)\n      dup1\n      swap2\n      sub\n      swap1\n      return\n        /* \"contracts/SimpleToken2.sol\":941:1007  mapping(address => mapping(address => uint256)) public _allowances */\n    tag_10:\n      mstore(0x20, 0x01)\n      dup2\n      0x00\n      mstore\n      mstore(0x20, keccak256(0x00, 0x40))\n      dup1\n      0x00\n      mstore\n      keccak256(0x00, 0x40)\n      0x00\n      swap2\n      pop\n      swap2\n      pop\n      pop\n      sload\n      dup2\n      jump\t// out\n        /* \"contracts/SimpleToken2.sol\":1089:1208  function approve(address spender, uint256 amount) external {... */\n    tag_16:\n        /* \"contracts/SimpleToken2.sol\":1194:1200  amount */\n      dup1\n        /* \"contracts/SimpleToken2.sol\":1159:1170  _allowances */\n      0x01\n        /* \"contracts/SimpleToken2.sol\":1159:1182  _allowances[msg.sender] */\n      0x00\n        /* \"contracts/SimpleToken2.sol\":1171:1181  msg.sender */\n      caller\n        /* \"contracts/SimpleToken2.sol\":1159:1182  _allowances[msg.sender] */\n      0xffffffffffffffffffffffffffffffffffffffff\n      and\n      0xffffffffffffffffffffffffffffffffffffffff\n      and\n      dup2\n      mstore\n      0x20\n      add\n      swap1\n      dup2\n      mstore\n      0x20\n      add\n      0x00\n      keccak256\n        /* \"contracts/SimpleToken2.sol\":1159:1191  _allowances[msg.sender][spender] */\n      0x00\n        /* \"contracts/SimpleToken2.sol\":1183:1190  spender */\n      dup5\n        /* \"contracts/SimpleToken2.sol\":1159:1191  _allowances[msg.sender][spender] */\n      0xffffffffffffffffffffffffffffffffffffffff\n      and\n      0xffffffffffffffffffffffffffffffffffffffff\n      and\n      dup2\n      mstore\n      0x20\n      add\n      swap1\n      dup2\n      mstore\n      0x20\n      add\n      0x00\n      keccak256\n        /* \"contracts/SimpleToken2.sol\":1159:1200  _allowances[msg.sender][spender] = amount */\n      dup2\n      swap1\n      sstore\n      pop\n        /* \"contracts/SimpleToken2.sol\":1089:1208  function approve(address spender, uint256 amount) external {... */\n      pop\n      pop\n      jump\t// out\n        /* \"contracts/SimpleToken2.sol\":1214:1460  function transferFrom(address from, address to, uint256 amount) external returns(address) {... */\n    tag_20:\n        /* \"contracts/SimpleToken2.sol\":1295:1302  address */\n      0x00\n        /* \"contracts/SimpleToken2.sol\":1348:1354  amount */\n      dup2\n        /* \"contracts/SimpleToken2.sol\":1315:1326  _allowances */\n      0x01\n        /* \"contracts/SimpleToken2.sol\":1315:1332  _allowances[from] */\n      0x00\n        /* \"contracts/SimpleToken2.sol\":1327:1331  from */\n      dup7\n        /* \"contracts/SimpleToken2.sol\":1315:1332  _allowances[from] */\n      0xffffffffffffffffffffffffffffffffffffffff\n      and\n      0xffffffffffffffffffffffffffffffffffffffff\n      and\n      dup2\n      mstore\n      0x20\n      add\n      swap1\n      dup2\n      mstore\n      0x20\n      add\n      0x00\n      keccak256\n        /* \"contracts/SimpleToken2.sol\":1315:1344  _allowances[from][msg.sender] */\n      0x00\n        /* \"contracts/SimpleToken2.sol\":1333:1343  msg.sender */\n      caller\n        /* \"contracts/SimpleToken2.sol\":1315:1344  _allowances[from][msg.sender] */\n      0xffffffffffffffffffffffffffffffffffffffff\n      and\n      0xffffffffffffffffffffffffffffffffffffffff\n      and\n      dup2\n      mstore\n      0x20\n      add\n      swap1\n      dup2\n      mstore\n      0x20\n      add\n      0x00\n      keccak256\n      0x00\n        /* \"contracts/SimpleToken2.sol\":1315:1354  _allowances[from][msg.sender] -= amount */\n      dup3\n      dup3\n      sload\n      tag_30\n      swap2\n      swap1\n      tag_31\n      jump\t// in\n    tag_30:\n      swap3\n      pop\n      pop\n      dup2\n      swap1\n      sstore\n      pop\n        /* \"contracts/SimpleToken2.sol\":1384:1390  amount */\n      dup2\n        /* \"contracts/SimpleToken2.sol\":1365:1374  _balances */\n      0x00\n        /* \"contracts/SimpleToken2.sol\":1365:1380  _balances[from] */\n      0x00\n        /* \"contracts/SimpleToken2.sol\":1375:1379  from */\n      dup7\n        /* \"contracts/SimpleToken2.sol\":1365:1380  _balances[from] */\n      0xffffffffffffffffffffffffffffffffffffffff\n      and\n      0xffffffffffffffffffffffffffffffffffffffff\n      and\n      dup2\n      mstore\n      0x20\n      add\n      swap1\n      dup2\n      mstore\n      0x20\n      add\n      0x00\n      keccak256\n      0x00\n        /* \"contracts/SimpleToken2.sol\":1365:1390  _balances[from] -= amount */\n      dup3\n      dup3\n      sload\n      tag_32\n      swap2\n      swap1\n      tag_31\n      jump\t// in\n    tag_32:\n      swap3\n      pop\n      pop\n      dup2\n      swap1\n      sstore\n      pop\n        /* \"contracts/SimpleToken2.sol\":1418:1424  amount */\n      dup2\n        /* \"contracts/SimpleToken2.sol\":1401:1410  _balances */\n      0x00\n        /* \"contracts/SimpleToken2.sol\":1401:1414  _balances[to] */\n      0x00\n        /* \"contracts/SimpleToken2.sol\":1411:1413  to */\n      dup6\n        /* \"contracts/SimpleToken2.sol\":1401:1414  _balances[to] */\n      0xffffffffffffffffffffffffffffffffffffffff\n      and\n      0xffffffffffffffffffffffffffffffffffffffff\n      and\n      dup2\n      mstore\n      0x20\n      add\n      swap1\n      dup2\n      mstore\n      0x20\n      add\n      0x00\n      keccak256\n      0x00\n        /* \"contracts/SimpleToken2.sol\":1401:1424  _balances[to] += amount */\n      dup3\n      dup3\n      sload\n      tag_33\n      swap2\n      swap1\n      tag_34\n      jump\t// in\n    tag_33:\n      swap3\n      pop\n      pop\n      dup2\n      swap1\n      sstore\n      pop\n        /* \"contracts/SimpleToken2.sol\":1442:1452  msg.sender */\n      caller\n        /* \"contracts/SimpleToken2.sol\":1435:1452  return msg.sender */\n      swap1\n      pop\n        /* \"contracts/SimpleToken2.sol\":1214:1460  function transferFrom(address from, address to, uint256 amount) external returns(address) {... */\n      swap4\n      swap3\n      pop\n      pop\n      pop\n      jump\t// out\n        /* \"contracts/SimpleToken2.sol\":890:934  mapping(address => uint256) public _balances */\n    tag_26:\n      mstore(0x20, 0x00)\n      dup1\n      0x00\n      mstore\n      keccak256(0x00, 0x40)\n      0x00\n      swap2\n      pop\n      swap1\n      pop\n      sload\n      dup2\n      jump\t// out\n        /* \"#utility.yul\":88:205   */\n    tag_36:\n        /* \"#utility.yul\":197:198   */\n      0x00\n        /* \"#utility.yul\":194:195   */\n      0x00\n        /* \"#utility.yul\":187:199   */\n      revert\n        /* \"#utility.yul\":334:460   */\n    tag_38:\n        /* \"#utility.yul\":371:378   */\n      0x00\n        /* \"#utility.yul\":411:453   */\n      0xffffffffffffffffffffffffffffffffffffffff\n        /* \"#utility.yul\":404:409   */\n      dup3\n        /* \"#utility.yul\":400:454   */\n      and\n        /* \"#utility.yul\":389:454   */\n      swap1\n      pop\n        /* \"#utility.yul\":334:460   */\n      swap2\n      swap1\n      pop\n      jump\t// out\n        /* \"#utility.yul\":466:562   */\n    tag_39:\n        /* \"#utility.yul\":503:510   */\n      0x00\n        /* \"#utility.yul\":532:556   */\n      tag_54\n        /* \"#utility.yul\":550:555   */\n      dup3\n        /* \"#utility.yul\":532:556   */\n      tag_38\n      jump\t// in\n    tag_54:\n        /* \"#utility.yul\":521:556   */\n      swap1\n      pop\n        /* \"#utility.yul\":466:562   */\n      swap2\n      swap1\n      pop\n      jump\t// out\n        /* \"#utility.yul\":568:690   */\n    tag_40:\n        /* \"#utility.yul\":641:665   */\n      tag_56\n        /* \"#utility.yul\":659:664   */\n      dup2\n        /* \"#utility.yul\":641:665   */\n      tag_39\n      jump\t// in\n    tag_56:\n        /* \"#utility.yul\":634:639   */\n      dup2\n        /* \"#utility.yul\":631:666   */\n      eq\n        /* \"#utility.yul\":621:684   */\n      tag_57\n      jumpi\n        /* \"#utility.yul\":680:681   */\n      0x00\n        /* \"#utility.yul\":677:678   */\n      0x00\n        /* \"#utility.yul\":670:682   */\n      revert\n        /* \"#utility.yul\":621:684   */\n    tag_57:\n        /* \"#utility.yul\":568:690   */\n      pop\n      jump\t// out\n        /* \"#utility.yul\":696:835   */\n    tag_41:\n        /* \"#utility.yul\":742:747   */\n      0x00\n        /* \"#utility.yul\":780:786   */\n      dup2\n        /* \"#utility.yul\":767:787   */\n      calldataload\n        /* \"#utility.yul\":758:787   */\n      swap1\n      pop\n        /* \"#utility.yul\":796:829   */\n      tag_59\n        /* \"#utility.yul\":823:828   */\n      dup2\n        /* \"#utility.yul\":796:829   */\n      tag_40\n      jump\t// in\n    tag_59:\n        /* \"#utility.yul\":696:835   */\n      swap3\n      swap2\n      pop\n      pop\n      jump\t// out\n        /* \"#utility.yul\":841:1315   */\n    tag_9:\n        /* \"#utility.yul\":909:915   */\n      0x00\n        /* \"#utility.yul\":917:923   */\n      0x00\n        /* \"#utility.yul\":966:968   */\n      0x40\n        /* \"#utility.yul\":954:963   */\n      dup4\n        /* \"#utility.yul\":945:952   */\n      dup6\n        /* \"#utility.yul\":941:964   */\n      sub\n        /* \"#utility.yul\":937:969   */\n      slt\n        /* \"#utility.yul\":934:1053   */\n      iszero\n      tag_61\n      jumpi\n        /* \"#utility.yul\":972:1051   */\n      tag_62\n      tag_36\n      jump\t// in\n    tag_62:\n        /* \"#utility.yul\":934:1053   */\n    tag_61:\n        /* \"#utility.yul\":1092:1093   */\n      0x00\n        /* \"#utility.yul\":1117:1170   */\n      tag_63\n        /* \"#utility.yul\":1162:1169   */\n      dup6\n        /* \"#utility.yul\":1153:1159   */\n      dup3\n        /* \"#utility.yul\":1142:1151   */\n      dup7\n        /* \"#utility.yul\":1138:1160   */\n      add\n        /* \"#utility.yul\":1117:1170   */\n      tag_41\n      jump\t// in\n    tag_63:\n        /* \"#utility.yul\":1107:1170   */\n      swap3\n      pop\n        /* \"#utility.yul\":1063:1180   */\n      pop\n        /* \"#utility.yul\":1219:1221   */\n      0x20\n        /* \"#utility.yul\":1245:1298   */\n      tag_64\n        /* \"#utility.yul\":1290:1297   */\n      dup6\n        /* \"#utility.yul\":1281:1287   */\n      dup3\n        /* \"#utility.yul\":1270:1279   */\n      dup7\n        /* \"#utility.yul\":1266:1288   */\n      add\n        /* \"#utility.yul\":1245:1298   */\n      tag_41\n      jump\t// in\n    tag_64:\n        /* \"#utility.yul\":1235:1298   */\n      swap2\n      pop\n        /* \"#utility.yul\":1190:1308   */\n      pop\n        /* \"#utility.yul\":841:1315   */\n      swap3\n      pop\n      swap3\n      swap1\n      pop\n      jump\t// out\n        /* \"#utility.yul\":1321:1398   */\n    tag_42:\n        /* \"#utility.yul\":1358:1365   */\n      0x00\n        /* \"#utility.yul\":1387:1392   */\n      dup2\n        /* \"#utility.yul\":1376:1392   */\n      swap1\n      pop\n        /* \"#utility.yul\":1321:1398   */\n      swap2\n      swap1\n      pop\n      jump\t// out\n        /* \"#utility.yul\":1404:1522   */\n    tag_43:\n        /* \"#utility.yul\":1491:1515   */\n      tag_67\n        /* \"#utility.yul\":1509:1514   */\n      dup2\n        /* \"#utility.yul\":1491:1515   */\n      tag_42\n      jump\t// in\n    tag_67:\n        /* \"#utility.yul\":1486:1489   */\n      dup3\n        /* \"#utility.yul\":1479:1516   */\n      mstore\n        /* \"#utility.yul\":1404:1522   */\n      pop\n      pop\n      jump\t// out\n        /* \"#utility.yul\":1528:1750   */\n    tag_12:\n        /* \"#utility.yul\":1621:1625   */\n      0x00\n        /* \"#utility.yul\":1659:1661   */\n      0x20\n        /* \"#utility.yul\":1648:1657   */\n      dup3\n        /* \"#utility.yul\":1644:1662   */\n      add\n        /* \"#utility.yul\":1636:1662   */\n      swap1\n      pop\n        /* \"#utility.yul\":1672:1743   */\n      tag_69\n        /* \"#utility.yul\":1740:1741   */\n      0x00\n        /* \"#utility.yul\":1729:1738   */\n      dup4\n        /* \"#utility.yul\":1725:1742   */\n      add\n        /* \"#utility.yul\":1716:1722   */\n      dup5\n        /* \"#utility.yul\":1672:1743   */\n      tag_43\n      jump\t// in\n    tag_69:\n        /* \"#utility.yul\":1528:1750   */\n      swap3\n      swap2\n      pop\n      pop\n      jump\t// out\n        /* \"#utility.yul\":1756:1878   */\n    tag_44:\n        /* \"#utility.yul\":1829:1853   */\n      tag_71\n        /* \"#utility.yul\":1847:1852   */\n      dup2\n        /* \"#utility.yul\":1829:1853   */\n      tag_42\n      jump\t// in\n    tag_71:\n        /* \"#utility.yul\":1822:1827   */\n      dup2\n        /* \"#utility.yul\":1819:1854   */\n      eq\n        /* \"#utility.yul\":1809:1872   */\n      tag_72\n      jumpi\n        /* \"#utility.yul\":1868:1869   */\n      0x00\n        /* \"#utility.yul\":1865:1866   */\n      0x00\n        /* \"#utility.yul\":1858:1870   */\n      revert\n        /* \"#utility.yul\":1809:1872   */\n    tag_72:\n        /* \"#utility.yul\":1756:1878   */\n      pop\n      jump\t// out\n        /* \"#utility.yul\":1884:2023   */\n    tag_45:\n        /* \"#utility.yul\":1930:1935   */\n      0x00\n        /* \"#utility.yul\":1968:1974   */\n      dup2\n        /* \"#utility.yul\":1955:1975   */\n      calldataload\n        /* \"#utility.yul\":1946:1975   */\n      swap1\n      pop\n        /* \"#utility.yul\":1984:2017   */\n      tag_74\n        /* \"#utility.yul\":2011:2016   */\n      dup2\n        /* \"#utility.yul\":1984:2017   */\n      tag_44\n      jump\t// in\n    tag_74:\n        /* \"#utility.yul\":1884:2023   */\n      swap3\n      swap2\n      pop\n      pop\n      jump\t// out\n        /* \"#utility.yul\":2029:2503   */\n    tag_15:\n        /* \"#utility.yul\":2097:2103   */\n      0x00\n        /* \"#utility.yul\":2105:2111   */\n      0x00\n        /* \"#utility.yul\":2154:2156   */\n      0x40\n        /* \"#utility.yul\":2142:2151   */\n      dup4\n        /* \"#utility.yul\":2133:2140   */\n      dup6\n        /* \"#utility.yul\":2129:2152   */\n      sub\n        /* \"#utility.yul\":2125:2157   */\n      slt\n        /* \"#utility.yul\":2122:2241   */\n      iszero\n      tag_76\n      jumpi\n        /* \"#utility.yul\":2160:2239   */\n      tag_77\n      tag_36\n      jump\t// in\n    tag_77:\n        /* \"#utility.yul\":2122:2241   */\n    tag_76:\n        /* \"#utility.yul\":2280:2281   */\n      0x00\n        /* \"#utility.yul\":2305:2358   */\n      tag_78\n        /* \"#utility.yul\":2350:2357   */\n      dup6\n        /* \"#utility.yul\":2341:2347   */\n      dup3\n        /* \"#utility.yul\":2330:2339   */\n      dup7\n        /* \"#utility.yul\":2326:2348   */\n      add\n        /* \"#utility.yul\":2305:2358   */\n      tag_41\n      jump\t// in\n    tag_78:\n        /* \"#utility.yul\":2295:2358   */\n      swap3\n      pop\n        /* \"#utility.yul\":2251:2368   */\n      pop\n        /* \"#utility.yul\":2407:2409   */\n      0x20\n        /* \"#utility.yul\":2433:2486   */\n      tag_79\n        /* \"#utility.yul\":2478:2485   */\n      dup6\n        /* \"#utility.yul\":2469:2475   */\n      dup3\n        /* \"#utility.yul\":2458:2467   */\n      dup7\n        /* \"#utility.yul\":2454:2476   */\n      add\n        /* \"#utility.yul\":2433:2486   */\n      tag_45\n      jump\t// in\n    tag_79:\n        /* \"#utility.yul\":2423:2486   */\n      swap2\n      pop\n        /* \"#utility.yul\":2378:2496   */\n      pop\n        /* \"#utility.yul\":2029:2503   */\n      swap3\n      pop\n      swap3\n      swap1\n      pop\n      jump\t// out\n        /* \"#utility.yul\":2509:3128   */\n    tag_19:\n        /* \"#utility.yul\":2586:2592   */\n      0x00\n        /* \"#utility.yul\":2594:2600   */\n      0x00\n        /* \"#utility.yul\":2602:2608   */\n      0x00\n        /* \"#utility.yul\":2651:2653   */\n      0x60\n        /* \"#utility.yul\":2639:2648   */\n      dup5\n        /* \"#utility.yul\":2630:2637   */\n      dup7\n        /* \"#utility.yul\":2626:2649   */\n      sub\n        /* \"#utility.yul\":2622:2654   */\n      slt\n        /* \"#utility.yul\":2619:2738   */\n      iszero\n      tag_81\n      jumpi\n        /* \"#utility.yul\":2657:2736   */\n      tag_82\n      tag_36\n      jump\t// in\n    tag_82:\n        /* \"#utility.yul\":2619:2738   */\n    tag_81:\n        /* \"#utility.yul\":2777:2778   */\n      0x00\n        /* \"#utility.yul\":2802:2855   */\n      tag_83\n        /* \"#utility.yul\":2847:2854   */\n      dup7\n        /* \"#utility.yul\":2838:2844   */\n      dup3\n        /* \"#utility.yul\":2827:2836   */\n      dup8\n        /* \"#utility.yul\":2823:2845   */\n      add\n        /* \"#utility.yul\":2802:2855   */\n      tag_41\n      jump\t// in\n    tag_83:\n        /* \"#utility.yul\":2792:2855   */\n      swap4\n      pop\n        /* \"#utility.yul\":2748:2865   */\n      pop\n        /* \"#utility.yul\":2904:2906   */\n      0x20\n        /* \"#utility.yul\":2930:2983   */\n      tag_84\n        /* \"#utility.yul\":2975:2982   */\n      dup7\n        /* \"#utility.yul\":2966:2972   */\n      dup3\n        /* \"#utility.yul\":2955:2964   */\n      dup8\n        /* \"#utility.yul\":2951:2973   */\n      add\n        /* \"#utility.yul\":2930:2983   */\n      tag_41\n      jump\t// in\n    tag_84:\n        /* \"#utility.yul\":2920:2983   */\n      swap3\n      pop\n        /* \"#utility.yul\":2875:2993   */\n      pop\n        /* \"#utility.yul\":3032:3034   */\n      0x40\n        /* \"#utility.yul\":3058:3111   */\n      tag_85\n        /* \"#utility.yul\":3103:3110   */\n      dup7\n        /* \"#utility.yul\":3094:3100   */\n      dup3\n        /* \"#utility.yul\":3083:3092   */\n      dup8\n        /* \"#utility.yul\":3079:3101   */\n      add\n        /* \"#utility.yul\":3058:3111   */\n      tag_45\n      jump\t// in\n    tag_85:\n        /* \"#utility.yul\":3048:3111   */\n      swap2\n      pop\n        /* \"#utility.yul\":3003:3121   */\n      pop\n        /* \"#utility.yul\":2509:3128   */\n      swap3\n      pop\n      swap3\n      pop\n      swap3\n      jump\t// out\n        /* \"#utility.yul\":3134:3252   */\n    tag_46:\n        /* \"#utility.yul\":3221:3245   */\n      tag_87\n        /* \"#utility.yul\":3239:3244   */\n      dup2\n        /* \"#utility.yul\":3221:3245   */\n      tag_39\n      jump\t// in\n    tag_87:\n        /* \"#utility.yul\":3216:3219   */\n      dup3\n        /* \"#utility.yul\":3209:3246   */\n      mstore\n        /* \"#utility.yul\":3134:3252   */\n      pop\n      pop\n      jump\t// out\n        /* \"#utility.yul\":3258:3480   */\n    tag_22:\n        /* \"#utility.yul\":3351:3355   */\n      0x00\n        /* \"#utility.yul\":3389:3391   */\n      0x20\n        /* \"#utility.yul\":3378:3387   */\n      dup3\n        /* \"#utility.yul\":3374:3392   */\n      add\n        /* \"#utility.yul\":3366:3392   */\n      swap1\n      pop\n        /* \"#utility.yul\":3402:3473   */\n      tag_89\n        /* \"#utility.yul\":3470:3471   */\n      0x00\n        /* \"#utility.yul\":3459:3468   */\n      dup4\n        /* \"#utility.yul\":3455:3472   */\n      add\n        /* \"#utility.yul\":3446:3452   */\n      dup5\n        /* \"#utility.yul\":3402:3473   */\n      tag_46\n      jump\t// in\n    tag_89:\n        /* \"#utility.yul\":3258:3480   */\n      swap3\n      swap2\n      pop\n      pop\n      jump\t// out\n        /* \"#utility.yul\":3486:3815   */\n    tag_25:\n        /* \"#utility.yul\":3545:3551   */\n      0x00\n        /* \"#utility.yul\":3594:3596   */\n      0x20\n        /* \"#utility.yul\":3582:3591   */\n      dup3\n        /* \"#utility.yul\":3573:3580   */\n      dup5\n        /* \"#utility.yul\":3569:3592   */\n      sub\n        /* \"#utility.yul\":3565:3597   */\n      slt\n        /* \"#utility.yul\":3562:3681   */\n      iszero\n      tag_91\n      jumpi\n        /* \"#utility.yul\":3600:3679   */\n      tag_92\n      tag_36\n      jump\t// in\n    tag_92:\n        /* \"#utility.yul\":3562:3681   */\n    tag_91:\n        /* \"#utility.yul\":3720:3721   */\n      0x00\n        /* \"#utility.yul\":3745:3798   */\n      tag_93\n        /* \"#utility.yul\":3790:3797   */\n      dup5\n        /* \"#utility.yul\":3781:3787   */\n      dup3\n        /* \"#utility.yul\":3770:3779   */\n      dup6\n        /* \"#utility.yul\":3766:3788   */\n      add\n        /* \"#utility.yul\":3745:3798   */\n      tag_41\n      jump\t// in\n    tag_93:\n        /* \"#utility.yul\":3735:3798   */\n      swap2\n      pop\n        /* \"#utility.yul\":3691:3808   */\n      pop\n        /* \"#utility.yul\":3486:3815   */\n      swap3\n      swap2\n      pop\n      pop\n      jump\t// out\n        /* \"#utility.yul\":3821:4001   */\n    tag_47:\n        /* \"#utility.yul\":3869:3946   */\n      0x4e487b7100000000000000000000000000000000000000000000000000000000\n        /* \"#utility.yul\":3866:3867   */\n      0x00\n        /* \"#utility.yul\":3859:3947   */\n      mstore\n        /* \"#utility.yul\":3966:3970   */\n      0x11\n        /* \"#utility.yul\":3963:3964   */\n      0x04\n        /* \"#utility.yul\":3956:3971   */\n      mstore\n        /* \"#utility.yul\":3990:3994   */\n      0x24\n        /* \"#utility.yul\":3987:3988   */\n      0x00\n        /* \"#utility.yul\":3980:3995   */\n      revert\n        /* \"#utility.yul\":4007:4201   */\n    tag_31:\n        /* \"#utility.yul\":4047:4051   */\n      0x00\n        /* \"#utility.yul\":4067:4087   */\n      tag_96\n        /* \"#utility.yul\":4085:4086   */\n      dup3\n        /* \"#utility.yul\":4067:4087   */\n      tag_42\n      jump\t// in\n    tag_96:\n        /* \"#utility.yul\":4062:4087   */\n      swap2\n      pop\n        /* \"#utility.yul\":4101:4121   */\n      tag_97\n        /* \"#utility.yul\":4119:4120   */\n      dup4\n        /* \"#utility.yul\":4101:4121   */\n      tag_42\n      jump\t// in\n    tag_97:\n        /* \"#utility.yul\":4096:4121   */\n      swap3\n      pop\n        /* \"#utility.yul\":4145:4146   */\n      dup3\n        /* \"#utility.yul\":4142:4143   */\n      dup3\n        /* \"#utility.yul\":4138:4147   */\n      sub\n        /* \"#utility.yul\":4130:4147   */\n      swap1\n      pop\n        /* \"#utility.yul\":4169:4170   */\n      dup2\n        /* \"#utility.yul\":4163:4167   */\n      dup2\n        /* \"#utility.yul\":4160:4171   */\n      gt\n        /* \"#utility.yul\":4157:4194   */\n      iszero\n      tag_98\n      jumpi\n        /* \"#utility.yul\":4174:4192   */\n      tag_99\n      tag_47\n      jump\t// in\n    tag_99:\n        /* \"#utility.yul\":4157:4194   */\n    tag_98:\n        /* \"#utility.yul\":4007:4201   */\n      swap3\n      swap2\n      pop\n      pop\n      jump\t// out\n        /* \"#utility.yul\":4207:4398   */\n    tag_34:\n        /* \"#utility.yul\":4247:4250   */\n      0x00\n        /* \"#utility.yul\":4266:4286   */\n      tag_101\n        /* \"#utility.yul\":4284:4285   */\n      dup3\n        /* \"#utility.yul\":4266:4286   */\n      tag_42\n      jump\t// in\n    tag_101:\n        /* \"#utility.yul\":4261:4286   */\n      swap2\n      pop\n        /* \"#utility.yul\":4300:4320   */\n      tag_102\n        /* \"#utility.yul\":4318:4319   */\n      dup4\n        /* \"#utility.yul\":4300:4320   */\n      tag_42\n      jump\t// in\n    tag_102:\n        /* \"#utility.yul\":4295:4320   */\n      swap3\n      pop\n        /* \"#utility.yul\":4343:4344   */\n      dup3\n        /* \"#utility.yul\":4340:4341   */\n      dup3\n        /* \"#utility.yul\":4336:4345   */\n      add\n        /* \"#utility.yul\":4329:4345   */\n      swap1\n      pop\n        /* \"#utility.yul\":4364:4367   */\n      dup1\n        /* \"#utility.yul\":4361:4362   */\n      dup3\n        /* \"#utility.yul\":4358:4368   */\n      gt\n        /* \"#utility.yul\":4355:4391   */\n      iszero\n      tag_103\n      jumpi\n        /* \"#utility.yul\":4371:4389   */\n      tag_104\n      tag_47\n      jump\t// in\n    tag_104:\n        /* \"#utility.yul\":4355:4391   */\n    tag_103:\n        /* \"#utility.yul\":4207:4398   */\n      swap3\n      swap2\n      pop\n      pop\n      jump\t// out\n\n    auxdata: 0xa26469706673582212207ef831e5737b3c140b30355e81dab4511ebeba37a6e3c954156e4a539012d43764736f6c634300081e0033\n}\n",
				"bytecode": {
					"linkReferences": {},
					"object": "6080604052348015600e575f5ffd5b5068056bc75e2d631000005f5f3373ffffffffffffffffffffffffffffffffffffffff1673ffffffffffffffffffffffffffffffffffffffff1681526020019081526020015f208190555061058d806100665f395ff3fe608060405234801561000f575f5ffd5b506004361061004a575f3560e01c8063024c2ddd1461004e578063095ea7b31461007e57806323b872dd1461009a5780636ebcf607146100ca575b5f5ffd5b6100686004803603810190610063919061034a565b6100fa565b60405161007591906103a0565b60405180910390f35b610098600480360381019061009391906103e3565b61011a565b005b6100b460048036038101906100af9190610421565b61019b565b6040516100c19190610480565b60405180910390f35b6100e460048036038101906100df9190610499565b6102d8565b6040516100f191906103a0565b60405180910390f35b6001602052815f5260405f20602052805f5260405f205f91509150505481565b8060015f3373ffffffffffffffffffffffffffffffffffffffff1673ffffffffffffffffffffffffffffffffffffffff1681526020019081526020015f205f8473ffffffffffffffffffffffffffffffffffffffff1673ffffffffffffffffffffffffffffffffffffffff1681526020019081526020015f20819055505050565b5f8160015f8673ffffffffffffffffffffffffffffffffffffffff1673ffffffffffffffffffffffffffffffffffffffff1681526020019081526020015f205f3373ffffffffffffffffffffffffffffffffffffffff1673ffffffffffffffffffffffffffffffffffffffff1681526020019081526020015f205f82825461022391906104f1565b92505081905550815f5f8673ffffffffffffffffffffffffffffffffffffffff1673ffffffffffffffffffffffffffffffffffffffff1681526020019081526020015f205f82825461027591906104f1565b92505081905550815f5f8573ffffffffffffffffffffffffffffffffffffffff1673ffffffffffffffffffffffffffffffffffffffff1681526020019081526020015f205f8282546102c79190610524565b925050819055503390509392505050565b5f602052805f5260405f205f915090505481565b5f5ffd5b5f73ffffffffffffffffffffffffffffffffffffffff82169050919050565b5f610319826102f0565b9050919050565b6103298161030f565b8114610333575f5ffd5b50565b5f8135905061034481610320565b92915050565b5f5f604083850312156103605761035f6102ec565b5b5f61036d85828601610336565b925050602061037e85828601610336565b9150509250929050565b5f819050919050565b61039a81610388565b82525050565b5f6020820190506103b35f830184610391565b92915050565b6103c281610388565b81146103cc575f5ffd5b50565b5f813590506103dd816103b9565b92915050565b5f5f604083850312156103f9576103f86102ec565b5b5f61040685828601610336565b9250506020610417858286016103cf565b9150509250929050565b5f5f5f60608486031215610438576104376102ec565b5b5f61044586828701610336565b935050602061045686828701610336565b9250506040610467868287016103cf565b9150509250925092565b61047a8161030f565b82525050565b5f6020820190506104935f830184610471565b92915050565b5f602082840312156104ae576104ad6102ec565b5b5f6104bb84828501610336565b91505092915050565b7f4e487b71000000000000000000000000000000000000000000000000000000005f52601160045260245ffd5b5f6104fb82610388565b915061050683610388565b925082820390508181111561051e5761051d6104c4565b5b92915050565b5f61052e82610388565b915061053983610388565b9250828201905080821115610551576105506104c4565b5b9291505056fea26469706673582212207ef831e5737b3c140b30355e81dab4511ebeba37a6e3c954156e4a539012d43764736f6c634300081e0033",
					"opcodes": "PUSH1 0x80 PUSH1 0x40 MSTORE CALLVALUE DUP1 ISZERO PUSH1 0xE JUMPI PUSH0 PUSH0 REVERT JUMPDEST POP PUSH9 0x56BC75E2D63100000 PUSH0 PUSH0 CALLER PUSH20 0xFFFFFFFFFFFFFFFFFFFFFFFFFFFFFFFFFFFFFFFF AND PUSH20 0xFFFFFFFFFFFFFFFFFFFFFFFFFFFFFFFFFFFFFFFF AND DUP2 MSTORE PUSH1 0x20 ADD SWAP1 DUP2 MSTORE PUSH1 0x20 ADD PUSH0 KECCAK256 DUP2 SWAP1 SSTORE POP PUSH2 0x58D DUP1 PUSH2 0x66 PUSH0 CODECOPY PUSH0 RETURN INVALID PUSH1 0x80 PUSH1 0x40 MSTORE CALLVALUE DUP1 ISZERO PUSH2 0xF JUMPI PUSH0 PUSH0 REVERT JUMPDEST POP PUSH1 0x4 CALLDATASIZE LT PUSH2 0x4A JUMPI PUSH0 CALLDATALOAD PUSH1 0xE0 SHR DUP1 PUSH4 0x24C2DDD EQ PUSH2 0x4E JUMPI DUP1 PUSH4 0x95EA7B3 EQ PUSH2 0x7E JUMPI DUP1 PUSH4 0x23B872DD EQ PUSH2 0x9A JUMPI DUP1 PUSH4 0x6EBCF607 EQ PUSH2 0xCA JUMPI JUMPDEST PUSH0 PUSH0 REVERT JUMPDEST PUSH2 0x68 PUSH1 0x4 DUP1 CALLDATASIZE SUB DUP2 ADD SWAP1 PUSH2 0x63 SWAP2 SWAP1 PUSH2 0x34A JUMP JUMPDEST PUSH2 0xFA JUMP JUMPDEST PUSH1 0x40 MLOAD PUSH2 0x75 SWAP2 SWAP1 PUSH2 0x3A0 JUMP JUMPDEST PUSH1 0x40 MLOAD DUP1 SWAP2 SUB SWAP1 RETURN JUMPDEST PUSH2 0x98 PUSH1 0x4 DUP1 CALLDATASIZE SUB DUP2 ADD SWAP1 PUSH2 0x93 SWAP2 SWAP1 PUSH2 0x3E3 JUMP JUMPDEST PUSH2 0x11A JUMP JUMPDEST STOP JUMPDEST PUSH2 0xB4 PUSH1 0x4 DUP1 CALLDATASIZE SUB DUP2 ADD SWAP1 PUSH2 0xAF SWAP2 SWAP1 PUSH2 0x421 JUMP JUMPDEST PUSH2 0x19B JUMP JUMPDEST PUSH1 0x40 MLOAD PUSH2 0xC1 SWAP2 SWAP1 PUSH2 0x480 JUMP JUMPDEST PUSH1 0x40 MLOAD DUP1 SWAP2 SUB SWAP1 RETURN JUMPDEST PUSH2 0xE4 PUSH1 0x4 DUP1 CALLDATASIZE SUB DUP2 ADD SWAP1 PUSH2 0xDF SWAP2 SWAP1 PUSH2 0x499 JUMP JUMPDEST PUSH2 0x2D8 JUMP JUMPDEST PUSH1 0x40 MLOAD PUSH2 0xF1 SWAP2 SWAP1 PUSH2 0x3A0 JUMP JUMPDEST PUSH1 0x40 MLOAD DUP1 SWAP2 SUB SWAP1 RETURN JUMPDEST PUSH1 0x1 PUSH1 0x20 MSTORE DUP2 PUSH0 MSTORE PUSH1 0x40 PUSH0 KECCAK256 PUSH1 0x20 MSTORE DUP1 PUSH0 MSTORE PUSH1 0x40 PUSH0 KECCAK256 PUSH0 SWAP2 POP SWAP2 POP POP SLOAD DUP2 JUMP JUMPDEST DUP1 PUSH1 0x1 PUSH0 CALLER PUSH20 0xFFFFFFFFFFFFFFFFFFFFFFFFFFFFFFFFFFFFFFFF AND PUSH20 0xFFFFFFFFFFFFFFFFFFFFFFFFFFFFFFFFFFFFFFFF AND DUP2 MSTORE PUSH1 0x20 ADD SWAP1 DUP2 MSTORE PUSH1 0x20 ADD PUSH0 KECCAK256 PUSH0 DUP5 PUSH20 0xFFFFFFFFFFFFFFFFFFFFFFFFFFFFFFFFFFFFFFFF AND PUSH20 0xFFFFFFFFFFFFFFFFFFFFFFFFFFFFFFFFFFFFFFFF AND DUP2 MSTORE PUSH1 0x20 ADD SWAP1 DUP2 MSTORE PUSH1 0x20 ADD PUSH0 KECCAK256 DUP2 SWAP1 SSTORE POP POP POP JUMP JUMPDEST PUSH0 DUP2 PUSH1 0x1 PUSH0 DUP7 PUSH20 0xFFFFFFFFFFFFFFFFFFFFFFFFFFFFFFFFFFFFFFFF AND PUSH20 0xFFFFFFFFFFFFFFFFFFFFFFFFFFFFFFFFFFFFFFFF AND DUP2 MSTORE PUSH1 0x20 ADD SWAP1 DUP2 MSTORE PUSH1 0x20 ADD PUSH0 KECCAK256 PUSH0 CALLER PUSH20 0xFFFFFFFFFFFFFFFFFFFFFFFFFFFFFFFFFFFFFFFF AND PUSH20 0xFFFFFFFFFFFFFFFFFFFFFFFFFFFFFFFFFFFFFFFF AND DUP2 MSTORE PUSH1 0x20 ADD SWAP1 DUP2 MSTORE PUSH1 0x20 ADD PUSH0 KECCAK256 PUSH0 DUP3 DUP3 SLOAD PUSH2 0x223 SWAP2 SWAP1 PUSH2 0x4F1 JUMP JUMPDEST SWAP3 POP POP DUP2 SWAP1 SSTORE POP DUP2 PUSH0 PUSH0 DUP7 PUSH20 0xFFFFFFFFFFFFFFFFFFFFFFFFFFFFFFFFFFFFFFFF AND PUSH20 0xFFFFFFFFFFFFFFFFFFFFFFFFFFFFFFFFFFFFFFFF AND DUP2 MSTORE PUSH1 0x20 ADD SWAP1 DUP2 MSTORE PUSH1 0x20 ADD PUSH0 KECCAK256 PUSH0 DUP3 DUP3 SLOAD PUSH2 0x275 SWAP2 SWAP1 PUSH2 0x4F1 JUMP JUMPDEST SWAP3 POP POP DUP2 SWAP1 SSTORE POP DUP2 PUSH0 PUSH0 DUP6 PUSH20 0xFFFFFFFFFFFFFFFFFFFFFFFFFFFFFFFFFFFFFFFF AND PUSH20 0xFFFFFFFFFFFFFFFFFFFFFFFFFFFFFFFFFFFFFFFF AND DUP2 MSTORE PUSH1 0x20 ADD SWAP1 DUP2 MSTORE PUSH1 0x20 ADD PUSH0 KECCAK256 PUSH0 DUP3 DUP3 SLOAD PUSH2 0x2C7 SWAP2 SWAP1 PUSH2 0x524 JUMP JUMPDEST SWAP3 POP POP DUP2 SWAP1 SSTORE POP CALLER SWAP1 POP SWAP4 SWAP3 POP POP POP JUMP JUMPDEST PUSH0 PUSH1 0x20 MSTORE DUP1 PUSH0 MSTORE PUSH1 0x40 PUSH0 KECCAK256 PUSH0 SWAP2 POP SWAP1 POP SLOAD DUP2 JUMP JUMPDEST PUSH0 PUSH0 REVERT JUMPDEST PUSH0 PUSH20 0xFFFFFFFFFFFFFFFFFFFFFFFFFFFFFFFFFFFFFFFF DUP3 AND SWAP1 POP SWAP2 SWAP1 POP JUMP JUMPDEST PUSH0 PUSH2 0x319 DUP3 PUSH2 0x2F0 JUMP JUMPDEST SWAP1 POP SWAP2 SWAP1 POP JUMP JUMPDEST PUSH2 0x329 DUP2 PUSH2 0x30F JUMP JUMPDEST DUP2 EQ PUSH2 0x333 JUMPI PUSH0 PUSH0 REVERT JUMPDEST POP JUMP JUMPDEST PUSH0 DUP2 CALLDATALOAD SWAP1 POP PUSH2 0x344 DUP2 PUSH2 0x320 JUMP JUMPDEST SWAP3 SWAP2 POP POP JUMP JUMPDEST PUSH0 PUSH0 PUSH1 0x40 DUP4 DUP6 SUB SLT ISZERO PUSH2 0x360 JUMPI PUSH2 0x35F PUSH2 0x2EC JUMP JUMPDEST JUMPDEST PUSH0 PUSH2 0x36D DUP6 DUP3 DUP7 ADD PUSH2 0x336 JUMP JUMPDEST SWAP3 POP POP PUSH1 0x20 PUSH2 0x37E DUP6 DUP3 DUP7 ADD PUSH2 0x336 JUMP JUMPDEST SWAP2 POP POP SWAP3 POP SWAP3 SWAP1 POP JUMP JUMPDEST PUSH0 DUP2 SWAP1 POP SWAP2 SWAP1 POP JUMP JUMPDEST PUSH2 0x39A DUP2 PUSH2 0x388 JUMP JUMPDEST DUP3 MSTORE POP POP JUMP JUMPDEST PUSH0 PUSH1 0x20 DUP3 ADD SWAP1 POP PUSH2 0x3B3 PUSH0 DUP4 ADD DUP5 PUSH2 0x391 JUMP JUMPDEST SWAP3 SWAP2 POP POP JUMP JUMPDEST PUSH2 0x3C2 DUP2 PUSH2 0x388 JUMP JUMPDEST DUP2 EQ PUSH2 0x3CC JUMPI PUSH0 PUSH0 REVERT JUMPDEST POP JUMP JUMPDEST PUSH0 DUP2 CALLDATALOAD SWAP1 POP PUSH2 0x3DD DUP2 PUSH2 0x3B9 JUMP JUMPDEST SWAP3 SWAP2 POP POP JUMP JUMPDEST PUSH0 PUSH0 PUSH1 0x40 DUP4 DUP6 SUB SLT ISZERO PUSH2 0x3F9 JUMPI PUSH2 0x3F8 PUSH2 0x2EC JUMP JUMPDEST JUMPDEST PUSH0 PUSH2 0x406 DUP6 DUP3 DUP7 ADD PUSH2 0x336 JUMP JUMPDEST SWAP3 POP POP PUSH1 0x20 PUSH2 0x417 DUP6 DUP3 DUP7 ADD PUSH2 0x3CF JUMP JUMPDEST SWAP2 POP POP SWAP3 POP SWAP3 SWAP1 POP JUMP JUMPDEST PUSH0 PUSH0 PUSH0 PUSH1 0x60 DUP5 DUP7 SUB SLT ISZERO PUSH2 0x438 JUMPI PUSH2 0x437 PUSH2 0x2EC JUMP JUMPDEST JUMPDEST PUSH0 PUSH2 0x445 DUP7 DUP3 DUP8 ADD PUSH2 0x336 JUMP JUMPDEST SWAP4 POP POP PUSH1 0x20 PUSH2 0x456 DUP7 DUP3 DUP8 ADD PUSH2 0x336 JUMP JUMPDEST SWAP3 POP POP PUSH1 0x40 PUSH2 0x467 DUP7 DUP3 DUP8 ADD PUSH2 0x3CF JUMP JUMPDEST SWAP2 POP POP SWAP3 POP SWAP3 POP SWAP3 JUMP JUMPDEST PUSH2 0x47A DUP2 PUSH2 0x30F JUMP JUMPDEST DUP3 MSTORE POP POP JUMP JUMPDEST PUSH0 PUSH1 0x20 DUP3 ADD SWAP1 POP PUSH2 0x493 PUSH0 DUP4 ADD DUP5 PUSH2 0x471 JUMP JUMPDEST SWAP3 SWAP2 POP POP JUMP JUMPDEST PUSH0 PUSH1 0x20 DUP3 DUP5 SUB SLT ISZERO PUSH2 0x4AE JUMPI PUSH2 0x4AD PUSH2 0x2EC JUMP JUMPDEST JUMPDEST PUSH0 PUSH2 0x4BB DUP5 DUP3 DUP6 ADD PUSH2 0x336 JUMP JUMPDEST SWAP2 POP POP SWAP3 SWAP2 POP POP JUMP JUMPDEST PUSH32 0x4E487B7100000000000000000000000000000000000000000000000000000000 PUSH0 MSTORE PUSH1 0x11 PUSH1 0x4 MSTORE PUSH1 0x24 PUSH0 REVERT JUMPDEST PUSH0 PUSH2 0x4FB DUP3 PUSH2 0x388 JUMP JUMPDEST SWAP2 POP PUSH2 0x506 DUP4 PUSH2 0x388 JUMP JUMPDEST SWAP3 POP DUP3 DUP3 SUB SWAP1 POP DUP2 DUP2 GT ISZERO PUSH2 0x51E JUMPI PUSH2 0x51D PUSH2 0x4C4 JUMP JUMPDEST JUMPDEST SWAP3 SWAP2 POP POP JUMP JUMPDEST PUSH0 PUSH2 0x52E DUP3 PUSH2 0x388 JUMP JUMPDEST SWAP2 POP PUSH2 0x539 DUP4 PUSH2 0x388 JUMP JUMPDEST SWAP3 POP DUP3 DUP3 ADD SWAP1 POP DUP1 DUP3 GT ISZERO PUSH2 0x551 JUMPI PUSH2 0x550 PUSH2 0x4C4 JUMP JUMPDEST JUMPDEST SWAP3 SWAP2 POP POP JUMP INVALID LOG2 PUSH5 0x6970667358 0x22 SLT KECCAK256 PUSH31 0xF831E5737B3C140B30355E81DAB4511EBEBA37A6E3C954156E4A539012D437 PUSH5 0x736F6C6343 STOP ADDMOD 0x1E STOP CALLER "
				},
				"gasEstimates": {
					"creation": {
						"codeDepositCost": "284200",
						"executionCost": "22522",
						"totalCost": "306722"
					},
					"external": {
						"_allowances(address,address)": "infinite",
						"_balances(address)": "2845",
						"approve(address,uint256)": "22908",
						"transferFrom(address,address,uint256)": "infinite"
					}
				},
				"methodIdentifiers": {
					"_allowances(address,address)": "024c2ddd",
					"_balances(address)": "6ebcf607",
					"approve(address,uint256)": "095ea7b3",
					"transferFrom(address,address,uint256)": "23b872dd"
				}
			},
			"storageLayout": {
				"storage": [
					{
						"astId": 25,
						"contract": "contracts/SimpleToken2.sol:SimpleToken",
						"label": "_balances",
						"offset": 0,
						"slot": "0",
						"type": "t_mapping(t_address,t_uint256)"
					},
					{
						"astId": 31,
						"contract": "contracts/SimpleToken2.sol:SimpleToken",
						"label": "_allowances",
						"offset": 0,
						"slot": "1",
						"type": "t_mapping(t_address,t_mapping(t_address,t_uint256))"
					}
				],
				"types": {
					"t_address": {
						"encoding": "inplace",
						"label": "address",
						"numberOfBytes": "20"
					},
					"t_mapping(t_address,t_mapping(t_address,t_uint256))": {
						"encoding": "mapping",
						"key": "t_address",
						"label": "mapping(address => mapping(address => uint256))",
						"numberOfBytes": "32",
						"value": "t_mapping(t_address,t_uint256)"
					},
					"t_mapping(t_address,t_uint256)": {
						"encoding": "mapping",
						"key": "t_address",
						"label": "mapping(address => uint256)",
						"numberOfBytes": "32",
						"value": "t_uint256"
					},
					"t_uint256": {
						"encoding": "inplace",
						"label": "uint256",
						"numberOfBytes": "32"
					}
				}
			},
			"userdoc": {
				"kind": "user",
				"methods": {},
				"version": 1
			}
		}
	}
}