{
	"contracts/task1/MergeSortedArray.sol": {
		"MergeSortedArray": {
			"abi": [
				{
					"inputs": [
						{
							"internalType": "uint256[]",
							"name": "a",
							"type": "uint256[]"
						},
						{
							"internalType": "uint256[]",
							"name": "b",
							"type": "uint256[]"
						}
					],
					"name": "merge",
					"outputs": [
						{
							"internalType": "uint256[]",
							"name": "",
							"type": "uint256[]"
						}
					],
					"stateMutability": "pure",
					"type": "function"
				}
			],
			"devdoc": {
				"kind": "dev",
				"methods": {},
				"version": 1
			},
			"evm": {
				"assembly": "    /* \"contracts/task1/MergeSortedArray.sol\":128:598  contract MergeSortedArray {... */\n  mstore(0x40, 0x80)\n  callvalue\n  dup1\n  iszero\n  tag_1\n  jumpi\n  revert(0x00, 0x00)\ntag_1:\n  pop\n  dataSize(sub_0)\n  dup1\n  dataOffset(sub_0)\n  0x00\n  codecopy\n  0x00\n  return\nstop\n\nsub_0: assembly {\n        /* \"contracts/task1/MergeSortedArray.sol\":128:598  contract MergeSortedArray {... */\n      mstore(0x40, 0x80)\n      callvalue\n      dup1\n      iszero\n      tag_1\n      jumpi\n      revert(0x00, 0x00)\n    tag_1:\n      pop\n      jumpi(tag_2, lt(calldatasize, 0x04))\n      shr(0xe0, calldataload(0x00))\n      dup1\n      0x088b9bf6\n      eq\n      tag_3\n      jumpi\n    tag_2:\n      revert(0x00, 0x00)\n        /* \"contracts/task1/MergeSortedArray.sol\":161:595  function merge(uint256[] calldata a, uint256[] calldata b) public pure returns(uint256[] memory) {... */\n    tag_3:\n      tag_4\n      0x04\n      dup1\n      calldatasize\n      sub\n      dup2\n      add\n      swap1\n      tag_5\n      swap2\n      swap1\n      tag_6\n      jump\t// in\n    tag_5:\n      tag_7\n      jump\t// in\n    tag_4:\n      mload(0x40)\n      tag_8\n      swap2\n      swap1\n      tag_9\n      jump\t// in\n    tag_8:\n      mload(0x40)\n      dup1\n      swap2\n      sub\n      swap1\n      return\n    tag_7:\n        /* \"contracts/task1/MergeSortedArray.sol\":240:256  uint256[] memory */\n      0x60\n        /* \"contracts/task1/MergeSortedArray.sol\":269:281  uint256 aLen */\n      0x00\n        /* \"contracts/task1/MergeSortedArray.sol\":284:285  a */\n      dup6\n      dup6\n        /* \"contracts/task1/MergeSortedArray.sol\":284:292  a.length */\n      swap1\n      pop\n        /* \"contracts/task1/MergeSortedArray.sol\":269:292  uint256 aLen = a.length */\n      swap1\n      pop\n        /* \"contracts/task1/MergeSortedArray.sol\":303:315  uint256 bLen */\n      0x00\n        /* \"contracts/task1/MergeSortedArray.sol\":318:319  b */\n      dup5\n      dup5\n        /* \"contracts/task1/MergeSortedArray.sol\":318:326  b.length */\n      swap1\n      pop\n        /* \"contracts/task1/MergeSortedArray.sol\":303:326  uint256 bLen = b.length */\n      swap1\n      pop\n        /* \"contracts/task1/MergeSortedArray.sol\":337:355  uint256[] memory c */\n      0x00\n        /* \"contracts/task1/MergeSortedArray.sol\":379:383  bLen */\n      dup2\n        /* \"contracts/task1/MergeSortedArray.sol\":372:376  aLen */\n      dup4\n        /* \"contracts/task1/MergeSortedArray.sol\":372:383  aLen + bLen */\n      tag_11\n      swap2\n      swap1\n      tag_12\n      jump\t// in\n    tag_11:\n        /* \"contracts/task1/MergeSortedArray.sol\":358:384  new uint256[](aLen + bLen) */\n      0xffffffffffffffff\n      dup2\n      gt\n      iszero\n      tag_13\n      jumpi\n      tag_14\n      tag_15\n      jump\t// in\n    tag_14:\n    tag_13:\n      mload(0x40)\n      swap1\n      dup1\n      dup3\n      mstore\n      dup1\n      0x20\n      mul\n      0x20\n      add\n      dup3\n      add\n      0x40\n      mstore\n      dup1\n      iszero\n      tag_16\n      jumpi\n      dup2\n      0x20\n      add\n      0x20\n      dup3\n      mul\n      dup1\n      calldatasize\n      dup4\n      calldatacopy\n      dup1\n      dup3\n      add\n      swap2\n      pop\n      pop\n      swap1\n      pop\n    tag_16:\n      pop\n        /* \"contracts/task1/MergeSortedArray.sol\":337:384  uint256[] memory c = new uint256[](aLen + bLen) */\n      swap1\n      pop\n        /* \"contracts/task1/MergeSortedArray.sol\":413:422  uint256 i */\n      0x00\n        /* \"contracts/task1/MergeSortedArray.sol\":425:426  0 */\n      0x00\n        /* \"contracts/task1/MergeSortedArray.sol\":413:426  uint256 i = 0 */\n      swap1\n      pop\n        /* \"contracts/task1/MergeSortedArray.sol\":408:481  for (uint256 i = 0; i < aLen; i++) {... */\n    tag_17:\n        /* \"contracts/task1/MergeSortedArray.sol\":432:436  aLen */\n      dup4\n        /* \"contracts/task1/MergeSortedArray.sol\":428:429  i */\n      dup2\n        /* \"contracts/task1/MergeSortedArray.sol\":428:436  i < aLen */\n      lt\n        /* \"contracts/task1/MergeSortedArray.sol\":408:481  for (uint256 i = 0; i < aLen; i++) {... */\n      iszero\n      tag_18\n      jumpi\n        /* \"contracts/task1/MergeSortedArray.sol\":465:466  a */\n      dup9\n      dup9\n        /* \"contracts/task1/MergeSortedArray.sol\":467:468  i */\n      dup3\n        /* \"contracts/task1/MergeSortedArray.sol\":465:469  a[i] */\n      dup2\n      dup2\n      lt\n      tag_20\n      jumpi\n      tag_21\n      tag_22\n      jump\t// in\n    tag_21:\n    tag_20:\n      swap1\n      pop\n      0x20\n      mul\n      add\n      calldataload\n        /* \"contracts/task1/MergeSortedArray.sol\":458:459  c */\n      dup3\n        /* \"contracts/task1/MergeSortedArray.sol\":460:461  i */\n      dup3\n        /* \"contracts/task1/MergeSortedArray.sol\":458:462  c[i] */\n      dup2\n      mload\n      dup2\n      lt\n      tag_23\n      jumpi\n      tag_24\n      tag_22\n      jump\t// in\n    tag_24:\n    tag_23:\n      0x20\n      mul\n      0x20\n      add\n      add\n        /* \"contracts/task1/MergeSortedArray.sol\":458:469  c[i] = a[i] */\n      dup2\n      dup2\n      mstore\n      pop\n      pop\n        /* \"contracts/task1/MergeSortedArray.sol\":438:441  i++ */\n      dup1\n      dup1\n      0x01\n      add\n      swap2\n      pop\n      pop\n        /* \"contracts/task1/MergeSortedArray.sol\":408:481  for (uint256 i = 0; i < aLen; i++) {... */\n      jump(tag_17)\n    tag_18:\n      pop\n        /* \"contracts/task1/MergeSortedArray.sol\":496:505  uint256 i */\n      0x00\n        /* \"contracts/task1/MergeSortedArray.sol\":508:509  0 */\n      0x00\n        /* \"contracts/task1/MergeSortedArray.sol\":496:509  uint256 i = 0 */\n      swap1\n      pop\n        /* \"contracts/task1/MergeSortedArray.sol\":491:569  for (uint256 i = 0; i < bLen; i++) {... */\n    tag_25:\n        /* \"contracts/task1/MergeSortedArray.sol\":515:519  bLen */\n      dup3\n        /* \"contracts/task1/MergeSortedArray.sol\":511:512  i */\n      dup2\n        /* \"contracts/task1/MergeSortedArray.sol\":511:519  i < bLen */\n      lt\n        /* \"contracts/task1/MergeSortedArray.sol\":491:569  for (uint256 i = 0; i < bLen; i++) {... */\n      iszero\n      tag_26\n      jumpi\n        /* \"contracts/task1/MergeSortedArray.sol\":553:554  b */\n      dup7\n      dup7\n        /* \"contracts/task1/MergeSortedArray.sol\":555:556  i */\n      dup3\n        /* \"contracts/task1/MergeSortedArray.sol\":553:557  b[i] */\n      dup2\n      dup2\n      lt\n      tag_28\n      jumpi\n      tag_29\n      tag_22\n      jump\t// in\n    tag_29:\n    tag_28:\n      swap1\n      pop\n      0x20\n      mul\n      add\n      calldataload\n        /* \"contracts/task1/MergeSortedArray.sol\":541:542  c */\n      dup3\n        /* \"contracts/task1/MergeSortedArray.sol\":545:549  aLen */\n      dup6\n        /* \"contracts/task1/MergeSortedArray.sol\":543:544  i */\n      dup4\n        /* \"contracts/task1/MergeSortedArray.sol\":543:549  i+aLen */\n      tag_30\n      swap2\n      swap1\n      tag_12\n      jump\t// in\n    tag_30:\n        /* \"contracts/task1/MergeSortedArray.sol\":541:550  c[i+aLen] */\n      dup2\n      mload\n      dup2\n      lt\n      tag_31\n      jumpi\n      tag_32\n      tag_22\n      jump\t// in\n    tag_32:\n    tag_31:\n      0x20\n      mul\n      0x20\n      add\n      add\n        /* \"contracts/task1/MergeSortedArray.sol\":541:557  c[i+aLen] = b[i] */\n      dup2\n      dup2\n      mstore\n      pop\n      pop\n        /* \"contracts/task1/MergeSortedArray.sol\":521:524  i++ */\n      dup1\n      dup1\n      0x01\n      add\n      swap2\n      pop\n      pop\n        /* \"contracts/task1/MergeSortedArray.sol\":491:569  for (uint256 i = 0; i < bLen; i++) {... */\n      jump(tag_25)\n    tag_26:\n      pop\n        /* \"contracts/task1/MergeSortedArray.sol\":586:587  c */\n      dup1\n        /* \"contracts/task1/MergeSortedArray.sol\":579:587  return c */\n      swap4\n      pop\n      pop\n      pop\n      pop\n        /* \"contracts/task1/MergeSortedArray.sol\":161:595  function merge(uint256[] calldata a, uint256[] calldata b) public pure returns(uint256[] memory) {... */\n      swap5\n      swap4\n      pop\n      pop\n      pop\n      pop\n      jump\t// out\n        /* \"#utility.yul\":88:205   */\n    tag_34:\n        /* \"#utility.yul\":197:198   */\n      0x00\n        /* \"#utility.yul\":194:195   */\n      0x00\n        /* \"#utility.yul\":187:199   */\n      revert\n        /* \"#utility.yul\":211:328   */\n    tag_35:\n        /* \"#utility.yul\":320:321   */\n      0x00\n        /* \"#utility.yul\":317:318   */\n      0x00\n        /* \"#utility.yul\":310:322   */\n      revert\n        /* \"#utility.yul\":334:451   */\n    tag_36:\n        /* \"#utility.yul\":443:444   */\n      0x00\n        /* \"#utility.yul\":440:441   */\n      0x00\n        /* \"#utility.yul\":433:445   */\n      revert\n        /* \"#utility.yul\":457:574   */\n    tag_37:\n        /* \"#utility.yul\":566:567   */\n      0x00\n        /* \"#utility.yul\":563:564   */\n      0x00\n        /* \"#utility.yul\":556:568   */\n      revert\n        /* \"#utility.yul\":580:697   */\n    tag_38:\n        /* \"#utility.yul\":689:690   */\n      0x00\n        /* \"#utility.yul\":686:687   */\n      0x00\n        /* \"#utility.yul\":679:691   */\n      revert\n        /* \"#utility.yul\":720:1288   */\n    tag_39:\n        /* \"#utility.yul\":793:801   */\n      0x00\n        /* \"#utility.yul\":803:809   */\n      0x00\n        /* \"#utility.yul\":853:856   */\n      dup4\n        /* \"#utility.yul\":846:850   */\n      0x1f\n        /* \"#utility.yul\":838:844   */\n      dup5\n        /* \"#utility.yul\":834:851   */\n      add\n        /* \"#utility.yul\":830:857   */\n      slt\n        /* \"#utility.yul\":820:942   */\n      tag_57\n      jumpi\n        /* \"#utility.yul\":861:940   */\n      tag_58\n      tag_36\n      jump\t// in\n    tag_58:\n        /* \"#utility.yul\":820:942   */\n    tag_57:\n        /* \"#utility.yul\":974:980   */\n      dup3\n        /* \"#utility.yul\":961:981   */\n      calldataload\n        /* \"#utility.yul\":951:981   */\n      swap1\n      pop\n        /* \"#utility.yul\":1004:1022   */\n      0xffffffffffffffff\n        /* \"#utility.yul\":996:1002   */\n      dup2\n        /* \"#utility.yul\":993:1023   */\n      gt\n        /* \"#utility.yul\":990:1107   */\n      iszero\n      tag_59\n      jumpi\n        /* \"#utility.yul\":1026:1105   */\n      tag_60\n      tag_37\n      jump\t// in\n    tag_60:\n        /* \"#utility.yul\":990:1107   */\n    tag_59:\n        /* \"#utility.yul\":1140:1144   */\n      0x20\n        /* \"#utility.yul\":1132:1138   */\n      dup4\n        /* \"#utility.yul\":1128:1145   */\n      add\n        /* \"#utility.yul\":1116:1145   */\n      swap2\n      pop\n        /* \"#utility.yul\":1194:1197   */\n      dup4\n        /* \"#utility.yul\":1186:1190   */\n      0x20\n        /* \"#utility.yul\":1178:1184   */\n      dup3\n        /* \"#utility.yul\":1174:1191   */\n      mul\n        /* \"#utility.yul\":1164:1172   */\n      dup4\n        /* \"#utility.yul\":1160:1192   */\n      add\n        /* \"#utility.yul\":1157:1198   */\n      gt\n        /* \"#utility.yul\":1154:1282   */\n      iszero\n      tag_61\n      jumpi\n        /* \"#utility.yul\":1201:1280   */\n      tag_62\n      tag_38\n      jump\t// in\n    tag_62:\n        /* \"#utility.yul\":1154:1282   */\n    tag_61:\n        /* \"#utility.yul\":720:1288   */\n      swap3\n      pop\n      swap3\n      swap1\n      pop\n      jump\t// out\n        /* \"#utility.yul\":1294:2228   */\n    tag_6:\n        /* \"#utility.yul\":1416:1422   */\n      0x00\n        /* \"#utility.yul\":1424:1430   */\n      0x00\n        /* \"#utility.yul\":1432:1438   */\n      0x00\n        /* \"#utility.yul\":1440:1446   */\n      0x00\n        /* \"#utility.yul\":1489:1491   */\n      0x40\n        /* \"#utility.yul\":1477:1486   */\n      dup6\n        /* \"#utility.yul\":1468:1475   */\n      dup8\n        /* \"#utility.yul\":1464:1487   */\n      sub\n        /* \"#utility.yul\":1460:1492   */\n      slt\n        /* \"#utility.yul\":1457:1576   */\n      iszero\n      tag_64\n      jumpi\n        /* \"#utility.yul\":1495:1574   */\n      tag_65\n      tag_34\n      jump\t// in\n    tag_65:\n        /* \"#utility.yul\":1457:1576   */\n    tag_64:\n        /* \"#utility.yul\":1643:1644   */\n      0x00\n        /* \"#utility.yul\":1632:1641   */\n      dup6\n        /* \"#utility.yul\":1628:1645   */\n      add\n        /* \"#utility.yul\":1615:1646   */\n      calldataload\n        /* \"#utility.yul\":1673:1691   */\n      0xffffffffffffffff\n        /* \"#utility.yul\":1665:1671   */\n      dup2\n        /* \"#utility.yul\":1662:1692   */\n      gt\n        /* \"#utility.yul\":1659:1776   */\n      iszero\n      tag_66\n      jumpi\n        /* \"#utility.yul\":1695:1774   */\n      tag_67\n      tag_35\n      jump\t// in\n    tag_67:\n        /* \"#utility.yul\":1659:1776   */\n    tag_66:\n        /* \"#utility.yul\":1808:1888   */\n      tag_68\n        /* \"#utility.yul\":1880:1887   */\n      dup8\n        /* \"#utility.yul\":1871:1877   */\n      dup3\n        /* \"#utility.yul\":1860:1869   */\n      dup9\n        /* \"#utility.yul\":1856:1878   */\n      add\n        /* \"#utility.yul\":1808:1888   */\n      tag_39\n      jump\t// in\n    tag_68:\n        /* \"#utility.yul\":1790:1888   */\n      swap5\n      pop\n      swap5\n      pop\n        /* \"#utility.yul\":1586:1898   */\n      pop\n        /* \"#utility.yul\":1965:1967   */\n      0x20\n        /* \"#utility.yul\":1954:1963   */\n      dup6\n        /* \"#utility.yul\":1950:1968   */\n      add\n        /* \"#utility.yul\":1937:1969   */\n      calldataload\n        /* \"#utility.yul\":1996:2014   */\n      0xffffffffffffffff\n        /* \"#utility.yul\":1988:1994   */\n      dup2\n        /* \"#utility.yul\":1985:2015   */\n      gt\n        /* \"#utility.yul\":1982:2099   */\n      iszero\n      tag_69\n      jumpi\n        /* \"#utility.yul\":2018:2097   */\n      tag_70\n      tag_35\n      jump\t// in\n    tag_70:\n        /* \"#utility.yul\":1982:2099   */\n    tag_69:\n        /* \"#utility.yul\":2131:2211   */\n      tag_71\n        /* \"#utility.yul\":2203:2210   */\n      dup8\n        /* \"#utility.yul\":2194:2200   */\n      dup3\n        /* \"#utility.yul\":2183:2192   */\n      dup9\n        /* \"#utility.yul\":2179:2201   */\n      add\n        /* \"#utility.yul\":2131:2211   */\n      tag_39\n      jump\t// in\n    tag_71:\n        /* \"#utility.yul\":2113:2211   */\n      swap3\n      pop\n      swap3\n      pop\n        /* \"#utility.yul\":1908:2221   */\n      pop\n        /* \"#utility.yul\":1294:2228   */\n      swap3\n      swap6\n      swap2\n      swap5\n      pop\n      swap3\n      pop\n      jump\t// out\n        /* \"#utility.yul\":2234:2348   */\n    tag_40:\n        /* \"#utility.yul\":2301:2307   */\n      0x00\n        /* \"#utility.yul\":2335:2340   */\n      dup2\n        /* \"#utility.yul\":2329:2341   */\n      mload\n        /* \"#utility.yul\":2319:2341   */\n      swap1\n      pop\n        /* \"#utility.yul\":2234:2348   */\n      swap2\n      swap1\n      pop\n      jump\t// out\n        /* \"#utility.yul\":2354:2538   */\n    tag_41:\n        /* \"#utility.yul\":2453:2464   */\n      0x00\n        /* \"#utility.yul\":2487:2493   */\n      dup3\n        /* \"#utility.yul\":2482:2485   */\n      dup3\n        /* \"#utility.yul\":2475:2494   */\n      mstore\n        /* \"#utility.yul\":2527:2531   */\n      0x20\n        /* \"#utility.yul\":2522:2525   */\n      dup3\n        /* \"#utility.yul\":2518:2532   */\n      add\n        /* \"#utility.yul\":2503:2532   */\n      swap1\n      pop\n        /* \"#utility.yul\":2354:2538   */\n      swap3\n      swap2\n      pop\n      pop\n      jump\t// out\n        /* \"#utility.yul\":2544:2676   */\n    tag_42:\n        /* \"#utility.yul\":2611:2615   */\n      0x00\n        /* \"#utility.yul\":2634:2637   */\n      dup2\n        /* \"#utility.yul\":2626:2637   */\n      swap1\n      pop\n        /* \"#utility.yul\":2664:2668   */\n      0x20\n        /* \"#utility.yul\":2659:2662   */\n      dup3\n        /* \"#utility.yul\":2655:2669   */\n      add\n        /* \"#utility.yul\":2647:2669   */\n      swap1\n      pop\n        /* \"#utility.yul\":2544:2676   */\n      swap2\n      swap1\n      pop\n      jump\t// out\n        /* \"#utility.yul\":2682:2759   */\n    tag_43:\n        /* \"#utility.yul\":2719:2726   */\n      0x00\n        /* \"#utility.yul\":2748:2753   */\n      dup2\n        /* \"#utility.yul\":2737:2753   */\n      swap1\n      pop\n        /* \"#utility.yul\":2682:2759   */\n      swap2\n      swap1\n      pop\n      jump\t// out\n        /* \"#utility.yul\":2765:2873   */\n    tag_44:\n        /* \"#utility.yul\":2842:2866   */\n      tag_77\n        /* \"#utility.yul\":2860:2865   */\n      dup2\n        /* \"#utility.yul\":2842:2866   */\n      tag_43\n      jump\t// in\n    tag_77:\n        /* \"#utility.yul\":2837:2840   */\n      dup3\n        /* \"#utility.yul\":2830:2867   */\n      mstore\n        /* \"#utility.yul\":2765:2873   */\n      pop\n      pop\n      jump\t// out\n        /* \"#utility.yul\":2879:3058   */\n    tag_45:\n        /* \"#utility.yul\":2948:2958   */\n      0x00\n        /* \"#utility.yul\":2969:3015   */\n      tag_79\n        /* \"#utility.yul\":3011:3014   */\n      dup4\n        /* \"#utility.yul\":3003:3009   */\n      dup4\n        /* \"#utility.yul\":2969:3015   */\n      tag_44\n      jump\t// in\n    tag_79:\n        /* \"#utility.yul\":3047:3051   */\n      0x20\n        /* \"#utility.yul\":3042:3045   */\n      dup4\n        /* \"#utility.yul\":3038:3052   */\n      add\n        /* \"#utility.yul\":3024:3052   */\n      swap1\n      pop\n        /* \"#utility.yul\":2879:3058   */\n      swap3\n      swap2\n      pop\n      pop\n      jump\t// out\n        /* \"#utility.yul\":3064:3177   */\n    tag_46:\n        /* \"#utility.yul\":3134:3138   */\n      0x00\n        /* \"#utility.yul\":3166:3170   */\n      0x20\n        /* \"#utility.yul\":3161:3164   */\n      dup3\n        /* \"#utility.yul\":3157:3171   */\n      add\n        /* \"#utility.yul\":3149:3171   */\n      swap1\n      pop\n        /* \"#utility.yul\":3064:3177   */\n      swap2\n      swap1\n      pop\n      jump\t// out\n        /* \"#utility.yul\":3213:3945   */\n    tag_47:\n        /* \"#utility.yul\":3332:3335   */\n      0x00\n        /* \"#utility.yul\":3361:3415   */\n      tag_82\n        /* \"#utility.yul\":3409:3414   */\n      dup3\n        /* \"#utility.yul\":3361:3415   */\n      tag_40\n      jump\t// in\n    tag_82:\n        /* \"#utility.yul\":3431:3517   */\n      tag_83\n        /* \"#utility.yul\":3510:3516   */\n      dup2\n        /* \"#utility.yul\":3505:3508   */\n      dup6\n        /* \"#utility.yul\":3431:3517   */\n      tag_41\n      jump\t// in\n    tag_83:\n        /* \"#utility.yul\":3424:3517   */\n      swap4\n      pop\n        /* \"#utility.yul\":3541:3597   */\n      tag_84\n        /* \"#utility.yul\":3591:3596   */\n      dup4\n        /* \"#utility.yul\":3541:3597   */\n      tag_42\n      jump\t// in\n    tag_84:\n        /* \"#utility.yul\":3620:3627   */\n      dup1\n        /* \"#utility.yul\":3651:3652   */\n      0x00\n        /* \"#utility.yul\":3636:3920   */\n    tag_85:\n        /* \"#utility.yul\":3661:3667   */\n      dup4\n        /* \"#utility.yul\":3658:3659   */\n      dup2\n        /* \"#utility.yul\":3655:3668   */\n      lt\n        /* \"#utility.yul\":3636:3920   */\n      iszero\n      tag_87\n      jumpi\n        /* \"#utility.yul\":3737:3743   */\n      dup2\n        /* \"#utility.yul\":3731:3744   */\n      mload\n        /* \"#utility.yul\":3764:3827   */\n      tag_88\n        /* \"#utility.yul\":3823:3826   */\n      dup9\n        /* \"#utility.yul\":3808:3821   */\n      dup3\n        /* \"#utility.yul\":3764:3827   */\n      tag_45\n      jump\t// in\n    tag_88:\n        /* \"#utility.yul\":3757:3827   */\n      swap8\n      pop\n        /* \"#utility.yul\":3850:3910   */\n      tag_89\n        /* \"#utility.yul\":3903:3909   */\n      dup4\n        /* \"#utility.yul\":3850:3910   */\n      tag_46\n      jump\t// in\n    tag_89:\n        /* \"#utility.yul\":3840:3910   */\n      swap3\n      pop\n        /* \"#utility.yul\":3696:3920   */\n      pop\n        /* \"#utility.yul\":3683:3684   */\n      0x01\n        /* \"#utility.yul\":3680:3681   */\n      dup2\n        /* \"#utility.yul\":3676:3685   */\n      add\n        /* \"#utility.yul\":3671:3685   */\n      swap1\n      pop\n        /* \"#utility.yul\":3636:3920   */\n      jump(tag_85)\n    tag_87:\n        /* \"#utility.yul\":3640:3654   */\n      pop\n        /* \"#utility.yul\":3936:3939   */\n      dup6\n        /* \"#utility.yul\":3929:3939   */\n      swap4\n      pop\n        /* \"#utility.yul\":3337:3945   */\n      pop\n      pop\n      pop\n        /* \"#utility.yul\":3213:3945   */\n      swap3\n      swap2\n      pop\n      pop\n      jump\t// out\n        /* \"#utility.yul\":3951:4324   */\n    tag_9:\n        /* \"#utility.yul\":4094:4098   */\n      0x00\n        /* \"#utility.yul\":4132:4134   */\n      0x20\n        /* \"#utility.yul\":4121:4130   */\n      dup3\n        /* \"#utility.yul\":4117:4135   */\n      add\n        /* \"#utility.yul\":4109:4135   */\n      swap1\n      pop\n        /* \"#utility.yul\":4181:4190   */\n      dup2\n        /* \"#utility.yul\":4175:4179   */\n      dup2\n        /* \"#utility.yul\":4171:4191   */\n      sub\n        /* \"#utility.yul\":4167:4168   */\n      0x00\n        /* \"#utility.yul\":4156:4165   */\n      dup4\n        /* \"#utility.yul\":4152:4169   */\n      add\n        /* \"#utility.yul\":4145:4192   */\n      mstore\n        /* \"#utility.yul\":4209:4317   */\n      tag_91\n        /* \"#utility.yul\":4312:4316   */\n      dup2\n        /* \"#utility.yul\":4303:4309   */\n      dup5\n        /* \"#utility.yul\":4209:4317   */\n      tag_47\n      jump\t// in\n    tag_91:\n        /* \"#utility.yul\":4201:4317   */\n      swap1\n      pop\n        /* \"#utility.yul\":3951:4324   */\n      swap3\n      swap2\n      pop\n      pop\n      jump\t// out\n        /* \"#utility.yul\":4330:4510   */\n    tag_48:\n        /* \"#utility.yul\":4378:4455   */\n      0x4e487b7100000000000000000000000000000000000000000000000000000000\n        /* \"#utility.yul\":4375:4376   */\n      0x00\n        /* \"#utility.yul\":4368:4456   */\n      mstore\n        /* \"#utility.yul\":4475:4479   */\n      0x11\n        /* \"#utility.yul\":4472:4473   */\n      0x04\n        /* \"#utility.yul\":4465:4480   */\n      mstore\n        /* \"#utility.yul\":4499:4503   */\n      0x24\n        /* \"#utility.yul\":4496:4497   */\n      0x00\n        /* \"#utility.yul\":4489:4504   */\n      revert\n        /* \"#utility.yul\":4516:4707   */\n    tag_12:\n        /* \"#utility.yul\":4556:4559   */\n      0x00\n        /* \"#utility.yul\":4575:4595   */\n      tag_94\n        /* \"#utility.yul\":4593:4594   */\n      dup3\n        /* \"#utility.yul\":4575:4595   */\n      tag_43\n      jump\t// in\n    tag_94:\n        /* \"#utility.yul\":4570:4595   */\n      swap2\n      pop\n        /* \"#utility.yul\":4609:4629   */\n      tag_95\n        /* \"#utility.yul\":4627:4628   */\n      dup4\n        /* \"#utility.yul\":4609:4629   */\n      tag_43\n      jump\t// in\n    tag_95:\n        /* \"#utility.yul\":4604:4629   */\n      swap3\n      pop\n        /* \"#utility.yul\":4652:4653   */\n      dup3\n        /* \"#utility.yul\":4649:4650   */\n      dup3\n        /* \"#utility.yul\":4645:4654   */\n      add\n        /* \"#utility.yul\":4638:4654   */\n      swap1\n      pop\n        /* \"#utility.yul\":4673:4676   */\n      dup1\n        /* \"#utility.yul\":4670:4671   */\n      dup3\n        /* \"#utility.yul\":4667:4677   */\n      gt\n        /* \"#utility.yul\":4664:4700   */\n      iszero\n      tag_96\n      jumpi\n        /* \"#utility.yul\":4680:4698   */\n      tag_97\n      tag_48\n      jump\t// in\n    tag_97:\n        /* \"#utility.yul\":4664:4700   */\n    tag_96:\n        /* \"#utility.yul\":4516:4707   */\n      swap3\n      swap2\n      pop\n      pop\n      jump\t// out\n        /* \"#utility.yul\":4713:4893   */\n    tag_15:\n        /* \"#utility.yul\":4761:4838   */\n      0x4e487b7100000000000000000000000000000000000000000000000000000000\n        /* \"#utility.yul\":4758:4759   */\n      0x00\n        /* \"#utility.yul\":4751:4839   */\n      mstore\n        /* \"#utility.yul\":4858:4862   */\n      0x41\n        /* \"#utility.yul\":4855:4856   */\n      0x04\n        /* \"#utility.yul\":4848:4863   */\n      mstore\n        /* \"#utility.yul\":4882:4886   */\n      0x24\n        /* \"#utility.yul\":4879:4880   */\n      0x00\n        /* \"#utility.yul\":4872:4887   */\n      revert\n        /* \"#utility.yul\":4899:5079   */\n    tag_22:\n        /* \"#utility.yul\":4947:5024   */\n      0x4e487b7100000000000000000000000000000000000000000000000000000000\n        /* \"#utility.yul\":4944:4945   */\n      0x00\n        /* \"#utility.yul\":4937:5025   */\n      mstore\n        /* \"#utility.yul\":5044:5048   */\n      0x32\n        /* \"#utility.yul\":5041:5042   */\n      0x04\n        /* \"#utility.yul\":5034:5049   */\n      mstore\n        /* \"#utility.yul\":5068:5072   */\n      0x24\n        /* \"#utility.yul\":5065:5066   */\n      0x00\n        /* \"#utility.yul\":5058:5073   */\n      revert\n\n    auxdata: 0xa2646970667358221220f0fd7e4427b9d4c4e6fa9cd82e65e14c37a722cb8791412481e6870fe1a6089364736f6c634300081e0033\n}\n",
				"bytecode": {
					"linkReferences": {},
					"object": "6080604052348015600e575f5ffd5b5061043c8061001c5f395ff3fe608060405234801561000f575f5ffd5b5060043610610029575f3560e01c8063088b9bf61461002d575b5f5ffd5b610047600480360381019061004291906101ee565b61005d565b604051610054919061032c565b60405180910390f35b60605f8585905090505f8484905090505f818361007a9190610379565b67ffffffffffffffff811115610093576100926103ac565b5b6040519080825280602002602001820160405280156100c15781602001602082028036833780820191505090505b5090505f5f90505b83811015610117578888828181106100e4576100e36103d9565b5b905060200201358282815181106100fe576100fd6103d9565b5b60200260200101818152505080806001019150506100c9565b505f5f90505b8281101561017657868682818110610138576101376103d9565b5b9050602002013582858361014c9190610379565b8151811061015d5761015c6103d9565b5b602002602001018181525050808060010191505061011d565b50809350505050949350505050565b5f5ffd5b5f5ffd5b5f5ffd5b5f5ffd5b5f5ffd5b5f5f83601f8401126101ae576101ad61018d565b5b8235905067ffffffffffffffff8111156101cb576101ca610191565b5b6020830191508360208202830111156101e7576101e6610195565b5b9250929050565b5f5f5f5f6040858703121561020657610205610185565b5b5f85013567ffffffffffffffff81111561022357610222610189565b5b61022f87828801610199565b9450945050602085013567ffffffffffffffff81111561025257610251610189565b5b61025e87828801610199565b925092505092959194509250565b5f81519050919050565b5f82825260208201905092915050565b5f819050602082019050919050565b5f819050919050565b6102a781610295565b82525050565b5f6102b8838361029e565b60208301905092915050565b5f602082019050919050565b5f6102da8261026c565b6102e48185610276565b93506102ef83610286565b805f5b8381101561031f57815161030688826102ad565b9750610311836102c4565b9250506001810190506102f2565b5085935050505092915050565b5f6020820190508181035f83015261034481846102d0565b905092915050565b7f4e487b71000000000000000000000000000000000000000000000000000000005f52601160045260245ffd5b5f61038382610295565b915061038e83610295565b92508282019050808211156103a6576103a561034c565b5b92915050565b7f4e487b71000000000000000000000000000000000000000000000000000000005f52604160045260245ffd5b7f4e487b71000000000000000000000000000000000000000000000000000000005f52603260045260245ffdfea2646970667358221220f0fd7e4427b9d4c4e6fa9cd82e65e14c37a722cb8791412481e6870fe1a6089364736f6c634300081e0033",
					"opcodes": "PUSH1 0x80 PUSH1 0x40 MSTORE CALLVALUE DUP1 ISZERO PUSH1 0xE JUMPI PUSH0 PUSH0 REVERT JUMPDEST POP PUSH2 0x43C DUP1 PUSH2 0x1C PUSH0 CODECOPY PUSH0 RETURN INVALID PUSH1 0x80 PUSH1 0x40 MSTORE CALLVALUE DUP1 ISZERO PUSH2 0xF JUMPI PUSH0 PUSH0 REVERT JUMPDEST POP PUSH1 0x4 CALLDATASIZE LT PUSH2 0x29 JUMPI PUSH0 CALLDATALOAD PUSH1 0xE0 SHR DUP1 PUSH4 0x88B9BF6 EQ PUSH2 0x2D JUMPI JUMPDEST PUSH0 PUSH0 REVERT JUMPDEST PUSH2 0x47 PUSH1 0x4 DUP1 CALLDATASIZE SUB DUP2 ADD SWAP1 PUSH2 0x42 SWAP2 SWAP1 PUSH2 0x1EE JUMP JUMPDEST PUSH2 0x5D JUMP JUMPDEST PUSH1 0x40 MLOAD PUSH2 0x54 SWAP2 SWAP1 PUSH2 0x32C JUMP JUMPDEST PUSH1 0x40 MLOAD DUP1 SWAP2 SUB SWAP1 RETURN JUMPDEST PUSH1 0x60 PUSH0 DUP6 DUP6 SWAP1 POP SWAP1 POP PUSH0 DUP5 DUP5 SWAP1 POP SWAP1 POP PUSH0 DUP2 DUP4 PUSH2 0x7A SWAP2 SWAP1 PUSH2 0x379 JUMP JUMPDEST PUSH8 0xFFFFFFFFFFFFFFFF DUP2 GT ISZERO PUSH2 0x93 JUMPI PUSH2 0x92 PUSH2 0x3AC JUMP JUMPDEST JUMPDEST PUSH1 0x40 MLOAD SWAP1 DUP1 DUP3 MSTORE DUP1 PUSH1 0x20 MUL PUSH1 0x20 ADD DUP3 ADD PUSH1 0x40 MSTORE DUP1 ISZERO PUSH2 0xC1 JUMPI DUP2 PUSH1 0x20 ADD PUSH1 0x20 DUP3 MUL DUP1 CALLDATASIZE DUP4 CALLDATACOPY DUP1 DUP3 ADD SWAP2 POP POP SWAP1 POP JUMPDEST POP SWAP1 POP PUSH0 PUSH0 SWAP1 POP JUMPDEST DUP4 DUP2 LT ISZERO PUSH2 0x117 JUMPI DUP9 DUP9 DUP3 DUP2 DUP2 LT PUSH2 0xE4 JUMPI PUSH2 0xE3 PUSH2 0x3D9 JUMP JUMPDEST JUMPDEST SWAP1 POP PUSH1 0x20 MUL ADD CALLDATALOAD DUP3 DUP3 DUP2 MLOAD DUP2 LT PUSH2 0xFE JUMPI PUSH2 0xFD PUSH2 0x3D9 JUMP JUMPDEST JUMPDEST PUSH1 0x20 MUL PUSH1 0x20 ADD ADD DUP2 DUP2 MSTORE POP POP DUP1 DUP1 PUSH1 0x1 ADD SWAP2 POP POP PUSH2 0xC9 JUMP JUMPDEST POP PUSH0 PUSH0 SWAP1 POP JUMPDEST DUP3 DUP2 LT ISZERO PUSH2 0x176 JUMPI DUP7 DUP7 DUP3 DUP2 DUP2 LT PUSH2 0x138 JUMPI PUSH2 0x137 PUSH2 0x3D9 JUMP JUMPDEST JUMPDEST SWAP1 POP PUSH1 0x20 MUL ADD CALLDATALOAD DUP3 DUP6 DUP4 PUSH2 0x14C SWAP2 SWAP1 PUSH2 0x379 JUMP JUMPDEST DUP2 MLOAD DUP2 LT PUSH2 0x15D JUMPI PUSH2 0x15C PUSH2 0x3D9 JUMP JUMPDEST JUMPDEST PUSH1 0x20 MUL PUSH1 0x20 ADD ADD DUP2 DUP2 MSTORE POP POP DUP1 DUP1 PUSH1 0x1 ADD SWAP2 POP POP PUSH2 0x11D JUMP JUMPDEST POP DUP1 SWAP4 POP POP POP POP SWAP5 SWAP4 POP POP POP POP JUMP JUMPDEST PUSH0 PUSH0 REVERT JUMPDEST PUSH0 PUSH0 REVERT JUMPDEST PUSH0 PUSH0 REVERT JUMPDEST PUSH0 PUSH0 REVERT JUMPDEST PUSH0 PUSH0 REVERT JUMPDEST PUSH0 PUSH0 DUP4 PUSH1 0x1F DUP5 ADD SLT PUSH2 0x1AE JUMPI PUSH2 0x1AD PUSH2 0x18D JUMP JUMPDEST JUMPDEST DUP3 CALLDATALOAD SWAP1 POP PUSH8 0xFFFFFFFFFFFFFFFF DUP2 GT ISZERO PUSH2 0x1CB JUMPI PUSH2 0x1CA PUSH2 0x191 JUMP JUMPDEST JUMPDEST PUSH1 0x20 DUP4 ADD SWAP2 POP DUP4 PUSH1 0x20 DUP3 MUL DUP4 ADD GT ISZERO PUSH2 0x1E7 JUMPI PUSH2 0x1E6 PUSH2 0x195 JUMP JUMPDEST JUMPDEST SWAP3 POP SWAP3 SWAP1 POP JUMP JUMPDEST PUSH0 PUSH0 PUSH0 PUSH0 PUSH1 0x40 DUP6 DUP8 SUB SLT ISZERO PUSH2 0x206 JUMPI PUSH2 0x205 PUSH2 0x185 JUMP JUMPDEST JUMPDEST PUSH0 DUP6 ADD CALLDATALOAD PUSH8 0xFFFFFFFFFFFFFFFF DUP2 GT ISZERO PUSH2 0x223 JUMPI PUSH2 0x222 PUSH2 0x189 JUMP JUMPDEST JUMPDEST PUSH2 0x22F DUP8 DUP3 DUP9 ADD PUSH2 0x199 JUMP JUMPDEST SWAP5 POP SWAP5 POP POP PUSH1 0x20 DUP6 ADD CALLDATALOAD PUSH8 0xFFFFFFFFFFFFFFFF DUP2 GT ISZERO PUSH2 0x252 JUMPI PUSH2 0x251 PUSH2 0x189 JUMP JUMPDEST JUMPDEST PUSH2 0x25E DUP8 DUP3 DUP9 ADD PUSH2 0x199 JUMP JUMPDEST SWAP3 POP SWAP3 POP POP SWAP3 SWAP6 SWAP2 SWAP5 POP SWAP3 POP JUMP JUMPDEST PUSH0 DUP2 MLOAD SWAP1 POP SWAP2 SWAP1 POP JUMP JUMPDEST PUSH0 DUP3 DUP3 MSTORE PUSH1 0x20 DUP3 ADD SWAP1 POP SWAP3 SWAP2 POP POP JUMP JUMPDEST PUSH0 DUP2 SWAP1 POP PUSH1 0x20 DUP3 ADD SWAP1 POP SWAP2 SWAP1 POP JUMP JUMPDEST PUSH0 DUP2 SWAP1 POP SWAP2 SWAP1 POP JUMP JUMPDEST PUSH2 0x2A7 DUP2 PUSH2 0x295 JUMP JUMPDEST DUP3 MSTORE POP POP JUMP JUMPDEST PUSH0 PUSH2 0x2B8 DUP4 DUP4 PUSH2 0x29E JUMP JUMPDEST PUSH1 0x20 DUP4 ADD SWAP1 POP SWAP3 SWAP2 POP POP JUMP JUMPDEST PUSH0 PUSH1 0x20 DUP3 ADD SWAP1 POP SWAP2 SWAP1 POP JUMP JUMPDEST PUSH0 PUSH2 0x2DA DUP3 PUSH2 0x26C JUMP JUMPDEST PUSH2 0x2E4 DUP2 DUP6 PUSH2 0x276 JUMP JUMPDEST SWAP4 POP PUSH2 0x2EF DUP4 PUSH2 0x286 JUMP JUMPDEST DUP1 PUSH0 JUMPDEST DUP4 DUP2 LT ISZERO PUSH2 0x31F JUMPI DUP2 MLOAD PUSH2 0x306 DUP9 DUP3 PUSH2 0x2AD JUMP JUMPDEST SWAP8 POP PUSH2 0x311 DUP4 PUSH2 0x2C4 JUMP JUMPDEST SWAP3 POP POP PUSH1 0x1 DUP2 ADD SWAP1 POP PUSH2 0x2F2 JUMP JUMPDEST POP DUP6 SWAP4 POP POP POP POP SWAP3 SWAP2 POP POP JUMP JUMPDEST PUSH0 PUSH1 0x20 DUP3 ADD SWAP1 POP DUP2 DUP2 SUB PUSH0 DUP4 ADD MSTORE PUSH2 0x344 DUP2 DUP5 PUSH2 0x2D0 JUMP JUMPDEST SWAP1 POP SWAP3 SWAP2 POP POP JUMP JUMPDEST PUSH32 0x4E487B7100000000000000000000000000000000000000000000000000000000 PUSH0 MSTORE PUSH1 0x11 PUSH1 0x4 MSTORE PUSH1 0x24 PUSH0 REVERT JUMPDEST PUSH0 PUSH2 0x383 DUP3 PUSH2 0x295 JUMP JUMPDEST SWAP2 POP PUSH2 0x38E DUP4 PUSH2 0x295 JUMP JUMPDEST SWAP3 POP DUP3 DUP3 ADD SWAP1 POP DUP1 DUP3 GT ISZERO PUSH2 0x3A6 JUMPI PUSH2 0x3A5 PUSH2 0x34C JUMP JUMPDEST JUMPDEST SWAP3 SWAP2 POP POP JUMP JUMPDEST PUSH32 0x4E487B7100000000000000000000000000000000000000000000000000000000 PUSH0 MSTORE PUSH1 0x41 PUSH1 0x4 MSTORE PUSH1 0x24 PUSH0 REVERT JUMPDEST PUSH32 0x4E487B7100000000000000000000000000000000000000000000000000000000 PUSH0 MSTORE PUSH1 0x32 PUSH1 0x4 MSTORE PUSH1 0x24 PUSH0 REVERT INVALID LOG2 PUSH5 0x6970667358 0x22 SLT KECCAK256 CREATE REVERT PUSH31 0x4427B9D4C4E6FA9CD82E65E14C37A722CB8791412481E6870FE1A608936473 PUSH16 0x6C634300081E00330000000000000000 "
				},
				"gasEstimates": {
					"creation": {
						"codeDepositCost": "216800",
						"executionCost": "255",
						"totalCost": "217055"
					},
					"external": {
						"merge(uint256[],uint256[])": "infinite"
					}
				},
				"methodIdentifiers": {
					"merge(uint256[],uint256[])": "088b9bf6"
				}
			},
			"storageLayout": {
				"storage": [],
				"types": null
			},
			"userdoc": {
				"kind": "user",
				"methods": {},
				"version": 1
			}
		}
	}
}