{
	"contracts/ReceiveAndFallback.sol": {
		"Test": {
			"abi": [
				{
					"anonymous": false,
					"inputs": [
						{
							"indexed": false,
							"internalType": "address",
							"name": "s",
							"type": "address"
						},
						{
							"indexed": false,
							"internalType": "uint256",
							"name": "v",
							"type": "uint256"
						}
					],
					"name": "Fallbacked",
					"type": "event"
				},
				{
					"anonymous": false,
					"inputs": [
						{
							"indexed": false,
							"internalType": "address",
							"name": "s",
							"type": "address"
						},
						{
							"indexed": false,
							"internalType": "uint256",
							"name": "v",
							"type": "uint256"
						}
					],
					"name": "Received",
					"type": "event"
				},
				{
					"stateMutability": "nonpayable",
					"type": "fallback"
				},
				{
					"inputs": [
						{
							"internalType": "uint256",
							"name": "amount",
							"type": "uint256"
						}
					],
					"name": "test1",
					"outputs": [
						{
							"internalType": "bytes",
							"name": "",
							"type": "bytes"
						},
						{
							"internalType": "uint256",
							"name": "",
							"type": "uint256"
						}
					],
					"stateMutability": "pure",
					"type": "function"
				},
				{
					"inputs": [
						{
							"internalType": "uint256",
							"name": "amount",
							"type": "uint256"
						}
					],
					"name": "test2",
					"outputs": [
						{
							"internalType": "bytes",
							"name": "",
							"type": "bytes"
						},
						{
							"internalType": "uint256",
							"name": "",
							"type": "uint256"
						}
					],
					"stateMutability": "payable",
					"type": "function"
				},
				{
					"stateMutability": "payable",
					"type": "receive"
				}
			],
			"devdoc": {
				"kind": "dev",
				"methods": {},
				"version": 1
			},
			"evm": {
				"assembly": "    /* \"contracts/ReceiveAndFallback.sol\":152:808  contract Test {... */\n  mstore(0x40, 0x80)\n  callvalue\n  dup1\n  iszero\n  tag_1\n  jumpi\n  revert(0x00, 0x00)\ntag_1:\n  pop\n  dataSize(sub_0)\n  dup1\n  dataOffset(sub_0)\n  0x00\n  codecopy\n  0x00\n  return\nstop\n\nsub_0: assembly {\n        /* \"contracts/ReceiveAndFallback.sol\":152:808  contract Test {... */\n      mstore(0x40, 0x80)\n      jumpi(tag_1, lt(calldatasize, 0x04))\n      shr(0xe0, calldataload(0x00))\n      dup1\n      0x19ae8994\n      eq\n      tag_3\n      jumpi\n      dup1\n      0xcaf44683\n      eq\n      tag_4\n      jumpi\n      jump(tag_2)\n    tag_1:\n      jumpi(tag_2, calldatasize)\n        /* \"contracts/ReceiveAndFallback.sol\":304:335  Received(msg.sender, msg.value) */\n      0x88a5966d370b9919b20f3e2c13ff65706f196a4e32cc2c12bf57088f88525874\n        /* \"contracts/ReceiveAndFallback.sol\":313:323  msg.sender */\n      caller\n        /* \"contracts/ReceiveAndFallback.sol\":325:334  msg.value */\n      callvalue\n        /* \"contracts/ReceiveAndFallback.sol\":304:335  Received(msg.sender, msg.value) */\n      mload(0x40)\n      tag_7\n      swap3\n      swap2\n      swap1\n      tag_8\n      jump\t// in\n    tag_7:\n      mload(0x40)\n      dup1\n      swap2\n      sub\n      swap1\n      log1\n        /* \"contracts/ReceiveAndFallback.sol\":152:808  contract Test {... */\n      stop\n    tag_2:\n      callvalue\n      dup1\n      iszero\n      tag_9\n      jumpi\n      revert(0x00, 0x00)\n    tag_9:\n      pop\n        /* \"contracts/ReceiveAndFallback.sol\":485:542  Fallbacked(0x0000000000000000000000000000000000000000, 0) */\n      0x7b2430705e29e999533df725e25a45e1a6389337542368dc6c39870f3f24e364\n        /* \"contracts/ReceiveAndFallback.sol\":496:538  0x0000000000000000000000000000000000000000 */\n      0x00\n        /* \"contracts/ReceiveAndFallback.sol\":540:541  0 */\n      0x00\n        /* \"contracts/ReceiveAndFallback.sol\":485:542  Fallbacked(0x0000000000000000000000000000000000000000, 0) */\n      mload(0x40)\n      tag_12\n      swap3\n      swap2\n      swap1\n      tag_13\n      jump\t// in\n    tag_12:\n      mload(0x40)\n      dup1\n      swap2\n      sub\n      swap1\n      log1\n        /* \"contracts/ReceiveAndFallback.sol\":152:808  contract Test {... */\n      stop\n        /* \"contracts/ReceiveAndFallback.sol\":556:676  function test1(uint256 amount) public pure returns(bytes calldata, uint256) {... */\n    tag_3:\n      callvalue\n      dup1\n      iszero\n      tag_14\n      jumpi\n      revert(0x00, 0x00)\n    tag_14:\n      pop\n      tag_15\n      0x04\n      dup1\n      calldatasize\n      sub\n      dup2\n      add\n      swap1\n      tag_16\n      swap2\n      swap1\n      tag_17\n      jump\t// in\n    tag_16:\n      tag_18\n      jump\t// in\n    tag_15:\n      mload(0x40)\n      tag_19\n      swap4\n      swap3\n      swap2\n      swap1\n      tag_20\n      jump\t// in\n    tag_19:\n      mload(0x40)\n      dup1\n      swap2\n      sub\n      swap1\n      return\n        /* \"contracts/ReceiveAndFallback.sol\":682:805  function test2(uint256 amount) public payable returns(bytes calldata, uint256) {... */\n    tag_4:\n      tag_21\n      0x04\n      dup1\n      calldatasize\n      sub\n      dup2\n      add\n      swap1\n      tag_22\n      swap2\n      swap1\n      tag_17\n      jump\t// in\n    tag_22:\n      tag_23\n      jump\t// in\n    tag_21:\n      mload(0x40)\n      tag_24\n      swap4\n      swap3\n      swap2\n      swap1\n      tag_20\n      jump\t// in\n    tag_24:\n      mload(0x40)\n      dup1\n      swap2\n      sub\n      swap1\n      return\n        /* \"contracts/ReceiveAndFallback.sol\":556:676  function test1(uint256 amount) public pure returns(bytes calldata, uint256) {... */\n    tag_18:\n        /* \"contracts/ReceiveAndFallback.sol\":607:621  bytes calldata */\n      calldatasize\n      0x00\n        /* \"contracts/ReceiveAndFallback.sol\":623:630  uint256 */\n      0x00\n        /* \"contracts/ReceiveAndFallback.sol\":651:659  msg.data */\n      0x00\n      calldatasize\n        /* \"contracts/ReceiveAndFallback.sol\":661:667  amount */\n      dup6\n        /* \"contracts/ReceiveAndFallback.sol\":643:668  return (msg.data, amount) */\n      swap3\n      pop\n      swap3\n      pop\n      swap3\n      pop\n        /* \"contracts/ReceiveAndFallback.sol\":556:676  function test1(uint256 amount) public pure returns(bytes calldata, uint256) {... */\n      swap2\n      swap4\n      swap1\n      swap3\n      pop\n      jump\t// out\n        /* \"contracts/ReceiveAndFallback.sol\":682:805  function test2(uint256 amount) public payable returns(bytes calldata, uint256) {... */\n    tag_23:\n        /* \"contracts/ReceiveAndFallback.sol\":736:750  bytes calldata */\n      calldatasize\n      0x00\n        /* \"contracts/ReceiveAndFallback.sol\":752:759  uint256 */\n      0x00\n        /* \"contracts/ReceiveAndFallback.sol\":780:788  msg.data */\n      0x00\n      calldatasize\n        /* \"contracts/ReceiveAndFallback.sol\":790:796  amount */\n      dup6\n        /* \"contracts/ReceiveAndFallback.sol\":772:797  return (msg.data, amount) */\n      swap3\n      pop\n      swap3\n      pop\n      swap3\n      pop\n        /* \"contracts/ReceiveAndFallback.sol\":682:805  function test2(uint256 amount) public payable returns(bytes calldata, uint256) {... */\n      swap2\n      swap4\n      swap1\n      swap3\n      pop\n      jump\t// out\n        /* \"#utility.yul\":7:133   */\n    tag_27:\n        /* \"#utility.yul\":44:51   */\n      0x00\n        /* \"#utility.yul\":84:126   */\n      0xffffffffffffffffffffffffffffffffffffffff\n        /* \"#utility.yul\":77:82   */\n      dup3\n        /* \"#utility.yul\":73:127   */\n      and\n        /* \"#utility.yul\":62:127   */\n      swap1\n      pop\n        /* \"#utility.yul\":7:133   */\n      swap2\n      swap1\n      pop\n      jump\t// out\n        /* \"#utility.yul\":139:235   */\n    tag_28:\n        /* \"#utility.yul\":176:183   */\n      0x00\n        /* \"#utility.yul\":205:229   */\n      tag_48\n        /* \"#utility.yul\":223:228   */\n      dup3\n        /* \"#utility.yul\":205:229   */\n      tag_27\n      jump\t// in\n    tag_48:\n        /* \"#utility.yul\":194:229   */\n      swap1\n      pop\n        /* \"#utility.yul\":139:235   */\n      swap2\n      swap1\n      pop\n      jump\t// out\n        /* \"#utility.yul\":241:359   */\n    tag_29:\n        /* \"#utility.yul\":328:352   */\n      tag_50\n        /* \"#utility.yul\":346:351   */\n      dup2\n        /* \"#utility.yul\":328:352   */\n      tag_28\n      jump\t// in\n    tag_50:\n        /* \"#utility.yul\":323:326   */\n      dup3\n        /* \"#utility.yul\":316:353   */\n      mstore\n        /* \"#utility.yul\":241:359   */\n      pop\n      pop\n      jump\t// out\n        /* \"#utility.yul\":365:442   */\n    tag_30:\n        /* \"#utility.yul\":402:409   */\n      0x00\n        /* \"#utility.yul\":431:436   */\n      dup2\n        /* \"#utility.yul\":420:436   */\n      swap1\n      pop\n        /* \"#utility.yul\":365:442   */\n      swap2\n      swap1\n      pop\n      jump\t// out\n        /* \"#utility.yul\":448:566   */\n    tag_31:\n        /* \"#utility.yul\":535:559   */\n      tag_53\n        /* \"#utility.yul\":553:558   */\n      dup2\n        /* \"#utility.yul\":535:559   */\n      tag_30\n      jump\t// in\n    tag_53:\n        /* \"#utility.yul\":530:533   */\n      dup3\n        /* \"#utility.yul\":523:560   */\n      mstore\n        /* \"#utility.yul\":448:566   */\n      pop\n      pop\n      jump\t// out\n        /* \"#utility.yul\":572:904   */\n    tag_8:\n        /* \"#utility.yul\":693:697   */\n      0x00\n        /* \"#utility.yul\":731:733   */\n      0x40\n        /* \"#utility.yul\":720:729   */\n      dup3\n        /* \"#utility.yul\":716:734   */\n      add\n        /* \"#utility.yul\":708:734   */\n      swap1\n      pop\n        /* \"#utility.yul\":744:815   */\n      tag_55\n        /* \"#utility.yul\":812:813   */\n      0x00\n        /* \"#utility.yul\":801:810   */\n      dup4\n        /* \"#utility.yul\":797:814   */\n      add\n        /* \"#utility.yul\":788:794   */\n      dup6\n        /* \"#utility.yul\":744:815   */\n      tag_29\n      jump\t// in\n    tag_55:\n        /* \"#utility.yul\":825:897   */\n      tag_56\n        /* \"#utility.yul\":893:895   */\n      0x20\n        /* \"#utility.yul\":882:891   */\n      dup4\n        /* \"#utility.yul\":878:896   */\n      add\n        /* \"#utility.yul\":869:875   */\n      dup5\n        /* \"#utility.yul\":825:897   */\n      tag_31\n      jump\t// in\n    tag_56:\n        /* \"#utility.yul\":572:904   */\n      swap4\n      swap3\n      pop\n      pop\n      pop\n      jump\t// out\n        /* \"#utility.yul\":910:995   */\n    tag_32:\n        /* \"#utility.yul\":955:962   */\n      0x00\n        /* \"#utility.yul\":984:989   */\n      dup2\n        /* \"#utility.yul\":973:989   */\n      swap1\n      pop\n        /* \"#utility.yul\":910:995   */\n      swap2\n      swap1\n      pop\n      jump\t// out\n        /* \"#utility.yul\":1001:1061   */\n    tag_33:\n        /* \"#utility.yul\":1029:1032   */\n      0x00\n        /* \"#utility.yul\":1050:1055   */\n      dup2\n        /* \"#utility.yul\":1043:1055   */\n      swap1\n      pop\n        /* \"#utility.yul\":1001:1061   */\n      swap2\n      swap1\n      pop\n      jump\t// out\n        /* \"#utility.yul\":1067:1225   */\n    tag_34:\n        /* \"#utility.yul\":1125:1134   */\n      0x00\n        /* \"#utility.yul\":1158:1219   */\n      tag_60\n        /* \"#utility.yul\":1176:1218   */\n      tag_61\n        /* \"#utility.yul\":1185:1217   */\n      tag_62\n        /* \"#utility.yul\":1211:1216   */\n      dup5\n        /* \"#utility.yul\":1185:1217   */\n      tag_32\n      jump\t// in\n    tag_62:\n        /* \"#utility.yul\":1176:1218   */\n      tag_33\n      jump\t// in\n    tag_61:\n        /* \"#utility.yul\":1158:1219   */\n      tag_30\n      jump\t// in\n    tag_60:\n        /* \"#utility.yul\":1145:1219   */\n      swap1\n      pop\n        /* \"#utility.yul\":1067:1225   */\n      swap2\n      swap1\n      pop\n      jump\t// out\n        /* \"#utility.yul\":1231:1378   */\n    tag_35:\n        /* \"#utility.yul\":1326:1371   */\n      tag_64\n        /* \"#utility.yul\":1365:1370   */\n      dup2\n        /* \"#utility.yul\":1326:1371   */\n      tag_34\n      jump\t// in\n    tag_64:\n        /* \"#utility.yul\":1321:1324   */\n      dup3\n        /* \"#utility.yul\":1314:1372   */\n      mstore\n        /* \"#utility.yul\":1231:1378   */\n      pop\n      pop\n      jump\t// out\n        /* \"#utility.yul\":1384:1732   */\n    tag_13:\n        /* \"#utility.yul\":1513:1517   */\n      0x00\n        /* \"#utility.yul\":1551:1553   */\n      0x40\n        /* \"#utility.yul\":1540:1549   */\n      dup3\n        /* \"#utility.yul\":1536:1554   */\n      add\n        /* \"#utility.yul\":1528:1554   */\n      swap1\n      pop\n        /* \"#utility.yul\":1564:1635   */\n      tag_66\n        /* \"#utility.yul\":1632:1633   */\n      0x00\n        /* \"#utility.yul\":1621:1630   */\n      dup4\n        /* \"#utility.yul\":1617:1634   */\n      add\n        /* \"#utility.yul\":1608:1614   */\n      dup6\n        /* \"#utility.yul\":1564:1635   */\n      tag_29\n      jump\t// in\n    tag_66:\n        /* \"#utility.yul\":1645:1725   */\n      tag_67\n        /* \"#utility.yul\":1721:1723   */\n      0x20\n        /* \"#utility.yul\":1710:1719   */\n      dup4\n        /* \"#utility.yul\":1706:1724   */\n      add\n        /* \"#utility.yul\":1697:1703   */\n      dup5\n        /* \"#utility.yul\":1645:1725   */\n      tag_35\n      jump\t// in\n    tag_67:\n        /* \"#utility.yul\":1384:1732   */\n      swap4\n      swap3\n      pop\n      pop\n      pop\n      jump\t// out\n        /* \"#utility.yul\":1819:1936   */\n    tag_37:\n        /* \"#utility.yul\":1928:1929   */\n      0x00\n        /* \"#utility.yul\":1925:1926   */\n      0x00\n        /* \"#utility.yul\":1918:1930   */\n      revert\n        /* \"#utility.yul\":2065:2187   */\n    tag_39:\n        /* \"#utility.yul\":2138:2162   */\n      tag_72\n        /* \"#utility.yul\":2156:2161   */\n      dup2\n        /* \"#utility.yul\":2138:2162   */\n      tag_30\n      jump\t// in\n    tag_72:\n        /* \"#utility.yul\":2131:2136   */\n      dup2\n        /* \"#utility.yul\":2128:2163   */\n      eq\n        /* \"#utility.yul\":2118:2181   */\n      tag_73\n      jumpi\n        /* \"#utility.yul\":2177:2178   */\n      0x00\n        /* \"#utility.yul\":2174:2175   */\n      0x00\n        /* \"#utility.yul\":2167:2179   */\n      revert\n        /* \"#utility.yul\":2118:2181   */\n    tag_73:\n        /* \"#utility.yul\":2065:2187   */\n      pop\n      jump\t// out\n        /* \"#utility.yul\":2193:2332   */\n    tag_40:\n        /* \"#utility.yul\":2239:2244   */\n      0x00\n        /* \"#utility.yul\":2277:2283   */\n      dup2\n        /* \"#utility.yul\":2264:2284   */\n      calldataload\n        /* \"#utility.yul\":2255:2284   */\n      swap1\n      pop\n        /* \"#utility.yul\":2293:2326   */\n      tag_75\n        /* \"#utility.yul\":2320:2325   */\n      dup2\n        /* \"#utility.yul\":2293:2326   */\n      tag_39\n      jump\t// in\n    tag_75:\n        /* \"#utility.yul\":2193:2332   */\n      swap3\n      swap2\n      pop\n      pop\n      jump\t// out\n        /* \"#utility.yul\":2338:2667   */\n    tag_17:\n        /* \"#utility.yul\":2397:2403   */\n      0x00\n        /* \"#utility.yul\":2446:2448   */\n      0x20\n        /* \"#utility.yul\":2434:2443   */\n      dup3\n        /* \"#utility.yul\":2425:2432   */\n      dup5\n        /* \"#utility.yul\":2421:2444   */\n      sub\n        /* \"#utility.yul\":2417:2449   */\n      slt\n        /* \"#utility.yul\":2414:2533   */\n      iszero\n      tag_77\n      jumpi\n        /* \"#utility.yul\":2452:2531   */\n      tag_78\n      tag_37\n      jump\t// in\n    tag_78:\n        /* \"#utility.yul\":2414:2533   */\n    tag_77:\n        /* \"#utility.yul\":2572:2573   */\n      0x00\n        /* \"#utility.yul\":2597:2650   */\n      tag_79\n        /* \"#utility.yul\":2642:2649   */\n      dup5\n        /* \"#utility.yul\":2633:2639   */\n      dup3\n        /* \"#utility.yul\":2622:2631   */\n      dup6\n        /* \"#utility.yul\":2618:2640   */\n      add\n        /* \"#utility.yul\":2597:2650   */\n      tag_40\n      jump\t// in\n    tag_79:\n        /* \"#utility.yul\":2587:2650   */\n      swap2\n      pop\n        /* \"#utility.yul\":2543:2660   */\n      pop\n        /* \"#utility.yul\":2338:2667   */\n      swap3\n      swap2\n      pop\n      pop\n      jump\t// out\n        /* \"#utility.yul\":2673:2841   */\n    tag_41:\n        /* \"#utility.yul\":2756:2767   */\n      0x00\n        /* \"#utility.yul\":2790:2796   */\n      dup3\n        /* \"#utility.yul\":2785:2788   */\n      dup3\n        /* \"#utility.yul\":2778:2797   */\n      mstore\n        /* \"#utility.yul\":2830:2834   */\n      0x20\n        /* \"#utility.yul\":2825:2828   */\n      dup3\n        /* \"#utility.yul\":2821:2835   */\n      add\n        /* \"#utility.yul\":2806:2835   */\n      swap1\n      pop\n        /* \"#utility.yul\":2673:2841   */\n      swap3\n      swap2\n      pop\n      pop\n      jump\t// out\n        /* \"#utility.yul\":2847:2995   */\n    tag_42:\n        /* \"#utility.yul\":2945:2951   */\n      dup3\n        /* \"#utility.yul\":2940:2943   */\n      dup2\n        /* \"#utility.yul\":2935:2938   */\n      dup4\n        /* \"#utility.yul\":2922:2952   */\n      calldatacopy\n        /* \"#utility.yul\":2986:2987   */\n      0x00\n        /* \"#utility.yul\":2977:2983   */\n      dup4\n        /* \"#utility.yul\":2972:2975   */\n      dup4\n        /* \"#utility.yul\":2968:2984   */\n      add\n        /* \"#utility.yul\":2961:2988   */\n      mstore\n        /* \"#utility.yul\":2847:2995   */\n      pop\n      pop\n      pop\n      jump\t// out\n        /* \"#utility.yul\":3001:3103   */\n    tag_43:\n        /* \"#utility.yul\":3042:3048   */\n      0x00\n        /* \"#utility.yul\":3093:3095   */\n      0x1f\n        /* \"#utility.yul\":3089:3096   */\n      not\n        /* \"#utility.yul\":3084:3086   */\n      0x1f\n        /* \"#utility.yul\":3077:3082   */\n      dup4\n        /* \"#utility.yul\":3073:3087   */\n      add\n        /* \"#utility.yul\":3069:3097   */\n      and\n        /* \"#utility.yul\":3059:3097   */\n      swap1\n      pop\n        /* \"#utility.yul\":3001:3103   */\n      swap2\n      swap1\n      pop\n      jump\t// out\n        /* \"#utility.yul\":3131:3445   */\n    tag_44:\n        /* \"#utility.yul\":3227:3230   */\n      0x00\n        /* \"#utility.yul\":3248:3318   */\n      tag_84\n        /* \"#utility.yul\":3311:3317   */\n      dup4\n        /* \"#utility.yul\":3306:3309   */\n      dup6\n        /* \"#utility.yul\":3248:3318   */\n      tag_41\n      jump\t// in\n    tag_84:\n        /* \"#utility.yul\":3241:3318   */\n      swap4\n      pop\n        /* \"#utility.yul\":3328:3384   */\n      tag_85\n        /* \"#utility.yul\":3377:3383   */\n      dup4\n        /* \"#utility.yul\":3372:3375   */\n      dup6\n        /* \"#utility.yul\":3365:3370   */\n      dup5\n        /* \"#utility.yul\":3328:3384   */\n      tag_42\n      jump\t// in\n    tag_85:\n        /* \"#utility.yul\":3409:3438   */\n      tag_86\n        /* \"#utility.yul\":3431:3437   */\n      dup4\n        /* \"#utility.yul\":3409:3438   */\n      tag_43\n      jump\t// in\n    tag_86:\n        /* \"#utility.yul\":3404:3407   */\n      dup5\n        /* \"#utility.yul\":3400:3439   */\n      add\n        /* \"#utility.yul\":3393:3439   */\n      swap1\n      pop\n        /* \"#utility.yul\":3131:3445   */\n      swap4\n      swap3\n      pop\n      pop\n      pop\n      jump\t// out\n        /* \"#utility.yul\":3451:3890   */\n    tag_20:\n        /* \"#utility.yul\":3600:3604   */\n      0x00\n        /* \"#utility.yul\":3638:3640   */\n      0x40\n        /* \"#utility.yul\":3627:3636   */\n      dup3\n        /* \"#utility.yul\":3623:3641   */\n      add\n        /* \"#utility.yul\":3615:3641   */\n      swap1\n      pop\n        /* \"#utility.yul\":3687:3696   */\n      dup2\n        /* \"#utility.yul\":3681:3685   */\n      dup2\n        /* \"#utility.yul\":3677:3697   */\n      sub\n        /* \"#utility.yul\":3673:3674   */\n      0x00\n        /* \"#utility.yul\":3662:3671   */\n      dup4\n        /* \"#utility.yul\":3658:3675   */\n      add\n        /* \"#utility.yul\":3651:3698   */\n      mstore\n        /* \"#utility.yul\":3715:3801   */\n      tag_88\n        /* \"#utility.yul\":3796:3800   */\n      dup2\n        /* \"#utility.yul\":3787:3793   */\n      dup6\n        /* \"#utility.yul\":3779:3785   */\n      dup8\n        /* \"#utility.yul\":3715:3801   */\n      tag_44\n      jump\t// in\n    tag_88:\n        /* \"#utility.yul\":3707:3801   */\n      swap1\n      pop\n        /* \"#utility.yul\":3811:3883   */\n      tag_89\n        /* \"#utility.yul\":3879:3881   */\n      0x20\n        /* \"#utility.yul\":3868:3877   */\n      dup4\n        /* \"#utility.yul\":3864:3882   */\n      add\n        /* \"#utility.yul\":3855:3861   */\n      dup5\n        /* \"#utility.yul\":3811:3883   */\n      tag_31\n      jump\t// in\n    tag_89:\n        /* \"#utility.yul\":3451:3890   */\n      swap5\n      swap4\n      pop\n      pop\n      pop\n      pop\n      jump\t// out\n\n    auxdata: 0xa26469706673582212208cee2aadc6a42acd9d4d44337d099280df124619f96cf3099e604aadafbe16b764736f6c634300081e0033\n}\n",
				"bytecode": {
					"linkReferences": {},
					"object": "6080604052348015600e575f5ffd5b506103498061001c5f395ff3fe60806040526004361061002c575f3560e01c806319ae8994146100b3578063caf44683146100f15761006c565b3661006c577f88a5966d370b9919b20f3e2c13ff65706f196a4e32cc2c12bf57088f8852587433346040516100629291906101a0565b60405180910390a1005b348015610077575f5ffd5b507f7b2430705e29e999533df725e25a45e1a6389337542368dc6c39870f3f24e3645f5f6040516100a9929190610209565b60405180910390a1005b3480156100be575f5ffd5b506100d960048036038101906100d4919061025e565b610123565b6040516100e8939291906102e3565b60405180910390f35b61010b6004803603810190610106919061025e565b610136565b60405161011a939291906102e3565b60405180910390f35b365f5f5f36859250925092509193909250565b365f5f5f36859250925092509193909250565b5f73ffffffffffffffffffffffffffffffffffffffff82169050919050565b5f61017282610149565b9050919050565b61018281610168565b82525050565b5f819050919050565b61019a81610188565b82525050565b5f6040820190506101b35f830185610179565b6101c06020830184610191565b9392505050565b5f819050919050565b5f819050919050565b5f6101f36101ee6101e9846101c7565b6101d0565b610188565b9050919050565b610203816101d9565b82525050565b5f60408201905061021c5f830185610179565b61022960208301846101fa565b9392505050565b5f5ffd5b61023d81610188565b8114610247575f5ffd5b50565b5f8135905061025881610234565b92915050565b5f6020828403121561027357610272610230565b5b5f6102808482850161024a565b91505092915050565b5f82825260208201905092915050565b828183375f83830152505050565b5f601f19601f8301169050919050565b5f6102c28385610289565b93506102cf838584610299565b6102d8836102a7565b840190509392505050565b5f6040820190508181035f8301526102fc8185876102b7565b905061030b6020830184610191565b94935050505056fea26469706673582212208cee2aadc6a42acd9d4d44337d099280df124619f96cf3099e604aadafbe16b764736f6c634300081e0033",
					"opcodes": "PUSH1 0x80 PUSH1 0x40 MSTORE CALLVALUE DUP1 ISZERO PUSH1 0xE JUMPI PUSH0 PUSH0 REVERT JUMPDEST POP PUSH2 0x349 DUP1 PUSH2 0x1C PUSH0 CODECOPY PUSH0 RETURN INVALID PUSH1 0x80 PUSH1 0x40 MSTORE PUSH1 0x4 CALLDATASIZE LT PUSH2 0x2C JUMPI PUSH0 CALLDATALOAD PUSH1 0xE0 SHR DUP1 PUSH4 0x19AE8994 EQ PUSH2 0xB3 JUMPI DUP1 PUSH4 0xCAF44683 EQ PUSH2 0xF1 JUMPI PUSH2 0x6C JUMP JUMPDEST CALLDATASIZE PUSH2 0x6C JUMPI PUSH32 0x88A5966D370B9919B20F3E2C13FF65706F196A4E32CC2C12BF57088F88525874 CALLER CALLVALUE PUSH1 0x40 MLOAD PUSH2 0x62 SWAP3 SWAP2 SWAP1 PUSH2 0x1A0 JUMP JUMPDEST PUSH1 0x40 MLOAD DUP1 SWAP2 SUB SWAP1 LOG1 STOP JUMPDEST CALLVALUE DUP1 ISZERO PUSH2 0x77 JUMPI PUSH0 PUSH0 REVERT JUMPDEST POP PUSH32 0x7B2430705E29E999533DF725E25A45E1A6389337542368DC6C39870F3F24E364 PUSH0 PUSH0 PUSH1 0x40 MLOAD PUSH2 0xA9 SWAP3 SWAP2 SWAP1 PUSH2 0x209 JUMP JUMPDEST PUSH1 0x40 MLOAD DUP1 SWAP2 SUB SWAP1 LOG1 STOP JUMPDEST CALLVALUE DUP1 ISZERO PUSH2 0xBE JUMPI PUSH0 PUSH0 REVERT JUMPDEST POP PUSH2 0xD9 PUSH1 0x4 DUP1 CALLDATASIZE SUB DUP2 ADD SWAP1 PUSH2 0xD4 SWAP2 SWAP1 PUSH2 0x25E JUMP JUMPDEST PUSH2 0x123 JUMP JUMPDEST PUSH1 0x40 MLOAD PUSH2 0xE8 SWAP4 SWAP3 SWAP2 SWAP1 PUSH2 0x2E3 JUMP JUMPDEST PUSH1 0x40 MLOAD DUP1 SWAP2 SUB SWAP1 RETURN JUMPDEST PUSH2 0x10B PUSH1 0x4 DUP1 CALLDATASIZE SUB DUP2 ADD SWAP1 PUSH2 0x106 SWAP2 SWAP1 PUSH2 0x25E JUMP JUMPDEST PUSH2 0x136 JUMP JUMPDEST PUSH1 0x40 MLOAD PUSH2 0x11A SWAP4 SWAP3 SWAP2 SWAP1 PUSH2 0x2E3 JUMP JUMPDEST PUSH1 0x40 MLOAD DUP1 SWAP2 SUB SWAP1 RETURN JUMPDEST CALLDATASIZE PUSH0 PUSH0 PUSH0 CALLDATASIZE DUP6 SWAP3 POP SWAP3 POP SWAP3 POP SWAP2 SWAP4 SWAP1 SWAP3 POP JUMP JUMPDEST CALLDATASIZE PUSH0 PUSH0 PUSH0 CALLDATASIZE DUP6 SWAP3 POP SWAP3 POP SWAP3 POP SWAP2 SWAP4 SWAP1 SWAP3 POP JUMP JUMPDEST PUSH0 PUSH20 0xFFFFFFFFFFFFFFFFFFFFFFFFFFFFFFFFFFFFFFFF DUP3 AND SWAP1 POP SWAP2 SWAP1 POP JUMP JUMPDEST PUSH0 PUSH2 0x172 DUP3 PUSH2 0x149 JUMP JUMPDEST SWAP1 POP SWAP2 SWAP1 POP JUMP JUMPDEST PUSH2 0x182 DUP2 PUSH2 0x168 JUMP JUMPDEST DUP3 MSTORE POP POP JUMP JUMPDEST PUSH0 DUP2 SWAP1 POP SWAP2 SWAP1 POP JUMP JUMPDEST PUSH2 0x19A DUP2 PUSH2 0x188 JUMP JUMPDEST DUP3 MSTORE POP POP JUMP JUMPDEST PUSH0 PUSH1 0x40 DUP3 ADD SWAP1 POP PUSH2 0x1B3 PUSH0 DUP4 ADD DUP6 PUSH2 0x179 JUMP JUMPDEST PUSH2 0x1C0 PUSH1 0x20 DUP4 ADD DUP5 PUSH2 0x191 JUMP JUMPDEST SWAP4 SWAP3 POP POP POP JUMP JUMPDEST PUSH0 DUP2 SWAP1 POP SWAP2 SWAP1 POP JUMP JUMPDEST PUSH0 DUP2 SWAP1 POP SWAP2 SWAP1 POP JUMP JUMPDEST PUSH0 PUSH2 0x1F3 PUSH2 0x1EE PUSH2 0x1E9 DUP5 PUSH2 0x1C7 JUMP JUMPDEST PUSH2 0x1D0 JUMP JUMPDEST PUSH2 0x188 JUMP JUMPDEST SWAP1 POP SWAP2 SWAP1 POP JUMP JUMPDEST PUSH2 0x203 DUP2 PUSH2 0x1D9 JUMP JUMPDEST DUP3 MSTORE POP POP JUMP JUMPDEST PUSH0 PUSH1 0x40 DUP3 ADD SWAP1 POP PUSH2 0x21C PUSH0 DUP4 ADD DUP6 PUSH2 0x179 JUMP JUMPDEST PUSH2 0x229 PUSH1 0x20 DUP4 ADD DUP5 PUSH2 0x1FA JUMP JUMPDEST SWAP4 SWAP3 POP POP POP JUMP JUMPDEST PUSH0 PUSH0 REVERT JUMPDEST PUSH2 0x23D DUP2 PUSH2 0x188 JUMP JUMPDEST DUP2 EQ PUSH2 0x247 JUMPI PUSH0 PUSH0 REVERT JUMPDEST POP JUMP JUMPDEST PUSH0 DUP2 CALLDATALOAD SWAP1 POP PUSH2 0x258 DUP2 PUSH2 0x234 JUMP JUMPDEST SWAP3 SWAP2 POP POP JUMP JUMPDEST PUSH0 PUSH1 0x20 DUP3 DUP5 SUB SLT ISZERO PUSH2 0x273 JUMPI PUSH2 0x272 PUSH2 0x230 JUMP JUMPDEST JUMPDEST PUSH0 PUSH2 0x280 DUP5 DUP3 DUP6 ADD PUSH2 0x24A JUMP JUMPDEST SWAP2 POP POP SWAP3 SWAP2 POP POP JUMP JUMPDEST PUSH0 DUP3 DUP3 MSTORE PUSH1 0x20 DUP3 ADD SWAP1 POP SWAP3 SWAP2 POP POP JUMP JUMPDEST DUP3 DUP2 DUP4 CALLDATACOPY PUSH0 DUP4 DUP4 ADD MSTORE POP POP POP JUMP JUMPDEST PUSH0 PUSH1 0x1F NOT PUSH1 0x1F DUP4 ADD AND SWAP1 POP SWAP2 SWAP1 POP JUMP JUMPDEST PUSH0 PUSH2 0x2C2 DUP4 DUP6 PUSH2 0x289 JUMP JUMPDEST SWAP4 POP PUSH2 0x2CF DUP4 DUP6 DUP5 PUSH2 0x299 JUMP JUMPDEST PUSH2 0x2D8 DUP4 PUSH2 0x2A7 JUMP JUMPDEST DUP5 ADD SWAP1 POP SWAP4 SWAP3 POP POP POP JUMP JUMPDEST PUSH0 PUSH1 0x40 DUP3 ADD SWAP1 POP DUP2 DUP2 SUB PUSH0 DUP4 ADD MSTORE PUSH2 0x2FC DUP2 DUP6 DUP8 PUSH2 0x2B7 JUMP JUMPDEST SWAP1 POP PUSH2 0x30B PUSH1 0x20 DUP4 ADD DUP5 PUSH2 0x191 JUMP JUMPDEST SWAP5 SWAP4 POP POP POP POP JUMP INVALID LOG2 PUSH5 0x6970667358 0x22 SLT KECCAK256 DUP13 RETURNCONTRACT 0x2A 0xAD 0xC6 LOG4 0x2A 0xCD SWAP14 0x4D PREVRANDAO CALLER PUSH30 0x99280DF124619F96CF3099E604AADAFBE16B764736F6C634300081E0033 "
				},
				"gasEstimates": {
					"creation": {
						"codeDepositCost": "168200",
						"executionCost": "212",
						"totalCost": "168412"
					},
					"external": {
						"": "1848",
						"test1(uint256)": "infinite",
						"test2(uint256)": "infinite"
					}
				},
				"methodIdentifiers": {
					"test1(uint256)": "19ae8994",
					"test2(uint256)": "caf44683"
				}
			},
			"storageLayout": {
				"storage": [],
				"types": null
			},
			"userdoc": {
				"kind": "user",
				"methods": {},
				"notice": "payable、transfer、call、receive、fallback、转账相关功能演示。",
				"version": 1
			}
		}
	}
}