{
	"contracts/ReceiveAndFallback.sol": {
		"Caller": {
			"abi": [
				{
					"inputs": [
						{
							"internalType": "address payable",
							"name": "_test",
							"type": "address"
						}
					],
					"stateMutability": "payable",
					"type": "constructor"
				},
				{
					"inputs": [],
					"name": "pay1",
					"outputs": [
						{
							"internalType": "uint256",
							"name": "",
							"type": "uint256"
						}
					],
					"stateMutability": "payable",
					"type": "function"
				},
				{
					"inputs": [],
					"name": "pay2",
					"outputs": [
						{
							"internalType": "uint256",
							"name": "",
							"type": "uint256"
						}
					],
					"stateMutability": "payable",
					"type": "function"
				},
				{
					"inputs": [],
					"name": "payA",
					"outputs": [
						{
							"internalType": "bool",
							"name": "",
							"type": "bool"
						}
					],
					"stateMutability": "pure",
					"type": "function"
				},
				{
					"inputs": [],
					"name": "payB",
					"outputs": [
						{
							"internalType": "bool",
							"name": "",
							"type": "bool"
						}
					],
					"stateMutability": "payable",
					"type": "function"
				},
				{
					"inputs": [],
					"name": "payC",
					"outputs": [
						{
							"internalType": "bool",
							"name": "",
							"type": "bool"
						}
					],
					"stateMutability": "payable",
					"type": "function"
				},
				{
					"inputs": [],
					"name": "payD",
					"outputs": [
						{
							"internalType": "bool",
							"name": "",
							"type": "bool"
						}
					],
					"stateMutability": "payable",
					"type": "function"
				},
				{
					"inputs": [],
					"name": "payE",
					"outputs": [
						{
							"internalType": "bool",
							"name": "",
							"type": "bool"
						},
						{
							"internalType": "bytes",
							"name": "",
							"type": "bytes"
						}
					],
					"stateMutability": "payable",
					"type": "function"
				},
				{
					"inputs": [],
					"name": "payF",
					"outputs": [
						{
							"internalType": "bool",
							"name": "",
							"type": "bool"
						},
						{
							"internalType": "bytes",
							"name": "",
							"type": "bytes"
						}
					],
					"stateMutability": "payable",
					"type": "function"
				},
				{
					"inputs": [],
					"name": "payG",
					"outputs": [
						{
							"internalType": "bool",
							"name": "",
							"type": "bool"
						},
						{
							"internalType": "bytes",
							"name": "",
							"type": "bytes"
						}
					],
					"stateMutability": "payable",
					"type": "function"
				},
				{
					"inputs": [],
					"name": "payH",
					"outputs": [],
					"stateMutability": "payable",
					"type": "function"
				},
				{
					"inputs": [],
					"name": "payI",
					"outputs": [],
					"stateMutability": "payable",
					"type": "function"
				},
				{
					"inputs": [],
					"name": "payJ",
					"outputs": [
						{
							"internalType": "bool",
							"name": "",
							"type": "bool"
						},
						{
							"internalType": "bytes",
							"name": "",
							"type": "bytes"
						}
					],
					"stateMutability": "payable",
					"type": "function"
				},
				{
					"inputs": [],
					"name": "payK",
					"outputs": [
						{
							"internalType": "bool",
							"name": "",
							"type": "bool"
						},
						{
							"internalType": "bytes",
							"name": "",
							"type": "bytes"
						}
					],
					"stateMutability": "payable",
					"type": "function"
				},
				{
					"inputs": [],
					"name": "payL",
					"outputs": [],
					"stateMutability": "payable",
					"type": "function"
				},
				{
					"inputs": [],
					"name": "payM",
					"outputs": [],
					"stateMutability": "payable",
					"type": "function"
				},
				{
					"inputs": [],
					"name": "payN",
					"outputs": [
						{
							"internalType": "bool",
							"name": "",
							"type": "bool"
						},
						{
							"internalType": "bytes",
							"name": "",
							"type": "bytes"
						}
					],
					"stateMutability": "payable",
					"type": "function"
				},
				{
					"inputs": [],
					"name": "payO",
					"outputs": [
						{
							"internalType": "bool",
							"name": "",
							"type": "bool"
						},
						{
							"internalType": "bytes",
							"name": "",
							"type": "bytes"
						}
					],
					"stateMutability": "payable",
					"type": "function"
				},
				{
					"inputs": [],
					"name": "payP",
					"outputs": [
						{
							"internalType": "bool",
							"name": "",
							"type": "bool"
						},
						{
							"internalType": "bytes",
							"name": "",
							"type": "bytes"
						}
					],
					"stateMutability": "payable",
					"type": "function"
				},
				{
					"inputs": [],
					"name": "payQ",
					"outputs": [
						{
							"internalType": "bool",
							"name": "",
							"type": "bool"
						},
						{
							"internalType": "bytes",
							"name": "",
							"type": "bytes"
						}
					],
					"stateMutability": "payable",
					"type": "function"
				},
				{
					"inputs": [],
					"name": "payR",
					"outputs": [
						{
							"internalType": "bool",
							"name": "",
							"type": "bool"
						},
						{
							"internalType": "bytes",
							"name": "",
							"type": "bytes"
						}
					],
					"stateMutability": "payable",
					"type": "function"
				},
				{
					"inputs": [],
					"name": "payS",
					"outputs": [
						{
							"internalType": "bool",
							"name": "",
							"type": "bool"
						},
						{
							"internalType": "bytes",
							"name": "",
							"type": "bytes"
						}
					],
					"stateMutability": "payable",
					"type": "function"
				}
			],
			"devdoc": {
				"kind": "dev",
				"methods": {},
				"version": 1
			},
			"evm": {
				"assembly": "    /* \"contracts/ReceiveAndFallback.sol\":810:8932  contract Caller {... */\n  mstore(0x40, 0x80)\n    /* \"contracts/ReceiveAndFallback.sol\":849:1278  constructor(address payable _test) payable {... */\n  mload(0x40)\n  sub(codesize, bytecodeSize)\n  dup1\n  bytecodeSize\n  dup4\n  codecopy\n  dup2\n  dup2\n  add\n  0x40\n  mstore\n  dup2\n  add\n  swap1\n  tag_1\n  swap2\n  swap1\n  tag_2\n  jump\t// in\ntag_1:\n    /* \"contracts/ReceiveAndFallback.sol\":1264:1269  _test */\n  dup1\n    /* \"contracts/ReceiveAndFallback.sol\":1252:1256  test */\n  0x00\n  0x00\n    /* \"contracts/ReceiveAndFallback.sol\":1252:1270  test = Test(_test) */\n  0x0100\n  exp\n  dup2\n  sload\n  dup2\n  0xffffffffffffffffffffffffffffffffffffffff\n  mul\n  not\n  and\n  swap1\n  dup4\n  0xffffffffffffffffffffffffffffffffffffffff\n  and\n  mul\n  or\n  swap1\n  sstore\n  pop\n    /* \"contracts/ReceiveAndFallback.sol\":849:1278  constructor(address payable _test) payable {... */\n  pop\n    /* \"contracts/ReceiveAndFallback.sol\":810:8932  contract Caller {... */\n  jump(tag_5)\n    /* \"#utility.yul\":88:205   */\ntag_7:\n    /* \"#utility.yul\":197:198   */\n  0x00\n    /* \"#utility.yul\":194:195   */\n  0x00\n    /* \"#utility.yul\":187:199   */\n  revert\n    /* \"#utility.yul\":334:460   */\ntag_9:\n    /* \"#utility.yul\":371:378   */\n  0x00\n    /* \"#utility.yul\":411:453   */\n  0xffffffffffffffffffffffffffffffffffffffff\n    /* \"#utility.yul\":404:409   */\n  dup3\n    /* \"#utility.yul\":400:454   */\n  and\n    /* \"#utility.yul\":389:454   */\n  swap1\n  pop\n    /* \"#utility.yul\":334:460   */\n  swap2\n  swap1\n  pop\n  jump\t// out\n    /* \"#utility.yul\":466:570   */\ntag_10:\n    /* \"#utility.yul\":511:518   */\n  0x00\n    /* \"#utility.yul\":540:564   */\n  tag_19\n    /* \"#utility.yul\":558:563   */\n  dup3\n    /* \"#utility.yul\":540:564   */\n  tag_9\n  jump\t// in\ntag_19:\n    /* \"#utility.yul\":529:564   */\n  swap1\n  pop\n    /* \"#utility.yul\":466:570   */\n  swap2\n  swap1\n  pop\n  jump\t// out\n    /* \"#utility.yul\":576:714   */\ntag_11:\n    /* \"#utility.yul\":657:689   */\n  tag_21\n    /* \"#utility.yul\":683:688   */\n  dup2\n    /* \"#utility.yul\":657:689   */\n  tag_10\n  jump\t// in\ntag_21:\n    /* \"#utility.yul\":650:655   */\n  dup2\n    /* \"#utility.yul\":647:690   */\n  eq\n    /* \"#utility.yul\":637:708   */\n  tag_22\n  jumpi\n    /* \"#utility.yul\":704:705   */\n  0x00\n    /* \"#utility.yul\":701:702   */\n  0x00\n    /* \"#utility.yul\":694:706   */\n  revert\n    /* \"#utility.yul\":637:708   */\ntag_22:\n    /* \"#utility.yul\":576:714   */\n  pop\n  jump\t// out\n    /* \"#utility.yul\":720:879   */\ntag_12:\n    /* \"#utility.yul\":785:790   */\n  0x00\n    /* \"#utility.yul\":816:822   */\n  dup2\n    /* \"#utility.yul\":810:823   */\n  mload\n    /* \"#utility.yul\":801:823   */\n  swap1\n  pop\n    /* \"#utility.yul\":832:873   */\n  tag_24\n    /* \"#utility.yul\":867:872   */\n  dup2\n    /* \"#utility.yul\":832:873   */\n  tag_11\n  jump\t// in\ntag_24:\n    /* \"#utility.yul\":720:879   */\n  swap3\n  swap2\n  pop\n  pop\n  jump\t// out\n    /* \"#utility.yul\":885:1252   */\ntag_2:\n    /* \"#utility.yul\":963:969   */\n  0x00\n    /* \"#utility.yul\":1012:1014   */\n  0x20\n    /* \"#utility.yul\":1000:1009   */\n  dup3\n    /* \"#utility.yul\":991:998   */\n  dup5\n    /* \"#utility.yul\":987:1010   */\n  sub\n    /* \"#utility.yul\":983:1015   */\n  slt\n    /* \"#utility.yul\":980:1099   */\n  iszero\n  tag_26\n  jumpi\n    /* \"#utility.yul\":1018:1097   */\n  tag_27\n  tag_7\n  jump\t// in\ntag_27:\n    /* \"#utility.yul\":980:1099   */\ntag_26:\n    /* \"#utility.yul\":1138:1139   */\n  0x00\n    /* \"#utility.yul\":1163:1235   */\n  tag_28\n    /* \"#utility.yul\":1227:1234   */\n  dup5\n    /* \"#utility.yul\":1218:1224   */\n  dup3\n    /* \"#utility.yul\":1207:1216   */\n  dup6\n    /* \"#utility.yul\":1203:1225   */\n  add\n    /* \"#utility.yul\":1163:1235   */\n  tag_12\n  jump\t// in\ntag_28:\n    /* \"#utility.yul\":1153:1235   */\n  swap2\n  pop\n    /* \"#utility.yul\":1109:1245   */\n  pop\n    /* \"#utility.yul\":885:1252   */\n  swap3\n  swap2\n  pop\n  pop\n  jump\t// out\n    /* \"contracts/ReceiveAndFallback.sol\":810:8932  contract Caller {... */\ntag_5:\n  dataSize(sub_0)\n  dup1\n  dataOffset(sub_0)\n  0x00\n  codecopy\n  0x00\n  return\nstop\n\nsub_0: assembly {\n        /* \"contracts/ReceiveAndFallback.sol\":810:8932  contract Caller {... */\n      mstore(0x40, 0x80)\n      jumpi(tag_1, lt(calldatasize, 0x04))\n      shr(0xe0, calldataload(0x00))\n      dup1\n      0x8b84610c\n      gt\n      tag_23\n      jumpi\n      dup1\n      0xcd4ecbbe\n      gt\n      tag_24\n      jumpi\n      dup1\n      0xcd4ecbbe\n      eq\n      tag_17\n      jumpi\n      dup1\n      0xdb73d515\n      eq\n      tag_18\n      jumpi\n      dup1\n      0xdfde0226\n      eq\n      tag_19\n      jumpi\n      dup1\n      0xf6a15805\n      eq\n      tag_20\n      jumpi\n      dup1\n      0xf96f435b\n      eq\n      tag_21\n      jumpi\n      dup1\n      0xffd6f100\n      eq\n      tag_22\n      jumpi\n      jump(tag_1)\n    tag_24:\n      dup1\n      0x8b84610c\n      eq\n      tag_12\n      jumpi\n      dup1\n      0x8fcf5d96\n      eq\n      tag_13\n      jumpi\n      dup1\n      0xafc505c2\n      eq\n      tag_14\n      jumpi\n      dup1\n      0xb4518ece\n      eq\n      tag_15\n      jumpi\n      dup1\n      0xb94ccc1e\n      eq\n      tag_16\n      jumpi\n      jump(tag_1)\n    tag_23:\n      dup1\n      0x75bafd2a\n      gt\n      tag_25\n      jumpi\n      dup1\n      0x75bafd2a\n      eq\n      tag_7\n      jumpi\n      dup1\n      0x7843fef4\n      eq\n      tag_8\n      jumpi\n      dup1\n      0x793f6e73\n      eq\n      tag_9\n      jumpi\n      dup1\n      0x7e1b3abf\n      eq\n      tag_10\n      jumpi\n      dup1\n      0x8200adbd\n      eq\n      tag_11\n      jumpi\n      jump(tag_1)\n    tag_25:\n      dup1\n      0x0f5f848f\n      eq\n      tag_2\n      jumpi\n      dup1\n      0x13c9030d\n      eq\n      tag_3\n      jumpi\n      dup1\n      0x1dabd7cd\n      eq\n      tag_4\n      jumpi\n      dup1\n      0x2b15f51c\n      eq\n      tag_5\n      jumpi\n      dup1\n      0x4c986871\n      eq\n      tag_6\n      jumpi\n    tag_1:\n      revert(0x00, 0x00)\n        /* \"contracts/ReceiveAndFallback.sol\":8140:8443  function payR() public payable returns(bool, bytes memory) {... */\n    tag_2:\n      tag_26\n      tag_27\n      jump\t// in\n    tag_26:\n      mload(0x40)\n      tag_28\n      swap3\n      swap2\n      swap1\n      tag_29\n      jump\t// in\n    tag_28:\n      mload(0x40)\n      dup1\n      swap2\n      sub\n      swap1\n      return\n        /* \"contracts/ReceiveAndFallback.sol\":1769:1843  function payA() public pure returns(bool) {... */\n    tag_3:\n      callvalue\n      dup1\n      iszero\n      tag_30\n      jumpi\n      revert(0x00, 0x00)\n    tag_30:\n      pop\n      tag_31\n      tag_32\n      jump\t// in\n    tag_31:\n      mload(0x40)\n      tag_33\n      swap2\n      swap1\n      tag_34\n      jump\t// in\n    tag_33:\n      mload(0x40)\n      dup1\n      swap2\n      sub\n      swap1\n      return\n        /* \"contracts/ReceiveAndFallback.sol\":5593:5676  function payL() public payable {... */\n    tag_4:\n      tag_35\n      tag_36\n      jump\t// in\n    tag_35:\n      stop\n        /* \"contracts/ReceiveAndFallback.sol\":2832:3092  function payE() public payable returns(bool, bytes memory) {... */\n    tag_5:\n      tag_37\n      tag_38\n      jump\t// in\n    tag_37:\n      mload(0x40)\n      tag_39\n      swap3\n      swap2\n      swap1\n      tag_29\n      jump\t// in\n    tag_39:\n      mload(0x40)\n      dup1\n      swap2\n      sub\n      swap1\n      return\n        /* \"contracts/ReceiveAndFallback.sol\":1994:2071  function payB() public payable returns(bool) {... */\n    tag_6:\n      tag_40\n      tag_41\n      jump\t// in\n    tag_40:\n      mload(0x40)\n      tag_42\n      swap2\n      swap1\n      tag_34\n      jump\t// in\n    tag_42:\n      mload(0x40)\n      dup1\n      swap2\n      sub\n      swap1\n      return\n        /* \"contracts/ReceiveAndFallback.sol\":4382:4447  function payI() public payable {... */\n    tag_7:\n      tag_43\n      tag_44\n      jump\t// in\n    tag_43:\n      stop\n        /* \"contracts/ReceiveAndFallback.sol\":6584:6870  function payO() public payable returns(bool, bytes memory) {... */\n    tag_8:\n      tag_45\n      tag_46\n      jump\t// in\n    tag_45:\n      mload(0x40)\n      tag_47\n      swap3\n      swap2\n      swap1\n      tag_29\n      jump\t// in\n    tag_47:\n      mload(0x40)\n      dup1\n      swap2\n      sub\n      swap1\n      return\n        /* \"contracts/ReceiveAndFallback.sol\":7611:7896  function payQ() public payable returns(bool, bytes memory) {... */\n    tag_9:\n      tag_48\n      tag_49\n      jump\t// in\n    tag_48:\n      mload(0x40)\n      tag_50\n      swap3\n      swap2\n      swap1\n      tag_29\n      jump\t// in\n    tag_50:\n      mload(0x40)\n      dup1\n      swap2\n      sub\n      swap1\n      return\n        /* \"contracts/ReceiveAndFallback.sol\":1514:1609  function pay2() public payable returns(uint256) {... */\n    tag_10:\n      tag_51\n      tag_52\n      jump\t// in\n    tag_51:\n      mload(0x40)\n      tag_53\n      swap2\n      swap1\n      tag_54\n      jump\t// in\n    tag_53:\n      mload(0x40)\n      dup1\n      swap2\n      sub\n      swap1\n      return\n        /* \"contracts/ReceiveAndFallback.sol\":4159:4245  function payH() public payable {... */\n    tag_11:\n      tag_55\n      tag_56\n      jump\t// in\n    tag_55:\n      stop\n        /* \"contracts/ReceiveAndFallback.sol\":4687:4991  function payJ() public payable returns(bool, bytes memory) {... */\n    tag_12:\n      tag_57\n      tag_58\n      jump\t// in\n    tag_57:\n      mload(0x40)\n      tag_59\n      swap3\n      swap2\n      swap1\n      tag_29\n      jump\t// in\n    tag_59:\n      mload(0x40)\n      dup1\n      swap2\n      sub\n      swap1\n      return\n        /* \"contracts/ReceiveAndFallback.sol\":3180:3456  function payF() public payable returns(bool, bytes memory) {... */\n    tag_13:\n      tag_60\n      tag_61\n      jump\t// in\n    tag_60:\n      mload(0x40)\n      tag_62\n      swap3\n      swap2\n      swap1\n      tag_29\n      jump\t// in\n    tag_62:\n      mload(0x40)\n      dup1\n      swap2\n      sub\n      swap1\n      return\n        /* \"contracts/ReceiveAndFallback.sol\":8644:8929  function payS() public payable returns(bool, bytes memory) {... */\n    tag_14:\n      tag_63\n      tag_64\n      jump\t// in\n    tag_63:\n      mload(0x40)\n      tag_65\n      swap3\n      swap2\n      swap1\n      tag_29\n      jump\t// in\n    tag_65:\n      mload(0x40)\n      dup1\n      swap2\n      sub\n      swap1\n      return\n        /* \"contracts/ReceiveAndFallback.sol\":5857:5922  function payM() public payable {... */\n    tag_15:\n      tag_66\n      tag_67\n      jump\t// in\n    tag_66:\n      stop\n        /* \"contracts/ReceiveAndFallback.sol\":5126:5412  function payK() public payable returns(bool, bytes memory) {... */\n    tag_16:\n      tag_68\n      tag_69\n      jump\t// in\n    tag_68:\n      mload(0x40)\n      tag_70\n      swap3\n      swap2\n      swap1\n      tag_29\n      jump\t// in\n    tag_70:\n      mload(0x40)\n      dup1\n      swap2\n      sub\n      swap1\n      return\n        /* \"contracts/ReceiveAndFallback.sol\":3586:3862  function payG() public payable returns(bool, bytes memory) {... */\n    tag_17:\n      tag_71\n      tag_72\n      jump\t// in\n    tag_71:\n      mload(0x40)\n      tag_73\n      swap3\n      swap2\n      swap1\n      tag_29\n      jump\t// in\n    tag_73:\n      mload(0x40)\n      dup1\n      swap2\n      sub\n      swap1\n      return\n        /* \"contracts/ReceiveAndFallback.sol\":2524:2745  function payD() public payable returns(bool) {... */\n    tag_18:\n      tag_74\n      tag_75\n      jump\t// in\n    tag_74:\n      mload(0x40)\n      tag_76\n      swap2\n      swap1\n      tag_34\n      jump\t// in\n    tag_76:\n      mload(0x40)\n      dup1\n      swap2\n      sub\n      swap1\n      return\n        /* \"contracts/ReceiveAndFallback.sol\":2163:2384  function payC() public payable returns(bool) {... */\n    tag_19:\n      tag_77\n      tag_78\n      jump\t// in\n    tag_77:\n      mload(0x40)\n      tag_79\n      swap2\n      swap1\n      tag_34\n      jump\t// in\n    tag_79:\n      mload(0x40)\n      dup1\n      swap2\n      sub\n      swap1\n      return\n        /* \"contracts/ReceiveAndFallback.sol\":1332:1415  function pay1() public payable returns(uint256) {... */\n    tag_20:\n      tag_80\n      tag_81\n      jump\t// in\n    tag_80:\n      mload(0x40)\n      tag_82\n      swap2\n      swap1\n      tag_54\n      jump\t// in\n    tag_82:\n      mload(0x40)\n      dup1\n      swap2\n      sub\n      swap1\n      return\n        /* \"contracts/ReceiveAndFallback.sol\":6101:6405  function payN() public payable returns(bool, bytes memory) {... */\n    tag_21:\n      tag_83\n      tag_84\n      jump\t// in\n    tag_83:\n      mload(0x40)\n      tag_85\n      swap3\n      swap2\n      swap1\n      tag_29\n      jump\t// in\n    tag_85:\n      mload(0x40)\n      dup1\n      swap2\n      sub\n      swap1\n      return\n        /* \"contracts/ReceiveAndFallback.sol\":7107:7410  function payP() public payable returns(bool, bytes memory) {... */\n    tag_22:\n      tag_86\n      tag_87\n      jump\t// in\n    tag_86:\n      mload(0x40)\n      tag_88\n      swap3\n      swap2\n      swap1\n      tag_29\n      jump\t// in\n    tag_88:\n      mload(0x40)\n      dup1\n      swap2\n      sub\n      swap1\n      return\n        /* \"contracts/ReceiveAndFallback.sol\":8140:8443  function payR() public payable returns(bool, bytes memory) {... */\n    tag_27:\n        /* \"contracts/ReceiveAndFallback.sol\":8179:8183  bool */\n      0x00\n        /* \"contracts/ReceiveAndFallback.sol\":8185:8197  bytes memory */\n      0x60\n        /* \"contracts/ReceiveAndFallback.sol\":8242:8262  bytes memory msgData */\n      0x00\n        /* \"contracts/ReceiveAndFallback.sol\":8306:8309  213 */\n      0xd5\n        /* \"contracts/ReceiveAndFallback.sol\":8265:8310  abi.encodeWithSignature(\"test(uint256)\", 213) */\n      add(0x24, mload(0x40))\n      tag_90\n      swap2\n      swap1\n      tag_91\n      jump\t// in\n    tag_90:\n      mload(0x40)\n      0x20\n      dup2\n      dup4\n      sub\n      sub\n      dup2\n      mstore\n      swap1\n      0x40\n      mstore\n      and(not(0xffffffffffffffffffffffffffffffffffffffffffffffffffffffff), 0x29e99f0700000000000000000000000000000000000000000000000000000000)\n      0x20\n      dup3\n      add\n      dup1\n      mload\n      0xffffffffffffffffffffffffffffffffffffffffffffffffffffffff\n      dup4\n      dup2\n      dup4\n      and\n      or\n      dup4\n      mstore\n      pop\n      pop\n      pop\n      pop\n        /* \"contracts/ReceiveAndFallback.sol\":8242:8310  bytes memory msgData = abi.encodeWithSignature(\"test(uint256)\", 213) */\n      swap1\n      pop\n        /* \"contracts/ReceiveAndFallback.sol\":8322:8334  bool success */\n      0x00\n        /* \"contracts/ReceiveAndFallback.sol\":8336:8353  bytes memory data */\n      0x00\n        /* \"contracts/ReceiveAndFallback.sol\":8365:8369  test */\n      0x00\n      0x00\n      swap1\n      sload\n      swap1\n      0x0100\n      exp\n      swap1\n      div\n      0xffffffffffffffffffffffffffffffffffffffff\n      and\n        /* \"contracts/ReceiveAndFallback.sol\":8357:8375  address(test).call */\n      0xffffffffffffffffffffffffffffffffffffffff\n      and\n        /* \"contracts/ReceiveAndFallback.sol\":8383:8392  msg.value */\n      callvalue\n        /* \"contracts/ReceiveAndFallback.sol\":8394:8401  msgData */\n      dup5\n        /* \"contracts/ReceiveAndFallback.sol\":8357:8402  address(test).call{value: msg.value}(msgData) */\n      mload(0x40)\n      tag_92\n      swap2\n      swap1\n      tag_93\n      jump\t// in\n    tag_92:\n      0x00\n      mload(0x40)\n      dup1\n      dup4\n      sub\n      dup2\n      dup6\n      dup8\n      gas\n      call\n      swap3\n      pop\n      pop\n      pop\n      returndatasize\n      dup1\n      0x00\n      dup2\n      eq\n      tag_96\n      jumpi\n      mload(0x40)\n      swap2\n      pop\n      and(add(returndatasize, 0x3f), not(0x1f))\n      dup3\n      add\n      0x40\n      mstore\n      returndatasize\n      dup3\n      mstore\n      returndatasize\n      0x00\n      0x20\n      dup5\n      add\n      returndatacopy\n      jump(tag_95)\n    tag_96:\n      0x60\n      swap2\n      pop\n    tag_95:\n      pop\n        /* \"contracts/ReceiveAndFallback.sol\":8321:8402  (bool success, bytes memory data) = address(test).call{value: msg.value}(msgData) */\n      swap2\n      pop\n      swap2\n      pop\n        /* \"contracts/ReceiveAndFallback.sol\":8421:8428  success */\n      dup2\n        /* \"contracts/ReceiveAndFallback.sol\":8430:8434  data */\n      dup2\n        /* \"contracts/ReceiveAndFallback.sol\":8413:8435  return (success, data) */\n      swap5\n      pop\n      swap5\n      pop\n      pop\n      pop\n      pop\n        /* \"contracts/ReceiveAndFallback.sol\":8140:8443  function payR() public payable returns(bool, bytes memory) {... */\n      swap1\n      swap2\n      jump\t// out\n        /* \"contracts/ReceiveAndFallback.sol\":1769:1843  function payA() public pure returns(bool) {... */\n    tag_32:\n        /* \"contracts/ReceiveAndFallback.sol\":1805:1809  bool */\n      0x00\n        /* \"contracts/ReceiveAndFallback.sol\":1830:1834  true */\n      0x01\n        /* \"contracts/ReceiveAndFallback.sol\":1822:1835  return (true) */\n      swap1\n      pop\n        /* \"contracts/ReceiveAndFallback.sol\":1769:1843  function payA() public pure returns(bool) {... */\n      swap1\n      jump\t// out\n        /* \"contracts/ReceiveAndFallback.sol\":5593:5676  function payL() public payable {... */\n    tag_36:\n        /* \"contracts/ReceiveAndFallback.sol\":5635:5639  test */\n      0x00\n      0x00\n      swap1\n      sload\n      swap1\n      0x0100\n      exp\n      swap1\n      div\n      0xffffffffffffffffffffffffffffffffffffffff\n      and\n        /* \"contracts/ReceiveAndFallback.sol\":5635:5645  test.test2 */\n      0xffffffffffffffffffffffffffffffffffffffff\n      and\n      0xcaf44683\n        /* \"contracts/ReceiveAndFallback.sol\":5653:5662  msg.value */\n      callvalue\n        /* \"contracts/ReceiveAndFallback.sol\":5664:5667  213 */\n      0xd5\n        /* \"contracts/ReceiveAndFallback.sol\":5635:5668  test.test2{value: msg.value}(213) */\n      mload(0x40)\n      dup4\n      0xffffffff\n      and\n      0xe0\n      shl\n      dup2\n      mstore\n      0x04\n      add\n      tag_99\n      swap2\n      swap1\n      tag_100\n      jump\t// in\n    tag_99:\n      0x00\n      mload(0x40)\n      dup1\n      dup4\n      sub\n      dup2\n      dup6\n      dup9\n      gas\n      call\n      iszero\n      dup1\n      iszero\n      tag_102\n      jumpi\n      returndatacopy(0x00, 0x00, returndatasize)\n      revert(0x00, returndatasize)\n    tag_102:\n      pop\n      pop\n      pop\n      pop\n      pop\n      mload(0x40)\n      returndatasize\n      0x00\n      dup3\n      returndatacopy\n      returndatasize\n      not(0x1f)\n      0x1f\n      dup3\n      add\n      and\n      dup3\n      add\n      dup1\n      0x40\n      mstore\n      pop\n      dup2\n      add\n      swap1\n      tag_103\n      swap2\n      swap1\n      tag_104\n      jump\t// in\n    tag_103:\n      pop\n      pop\n        /* \"contracts/ReceiveAndFallback.sol\":5593:5676  function payL() public payable {... */\n      jump\t// out\n        /* \"contracts/ReceiveAndFallback.sol\":2832:3092  function payE() public payable returns(bool, bytes memory) {... */\n    tag_38:\n        /* \"contracts/ReceiveAndFallback.sol\":2871:2875  bool */\n      0x00\n        /* \"contracts/ReceiveAndFallback.sol\":2877:2889  bytes memory */\n      0x60\n        /* \"contracts/ReceiveAndFallback.sol\":2903:2915  bool success */\n      0x00\n        /* \"contracts/ReceiveAndFallback.sol\":2917:2934  bytes memory data */\n      0x00\n        /* \"contracts/ReceiveAndFallback.sol\":2946:2950  test */\n      0x00\n      0x00\n      swap1\n      sload\n      swap1\n      0x0100\n      exp\n      swap1\n      div\n      0xffffffffffffffffffffffffffffffffffffffff\n      and\n        /* \"contracts/ReceiveAndFallback.sol\":2938:2956  address(test).call */\n      0xffffffffffffffffffffffffffffffffffffffff\n      and\n        /* \"contracts/ReceiveAndFallback.sol\":2938:2960  address(test).call(\"\") */\n      mload(0x40)\n      tag_106\n      swap1\n      tag_107\n      jump\t// in\n    tag_106:\n      0x00\n      mload(0x40)\n      dup1\n      dup4\n      sub\n      dup2\n      0x00\n      dup7\n      gas\n      call\n      swap2\n      pop\n      pop\n      returndatasize\n      dup1\n      0x00\n      dup2\n      eq\n      tag_110\n      jumpi\n      mload(0x40)\n      swap2\n      pop\n      and(add(returndatasize, 0x3f), not(0x1f))\n      dup3\n      add\n      0x40\n      mstore\n      returndatasize\n      dup3\n      mstore\n      returndatasize\n      0x00\n      0x20\n      dup5\n      add\n      returndatacopy\n      jump(tag_109)\n    tag_110:\n      0x60\n      swap2\n      pop\n    tag_109:\n      pop\n        /* \"contracts/ReceiveAndFallback.sol\":2902:2960  (bool success, bytes memory data) = address(test).call(\"\") */\n      swap2\n      pop\n      swap2\n      pop\n        /* \"contracts/ReceiveAndFallback.sol\":3070:3077  success */\n      dup2\n        /* \"contracts/ReceiveAndFallback.sol\":3079:3083  data */\n      dup2\n        /* \"contracts/ReceiveAndFallback.sol\":3062:3084  return (success, data) */\n      swap4\n      pop\n      swap4\n      pop\n      pop\n      pop\n        /* \"contracts/ReceiveAndFallback.sol\":2832:3092  function payE() public payable returns(bool, bytes memory) {... */\n      swap1\n      swap2\n      jump\t// out\n        /* \"contracts/ReceiveAndFallback.sol\":1994:2071  function payB() public payable returns(bool) {... */\n    tag_41:\n        /* \"contracts/ReceiveAndFallback.sol\":2033:2037  bool */\n      0x00\n        /* \"contracts/ReceiveAndFallback.sol\":2058:2062  true */\n      0x01\n        /* \"contracts/ReceiveAndFallback.sol\":2050:2063  return (true) */\n      swap1\n      pop\n        /* \"contracts/ReceiveAndFallback.sol\":1994:2071  function payB() public payable returns(bool) {... */\n      swap1\n      jump\t// out\n        /* \"contracts/ReceiveAndFallback.sol\":4382:4447  function payI() public payable {... */\n    tag_44:\n        /* \"contracts/ReceiveAndFallback.sol\":4424:4428  test */\n      0x00\n      0x00\n      swap1\n      sload\n      swap1\n      0x0100\n      exp\n      swap1\n      div\n      0xffffffffffffffffffffffffffffffffffffffff\n      and\n        /* \"contracts/ReceiveAndFallback.sol\":4424:4434  test.test1 */\n      0xffffffffffffffffffffffffffffffffffffffff\n      and\n      0x19ae8994\n        /* \"contracts/ReceiveAndFallback.sol\":4435:4438  213 */\n      0xd5\n        /* \"contracts/ReceiveAndFallback.sol\":4424:4439  test.test1(213) */\n      mload(0x40)\n      dup3\n      0xffffffff\n      and\n      0xe0\n      shl\n      dup2\n      mstore\n      0x04\n      add\n      tag_113\n      swap2\n      swap1\n      tag_100\n      jump\t// in\n    tag_113:\n      0x00\n      mload(0x40)\n      dup1\n      dup4\n      sub\n      dup2\n      dup7\n      gas\n      staticcall\n      iszero\n      dup1\n      iszero\n      tag_115\n      jumpi\n      returndatacopy(0x00, 0x00, returndatasize)\n      revert(0x00, returndatasize)\n    tag_115:\n      pop\n      pop\n      pop\n      pop\n      mload(0x40)\n      returndatasize\n      0x00\n      dup3\n      returndatacopy\n      returndatasize\n      not(0x1f)\n      0x1f\n      dup3\n      add\n      and\n      dup3\n      add\n      dup1\n      0x40\n      mstore\n      pop\n      dup2\n      add\n      swap1\n      tag_116\n      swap2\n      swap1\n      tag_104\n      jump\t// in\n    tag_116:\n      pop\n      pop\n        /* \"contracts/ReceiveAndFallback.sol\":4382:4447  function payI() public payable {... */\n      jump\t// out\n        /* \"contracts/ReceiveAndFallback.sol\":6584:6870  function payO() public payable returns(bool, bytes memory) {... */\n    tag_46:\n        /* \"contracts/ReceiveAndFallback.sol\":6623:6627  bool */\n      0x00\n        /* \"contracts/ReceiveAndFallback.sol\":6629:6641  bytes memory */\n      0x60\n        /* \"contracts/ReceiveAndFallback.sol\":6686:6706  bytes memory msgData */\n      0x00\n        /* \"contracts/ReceiveAndFallback.sol\":6751:6754  213 */\n      0xd5\n        /* \"contracts/ReceiveAndFallback.sol\":6709:6755  abi.encodeWithSignature(\"test2(uint256)\", 213) */\n      add(0x24, mload(0x40))\n      tag_118\n      swap2\n      swap1\n      tag_91\n      jump\t// in\n    tag_118:\n      mload(0x40)\n      0x20\n      dup2\n      dup4\n      sub\n      sub\n      dup2\n      mstore\n      swap1\n      0x40\n      mstore\n      and(not(0xffffffffffffffffffffffffffffffffffffffffffffffffffffffff), 0xcaf4468300000000000000000000000000000000000000000000000000000000)\n      0x20\n      dup3\n      add\n      dup1\n      mload\n      0xffffffffffffffffffffffffffffffffffffffffffffffffffffffff\n      dup4\n      dup2\n      dup4\n      and\n      or\n      dup4\n      mstore\n      pop\n      pop\n      pop\n      pop\n        /* \"contracts/ReceiveAndFallback.sol\":6686:6755  bytes memory msgData = abi.encodeWithSignature(\"test2(uint256)\", 213) */\n      swap1\n      pop\n        /* \"contracts/ReceiveAndFallback.sol\":6767:6779  bool success */\n      0x00\n        /* \"contracts/ReceiveAndFallback.sol\":6781:6798  bytes memory data */\n      0x00\n        /* \"contracts/ReceiveAndFallback.sol\":6810:6814  test */\n      0x00\n      0x00\n      swap1\n      sload\n      swap1\n      0x0100\n      exp\n      swap1\n      div\n      0xffffffffffffffffffffffffffffffffffffffff\n      and\n        /* \"contracts/ReceiveAndFallback.sol\":6802:6820  address(test).call */\n      0xffffffffffffffffffffffffffffffffffffffff\n      and\n        /* \"contracts/ReceiveAndFallback.sol\":6821:6828  msgData */\n      dup4\n        /* \"contracts/ReceiveAndFallback.sol\":6802:6829  address(test).call(msgData) */\n      mload(0x40)\n      tag_119\n      swap2\n      swap1\n      tag_93\n      jump\t// in\n    tag_119:\n      0x00\n      mload(0x40)\n      dup1\n      dup4\n      sub\n      dup2\n      0x00\n      dup7\n      gas\n      call\n      swap2\n      pop\n      pop\n      returndatasize\n      dup1\n      0x00\n      dup2\n      eq\n      tag_122\n      jumpi\n      mload(0x40)\n      swap2\n      pop\n      and(add(returndatasize, 0x3f), not(0x1f))\n      dup3\n      add\n      0x40\n      mstore\n      returndatasize\n      dup3\n      mstore\n      returndatasize\n      0x00\n      0x20\n      dup5\n      add\n      returndatacopy\n      jump(tag_121)\n    tag_122:\n      0x60\n      swap2\n      pop\n    tag_121:\n      pop\n        /* \"contracts/ReceiveAndFallback.sol\":6766:6829  (bool success, bytes memory data) = address(test).call(msgData) */\n      swap2\n      pop\n      swap2\n      pop\n        /* \"contracts/ReceiveAndFallback.sol\":6848:6855  success */\n      dup2\n        /* \"contracts/ReceiveAndFallback.sol\":6857:6861  data */\n      dup2\n        /* \"contracts/ReceiveAndFallback.sol\":6840:6862  return (success, data) */\n      swap5\n      pop\n      swap5\n      pop\n      pop\n      pop\n      pop\n        /* \"contracts/ReceiveAndFallback.sol\":6584:6870  function payO() public payable returns(bool, bytes memory) {... */\n      swap1\n      swap2\n      jump\t// out\n        /* \"contracts/ReceiveAndFallback.sol\":7611:7896  function payQ() public payable returns(bool, bytes memory) {... */\n    tag_49:\n        /* \"contracts/ReceiveAndFallback.sol\":7650:7654  bool */\n      0x00\n        /* \"contracts/ReceiveAndFallback.sol\":7656:7668  bytes memory */\n      0x60\n        /* \"contracts/ReceiveAndFallback.sol\":7713:7733  bytes memory msgData */\n      0x00\n        /* \"contracts/ReceiveAndFallback.sol\":7777:7780  213 */\n      0xd5\n        /* \"contracts/ReceiveAndFallback.sol\":7736:7781  abi.encodeWithSignature(\"test(uint256)\", 213) */\n      add(0x24, mload(0x40))\n      tag_124\n      swap2\n      swap1\n      tag_91\n      jump\t// in\n    tag_124:\n      mload(0x40)\n      0x20\n      dup2\n      dup4\n      sub\n      sub\n      dup2\n      mstore\n      swap1\n      0x40\n      mstore\n      and(not(0xffffffffffffffffffffffffffffffffffffffffffffffffffffffff), 0x29e99f0700000000000000000000000000000000000000000000000000000000)\n      0x20\n      dup3\n      add\n      dup1\n      mload\n      0xffffffffffffffffffffffffffffffffffffffffffffffffffffffff\n      dup4\n      dup2\n      dup4\n      and\n      or\n      dup4\n      mstore\n      pop\n      pop\n      pop\n      pop\n        /* \"contracts/ReceiveAndFallback.sol\":7713:7781  bytes memory msgData = abi.encodeWithSignature(\"test(uint256)\", 213) */\n      swap1\n      pop\n        /* \"contracts/ReceiveAndFallback.sol\":7793:7805  bool success */\n      0x00\n        /* \"contracts/ReceiveAndFallback.sol\":7807:7824  bytes memory data */\n      0x00\n        /* \"contracts/ReceiveAndFallback.sol\":7836:7840  test */\n      0x00\n      0x00\n      swap1\n      sload\n      swap1\n      0x0100\n      exp\n      swap1\n      div\n      0xffffffffffffffffffffffffffffffffffffffff\n      and\n        /* \"contracts/ReceiveAndFallback.sol\":7828:7846  address(test).call */\n      0xffffffffffffffffffffffffffffffffffffffff\n      and\n        /* \"contracts/ReceiveAndFallback.sol\":7847:7854  msgData */\n      dup4\n        /* \"contracts/ReceiveAndFallback.sol\":7828:7855  address(test).call(msgData) */\n      mload(0x40)\n      tag_125\n      swap2\n      swap1\n      tag_93\n      jump\t// in\n    tag_125:\n      0x00\n      mload(0x40)\n      dup1\n      dup4\n      sub\n      dup2\n      0x00\n      dup7\n      gas\n      call\n      swap2\n      pop\n      pop\n      returndatasize\n      dup1\n      0x00\n      dup2\n      eq\n      tag_128\n      jumpi\n      mload(0x40)\n      swap2\n      pop\n      and(add(returndatasize, 0x3f), not(0x1f))\n      dup3\n      add\n      0x40\n      mstore\n      returndatasize\n      dup3\n      mstore\n      returndatasize\n      0x00\n      0x20\n      dup5\n      add\n      returndatacopy\n      jump(tag_127)\n    tag_128:\n      0x60\n      swap2\n      pop\n    tag_127:\n      pop\n        /* \"contracts/ReceiveAndFallback.sol\":7792:7855  (bool success, bytes memory data) = address(test).call(msgData) */\n      swap2\n      pop\n      swap2\n      pop\n        /* \"contracts/ReceiveAndFallback.sol\":7874:7881  success */\n      dup2\n        /* \"contracts/ReceiveAndFallback.sol\":7883:7887  data */\n      dup2\n        /* \"contracts/ReceiveAndFallback.sol\":7866:7888  return (success, data) */\n      swap5\n      pop\n      swap5\n      pop\n      pop\n      pop\n      pop\n        /* \"contracts/ReceiveAndFallback.sol\":7611:7896  function payQ() public payable returns(bool, bytes memory) {... */\n      swap1\n      swap2\n      jump\t// out\n        /* \"contracts/ReceiveAndFallback.sol\":1514:1609  function pay2() public payable returns(uint256) {... */\n    tag_52:\n        /* \"contracts/ReceiveAndFallback.sol\":1553:1560  uint256 */\n      0x00\n        /* \"contracts/ReceiveAndFallback.sol\":1580:1601  address(this).balance */\n      selfbalance\n        /* \"contracts/ReceiveAndFallback.sol\":1573:1601  return address(this).balance */\n      swap1\n      pop\n        /* \"contracts/ReceiveAndFallback.sol\":1514:1609  function pay2() public payable returns(uint256) {... */\n      swap1\n      jump\t// out\n        /* \"contracts/ReceiveAndFallback.sol\":4159:4245  function payH() public payable {... */\n    tag_56:\n      jump\t// out\n        /* \"contracts/ReceiveAndFallback.sol\":4687:4991  function payJ() public payable returns(bool, bytes memory) {... */\n    tag_58:\n        /* \"contracts/ReceiveAndFallback.sol\":4726:4730  bool */\n      0x00\n        /* \"contracts/ReceiveAndFallback.sol\":4732:4744  bytes memory */\n      0x60\n        /* \"contracts/ReceiveAndFallback.sol\":4789:4809  bytes memory msgData */\n      0x00\n        /* \"contracts/ReceiveAndFallback.sol\":4854:4857  213 */\n      0xd5\n        /* \"contracts/ReceiveAndFallback.sol\":4812:4858  abi.encodeWithSignature(\"test1(uint256)\", 213) */\n      add(0x24, mload(0x40))\n      tag_132\n      swap2\n      swap1\n      tag_91\n      jump\t// in\n    tag_132:\n      mload(0x40)\n      0x20\n      dup2\n      dup4\n      sub\n      sub\n      dup2\n      mstore\n      swap1\n      0x40\n      mstore\n      and(not(0xffffffffffffffffffffffffffffffffffffffffffffffffffffffff), 0x19ae899400000000000000000000000000000000000000000000000000000000)\n      0x20\n      dup3\n      add\n      dup1\n      mload\n      0xffffffffffffffffffffffffffffffffffffffffffffffffffffffff\n      dup4\n      dup2\n      dup4\n      and\n      or\n      dup4\n      mstore\n      pop\n      pop\n      pop\n      pop\n        /* \"contracts/ReceiveAndFallback.sol\":4789:4858  bytes memory msgData = abi.encodeWithSignature(\"test1(uint256)\", 213) */\n      swap1\n      pop\n        /* \"contracts/ReceiveAndFallback.sol\":4870:4882  bool success */\n      0x00\n        /* \"contracts/ReceiveAndFallback.sol\":4884:4901  bytes memory data */\n      0x00\n        /* \"contracts/ReceiveAndFallback.sol\":4913:4917  test */\n      0x00\n      0x00\n      swap1\n      sload\n      swap1\n      0x0100\n      exp\n      swap1\n      div\n      0xffffffffffffffffffffffffffffffffffffffff\n      and\n        /* \"contracts/ReceiveAndFallback.sol\":4905:4923  address(test).call */\n      0xffffffffffffffffffffffffffffffffffffffff\n      and\n        /* \"contracts/ReceiveAndFallback.sol\":4931:4940  msg.value */\n      callvalue\n        /* \"contracts/ReceiveAndFallback.sol\":4942:4949  msgData */\n      dup5\n        /* \"contracts/ReceiveAndFallback.sol\":4905:4950  address(test).call{value: msg.value}(msgData) */\n      mload(0x40)\n      tag_133\n      swap2\n      swap1\n      tag_93\n      jump\t// in\n    tag_133:\n      0x00\n      mload(0x40)\n      dup1\n      dup4\n      sub\n      dup2\n      dup6\n      dup8\n      gas\n      call\n      swap3\n      pop\n      pop\n      pop\n      returndatasize\n      dup1\n      0x00\n      dup2\n      eq\n      tag_136\n      jumpi\n      mload(0x40)\n      swap2\n      pop\n      and(add(returndatasize, 0x3f), not(0x1f))\n      dup3\n      add\n      0x40\n      mstore\n      returndatasize\n      dup3\n      mstore\n      returndatasize\n      0x00\n      0x20\n      dup5\n      add\n      returndatacopy\n      jump(tag_135)\n    tag_136:\n      0x60\n      swap2\n      pop\n    tag_135:\n      pop\n        /* \"contracts/ReceiveAndFallback.sol\":4869:4950  (bool success, bytes memory data) = address(test).call{value: msg.value}(msgData) */\n      swap2\n      pop\n      swap2\n      pop\n        /* \"contracts/ReceiveAndFallback.sol\":4969:4976  success */\n      dup2\n        /* \"contracts/ReceiveAndFallback.sol\":4978:4982  data */\n      dup2\n        /* \"contracts/ReceiveAndFallback.sol\":4961:4983  return (success, data) */\n      swap5\n      pop\n      swap5\n      pop\n      pop\n      pop\n      pop\n        /* \"contracts/ReceiveAndFallback.sol\":4687:4991  function payJ() public payable returns(bool, bytes memory) {... */\n      swap1\n      swap2\n      jump\t// out\n        /* \"contracts/ReceiveAndFallback.sol\":3180:3456  function payF() public payable returns(bool, bytes memory) {... */\n    tag_61:\n        /* \"contracts/ReceiveAndFallback.sol\":3219:3223  bool */\n      0x00\n        /* \"contracts/ReceiveAndFallback.sol\":3225:3237  bytes memory */\n      0x60\n        /* \"contracts/ReceiveAndFallback.sol\":3251:3263  bool success */\n      0x00\n        /* \"contracts/ReceiveAndFallback.sol\":3265:3282  bytes memory data */\n      0x00\n        /* \"contracts/ReceiveAndFallback.sol\":3294:3298  test */\n      0x00\n      0x00\n      swap1\n      sload\n      swap1\n      0x0100\n      exp\n      swap1\n      div\n      0xffffffffffffffffffffffffffffffffffffffff\n      and\n        /* \"contracts/ReceiveAndFallback.sol\":3286:3304  address(test).call */\n      0xffffffffffffffffffffffffffffffffffffffff\n      and\n        /* \"contracts/ReceiveAndFallback.sol\":3312:3319  0 ether */\n      0x00\n        /* \"contracts/ReceiveAndFallback.sol\":3286:3324  address(test).call{value: 0 ether}(\"\") */\n      mload(0x40)\n      tag_138\n      swap1\n      tag_107\n      jump\t// in\n    tag_138:\n      0x00\n      mload(0x40)\n      dup1\n      dup4\n      sub\n      dup2\n      dup6\n      dup8\n      gas\n      call\n      swap3\n      pop\n      pop\n      pop\n      returndatasize\n      dup1\n      0x00\n      dup2\n      eq\n      tag_141\n      jumpi\n      mload(0x40)\n      swap2\n      pop\n      and(add(returndatasize, 0x3f), not(0x1f))\n      dup3\n      add\n      0x40\n      mstore\n      returndatasize\n      dup3\n      mstore\n      returndatasize\n      0x00\n      0x20\n      dup5\n      add\n      returndatacopy\n      jump(tag_140)\n    tag_141:\n      0x60\n      swap2\n      pop\n    tag_140:\n      pop\n        /* \"contracts/ReceiveAndFallback.sol\":3250:3324  (bool success, bytes memory data) = address(test).call{value: 0 ether}(\"\") */\n      swap2\n      pop\n      swap2\n      pop\n        /* \"contracts/ReceiveAndFallback.sol\":3434:3441  success */\n      dup2\n        /* \"contracts/ReceiveAndFallback.sol\":3443:3447  data */\n      dup2\n        /* \"contracts/ReceiveAndFallback.sol\":3426:3448  return (success, data) */\n      swap4\n      pop\n      swap4\n      pop\n      pop\n      pop\n        /* \"contracts/ReceiveAndFallback.sol\":3180:3456  function payF() public payable returns(bool, bytes memory) {... */\n      swap1\n      swap2\n      jump\t// out\n        /* \"contracts/ReceiveAndFallback.sol\":8644:8929  function payS() public payable returns(bool, bytes memory) {... */\n    tag_64:\n        /* \"contracts/ReceiveAndFallback.sol\":8683:8687  bool */\n      0x00\n        /* \"contracts/ReceiveAndFallback.sol\":8689:8701  bytes memory */\n      0x60\n        /* \"contracts/ReceiveAndFallback.sol\":8746:8766  bytes memory msgData */\n      0x00\n        /* \"contracts/ReceiveAndFallback.sol\":8810:8813  213 */\n      0xd5\n        /* \"contracts/ReceiveAndFallback.sol\":8769:8814  abi.encodeWithSignature(\"test(uint256)\", 213) */\n      add(0x24, mload(0x40))\n      tag_143\n      swap2\n      swap1\n      tag_91\n      jump\t// in\n    tag_143:\n      mload(0x40)\n      0x20\n      dup2\n      dup4\n      sub\n      sub\n      dup2\n      mstore\n      swap1\n      0x40\n      mstore\n      and(not(0xffffffffffffffffffffffffffffffffffffffffffffffffffffffff), 0x29e99f0700000000000000000000000000000000000000000000000000000000)\n      0x20\n      dup3\n      add\n      dup1\n      mload\n      0xffffffffffffffffffffffffffffffffffffffffffffffffffffffff\n      dup4\n      dup2\n      dup4\n      and\n      or\n      dup4\n      mstore\n      pop\n      pop\n      pop\n      pop\n        /* \"contracts/ReceiveAndFallback.sol\":8746:8814  bytes memory msgData = abi.encodeWithSignature(\"test(uint256)\", 213) */\n      swap1\n      pop\n        /* \"contracts/ReceiveAndFallback.sol\":8826:8838  bool success */\n      0x00\n        /* \"contracts/ReceiveAndFallback.sol\":8840:8857  bytes memory data */\n      0x00\n        /* \"contracts/ReceiveAndFallback.sol\":8869:8873  test */\n      0x00\n      0x00\n      swap1\n      sload\n      swap1\n      0x0100\n      exp\n      swap1\n      div\n      0xffffffffffffffffffffffffffffffffffffffff\n      and\n        /* \"contracts/ReceiveAndFallback.sol\":8861:8879  address(test).call */\n      0xffffffffffffffffffffffffffffffffffffffff\n      and\n        /* \"contracts/ReceiveAndFallback.sol\":8880:8887  msgData */\n      dup4\n        /* \"contracts/ReceiveAndFallback.sol\":8861:8888  address(test).call(msgData) */\n      mload(0x40)\n      tag_144\n      swap2\n      swap1\n      tag_93\n      jump\t// in\n    tag_144:\n      0x00\n      mload(0x40)\n      dup1\n      dup4\n      sub\n      dup2\n      0x00\n      dup7\n      gas\n      call\n      swap2\n      pop\n      pop\n      returndatasize\n      dup1\n      0x00\n      dup2\n      eq\n      tag_147\n      jumpi\n      mload(0x40)\n      swap2\n      pop\n      and(add(returndatasize, 0x3f), not(0x1f))\n      dup3\n      add\n      0x40\n      mstore\n      returndatasize\n      dup3\n      mstore\n      returndatasize\n      0x00\n      0x20\n      dup5\n      add\n      returndatacopy\n      jump(tag_146)\n    tag_147:\n      0x60\n      swap2\n      pop\n    tag_146:\n      pop\n        /* \"contracts/ReceiveAndFallback.sol\":8825:8888  (bool success, bytes memory data) = address(test).call(msgData) */\n      swap2\n      pop\n      swap2\n      pop\n        /* \"contracts/ReceiveAndFallback.sol\":8907:8914  success */\n      dup2\n        /* \"contracts/ReceiveAndFallback.sol\":8916:8920  data */\n      dup2\n        /* \"contracts/ReceiveAndFallback.sol\":8899:8921  return (success, data) */\n      swap5\n      pop\n      swap5\n      pop\n      pop\n      pop\n      pop\n        /* \"contracts/ReceiveAndFallback.sol\":8644:8929  function payS() public payable returns(bool, bytes memory) {... */\n      swap1\n      swap2\n      jump\t// out\n        /* \"contracts/ReceiveAndFallback.sol\":5857:5922  function payM() public payable {... */\n    tag_67:\n        /* \"contracts/ReceiveAndFallback.sol\":5899:5903  test */\n      0x00\n      0x00\n      swap1\n      sload\n      swap1\n      0x0100\n      exp\n      swap1\n      div\n      0xffffffffffffffffffffffffffffffffffffffff\n      and\n        /* \"contracts/ReceiveAndFallback.sol\":5899:5909  test.test2 */\n      0xffffffffffffffffffffffffffffffffffffffff\n      and\n      0xcaf44683\n        /* \"contracts/ReceiveAndFallback.sol\":5910:5913  213 */\n      0xd5\n        /* \"contracts/ReceiveAndFallback.sol\":5899:5914  test.test2(213) */\n      mload(0x40)\n      dup3\n      0xffffffff\n      and\n      0xe0\n      shl\n      dup2\n      mstore\n      0x04\n      add\n      tag_149\n      swap2\n      swap1\n      tag_100\n      jump\t// in\n    tag_149:\n      0x00\n      mload(0x40)\n      dup1\n      dup4\n      sub\n      dup2\n      0x00\n      dup8\n      gas\n      call\n      iszero\n      dup1\n      iszero\n      tag_151\n      jumpi\n      returndatacopy(0x00, 0x00, returndatasize)\n      revert(0x00, returndatasize)\n    tag_151:\n      pop\n      pop\n      pop\n      pop\n      mload(0x40)\n      returndatasize\n      0x00\n      dup3\n      returndatacopy\n      returndatasize\n      not(0x1f)\n      0x1f\n      dup3\n      add\n      and\n      dup3\n      add\n      dup1\n      0x40\n      mstore\n      pop\n      dup2\n      add\n      swap1\n      tag_152\n      swap2\n      swap1\n      tag_104\n      jump\t// in\n    tag_152:\n      pop\n      pop\n        /* \"contracts/ReceiveAndFallback.sol\":5857:5922  function payM() public payable {... */\n      jump\t// out\n        /* \"contracts/ReceiveAndFallback.sol\":5126:5412  function payK() public payable returns(bool, bytes memory) {... */\n    tag_69:\n        /* \"contracts/ReceiveAndFallback.sol\":5165:5169  bool */\n      0x00\n        /* \"contracts/ReceiveAndFallback.sol\":5171:5183  bytes memory */\n      0x60\n        /* \"contracts/ReceiveAndFallback.sol\":5228:5248  bytes memory msgData */\n      0x00\n        /* \"contracts/ReceiveAndFallback.sol\":5293:5296  213 */\n      0xd5\n        /* \"contracts/ReceiveAndFallback.sol\":5251:5297  abi.encodeWithSignature(\"test1(uint256)\", 213) */\n      add(0x24, mload(0x40))\n      tag_154\n      swap2\n      swap1\n      tag_91\n      jump\t// in\n    tag_154:\n      mload(0x40)\n      0x20\n      dup2\n      dup4\n      sub\n      sub\n      dup2\n      mstore\n      swap1\n      0x40\n      mstore\n      and(not(0xffffffffffffffffffffffffffffffffffffffffffffffffffffffff), 0x19ae899400000000000000000000000000000000000000000000000000000000)\n      0x20\n      dup3\n      add\n      dup1\n      mload\n      0xffffffffffffffffffffffffffffffffffffffffffffffffffffffff\n      dup4\n      dup2\n      dup4\n      and\n      or\n      dup4\n      mstore\n      pop\n      pop\n      pop\n      pop\n        /* \"contracts/ReceiveAndFallback.sol\":5228:5297  bytes memory msgData = abi.encodeWithSignature(\"test1(uint256)\", 213) */\n      swap1\n      pop\n        /* \"contracts/ReceiveAndFallback.sol\":5309:5321  bool success */\n      0x00\n        /* \"contracts/ReceiveAndFallback.sol\":5323:5340  bytes memory data */\n      0x00\n        /* \"contracts/ReceiveAndFallback.sol\":5352:5356  test */\n      0x00\n      0x00\n      swap1\n      sload\n      swap1\n      0x0100\n      exp\n      swap1\n      div\n      0xffffffffffffffffffffffffffffffffffffffff\n      and\n        /* \"contracts/ReceiveAndFallback.sol\":5344:5362  address(test).call */\n      0xffffffffffffffffffffffffffffffffffffffff\n      and\n        /* \"contracts/ReceiveAndFallback.sol\":5363:5370  msgData */\n      dup4\n        /* \"contracts/ReceiveAndFallback.sol\":5344:5371  address(test).call(msgData) */\n      mload(0x40)\n      tag_155\n      swap2\n      swap1\n      tag_93\n      jump\t// in\n    tag_155:\n      0x00\n      mload(0x40)\n      dup1\n      dup4\n      sub\n      dup2\n      0x00\n      dup7\n      gas\n      call\n      swap2\n      pop\n      pop\n      returndatasize\n      dup1\n      0x00\n      dup2\n      eq\n      tag_158\n      jumpi\n      mload(0x40)\n      swap2\n      pop\n      and(add(returndatasize, 0x3f), not(0x1f))\n      dup3\n      add\n      0x40\n      mstore\n      returndatasize\n      dup3\n      mstore\n      returndatasize\n      0x00\n      0x20\n      dup5\n      add\n      returndatacopy\n      jump(tag_157)\n    tag_158:\n      0x60\n      swap2\n      pop\n    tag_157:\n      pop\n        /* \"contracts/ReceiveAndFallback.sol\":5308:5371  (bool success, bytes memory data) = address(test).call(msgData) */\n      swap2\n      pop\n      swap2\n      pop\n        /* \"contracts/ReceiveAndFallback.sol\":5390:5397  success */\n      dup2\n        /* \"contracts/ReceiveAndFallback.sol\":5399:5403  data */\n      dup2\n        /* \"contracts/ReceiveAndFallback.sol\":5382:5404  return (success, data) */\n      swap5\n      pop\n      swap5\n      pop\n      pop\n      pop\n      pop\n        /* \"contracts/ReceiveAndFallback.sol\":5126:5412  function payK() public payable returns(bool, bytes memory) {... */\n      swap1\n      swap2\n      jump\t// out\n        /* \"contracts/ReceiveAndFallback.sol\":3586:3862  function payG() public payable returns(bool, bytes memory) {... */\n    tag_72:\n        /* \"contracts/ReceiveAndFallback.sol\":3625:3629  bool */\n      0x00\n        /* \"contracts/ReceiveAndFallback.sol\":3631:3643  bytes memory */\n      0x60\n        /* \"contracts/ReceiveAndFallback.sol\":3657:3669  bool success */\n      0x00\n        /* \"contracts/ReceiveAndFallback.sol\":3671:3688  bytes memory data */\n      0x00\n        /* \"contracts/ReceiveAndFallback.sol\":3700:3704  test */\n      0x00\n      0x00\n      swap1\n      sload\n      swap1\n      0x0100\n      exp\n      swap1\n      div\n      0xffffffffffffffffffffffffffffffffffffffff\n      and\n        /* \"contracts/ReceiveAndFallback.sol\":3692:3710  address(test).call */\n      0xffffffffffffffffffffffffffffffffffffffff\n      and\n        /* \"contracts/ReceiveAndFallback.sol\":3718:3725  2 ether */\n      0x1bc16d674ec80000\n        /* \"contracts/ReceiveAndFallback.sol\":3692:3730  address(test).call{value: 2 ether}(\"\") */\n      mload(0x40)\n      tag_160\n      swap1\n      tag_107\n      jump\t// in\n    tag_160:\n      0x00\n      mload(0x40)\n      dup1\n      dup4\n      sub\n      dup2\n      dup6\n      dup8\n      gas\n      call\n      swap3\n      pop\n      pop\n      pop\n      returndatasize\n      dup1\n      0x00\n      dup2\n      eq\n      tag_163\n      jumpi\n      mload(0x40)\n      swap2\n      pop\n      and(add(returndatasize, 0x3f), not(0x1f))\n      dup3\n      add\n      0x40\n      mstore\n      returndatasize\n      dup3\n      mstore\n      returndatasize\n      0x00\n      0x20\n      dup5\n      add\n      returndatacopy\n      jump(tag_162)\n    tag_163:\n      0x60\n      swap2\n      pop\n    tag_162:\n      pop\n        /* \"contracts/ReceiveAndFallback.sol\":3656:3730  (bool success, bytes memory data) = address(test).call{value: 2 ether}(\"\") */\n      swap2\n      pop\n      swap2\n      pop\n        /* \"contracts/ReceiveAndFallback.sol\":3840:3847  success */\n      dup2\n        /* \"contracts/ReceiveAndFallback.sol\":3849:3853  data */\n      dup2\n        /* \"contracts/ReceiveAndFallback.sol\":3832:3854  return (success, data) */\n      swap4\n      pop\n      swap4\n      pop\n      pop\n      pop\n        /* \"contracts/ReceiveAndFallback.sol\":3586:3862  function payG() public payable returns(bool, bytes memory) {... */\n      swap1\n      swap2\n      jump\t// out\n        /* \"contracts/ReceiveAndFallback.sol\":2524:2745  function payD() public payable returns(bool) {... */\n    tag_75:\n        /* \"contracts/ReceiveAndFallback.sol\":2563:2567  bool */\n      0x00\n        /* \"contracts/ReceiveAndFallback.sol\":2596:2600  test */\n      0x00\n      0x00\n      swap1\n      sload\n      swap1\n      0x0100\n      exp\n      swap1\n      div\n      0xffffffffffffffffffffffffffffffffffffffff\n      and\n        /* \"contracts/ReceiveAndFallback.sol\":2580:2611  payable(address(test)).transfer */\n      0xffffffffffffffffffffffffffffffffffffffff\n      and\n        /* \"contracts/ReceiveAndFallback.sol\":2580:2620  payable(address(test)).transfer(2 ether) */\n      0x08fc\n        /* \"contracts/ReceiveAndFallback.sol\":2612:2619  2 ether */\n      0x1bc16d674ec80000\n        /* \"contracts/ReceiveAndFallback.sol\":2580:2620  payable(address(test)).transfer(2 ether) */\n      swap1\n      dup2\n      iszero\n      mul\n      swap1\n      mload(0x40)\n      0x00\n      mload(0x40)\n      dup1\n      dup4\n      sub\n      dup2\n      dup6\n      dup9\n      dup9\n      call\n      swap4\n      pop\n      pop\n      pop\n      pop\n      iszero\n      dup1\n      iszero\n      tag_166\n      jumpi\n      returndatacopy(0x00, 0x00, returndatasize)\n      revert(0x00, returndatasize)\n    tag_166:\n      pop\n        /* \"contracts/ReceiveAndFallback.sol\":2732:2736  true */\n      0x01\n        /* \"contracts/ReceiveAndFallback.sol\":2724:2737  return (true) */\n      swap1\n      pop\n        /* \"contracts/ReceiveAndFallback.sol\":2524:2745  function payD() public payable returns(bool) {... */\n      swap1\n      jump\t// out\n        /* \"contracts/ReceiveAndFallback.sol\":2163:2384  function payC() public payable returns(bool) {... */\n    tag_78:\n        /* \"contracts/ReceiveAndFallback.sol\":2202:2206  bool */\n      0x00\n        /* \"contracts/ReceiveAndFallback.sol\":2235:2239  test */\n      0x00\n      0x00\n      swap1\n      sload\n      swap1\n      0x0100\n      exp\n      swap1\n      div\n      0xffffffffffffffffffffffffffffffffffffffff\n      and\n        /* \"contracts/ReceiveAndFallback.sol\":2219:2250  payable(address(test)).transfer */\n      0xffffffffffffffffffffffffffffffffffffffff\n      and\n        /* \"contracts/ReceiveAndFallback.sol\":2219:2259  payable(address(test)).transfer(0 ether) */\n      0x08fc\n        /* \"contracts/ReceiveAndFallback.sol\":2251:2258  0 ether */\n      0x00\n        /* \"contracts/ReceiveAndFallback.sol\":2219:2259  payable(address(test)).transfer(0 ether) */\n      swap1\n      dup2\n      iszero\n      mul\n      swap1\n      mload(0x40)\n      0x00\n      mload(0x40)\n      dup1\n      dup4\n      sub\n      dup2\n      dup6\n      dup9\n      dup9\n      call\n      swap4\n      pop\n      pop\n      pop\n      pop\n      iszero\n      dup1\n      iszero\n      tag_169\n      jumpi\n      returndatacopy(0x00, 0x00, returndatasize)\n      revert(0x00, returndatasize)\n    tag_169:\n      pop\n        /* \"contracts/ReceiveAndFallback.sol\":2371:2375  true */\n      0x01\n        /* \"contracts/ReceiveAndFallback.sol\":2363:2376  return (true) */\n      swap1\n      pop\n        /* \"contracts/ReceiveAndFallback.sol\":2163:2384  function payC() public payable returns(bool) {... */\n      swap1\n      jump\t// out\n        /* \"contracts/ReceiveAndFallback.sol\":1332:1415  function pay1() public payable returns(uint256) {... */\n    tag_81:\n        /* \"contracts/ReceiveAndFallback.sol\":1371:1378  uint256 */\n      0x00\n        /* \"contracts/ReceiveAndFallback.sol\":1398:1407  msg.value */\n      callvalue\n        /* \"contracts/ReceiveAndFallback.sol\":1391:1407  return msg.value */\n      swap1\n      pop\n        /* \"contracts/ReceiveAndFallback.sol\":1332:1415  function pay1() public payable returns(uint256) {... */\n      swap1\n      jump\t// out\n        /* \"contracts/ReceiveAndFallback.sol\":6101:6405  function payN() public payable returns(bool, bytes memory) {... */\n    tag_84:\n        /* \"contracts/ReceiveAndFallback.sol\":6140:6144  bool */\n      0x00\n        /* \"contracts/ReceiveAndFallback.sol\":6146:6158  bytes memory */\n      0x60\n        /* \"contracts/ReceiveAndFallback.sol\":6203:6223  bytes memory msgData */\n      0x00\n        /* \"contracts/ReceiveAndFallback.sol\":6268:6271  213 */\n      0xd5\n        /* \"contracts/ReceiveAndFallback.sol\":6226:6272  abi.encodeWithSignature(\"test2(uint256)\", 213) */\n      add(0x24, mload(0x40))\n      tag_172\n      swap2\n      swap1\n      tag_91\n      jump\t// in\n    tag_172:\n      mload(0x40)\n      0x20\n      dup2\n      dup4\n      sub\n      sub\n      dup2\n      mstore\n      swap1\n      0x40\n      mstore\n      and(not(0xffffffffffffffffffffffffffffffffffffffffffffffffffffffff), 0xcaf4468300000000000000000000000000000000000000000000000000000000)\n      0x20\n      dup3\n      add\n      dup1\n      mload\n      0xffffffffffffffffffffffffffffffffffffffffffffffffffffffff\n      dup4\n      dup2\n      dup4\n      and\n      or\n      dup4\n      mstore\n      pop\n      pop\n      pop\n      pop\n        /* \"contracts/ReceiveAndFallback.sol\":6203:6272  bytes memory msgData = abi.encodeWithSignature(\"test2(uint256)\", 213) */\n      swap1\n      pop\n        /* \"contracts/ReceiveAndFallback.sol\":6284:6296  bool success */\n      0x00\n        /* \"contracts/ReceiveAndFallback.sol\":6298:6315  bytes memory data */\n      0x00\n        /* \"contracts/ReceiveAndFallback.sol\":6327:6331  test */\n      0x00\n      0x00\n      swap1\n      sload\n      swap1\n      0x0100\n      exp\n      swap1\n      div\n      0xffffffffffffffffffffffffffffffffffffffff\n      and\n        /* \"contracts/ReceiveAndFallback.sol\":6319:6337  address(test).call */\n      0xffffffffffffffffffffffffffffffffffffffff\n      and\n        /* \"contracts/ReceiveAndFallback.sol\":6345:6354  msg.value */\n      callvalue\n        /* \"contracts/ReceiveAndFallback.sol\":6356:6363  msgData */\n      dup5\n        /* \"contracts/ReceiveAndFallback.sol\":6319:6364  address(test).call{value: msg.value}(msgData) */\n      mload(0x40)\n      tag_173\n      swap2\n      swap1\n      tag_93\n      jump\t// in\n    tag_173:\n      0x00\n      mload(0x40)\n      dup1\n      dup4\n      sub\n      dup2\n      dup6\n      dup8\n      gas\n      call\n      swap3\n      pop\n      pop\n      pop\n      returndatasize\n      dup1\n      0x00\n      dup2\n      eq\n      tag_176\n      jumpi\n      mload(0x40)\n      swap2\n      pop\n      and(add(returndatasize, 0x3f), not(0x1f))\n      dup3\n      add\n      0x40\n      mstore\n      returndatasize\n      dup3\n      mstore\n      returndatasize\n      0x00\n      0x20\n      dup5\n      add\n      returndatacopy\n      jump(tag_175)\n    tag_176:\n      0x60\n      swap2\n      pop\n    tag_175:\n      pop\n        /* \"contracts/ReceiveAndFallback.sol\":6283:6364  (bool success, bytes memory data) = address(test).call{value: msg.value}(msgData) */\n      swap2\n      pop\n      swap2\n      pop\n        /* \"contracts/ReceiveAndFallback.sol\":6383:6390  success */\n      dup2\n        /* \"contracts/ReceiveAndFallback.sol\":6392:6396  data */\n      dup2\n        /* \"contracts/ReceiveAndFallback.sol\":6375:6397  return (success, data) */\n      swap5\n      pop\n      swap5\n      pop\n      pop\n      pop\n      pop\n        /* \"contracts/ReceiveAndFallback.sol\":6101:6405  function payN() public payable returns(bool, bytes memory) {... */\n      swap1\n      swap2\n      jump\t// out\n        /* \"contracts/ReceiveAndFallback.sol\":7107:7410  function payP() public payable returns(bool, bytes memory) {... */\n    tag_87:\n        /* \"contracts/ReceiveAndFallback.sol\":7146:7150  bool */\n      0x00\n        /* \"contracts/ReceiveAndFallback.sol\":7152:7164  bytes memory */\n      0x60\n        /* \"contracts/ReceiveAndFallback.sol\":7209:7229  bytes memory msgData */\n      0x00\n        /* \"contracts/ReceiveAndFallback.sol\":7273:7276  213 */\n      0xd5\n        /* \"contracts/ReceiveAndFallback.sol\":7232:7277  abi.encodeWithSignature(\"test(uint256)\", 213) */\n      add(0x24, mload(0x40))\n      tag_178\n      swap2\n      swap1\n      tag_91\n      jump\t// in\n    tag_178:\n      mload(0x40)\n      0x20\n      dup2\n      dup4\n      sub\n      sub\n      dup2\n      mstore\n      swap1\n      0x40\n      mstore\n      and(not(0xffffffffffffffffffffffffffffffffffffffffffffffffffffffff), 0x29e99f0700000000000000000000000000000000000000000000000000000000)\n      0x20\n      dup3\n      add\n      dup1\n      mload\n      0xffffffffffffffffffffffffffffffffffffffffffffffffffffffff\n      dup4\n      dup2\n      dup4\n      and\n      or\n      dup4\n      mstore\n      pop\n      pop\n      pop\n      pop\n        /* \"contracts/ReceiveAndFallback.sol\":7209:7277  bytes memory msgData = abi.encodeWithSignature(\"test(uint256)\", 213) */\n      swap1\n      pop\n        /* \"contracts/ReceiveAndFallback.sol\":7289:7301  bool success */\n      0x00\n        /* \"contracts/ReceiveAndFallback.sol\":7303:7320  bytes memory data */\n      0x00\n        /* \"contracts/ReceiveAndFallback.sol\":7332:7336  test */\n      0x00\n      0x00\n      swap1\n      sload\n      swap1\n      0x0100\n      exp\n      swap1\n      div\n      0xffffffffffffffffffffffffffffffffffffffff\n      and\n        /* \"contracts/ReceiveAndFallback.sol\":7324:7342  address(test).call */\n      0xffffffffffffffffffffffffffffffffffffffff\n      and\n        /* \"contracts/ReceiveAndFallback.sol\":7350:7359  msg.value */\n      callvalue\n        /* \"contracts/ReceiveAndFallback.sol\":7361:7368  msgData */\n      dup5\n        /* \"contracts/ReceiveAndFallback.sol\":7324:7369  address(test).call{value: msg.value}(msgData) */\n      mload(0x40)\n      tag_179\n      swap2\n      swap1\n      tag_93\n      jump\t// in\n    tag_179:\n      0x00\n      mload(0x40)\n      dup1\n      dup4\n      sub\n      dup2\n      dup6\n      dup8\n      gas\n      call\n      swap3\n      pop\n      pop\n      pop\n      returndatasize\n      dup1\n      0x00\n      dup2\n      eq\n      tag_182\n      jumpi\n      mload(0x40)\n      swap2\n      pop\n      and(add(returndatasize, 0x3f), not(0x1f))\n      dup3\n      add\n      0x40\n      mstore\n      returndatasize\n      dup3\n      mstore\n      returndatasize\n      0x00\n      0x20\n      dup5\n      add\n      returndatacopy\n      jump(tag_181)\n    tag_182:\n      0x60\n      swap2\n      pop\n    tag_181:\n      pop\n        /* \"contracts/ReceiveAndFallback.sol\":7288:7369  (bool success, bytes memory data) = address(test).call{value: msg.value}(msgData) */\n      swap2\n      pop\n      swap2\n      pop\n        /* \"contracts/ReceiveAndFallback.sol\":7388:7395  success */\n      dup2\n        /* \"contracts/ReceiveAndFallback.sol\":7397:7401  data */\n      dup2\n        /* \"contracts/ReceiveAndFallback.sol\":7380:7402  return (success, data) */\n      swap5\n      pop\n      swap5\n      pop\n      pop\n      pop\n      pop\n        /* \"contracts/ReceiveAndFallback.sol\":7107:7410  function payP() public payable returns(bool, bytes memory) {... */\n      swap1\n      swap2\n      jump\t// out\n        /* \"#utility.yul\":7:97   */\n    tag_183:\n        /* \"#utility.yul\":41:48   */\n      0x00\n        /* \"#utility.yul\":84:89   */\n      dup2\n        /* \"#utility.yul\":77:90   */\n      iszero\n        /* \"#utility.yul\":70:91   */\n      iszero\n        /* \"#utility.yul\":59:91   */\n      swap1\n      pop\n        /* \"#utility.yul\":7:97   */\n      swap2\n      swap1\n      pop\n      jump\t// out\n        /* \"#utility.yul\":103:212   */\n    tag_184:\n        /* \"#utility.yul\":184:205   */\n      tag_219\n        /* \"#utility.yul\":199:204   */\n      dup2\n        /* \"#utility.yul\":184:205   */\n      tag_183\n      jump\t// in\n    tag_219:\n        /* \"#utility.yul\":179:182   */\n      dup3\n        /* \"#utility.yul\":172:206   */\n      mstore\n        /* \"#utility.yul\":103:212   */\n      pop\n      pop\n      jump\t// out\n        /* \"#utility.yul\":218:316   */\n    tag_185:\n        /* \"#utility.yul\":269:275   */\n      0x00\n        /* \"#utility.yul\":303:308   */\n      dup2\n        /* \"#utility.yul\":297:309   */\n      mload\n        /* \"#utility.yul\":287:309   */\n      swap1\n      pop\n        /* \"#utility.yul\":218:316   */\n      swap2\n      swap1\n      pop\n      jump\t// out\n        /* \"#utility.yul\":322:490   */\n    tag_186:\n        /* \"#utility.yul\":405:416   */\n      0x00\n        /* \"#utility.yul\":439:445   */\n      dup3\n        /* \"#utility.yul\":434:437   */\n      dup3\n        /* \"#utility.yul\":427:446   */\n      mstore\n        /* \"#utility.yul\":479:483   */\n      0x20\n        /* \"#utility.yul\":474:477   */\n      dup3\n        /* \"#utility.yul\":470:484   */\n      add\n        /* \"#utility.yul\":455:484   */\n      swap1\n      pop\n        /* \"#utility.yul\":322:490   */\n      swap3\n      swap2\n      pop\n      pop\n      jump\t// out\n        /* \"#utility.yul\":496:635   */\n    tag_187:\n        /* \"#utility.yul\":585:591   */\n      dup3\n        /* \"#utility.yul\":580:583   */\n      dup2\n        /* \"#utility.yul\":575:578   */\n      dup4\n        /* \"#utility.yul\":569:592   */\n      mcopy\n        /* \"#utility.yul\":626:627   */\n      0x00\n        /* \"#utility.yul\":617:623   */\n      dup4\n        /* \"#utility.yul\":612:615   */\n      dup4\n        /* \"#utility.yul\":608:624   */\n      add\n        /* \"#utility.yul\":601:628   */\n      mstore\n        /* \"#utility.yul\":496:635   */\n      pop\n      pop\n      pop\n      jump\t// out\n        /* \"#utility.yul\":641:743   */\n    tag_188:\n        /* \"#utility.yul\":682:688   */\n      0x00\n        /* \"#utility.yul\":733:735   */\n      0x1f\n        /* \"#utility.yul\":729:736   */\n      not\n        /* \"#utility.yul\":724:726   */\n      0x1f\n        /* \"#utility.yul\":717:722   */\n      dup4\n        /* \"#utility.yul\":713:727   */\n      add\n        /* \"#utility.yul\":709:737   */\n      and\n        /* \"#utility.yul\":699:737   */\n      swap1\n      pop\n        /* \"#utility.yul\":641:743   */\n      swap2\n      swap1\n      pop\n      jump\t// out\n        /* \"#utility.yul\":749:1122   */\n    tag_189:\n        /* \"#utility.yul\":835:838   */\n      0x00\n        /* \"#utility.yul\":863:901   */\n      tag_225\n        /* \"#utility.yul\":895:900   */\n      dup3\n        /* \"#utility.yul\":863:901   */\n      tag_185\n      jump\t// in\n    tag_225:\n        /* \"#utility.yul\":917:987   */\n      tag_226\n        /* \"#utility.yul\":980:986   */\n      dup2\n        /* \"#utility.yul\":975:978   */\n      dup6\n        /* \"#utility.yul\":917:987   */\n      tag_186\n      jump\t// in\n    tag_226:\n        /* \"#utility.yul\":910:987   */\n      swap4\n      pop\n        /* \"#utility.yul\":996:1061   */\n      tag_227\n        /* \"#utility.yul\":1054:1060   */\n      dup2\n        /* \"#utility.yul\":1049:1052   */\n      dup6\n        /* \"#utility.yul\":1042:1046   */\n      0x20\n        /* \"#utility.yul\":1035:1040   */\n      dup7\n        /* \"#utility.yul\":1031:1047   */\n      add\n        /* \"#utility.yul\":996:1061   */\n      tag_187\n      jump\t// in\n    tag_227:\n        /* \"#utility.yul\":1086:1115   */\n      tag_228\n        /* \"#utility.yul\":1108:1114   */\n      dup2\n        /* \"#utility.yul\":1086:1115   */\n      tag_188\n      jump\t// in\n    tag_228:\n        /* \"#utility.yul\":1081:1084   */\n      dup5\n        /* \"#utility.yul\":1077:1116   */\n      add\n        /* \"#utility.yul\":1070:1116   */\n      swap2\n      pop\n        /* \"#utility.yul\":839:1122   */\n      pop\n        /* \"#utility.yul\":749:1122   */\n      swap3\n      swap2\n      pop\n      pop\n      jump\t// out\n        /* \"#utility.yul\":1128:1535   */\n    tag_29:\n        /* \"#utility.yul\":1261:1265   */\n      0x00\n        /* \"#utility.yul\":1299:1301   */\n      0x40\n        /* \"#utility.yul\":1288:1297   */\n      dup3\n        /* \"#utility.yul\":1284:1302   */\n      add\n        /* \"#utility.yul\":1276:1302   */\n      swap1\n      pop\n        /* \"#utility.yul\":1312:1377   */\n      tag_230\n        /* \"#utility.yul\":1374:1375   */\n      0x00\n        /* \"#utility.yul\":1363:1372   */\n      dup4\n        /* \"#utility.yul\":1359:1376   */\n      add\n        /* \"#utility.yul\":1350:1356   */\n      dup6\n        /* \"#utility.yul\":1312:1377   */\n      tag_184\n      jump\t// in\n    tag_230:\n        /* \"#utility.yul\":1424:1433   */\n      dup2\n        /* \"#utility.yul\":1418:1422   */\n      dup2\n        /* \"#utility.yul\":1414:1434   */\n      sub\n        /* \"#utility.yul\":1409:1411   */\n      0x20\n        /* \"#utility.yul\":1398:1407   */\n      dup4\n        /* \"#utility.yul\":1394:1412   */\n      add\n        /* \"#utility.yul\":1387:1435   */\n      mstore\n        /* \"#utility.yul\":1452:1528   */\n      tag_231\n        /* \"#utility.yul\":1523:1527   */\n      dup2\n        /* \"#utility.yul\":1514:1520   */\n      dup5\n        /* \"#utility.yul\":1452:1528   */\n      tag_189\n      jump\t// in\n    tag_231:\n        /* \"#utility.yul\":1444:1528   */\n      swap1\n      pop\n        /* \"#utility.yul\":1128:1535   */\n      swap4\n      swap3\n      pop\n      pop\n      pop\n      jump\t// out\n        /* \"#utility.yul\":1541:1751   */\n    tag_34:\n        /* \"#utility.yul\":1628:1632   */\n      0x00\n        /* \"#utility.yul\":1666:1668   */\n      0x20\n        /* \"#utility.yul\":1655:1664   */\n      dup3\n        /* \"#utility.yul\":1651:1669   */\n      add\n        /* \"#utility.yul\":1643:1669   */\n      swap1\n      pop\n        /* \"#utility.yul\":1679:1744   */\n      tag_233\n        /* \"#utility.yul\":1741:1742   */\n      0x00\n        /* \"#utility.yul\":1730:1739   */\n      dup4\n        /* \"#utility.yul\":1726:1743   */\n      add\n        /* \"#utility.yul\":1717:1723   */\n      dup5\n        /* \"#utility.yul\":1679:1744   */\n      tag_184\n      jump\t// in\n    tag_233:\n        /* \"#utility.yul\":1541:1751   */\n      swap3\n      swap2\n      pop\n      pop\n      jump\t// out\n        /* \"#utility.yul\":1757:1834   */\n    tag_190:\n        /* \"#utility.yul\":1794:1801   */\n      0x00\n        /* \"#utility.yul\":1823:1828   */\n      dup2\n        /* \"#utility.yul\":1812:1828   */\n      swap1\n      pop\n        /* \"#utility.yul\":1757:1834   */\n      swap2\n      swap1\n      pop\n      jump\t// out\n        /* \"#utility.yul\":1840:1958   */\n    tag_191:\n        /* \"#utility.yul\":1927:1951   */\n      tag_236\n        /* \"#utility.yul\":1945:1950   */\n      dup2\n        /* \"#utility.yul\":1927:1951   */\n      tag_190\n      jump\t// in\n    tag_236:\n        /* \"#utility.yul\":1922:1925   */\n      dup3\n        /* \"#utility.yul\":1915:1952   */\n      mstore\n        /* \"#utility.yul\":1840:1958   */\n      pop\n      pop\n      jump\t// out\n        /* \"#utility.yul\":1964:2186   */\n    tag_54:\n        /* \"#utility.yul\":2057:2061   */\n      0x00\n        /* \"#utility.yul\":2095:2097   */\n      0x20\n        /* \"#utility.yul\":2084:2093   */\n      dup3\n        /* \"#utility.yul\":2080:2098   */\n      add\n        /* \"#utility.yul\":2072:2098   */\n      swap1\n      pop\n        /* \"#utility.yul\":2108:2179   */\n      tag_238\n        /* \"#utility.yul\":2176:2177   */\n      0x00\n        /* \"#utility.yul\":2165:2174   */\n      dup4\n        /* \"#utility.yul\":2161:2178   */\n      add\n        /* \"#utility.yul\":2152:2158   */\n      dup5\n        /* \"#utility.yul\":2108:2179   */\n      tag_191\n      jump\t// in\n    tag_238:\n        /* \"#utility.yul\":1964:2186   */\n      swap3\n      swap2\n      pop\n      pop\n      jump\t// out\n        /* \"#utility.yul\":2192:2279   */\n    tag_192:\n        /* \"#utility.yul\":2239:2246   */\n      0x00\n        /* \"#utility.yul\":2268:2273   */\n      dup2\n        /* \"#utility.yul\":2257:2273   */\n      swap1\n      pop\n        /* \"#utility.yul\":2192:2279   */\n      swap2\n      swap1\n      pop\n      jump\t// out\n        /* \"#utility.yul\":2285:2371   */\n    tag_193:\n        /* \"#utility.yul\":2320:2327   */\n      0x00\n        /* \"#utility.yul\":2360:2364   */\n      0xff\n        /* \"#utility.yul\":2353:2358   */\n      dup3\n        /* \"#utility.yul\":2349:2365   */\n      and\n        /* \"#utility.yul\":2338:2365   */\n      swap1\n      pop\n        /* \"#utility.yul\":2285:2371   */\n      swap2\n      swap1\n      pop\n      jump\t// out\n        /* \"#utility.yul\":2377:2437   */\n    tag_194:\n        /* \"#utility.yul\":2405:2408   */\n      0x00\n        /* \"#utility.yul\":2426:2431   */\n      dup2\n        /* \"#utility.yul\":2419:2431   */\n      swap1\n      pop\n        /* \"#utility.yul\":2377:2437   */\n      swap2\n      swap1\n      pop\n      jump\t// out\n        /* \"#utility.yul\":2443:2601   */\n    tag_195:\n        /* \"#utility.yul\":2501:2510   */\n      0x00\n        /* \"#utility.yul\":2534:2595   */\n      tag_243\n        /* \"#utility.yul\":2550:2594   */\n      tag_244\n        /* \"#utility.yul\":2559:2593   */\n      tag_245\n        /* \"#utility.yul\":2587:2592   */\n      dup5\n        /* \"#utility.yul\":2559:2593   */\n      tag_192\n      jump\t// in\n    tag_245:\n        /* \"#utility.yul\":2550:2594   */\n      tag_194\n      jump\t// in\n    tag_244:\n        /* \"#utility.yul\":2534:2595   */\n      tag_193\n      jump\t// in\n    tag_243:\n        /* \"#utility.yul\":2521:2595   */\n      swap1\n      pop\n        /* \"#utility.yul\":2443:2601   */\n      swap2\n      swap1\n      pop\n      jump\t// out\n        /* \"#utility.yul\":2607:2754   */\n    tag_196:\n        /* \"#utility.yul\":2702:2747   */\n      tag_247\n        /* \"#utility.yul\":2741:2746   */\n      dup2\n        /* \"#utility.yul\":2702:2747   */\n      tag_195\n      jump\t// in\n    tag_247:\n        /* \"#utility.yul\":2697:2700   */\n      dup3\n        /* \"#utility.yul\":2690:2748   */\n      mstore\n        /* \"#utility.yul\":2607:2754   */\n      pop\n      pop\n      jump\t// out\n        /* \"#utility.yul\":2760:2998   */\n    tag_91:\n        /* \"#utility.yul\":2861:2865   */\n      0x00\n        /* \"#utility.yul\":2899:2901   */\n      0x20\n        /* \"#utility.yul\":2888:2897   */\n      dup3\n        /* \"#utility.yul\":2884:2902   */\n      add\n        /* \"#utility.yul\":2876:2902   */\n      swap1\n      pop\n        /* \"#utility.yul\":2912:2991   */\n      tag_249\n        /* \"#utility.yul\":2988:2989   */\n      0x00\n        /* \"#utility.yul\":2977:2986   */\n      dup4\n        /* \"#utility.yul\":2973:2990   */\n      add\n        /* \"#utility.yul\":2964:2970   */\n      dup5\n        /* \"#utility.yul\":2912:2991   */\n      tag_196\n      jump\t// in\n    tag_249:\n        /* \"#utility.yul\":2760:2998   */\n      swap3\n      swap2\n      pop\n      pop\n      jump\t// out\n        /* \"#utility.yul\":3004:3151   */\n    tag_197:\n        /* \"#utility.yul\":3105:3116   */\n      0x00\n        /* \"#utility.yul\":3142:3145   */\n      dup2\n        /* \"#utility.yul\":3127:3145   */\n      swap1\n      pop\n        /* \"#utility.yul\":3004:3151   */\n      swap3\n      swap2\n      pop\n      pop\n      jump\t// out\n        /* \"#utility.yul\":3157:3543   */\n    tag_198:\n        /* \"#utility.yul\":3261:3264   */\n      0x00\n        /* \"#utility.yul\":3289:3327   */\n      tag_252\n        /* \"#utility.yul\":3321:3326   */\n      dup3\n        /* \"#utility.yul\":3289:3327   */\n      tag_185\n      jump\t// in\n    tag_252:\n        /* \"#utility.yul\":3343:3431   */\n      tag_253\n        /* \"#utility.yul\":3424:3430   */\n      dup2\n        /* \"#utility.yul\":3419:3422   */\n      dup6\n        /* \"#utility.yul\":3343:3431   */\n      tag_197\n      jump\t// in\n    tag_253:\n        /* \"#utility.yul\":3336:3431   */\n      swap4\n      pop\n        /* \"#utility.yul\":3440:3505   */\n      tag_254\n        /* \"#utility.yul\":3498:3504   */\n      dup2\n        /* \"#utility.yul\":3493:3496   */\n      dup6\n        /* \"#utility.yul\":3486:3490   */\n      0x20\n        /* \"#utility.yul\":3479:3484   */\n      dup7\n        /* \"#utility.yul\":3475:3491   */\n      add\n        /* \"#utility.yul\":3440:3505   */\n      tag_187\n      jump\t// in\n    tag_254:\n        /* \"#utility.yul\":3530:3536   */\n      dup1\n        /* \"#utility.yul\":3525:3528   */\n      dup5\n        /* \"#utility.yul\":3521:3537   */\n      add\n        /* \"#utility.yul\":3514:3537   */\n      swap2\n      pop\n        /* \"#utility.yul\":3265:3543   */\n      pop\n        /* \"#utility.yul\":3157:3543   */\n      swap3\n      swap2\n      pop\n      pop\n      jump\t// out\n        /* \"#utility.yul\":3549:3820   */\n    tag_93:\n        /* \"#utility.yul\":3679:3682   */\n      0x00\n        /* \"#utility.yul\":3701:3794   */\n      tag_256\n        /* \"#utility.yul\":3790:3793   */\n      dup3\n        /* \"#utility.yul\":3781:3787   */\n      dup5\n        /* \"#utility.yul\":3701:3794   */\n      tag_198\n      jump\t// in\n    tag_256:\n        /* \"#utility.yul\":3694:3794   */\n      swap2\n      pop\n        /* \"#utility.yul\":3811:3814   */\n      dup2\n        /* \"#utility.yul\":3804:3814   */\n      swap1\n      pop\n        /* \"#utility.yul\":3549:3820   */\n      swap3\n      swap2\n      pop\n      pop\n      jump\t// out\n        /* \"#utility.yul\":3826:3988   */\n    tag_199:\n        /* \"#utility.yul\":3886:3895   */\n      0x00\n        /* \"#utility.yul\":3919:3982   */\n      tag_258\n        /* \"#utility.yul\":3937:3981   */\n      tag_259\n        /* \"#utility.yul\":3946:3980   */\n      tag_260\n        /* \"#utility.yul\":3974:3979   */\n      dup5\n        /* \"#utility.yul\":3946:3980   */\n      tag_192\n      jump\t// in\n    tag_260:\n        /* \"#utility.yul\":3937:3981   */\n      tag_194\n      jump\t// in\n    tag_259:\n        /* \"#utility.yul\":3919:3982   */\n      tag_190\n      jump\t// in\n    tag_258:\n        /* \"#utility.yul\":3906:3982   */\n      swap1\n      pop\n        /* \"#utility.yul\":3826:3988   */\n      swap2\n      swap1\n      pop\n      jump\t// out\n        /* \"#utility.yul\":3994:4145   */\n    tag_200:\n        /* \"#utility.yul\":4091:4138   */\n      tag_262\n        /* \"#utility.yul\":4132:4137   */\n      dup2\n        /* \"#utility.yul\":4091:4138   */\n      tag_199\n      jump\t// in\n    tag_262:\n        /* \"#utility.yul\":4086:4089   */\n      dup3\n        /* \"#utility.yul\":4079:4139   */\n      mstore\n        /* \"#utility.yul\":3994:4145   */\n      pop\n      pop\n      jump\t// out\n        /* \"#utility.yul\":4151:4393   */\n    tag_100:\n        /* \"#utility.yul\":4254:4258   */\n      0x00\n        /* \"#utility.yul\":4292:4294   */\n      0x20\n        /* \"#utility.yul\":4281:4290   */\n      dup3\n        /* \"#utility.yul\":4277:4295   */\n      add\n        /* \"#utility.yul\":4269:4295   */\n      swap1\n      pop\n        /* \"#utility.yul\":4305:4386   */\n      tag_264\n        /* \"#utility.yul\":4383:4384   */\n      0x00\n        /* \"#utility.yul\":4372:4381   */\n      dup4\n        /* \"#utility.yul\":4368:4385   */\n      add\n        /* \"#utility.yul\":4359:4365   */\n      dup5\n        /* \"#utility.yul\":4305:4386   */\n      tag_200\n      jump\t// in\n    tag_264:\n        /* \"#utility.yul\":4151:4393   */\n      swap3\n      swap2\n      pop\n      pop\n      jump\t// out\n        /* \"#utility.yul\":4399:4474   */\n    tag_201:\n        /* \"#utility.yul\":4432:4438   */\n      0x00\n        /* \"#utility.yul\":4465:4467   */\n      0x40\n        /* \"#utility.yul\":4459:4468   */\n      mload\n        /* \"#utility.yul\":4449:4468   */\n      swap1\n      pop\n        /* \"#utility.yul\":4399:4474   */\n      swap1\n      jump\t// out\n        /* \"#utility.yul\":4480:4597   */\n    tag_202:\n        /* \"#utility.yul\":4589:4590   */\n      0x00\n        /* \"#utility.yul\":4586:4587   */\n      0x00\n        /* \"#utility.yul\":4579:4591   */\n      revert\n        /* \"#utility.yul\":4603:4720   */\n    tag_203:\n        /* \"#utility.yul\":4712:4713   */\n      0x00\n        /* \"#utility.yul\":4709:4710   */\n      0x00\n        /* \"#utility.yul\":4702:4714   */\n      revert\n        /* \"#utility.yul\":4726:4843   */\n    tag_204:\n        /* \"#utility.yul\":4835:4836   */\n      0x00\n        /* \"#utility.yul\":4832:4833   */\n      0x00\n        /* \"#utility.yul\":4825:4837   */\n      revert\n        /* \"#utility.yul\":4849:4966   */\n    tag_205:\n        /* \"#utility.yul\":4958:4959   */\n      0x00\n        /* \"#utility.yul\":4955:4956   */\n      0x00\n        /* \"#utility.yul\":4948:4960   */\n      revert\n        /* \"#utility.yul\":4972:5152   */\n    tag_206:\n        /* \"#utility.yul\":5020:5097   */\n      0x4e487b7100000000000000000000000000000000000000000000000000000000\n        /* \"#utility.yul\":5017:5018   */\n      0x00\n        /* \"#utility.yul\":5010:5098   */\n      mstore\n        /* \"#utility.yul\":5117:5121   */\n      0x41\n        /* \"#utility.yul\":5114:5115   */\n      0x04\n        /* \"#utility.yul\":5107:5122   */\n      mstore\n        /* \"#utility.yul\":5141:5145   */\n      0x24\n        /* \"#utility.yul\":5138:5139   */\n      0x00\n        /* \"#utility.yul\":5131:5146   */\n      revert\n        /* \"#utility.yul\":5158:5439   */\n    tag_207:\n        /* \"#utility.yul\":5241:5268   */\n      tag_272\n        /* \"#utility.yul\":5263:5267   */\n      dup3\n        /* \"#utility.yul\":5241:5268   */\n      tag_188\n      jump\t// in\n    tag_272:\n        /* \"#utility.yul\":5233:5239   */\n      dup2\n        /* \"#utility.yul\":5229:5269   */\n      add\n        /* \"#utility.yul\":5371:5377   */\n      dup2\n        /* \"#utility.yul\":5359:5369   */\n      dup2\n        /* \"#utility.yul\":5356:5378   */\n      lt\n        /* \"#utility.yul\":5335:5353   */\n      0xffffffffffffffff\n        /* \"#utility.yul\":5323:5333   */\n      dup3\n        /* \"#utility.yul\":5320:5354   */\n      gt\n        /* \"#utility.yul\":5317:5379   */\n      or\n        /* \"#utility.yul\":5314:5402   */\n      iszero\n      tag_273\n      jumpi\n        /* \"#utility.yul\":5382:5400   */\n      tag_274\n      tag_206\n      jump\t// in\n    tag_274:\n        /* \"#utility.yul\":5314:5402   */\n    tag_273:\n        /* \"#utility.yul\":5422:5432   */\n      dup1\n        /* \"#utility.yul\":5418:5420   */\n      0x40\n        /* \"#utility.yul\":5411:5433   */\n      mstore\n        /* \"#utility.yul\":5201:5439   */\n      pop\n        /* \"#utility.yul\":5158:5439   */\n      pop\n      pop\n      jump\t// out\n        /* \"#utility.yul\":5445:5574   */\n    tag_208:\n        /* \"#utility.yul\":5479:5485   */\n      0x00\n        /* \"#utility.yul\":5506:5526   */\n      tag_276\n      tag_201\n      jump\t// in\n    tag_276:\n        /* \"#utility.yul\":5496:5526   */\n      swap1\n      pop\n        /* \"#utility.yul\":5535:5568   */\n      tag_277\n        /* \"#utility.yul\":5563:5567   */\n      dup3\n        /* \"#utility.yul\":5555:5561   */\n      dup3\n        /* \"#utility.yul\":5535:5568   */\n      tag_207\n      jump\t// in\n    tag_277:\n        /* \"#utility.yul\":5445:5574   */\n      swap2\n      swap1\n      pop\n      jump\t// out\n        /* \"#utility.yul\":5580:5887   */\n    tag_209:\n        /* \"#utility.yul\":5641:5645   */\n      0x00\n        /* \"#utility.yul\":5731:5749   */\n      0xffffffffffffffff\n        /* \"#utility.yul\":5723:5729   */\n      dup3\n        /* \"#utility.yul\":5720:5750   */\n      gt\n        /* \"#utility.yul\":5717:5773   */\n      iszero\n      tag_279\n      jumpi\n        /* \"#utility.yul\":5753:5771   */\n      tag_280\n      tag_206\n      jump\t// in\n    tag_280:\n        /* \"#utility.yul\":5717:5773   */\n    tag_279:\n        /* \"#utility.yul\":5791:5820   */\n      tag_281\n        /* \"#utility.yul\":5813:5819   */\n      dup3\n        /* \"#utility.yul\":5791:5820   */\n      tag_188\n      jump\t// in\n    tag_281:\n        /* \"#utility.yul\":5783:5820   */\n      swap1\n      pop\n        /* \"#utility.yul\":5875:5879   */\n      0x20\n        /* \"#utility.yul\":5869:5873   */\n      dup2\n        /* \"#utility.yul\":5865:5880   */\n      add\n        /* \"#utility.yul\":5857:5880   */\n      swap1\n      pop\n        /* \"#utility.yul\":5580:5887   */\n      swap2\n      swap1\n      pop\n      jump\t// out\n        /* \"#utility.yul\":5893:6325   */\n    tag_210:\n        /* \"#utility.yul\":5981:5986   */\n      0x00\n        /* \"#utility.yul\":6006:6071   */\n      tag_283\n        /* \"#utility.yul\":6022:6070   */\n      tag_284\n        /* \"#utility.yul\":6063:6069   */\n      dup5\n        /* \"#utility.yul\":6022:6070   */\n      tag_209\n      jump\t// in\n    tag_284:\n        /* \"#utility.yul\":6006:6071   */\n      tag_208\n      jump\t// in\n    tag_283:\n        /* \"#utility.yul\":5997:6071   */\n      swap1\n      pop\n        /* \"#utility.yul\":6094:6100   */\n      dup3\n        /* \"#utility.yul\":6087:6092   */\n      dup2\n        /* \"#utility.yul\":6080:6101   */\n      mstore\n        /* \"#utility.yul\":6132:6136   */\n      0x20\n        /* \"#utility.yul\":6125:6130   */\n      dup2\n        /* \"#utility.yul\":6121:6137   */\n      add\n        /* \"#utility.yul\":6170:6173   */\n      dup5\n        /* \"#utility.yul\":6161:6167   */\n      dup5\n        /* \"#utility.yul\":6156:6159   */\n      dup5\n        /* \"#utility.yul\":6152:6168   */\n      add\n        /* \"#utility.yul\":6149:6174   */\n      gt\n        /* \"#utility.yul\":6146:6258   */\n      iszero\n      tag_285\n      jumpi\n        /* \"#utility.yul\":6177:6256   */\n      tag_286\n      tag_205\n      jump\t// in\n    tag_286:\n        /* \"#utility.yul\":6146:6258   */\n    tag_285:\n        /* \"#utility.yul\":6267:6319   */\n      tag_287\n        /* \"#utility.yul\":6312:6318   */\n      dup5\n        /* \"#utility.yul\":6307:6310   */\n      dup3\n        /* \"#utility.yul\":6302:6305   */\n      dup6\n        /* \"#utility.yul\":6267:6319   */\n      tag_187\n      jump\t// in\n    tag_287:\n        /* \"#utility.yul\":5987:6325   */\n      pop\n        /* \"#utility.yul\":5893:6325   */\n      swap4\n      swap3\n      pop\n      pop\n      pop\n      jump\t// out\n        /* \"#utility.yul\":6344:6697   */\n    tag_211:\n        /* \"#utility.yul\":6410:6415   */\n      0x00\n        /* \"#utility.yul\":6459:6462   */\n      dup3\n        /* \"#utility.yul\":6452:6456   */\n      0x1f\n        /* \"#utility.yul\":6444:6450   */\n      dup4\n        /* \"#utility.yul\":6440:6457   */\n      add\n        /* \"#utility.yul\":6436:6463   */\n      slt\n        /* \"#utility.yul\":6426:6548   */\n      tag_289\n      jumpi\n        /* \"#utility.yul\":6467:6546   */\n      tag_290\n      tag_204\n      jump\t// in\n    tag_290:\n        /* \"#utility.yul\":6426:6548   */\n    tag_289:\n        /* \"#utility.yul\":6577:6583   */\n      dup2\n        /* \"#utility.yul\":6571:6584   */\n      mload\n        /* \"#utility.yul\":6602:6691   */\n      tag_291\n        /* \"#utility.yul\":6687:6690   */\n      dup5\n        /* \"#utility.yul\":6679:6685   */\n      dup3\n        /* \"#utility.yul\":6672:6676   */\n      0x20\n        /* \"#utility.yul\":6664:6670   */\n      dup7\n        /* \"#utility.yul\":6660:6677   */\n      add\n        /* \"#utility.yul\":6602:6691   */\n      tag_210\n      jump\t// in\n    tag_291:\n        /* \"#utility.yul\":6593:6691   */\n      swap2\n      pop\n        /* \"#utility.yul\":6416:6697   */\n      pop\n        /* \"#utility.yul\":6344:6697   */\n      swap3\n      swap2\n      pop\n      pop\n      jump\t// out\n        /* \"#utility.yul\":6703:6825   */\n    tag_212:\n        /* \"#utility.yul\":6776:6800   */\n      tag_293\n        /* \"#utility.yul\":6794:6799   */\n      dup2\n        /* \"#utility.yul\":6776:6800   */\n      tag_190\n      jump\t// in\n    tag_293:\n        /* \"#utility.yul\":6769:6774   */\n      dup2\n        /* \"#utility.yul\":6766:6801   */\n      eq\n        /* \"#utility.yul\":6756:6819   */\n      tag_294\n      jumpi\n        /* \"#utility.yul\":6815:6816   */\n      0x00\n        /* \"#utility.yul\":6812:6813   */\n      0x00\n        /* \"#utility.yul\":6805:6817   */\n      revert\n        /* \"#utility.yul\":6756:6819   */\n    tag_294:\n        /* \"#utility.yul\":6703:6825   */\n      pop\n      jump\t// out\n        /* \"#utility.yul\":6831:6974   */\n    tag_213:\n        /* \"#utility.yul\":6888:6893   */\n      0x00\n        /* \"#utility.yul\":6919:6925   */\n      dup2\n        /* \"#utility.yul\":6913:6926   */\n      mload\n        /* \"#utility.yul\":6904:6926   */\n      swap1\n      pop\n        /* \"#utility.yul\":6935:6968   */\n      tag_296\n        /* \"#utility.yul\":6962:6967   */\n      dup2\n        /* \"#utility.yul\":6935:6968   */\n      tag_212\n      jump\t// in\n    tag_296:\n        /* \"#utility.yul\":6831:6974   */\n      swap3\n      swap2\n      pop\n      pop\n      jump\t// out\n        /* \"#utility.yul\":6980:7658   */\n    tag_104:\n        /* \"#utility.yul\":7068:7074   */\n      0x00\n        /* \"#utility.yul\":7076:7082   */\n      0x00\n        /* \"#utility.yul\":7125:7127   */\n      0x40\n        /* \"#utility.yul\":7113:7122   */\n      dup4\n        /* \"#utility.yul\":7104:7111   */\n      dup6\n        /* \"#utility.yul\":7100:7123   */\n      sub\n        /* \"#utility.yul\":7096:7128   */\n      slt\n        /* \"#utility.yul\":7093:7212   */\n      iszero\n      tag_298\n      jumpi\n        /* \"#utility.yul\":7131:7210   */\n      tag_299\n      tag_202\n      jump\t// in\n    tag_299:\n        /* \"#utility.yul\":7093:7212   */\n    tag_298:\n        /* \"#utility.yul\":7272:7273   */\n      0x00\n        /* \"#utility.yul\":7261:7270   */\n      dup4\n        /* \"#utility.yul\":7257:7274   */\n      add\n        /* \"#utility.yul\":7251:7275   */\n      mload\n        /* \"#utility.yul\":7302:7320   */\n      0xffffffffffffffff\n        /* \"#utility.yul\":7294:7300   */\n      dup2\n        /* \"#utility.yul\":7291:7321   */\n      gt\n        /* \"#utility.yul\":7288:7405   */\n      iszero\n      tag_300\n      jumpi\n        /* \"#utility.yul\":7324:7403   */\n      tag_301\n      tag_203\n      jump\t// in\n    tag_301:\n        /* \"#utility.yul\":7288:7405   */\n    tag_300:\n        /* \"#utility.yul\":7429:7502   */\n      tag_302\n        /* \"#utility.yul\":7494:7501   */\n      dup6\n        /* \"#utility.yul\":7485:7491   */\n      dup3\n        /* \"#utility.yul\":7474:7483   */\n      dup7\n        /* \"#utility.yul\":7470:7492   */\n      add\n        /* \"#utility.yul\":7429:7502   */\n      tag_211\n      jump\t// in\n    tag_302:\n        /* \"#utility.yul\":7419:7502   */\n      swap3\n      pop\n        /* \"#utility.yul\":7222:7512   */\n      pop\n        /* \"#utility.yul\":7551:7553   */\n      0x20\n        /* \"#utility.yul\":7577:7641   */\n      tag_303\n        /* \"#utility.yul\":7633:7640   */\n      dup6\n        /* \"#utility.yul\":7624:7630   */\n      dup3\n        /* \"#utility.yul\":7613:7622   */\n      dup7\n        /* \"#utility.yul\":7609:7631   */\n      add\n        /* \"#utility.yul\":7577:7641   */\n      tag_213\n      jump\t// in\n    tag_303:\n        /* \"#utility.yul\":7567:7641   */\n      swap2\n      pop\n        /* \"#utility.yul\":7522:7651   */\n      pop\n        /* \"#utility.yul\":6980:7658   */\n      swap3\n      pop\n      swap3\n      swap1\n      pop\n      jump\t// out\n        /* \"#utility.yul\":7664:7778   */\n    tag_214:\n      pop\n      jump\t// out\n        /* \"#utility.yul\":7784:8182   */\n    tag_215:\n        /* \"#utility.yul\":7943:7946   */\n      0x00\n        /* \"#utility.yul\":7964:8047   */\n      tag_306\n        /* \"#utility.yul\":8045:8046   */\n      0x00\n        /* \"#utility.yul\":8040:8043   */\n      dup4\n        /* \"#utility.yul\":7964:8047   */\n      tag_197\n      jump\t// in\n    tag_306:\n        /* \"#utility.yul\":7957:8047   */\n      swap2\n      pop\n        /* \"#utility.yul\":8056:8149   */\n      tag_307\n        /* \"#utility.yul\":8145:8148   */\n      dup3\n        /* \"#utility.yul\":8056:8149   */\n      tag_214\n      jump\t// in\n    tag_307:\n        /* \"#utility.yul\":8174:8175   */\n      0x00\n        /* \"#utility.yul\":8169:8172   */\n      dup3\n        /* \"#utility.yul\":8165:8176   */\n      add\n        /* \"#utility.yul\":8158:8176   */\n      swap1\n      pop\n        /* \"#utility.yul\":7784:8182   */\n      swap2\n      swap1\n      pop\n      jump\t// out\n        /* \"#utility.yul\":8188:8567   */\n    tag_107:\n        /* \"#utility.yul\":8372:8375   */\n      0x00\n        /* \"#utility.yul\":8394:8541   */\n      tag_309\n        /* \"#utility.yul\":8537:8540   */\n      dup3\n        /* \"#utility.yul\":8394:8541   */\n      tag_215\n      jump\t// in\n    tag_309:\n        /* \"#utility.yul\":8387:8541   */\n      swap2\n      pop\n        /* \"#utility.yul\":8558:8561   */\n      dup2\n        /* \"#utility.yul\":8551:8561   */\n      swap1\n      pop\n        /* \"#utility.yul\":8188:8567   */\n      swap2\n      swap1\n      pop\n      jump\t// out\n\n    auxdata: 0xa26469706673582212203b0baf85decec2a3e4566faed279c7f2f66d7674806fc16b4997332aa18ba72b64736f6c634300081e0033\n}\n",
				"bytecode": {
					"linkReferences": {},
					"object": "60806040526040516116a93803806116a9833981810160405281019061002591906100c8565b805f5f6101000a81548173ffffffffffffffffffffffffffffffffffffffff021916908373ffffffffffffffffffffffffffffffffffffffff160217905550506100f3565b5f5ffd5b5f73ffffffffffffffffffffffffffffffffffffffff82169050919050565b5f6100978261006e565b9050919050565b6100a78161008d565b81146100b1575f5ffd5b50565b5f815190506100c28161009e565b92915050565b5f602082840312156100dd576100dc61006a565b5b5f6100ea848285016100b4565b91505092915050565b6115a9806101005f395ff3fe608060405260043610610129575f3560e01c80638b84610c116100aa578063cd4ecbbe1161006e578063cd4ecbbe146102b3578063db73d515146102d2578063dfde0226146102f0578063f6a158051461030e578063f96f435b1461032c578063ffd6f1001461034b57610129565b80638b84610c1461022d5780638fcf5d961461024c578063afc505c21461026b578063b4518ece1461028a578063b94ccc1e1461029457610129565b806375bafd2a116100f157806375bafd2a146101bd5780637843fef4146101c7578063793f6e73146101e65780637e1b3abf146102055780638200adbd1461022357610129565b80630f5f848f1461012d57806313c9030d1461014c5780631dabd7cd146101765780632b15f51c146101805780634c9868711461019f575b5f5ffd5b61013561036a565b604051610143929190611211565b60405180910390f35b348015610157575f5ffd5b50610160610498565b60405161016d919061123f565b60405180910390f35b61017e6104a0565b005b610188610543565b604051610196929190611211565b60405180910390f35b6101a76105da565b6040516101b4919061123f565b60405180910390f35b6101c56105e2565b005b6101cf610682565b6040516101dd929190611211565b60405180910390f35b6101ee6107ae565b6040516101fc929190611211565b60405180910390f35b61020d6108da565b60405161021a9190611270565b60405180910390f35b61022b6108e1565b005b6102356108e3565b604051610243929190611211565b60405180910390f35b610254610a11565b604051610262929190611211565b60405180910390f35b610273610aaa565b604051610281929190611211565b60405180910390f35b610292610bd6565b005b61029c610c77565b6040516102aa929190611211565b60405180910390f35b6102bb610da3565b6040516102c9929190611211565b60405180910390f35b6102da610e44565b6040516102e7919061123f565b60405180910390f35b6102f8610eb8565b604051610305919061123f565b60405180910390f35b610316610f24565b6040516103239190611270565b60405180910390f35b610334610f2b565b604051610342929190611211565b60405180910390f35b610353611059565b604051610361929190611211565b60405180910390f35b5f60605f60d560405160240161038091906112d7565b6040516020818303038152906040527f29e99f07000000000000000000000000000000000000000000000000000000007bffffffffffffffffffffffffffffffffffffffffffffffffffffffff19166020820180517bffffffffffffffffffffffffffffffffffffffffffffffffffffffff838183161783525050505090505f5f5f5f9054906101000a900473ffffffffffffffffffffffffffffffffffffffff1673ffffffffffffffffffffffffffffffffffffffff163484604051610447919061132a565b5f6040518083038185875af1925050503d805f8114610481576040519150601f19603f3d011682016040523d82523d5f602084013e610486565b606091505b50915091508181945094505050509091565b5f6001905090565b5f5f9054906101000a900473ffffffffffffffffffffffffffffffffffffffff1673ffffffffffffffffffffffffffffffffffffffff1663caf446833460d56040518363ffffffff1660e01b81526004016104fb9190611370565b5f6040518083038185885af1158015610516573d5f5f3e3d5ffd5b50505050506040513d5f823e3d601f19601f8201168201806040525081019061053f91906114e2565b5050565b5f60605f5f5f5f9054906101000a900473ffffffffffffffffffffffffffffffffffffffff1673ffffffffffffffffffffffffffffffffffffffff1660405161058b9061155f565b5f604051808303815f865af19150503d805f81146105c4576040519150601f19603f3d011682016040523d82523d5f602084013e6105c9565b606091505b509150915081819350935050509091565b5f6001905090565b5f5f9054906101000a900473ffffffffffffffffffffffffffffffffffffffff1673ffffffffffffffffffffffffffffffffffffffff166319ae899460d56040518263ffffffff1660e01b815260040161063c9190611370565b5f60405180830381865afa158015610656573d5f5f3e3d5ffd5b505050506040513d5f823e3d601f19601f8201168201806040525081019061067e91906114e2565b5050565b5f60605f60d560405160240161069891906112d7565b6040516020818303038152906040527fcaf44683000000000000000000000000000000000000000000000000000000007bffffffffffffffffffffffffffffffffffffffffffffffffffffffff19166020820180517bffffffffffffffffffffffffffffffffffffffffffffffffffffffff838183161783525050505090505f5f5f5f9054906101000a900473ffffffffffffffffffffffffffffffffffffffff1673ffffffffffffffffffffffffffffffffffffffff168360405161075e919061132a565b5f604051808303815f865af19150503d805f8114610797576040519150601f19603f3d011682016040523d82523d5f602084013e61079c565b606091505b50915091508181945094505050509091565b5f60605f60d56040516024016107c491906112d7565b6040516020818303038152906040527f29e99f07000000000000000000000000000000000000000000000000000000007bffffffffffffffffffffffffffffffffffffffffffffffffffffffff19166020820180517bffffffffffffffffffffffffffffffffffffffffffffffffffffffff838183161783525050505090505f5f5f5f9054906101000a900473ffffffffffffffffffffffffffffffffffffffff1673ffffffffffffffffffffffffffffffffffffffff168360405161088a919061132a565b5f604051808303815f865af19150503d805f81146108c3576040519150601f19603f3d011682016040523d82523d5f602084013e6108c8565b606091505b50915091508181945094505050509091565b5f47905090565b565b5f60605f60d56040516024016108f991906112d7565b6040516020818303038152906040527f19ae8994000000000000000000000000000000000000000000000000000000007bffffffffffffffffffffffffffffffffffffffffffffffffffffffff19166020820180517bffffffffffffffffffffffffffffffffffffffffffffffffffffffff838183161783525050505090505f5f5f5f9054906101000a900473ffffffffffffffffffffffffffffffffffffffff1673ffffffffffffffffffffffffffffffffffffffff1634846040516109c0919061132a565b5f6040518083038185875af1925050503d805f81146109fa576040519150601f19603f3d011682016040523d82523d5f602084013e6109ff565b606091505b50915091508181945094505050509091565b5f60605f5f5f5f9054906101000a900473ffffffffffffffffffffffffffffffffffffffff1673ffffffffffffffffffffffffffffffffffffffff165f604051610a5a9061155f565b5f6040518083038185875af1925050503d805f8114610a94576040519150601f19603f3d011682016040523d82523d5f602084013e610a99565b606091505b509150915081819350935050509091565b5f60605f60d5604051602401610ac091906112d7565b6040516020818303038152906040527f29e99f07000000000000000000000000000000000000000000000000000000007bffffffffffffffffffffffffffffffffffffffffffffffffffffffff19166020820180517bffffffffffffffffffffffffffffffffffffffffffffffffffffffff838183161783525050505090505f5f5f5f9054906101000a900473ffffffffffffffffffffffffffffffffffffffff1673ffffffffffffffffffffffffffffffffffffffff1683604051610b86919061132a565b5f604051808303815f865af19150503d805f8114610bbf576040519150601f19603f3d011682016040523d82523d5f602084013e610bc4565b606091505b50915091508181945094505050509091565b5f5f9054906101000a900473ffffffffffffffffffffffffffffffffffffffff1673ffffffffffffffffffffffffffffffffffffffff1663caf4468360d56040518263ffffffff1660e01b8152600401610c309190611370565b5f604051808303815f875af1158015610c4b573d5f5f3e3d5ffd5b505050506040513d5f823e3d601f19601f82011682018060405250810190610c7391906114e2565b5050565b5f60605f60d5604051602401610c8d91906112d7565b6040516020818303038152906040527f19ae8994000000000000000000000000000000000000000000000000000000007bffffffffffffffffffffffffffffffffffffffffffffffffffffffff19166020820180517bffffffffffffffffffffffffffffffffffffffffffffffffffffffff838183161783525050505090505f5f5f5f9054906101000a900473ffffffffffffffffffffffffffffffffffffffff1673ffffffffffffffffffffffffffffffffffffffff1683604051610d53919061132a565b5f604051808303815f865af19150503d805f8114610d8c576040519150601f19603f3d011682016040523d82523d5f602084013e610d91565b606091505b50915091508181945094505050509091565b5f60605f5f5f5f9054906101000a900473ffffffffffffffffffffffffffffffffffffffff1673ffffffffffffffffffffffffffffffffffffffff16671bc16d674ec80000604051610df49061155f565b5f6040518083038185875af1925050503d805f8114610e2e576040519150601f19603f3d011682016040523d82523d5f602084013e610e33565b606091505b509150915081819350935050509091565b5f5f5f9054906101000a900473ffffffffffffffffffffffffffffffffffffffff1673ffffffffffffffffffffffffffffffffffffffff166108fc671bc16d674ec8000090811502906040515f60405180830381858888f19350505050158015610eb0573d5f5f3e3d5ffd5b506001905090565b5f5f5f9054906101000a900473ffffffffffffffffffffffffffffffffffffffff1673ffffffffffffffffffffffffffffffffffffffff166108fc5f90811502906040515f60405180830381858888f19350505050158015610f1c573d5f5f3e3d5ffd5b506001905090565b5f34905090565b5f60605f60d5604051602401610f4191906112d7565b6040516020818303038152906040527fcaf44683000000000000000000000000000000000000000000000000000000007bffffffffffffffffffffffffffffffffffffffffffffffffffffffff19166020820180517bffffffffffffffffffffffffffffffffffffffffffffffffffffffff838183161783525050505090505f5f5f5f9054906101000a900473ffffffffffffffffffffffffffffffffffffffff1673ffffffffffffffffffffffffffffffffffffffff163484604051611008919061132a565b5f6040518083038185875af1925050503d805f8114611042576040519150601f19603f3d011682016040523d82523d5f602084013e611047565b606091505b50915091508181945094505050509091565b5f60605f60d560405160240161106f91906112d7565b6040516020818303038152906040527f29e99f07000000000000000000000000000000000000000000000000000000007bffffffffffffffffffffffffffffffffffffffffffffffffffffffff19166020820180517bffffffffffffffffffffffffffffffffffffffffffffffffffffffff838183161783525050505090505f5f5f5f9054906101000a900473ffffffffffffffffffffffffffffffffffffffff1673ffffffffffffffffffffffffffffffffffffffff163484604051611136919061132a565b5f6040518083038185875af1925050503d805f8114611170576040519150601f19603f3d011682016040523d82523d5f602084013e611175565b606091505b50915091508181945094505050509091565b5f8115159050919050565b61119b81611187565b82525050565b5f81519050919050565b5f82825260208201905092915050565b8281835e5f83830152505050565b5f601f19601f8301169050919050565b5f6111e3826111a1565b6111ed81856111ab565b93506111fd8185602086016111bb565b611206816111c9565b840191505092915050565b5f6040820190506112245f830185611192565b818103602083015261123681846111d9565b90509392505050565b5f6020820190506112525f830184611192565b92915050565b5f819050919050565b61126a81611258565b82525050565b5f6020820190506112835f830184611261565b92915050565b5f819050919050565b5f60ff82169050919050565b5f819050919050565b5f6112c16112bc6112b784611289565b61129e565b611292565b9050919050565b6112d1816112a7565b82525050565b5f6020820190506112ea5f8301846112c8565b92915050565b5f81905092915050565b5f611304826111a1565b61130e81856112f0565b935061131e8185602086016111bb565b80840191505092915050565b5f61133582846112fa565b915081905092915050565b5f61135a61135561135084611289565b61129e565b611258565b9050919050565b61136a81611340565b82525050565b5f6020820190506113835f830184611361565b92915050565b5f604051905090565b5f5ffd5b5f5ffd5b5f5ffd5b5f5ffd5b7f4e487b71000000000000000000000000000000000000000000000000000000005f52604160045260245ffd5b6113d8826111c9565b810181811067ffffffffffffffff821117156113f7576113f66113a2565b5b80604052505050565b5f611409611389565b905061141582826113cf565b919050565b5f67ffffffffffffffff821115611434576114336113a2565b5b61143d826111c9565b9050602081019050919050565b5f61145c6114578461141a565b611400565b9050828152602081018484840111156114785761147761139e565b5b6114838482856111bb565b509392505050565b5f82601f83011261149f5761149e61139a565b5b81516114af84826020860161144a565b91505092915050565b6114c181611258565b81146114cb575f5ffd5b50565b5f815190506114dc816114b8565b92915050565b5f5f604083850312156114f8576114f7611392565b5b5f83015167ffffffffffffffff81111561151557611514611396565b5b6115218582860161148b565b9250506020611532858286016114ce565b9150509250929050565b50565b5f61154a5f836112f0565b91506115558261153c565b5f82019050919050565b5f6115698261153f565b915081905091905056fea26469706673582212203b0baf85decec2a3e4566faed279c7f2f66d7674806fc16b4997332aa18ba72b64736f6c634300081e0033",
					"opcodes": "PUSH1 0x80 PUSH1 0x40 MSTORE PUSH1 0x40 MLOAD PUSH2 0x16A9 CODESIZE SUB DUP1 PUSH2 0x16A9 DUP4 CODECOPY DUP2 DUP2 ADD PUSH1 0x40 MSTORE DUP2 ADD SWAP1 PUSH2 0x25 SWAP2 SWAP1 PUSH2 0xC8 JUMP JUMPDEST DUP1 PUSH0 PUSH0 PUSH2 0x100 EXP DUP2 SLOAD DUP2 PUSH20 0xFFFFFFFFFFFFFFFFFFFFFFFFFFFFFFFFFFFFFFFF MUL NOT AND SWAP1 DUP4 PUSH20 0xFFFFFFFFFFFFFFFFFFFFFFFFFFFFFFFFFFFFFFFF AND MUL OR SWAP1 SSTORE POP POP PUSH2 0xF3 JUMP JUMPDEST PUSH0 PUSH0 REVERT JUMPDEST PUSH0 PUSH20 0xFFFFFFFFFFFFFFFFFFFFFFFFFFFFFFFFFFFFFFFF DUP3 AND SWAP1 POP SWAP2 SWAP1 POP JUMP JUMPDEST PUSH0 PUSH2 0x97 DUP3 PUSH2 0x6E JUMP JUMPDEST SWAP1 POP SWAP2 SWAP1 POP JUMP JUMPDEST PUSH2 0xA7 DUP2 PUSH2 0x8D JUMP JUMPDEST DUP2 EQ PUSH2 0xB1 JUMPI PUSH0 PUSH0 REVERT JUMPDEST POP JUMP JUMPDEST PUSH0 DUP2 MLOAD SWAP1 POP PUSH2 0xC2 DUP2 PUSH2 0x9E JUMP JUMPDEST SWAP3 SWAP2 POP POP JUMP JUMPDEST PUSH0 PUSH1 0x20 DUP3 DUP5 SUB SLT ISZERO PUSH2 0xDD JUMPI PUSH2 0xDC PUSH2 0x6A JUMP JUMPDEST JUMPDEST PUSH0 PUSH2 0xEA DUP5 DUP3 DUP6 ADD PUSH2 0xB4 JUMP JUMPDEST SWAP2 POP POP SWAP3 SWAP2 POP POP JUMP JUMPDEST PUSH2 0x15A9 DUP1 PUSH2 0x100 PUSH0 CODECOPY PUSH0 RETURN INVALID PUSH1 0x80 PUSH1 0x40 MSTORE PUSH1 0x4 CALLDATASIZE LT PUSH2 0x129 JUMPI PUSH0 CALLDATALOAD PUSH1 0xE0 SHR DUP1 PUSH4 0x8B84610C GT PUSH2 0xAA JUMPI DUP1 PUSH4 0xCD4ECBBE GT PUSH2 0x6E JUMPI DUP1 PUSH4 0xCD4ECBBE EQ PUSH2 0x2B3 JUMPI DUP1 PUSH4 0xDB73D515 EQ PUSH2 0x2D2 JUMPI DUP1 PUSH4 0xDFDE0226 EQ PUSH2 0x2F0 JUMPI DUP1 PUSH4 0xF6A15805 EQ PUSH2 0x30E JUMPI DUP1 PUSH4 0xF96F435B EQ PUSH2 0x32C JUMPI DUP1 PUSH4 0xFFD6F100 EQ PUSH2 0x34B JUMPI PUSH2 0x129 JUMP JUMPDEST DUP1 PUSH4 0x8B84610C EQ PUSH2 0x22D JUMPI DUP1 PUSH4 0x8FCF5D96 EQ PUSH2 0x24C JUMPI DUP1 PUSH4 0xAFC505C2 EQ PUSH2 0x26B JUMPI DUP1 PUSH4 0xB4518ECE EQ PUSH2 0x28A JUMPI DUP1 PUSH4 0xB94CCC1E EQ PUSH2 0x294 JUMPI PUSH2 0x129 JUMP JUMPDEST DUP1 PUSH4 0x75BAFD2A GT PUSH2 0xF1 JUMPI DUP1 PUSH4 0x75BAFD2A EQ PUSH2 0x1BD JUMPI DUP1 PUSH4 0x7843FEF4 EQ PUSH2 0x1C7 JUMPI DUP1 PUSH4 0x793F6E73 EQ PUSH2 0x1E6 JUMPI DUP1 PUSH4 0x7E1B3ABF EQ PUSH2 0x205 JUMPI DUP1 PUSH4 0x8200ADBD EQ PUSH2 0x223 JUMPI PUSH2 0x129 JUMP JUMPDEST DUP1 PUSH4 0xF5F848F EQ PUSH2 0x12D JUMPI DUP1 PUSH4 0x13C9030D EQ PUSH2 0x14C JUMPI DUP1 PUSH4 0x1DABD7CD EQ PUSH2 0x176 JUMPI DUP1 PUSH4 0x2B15F51C EQ PUSH2 0x180 JUMPI DUP1 PUSH4 0x4C986871 EQ PUSH2 0x19F JUMPI JUMPDEST PUSH0 PUSH0 REVERT JUMPDEST PUSH2 0x135 PUSH2 0x36A JUMP JUMPDEST PUSH1 0x40 MLOAD PUSH2 0x143 SWAP3 SWAP2 SWAP1 PUSH2 0x1211 JUMP JUMPDEST PUSH1 0x40 MLOAD DUP1 SWAP2 SUB SWAP1 RETURN JUMPDEST CALLVALUE DUP1 ISZERO PUSH2 0x157 JUMPI PUSH0 PUSH0 REVERT JUMPDEST POP PUSH2 0x160 PUSH2 0x498 JUMP JUMPDEST PUSH1 0x40 MLOAD PUSH2 0x16D SWAP2 SWAP1 PUSH2 0x123F JUMP JUMPDEST PUSH1 0x40 MLOAD DUP1 SWAP2 SUB SWAP1 RETURN JUMPDEST PUSH2 0x17E PUSH2 0x4A0 JUMP JUMPDEST STOP JUMPDEST PUSH2 0x188 PUSH2 0x543 JUMP JUMPDEST PUSH1 0x40 MLOAD PUSH2 0x196 SWAP3 SWAP2 SWAP1 PUSH2 0x1211 JUMP JUMPDEST PUSH1 0x40 MLOAD DUP1 SWAP2 SUB SWAP1 RETURN JUMPDEST PUSH2 0x1A7 PUSH2 0x5DA JUMP JUMPDEST PUSH1 0x40 MLOAD PUSH2 0x1B4 SWAP2 SWAP1 PUSH2 0x123F JUMP JUMPDEST PUSH1 0x40 MLOAD DUP1 SWAP2 SUB SWAP1 RETURN JUMPDEST PUSH2 0x1C5 PUSH2 0x5E2 JUMP JUMPDEST STOP JUMPDEST PUSH2 0x1CF PUSH2 0x682 JUMP JUMPDEST PUSH1 0x40 MLOAD PUSH2 0x1DD SWAP3 SWAP2 SWAP1 PUSH2 0x1211 JUMP JUMPDEST PUSH1 0x40 MLOAD DUP1 SWAP2 SUB SWAP1 RETURN JUMPDEST PUSH2 0x1EE PUSH2 0x7AE JUMP JUMPDEST PUSH1 0x40 MLOAD PUSH2 0x1FC SWAP3 SWAP2 SWAP1 PUSH2 0x1211 JUMP JUMPDEST PUSH1 0x40 MLOAD DUP1 SWAP2 SUB SWAP1 RETURN JUMPDEST PUSH2 0x20D PUSH2 0x8DA JUMP JUMPDEST PUSH1 0x40 MLOAD PUSH2 0x21A SWAP2 SWAP1 PUSH2 0x1270 JUMP JUMPDEST PUSH1 0x40 MLOAD DUP1 SWAP2 SUB SWAP1 RETURN JUMPDEST PUSH2 0x22B PUSH2 0x8E1 JUMP JUMPDEST STOP JUMPDEST PUSH2 0x235 PUSH2 0x8E3 JUMP JUMPDEST PUSH1 0x40 MLOAD PUSH2 0x243 SWAP3 SWAP2 SWAP1 PUSH2 0x1211 JUMP JUMPDEST PUSH1 0x40 MLOAD DUP1 SWAP2 SUB SWAP1 RETURN JUMPDEST PUSH2 0x254 PUSH2 0xA11 JUMP JUMPDEST PUSH1 0x40 MLOAD PUSH2 0x262 SWAP3 SWAP2 SWAP1 PUSH2 0x1211 JUMP JUMPDEST PUSH1 0x40 MLOAD DUP1 SWAP2 SUB SWAP1 RETURN JUMPDEST PUSH2 0x273 PUSH2 0xAAA JUMP JUMPDEST PUSH1 0x40 MLOAD PUSH2 0x281 SWAP3 SWAP2 SWAP1 PUSH2 0x1211 JUMP JUMPDEST PUSH1 0x40 MLOAD DUP1 SWAP2 SUB SWAP1 RETURN JUMPDEST PUSH2 0x292 PUSH2 0xBD6 JUMP JUMPDEST STOP JUMPDEST PUSH2 0x29C PUSH2 0xC77 JUMP JUMPDEST PUSH1 0x40 MLOAD PUSH2 0x2AA SWAP3 SWAP2 SWAP1 PUSH2 0x1211 JUMP JUMPDEST PUSH1 0x40 MLOAD DUP1 SWAP2 SUB SWAP1 RETURN JUMPDEST PUSH2 0x2BB PUSH2 0xDA3 JUMP JUMPDEST PUSH1 0x40 MLOAD PUSH2 0x2C9 SWAP3 SWAP2 SWAP1 PUSH2 0x1211 JUMP JUMPDEST PUSH1 0x40 MLOAD DUP1 SWAP2 SUB SWAP1 RETURN JUMPDEST PUSH2 0x2DA PUSH2 0xE44 JUMP JUMPDEST PUSH1 0x40 MLOAD PUSH2 0x2E7 SWAP2 SWAP1 PUSH2 0x123F JUMP JUMPDEST PUSH1 0x40 MLOAD DUP1 SWAP2 SUB SWAP1 RETURN JUMPDEST PUSH2 0x2F8 PUSH2 0xEB8 JUMP JUMPDEST PUSH1 0x40 MLOAD PUSH2 0x305 SWAP2 SWAP1 PUSH2 0x123F JUMP JUMPDEST PUSH1 0x40 MLOAD DUP1 SWAP2 SUB SWAP1 RETURN JUMPDEST PUSH2 0x316 PUSH2 0xF24 JUMP JUMPDEST PUSH1 0x40 MLOAD PUSH2 0x323 SWAP2 SWAP1 PUSH2 0x1270 JUMP JUMPDEST PUSH1 0x40 MLOAD DUP1 SWAP2 SUB SWAP1 RETURN JUMPDEST PUSH2 0x334 PUSH2 0xF2B JUMP JUMPDEST PUSH1 0x40 MLOAD PUSH2 0x342 SWAP3 SWAP2 SWAP1 PUSH2 0x1211 JUMP JUMPDEST PUSH1 0x40 MLOAD DUP1 SWAP2 SUB SWAP1 RETURN JUMPDEST PUSH2 0x353 PUSH2 0x1059 JUMP JUMPDEST PUSH1 0x40 MLOAD PUSH2 0x361 SWAP3 SWAP2 SWAP1 PUSH2 0x1211 JUMP JUMPDEST PUSH1 0x40 MLOAD DUP1 SWAP2 SUB SWAP1 RETURN JUMPDEST PUSH0 PUSH1 0x60 PUSH0 PUSH1 0xD5 PUSH1 0x40 MLOAD PUSH1 0x24 ADD PUSH2 0x380 SWAP2 SWAP1 PUSH2 0x12D7 JUMP JUMPDEST PUSH1 0x40 MLOAD PUSH1 0x20 DUP2 DUP4 SUB SUB DUP2 MSTORE SWAP1 PUSH1 0x40 MSTORE PUSH32 0x29E99F0700000000000000000000000000000000000000000000000000000000 PUSH28 0xFFFFFFFFFFFFFFFFFFFFFFFFFFFFFFFFFFFFFFFFFFFFFFFFFFFFFFFF NOT AND PUSH1 0x20 DUP3 ADD DUP1 MLOAD PUSH28 0xFFFFFFFFFFFFFFFFFFFFFFFFFFFFFFFFFFFFFFFFFFFFFFFFFFFFFFFF DUP4 DUP2 DUP4 AND OR DUP4 MSTORE POP POP POP POP SWAP1 POP PUSH0 PUSH0 PUSH0 PUSH0 SWAP1 SLOAD SWAP1 PUSH2 0x100 EXP SWAP1 DIV PUSH20 0xFFFFFFFFFFFFFFFFFFFFFFFFFFFFFFFFFFFFFFFF AND PUSH20 0xFFFFFFFFFFFFFFFFFFFFFFFFFFFFFFFFFFFFFFFF AND CALLVALUE DUP5 PUSH1 0x40 MLOAD PUSH2 0x447 SWAP2 SWAP1 PUSH2 0x132A JUMP JUMPDEST PUSH0 PUSH1 0x40 MLOAD DUP1 DUP4 SUB DUP2 DUP6 DUP8 GAS CALL SWAP3 POP POP POP RETURNDATASIZE DUP1 PUSH0 DUP2 EQ PUSH2 0x481 JUMPI PUSH1 0x40 MLOAD SWAP2 POP PUSH1 0x1F NOT PUSH1 0x3F RETURNDATASIZE ADD AND DUP3 ADD PUSH1 0x40 MSTORE RETURNDATASIZE DUP3 MSTORE RETURNDATASIZE PUSH0 PUSH1 0x20 DUP5 ADD RETURNDATACOPY PUSH2 0x486 JUMP JUMPDEST PUSH1 0x60 SWAP2 POP JUMPDEST POP SWAP2 POP SWAP2 POP DUP2 DUP2 SWAP5 POP SWAP5 POP POP POP POP SWAP1 SWAP2 JUMP JUMPDEST PUSH0 PUSH1 0x1 SWAP1 POP SWAP1 JUMP JUMPDEST PUSH0 PUSH0 SWAP1 SLOAD SWAP1 PUSH2 0x100 EXP SWAP1 DIV PUSH20 0xFFFFFFFFFFFFFFFFFFFFFFFFFFFFFFFFFFFFFFFF AND PUSH20 0xFFFFFFFFFFFFFFFFFFFFFFFFFFFFFFFFFFFFFFFF AND PUSH4 0xCAF44683 CALLVALUE PUSH1 0xD5 PUSH1 0x40 MLOAD DUP4 PUSH4 0xFFFFFFFF AND PUSH1 0xE0 SHL DUP2 MSTORE PUSH1 0x4 ADD PUSH2 0x4FB SWAP2 SWAP1 PUSH2 0x1370 JUMP JUMPDEST PUSH0 PUSH1 0x40 MLOAD DUP1 DUP4 SUB DUP2 DUP6 DUP9 GAS CALL ISZERO DUP1 ISZERO PUSH2 0x516 JUMPI RETURNDATASIZE PUSH0 PUSH0 RETURNDATACOPY RETURNDATASIZE PUSH0 REVERT JUMPDEST POP POP POP POP POP PUSH1 0x40 MLOAD RETURNDATASIZE PUSH0 DUP3 RETURNDATACOPY RETURNDATASIZE PUSH1 0x1F NOT PUSH1 0x1F DUP3 ADD AND DUP3 ADD DUP1 PUSH1 0x40 MSTORE POP DUP2 ADD SWAP1 PUSH2 0x53F SWAP2 SWAP1 PUSH2 0x14E2 JUMP JUMPDEST POP POP JUMP JUMPDEST PUSH0 PUSH1 0x60 PUSH0 PUSH0 PUSH0 PUSH0 SWAP1 SLOAD SWAP1 PUSH2 0x100 EXP SWAP1 DIV PUSH20 0xFFFFFFFFFFFFFFFFFFFFFFFFFFFFFFFFFFFFFFFF AND PUSH20 0xFFFFFFFFFFFFFFFFFFFFFFFFFFFFFFFFFFFFFFFF AND PUSH1 0x40 MLOAD PUSH2 0x58B SWAP1 PUSH2 0x155F JUMP JUMPDEST PUSH0 PUSH1 0x40 MLOAD DUP1 DUP4 SUB DUP2 PUSH0 DUP7 GAS CALL SWAP2 POP POP RETURNDATASIZE DUP1 PUSH0 DUP2 EQ PUSH2 0x5C4 JUMPI PUSH1 0x40 MLOAD SWAP2 POP PUSH1 0x1F NOT PUSH1 0x3F RETURNDATASIZE ADD AND DUP3 ADD PUSH1 0x40 MSTORE RETURNDATASIZE DUP3 MSTORE RETURNDATASIZE PUSH0 PUSH1 0x20 DUP5 ADD RETURNDATACOPY PUSH2 0x5C9 JUMP JUMPDEST PUSH1 0x60 SWAP2 POP JUMPDEST POP SWAP2 POP SWAP2 POP DUP2 DUP2 SWAP4 POP SWAP4 POP POP POP SWAP1 SWAP2 JUMP JUMPDEST PUSH0 PUSH1 0x1 SWAP1 POP SWAP1 JUMP JUMPDEST PUSH0 PUSH0 SWAP1 SLOAD SWAP1 PUSH2 0x100 EXP SWAP1 DIV PUSH20 0xFFFFFFFFFFFFFFFFFFFFFFFFFFFFFFFFFFFFFFFF AND PUSH20 0xFFFFFFFFFFFFFFFFFFFFFFFFFFFFFFFFFFFFFFFF AND PUSH4 0x19AE8994 PUSH1 0xD5 PUSH1 0x40 MLOAD DUP3 PUSH4 0xFFFFFFFF AND PUSH1 0xE0 SHL DUP2 MSTORE PUSH1 0x4 ADD PUSH2 0x63C SWAP2 SWAP1 PUSH2 0x1370 JUMP JUMPDEST PUSH0 PUSH1 0x40 MLOAD DUP1 DUP4 SUB DUP2 DUP7 GAS STATICCALL ISZERO DUP1 ISZERO PUSH2 0x656 JUMPI RETURNDATASIZE PUSH0 PUSH0 RETURNDATACOPY RETURNDATASIZE PUSH0 REVERT JUMPDEST POP POP POP POP PUSH1 0x40 MLOAD RETURNDATASIZE PUSH0 DUP3 RETURNDATACOPY RETURNDATASIZE PUSH1 0x1F NOT PUSH1 0x1F DUP3 ADD AND DUP3 ADD DUP1 PUSH1 0x40 MSTORE POP DUP2 ADD SWAP1 PUSH2 0x67E SWAP2 SWAP1 PUSH2 0x14E2 JUMP JUMPDEST POP POP JUMP JUMPDEST PUSH0 PUSH1 0x60 PUSH0 PUSH1 0xD5 PUSH1 0x40 MLOAD PUSH1 0x24 ADD PUSH2 0x698 SWAP2 SWAP1 PUSH2 0x12D7 JUMP JUMPDEST PUSH1 0x40 MLOAD PUSH1 0x20 DUP2 DUP4 SUB SUB DUP2 MSTORE SWAP1 PUSH1 0x40 MSTORE PUSH32 0xCAF4468300000000000000000000000000000000000000000000000000000000 PUSH28 0xFFFFFFFFFFFFFFFFFFFFFFFFFFFFFFFFFFFFFFFFFFFFFFFFFFFFFFFF NOT AND PUSH1 0x20 DUP3 ADD DUP1 MLOAD PUSH28 0xFFFFFFFFFFFFFFFFFFFFFFFFFFFFFFFFFFFFFFFFFFFFFFFFFFFFFFFF DUP4 DUP2 DUP4 AND OR DUP4 MSTORE POP POP POP POP SWAP1 POP PUSH0 PUSH0 PUSH0 PUSH0 SWAP1 SLOAD SWAP1 PUSH2 0x100 EXP SWAP1 DIV PUSH20 0xFFFFFFFFFFFFFFFFFFFFFFFFFFFFFFFFFFFFFFFF AND PUSH20 0xFFFFFFFFFFFFFFFFFFFFFFFFFFFFFFFFFFFFFFFF AND DUP4 PUSH1 0x40 MLOAD PUSH2 0x75E SWAP2 SWAP1 PUSH2 0x132A JUMP JUMPDEST PUSH0 PUSH1 0x40 MLOAD DUP1 DUP4 SUB DUP2 PUSH0 DUP7 GAS CALL SWAP2 POP POP RETURNDATASIZE DUP1 PUSH0 DUP2 EQ PUSH2 0x797 JUMPI PUSH1 0x40 MLOAD SWAP2 POP PUSH1 0x1F NOT PUSH1 0x3F RETURNDATASIZE ADD AND DUP3 ADD PUSH1 0x40 MSTORE RETURNDATASIZE DUP3 MSTORE RETURNDATASIZE PUSH0 PUSH1 0x20 DUP5 ADD RETURNDATACOPY PUSH2 0x79C JUMP JUMPDEST PUSH1 0x60 SWAP2 POP JUMPDEST POP SWAP2 POP SWAP2 POP DUP2 DUP2 SWAP5 POP SWAP5 POP POP POP POP SWAP1 SWAP2 JUMP JUMPDEST PUSH0 PUSH1 0x60 PUSH0 PUSH1 0xD5 PUSH1 0x40 MLOAD PUSH1 0x24 ADD PUSH2 0x7C4 SWAP2 SWAP1 PUSH2 0x12D7 JUMP JUMPDEST PUSH1 0x40 MLOAD PUSH1 0x20 DUP2 DUP4 SUB SUB DUP2 MSTORE SWAP1 PUSH1 0x40 MSTORE PUSH32 0x29E99F0700000000000000000000000000000000000000000000000000000000 PUSH28 0xFFFFFFFFFFFFFFFFFFFFFFFFFFFFFFFFFFFFFFFFFFFFFFFFFFFFFFFF NOT AND PUSH1 0x20 DUP3 ADD DUP1 MLOAD PUSH28 0xFFFFFFFFFFFFFFFFFFFFFFFFFFFFFFFFFFFFFFFFFFFFFFFFFFFFFFFF DUP4 DUP2 DUP4 AND OR DUP4 MSTORE POP POP POP POP SWAP1 POP PUSH0 PUSH0 PUSH0 PUSH0 SWAP1 SLOAD SWAP1 PUSH2 0x100 EXP SWAP1 DIV PUSH20 0xFFFFFFFFFFFFFFFFFFFFFFFFFFFFFFFFFFFFFFFF AND PUSH20 0xFFFFFFFFFFFFFFFFFFFFFFFFFFFFFFFFFFFFFFFF AND DUP4 PUSH1 0x40 MLOAD PUSH2 0x88A SWAP2 SWAP1 PUSH2 0x132A JUMP JUMPDEST PUSH0 PUSH1 0x40 MLOAD DUP1 DUP4 SUB DUP2 PUSH0 DUP7 GAS CALL SWAP2 POP POP RETURNDATASIZE DUP1 PUSH0 DUP2 EQ PUSH2 0x8C3 JUMPI PUSH1 0x40 MLOAD SWAP2 POP PUSH1 0x1F NOT PUSH1 0x3F RETURNDATASIZE ADD AND DUP3 ADD PUSH1 0x40 MSTORE RETURNDATASIZE DUP3 MSTORE RETURNDATASIZE PUSH0 PUSH1 0x20 DUP5 ADD RETURNDATACOPY PUSH2 0x8C8 JUMP JUMPDEST PUSH1 0x60 SWAP2 POP JUMPDEST POP SWAP2 POP SWAP2 POP DUP2 DUP2 SWAP5 POP SWAP5 POP POP POP POP SWAP1 SWAP2 JUMP JUMPDEST PUSH0 SELFBALANCE SWAP1 POP SWAP1 JUMP JUMPDEST JUMP JUMPDEST PUSH0 PUSH1 0x60 PUSH0 PUSH1 0xD5 PUSH1 0x40 MLOAD PUSH1 0x24 ADD PUSH2 0x8F9 SWAP2 SWAP1 PUSH2 0x12D7 JUMP JUMPDEST PUSH1 0x40 MLOAD PUSH1 0x20 DUP2 DUP4 SUB SUB DUP2 MSTORE SWAP1 PUSH1 0x40 MSTORE PUSH32 0x19AE899400000000000000000000000000000000000000000000000000000000 PUSH28 0xFFFFFFFFFFFFFFFFFFFFFFFFFFFFFFFFFFFFFFFFFFFFFFFFFFFFFFFF NOT AND PUSH1 0x20 DUP3 ADD DUP1 MLOAD PUSH28 0xFFFFFFFFFFFFFFFFFFFFFFFFFFFFFFFFFFFFFFFFFFFFFFFFFFFFFFFF DUP4 DUP2 DUP4 AND OR DUP4 MSTORE POP POP POP POP SWAP1 POP PUSH0 PUSH0 PUSH0 PUSH0 SWAP1 SLOAD SWAP1 PUSH2 0x100 EXP SWAP1 DIV PUSH20 0xFFFFFFFFFFFFFFFFFFFFFFFFFFFFFFFFFFFFFFFF AND PUSH20 0xFFFFFFFFFFFFFFFFFFFFFFFFFFFFFFFFFFFFFFFF AND CALLVALUE DUP5 PUSH1 0x40 MLOAD PUSH2 0x9C0 SWAP2 SWAP1 PUSH2 0x132A JUMP JUMPDEST PUSH0 PUSH1 0x40 MLOAD DUP1 DUP4 SUB DUP2 DUP6 DUP8 GAS CALL SWAP3 POP POP POP RETURNDATASIZE DUP1 PUSH0 DUP2 EQ PUSH2 0x9FA JUMPI PUSH1 0x40 MLOAD SWAP2 POP PUSH1 0x1F NOT PUSH1 0x3F RETURNDATASIZE ADD AND DUP3 ADD PUSH1 0x40 MSTORE RETURNDATASIZE DUP3 MSTORE RETURNDATASIZE PUSH0 PUSH1 0x20 DUP5 ADD RETURNDATACOPY PUSH2 0x9FF JUMP JUMPDEST PUSH1 0x60 SWAP2 POP JUMPDEST POP SWAP2 POP SWAP2 POP DUP2 DUP2 SWAP5 POP SWAP5 POP POP POP POP SWAP1 SWAP2 JUMP JUMPDEST PUSH0 PUSH1 0x60 PUSH0 PUSH0 PUSH0 PUSH0 SWAP1 SLOAD SWAP1 PUSH2 0x100 EXP SWAP1 DIV PUSH20 0xFFFFFFFFFFFFFFFFFFFFFFFFFFFFFFFFFFFFFFFF AND PUSH20 0xFFFFFFFFFFFFFFFFFFFFFFFFFFFFFFFFFFFFFFFF AND PUSH0 PUSH1 0x40 MLOAD PUSH2 0xA5A SWAP1 PUSH2 0x155F JUMP JUMPDEST PUSH0 PUSH1 0x40 MLOAD DUP1 DUP4 SUB DUP2 DUP6 DUP8 GAS CALL SWAP3 POP POP POP RETURNDATASIZE DUP1 PUSH0 DUP2 EQ PUSH2 0xA94 JUMPI PUSH1 0x40 MLOAD SWAP2 POP PUSH1 0x1F NOT PUSH1 0x3F RETURNDATASIZE ADD AND DUP3 ADD PUSH1 0x40 MSTORE RETURNDATASIZE DUP3 MSTORE RETURNDATASIZE PUSH0 PUSH1 0x20 DUP5 ADD RETURNDATACOPY PUSH2 0xA99 JUMP JUMPDEST PUSH1 0x60 SWAP2 POP JUMPDEST POP SWAP2 POP SWAP2 POP DUP2 DUP2 SWAP4 POP SWAP4 POP POP POP SWAP1 SWAP2 JUMP JUMPDEST PUSH0 PUSH1 0x60 PUSH0 PUSH1 0xD5 PUSH1 0x40 MLOAD PUSH1 0x24 ADD PUSH2 0xAC0 SWAP2 SWAP1 PUSH2 0x12D7 JUMP JUMPDEST PUSH1 0x40 MLOAD PUSH1 0x20 DUP2 DUP4 SUB SUB DUP2 MSTORE SWAP1 PUSH1 0x40 MSTORE PUSH32 0x29E99F0700000000000000000000000000000000000000000000000000000000 PUSH28 0xFFFFFFFFFFFFFFFFFFFFFFFFFFFFFFFFFFFFFFFFFFFFFFFFFFFFFFFF NOT AND PUSH1 0x20 DUP3 ADD DUP1 MLOAD PUSH28 0xFFFFFFFFFFFFFFFFFFFFFFFFFFFFFFFFFFFFFFFFFFFFFFFFFFFFFFFF DUP4 DUP2 DUP4 AND OR DUP4 MSTORE POP POP POP POP SWAP1 POP PUSH0 PUSH0 PUSH0 PUSH0 SWAP1 SLOAD SWAP1 PUSH2 0x100 EXP SWAP1 DIV PUSH20 0xFFFFFFFFFFFFFFFFFFFFFFFFFFFFFFFFFFFFFFFF AND PUSH20 0xFFFFFFFFFFFFFFFFFFFFFFFFFFFFFFFFFFFFFFFF AND DUP4 PUSH1 0x40 MLOAD PUSH2 0xB86 SWAP2 SWAP1 PUSH2 0x132A JUMP JUMPDEST PUSH0 PUSH1 0x40 MLOAD DUP1 DUP4 SUB DUP2 PUSH0 DUP7 GAS CALL SWAP2 POP POP RETURNDATASIZE DUP1 PUSH0 DUP2 EQ PUSH2 0xBBF JUMPI PUSH1 0x40 MLOAD SWAP2 POP PUSH1 0x1F NOT PUSH1 0x3F RETURNDATASIZE ADD AND DUP3 ADD PUSH1 0x40 MSTORE RETURNDATASIZE DUP3 MSTORE RETURNDATASIZE PUSH0 PUSH1 0x20 DUP5 ADD RETURNDATACOPY PUSH2 0xBC4 JUMP JUMPDEST PUSH1 0x60 SWAP2 POP JUMPDEST POP SWAP2 POP SWAP2 POP DUP2 DUP2 SWAP5 POP SWAP5 POP POP POP POP SWAP1 SWAP2 JUMP JUMPDEST PUSH0 PUSH0 SWAP1 SLOAD SWAP1 PUSH2 0x100 EXP SWAP1 DIV PUSH20 0xFFFFFFFFFFFFFFFFFFFFFFFFFFFFFFFFFFFFFFFF AND PUSH20 0xFFFFFFFFFFFFFFFFFFFFFFFFFFFFFFFFFFFFFFFF AND PUSH4 0xCAF44683 PUSH1 0xD5 PUSH1 0x40 MLOAD DUP3 PUSH4 0xFFFFFFFF AND PUSH1 0xE0 SHL DUP2 MSTORE PUSH1 0x4 ADD PUSH2 0xC30 SWAP2 SWAP1 PUSH2 0x1370 JUMP JUMPDEST PUSH0 PUSH1 0x40 MLOAD DUP1 DUP4 SUB DUP2 PUSH0 DUP8 GAS CALL ISZERO DUP1 ISZERO PUSH2 0xC4B JUMPI RETURNDATASIZE PUSH0 PUSH0 RETURNDATACOPY RETURNDATASIZE PUSH0 REVERT JUMPDEST POP POP POP POP PUSH1 0x40 MLOAD RETURNDATASIZE PUSH0 DUP3 RETURNDATACOPY RETURNDATASIZE PUSH1 0x1F NOT PUSH1 0x1F DUP3 ADD AND DUP3 ADD DUP1 PUSH1 0x40 MSTORE POP DUP2 ADD SWAP1 PUSH2 0xC73 SWAP2 SWAP1 PUSH2 0x14E2 JUMP JUMPDEST POP POP JUMP JUMPDEST PUSH0 PUSH1 0x60 PUSH0 PUSH1 0xD5 PUSH1 0x40 MLOAD PUSH1 0x24 ADD PUSH2 0xC8D SWAP2 SWAP1 PUSH2 0x12D7 JUMP JUMPDEST PUSH1 0x40 MLOAD PUSH1 0x20 DUP2 DUP4 SUB SUB DUP2 MSTORE SWAP1 PUSH1 0x40 MSTORE PUSH32 0x19AE899400000000000000000000000000000000000000000000000000000000 PUSH28 0xFFFFFFFFFFFFFFFFFFFFFFFFFFFFFFFFFFFFFFFFFFFFFFFFFFFFFFFF NOT AND PUSH1 0x20 DUP3 ADD DUP1 MLOAD PUSH28 0xFFFFFFFFFFFFFFFFFFFFFFFFFFFFFFFFFFFFFFFFFFFFFFFFFFFFFFFF DUP4 DUP2 DUP4 AND OR DUP4 MSTORE POP POP POP POP SWAP1 POP PUSH0 PUSH0 PUSH0 PUSH0 SWAP1 SLOAD SWAP1 PUSH2 0x100 EXP SWAP1 DIV PUSH20 0xFFFFFFFFFFFFFFFFFFFFFFFFFFFFFFFFFFFFFFFF AND PUSH20 0xFFFFFFFFFFFFFFFFFFFFFFFFFFFFFFFFFFFFFFFF AND DUP4 PUSH1 0x40 MLOAD PUSH2 0xD53 SWAP2 SWAP1 PUSH2 0x132A JUMP JUMPDEST PUSH0 PUSH1 0x40 MLOAD DUP1 DUP4 SUB DUP2 PUSH0 DUP7 GAS CALL SWAP2 POP POP RETURNDATASIZE DUP1 PUSH0 DUP2 EQ PUSH2 0xD8C JUMPI PUSH1 0x40 MLOAD SWAP2 POP PUSH1 0x1F NOT PUSH1 0x3F RETURNDATASIZE ADD AND DUP3 ADD PUSH1 0x40 MSTORE RETURNDATASIZE DUP3 MSTORE RETURNDATASIZE PUSH0 PUSH1 0x20 DUP5 ADD RETURNDATACOPY PUSH2 0xD91 JUMP JUMPDEST PUSH1 0x60 SWAP2 POP JUMPDEST POP SWAP2 POP SWAP2 POP DUP2 DUP2 SWAP5 POP SWAP5 POP POP POP POP SWAP1 SWAP2 JUMP JUMPDEST PUSH0 PUSH1 0x60 PUSH0 PUSH0 PUSH0 PUSH0 SWAP1 SLOAD SWAP1 PUSH2 0x100 EXP SWAP1 DIV PUSH20 0xFFFFFFFFFFFFFFFFFFFFFFFFFFFFFFFFFFFFFFFF AND PUSH20 0xFFFFFFFFFFFFFFFFFFFFFFFFFFFFFFFFFFFFFFFF AND PUSH8 0x1BC16D674EC80000 PUSH1 0x40 MLOAD PUSH2 0xDF4 SWAP1 PUSH2 0x155F JUMP JUMPDEST PUSH0 PUSH1 0x40 MLOAD DUP1 DUP4 SUB DUP2 DUP6 DUP8 GAS CALL SWAP3 POP POP POP RETURNDATASIZE DUP1 PUSH0 DUP2 EQ PUSH2 0xE2E JUMPI PUSH1 0x40 MLOAD SWAP2 POP PUSH1 0x1F NOT PUSH1 0x3F RETURNDATASIZE ADD AND DUP3 ADD PUSH1 0x40 MSTORE RETURNDATASIZE DUP3 MSTORE RETURNDATASIZE PUSH0 PUSH1 0x20 DUP5 ADD RETURNDATACOPY PUSH2 0xE33 JUMP JUMPDEST PUSH1 0x60 SWAP2 POP JUMPDEST POP SWAP2 POP SWAP2 POP DUP2 DUP2 SWAP4 POP SWAP4 POP POP POP SWAP1 SWAP2 JUMP JUMPDEST PUSH0 PUSH0 PUSH0 SWAP1 SLOAD SWAP1 PUSH2 0x100 EXP SWAP1 DIV PUSH20 0xFFFFFFFFFFFFFFFFFFFFFFFFFFFFFFFFFFFFFFFF AND PUSH20 0xFFFFFFFFFFFFFFFFFFFFFFFFFFFFFFFFFFFFFFFF AND PUSH2 0x8FC PUSH8 0x1BC16D674EC80000 SWAP1 DUP2 ISZERO MUL SWAP1 PUSH1 0x40 MLOAD PUSH0 PUSH1 0x40 MLOAD DUP1 DUP4 SUB DUP2 DUP6 DUP9 DUP9 CALL SWAP4 POP POP POP POP ISZERO DUP1 ISZERO PUSH2 0xEB0 JUMPI RETURNDATASIZE PUSH0 PUSH0 RETURNDATACOPY RETURNDATASIZE PUSH0 REVERT JUMPDEST POP PUSH1 0x1 SWAP1 POP SWAP1 JUMP JUMPDEST PUSH0 PUSH0 PUSH0 SWAP1 SLOAD SWAP1 PUSH2 0x100 EXP SWAP1 DIV PUSH20 0xFFFFFFFFFFFFFFFFFFFFFFFFFFFFFFFFFFFFFFFF AND PUSH20 0xFFFFFFFFFFFFFFFFFFFFFFFFFFFFFFFFFFFFFFFF AND PUSH2 0x8FC PUSH0 SWAP1 DUP2 ISZERO MUL SWAP1 PUSH1 0x40 MLOAD PUSH0 PUSH1 0x40 MLOAD DUP1 DUP4 SUB DUP2 DUP6 DUP9 DUP9 CALL SWAP4 POP POP POP POP ISZERO DUP1 ISZERO PUSH2 0xF1C JUMPI RETURNDATASIZE PUSH0 PUSH0 RETURNDATACOPY RETURNDATASIZE PUSH0 REVERT JUMPDEST POP PUSH1 0x1 SWAP1 POP SWAP1 JUMP JUMPDEST PUSH0 CALLVALUE SWAP1 POP SWAP1 JUMP JUMPDEST PUSH0 PUSH1 0x60 PUSH0 PUSH1 0xD5 PUSH1 0x40 MLOAD PUSH1 0x24 ADD PUSH2 0xF41 SWAP2 SWAP1 PUSH2 0x12D7 JUMP JUMPDEST PUSH1 0x40 MLOAD PUSH1 0x20 DUP2 DUP4 SUB SUB DUP2 MSTORE SWAP1 PUSH1 0x40 MSTORE PUSH32 0xCAF4468300000000000000000000000000000000000000000000000000000000 PUSH28 0xFFFFFFFFFFFFFFFFFFFFFFFFFFFFFFFFFFFFFFFFFFFFFFFFFFFFFFFF NOT AND PUSH1 0x20 DUP3 ADD DUP1 MLOAD PUSH28 0xFFFFFFFFFFFFFFFFFFFFFFFFFFFFFFFFFFFFFFFFFFFFFFFFFFFFFFFF DUP4 DUP2 DUP4 AND OR DUP4 MSTORE POP POP POP POP SWAP1 POP PUSH0 PUSH0 PUSH0 PUSH0 SWAP1 SLOAD SWAP1 PUSH2 0x100 EXP SWAP1 DIV PUSH20 0xFFFFFFFFFFFFFFFFFFFFFFFFFFFFFFFFFFFFFFFF AND PUSH20 0xFFFFFFFFFFFFFFFFFFFFFFFFFFFFFFFFFFFFFFFF AND CALLVALUE DUP5 PUSH1 0x40 MLOAD PUSH2 0x1008 SWAP2 SWAP1 PUSH2 0x132A JUMP JUMPDEST PUSH0 PUSH1 0x40 MLOAD DUP1 DUP4 SUB DUP2 DUP6 DUP8 GAS CALL SWAP3 POP POP POP RETURNDATASIZE DUP1 PUSH0 DUP2 EQ PUSH2 0x1042 JUMPI PUSH1 0x40 MLOAD SWAP2 POP PUSH1 0x1F NOT PUSH1 0x3F RETURNDATASIZE ADD AND DUP3 ADD PUSH1 0x40 MSTORE RETURNDATASIZE DUP3 MSTORE RETURNDATASIZE PUSH0 PUSH1 0x20 DUP5 ADD RETURNDATACOPY PUSH2 0x1047 JUMP JUMPDEST PUSH1 0x60 SWAP2 POP JUMPDEST POP SWAP2 POP SWAP2 POP DUP2 DUP2 SWAP5 POP SWAP5 POP POP POP POP SWAP1 SWAP2 JUMP JUMPDEST PUSH0 PUSH1 0x60 PUSH0 PUSH1 0xD5 PUSH1 0x40 MLOAD PUSH1 0x24 ADD PUSH2 0x106F SWAP2 SWAP1 PUSH2 0x12D7 JUMP JUMPDEST PUSH1 0x40 MLOAD PUSH1 0x20 DUP2 DUP4 SUB SUB DUP2 MSTORE SWAP1 PUSH1 0x40 MSTORE PUSH32 0x29E99F0700000000000000000000000000000000000000000000000000000000 PUSH28 0xFFFFFFFFFFFFFFFFFFFFFFFFFFFFFFFFFFFFFFFFFFFFFFFFFFFFFFFF NOT AND PUSH1 0x20 DUP3 ADD DUP1 MLOAD PUSH28 0xFFFFFFFFFFFFFFFFFFFFFFFFFFFFFFFFFFFFFFFFFFFFFFFFFFFFFFFF DUP4 DUP2 DUP4 AND OR DUP4 MSTORE POP POP POP POP SWAP1 POP PUSH0 PUSH0 PUSH0 PUSH0 SWAP1 SLOAD SWAP1 PUSH2 0x100 EXP SWAP1 DIV PUSH20 0xFFFFFFFFFFFFFFFFFFFFFFFFFFFFFFFFFFFFFFFF AND PUSH20 0xFFFFFFFFFFFFFFFFFFFFFFFFFFFFFFFFFFFFFFFF AND CALLVALUE DUP5 PUSH1 0x40 MLOAD PUSH2 0x1136 SWAP2 SWAP1 PUSH2 0x132A JUMP JUMPDEST PUSH0 PUSH1 0x40 MLOAD DUP1 DUP4 SUB DUP2 DUP6 DUP8 GAS CALL SWAP3 POP POP POP RETURNDATASIZE DUP1 PUSH0 DUP2 EQ PUSH2 0x1170 JUMPI PUSH1 0x40 MLOAD SWAP2 POP PUSH1 0x1F NOT PUSH1 0x3F RETURNDATASIZE ADD AND DUP3 ADD PUSH1 0x40 MSTORE RETURNDATASIZE DUP3 MSTORE RETURNDATASIZE PUSH0 PUSH1 0x20 DUP5 ADD RETURNDATACOPY PUSH2 0x1175 JUMP JUMPDEST PUSH1 0x60 SWAP2 POP JUMPDEST POP SWAP2 POP SWAP2 POP DUP2 DUP2 SWAP5 POP SWAP5 POP POP POP POP SWAP1 SWAP2 JUMP JUMPDEST PUSH0 DUP2 ISZERO ISZERO SWAP1 POP SWAP2 SWAP1 POP JUMP JUMPDEST PUSH2 0x119B DUP2 PUSH2 0x1187 JUMP JUMPDEST DUP3 MSTORE POP POP JUMP JUMPDEST PUSH0 DUP2 MLOAD SWAP1 POP SWAP2 SWAP1 POP JUMP JUMPDEST PUSH0 DUP3 DUP3 MSTORE PUSH1 0x20 DUP3 ADD SWAP1 POP SWAP3 SWAP2 POP POP JUMP JUMPDEST DUP3 DUP2 DUP4 MCOPY PUSH0 DUP4 DUP4 ADD MSTORE POP POP POP JUMP JUMPDEST PUSH0 PUSH1 0x1F NOT PUSH1 0x1F DUP4 ADD AND SWAP1 POP SWAP2 SWAP1 POP JUMP JUMPDEST PUSH0 PUSH2 0x11E3 DUP3 PUSH2 0x11A1 JUMP JUMPDEST PUSH2 0x11ED DUP2 DUP6 PUSH2 0x11AB JUMP JUMPDEST SWAP4 POP PUSH2 0x11FD DUP2 DUP6 PUSH1 0x20 DUP7 ADD PUSH2 0x11BB JUMP JUMPDEST PUSH2 0x1206 DUP2 PUSH2 0x11C9 JUMP JUMPDEST DUP5 ADD SWAP2 POP POP SWAP3 SWAP2 POP POP JUMP JUMPDEST PUSH0 PUSH1 0x40 DUP3 ADD SWAP1 POP PUSH2 0x1224 PUSH0 DUP4 ADD DUP6 PUSH2 0x1192 JUMP JUMPDEST DUP2 DUP2 SUB PUSH1 0x20 DUP4 ADD MSTORE PUSH2 0x1236 DUP2 DUP5 PUSH2 0x11D9 JUMP JUMPDEST SWAP1 POP SWAP4 SWAP3 POP POP POP JUMP JUMPDEST PUSH0 PUSH1 0x20 DUP3 ADD SWAP1 POP PUSH2 0x1252 PUSH0 DUP4 ADD DUP5 PUSH2 0x1192 JUMP JUMPDEST SWAP3 SWAP2 POP POP JUMP JUMPDEST PUSH0 DUP2 SWAP1 POP SWAP2 SWAP1 POP JUMP JUMPDEST PUSH2 0x126A DUP2 PUSH2 0x1258 JUMP JUMPDEST DUP3 MSTORE POP POP JUMP JUMPDEST PUSH0 PUSH1 0x20 DUP3 ADD SWAP1 POP PUSH2 0x1283 PUSH0 DUP4 ADD DUP5 PUSH2 0x1261 JUMP JUMPDEST SWAP3 SWAP2 POP POP JUMP JUMPDEST PUSH0 DUP2 SWAP1 POP SWAP2 SWAP1 POP JUMP JUMPDEST PUSH0 PUSH1 0xFF DUP3 AND SWAP1 POP SWAP2 SWAP1 POP JUMP JUMPDEST PUSH0 DUP2 SWAP1 POP SWAP2 SWAP1 POP JUMP JUMPDEST PUSH0 PUSH2 0x12C1 PUSH2 0x12BC PUSH2 0x12B7 DUP5 PUSH2 0x1289 JUMP JUMPDEST PUSH2 0x129E JUMP JUMPDEST PUSH2 0x1292 JUMP JUMPDEST SWAP1 POP SWAP2 SWAP1 POP JUMP JUMPDEST PUSH2 0x12D1 DUP2 PUSH2 0x12A7 JUMP JUMPDEST DUP3 MSTORE POP POP JUMP JUMPDEST PUSH0 PUSH1 0x20 DUP3 ADD SWAP1 POP PUSH2 0x12EA PUSH0 DUP4 ADD DUP5 PUSH2 0x12C8 JUMP JUMPDEST SWAP3 SWAP2 POP POP JUMP JUMPDEST PUSH0 DUP2 SWAP1 POP SWAP3 SWAP2 POP POP JUMP JUMPDEST PUSH0 PUSH2 0x1304 DUP3 PUSH2 0x11A1 JUMP JUMPDEST PUSH2 0x130E DUP2 DUP6 PUSH2 0x12F0 JUMP JUMPDEST SWAP4 POP PUSH2 0x131E DUP2 DUP6 PUSH1 0x20 DUP7 ADD PUSH2 0x11BB JUMP JUMPDEST DUP1 DUP5 ADD SWAP2 POP POP SWAP3 SWAP2 POP POP JUMP JUMPDEST PUSH0 PUSH2 0x1335 DUP3 DUP5 PUSH2 0x12FA JUMP JUMPDEST SWAP2 POP DUP2 SWAP1 POP SWAP3 SWAP2 POP POP JUMP JUMPDEST PUSH0 PUSH2 0x135A PUSH2 0x1355 PUSH2 0x1350 DUP5 PUSH2 0x1289 JUMP JUMPDEST PUSH2 0x129E JUMP JUMPDEST PUSH2 0x1258 JUMP JUMPDEST SWAP1 POP SWAP2 SWAP1 POP JUMP JUMPDEST PUSH2 0x136A DUP2 PUSH2 0x1340 JUMP JUMPDEST DUP3 MSTORE POP POP JUMP JUMPDEST PUSH0 PUSH1 0x20 DUP3 ADD SWAP1 POP PUSH2 0x1383 PUSH0 DUP4 ADD DUP5 PUSH2 0x1361 JUMP JUMPDEST SWAP3 SWAP2 POP POP JUMP JUMPDEST PUSH0 PUSH1 0x40 MLOAD SWAP1 POP SWAP1 JUMP JUMPDEST PUSH0 PUSH0 REVERT JUMPDEST PUSH0 PUSH0 REVERT JUMPDEST PUSH0 PUSH0 REVERT JUMPDEST PUSH0 PUSH0 REVERT JUMPDEST PUSH32 0x4E487B7100000000000000000000000000000000000000000000000000000000 PUSH0 MSTORE PUSH1 0x41 PUSH1 0x4 MSTORE PUSH1 0x24 PUSH0 REVERT JUMPDEST PUSH2 0x13D8 DUP3 PUSH2 0x11C9 JUMP JUMPDEST DUP2 ADD DUP2 DUP2 LT PUSH8 0xFFFFFFFFFFFFFFFF DUP3 GT OR ISZERO PUSH2 0x13F7 JUMPI PUSH2 0x13F6 PUSH2 0x13A2 JUMP JUMPDEST JUMPDEST DUP1 PUSH1 0x40 MSTORE POP POP POP JUMP JUMPDEST PUSH0 PUSH2 0x1409 PUSH2 0x1389 JUMP JUMPDEST SWAP1 POP PUSH2 0x1415 DUP3 DUP3 PUSH2 0x13CF JUMP JUMPDEST SWAP2 SWAP1 POP JUMP JUMPDEST PUSH0 PUSH8 0xFFFFFFFFFFFFFFFF DUP3 GT ISZERO PUSH2 0x1434 JUMPI PUSH2 0x1433 PUSH2 0x13A2 JUMP JUMPDEST JUMPDEST PUSH2 0x143D DUP3 PUSH2 0x11C9 JUMP JUMPDEST SWAP1 POP PUSH1 0x20 DUP2 ADD SWAP1 POP SWAP2 SWAP1 POP JUMP JUMPDEST PUSH0 PUSH2 0x145C PUSH2 0x1457 DUP5 PUSH2 0x141A JUMP JUMPDEST PUSH2 0x1400 JUMP JUMPDEST SWAP1 POP DUP3 DUP2 MSTORE PUSH1 0x20 DUP2 ADD DUP5 DUP5 DUP5 ADD GT ISZERO PUSH2 0x1478 JUMPI PUSH2 0x1477 PUSH2 0x139E JUMP JUMPDEST JUMPDEST PUSH2 0x1483 DUP5 DUP3 DUP6 PUSH2 0x11BB JUMP JUMPDEST POP SWAP4 SWAP3 POP POP POP JUMP JUMPDEST PUSH0 DUP3 PUSH1 0x1F DUP4 ADD SLT PUSH2 0x149F JUMPI PUSH2 0x149E PUSH2 0x139A JUMP JUMPDEST JUMPDEST DUP2 MLOAD PUSH2 0x14AF DUP5 DUP3 PUSH1 0x20 DUP7 ADD PUSH2 0x144A JUMP JUMPDEST SWAP2 POP POP SWAP3 SWAP2 POP POP JUMP JUMPDEST PUSH2 0x14C1 DUP2 PUSH2 0x1258 JUMP JUMPDEST DUP2 EQ PUSH2 0x14CB JUMPI PUSH0 PUSH0 REVERT JUMPDEST POP JUMP JUMPDEST PUSH0 DUP2 MLOAD SWAP1 POP PUSH2 0x14DC DUP2 PUSH2 0x14B8 JUMP JUMPDEST SWAP3 SWAP2 POP POP JUMP JUMPDEST PUSH0 PUSH0 PUSH1 0x40 DUP4 DUP6 SUB SLT ISZERO PUSH2 0x14F8 JUMPI PUSH2 0x14F7 PUSH2 0x1392 JUMP JUMPDEST JUMPDEST PUSH0 DUP4 ADD MLOAD PUSH8 0xFFFFFFFFFFFFFFFF DUP2 GT ISZERO PUSH2 0x1515 JUMPI PUSH2 0x1514 PUSH2 0x1396 JUMP JUMPDEST JUMPDEST PUSH2 0x1521 DUP6 DUP3 DUP7 ADD PUSH2 0x148B JUMP JUMPDEST SWAP3 POP POP PUSH1 0x20 PUSH2 0x1532 DUP6 DUP3 DUP7 ADD PUSH2 0x14CE JUMP JUMPDEST SWAP2 POP POP SWAP3 POP SWAP3 SWAP1 POP JUMP JUMPDEST POP JUMP JUMPDEST PUSH0 PUSH2 0x154A PUSH0 DUP4 PUSH2 0x12F0 JUMP JUMPDEST SWAP2 POP PUSH2 0x1555 DUP3 PUSH2 0x153C JUMP JUMPDEST PUSH0 DUP3 ADD SWAP1 POP SWAP2 SWAP1 POP JUMP JUMPDEST PUSH0 PUSH2 0x1569 DUP3 PUSH2 0x153F JUMP JUMPDEST SWAP2 POP DUP2 SWAP1 POP SWAP2 SWAP1 POP JUMP INVALID LOG2 PUSH5 0x6970667358 0x22 SLT KECCAK256 EXTCODESIZE SIGNEXTEND 0xAF DUP6 0xDE 0xCE 0xC2 LOG3 RETF JUMP PUSH16 0xAED279C7F2F66D7674806FC16B499733 0x2A LOG1 DUP12 0xA7 0x2B PUSH5 0x736F6C6343 STOP ADDMOD 0x1E STOP CALLER "
				},
				"gasEstimates": {
					"creation": {
						"codeDepositCost": "1109000",
						"executionCost": "infinite",
						"totalCost": "infinite"
					},
					"external": {
						"pay1()": "395",
						"pay2()": "399",
						"payA()": "384",
						"payB()": "426",
						"payC()": "infinite",
						"payD()": "infinite",
						"payE()": "infinite",
						"payF()": "infinite",
						"payG()": "infinite",
						"payH()": "230",
						"payI()": "infinite",
						"payJ()": "infinite",
						"payK()": "infinite",
						"payL()": "infinite",
						"payM()": "infinite",
						"payN()": "infinite",
						"payO()": "infinite",
						"payP()": "infinite",
						"payQ()": "infinite",
						"payR()": "infinite",
						"payS()": "infinite"
					}
				},
				"methodIdentifiers": {
					"pay1()": "f6a15805",
					"pay2()": "7e1b3abf",
					"payA()": "13c9030d",
					"payB()": "4c986871",
					"payC()": "dfde0226",
					"payD()": "db73d515",
					"payE()": "2b15f51c",
					"payF()": "8fcf5d96",
					"payG()": "cd4ecbbe",
					"payH()": "8200adbd",
					"payI()": "75bafd2a",
					"payJ()": "8b84610c",
					"payK()": "b94ccc1e",
					"payL()": "1dabd7cd",
					"payM()": "b4518ece",
					"payN()": "f96f435b",
					"payO()": "7843fef4",
					"payP()": "ffd6f100",
					"payQ()": "793f6e73",
					"payR()": "0f5f848f",
					"payS()": "afc505c2"
				}
			},
			"storageLayout": {
				"storage": [
					{
						"astId": 68,
						"contract": "contracts/ReceiveAndFallback.sol:Caller",
						"label": "test",
						"offset": 0,
						"slot": "0",
						"type": "t_contract(Test)65"
					}
				],
				"types": {
					"t_contract(Test)65": {
						"encoding": "inplace",
						"label": "contract Test",
						"numberOfBytes": "20"
					}
				}
			},
			"userdoc": {
				"kind": "user",
				"methods": {},
				"version": 1
			}
		}
	}
}