{
	"contracts/task1/RomanToInt1.sol": {
		"RomanToInt": {
			"abi": [
				{
					"inputs": [],
					"stateMutability": "nonpayable",
					"type": "constructor"
				},
				{
					"inputs": [
						{
							"internalType": "string",
							"name": "s",
							"type": "string"
						}
					],
					"name": "change",
					"outputs": [
						{
							"internalType": "uint256",
							"name": "",
							"type": "uint256"
						}
					],
					"stateMutability": "view",
					"type": "function"
				},
				{
					"inputs": [
						{
							"internalType": "uint256",
							"name": "num",
							"type": "uint256"
						}
					],
					"name": "change2",
					"outputs": [
						{
							"internalType": "bytes",
							"name": "",
							"type": "bytes"
						}
					],
					"stateMutability": "pure",
					"type": "function"
				},
				{
					"inputs": [
						{
							"internalType": "string",
							"name": "s",
							"type": "string"
						}
					],
					"name": "change3",
					"outputs": [
						{
							"internalType": "bytes1",
							"name": "",
							"type": "bytes1"
						}
					],
					"stateMutability": "view",
					"type": "function"
				}
			],
			"devdoc": {
				"kind": "dev",
				"methods": {},
				"version": 1
			},
			"evm": {
				"assembly": "    /* \"contracts/task1/RomanToInt1.sol\":153:4422  contract RomanToInt {... */\n  mstore(0x40, 0x80)\n    /* \"contracts/task1/RomanToInt1.sol\":584:1516  constructor() {... */\n  callvalue\n  dup1\n  iszero\n  tag_1\n  jumpi\n  revert(0x00, 0x00)\ntag_1:\n  pop\n    /* \"contracts/task1/RomanToInt1.sol\":1084:1085  1 */\n  0x01\n    /* \"contracts/task1/RomanToInt1.sol\":1065:1075  bytesToInt */\n  0x00\n    /* \"contracts/task1/RomanToInt1.sol\":1065:1081  bytesToInt[0x49] */\n  0x00\n    /* \"contracts/task1/RomanToInt1.sol\":1076:1080  0x49 */\n  0x49\n    /* \"contracts/task1/RomanToInt1.sol\":1065:1081  bytesToInt[0x49] */\n  0xf8\n  shl\n  not(0xffffffffffffffffffffffffffffffffffffffffffffffffffffffffffffff)\n  and\n  dup2\n  mstore\n  0x20\n  add\n  swap1\n  dup2\n  mstore\n  0x20\n  add\n  0x00\n  keccak256\n    /* \"contracts/task1/RomanToInt1.sol\":1065:1085  bytesToInt[0x49] = 1 */\n  dup2\n  swap1\n  sstore\n  pop\n    /* \"contracts/task1/RomanToInt1.sol\":1115:1116  5 */\n  0x05\n    /* \"contracts/task1/RomanToInt1.sol\":1096:1106  bytesToInt */\n  0x00\n    /* \"contracts/task1/RomanToInt1.sol\":1096:1112  bytesToInt[0x56] */\n  0x00\n    /* \"contracts/task1/RomanToInt1.sol\":1107:1111  0x56 */\n  0x56\n    /* \"contracts/task1/RomanToInt1.sol\":1096:1112  bytesToInt[0x56] */\n  0xf8\n  shl\n  not(0xffffffffffffffffffffffffffffffffffffffffffffffffffffffffffffff)\n  and\n  dup2\n  mstore\n  0x20\n  add\n  swap1\n  dup2\n  mstore\n  0x20\n  add\n  0x00\n  keccak256\n    /* \"contracts/task1/RomanToInt1.sol\":1096:1116  bytesToInt[0x56] = 5 */\n  dup2\n  swap1\n  sstore\n  pop\n    /* \"contracts/task1/RomanToInt1.sol\":1146:1148  10 */\n  0x0a\n    /* \"contracts/task1/RomanToInt1.sol\":1127:1137  bytesToInt */\n  0x00\n    /* \"contracts/task1/RomanToInt1.sol\":1127:1143  bytesToInt[0x58] */\n  0x00\n    /* \"contracts/task1/RomanToInt1.sol\":1138:1142  0x58 */\n  0x58\n    /* \"contracts/task1/RomanToInt1.sol\":1127:1143  bytesToInt[0x58] */\n  0xf8\n  shl\n  not(0xffffffffffffffffffffffffffffffffffffffffffffffffffffffffffffff)\n  and\n  dup2\n  mstore\n  0x20\n  add\n  swap1\n  dup2\n  mstore\n  0x20\n  add\n  0x00\n  keccak256\n    /* \"contracts/task1/RomanToInt1.sol\":1127:1148  bytesToInt[0x58] = 10 */\n  dup2\n  swap1\n  sstore\n  pop\n    /* \"contracts/task1/RomanToInt1.sol\":1178:1180  50 */\n  0x32\n    /* \"contracts/task1/RomanToInt1.sol\":1159:1169  bytesToInt */\n  0x00\n    /* \"contracts/task1/RomanToInt1.sol\":1159:1175  bytesToInt[0x4c] */\n  0x00\n    /* \"contracts/task1/RomanToInt1.sol\":1170:1174  0x4c */\n  0x4c\n    /* \"contracts/task1/RomanToInt1.sol\":1159:1175  bytesToInt[0x4c] */\n  0xf8\n  shl\n  not(0xffffffffffffffffffffffffffffffffffffffffffffffffffffffffffffff)\n  and\n  dup2\n  mstore\n  0x20\n  add\n  swap1\n  dup2\n  mstore\n  0x20\n  add\n  0x00\n  keccak256\n    /* \"contracts/task1/RomanToInt1.sol\":1159:1180  bytesToInt[0x4c] = 50 */\n  dup2\n  swap1\n  sstore\n  pop\n    /* \"contracts/task1/RomanToInt1.sol\":1210:1213  100 */\n  0x64\n    /* \"contracts/task1/RomanToInt1.sol\":1191:1201  bytesToInt */\n  0x00\n    /* \"contracts/task1/RomanToInt1.sol\":1191:1207  bytesToInt[0x43] */\n  0x00\n    /* \"contracts/task1/RomanToInt1.sol\":1202:1206  0x43 */\n  0x43\n    /* \"contracts/task1/RomanToInt1.sol\":1191:1207  bytesToInt[0x43] */\n  0xf8\n  shl\n  not(0xffffffffffffffffffffffffffffffffffffffffffffffffffffffffffffff)\n  and\n  dup2\n  mstore\n  0x20\n  add\n  swap1\n  dup2\n  mstore\n  0x20\n  add\n  0x00\n  keccak256\n    /* \"contracts/task1/RomanToInt1.sol\":1191:1213  bytesToInt[0x43] = 100 */\n  dup2\n  swap1\n  sstore\n  pop\n    /* \"contracts/task1/RomanToInt1.sol\":1243:1246  500 */\n  0x01f4\n    /* \"contracts/task1/RomanToInt1.sol\":1224:1234  bytesToInt */\n  0x00\n    /* \"contracts/task1/RomanToInt1.sol\":1224:1240  bytesToInt[0x44] */\n  0x00\n    /* \"contracts/task1/RomanToInt1.sol\":1235:1239  0x44 */\n  0x44\n    /* \"contracts/task1/RomanToInt1.sol\":1224:1240  bytesToInt[0x44] */\n  0xf8\n  shl\n  not(0xffffffffffffffffffffffffffffffffffffffffffffffffffffffffffffff)\n  and\n  dup2\n  mstore\n  0x20\n  add\n  swap1\n  dup2\n  mstore\n  0x20\n  add\n  0x00\n  keccak256\n    /* \"contracts/task1/RomanToInt1.sol\":1224:1246  bytesToInt[0x44] = 500 */\n  dup2\n  swap1\n  sstore\n  pop\n    /* \"contracts/task1/RomanToInt1.sol\":1276:1280  1000 */\n  0x03e8\n    /* \"contracts/task1/RomanToInt1.sol\":1257:1267  bytesToInt */\n  0x00\n    /* \"contracts/task1/RomanToInt1.sol\":1257:1273  bytesToInt[0x4d] */\n  0x00\n    /* \"contracts/task1/RomanToInt1.sol\":1268:1272  0x4d */\n  0x4d\n    /* \"contracts/task1/RomanToInt1.sol\":1257:1273  bytesToInt[0x4d] */\n  0xf8\n  shl\n  not(0xffffffffffffffffffffffffffffffffffffffffffffffffffffffffffffff)\n  and\n  dup2\n  mstore\n  0x20\n  add\n  swap1\n  dup2\n  mstore\n  0x20\n  add\n  0x00\n  keccak256\n    /* \"contracts/task1/RomanToInt1.sol\":1257:1280  bytesToInt[0x4d] = 1000 */\n  dup2\n  swap1\n  sstore\n  pop\n    /* \"contracts/task1/RomanToInt1.sol\":153:4422  contract RomanToInt {... */\n  dataSize(sub_0)\n  dup1\n  dataOffset(sub_0)\n  0x00\n  codecopy\n  0x00\n  return\nstop\n\nsub_0: assembly {\n        /* \"contracts/task1/RomanToInt1.sol\":153:4422  contract RomanToInt {... */\n      mstore(0x40, 0x80)\n      callvalue\n      dup1\n      iszero\n      tag_1\n      jumpi\n      revert(0x00, 0x00)\n    tag_1:\n      pop\n      jumpi(tag_2, lt(calldatasize, 0x04))\n      shr(0xe0, calldataload(0x00))\n      dup1\n      0x9519f1f7\n      eq\n      tag_3\n      jumpi\n      dup1\n      0x98f0b612\n      eq\n      tag_4\n      jumpi\n      dup1\n      0xc1dcab14\n      eq\n      tag_5\n      jumpi\n    tag_2:\n      revert(0x00, 0x00)\n        /* \"contracts/task1/RomanToInt1.sol\":3988:4419  function change3(string memory s) public view returns(bytes1){... */\n    tag_3:\n      tag_6\n      0x04\n      dup1\n      calldatasize\n      sub\n      dup2\n      add\n      swap1\n      tag_7\n      swap2\n      swap1\n      tag_8\n      jump\t// in\n    tag_7:\n      tag_9\n      jump\t// in\n    tag_6:\n      mload(0x40)\n      tag_10\n      swap2\n      swap1\n      tag_11\n      jump\t// in\n    tag_10:\n      mload(0x40)\n      dup1\n      swap2\n      sub\n      swap1\n      return\n        /* \"contracts/task1/RomanToInt1.sol\":3813:3982  function change2(uint256 num) public pure returns(bytes memory){... */\n    tag_4:\n      tag_12\n      0x04\n      dup1\n      calldatasize\n      sub\n      dup2\n      add\n      swap1\n      tag_13\n      swap2\n      swap1\n      tag_14\n      jump\t// in\n    tag_13:\n      tag_15\n      jump\t// in\n    tag_12:\n      mload(0x40)\n      tag_16\n      swap2\n      swap1\n      tag_17\n      jump\t// in\n    tag_16:\n      mload(0x40)\n      dup1\n      swap2\n      sub\n      swap1\n      return\n        /* \"contracts/task1/RomanToInt1.sol\":1524:3805  function change(string memory s) public view returns(uint256){... */\n    tag_5:\n      tag_18\n      0x04\n      dup1\n      calldatasize\n      sub\n      dup2\n      add\n      swap1\n      tag_19\n      swap2\n      swap1\n      tag_8\n      jump\t// in\n    tag_19:\n      tag_20\n      jump\t// in\n    tag_18:\n      mload(0x40)\n      tag_21\n      swap2\n      swap1\n      tag_22\n      jump\t// in\n    tag_21:\n      mload(0x40)\n      dup1\n      swap2\n      sub\n      swap1\n      return\n        /* \"contracts/task1/RomanToInt1.sol\":3988:4419  function change3(string memory s) public view returns(bytes1){... */\n    tag_9:\n        /* \"contracts/task1/RomanToInt1.sol\":4042:4048  bytes1 */\n      0x00\n        /* \"contracts/task1/RomanToInt1.sol\":4060:4081  bytes memory romanNum */\n      0x00\n        /* \"contracts/task1/RomanToInt1.sol\":4090:4091  s */\n      dup3\n        /* \"contracts/task1/RomanToInt1.sol\":4060:4092  bytes memory romanNum = bytes(s) */\n      swap1\n      pop\n        /* \"contracts/task1/RomanToInt1.sol\":4148:4156  romanNum */\n      dup1\n        /* \"contracts/task1/RomanToInt1.sol\":4157:4158  0 */\n      0x00\n        /* \"contracts/task1/RomanToInt1.sol\":4148:4159  romanNum[0] */\n      dup2\n      mload\n      dup2\n      lt\n      tag_24\n      jumpi\n      tag_25\n      tag_26\n      jump\t// in\n    tag_25:\n    tag_24:\n      0x20\n      add\n      add\n      mload\n      0xf8\n      shr\n      0xf8\n      shl\n        /* \"contracts/task1/RomanToInt1.sol\":4141:4159  return romanNum[0] */\n      swap2\n      pop\n      pop\n        /* \"contracts/task1/RomanToInt1.sol\":3988:4419  function change3(string memory s) public view returns(bytes1){... */\n      swap2\n      swap1\n      pop\n      jump\t// out\n        /* \"contracts/task1/RomanToInt1.sol\":3813:3982  function change2(uint256 num) public pure returns(bytes memory){... */\n    tag_15:\n        /* \"contracts/task1/RomanToInt1.sol\":3863:3875  bytes memory */\n      0x60\n        /* \"contracts/task1/RomanToInt1.sol\":3887:3902  string memory s */\n      0x00\n        /* \"contracts/task1/RomanToInt1.sol\":3905:3919  num.toString() */\n      tag_28\n        /* \"contracts/task1/RomanToInt1.sol\":3905:3908  num */\n      dup4\n        /* \"contracts/task1/RomanToInt1.sol\":3905:3917  num.toString */\n      tag_29\n        /* \"contracts/task1/RomanToInt1.sol\":3905:3919  num.toString() */\n      jump\t// in\n    tag_28:\n        /* \"contracts/task1/RomanToInt1.sol\":3887:3919  string memory s = num.toString() */\n      swap1\n      pop\n        /* \"contracts/task1/RomanToInt1.sol\":3930:3944  bytes memory b */\n      0x00\n        /* \"contracts/task1/RomanToInt1.sol\":3953:3954  s */\n      dup2\n        /* \"contracts/task1/RomanToInt1.sol\":3930:3955  bytes memory b = bytes(s) */\n      swap1\n      pop\n        /* \"contracts/task1/RomanToInt1.sol\":3973:3974  b */\n      dup1\n        /* \"contracts/task1/RomanToInt1.sol\":3966:3974  return b */\n      swap3\n      pop\n      pop\n      pop\n        /* \"contracts/task1/RomanToInt1.sol\":3813:3982  function change2(uint256 num) public pure returns(bytes memory){... */\n      swap2\n      swap1\n      pop\n      jump\t// out\n        /* \"contracts/task1/RomanToInt1.sol\":1524:3805  function change(string memory s) public view returns(uint256){... */\n    tag_20:\n        /* \"contracts/task1/RomanToInt1.sol\":1577:1584  uint256 */\n      0x00\n        /* \"contracts/task1/RomanToInt1.sol\":1596:1617  bytes memory romanNum */\n      0x00\n        /* \"contracts/task1/RomanToInt1.sol\":1626:1627  s */\n      dup3\n        /* \"contracts/task1/RomanToInt1.sol\":1596:1628  bytes memory romanNum = bytes(s) */\n      swap1\n      pop\n        /* \"contracts/task1/RomanToInt1.sol\":1677:1688  uint256 len */\n      0x00\n        /* \"contracts/task1/RomanToInt1.sol\":1691:1699  romanNum */\n      dup2\n        /* \"contracts/task1/RomanToInt1.sol\":1691:1706  romanNum.length */\n      mload\n        /* \"contracts/task1/RomanToInt1.sol\":1677:1706  uint256 len = romanNum.length */\n      swap1\n      pop\n        /* \"contracts/task1/RomanToInt1.sol\":1730:1731  1 */\n      0x01\n        /* \"contracts/task1/RomanToInt1.sol\":1725:1728  len */\n      dup2\n        /* \"contracts/task1/RomanToInt1.sol\":1725:1731  len>=1 */\n      lt\n      iszero\n        /* \"contracts/task1/RomanToInt1.sol\":1725:1742  len>=1 && len<=15 */\n      dup1\n      iszero\n      tag_31\n      jumpi\n      pop\n        /* \"contracts/task1/RomanToInt1.sol\":1740:1742  15 */\n      0x0f\n        /* \"contracts/task1/RomanToInt1.sol\":1735:1738  len */\n      dup2\n        /* \"contracts/task1/RomanToInt1.sol\":1735:1742  len<=15 */\n      gt\n      iszero\n        /* \"contracts/task1/RomanToInt1.sol\":1725:1742  len>=1 && len<=15 */\n    tag_31:\n        /* \"contracts/task1/RomanToInt1.sol\":1717:1768  require(len>=1 && len<=15, \"invalid string length\") */\n      tag_32\n      jumpi\n      mload(0x40)\n      0x08c379a000000000000000000000000000000000000000000000000000000000\n      dup2\n      mstore\n      0x04\n      add\n      tag_33\n      swap1\n      tag_34\n      jump\t// in\n    tag_33:\n      mload(0x40)\n      dup1\n      swap2\n      sub\n      swap1\n      revert\n    tag_32:\n        /* \"contracts/task1/RomanToInt1.sol\":1810:1819  uint256 i */\n      0x00\n        /* \"contracts/task1/RomanToInt1.sol\":1822:1823  0 */\n      0x00\n        /* \"contracts/task1/RomanToInt1.sol\":1810:1823  uint256 i = 0 */\n      swap1\n      pop\n        /* \"contracts/task1/RomanToInt1.sol\":1805:1975  for (uint256 i = 0; i < len; i++) {... */\n    tag_35:\n        /* \"contracts/task1/RomanToInt1.sol\":1829:1832  len */\n      dup2\n        /* \"contracts/task1/RomanToInt1.sol\":1825:1826  i */\n      dup2\n        /* \"contracts/task1/RomanToInt1.sol\":1825:1832  i < len */\n      lt\n        /* \"contracts/task1/RomanToInt1.sol\":1805:1975  for (uint256 i = 0; i < len; i++) {... */\n      iszero\n      tag_36\n      jumpi\n        /* \"contracts/task1/RomanToInt1.sol\":1889:1890  0 */\n      0x00\n        /* \"contracts/task1/RomanToInt1.sol\":1862:1872  bytesToInt */\n      0x00\n        /* \"contracts/task1/RomanToInt1.sol\":1862:1885  bytesToInt[romanNum[i]] */\n      0x00\n        /* \"contracts/task1/RomanToInt1.sol\":1873:1881  romanNum */\n      dup6\n        /* \"contracts/task1/RomanToInt1.sol\":1882:1883  i */\n      dup5\n        /* \"contracts/task1/RomanToInt1.sol\":1873:1884  romanNum[i] */\n      dup2\n      mload\n      dup2\n      lt\n      tag_38\n      jumpi\n      tag_39\n      tag_26\n      jump\t// in\n    tag_39:\n    tag_38:\n      0x20\n      add\n      add\n      mload\n      0xf8\n      shr\n      0xf8\n      shl\n        /* \"contracts/task1/RomanToInt1.sol\":1862:1885  bytesToInt[romanNum[i]] */\n      not(0xffffffffffffffffffffffffffffffffffffffffffffffffffffffffffffff)\n      and\n      not(0xffffffffffffffffffffffffffffffffffffffffffffffffffffffffffffff)\n      and\n      dup2\n      mstore\n      0x20\n      add\n      swap1\n      dup2\n      mstore\n      0x20\n      add\n      0x00\n      keccak256\n      sload\n        /* \"contracts/task1/RomanToInt1.sol\":1862:1890  bytesToInt[romanNum[i]] != 0 */\n      sub\n        /* \"contracts/task1/RomanToInt1.sol\":1854:1909  require(bytesToInt[romanNum[i]] != 0, \"invalid string\") */\n      tag_40\n      jumpi\n      mload(0x40)\n      0x08c379a000000000000000000000000000000000000000000000000000000000\n      dup2\n      mstore\n      0x04\n      add\n      tag_41\n      swap1\n      tag_42\n      jump\t// in\n    tag_41:\n      mload(0x40)\n      dup1\n      swap2\n      sub\n      swap1\n      revert\n    tag_40:\n        /* \"contracts/task1/RomanToInt1.sol\":1834:1837  i++ */\n      dup1\n      dup1\n      0x01\n      add\n      swap2\n      pop\n      pop\n        /* \"contracts/task1/RomanToInt1.sol\":1805:1975  for (uint256 i = 0; i < len; i++) {... */\n      jump(tag_35)\n    tag_36:\n      pop\n        /* \"contracts/task1/RomanToInt1.sol\":1998:1999  1 */\n      0x01\n        /* \"contracts/task1/RomanToInt1.sol\":1991:1994  len */\n      dup2\n        /* \"contracts/task1/RomanToInt1.sol\":1991:1999  len == 1 */\n      sub\n        /* \"contracts/task1/RomanToInt1.sol\":1987:2108  if (len == 1) {... */\n      tag_43\n      jumpi\n        /* \"contracts/task1/RomanToInt1.sol\":2023:2033  bytesToInt */\n      0x00\n        /* \"contracts/task1/RomanToInt1.sol\":2023:2046  bytesToInt[romanNum[0]] */\n      0x00\n        /* \"contracts/task1/RomanToInt1.sol\":2034:2042  romanNum */\n      dup4\n        /* \"contracts/task1/RomanToInt1.sol\":2043:2044  0 */\n      0x00\n        /* \"contracts/task1/RomanToInt1.sol\":2034:2045  romanNum[0] */\n      dup2\n      mload\n      dup2\n      lt\n      tag_44\n      jumpi\n      tag_45\n      tag_26\n      jump\t// in\n    tag_45:\n    tag_44:\n      0x20\n      add\n      add\n      mload\n      0xf8\n      shr\n      0xf8\n      shl\n        /* \"contracts/task1/RomanToInt1.sol\":2023:2046  bytesToInt[romanNum[0]] */\n      not(0xffffffffffffffffffffffffffffffffffffffffffffffffffffffffffffff)\n      and\n      not(0xffffffffffffffffffffffffffffffffffffffffffffffffffffffffffffff)\n      and\n      dup2\n      mstore\n      0x20\n      add\n      swap1\n      dup2\n      mstore\n      0x20\n      add\n      0x00\n      keccak256\n      sload\n        /* \"contracts/task1/RomanToInt1.sol\":2016:2046  return bytesToInt[romanNum[0]] */\n      swap3\n      pop\n      pop\n      pop\n      jump(tag_30)\n        /* \"contracts/task1/RomanToInt1.sol\":1987:2108  if (len == 1) {... */\n    tag_43:\n        /* \"contracts/task1/RomanToInt1.sol\":2120:2145  uint256[] memory numArray */\n      0x00\n        /* \"contracts/task1/RomanToInt1.sol\":2162:2165  len */\n      dup2\n        /* \"contracts/task1/RomanToInt1.sol\":2148:2166  new uint256[](len) */\n      0xffffffffffffffff\n      dup2\n      gt\n      iszero\n      tag_46\n      jumpi\n      tag_47\n      tag_48\n      jump\t// in\n    tag_47:\n    tag_46:\n      mload(0x40)\n      swap1\n      dup1\n      dup3\n      mstore\n      dup1\n      0x20\n      mul\n      0x20\n      add\n      dup3\n      add\n      0x40\n      mstore\n      dup1\n      iszero\n      tag_49\n      jumpi\n      dup2\n      0x20\n      add\n      0x20\n      dup3\n      mul\n      dup1\n      calldatasize\n      dup4\n      calldatacopy\n      dup1\n      dup3\n      add\n      swap2\n      pop\n      pop\n      swap1\n      pop\n    tag_49:\n      pop\n        /* \"contracts/task1/RomanToInt1.sol\":2120:2166  uint256[] memory numArray = new uint256[](len) */\n      swap1\n      pop\n        /* \"contracts/task1/RomanToInt1.sol\":2210:2219  uint256 i */\n      0x00\n        /* \"contracts/task1/RomanToInt1.sol\":2222:2223  0 */\n      0x00\n        /* \"contracts/task1/RomanToInt1.sol\":2210:2223  uint256 i = 0 */\n      swap1\n      pop\n        /* \"contracts/task1/RomanToInt1.sol\":2205:2303  for (uint256 i = 0; i < len; i++) {... */\n    tag_50:\n        /* \"contracts/task1/RomanToInt1.sol\":2229:2232  len */\n      dup3\n        /* \"contracts/task1/RomanToInt1.sol\":2225:2226  i */\n      dup2\n        /* \"contracts/task1/RomanToInt1.sol\":2225:2232  i < len */\n      lt\n        /* \"contracts/task1/RomanToInt1.sol\":2205:2303  for (uint256 i = 0; i < len; i++) {... */\n      iszero\n      tag_51\n      jumpi\n        /* \"contracts/task1/RomanToInt1.sol\":2268:2278  bytesToInt */\n      0x00\n        /* \"contracts/task1/RomanToInt1.sol\":2268:2291  bytesToInt[romanNum[i]] */\n      0x00\n        /* \"contracts/task1/RomanToInt1.sol\":2279:2287  romanNum */\n      dup6\n        /* \"contracts/task1/RomanToInt1.sol\":2288:2289  i */\n      dup4\n        /* \"contracts/task1/RomanToInt1.sol\":2279:2290  romanNum[i] */\n      dup2\n      mload\n      dup2\n      lt\n      tag_53\n      jumpi\n      tag_54\n      tag_26\n      jump\t// in\n    tag_54:\n    tag_53:\n      0x20\n      add\n      add\n      mload\n      0xf8\n      shr\n      0xf8\n      shl\n        /* \"contracts/task1/RomanToInt1.sol\":2268:2291  bytesToInt[romanNum[i]] */\n      not(0xffffffffffffffffffffffffffffffffffffffffffffffffffffffffffffff)\n      and\n      not(0xffffffffffffffffffffffffffffffffffffffffffffffffffffffffffffff)\n      and\n      dup2\n      mstore\n      0x20\n      add\n      swap1\n      dup2\n      mstore\n      0x20\n      add\n      0x00\n      keccak256\n      sload\n        /* \"contracts/task1/RomanToInt1.sol\":2254:2262  numArray */\n      dup3\n        /* \"contracts/task1/RomanToInt1.sol\":2263:2264  i */\n      dup3\n        /* \"contracts/task1/RomanToInt1.sol\":2254:2265  numArray[i] */\n      dup2\n      mload\n      dup2\n      lt\n      tag_55\n      jumpi\n      tag_56\n      tag_26\n      jump\t// in\n    tag_56:\n    tag_55:\n      0x20\n      mul\n      0x20\n      add\n      add\n        /* \"contracts/task1/RomanToInt1.sol\":2254:2291  numArray[i] = bytesToInt[romanNum[i]] */\n      dup2\n      dup2\n      mstore\n      pop\n      pop\n        /* \"contracts/task1/RomanToInt1.sol\":2234:2237  i++ */\n      dup1\n      dup1\n      0x01\n      add\n      swap2\n      pop\n      pop\n        /* \"contracts/task1/RomanToInt1.sol\":2205:2303  for (uint256 i = 0; i < len; i++) {... */\n      jump(tag_50)\n    tag_51:\n      pop\n        /* \"contracts/task1/RomanToInt1.sol\":2602:2611  uint256 i */\n      0x00\n        /* \"contracts/task1/RomanToInt1.sol\":2614:2615  0 */\n      0x00\n        /* \"contracts/task1/RomanToInt1.sol\":2602:2615  uint256 i = 0 */\n      swap1\n      pop\n        /* \"contracts/task1/RomanToInt1.sol\":2597:3643  for (uint256 i = 0; i < len-1; i++) {           // 减1防止i+1数组下标越界... */\n    tag_57:\n        /* \"contracts/task1/RomanToInt1.sol\":2625:2626  1 */\n      0x01\n        /* \"contracts/task1/RomanToInt1.sol\":2621:2624  len */\n      dup4\n        /* \"contracts/task1/RomanToInt1.sol\":2621:2626  len-1 */\n      tag_60\n      swap2\n      swap1\n      tag_61\n      jump\t// in\n    tag_60:\n        /* \"contracts/task1/RomanToInt1.sol\":2617:2618  i */\n      dup2\n        /* \"contracts/task1/RomanToInt1.sol\":2617:2626  i < len-1 */\n      lt\n        /* \"contracts/task1/RomanToInt1.sol\":2597:3643  for (uint256 i = 0; i < len-1; i++) {           // 减1防止i+1数组下标越界... */\n      iszero\n      tag_58\n      jumpi\n        /* \"contracts/task1/RomanToInt1.sol\":2710:2711  1 */\n      0x01\n        /* \"contracts/task1/RomanToInt1.sol\":2697:2705  numArray */\n      dup3\n        /* \"contracts/task1/RomanToInt1.sol\":2706:2707  i */\n      dup3\n        /* \"contracts/task1/RomanToInt1.sol\":2697:2708  numArray[i] */\n      dup2\n      mload\n      dup2\n      lt\n      tag_62\n      jumpi\n      tag_63\n      tag_26\n      jump\t// in\n    tag_63:\n    tag_62:\n      0x20\n      mul\n      0x20\n      add\n      add\n      mload\n        /* \"contracts/task1/RomanToInt1.sol\":2697:2711  numArray[i]==1 */\n      eq\n        /* \"contracts/task1/RomanToInt1.sol\":2697:2731  numArray[i]==1 && numArray[i+1]==5 */\n      dup1\n      iszero\n      tag_64\n      jumpi\n      pop\n        /* \"contracts/task1/RomanToInt1.sol\":2730:2731  5 */\n      0x05\n        /* \"contracts/task1/RomanToInt1.sol\":2715:2723  numArray */\n      dup3\n        /* \"contracts/task1/RomanToInt1.sol\":2726:2727  1 */\n      0x01\n        /* \"contracts/task1/RomanToInt1.sol\":2724:2725  i */\n      dup4\n        /* \"contracts/task1/RomanToInt1.sol\":2724:2727  i+1 */\n      tag_65\n      swap2\n      swap1\n      tag_66\n      jump\t// in\n    tag_65:\n        /* \"contracts/task1/RomanToInt1.sol\":2715:2728  numArray[i+1] */\n      dup2\n      mload\n      dup2\n      lt\n      tag_67\n      jumpi\n      tag_68\n      tag_26\n      jump\t// in\n    tag_68:\n    tag_67:\n      0x20\n      mul\n      0x20\n      add\n      add\n      mload\n        /* \"contracts/task1/RomanToInt1.sol\":2715:2731  numArray[i+1]==5 */\n      eq\n        /* \"contracts/task1/RomanToInt1.sol\":2697:2731  numArray[i]==1 && numArray[i+1]==5 */\n    tag_64:\n        /* \"contracts/task1/RomanToInt1.sol\":2693:3632  if (numArray[i]==1 && numArray[i+1]==5) {... */\n      iszero\n      tag_69\n      jumpi\n        /* \"contracts/task1/RomanToInt1.sol\":2766:2767  0 */\n      0x00\n        /* \"contracts/task1/RomanToInt1.sol\":2752:2760  numArray */\n      dup3\n        /* \"contracts/task1/RomanToInt1.sol\":2761:2762  i */\n      dup3\n        /* \"contracts/task1/RomanToInt1.sol\":2752:2763  numArray[i] */\n      dup2\n      mload\n      dup2\n      lt\n      tag_70\n      jumpi\n      tag_71\n      tag_26\n      jump\t// in\n    tag_71:\n    tag_70:\n      0x20\n      mul\n      0x20\n      add\n      add\n        /* \"contracts/task1/RomanToInt1.sol\":2752:2767  numArray[i] = 0 */\n      dup2\n      dup2\n      mstore\n      pop\n      pop\n        /* \"contracts/task1/RomanToInt1.sol\":2802:2803  4 */\n      0x04\n        /* \"contracts/task1/RomanToInt1.sol\":2786:2794  numArray */\n      dup3\n        /* \"contracts/task1/RomanToInt1.sol\":2797:2798  1 */\n      0x01\n        /* \"contracts/task1/RomanToInt1.sol\":2795:2796  i */\n      dup4\n        /* \"contracts/task1/RomanToInt1.sol\":2795:2798  i+1 */\n      tag_72\n      swap2\n      swap1\n      tag_66\n      jump\t// in\n    tag_72:\n        /* \"contracts/task1/RomanToInt1.sol\":2786:2799  numArray[i+1] */\n      dup2\n      mload\n      dup2\n      lt\n      tag_73\n      jumpi\n      tag_74\n      tag_26\n      jump\t// in\n    tag_74:\n    tag_73:\n      0x20\n      mul\n      0x20\n      add\n      add\n        /* \"contracts/task1/RomanToInt1.sol\":2786:2803  numArray[i+1] = 4 */\n      dup2\n      dup2\n      mstore\n      pop\n      pop\n        /* \"contracts/task1/RomanToInt1.sol\":2822:2825  i++ */\n      dup1\n      dup1\n      tag_75\n      swap1\n      tag_76\n      jump\t// in\n    tag_75:\n      swap2\n      pop\n      pop\n        /* \"contracts/task1/RomanToInt1.sol\":2693:3632  if (numArray[i]==1 && numArray[i+1]==5) {... */\n      jump(tag_77)\n    tag_69:\n        /* \"contracts/task1/RomanToInt1.sol\":2864:2865  1 */\n      0x01\n        /* \"contracts/task1/RomanToInt1.sol\":2851:2859  numArray */\n      dup3\n        /* \"contracts/task1/RomanToInt1.sol\":2860:2861  i */\n      dup3\n        /* \"contracts/task1/RomanToInt1.sol\":2851:2862  numArray[i] */\n      dup2\n      mload\n      dup2\n      lt\n      tag_78\n      jumpi\n      tag_79\n      tag_26\n      jump\t// in\n    tag_79:\n    tag_78:\n      0x20\n      mul\n      0x20\n      add\n      add\n      mload\n        /* \"contracts/task1/RomanToInt1.sol\":2851:2865  numArray[i]==1 */\n      eq\n        /* \"contracts/task1/RomanToInt1.sol\":2851:2886  numArray[i]==1 && numArray[i+1]==10 */\n      dup1\n      iszero\n      tag_80\n      jumpi\n      pop\n        /* \"contracts/task1/RomanToInt1.sol\":2884:2886  10 */\n      0x0a\n        /* \"contracts/task1/RomanToInt1.sol\":2869:2877  numArray */\n      dup3\n        /* \"contracts/task1/RomanToInt1.sol\":2880:2881  1 */\n      0x01\n        /* \"contracts/task1/RomanToInt1.sol\":2878:2879  i */\n      dup4\n        /* \"contracts/task1/RomanToInt1.sol\":2878:2881  i+1 */\n      tag_81\n      swap2\n      swap1\n      tag_66\n      jump\t// in\n    tag_81:\n        /* \"contracts/task1/RomanToInt1.sol\":2869:2882  numArray[i+1] */\n      dup2\n      mload\n      dup2\n      lt\n      tag_82\n      jumpi\n      tag_83\n      tag_26\n      jump\t// in\n    tag_83:\n    tag_82:\n      0x20\n      mul\n      0x20\n      add\n      add\n      mload\n        /* \"contracts/task1/RomanToInt1.sol\":2869:2886  numArray[i+1]==10 */\n      eq\n        /* \"contracts/task1/RomanToInt1.sol\":2851:2886  numArray[i]==1 && numArray[i+1]==10 */\n    tag_80:\n        /* \"contracts/task1/RomanToInt1.sol\":2847:3632  if (numArray[i]==1 && numArray[i+1]==10) {... */\n      iszero\n      tag_84\n      jumpi\n        /* \"contracts/task1/RomanToInt1.sol\":2921:2922  0 */\n      0x00\n        /* \"contracts/task1/RomanToInt1.sol\":2907:2915  numArray */\n      dup3\n        /* \"contracts/task1/RomanToInt1.sol\":2916:2917  i */\n      dup3\n        /* \"contracts/task1/RomanToInt1.sol\":2907:2918  numArray[i] */\n      dup2\n      mload\n      dup2\n      lt\n      tag_85\n      jumpi\n      tag_86\n      tag_26\n      jump\t// in\n    tag_86:\n    tag_85:\n      0x20\n      mul\n      0x20\n      add\n      add\n        /* \"contracts/task1/RomanToInt1.sol\":2907:2922  numArray[i] = 0 */\n      dup2\n      dup2\n      mstore\n      pop\n      pop\n        /* \"contracts/task1/RomanToInt1.sol\":2957:2958  9 */\n      0x09\n        /* \"contracts/task1/RomanToInt1.sol\":2941:2949  numArray */\n      dup3\n        /* \"contracts/task1/RomanToInt1.sol\":2952:2953  1 */\n      0x01\n        /* \"contracts/task1/RomanToInt1.sol\":2950:2951  i */\n      dup4\n        /* \"contracts/task1/RomanToInt1.sol\":2950:2953  i+1 */\n      tag_87\n      swap2\n      swap1\n      tag_66\n      jump\t// in\n    tag_87:\n        /* \"contracts/task1/RomanToInt1.sol\":2941:2954  numArray[i+1] */\n      dup2\n      mload\n      dup2\n      lt\n      tag_88\n      jumpi\n      tag_89\n      tag_26\n      jump\t// in\n    tag_89:\n    tag_88:\n      0x20\n      mul\n      0x20\n      add\n      add\n        /* \"contracts/task1/RomanToInt1.sol\":2941:2958  numArray[i+1] = 9 */\n      dup2\n      dup2\n      mstore\n      pop\n      pop\n        /* \"contracts/task1/RomanToInt1.sol\":2977:2980  i++ */\n      dup1\n      dup1\n      tag_90\n      swap1\n      tag_76\n      jump\t// in\n    tag_90:\n      swap2\n      pop\n      pop\n        /* \"contracts/task1/RomanToInt1.sol\":2847:3632  if (numArray[i]==1 && numArray[i+1]==10) {... */\n      jump(tag_91)\n    tag_84:\n        /* \"contracts/task1/RomanToInt1.sol\":3019:3021  10 */\n      0x0a\n        /* \"contracts/task1/RomanToInt1.sol\":3006:3014  numArray */\n      dup3\n        /* \"contracts/task1/RomanToInt1.sol\":3015:3016  i */\n      dup3\n        /* \"contracts/task1/RomanToInt1.sol\":3006:3017  numArray[i] */\n      dup2\n      mload\n      dup2\n      lt\n      tag_92\n      jumpi\n      tag_93\n      tag_26\n      jump\t// in\n    tag_93:\n    tag_92:\n      0x20\n      mul\n      0x20\n      add\n      add\n      mload\n        /* \"contracts/task1/RomanToInt1.sol\":3006:3021  numArray[i]==10 */\n      eq\n        /* \"contracts/task1/RomanToInt1.sol\":3006:3042  numArray[i]==10 && numArray[i+1]==50 */\n      dup1\n      iszero\n      tag_94\n      jumpi\n      pop\n        /* \"contracts/task1/RomanToInt1.sol\":3040:3042  50 */\n      0x32\n        /* \"contracts/task1/RomanToInt1.sol\":3025:3033  numArray */\n      dup3\n        /* \"contracts/task1/RomanToInt1.sol\":3036:3037  1 */\n      0x01\n        /* \"contracts/task1/RomanToInt1.sol\":3034:3035  i */\n      dup4\n        /* \"contracts/task1/RomanToInt1.sol\":3034:3037  i+1 */\n      tag_95\n      swap2\n      swap1\n      tag_66\n      jump\t// in\n    tag_95:\n        /* \"contracts/task1/RomanToInt1.sol\":3025:3038  numArray[i+1] */\n      dup2\n      mload\n      dup2\n      lt\n      tag_96\n      jumpi\n      tag_97\n      tag_26\n      jump\t// in\n    tag_97:\n    tag_96:\n      0x20\n      mul\n      0x20\n      add\n      add\n      mload\n        /* \"contracts/task1/RomanToInt1.sol\":3025:3042  numArray[i+1]==50 */\n      eq\n        /* \"contracts/task1/RomanToInt1.sol\":3006:3042  numArray[i]==10 && numArray[i+1]==50 */\n    tag_94:\n        /* \"contracts/task1/RomanToInt1.sol\":3002:3632  if (numArray[i]==10 && numArray[i+1]==50) {... */\n      iszero\n      tag_98\n      jumpi\n        /* \"contracts/task1/RomanToInt1.sol\":3077:3078  0 */\n      0x00\n        /* \"contracts/task1/RomanToInt1.sol\":3063:3071  numArray */\n      dup3\n        /* \"contracts/task1/RomanToInt1.sol\":3072:3073  i */\n      dup3\n        /* \"contracts/task1/RomanToInt1.sol\":3063:3074  numArray[i] */\n      dup2\n      mload\n      dup2\n      lt\n      tag_99\n      jumpi\n      tag_100\n      tag_26\n      jump\t// in\n    tag_100:\n    tag_99:\n      0x20\n      mul\n      0x20\n      add\n      add\n        /* \"contracts/task1/RomanToInt1.sol\":3063:3078  numArray[i] = 0 */\n      dup2\n      dup2\n      mstore\n      pop\n      pop\n        /* \"contracts/task1/RomanToInt1.sol\":3113:3115  40 */\n      0x28\n        /* \"contracts/task1/RomanToInt1.sol\":3097:3105  numArray */\n      dup3\n        /* \"contracts/task1/RomanToInt1.sol\":3108:3109  1 */\n      0x01\n        /* \"contracts/task1/RomanToInt1.sol\":3106:3107  i */\n      dup4\n        /* \"contracts/task1/RomanToInt1.sol\":3106:3109  i+1 */\n      tag_101\n      swap2\n      swap1\n      tag_66\n      jump\t// in\n    tag_101:\n        /* \"contracts/task1/RomanToInt1.sol\":3097:3110  numArray[i+1] */\n      dup2\n      mload\n      dup2\n      lt\n      tag_102\n      jumpi\n      tag_103\n      tag_26\n      jump\t// in\n    tag_103:\n    tag_102:\n      0x20\n      mul\n      0x20\n      add\n      add\n        /* \"contracts/task1/RomanToInt1.sol\":3097:3115  numArray[i+1] = 40 */\n      dup2\n      dup2\n      mstore\n      pop\n      pop\n        /* \"contracts/task1/RomanToInt1.sol\":3134:3137  i++ */\n      dup1\n      dup1\n      tag_104\n      swap1\n      tag_76\n      jump\t// in\n    tag_104:\n      swap2\n      pop\n      pop\n        /* \"contracts/task1/RomanToInt1.sol\":3002:3632  if (numArray[i]==10 && numArray[i+1]==50) {... */\n      jump(tag_105)\n    tag_98:\n        /* \"contracts/task1/RomanToInt1.sol\":3176:3178  10 */\n      0x0a\n        /* \"contracts/task1/RomanToInt1.sol\":3163:3171  numArray */\n      dup3\n        /* \"contracts/task1/RomanToInt1.sol\":3172:3173  i */\n      dup3\n        /* \"contracts/task1/RomanToInt1.sol\":3163:3174  numArray[i] */\n      dup2\n      mload\n      dup2\n      lt\n      tag_106\n      jumpi\n      tag_107\n      tag_26\n      jump\t// in\n    tag_107:\n    tag_106:\n      0x20\n      mul\n      0x20\n      add\n      add\n      mload\n        /* \"contracts/task1/RomanToInt1.sol\":3163:3178  numArray[i]==10 */\n      eq\n        /* \"contracts/task1/RomanToInt1.sol\":3163:3200  numArray[i]==10 && numArray[i+1]==100 */\n      dup1\n      iszero\n      tag_108\n      jumpi\n      pop\n        /* \"contracts/task1/RomanToInt1.sol\":3197:3200  100 */\n      0x64\n        /* \"contracts/task1/RomanToInt1.sol\":3182:3190  numArray */\n      dup3\n        /* \"contracts/task1/RomanToInt1.sol\":3193:3194  1 */\n      0x01\n        /* \"contracts/task1/RomanToInt1.sol\":3191:3192  i */\n      dup4\n        /* \"contracts/task1/RomanToInt1.sol\":3191:3194  i+1 */\n      tag_109\n      swap2\n      swap1\n      tag_66\n      jump\t// in\n    tag_109:\n        /* \"contracts/task1/RomanToInt1.sol\":3182:3195  numArray[i+1] */\n      dup2\n      mload\n      dup2\n      lt\n      tag_110\n      jumpi\n      tag_111\n      tag_26\n      jump\t// in\n    tag_111:\n    tag_110:\n      0x20\n      mul\n      0x20\n      add\n      add\n      mload\n        /* \"contracts/task1/RomanToInt1.sol\":3182:3200  numArray[i+1]==100 */\n      eq\n        /* \"contracts/task1/RomanToInt1.sol\":3163:3200  numArray[i]==10 && numArray[i+1]==100 */\n    tag_108:\n        /* \"contracts/task1/RomanToInt1.sol\":3159:3632  if (numArray[i]==10 && numArray[i+1]==100) {... */\n      iszero\n      tag_112\n      jumpi\n        /* \"contracts/task1/RomanToInt1.sol\":3235:3236  0 */\n      0x00\n        /* \"contracts/task1/RomanToInt1.sol\":3221:3229  numArray */\n      dup3\n        /* \"contracts/task1/RomanToInt1.sol\":3230:3231  i */\n      dup3\n        /* \"contracts/task1/RomanToInt1.sol\":3221:3232  numArray[i] */\n      dup2\n      mload\n      dup2\n      lt\n      tag_113\n      jumpi\n      tag_114\n      tag_26\n      jump\t// in\n    tag_114:\n    tag_113:\n      0x20\n      mul\n      0x20\n      add\n      add\n        /* \"contracts/task1/RomanToInt1.sol\":3221:3236  numArray[i] = 0 */\n      dup2\n      dup2\n      mstore\n      pop\n      pop\n        /* \"contracts/task1/RomanToInt1.sol\":3271:3273  90 */\n      0x5a\n        /* \"contracts/task1/RomanToInt1.sol\":3255:3263  numArray */\n      dup3\n        /* \"contracts/task1/RomanToInt1.sol\":3266:3267  1 */\n      0x01\n        /* \"contracts/task1/RomanToInt1.sol\":3264:3265  i */\n      dup4\n        /* \"contracts/task1/RomanToInt1.sol\":3264:3267  i+1 */\n      tag_115\n      swap2\n      swap1\n      tag_66\n      jump\t// in\n    tag_115:\n        /* \"contracts/task1/RomanToInt1.sol\":3255:3268  numArray[i+1] */\n      dup2\n      mload\n      dup2\n      lt\n      tag_116\n      jumpi\n      tag_117\n      tag_26\n      jump\t// in\n    tag_117:\n    tag_116:\n      0x20\n      mul\n      0x20\n      add\n      add\n        /* \"contracts/task1/RomanToInt1.sol\":3255:3273  numArray[i+1] = 90 */\n      dup2\n      dup2\n      mstore\n      pop\n      pop\n        /* \"contracts/task1/RomanToInt1.sol\":3292:3295  i++ */\n      dup1\n      dup1\n      tag_118\n      swap1\n      tag_76\n      jump\t// in\n    tag_118:\n      swap2\n      pop\n      pop\n        /* \"contracts/task1/RomanToInt1.sol\":3159:3632  if (numArray[i]==10 && numArray[i+1]==100) {... */\n      jump(tag_119)\n    tag_112:\n        /* \"contracts/task1/RomanToInt1.sol\":3334:3337  100 */\n      0x64\n        /* \"contracts/task1/RomanToInt1.sol\":3321:3329  numArray */\n      dup3\n        /* \"contracts/task1/RomanToInt1.sol\":3330:3331  i */\n      dup3\n        /* \"contracts/task1/RomanToInt1.sol\":3321:3332  numArray[i] */\n      dup2\n      mload\n      dup2\n      lt\n      tag_120\n      jumpi\n      tag_121\n      tag_26\n      jump\t// in\n    tag_121:\n    tag_120:\n      0x20\n      mul\n      0x20\n      add\n      add\n      mload\n        /* \"contracts/task1/RomanToInt1.sol\":3321:3337  numArray[i]==100 */\n      eq\n        /* \"contracts/task1/RomanToInt1.sol\":3321:3359  numArray[i]==100 && numArray[i+1]==500 */\n      dup1\n      iszero\n      tag_122\n      jumpi\n      pop\n        /* \"contracts/task1/RomanToInt1.sol\":3356:3359  500 */\n      0x01f4\n        /* \"contracts/task1/RomanToInt1.sol\":3341:3349  numArray */\n      dup3\n        /* \"contracts/task1/RomanToInt1.sol\":3352:3353  1 */\n      0x01\n        /* \"contracts/task1/RomanToInt1.sol\":3350:3351  i */\n      dup4\n        /* \"contracts/task1/RomanToInt1.sol\":3350:3353  i+1 */\n      tag_123\n      swap2\n      swap1\n      tag_66\n      jump\t// in\n    tag_123:\n        /* \"contracts/task1/RomanToInt1.sol\":3341:3354  numArray[i+1] */\n      dup2\n      mload\n      dup2\n      lt\n      tag_124\n      jumpi\n      tag_125\n      tag_26\n      jump\t// in\n    tag_125:\n    tag_124:\n      0x20\n      mul\n      0x20\n      add\n      add\n      mload\n        /* \"contracts/task1/RomanToInt1.sol\":3341:3359  numArray[i+1]==500 */\n      eq\n        /* \"contracts/task1/RomanToInt1.sol\":3321:3359  numArray[i]==100 && numArray[i+1]==500 */\n    tag_122:\n        /* \"contracts/task1/RomanToInt1.sol\":3317:3632  if (numArray[i]==100 && numArray[i+1]==500) {... */\n      iszero\n      tag_126\n      jumpi\n        /* \"contracts/task1/RomanToInt1.sol\":3394:3395  0 */\n      0x00\n        /* \"contracts/task1/RomanToInt1.sol\":3380:3388  numArray */\n      dup3\n        /* \"contracts/task1/RomanToInt1.sol\":3389:3390  i */\n      dup3\n        /* \"contracts/task1/RomanToInt1.sol\":3380:3391  numArray[i] */\n      dup2\n      mload\n      dup2\n      lt\n      tag_127\n      jumpi\n      tag_128\n      tag_26\n      jump\t// in\n    tag_128:\n    tag_127:\n      0x20\n      mul\n      0x20\n      add\n      add\n        /* \"contracts/task1/RomanToInt1.sol\":3380:3395  numArray[i] = 0 */\n      dup2\n      dup2\n      mstore\n      pop\n      pop\n        /* \"contracts/task1/RomanToInt1.sol\":3430:3433  400 */\n      0x0190\n        /* \"contracts/task1/RomanToInt1.sol\":3414:3422  numArray */\n      dup3\n        /* \"contracts/task1/RomanToInt1.sol\":3425:3426  1 */\n      0x01\n        /* \"contracts/task1/RomanToInt1.sol\":3423:3424  i */\n      dup4\n        /* \"contracts/task1/RomanToInt1.sol\":3423:3426  i+1 */\n      tag_129\n      swap2\n      swap1\n      tag_66\n      jump\t// in\n    tag_129:\n        /* \"contracts/task1/RomanToInt1.sol\":3414:3427  numArray[i+1] */\n      dup2\n      mload\n      dup2\n      lt\n      tag_130\n      jumpi\n      tag_131\n      tag_26\n      jump\t// in\n    tag_131:\n    tag_130:\n      0x20\n      mul\n      0x20\n      add\n      add\n        /* \"contracts/task1/RomanToInt1.sol\":3414:3433  numArray[i+1] = 400 */\n      dup2\n      dup2\n      mstore\n      pop\n      pop\n        /* \"contracts/task1/RomanToInt1.sol\":3452:3455  i++ */\n      dup1\n      dup1\n      tag_132\n      swap1\n      tag_76\n      jump\t// in\n    tag_132:\n      swap2\n      pop\n      pop\n        /* \"contracts/task1/RomanToInt1.sol\":3317:3632  if (numArray[i]==100 && numArray[i+1]==500) {... */\n      jump(tag_133)\n    tag_126:\n        /* \"contracts/task1/RomanToInt1.sol\":3494:3497  100 */\n      0x64\n        /* \"contracts/task1/RomanToInt1.sol\":3481:3489  numArray */\n      dup3\n        /* \"contracts/task1/RomanToInt1.sol\":3490:3491  i */\n      dup3\n        /* \"contracts/task1/RomanToInt1.sol\":3481:3492  numArray[i] */\n      dup2\n      mload\n      dup2\n      lt\n      tag_134\n      jumpi\n      tag_135\n      tag_26\n      jump\t// in\n    tag_135:\n    tag_134:\n      0x20\n      mul\n      0x20\n      add\n      add\n      mload\n        /* \"contracts/task1/RomanToInt1.sol\":3481:3497  numArray[i]==100 */\n      eq\n        /* \"contracts/task1/RomanToInt1.sol\":3481:3520  numArray[i]==100 && numArray[i+1]==1000 */\n      dup1\n      iszero\n      tag_136\n      jumpi\n      pop\n        /* \"contracts/task1/RomanToInt1.sol\":3516:3520  1000 */\n      0x03e8\n        /* \"contracts/task1/RomanToInt1.sol\":3501:3509  numArray */\n      dup3\n        /* \"contracts/task1/RomanToInt1.sol\":3512:3513  1 */\n      0x01\n        /* \"contracts/task1/RomanToInt1.sol\":3510:3511  i */\n      dup4\n        /* \"contracts/task1/RomanToInt1.sol\":3510:3513  i+1 */\n      tag_137\n      swap2\n      swap1\n      tag_66\n      jump\t// in\n    tag_137:\n        /* \"contracts/task1/RomanToInt1.sol\":3501:3514  numArray[i+1] */\n      dup2\n      mload\n      dup2\n      lt\n      tag_138\n      jumpi\n      tag_139\n      tag_26\n      jump\t// in\n    tag_139:\n    tag_138:\n      0x20\n      mul\n      0x20\n      add\n      add\n      mload\n        /* \"contracts/task1/RomanToInt1.sol\":3501:3520  numArray[i+1]==1000 */\n      eq\n        /* \"contracts/task1/RomanToInt1.sol\":3481:3520  numArray[i]==100 && numArray[i+1]==1000 */\n    tag_136:\n        /* \"contracts/task1/RomanToInt1.sol\":3477:3632  if (numArray[i]==100 && numArray[i+1]==1000) {... */\n      iszero\n      tag_140\n      jumpi\n        /* \"contracts/task1/RomanToInt1.sol\":3555:3556  0 */\n      0x00\n        /* \"contracts/task1/RomanToInt1.sol\":3541:3549  numArray */\n      dup3\n        /* \"contracts/task1/RomanToInt1.sol\":3550:3551  i */\n      dup3\n        /* \"contracts/task1/RomanToInt1.sol\":3541:3552  numArray[i] */\n      dup2\n      mload\n      dup2\n      lt\n      tag_141\n      jumpi\n      tag_142\n      tag_26\n      jump\t// in\n    tag_142:\n    tag_141:\n      0x20\n      mul\n      0x20\n      add\n      add\n        /* \"contracts/task1/RomanToInt1.sol\":3541:3556  numArray[i] = 0 */\n      dup2\n      dup2\n      mstore\n      pop\n      pop\n        /* \"contracts/task1/RomanToInt1.sol\":3591:3594  900 */\n      0x0384\n        /* \"contracts/task1/RomanToInt1.sol\":3575:3583  numArray */\n      dup3\n        /* \"contracts/task1/RomanToInt1.sol\":3586:3587  1 */\n      0x01\n        /* \"contracts/task1/RomanToInt1.sol\":3584:3585  i */\n      dup4\n        /* \"contracts/task1/RomanToInt1.sol\":3584:3587  i+1 */\n      tag_143\n      swap2\n      swap1\n      tag_66\n      jump\t// in\n    tag_143:\n        /* \"contracts/task1/RomanToInt1.sol\":3575:3588  numArray[i+1] */\n      dup2\n      mload\n      dup2\n      lt\n      tag_144\n      jumpi\n      tag_145\n      tag_26\n      jump\t// in\n    tag_145:\n    tag_144:\n      0x20\n      mul\n      0x20\n      add\n      add\n        /* \"contracts/task1/RomanToInt1.sol\":3575:3594  numArray[i+1] = 900 */\n      dup2\n      dup2\n      mstore\n      pop\n      pop\n        /* \"contracts/task1/RomanToInt1.sol\":3613:3616  i++ */\n      dup1\n      dup1\n      tag_146\n      swap1\n      tag_76\n      jump\t// in\n    tag_146:\n      swap2\n      pop\n      pop\n        /* \"contracts/task1/RomanToInt1.sol\":3477:3632  if (numArray[i]==100 && numArray[i+1]==1000) {... */\n    tag_140:\n        /* \"contracts/task1/RomanToInt1.sol\":3317:3632  if (numArray[i]==100 && numArray[i+1]==500) {... */\n    tag_133:\n        /* \"contracts/task1/RomanToInt1.sol\":3159:3632  if (numArray[i]==10 && numArray[i+1]==100) {... */\n    tag_119:\n        /* \"contracts/task1/RomanToInt1.sol\":3002:3632  if (numArray[i]==10 && numArray[i+1]==50) {... */\n    tag_105:\n        /* \"contracts/task1/RomanToInt1.sol\":2847:3632  if (numArray[i]==1 && numArray[i+1]==10) {... */\n    tag_91:\n        /* \"contracts/task1/RomanToInt1.sol\":2693:3632  if (numArray[i]==1 && numArray[i+1]==5) {... */\n    tag_77:\n        /* \"contracts/task1/RomanToInt1.sol\":2628:2631  i++ */\n      dup1\n      dup1\n      tag_147\n      swap1\n      tag_76\n      jump\t// in\n    tag_147:\n      swap2\n      pop\n      pop\n        /* \"contracts/task1/RomanToInt1.sol\":2597:3643  for (uint256 i = 0; i < len-1; i++) {           // 减1防止i+1数组下标越界... */\n      jump(tag_57)\n    tag_58:\n      pop\n        /* \"contracts/task1/RomanToInt1.sol\":3655:3666  uint256 sum */\n      0x00\n        /* \"contracts/task1/RomanToInt1.sol\":3703:3712  uint256 i */\n      0x00\n        /* \"contracts/task1/RomanToInt1.sol\":3715:3716  0 */\n      0x00\n        /* \"contracts/task1/RomanToInt1.sol\":3703:3716  uint256 i = 0 */\n      swap1\n      pop\n        /* \"contracts/task1/RomanToInt1.sol\":3698:3777  for (uint256 i = 0; i < len; i++) {... */\n    tag_148:\n        /* \"contracts/task1/RomanToInt1.sol\":3722:3725  len */\n      dup4\n        /* \"contracts/task1/RomanToInt1.sol\":3718:3719  i */\n      dup2\n        /* \"contracts/task1/RomanToInt1.sol\":3718:3725  i < len */\n      lt\n        /* \"contracts/task1/RomanToInt1.sol\":3698:3777  for (uint256 i = 0; i < len; i++) {... */\n      iszero\n      tag_149\n      jumpi\n        /* \"contracts/task1/RomanToInt1.sol\":3754:3762  numArray */\n      dup3\n        /* \"contracts/task1/RomanToInt1.sol\":3763:3764  i */\n      dup2\n        /* \"contracts/task1/RomanToInt1.sol\":3754:3765  numArray[i] */\n      dup2\n      mload\n      dup2\n      lt\n      tag_151\n      jumpi\n      tag_152\n      tag_26\n      jump\t// in\n    tag_152:\n    tag_151:\n      0x20\n      mul\n      0x20\n      add\n      add\n      mload\n        /* \"contracts/task1/RomanToInt1.sol\":3747:3765  sum += numArray[i] */\n      dup3\n      tag_153\n      swap2\n      swap1\n      tag_66\n      jump\t// in\n    tag_153:\n      swap2\n      pop\n        /* \"contracts/task1/RomanToInt1.sol\":3727:3730  i++ */\n      dup1\n      dup1\n      0x01\n      add\n      swap2\n      pop\n      pop\n        /* \"contracts/task1/RomanToInt1.sol\":3698:3777  for (uint256 i = 0; i < len; i++) {... */\n      jump(tag_148)\n    tag_149:\n      pop\n        /* \"contracts/task1/RomanToInt1.sol\":3794:3797  sum */\n      dup1\n        /* \"contracts/task1/RomanToInt1.sol\":3787:3797  return sum */\n      swap5\n      pop\n      pop\n      pop\n      pop\n      pop\n        /* \"contracts/task1/RomanToInt1.sol\":1524:3805  function change(string memory s) public view returns(uint256){... */\n    tag_30:\n      swap2\n      swap1\n      pop\n      jump\t// out\n        /* \"@openzeppelin/contracts/utils/Strings.sol\":1308:1942  function toString(uint256 value) internal pure returns (string memory) {... */\n    tag_29:\n        /* \"@openzeppelin/contracts/utils/Strings.sol\":1364:1377  string memory */\n      0x60\n        /* \"@openzeppelin/contracts/utils/Strings.sol\":1413:1427  uint256 length */\n      0x00\n        /* \"@openzeppelin/contracts/utils/Strings.sol\":1450:1451  1 */\n      0x01\n        /* \"@openzeppelin/contracts/utils/Strings.sol\":1430:1447  Math.log10(value) */\n      tag_155\n        /* \"@openzeppelin/contracts/utils/Strings.sol\":1441:1446  value */\n      dup5\n        /* \"@openzeppelin/contracts/utils/Strings.sol\":1430:1440  Math.log10 */\n      tag_156\n        /* \"@openzeppelin/contracts/utils/Strings.sol\":1430:1447  Math.log10(value) */\n      jump\t// in\n    tag_155:\n        /* \"@openzeppelin/contracts/utils/Strings.sol\":1430:1451  Math.log10(value) + 1 */\n      add\n        /* \"@openzeppelin/contracts/utils/Strings.sol\":1413:1451  uint256 length = Math.log10(value) + 1 */\n      swap1\n      pop\n        /* \"@openzeppelin/contracts/utils/Strings.sol\":1465:1485  string memory buffer */\n      0x00\n        /* \"@openzeppelin/contracts/utils/Strings.sol\":1499:1505  length */\n      dup2\n        /* \"@openzeppelin/contracts/utils/Strings.sol\":1488:1506  new string(length) */\n      0xffffffffffffffff\n      dup2\n      gt\n      iszero\n      tag_157\n      jumpi\n      tag_158\n      tag_48\n      jump\t// in\n    tag_158:\n    tag_157:\n      mload(0x40)\n      swap1\n      dup1\n      dup3\n      mstore\n      dup1\n      0x1f\n      add\n      not(0x1f)\n      and\n      0x20\n      add\n      dup3\n      add\n      0x40\n      mstore\n      dup1\n      iszero\n      tag_159\n      jumpi\n      dup2\n      0x20\n      add\n      0x01\n      dup3\n      mul\n      dup1\n      calldatasize\n      dup4\n      calldatacopy\n      dup1\n      dup3\n      add\n      swap2\n      pop\n      pop\n      swap1\n      pop\n    tag_159:\n      pop\n        /* \"@openzeppelin/contracts/utils/Strings.sol\":1465:1506  string memory buffer = new string(length) */\n      swap1\n      pop\n        /* \"@openzeppelin/contracts/utils/Strings.sol\":1520:1531  uint256 ptr */\n      0x00\n        /* \"@openzeppelin/contracts/utils/Strings.sol\":1618:1624  length */\n      dup3\n        /* \"@openzeppelin/contracts/utils/Strings.sol\":1611:1615  0x20 */\n      0x20\n        /* \"@openzeppelin/contracts/utils/Strings.sol\":1603:1609  buffer */\n      dup4\n        /* \"@openzeppelin/contracts/utils/Strings.sol\":1599:1616  add(buffer, 0x20) */\n      add\n        /* \"@openzeppelin/contracts/utils/Strings.sol\":1595:1625  add(add(buffer, 0x20), length) */\n      add\n        /* \"@openzeppelin/contracts/utils/Strings.sol\":1588:1625  ptr := add(add(buffer, 0x20), length) */\n      swap1\n      pop\n        /* \"@openzeppelin/contracts/utils/Strings.sol\":1652:1899  while (true) {... */\n    tag_160:\n        /* \"@openzeppelin/contracts/utils/Strings.sol\":1659:1663  true */\n      0x01\n        /* \"@openzeppelin/contracts/utils/Strings.sol\":1652:1899  while (true) {... */\n      iszero\n      tag_161\n      jumpi\n        /* \"@openzeppelin/contracts/utils/Strings.sol\":1683:1688  ptr-- */\n      dup1\n      dup1\n      0x01\n      swap1\n      sub\n      swap2\n      pop\n      pop\n        /* \"@openzeppelin/contracts/utils/Strings.sol\":1787:1797  HEX_DIGITS */\n      0x3031323334353637383961626364656600000000000000000000000000000000\n        /* \"@openzeppelin/contracts/utils/Strings.sol\":1782:1784  10 */\n      0x0a\n        /* \"@openzeppelin/contracts/utils/Strings.sol\":1775:1780  value */\n      dup7\n        /* \"@openzeppelin/contracts/utils/Strings.sol\":1771:1785  mod(value, 10) */\n      mod\n        /* \"@openzeppelin/contracts/utils/Strings.sol\":1766:1798  byte(mod(value, 10), HEX_DIGITS) */\n      byte\n        /* \"@openzeppelin/contracts/utils/Strings.sol\":1761:1764  ptr */\n      dup2\n        /* \"@openzeppelin/contracts/utils/Strings.sol\":1753:1799  mstore8(ptr, byte(mod(value, 10), HEX_DIGITS)) */\n      mstore8\n        /* \"@openzeppelin/contracts/utils/Strings.sol\":1843:1845  10 */\n      0x0a\n        /* \"@openzeppelin/contracts/utils/Strings.sol\":1834:1845  value /= 10 */\n      dup6\n      dup2\n      tag_162\n      jumpi\n      tag_163\n      tag_164\n      jump\t// in\n    tag_163:\n    tag_162:\n      div\n      swap5\n      pop\n        /* \"@openzeppelin/contracts/utils/Strings.sol\":1876:1877  0 */\n      0x00\n        /* \"@openzeppelin/contracts/utils/Strings.sol\":1867:1872  value */\n      dup6\n        /* \"@openzeppelin/contracts/utils/Strings.sol\":1867:1877  value == 0 */\n      sub\n        /* \"@openzeppelin/contracts/utils/Strings.sol\":1652:1899  while (true) {... */\n      tag_160\n        /* \"@openzeppelin/contracts/utils/Strings.sol\":1863:1884  if (value == 0) break */\n      jumpi\n        /* \"@openzeppelin/contracts/utils/Strings.sol\":1652:1899  while (true) {... */\n    tag_161:\n        /* \"@openzeppelin/contracts/utils/Strings.sol\":1919:1925  buffer */\n      dup2\n        /* \"@openzeppelin/contracts/utils/Strings.sol\":1912:1925  return buffer */\n      swap4\n      pop\n      pop\n      pop\n      pop\n        /* \"@openzeppelin/contracts/utils/Strings.sol\":1308:1942  function toString(uint256 value) internal pure returns (string memory) {... */\n      swap2\n      swap1\n      pop\n      jump\t// out\n        /* \"@openzeppelin/contracts/utils/math/Math.sol\":29154:30070  function log10(uint256 value) internal pure returns (uint256) {... */\n    tag_156:\n        /* \"@openzeppelin/contracts/utils/math/Math.sol\":29207:29214  uint256 */\n      0x00\n        /* \"@openzeppelin/contracts/utils/math/Math.sol\":29226:29240  uint256 result */\n      0x00\n        /* \"@openzeppelin/contracts/utils/math/Math.sol\":29243:29244  0 */\n      0x00\n        /* \"@openzeppelin/contracts/utils/math/Math.sol\":29226:29244  uint256 result = 0 */\n      swap1\n      pop\n        /* \"@openzeppelin/contracts/utils/math/Math.sol\":29291:29299  10 ** 64 */\n      0x184f03e93ff9f4daa797ed6e38ed64bf6a1f010000000000000000\n        /* \"@openzeppelin/contracts/utils/math/Math.sol\":29282:29287  value */\n      dup4\n        /* \"@openzeppelin/contracts/utils/math/Math.sol\":29282:29299  value >= 10 ** 64 */\n      lt\n        /* \"@openzeppelin/contracts/utils/math/Math.sol\":29278:29381  if (value >= 10 ** 64) {... */\n      tag_167\n      jumpi\n        /* \"@openzeppelin/contracts/utils/math/Math.sol\":29328:29336  10 ** 64 */\n      0x184f03e93ff9f4daa797ed6e38ed64bf6a1f010000000000000000\n        /* \"@openzeppelin/contracts/utils/math/Math.sol\":29319:29336  value /= 10 ** 64 */\n      dup4\n      dup2\n      tag_168\n      jumpi\n      tag_169\n      tag_164\n      jump\t// in\n    tag_169:\n    tag_168:\n      div\n      swap3\n      pop\n        /* \"@openzeppelin/contracts/utils/math/Math.sol\":29364:29366  64 */\n      0x40\n        /* \"@openzeppelin/contracts/utils/math/Math.sol\":29354:29366  result += 64 */\n      dup2\n      add\n      swap1\n      pop\n        /* \"@openzeppelin/contracts/utils/math/Math.sol\":29278:29381  if (value >= 10 ** 64) {... */\n    tag_167:\n        /* \"@openzeppelin/contracts/utils/math/Math.sol\":29407:29415  10 ** 32 */\n      0x04ee2d6d415b85acef8100000000\n        /* \"@openzeppelin/contracts/utils/math/Math.sol\":29398:29403  value */\n      dup4\n        /* \"@openzeppelin/contracts/utils/math/Math.sol\":29398:29415  value >= 10 ** 32 */\n      lt\n        /* \"@openzeppelin/contracts/utils/math/Math.sol\":29394:29497  if (value >= 10 ** 32) {... */\n      tag_170\n      jumpi\n        /* \"@openzeppelin/contracts/utils/math/Math.sol\":29444:29452  10 ** 32 */\n      0x04ee2d6d415b85acef8100000000\n        /* \"@openzeppelin/contracts/utils/math/Math.sol\":29435:29452  value /= 10 ** 32 */\n      dup4\n      dup2\n      tag_171\n      jumpi\n      tag_172\n      tag_164\n      jump\t// in\n    tag_172:\n    tag_171:\n      div\n      swap3\n      pop\n        /* \"@openzeppelin/contracts/utils/math/Math.sol\":29480:29482  32 */\n      0x20\n        /* \"@openzeppelin/contracts/utils/math/Math.sol\":29470:29482  result += 32 */\n      dup2\n      add\n      swap1\n      pop\n        /* \"@openzeppelin/contracts/utils/math/Math.sol\":29394:29497  if (value >= 10 ** 32) {... */\n    tag_170:\n        /* \"@openzeppelin/contracts/utils/math/Math.sol\":29523:29531  10 ** 16 */\n      0x2386f26fc10000\n        /* \"@openzeppelin/contracts/utils/math/Math.sol\":29514:29519  value */\n      dup4\n        /* \"@openzeppelin/contracts/utils/math/Math.sol\":29514:29531  value >= 10 ** 16 */\n      lt\n        /* \"@openzeppelin/contracts/utils/math/Math.sol\":29510:29613  if (value >= 10 ** 16) {... */\n      tag_173\n      jumpi\n        /* \"@openzeppelin/contracts/utils/math/Math.sol\":29560:29568  10 ** 16 */\n      0x2386f26fc10000\n        /* \"@openzeppelin/contracts/utils/math/Math.sol\":29551:29568  value /= 10 ** 16 */\n      dup4\n      dup2\n      tag_174\n      jumpi\n      tag_175\n      tag_164\n      jump\t// in\n    tag_175:\n    tag_174:\n      div\n      swap3\n      pop\n        /* \"@openzeppelin/contracts/utils/math/Math.sol\":29596:29598  16 */\n      0x10\n        /* \"@openzeppelin/contracts/utils/math/Math.sol\":29586:29598  result += 16 */\n      dup2\n      add\n      swap1\n      pop\n        /* \"@openzeppelin/contracts/utils/math/Math.sol\":29510:29613  if (value >= 10 ** 16) {... */\n    tag_173:\n        /* \"@openzeppelin/contracts/utils/math/Math.sol\":29639:29646  10 ** 8 */\n      0x05f5e100\n        /* \"@openzeppelin/contracts/utils/math/Math.sol\":29630:29635  value */\n      dup4\n        /* \"@openzeppelin/contracts/utils/math/Math.sol\":29630:29646  value >= 10 ** 8 */\n      lt\n        /* \"@openzeppelin/contracts/utils/math/Math.sol\":29626:29726  if (value >= 10 ** 8) {... */\n      tag_176\n      jumpi\n        /* \"@openzeppelin/contracts/utils/math/Math.sol\":29675:29682  10 ** 8 */\n      0x05f5e100\n        /* \"@openzeppelin/contracts/utils/math/Math.sol\":29666:29682  value /= 10 ** 8 */\n      dup4\n      dup2\n      tag_177\n      jumpi\n      tag_178\n      tag_164\n      jump\t// in\n    tag_178:\n    tag_177:\n      div\n      swap3\n      pop\n        /* \"@openzeppelin/contracts/utils/math/Math.sol\":29710:29711  8 */\n      0x08\n        /* \"@openzeppelin/contracts/utils/math/Math.sol\":29700:29711  result += 8 */\n      dup2\n      add\n      swap1\n      pop\n        /* \"@openzeppelin/contracts/utils/math/Math.sol\":29626:29726  if (value >= 10 ** 8) {... */\n    tag_176:\n        /* \"@openzeppelin/contracts/utils/math/Math.sol\":29752:29759  10 ** 4 */\n      0x2710\n        /* \"@openzeppelin/contracts/utils/math/Math.sol\":29743:29748  value */\n      dup4\n        /* \"@openzeppelin/contracts/utils/math/Math.sol\":29743:29759  value >= 10 ** 4 */\n      lt\n        /* \"@openzeppelin/contracts/utils/math/Math.sol\":29739:29839  if (value >= 10 ** 4) {... */\n      tag_179\n      jumpi\n        /* \"@openzeppelin/contracts/utils/math/Math.sol\":29788:29795  10 ** 4 */\n      0x2710\n        /* \"@openzeppelin/contracts/utils/math/Math.sol\":29779:29795  value /= 10 ** 4 */\n      dup4\n      dup2\n      tag_180\n      jumpi\n      tag_181\n      tag_164\n      jump\t// in\n    tag_181:\n    tag_180:\n      div\n      swap3\n      pop\n        /* \"@openzeppelin/contracts/utils/math/Math.sol\":29823:29824  4 */\n      0x04\n        /* \"@openzeppelin/contracts/utils/math/Math.sol\":29813:29824  result += 4 */\n      dup2\n      add\n      swap1\n      pop\n        /* \"@openzeppelin/contracts/utils/math/Math.sol\":29739:29839  if (value >= 10 ** 4) {... */\n    tag_179:\n        /* \"@openzeppelin/contracts/utils/math/Math.sol\":29865:29872  10 ** 2 */\n      0x64\n        /* \"@openzeppelin/contracts/utils/math/Math.sol\":29856:29861  value */\n      dup4\n        /* \"@openzeppelin/contracts/utils/math/Math.sol\":29856:29872  value >= 10 ** 2 */\n      lt\n        /* \"@openzeppelin/contracts/utils/math/Math.sol\":29852:29952  if (value >= 10 ** 2) {... */\n      tag_182\n      jumpi\n        /* \"@openzeppelin/contracts/utils/math/Math.sol\":29901:29908  10 ** 2 */\n      0x64\n        /* \"@openzeppelin/contracts/utils/math/Math.sol\":29892:29908  value /= 10 ** 2 */\n      dup4\n      dup2\n      tag_183\n      jumpi\n      tag_184\n      tag_164\n      jump\t// in\n    tag_184:\n    tag_183:\n      div\n      swap3\n      pop\n        /* \"@openzeppelin/contracts/utils/math/Math.sol\":29936:29937  2 */\n      0x02\n        /* \"@openzeppelin/contracts/utils/math/Math.sol\":29926:29937  result += 2 */\n      dup2\n      add\n      swap1\n      pop\n        /* \"@openzeppelin/contracts/utils/math/Math.sol\":29852:29952  if (value >= 10 ** 2) {... */\n    tag_182:\n        /* \"@openzeppelin/contracts/utils/math/Math.sol\":29978:29985  10 ** 1 */\n      0x0a\n        /* \"@openzeppelin/contracts/utils/math/Math.sol\":29969:29974  value */\n      dup4\n        /* \"@openzeppelin/contracts/utils/math/Math.sol\":29969:29985  value >= 10 ** 1 */\n      lt\n        /* \"@openzeppelin/contracts/utils/math/Math.sol\":29965:30031  if (value >= 10 ** 1) {... */\n      tag_185\n      jumpi\n        /* \"@openzeppelin/contracts/utils/math/Math.sol\":30015:30016  1 */\n      0x01\n        /* \"@openzeppelin/contracts/utils/math/Math.sol\":30005:30016  result += 1 */\n      dup2\n      add\n      swap1\n      pop\n        /* \"@openzeppelin/contracts/utils/math/Math.sol\":29965:30031  if (value >= 10 ** 1) {... */\n    tag_185:\n        /* \"@openzeppelin/contracts/utils/math/Math.sol\":30057:30063  result */\n      dup1\n        /* \"@openzeppelin/contracts/utils/math/Math.sol\":30050:30063  return result */\n      swap2\n      pop\n      pop\n        /* \"@openzeppelin/contracts/utils/math/Math.sol\":29154:30070  function log10(uint256 value) internal pure returns (uint256) {... */\n      swap2\n      swap1\n      pop\n      jump\t// out\n        /* \"#utility.yul\":7:82   */\n    tag_186:\n        /* \"#utility.yul\":40:46   */\n      0x00\n        /* \"#utility.yul\":73:75   */\n      0x40\n        /* \"#utility.yul\":67:76   */\n      mload\n        /* \"#utility.yul\":57:76   */\n      swap1\n      pop\n        /* \"#utility.yul\":7:82   */\n      swap1\n      jump\t// out\n        /* \"#utility.yul\":88:205   */\n    tag_187:\n        /* \"#utility.yul\":197:198   */\n      0x00\n        /* \"#utility.yul\":194:195   */\n      0x00\n        /* \"#utility.yul\":187:199   */\n      revert\n        /* \"#utility.yul\":211:328   */\n    tag_188:\n        /* \"#utility.yul\":320:321   */\n      0x00\n        /* \"#utility.yul\":317:318   */\n      0x00\n        /* \"#utility.yul\":310:322   */\n      revert\n        /* \"#utility.yul\":334:451   */\n    tag_189:\n        /* \"#utility.yul\":443:444   */\n      0x00\n        /* \"#utility.yul\":440:441   */\n      0x00\n        /* \"#utility.yul\":433:445   */\n      revert\n        /* \"#utility.yul\":457:574   */\n    tag_190:\n        /* \"#utility.yul\":566:567   */\n      0x00\n        /* \"#utility.yul\":563:564   */\n      0x00\n        /* \"#utility.yul\":556:568   */\n      revert\n        /* \"#utility.yul\":580:682   */\n    tag_191:\n        /* \"#utility.yul\":621:627   */\n      0x00\n        /* \"#utility.yul\":672:674   */\n      0x1f\n        /* \"#utility.yul\":668:675   */\n      not\n        /* \"#utility.yul\":663:665   */\n      0x1f\n        /* \"#utility.yul\":656:661   */\n      dup4\n        /* \"#utility.yul\":652:666   */\n      add\n        /* \"#utility.yul\":648:676   */\n      and\n        /* \"#utility.yul\":638:676   */\n      swap1\n      pop\n        /* \"#utility.yul\":580:682   */\n      swap2\n      swap1\n      pop\n      jump\t// out\n        /* \"#utility.yul\":688:868   */\n    tag_48:\n        /* \"#utility.yul\":736:813   */\n      0x4e487b7100000000000000000000000000000000000000000000000000000000\n        /* \"#utility.yul\":733:734   */\n      0x00\n        /* \"#utility.yul\":726:814   */\n      mstore\n        /* \"#utility.yul\":833:837   */\n      0x41\n        /* \"#utility.yul\":830:831   */\n      0x04\n        /* \"#utility.yul\":823:838   */\n      mstore\n        /* \"#utility.yul\":857:861   */\n      0x24\n        /* \"#utility.yul\":854:855   */\n      0x00\n        /* \"#utility.yul\":847:862   */\n      revert\n        /* \"#utility.yul\":874:1155   */\n    tag_192:\n        /* \"#utility.yul\":957:984   */\n      tag_223\n        /* \"#utility.yul\":979:983   */\n      dup3\n        /* \"#utility.yul\":957:984   */\n      tag_191\n      jump\t// in\n    tag_223:\n        /* \"#utility.yul\":949:955   */\n      dup2\n        /* \"#utility.yul\":945:985   */\n      add\n        /* \"#utility.yul\":1087:1093   */\n      dup2\n        /* \"#utility.yul\":1075:1085   */\n      dup2\n        /* \"#utility.yul\":1072:1094   */\n      lt\n        /* \"#utility.yul\":1051:1069   */\n      0xffffffffffffffff\n        /* \"#utility.yul\":1039:1049   */\n      dup3\n        /* \"#utility.yul\":1036:1070   */\n      gt\n        /* \"#utility.yul\":1033:1095   */\n      or\n        /* \"#utility.yul\":1030:1118   */\n      iszero\n      tag_224\n      jumpi\n        /* \"#utility.yul\":1098:1116   */\n      tag_225\n      tag_48\n      jump\t// in\n    tag_225:\n        /* \"#utility.yul\":1030:1118   */\n    tag_224:\n        /* \"#utility.yul\":1138:1148   */\n      dup1\n        /* \"#utility.yul\":1134:1136   */\n      0x40\n        /* \"#utility.yul\":1127:1149   */\n      mstore\n        /* \"#utility.yul\":917:1155   */\n      pop\n        /* \"#utility.yul\":874:1155   */\n      pop\n      pop\n      jump\t// out\n        /* \"#utility.yul\":1161:1290   */\n    tag_193:\n        /* \"#utility.yul\":1195:1201   */\n      0x00\n        /* \"#utility.yul\":1222:1242   */\n      tag_227\n      tag_186\n      jump\t// in\n    tag_227:\n        /* \"#utility.yul\":1212:1242   */\n      swap1\n      pop\n        /* \"#utility.yul\":1251:1284   */\n      tag_228\n        /* \"#utility.yul\":1279:1283   */\n      dup3\n        /* \"#utility.yul\":1271:1277   */\n      dup3\n        /* \"#utility.yul\":1251:1284   */\n      tag_192\n      jump\t// in\n    tag_228:\n        /* \"#utility.yul\":1161:1290   */\n      swap2\n      swap1\n      pop\n      jump\t// out\n        /* \"#utility.yul\":1296:1604   */\n    tag_194:\n        /* \"#utility.yul\":1358:1362   */\n      0x00\n        /* \"#utility.yul\":1448:1466   */\n      0xffffffffffffffff\n        /* \"#utility.yul\":1440:1446   */\n      dup3\n        /* \"#utility.yul\":1437:1467   */\n      gt\n        /* \"#utility.yul\":1434:1490   */\n      iszero\n      tag_230\n      jumpi\n        /* \"#utility.yul\":1470:1488   */\n      tag_231\n      tag_48\n      jump\t// in\n    tag_231:\n        /* \"#utility.yul\":1434:1490   */\n    tag_230:\n        /* \"#utility.yul\":1508:1537   */\n      tag_232\n        /* \"#utility.yul\":1530:1536   */\n      dup3\n        /* \"#utility.yul\":1508:1537   */\n      tag_191\n      jump\t// in\n    tag_232:\n        /* \"#utility.yul\":1500:1537   */\n      swap1\n      pop\n        /* \"#utility.yul\":1592:1596   */\n      0x20\n        /* \"#utility.yul\":1586:1590   */\n      dup2\n        /* \"#utility.yul\":1582:1597   */\n      add\n        /* \"#utility.yul\":1574:1597   */\n      swap1\n      pop\n        /* \"#utility.yul\":1296:1604   */\n      swap2\n      swap1\n      pop\n      jump\t// out\n        /* \"#utility.yul\":1610:1758   */\n    tag_195:\n        /* \"#utility.yul\":1708:1714   */\n      dup3\n        /* \"#utility.yul\":1703:1706   */\n      dup2\n        /* \"#utility.yul\":1698:1701   */\n      dup4\n        /* \"#utility.yul\":1685:1715   */\n      calldatacopy\n        /* \"#utility.yul\":1749:1750   */\n      0x00\n        /* \"#utility.yul\":1740:1746   */\n      dup4\n        /* \"#utility.yul\":1735:1738   */\n      dup4\n        /* \"#utility.yul\":1731:1747   */\n      add\n        /* \"#utility.yul\":1724:1751   */\n      mstore\n        /* \"#utility.yul\":1610:1758   */\n      pop\n      pop\n      pop\n      jump\t// out\n        /* \"#utility.yul\":1764:2189   */\n    tag_196:\n        /* \"#utility.yul\":1842:1847   */\n      0x00\n        /* \"#utility.yul\":1867:1933   */\n      tag_235\n        /* \"#utility.yul\":1883:1932   */\n      tag_236\n        /* \"#utility.yul\":1925:1931   */\n      dup5\n        /* \"#utility.yul\":1883:1932   */\n      tag_194\n      jump\t// in\n    tag_236:\n        /* \"#utility.yul\":1867:1933   */\n      tag_193\n      jump\t// in\n    tag_235:\n        /* \"#utility.yul\":1858:1933   */\n      swap1\n      pop\n        /* \"#utility.yul\":1956:1962   */\n      dup3\n        /* \"#utility.yul\":1949:1954   */\n      dup2\n        /* \"#utility.yul\":1942:1963   */\n      mstore\n        /* \"#utility.yul\":1994:1998   */\n      0x20\n        /* \"#utility.yul\":1987:1992   */\n      dup2\n        /* \"#utility.yul\":1983:1999   */\n      add\n        /* \"#utility.yul\":2032:2035   */\n      dup5\n        /* \"#utility.yul\":2023:2029   */\n      dup5\n        /* \"#utility.yul\":2018:2021   */\n      dup5\n        /* \"#utility.yul\":2014:2030   */\n      add\n        /* \"#utility.yul\":2011:2036   */\n      gt\n        /* \"#utility.yul\":2008:2120   */\n      iszero\n      tag_237\n      jumpi\n        /* \"#utility.yul\":2039:2118   */\n      tag_238\n      tag_190\n      jump\t// in\n    tag_238:\n        /* \"#utility.yul\":2008:2120   */\n    tag_237:\n        /* \"#utility.yul\":2129:2183   */\n      tag_239\n        /* \"#utility.yul\":2176:2182   */\n      dup5\n        /* \"#utility.yul\":2171:2174   */\n      dup3\n        /* \"#utility.yul\":2166:2169   */\n      dup6\n        /* \"#utility.yul\":2129:2183   */\n      tag_195\n      jump\t// in\n    tag_239:\n        /* \"#utility.yul\":1848:2189   */\n      pop\n        /* \"#utility.yul\":1764:2189   */\n      swap4\n      swap3\n      pop\n      pop\n      pop\n      jump\t// out\n        /* \"#utility.yul\":2209:2549   */\n    tag_197:\n        /* \"#utility.yul\":2265:2270   */\n      0x00\n        /* \"#utility.yul\":2314:2317   */\n      dup3\n        /* \"#utility.yul\":2307:2311   */\n      0x1f\n        /* \"#utility.yul\":2299:2305   */\n      dup4\n        /* \"#utility.yul\":2295:2312   */\n      add\n        /* \"#utility.yul\":2291:2318   */\n      slt\n        /* \"#utility.yul\":2281:2403   */\n      tag_241\n      jumpi\n        /* \"#utility.yul\":2322:2401   */\n      tag_242\n      tag_189\n      jump\t// in\n    tag_242:\n        /* \"#utility.yul\":2281:2403   */\n    tag_241:\n        /* \"#utility.yul\":2439:2445   */\n      dup2\n        /* \"#utility.yul\":2426:2446   */\n      calldataload\n        /* \"#utility.yul\":2464:2543   */\n      tag_243\n        /* \"#utility.yul\":2539:2542   */\n      dup5\n        /* \"#utility.yul\":2531:2537   */\n      dup3\n        /* \"#utility.yul\":2524:2528   */\n      0x20\n        /* \"#utility.yul\":2516:2522   */\n      dup7\n        /* \"#utility.yul\":2512:2529   */\n      add\n        /* \"#utility.yul\":2464:2543   */\n      tag_196\n      jump\t// in\n    tag_243:\n        /* \"#utility.yul\":2455:2543   */\n      swap2\n      pop\n        /* \"#utility.yul\":2271:2549   */\n      pop\n        /* \"#utility.yul\":2209:2549   */\n      swap3\n      swap2\n      pop\n      pop\n      jump\t// out\n        /* \"#utility.yul\":2555:3064   */\n    tag_8:\n        /* \"#utility.yul\":2624:2630   */\n      0x00\n        /* \"#utility.yul\":2673:2675   */\n      0x20\n        /* \"#utility.yul\":2661:2670   */\n      dup3\n        /* \"#utility.yul\":2652:2659   */\n      dup5\n        /* \"#utility.yul\":2648:2671   */\n      sub\n        /* \"#utility.yul\":2644:2676   */\n      slt\n        /* \"#utility.yul\":2641:2760   */\n      iszero\n      tag_245\n      jumpi\n        /* \"#utility.yul\":2679:2758   */\n      tag_246\n      tag_187\n      jump\t// in\n    tag_246:\n        /* \"#utility.yul\":2641:2760   */\n    tag_245:\n        /* \"#utility.yul\":2827:2828   */\n      0x00\n        /* \"#utility.yul\":2816:2825   */\n      dup3\n        /* \"#utility.yul\":2812:2829   */\n      add\n        /* \"#utility.yul\":2799:2830   */\n      calldataload\n        /* \"#utility.yul\":2857:2875   */\n      0xffffffffffffffff\n        /* \"#utility.yul\":2849:2855   */\n      dup2\n        /* \"#utility.yul\":2846:2876   */\n      gt\n        /* \"#utility.yul\":2843:2960   */\n      iszero\n      tag_247\n      jumpi\n        /* \"#utility.yul\":2879:2958   */\n      tag_248\n      tag_188\n      jump\t// in\n    tag_248:\n        /* \"#utility.yul\":2843:2960   */\n    tag_247:\n        /* \"#utility.yul\":2984:3047   */\n      tag_249\n        /* \"#utility.yul\":3039:3046   */\n      dup5\n        /* \"#utility.yul\":3030:3036   */\n      dup3\n        /* \"#utility.yul\":3019:3028   */\n      dup6\n        /* \"#utility.yul\":3015:3037   */\n      add\n        /* \"#utility.yul\":2984:3047   */\n      tag_197\n      jump\t// in\n    tag_249:\n        /* \"#utility.yul\":2974:3047   */\n      swap2\n      pop\n        /* \"#utility.yul\":2770:3057   */\n      pop\n        /* \"#utility.yul\":2555:3064   */\n      swap3\n      swap2\n      pop\n      pop\n      jump\t// out\n        /* \"#utility.yul\":3070:3219   */\n    tag_198:\n        /* \"#utility.yul\":3106:3113   */\n      0x00\n        /* \"#utility.yul\":3146:3212   */\n      0xff00000000000000000000000000000000000000000000000000000000000000\n        /* \"#utility.yul\":3139:3144   */\n      dup3\n        /* \"#utility.yul\":3135:3213   */\n      and\n        /* \"#utility.yul\":3124:3213   */\n      swap1\n      pop\n        /* \"#utility.yul\":3070:3219   */\n      swap2\n      swap1\n      pop\n      jump\t// out\n        /* \"#utility.yul\":3225:3340   */\n    tag_199:\n        /* \"#utility.yul\":3310:3333   */\n      tag_252\n        /* \"#utility.yul\":3327:3332   */\n      dup2\n        /* \"#utility.yul\":3310:3333   */\n      tag_198\n      jump\t// in\n    tag_252:\n        /* \"#utility.yul\":3305:3308   */\n      dup3\n        /* \"#utility.yul\":3298:3334   */\n      mstore\n        /* \"#utility.yul\":3225:3340   */\n      pop\n      pop\n      jump\t// out\n        /* \"#utility.yul\":3346:3564   */\n    tag_11:\n        /* \"#utility.yul\":3437:3441   */\n      0x00\n        /* \"#utility.yul\":3475:3477   */\n      0x20\n        /* \"#utility.yul\":3464:3473   */\n      dup3\n        /* \"#utility.yul\":3460:3478   */\n      add\n        /* \"#utility.yul\":3452:3478   */\n      swap1\n      pop\n        /* \"#utility.yul\":3488:3557   */\n      tag_254\n        /* \"#utility.yul\":3554:3555   */\n      0x00\n        /* \"#utility.yul\":3543:3552   */\n      dup4\n        /* \"#utility.yul\":3539:3556   */\n      add\n        /* \"#utility.yul\":3530:3536   */\n      dup5\n        /* \"#utility.yul\":3488:3557   */\n      tag_199\n      jump\t// in\n    tag_254:\n        /* \"#utility.yul\":3346:3564   */\n      swap3\n      swap2\n      pop\n      pop\n      jump\t// out\n        /* \"#utility.yul\":3570:3647   */\n    tag_200:\n        /* \"#utility.yul\":3607:3614   */\n      0x00\n        /* \"#utility.yul\":3636:3641   */\n      dup2\n        /* \"#utility.yul\":3625:3641   */\n      swap1\n      pop\n        /* \"#utility.yul\":3570:3647   */\n      swap2\n      swap1\n      pop\n      jump\t// out\n        /* \"#utility.yul\":3653:3775   */\n    tag_201:\n        /* \"#utility.yul\":3726:3750   */\n      tag_257\n        /* \"#utility.yul\":3744:3749   */\n      dup2\n        /* \"#utility.yul\":3726:3750   */\n      tag_200\n      jump\t// in\n    tag_257:\n        /* \"#utility.yul\":3719:3724   */\n      dup2\n        /* \"#utility.yul\":3716:3751   */\n      eq\n        /* \"#utility.yul\":3706:3769   */\n      tag_258\n      jumpi\n        /* \"#utility.yul\":3765:3766   */\n      0x00\n        /* \"#utility.yul\":3762:3763   */\n      0x00\n        /* \"#utility.yul\":3755:3767   */\n      revert\n        /* \"#utility.yul\":3706:3769   */\n    tag_258:\n        /* \"#utility.yul\":3653:3775   */\n      pop\n      jump\t// out\n        /* \"#utility.yul\":3781:3920   */\n    tag_202:\n        /* \"#utility.yul\":3827:3832   */\n      0x00\n        /* \"#utility.yul\":3865:3871   */\n      dup2\n        /* \"#utility.yul\":3852:3872   */\n      calldataload\n        /* \"#utility.yul\":3843:3872   */\n      swap1\n      pop\n        /* \"#utility.yul\":3881:3914   */\n      tag_260\n        /* \"#utility.yul\":3908:3913   */\n      dup2\n        /* \"#utility.yul\":3881:3914   */\n      tag_201\n      jump\t// in\n    tag_260:\n        /* \"#utility.yul\":3781:3920   */\n      swap3\n      swap2\n      pop\n      pop\n      jump\t// out\n        /* \"#utility.yul\":3926:4255   */\n    tag_14:\n        /* \"#utility.yul\":3985:3991   */\n      0x00\n        /* \"#utility.yul\":4034:4036   */\n      0x20\n        /* \"#utility.yul\":4022:4031   */\n      dup3\n        /* \"#utility.yul\":4013:4020   */\n      dup5\n        /* \"#utility.yul\":4009:4032   */\n      sub\n        /* \"#utility.yul\":4005:4037   */\n      slt\n        /* \"#utility.yul\":4002:4121   */\n      iszero\n      tag_262\n      jumpi\n        /* \"#utility.yul\":4040:4119   */\n      tag_263\n      tag_187\n      jump\t// in\n    tag_263:\n        /* \"#utility.yul\":4002:4121   */\n    tag_262:\n        /* \"#utility.yul\":4160:4161   */\n      0x00\n        /* \"#utility.yul\":4185:4238   */\n      tag_264\n        /* \"#utility.yul\":4230:4237   */\n      dup5\n        /* \"#utility.yul\":4221:4227   */\n      dup3\n        /* \"#utility.yul\":4210:4219   */\n      dup6\n        /* \"#utility.yul\":4206:4228   */\n      add\n        /* \"#utility.yul\":4185:4238   */\n      tag_202\n      jump\t// in\n    tag_264:\n        /* \"#utility.yul\":4175:4238   */\n      swap2\n      pop\n        /* \"#utility.yul\":4131:4248   */\n      pop\n        /* \"#utility.yul\":3926:4255   */\n      swap3\n      swap2\n      pop\n      pop\n      jump\t// out\n        /* \"#utility.yul\":4261:4359   */\n    tag_203:\n        /* \"#utility.yul\":4312:4318   */\n      0x00\n        /* \"#utility.yul\":4346:4351   */\n      dup2\n        /* \"#utility.yul\":4340:4352   */\n      mload\n        /* \"#utility.yul\":4330:4352   */\n      swap1\n      pop\n        /* \"#utility.yul\":4261:4359   */\n      swap2\n      swap1\n      pop\n      jump\t// out\n        /* \"#utility.yul\":4365:4533   */\n    tag_204:\n        /* \"#utility.yul\":4448:4459   */\n      0x00\n        /* \"#utility.yul\":4482:4488   */\n      dup3\n        /* \"#utility.yul\":4477:4480   */\n      dup3\n        /* \"#utility.yul\":4470:4489   */\n      mstore\n        /* \"#utility.yul\":4522:4526   */\n      0x20\n        /* \"#utility.yul\":4517:4520   */\n      dup3\n        /* \"#utility.yul\":4513:4527   */\n      add\n        /* \"#utility.yul\":4498:4527   */\n      swap1\n      pop\n        /* \"#utility.yul\":4365:4533   */\n      swap3\n      swap2\n      pop\n      pop\n      jump\t// out\n        /* \"#utility.yul\":4539:4678   */\n    tag_205:\n        /* \"#utility.yul\":4628:4634   */\n      dup3\n        /* \"#utility.yul\":4623:4626   */\n      dup2\n        /* \"#utility.yul\":4618:4621   */\n      dup4\n        /* \"#utility.yul\":4612:4635   */\n      mcopy\n        /* \"#utility.yul\":4669:4670   */\n      0x00\n        /* \"#utility.yul\":4660:4666   */\n      dup4\n        /* \"#utility.yul\":4655:4658   */\n      dup4\n        /* \"#utility.yul\":4651:4667   */\n      add\n        /* \"#utility.yul\":4644:4671   */\n      mstore\n        /* \"#utility.yul\":4539:4678   */\n      pop\n      pop\n      pop\n      jump\t// out\n        /* \"#utility.yul\":4684:5057   */\n    tag_206:\n        /* \"#utility.yul\":4770:4773   */\n      0x00\n        /* \"#utility.yul\":4798:4836   */\n      tag_269\n        /* \"#utility.yul\":4830:4835   */\n      dup3\n        /* \"#utility.yul\":4798:4836   */\n      tag_203\n      jump\t// in\n    tag_269:\n        /* \"#utility.yul\":4852:4922   */\n      tag_270\n        /* \"#utility.yul\":4915:4921   */\n      dup2\n        /* \"#utility.yul\":4910:4913   */\n      dup6\n        /* \"#utility.yul\":4852:4922   */\n      tag_204\n      jump\t// in\n    tag_270:\n        /* \"#utility.yul\":4845:4922   */\n      swap4\n      pop\n        /* \"#utility.yul\":4931:4996   */\n      tag_271\n        /* \"#utility.yul\":4989:4995   */\n      dup2\n        /* \"#utility.yul\":4984:4987   */\n      dup6\n        /* \"#utility.yul\":4977:4981   */\n      0x20\n        /* \"#utility.yul\":4970:4975   */\n      dup7\n        /* \"#utility.yul\":4966:4982   */\n      add\n        /* \"#utility.yul\":4931:4996   */\n      tag_205\n      jump\t// in\n    tag_271:\n        /* \"#utility.yul\":5021:5050   */\n      tag_272\n        /* \"#utility.yul\":5043:5049   */\n      dup2\n        /* \"#utility.yul\":5021:5050   */\n      tag_191\n      jump\t// in\n    tag_272:\n        /* \"#utility.yul\":5016:5019   */\n      dup5\n        /* \"#utility.yul\":5012:5051   */\n      add\n        /* \"#utility.yul\":5005:5051   */\n      swap2\n      pop\n        /* \"#utility.yul\":4774:5057   */\n      pop\n        /* \"#utility.yul\":4684:5057   */\n      swap3\n      swap2\n      pop\n      pop\n      jump\t// out\n        /* \"#utility.yul\":5063:5372   */\n    tag_17:\n        /* \"#utility.yul\":5174:5178   */\n      0x00\n        /* \"#utility.yul\":5212:5214   */\n      0x20\n        /* \"#utility.yul\":5201:5210   */\n      dup3\n        /* \"#utility.yul\":5197:5215   */\n      add\n        /* \"#utility.yul\":5189:5215   */\n      swap1\n      pop\n        /* \"#utility.yul\":5261:5270   */\n      dup2\n        /* \"#utility.yul\":5255:5259   */\n      dup2\n        /* \"#utility.yul\":5251:5271   */\n      sub\n        /* \"#utility.yul\":5247:5248   */\n      0x00\n        /* \"#utility.yul\":5236:5245   */\n      dup4\n        /* \"#utility.yul\":5232:5249   */\n      add\n        /* \"#utility.yul\":5225:5272   */\n      mstore\n        /* \"#utility.yul\":5289:5365   */\n      tag_274\n        /* \"#utility.yul\":5360:5364   */\n      dup2\n        /* \"#utility.yul\":5351:5357   */\n      dup5\n        /* \"#utility.yul\":5289:5365   */\n      tag_206\n      jump\t// in\n    tag_274:\n        /* \"#utility.yul\":5281:5365   */\n      swap1\n      pop\n        /* \"#utility.yul\":5063:5372   */\n      swap3\n      swap2\n      pop\n      pop\n      jump\t// out\n        /* \"#utility.yul\":5378:5496   */\n    tag_207:\n        /* \"#utility.yul\":5465:5489   */\n      tag_276\n        /* \"#utility.yul\":5483:5488   */\n      dup2\n        /* \"#utility.yul\":5465:5489   */\n      tag_200\n      jump\t// in\n    tag_276:\n        /* \"#utility.yul\":5460:5463   */\n      dup3\n        /* \"#utility.yul\":5453:5490   */\n      mstore\n        /* \"#utility.yul\":5378:5496   */\n      pop\n      pop\n      jump\t// out\n        /* \"#utility.yul\":5502:5724   */\n    tag_22:\n        /* \"#utility.yul\":5595:5599   */\n      0x00\n        /* \"#utility.yul\":5633:5635   */\n      0x20\n        /* \"#utility.yul\":5622:5631   */\n      dup3\n        /* \"#utility.yul\":5618:5636   */\n      add\n        /* \"#utility.yul\":5610:5636   */\n      swap1\n      pop\n        /* \"#utility.yul\":5646:5717   */\n      tag_278\n        /* \"#utility.yul\":5714:5715   */\n      0x00\n        /* \"#utility.yul\":5703:5712   */\n      dup4\n        /* \"#utility.yul\":5699:5716   */\n      add\n        /* \"#utility.yul\":5690:5696   */\n      dup5\n        /* \"#utility.yul\":5646:5717   */\n      tag_207\n      jump\t// in\n    tag_278:\n        /* \"#utility.yul\":5502:5724   */\n      swap3\n      swap2\n      pop\n      pop\n      jump\t// out\n        /* \"#utility.yul\":5730:5910   */\n    tag_26:\n        /* \"#utility.yul\":5778:5855   */\n      0x4e487b7100000000000000000000000000000000000000000000000000000000\n        /* \"#utility.yul\":5775:5776   */\n      0x00\n        /* \"#utility.yul\":5768:5856   */\n      mstore\n        /* \"#utility.yul\":5875:5879   */\n      0x32\n        /* \"#utility.yul\":5872:5873   */\n      0x04\n        /* \"#utility.yul\":5865:5880   */\n      mstore\n        /* \"#utility.yul\":5899:5903   */\n      0x24\n        /* \"#utility.yul\":5896:5897   */\n      0x00\n        /* \"#utility.yul\":5889:5904   */\n      revert\n        /* \"#utility.yul\":5916:6085   */\n    tag_208:\n        /* \"#utility.yul\":6000:6011   */\n      0x00\n        /* \"#utility.yul\":6034:6040   */\n      dup3\n        /* \"#utility.yul\":6029:6032   */\n      dup3\n        /* \"#utility.yul\":6022:6041   */\n      mstore\n        /* \"#utility.yul\":6074:6078   */\n      0x20\n        /* \"#utility.yul\":6069:6072   */\n      dup3\n        /* \"#utility.yul\":6065:6079   */\n      add\n        /* \"#utility.yul\":6050:6079   */\n      swap1\n      pop\n        /* \"#utility.yul\":5916:6085   */\n      swap3\n      swap2\n      pop\n      pop\n      jump\t// out\n        /* \"#utility.yul\":6091:6262   */\n    tag_209:\n        /* \"#utility.yul\":6231:6254   */\n      0x696e76616c696420737472696e67206c656e6774680000000000000000000000\n        /* \"#utility.yul\":6227:6228   */\n      0x00\n        /* \"#utility.yul\":6219:6225   */\n      dup3\n        /* \"#utility.yul\":6215:6229   */\n      add\n        /* \"#utility.yul\":6208:6255   */\n      mstore\n        /* \"#utility.yul\":6091:6262   */\n      pop\n      jump\t// out\n        /* \"#utility.yul\":6268:6634   */\n    tag_210:\n        /* \"#utility.yul\":6410:6413   */\n      0x00\n        /* \"#utility.yul\":6431:6498   */\n      tag_283\n        /* \"#utility.yul\":6495:6497   */\n      0x15\n        /* \"#utility.yul\":6490:6493   */\n      dup4\n        /* \"#utility.yul\":6431:6498   */\n      tag_208\n      jump\t// in\n    tag_283:\n        /* \"#utility.yul\":6424:6498   */\n      swap2\n      pop\n        /* \"#utility.yul\":6507:6600   */\n      tag_284\n        /* \"#utility.yul\":6596:6599   */\n      dup3\n        /* \"#utility.yul\":6507:6600   */\n      tag_209\n      jump\t// in\n    tag_284:\n        /* \"#utility.yul\":6625:6627   */\n      0x20\n        /* \"#utility.yul\":6620:6623   */\n      dup3\n        /* \"#utility.yul\":6616:6628   */\n      add\n        /* \"#utility.yul\":6609:6628   */\n      swap1\n      pop\n        /* \"#utility.yul\":6268:6634   */\n      swap2\n      swap1\n      pop\n      jump\t// out\n        /* \"#utility.yul\":6640:7059   */\n    tag_34:\n        /* \"#utility.yul\":6806:6810   */\n      0x00\n        /* \"#utility.yul\":6844:6846   */\n      0x20\n        /* \"#utility.yul\":6833:6842   */\n      dup3\n        /* \"#utility.yul\":6829:6847   */\n      add\n        /* \"#utility.yul\":6821:6847   */\n      swap1\n      pop\n        /* \"#utility.yul\":6893:6902   */\n      dup2\n        /* \"#utility.yul\":6887:6891   */\n      dup2\n        /* \"#utility.yul\":6883:6903   */\n      sub\n        /* \"#utility.yul\":6879:6880   */\n      0x00\n        /* \"#utility.yul\":6868:6877   */\n      dup4\n        /* \"#utility.yul\":6864:6881   */\n      add\n        /* \"#utility.yul\":6857:6904   */\n      mstore\n        /* \"#utility.yul\":6921:7052   */\n      tag_286\n        /* \"#utility.yul\":7047:7051   */\n      dup2\n        /* \"#utility.yul\":6921:7052   */\n      tag_210\n      jump\t// in\n    tag_286:\n        /* \"#utility.yul\":6913:7052   */\n      swap1\n      pop\n        /* \"#utility.yul\":6640:7059   */\n      swap2\n      swap1\n      pop\n      jump\t// out\n        /* \"#utility.yul\":7065:7229   */\n    tag_211:\n        /* \"#utility.yul\":7205:7221   */\n      0x696e76616c696420737472696e67000000000000000000000000000000000000\n        /* \"#utility.yul\":7201:7202   */\n      0x00\n        /* \"#utility.yul\":7193:7199   */\n      dup3\n        /* \"#utility.yul\":7189:7203   */\n      add\n        /* \"#utility.yul\":7182:7222   */\n      mstore\n        /* \"#utility.yul\":7065:7229   */\n      pop\n      jump\t// out\n        /* \"#utility.yul\":7235:7601   */\n    tag_212:\n        /* \"#utility.yul\":7377:7380   */\n      0x00\n        /* \"#utility.yul\":7398:7465   */\n      tag_289\n        /* \"#utility.yul\":7462:7464   */\n      0x0e\n        /* \"#utility.yul\":7457:7460   */\n      dup4\n        /* \"#utility.yul\":7398:7465   */\n      tag_208\n      jump\t// in\n    tag_289:\n        /* \"#utility.yul\":7391:7465   */\n      swap2\n      pop\n        /* \"#utility.yul\":7474:7567   */\n      tag_290\n        /* \"#utility.yul\":7563:7566   */\n      dup3\n        /* \"#utility.yul\":7474:7567   */\n      tag_211\n      jump\t// in\n    tag_290:\n        /* \"#utility.yul\":7592:7594   */\n      0x20\n        /* \"#utility.yul\":7587:7590   */\n      dup3\n        /* \"#utility.yul\":7583:7595   */\n      add\n        /* \"#utility.yul\":7576:7595   */\n      swap1\n      pop\n        /* \"#utility.yul\":7235:7601   */\n      swap2\n      swap1\n      pop\n      jump\t// out\n        /* \"#utility.yul\":7607:8026   */\n    tag_42:\n        /* \"#utility.yul\":7773:7777   */\n      0x00\n        /* \"#utility.yul\":7811:7813   */\n      0x20\n        /* \"#utility.yul\":7800:7809   */\n      dup3\n        /* \"#utility.yul\":7796:7814   */\n      add\n        /* \"#utility.yul\":7788:7814   */\n      swap1\n      pop\n        /* \"#utility.yul\":7860:7869   */\n      dup2\n        /* \"#utility.yul\":7854:7858   */\n      dup2\n        /* \"#utility.yul\":7850:7870   */\n      sub\n        /* \"#utility.yul\":7846:7847   */\n      0x00\n        /* \"#utility.yul\":7835:7844   */\n      dup4\n        /* \"#utility.yul\":7831:7848   */\n      add\n        /* \"#utility.yul\":7824:7871   */\n      mstore\n        /* \"#utility.yul\":7888:8019   */\n      tag_292\n        /* \"#utility.yul\":8014:8018   */\n      dup2\n        /* \"#utility.yul\":7888:8019   */\n      tag_212\n      jump\t// in\n    tag_292:\n        /* \"#utility.yul\":7880:8019   */\n      swap1\n      pop\n        /* \"#utility.yul\":7607:8026   */\n      swap2\n      swap1\n      pop\n      jump\t// out\n        /* \"#utility.yul\":8032:8212   */\n    tag_213:\n        /* \"#utility.yul\":8080:8157   */\n      0x4e487b7100000000000000000000000000000000000000000000000000000000\n        /* \"#utility.yul\":8077:8078   */\n      0x00\n        /* \"#utility.yul\":8070:8158   */\n      mstore\n        /* \"#utility.yul\":8177:8181   */\n      0x11\n        /* \"#utility.yul\":8174:8175   */\n      0x04\n        /* \"#utility.yul\":8167:8182   */\n      mstore\n        /* \"#utility.yul\":8201:8205   */\n      0x24\n        /* \"#utility.yul\":8198:8199   */\n      0x00\n        /* \"#utility.yul\":8191:8206   */\n      revert\n        /* \"#utility.yul\":8218:8412   */\n    tag_61:\n        /* \"#utility.yul\":8258:8262   */\n      0x00\n        /* \"#utility.yul\":8278:8298   */\n      tag_295\n        /* \"#utility.yul\":8296:8297   */\n      dup3\n        /* \"#utility.yul\":8278:8298   */\n      tag_200\n      jump\t// in\n    tag_295:\n        /* \"#utility.yul\":8273:8298   */\n      swap2\n      pop\n        /* \"#utility.yul\":8312:8332   */\n      tag_296\n        /* \"#utility.yul\":8330:8331   */\n      dup4\n        /* \"#utility.yul\":8312:8332   */\n      tag_200\n      jump\t// in\n    tag_296:\n        /* \"#utility.yul\":8307:8332   */\n      swap3\n      pop\n        /* \"#utility.yul\":8356:8357   */\n      dup3\n        /* \"#utility.yul\":8353:8354   */\n      dup3\n        /* \"#utility.yul\":8349:8358   */\n      sub\n        /* \"#utility.yul\":8341:8358   */\n      swap1\n      pop\n        /* \"#utility.yul\":8380:8381   */\n      dup2\n        /* \"#utility.yul\":8374:8378   */\n      dup2\n        /* \"#utility.yul\":8371:8382   */\n      gt\n        /* \"#utility.yul\":8368:8405   */\n      iszero\n      tag_297\n      jumpi\n        /* \"#utility.yul\":8385:8403   */\n      tag_298\n      tag_213\n      jump\t// in\n    tag_298:\n        /* \"#utility.yul\":8368:8405   */\n    tag_297:\n        /* \"#utility.yul\":8218:8412   */\n      swap3\n      swap2\n      pop\n      pop\n      jump\t// out\n        /* \"#utility.yul\":8418:8609   */\n    tag_66:\n        /* \"#utility.yul\":8458:8461   */\n      0x00\n        /* \"#utility.yul\":8477:8497   */\n      tag_300\n        /* \"#utility.yul\":8495:8496   */\n      dup3\n        /* \"#utility.yul\":8477:8497   */\n      tag_200\n      jump\t// in\n    tag_300:\n        /* \"#utility.yul\":8472:8497   */\n      swap2\n      pop\n        /* \"#utility.yul\":8511:8531   */\n      tag_301\n        /* \"#utility.yul\":8529:8530   */\n      dup4\n        /* \"#utility.yul\":8511:8531   */\n      tag_200\n      jump\t// in\n    tag_301:\n        /* \"#utility.yul\":8506:8531   */\n      swap3\n      pop\n        /* \"#utility.yul\":8554:8555   */\n      dup3\n        /* \"#utility.yul\":8551:8552   */\n      dup3\n        /* \"#utility.yul\":8547:8556   */\n      add\n        /* \"#utility.yul\":8540:8556   */\n      swap1\n      pop\n        /* \"#utility.yul\":8575:8578   */\n      dup1\n        /* \"#utility.yul\":8572:8573   */\n      dup3\n        /* \"#utility.yul\":8569:8579   */\n      gt\n        /* \"#utility.yul\":8566:8602   */\n      iszero\n      tag_302\n      jumpi\n        /* \"#utility.yul\":8582:8600   */\n      tag_303\n      tag_213\n      jump\t// in\n    tag_303:\n        /* \"#utility.yul\":8566:8602   */\n    tag_302:\n        /* \"#utility.yul\":8418:8609   */\n      swap3\n      swap2\n      pop\n      pop\n      jump\t// out\n        /* \"#utility.yul\":8615:8848   */\n    tag_76:\n        /* \"#utility.yul\":8654:8657   */\n      0x00\n        /* \"#utility.yul\":8677:8701   */\n      tag_305\n        /* \"#utility.yul\":8695:8700   */\n      dup3\n        /* \"#utility.yul\":8677:8701   */\n      tag_200\n      jump\t// in\n    tag_305:\n        /* \"#utility.yul\":8668:8701   */\n      swap2\n      pop\n        /* \"#utility.yul\":8723:8789   */\n      0xffffffffffffffffffffffffffffffffffffffffffffffffffffffffffffffff\n        /* \"#utility.yul\":8716:8721   */\n      dup3\n        /* \"#utility.yul\":8713:8790   */\n      sub\n        /* \"#utility.yul\":8710:8813   */\n      tag_306\n      jumpi\n        /* \"#utility.yul\":8793:8811   */\n      tag_307\n      tag_213\n      jump\t// in\n    tag_307:\n        /* \"#utility.yul\":8710:8813   */\n    tag_306:\n        /* \"#utility.yul\":8840:8841   */\n      0x01\n        /* \"#utility.yul\":8833:8838   */\n      dup3\n        /* \"#utility.yul\":8829:8842   */\n      add\n        /* \"#utility.yul\":8822:8842   */\n      swap1\n      pop\n        /* \"#utility.yul\":8615:8848   */\n      swap2\n      swap1\n      pop\n      jump\t// out\n        /* \"#utility.yul\":8854:9034   */\n    tag_164:\n        /* \"#utility.yul\":8902:8979   */\n      0x4e487b7100000000000000000000000000000000000000000000000000000000\n        /* \"#utility.yul\":8899:8900   */\n      0x00\n        /* \"#utility.yul\":8892:8980   */\n      mstore\n        /* \"#utility.yul\":8999:9003   */\n      0x12\n        /* \"#utility.yul\":8996:8997   */\n      0x04\n        /* \"#utility.yul\":8989:9004   */\n      mstore\n        /* \"#utility.yul\":9023:9027   */\n      0x24\n        /* \"#utility.yul\":9020:9021   */\n      0x00\n        /* \"#utility.yul\":9013:9028   */\n      revert\n\n    auxdata: 0xa26469706673582212207263c5b49c5e9876bf0e488ac05921564d6ec93fab2a343827218c454fb25d7b64736f6c634300081e0033\n}\n",
				"bytecode": {
					"linkReferences": {},
					"object": "608060405234801561000f575f5ffd5b5060015f5f604960f81b7effffffffffffffffffffffffffffffffffffffffffffffffffffffffffffff191681526020019081526020015f208190555060055f5f605660f81b7effffffffffffffffffffffffffffffffffffffffffffffffffffffffffffff191681526020019081526020015f2081905550600a5f5f605860f81b7effffffffffffffffffffffffffffffffffffffffffffffffffffffffffffff191681526020019081526020015f208190555060325f5f604c60f81b7effffffffffffffffffffffffffffffffffffffffffffffffffffffffffffff191681526020019081526020015f208190555060645f5f604360f81b7effffffffffffffffffffffffffffffffffffffffffffffffffffffffffffff191681526020019081526020015f20819055506101f45f5f604460f81b7effffffffffffffffffffffffffffffffffffffffffffffffffffffffffffff191681526020019081526020015f20819055506103e85f5f604d60f81b7effffffffffffffffffffffffffffffffffffffffffffffffffffffffffffff191681526020019081526020015f2081905550610fd1806101c35f395ff3fe608060405234801561000f575f5ffd5b506004361061003f575f3560e01c80639519f1f71461004357806398f0b61214610073578063c1dcab14146100a3575b5f5ffd5b61005d60048036038101906100589190610be7565b6100d3565b60405161006a9190610c68565b60405180910390f35b61008d60048036038101906100889190610cb4565b6100fe565b60405161009a9190610d3f565b60405180910390f35b6100bd60048036038101906100b89190610be7565b61011a565b6040516100ca9190610d6e565b60405180910390f35b5f5f829050805f815181106100eb576100ea610d87565b5b602001015160f81c60f81b915050919050565b60605f61010a8361087f565b90505f8190508092505050919050565b5f5f8290505f81519050600181101580156101365750600f8111155b610175576040517f08c379a000000000000000000000000000000000000000000000000000000000815260040161016c90610e0e565b60405180910390fd5b5f5f90505b81811015610242575f5f5f85848151811061019857610197610d87565b5b602001015160f81c60f81b7effffffffffffffffffffffffffffffffffffffffffffffffffffffffffffff19167effffffffffffffffffffffffffffffffffffffffffffffffffffffffffffff191681526020019081526020015f205403610235576040517f08c379a000000000000000000000000000000000000000000000000000000000815260040161022c90610e76565b60405180910390fd5b808060010191505061017a565b50600181036102c6575f5f835f815181106102605761025f610d87565b5b602001015160f81c60f81b7effffffffffffffffffffffffffffffffffffffffffffffffffffffffffffff19167effffffffffffffffffffffffffffffffffffffffffffffffffffffffffffff191681526020019081526020015f20549250505061087a565b5f8167ffffffffffffffff8111156102e1576102e0610ac3565b5b60405190808252806020026020018201604052801561030f5781602001602082028036833780820191505090505b5090505f5f90505b828110156103bd575f5f85838151811061033457610333610d87565b5b602001015160f81c60f81b7effffffffffffffffffffffffffffffffffffffffffffffffffffffffffffff19167effffffffffffffffffffffffffffffffffffffffffffffffffffffffffffff191681526020019081526020015f20548282815181106103a4576103a3610d87565b5b6020026020010181815250508080600101915050610317565b505f5f90505b6001836103d09190610ec1565b81101561082d5760018282815181106103ec576103eb610d87565b5b6020026020010151148015610427575060058260018361040c9190610ef4565b8151811061041d5761041c610d87565b5b6020026020010151145b1561048c575f8282815181106104405761043f610d87565b5b60200260200101818152505060048260018361045c9190610ef4565b8151811061046d5761046c610d87565b5b602002602001018181525050808061048490610f27565b91505061081a565b60018282815181106104a1576104a0610d87565b5b60200260200101511480156104dc5750600a826001836104c19190610ef4565b815181106104d2576104d1610d87565b5b6020026020010151145b15610541575f8282815181106104f5576104f4610d87565b5b6020026020010181815250506009826001836105119190610ef4565b8151811061052257610521610d87565b5b602002602001018181525050808061053990610f27565b915050610819565b600a82828151811061055657610555610d87565b5b602002602001015114801561059157506032826001836105769190610ef4565b8151811061058757610586610d87565b5b6020026020010151145b156105f6575f8282815181106105aa576105a9610d87565b5b6020026020010181815250506028826001836105c69190610ef4565b815181106105d7576105d6610d87565b5b60200260200101818152505080806105ee90610f27565b915050610818565b600a82828151811061060b5761060a610d87565b5b6020026020010151148015610646575060648260018361062b9190610ef4565b8151811061063c5761063b610d87565b5b6020026020010151145b156106ab575f82828151811061065f5761065e610d87565b5b602002602001018181525050605a8260018361067b9190610ef4565b8151811061068c5761068b610d87565b5b60200260200101818152505080806106a390610f27565b915050610817565b60648282815181106106c0576106bf610d87565b5b60200260200101511480156106fc57506101f4826001836106e19190610ef4565b815181106106f2576106f1610d87565b5b6020026020010151145b15610762575f82828151811061071557610714610d87565b5b602002602001018181525050610190826001836107329190610ef4565b8151811061074357610742610d87565b5b602002602001018181525050808061075a90610f27565b915050610816565b606482828151811061077757610776610d87565b5b60200260200101511480156107b357506103e8826001836107989190610ef4565b815181106107a9576107a8610d87565b5b6020026020010151145b15610815575f8282815181106107cc576107cb610d87565b5b602002602001018181525050610384826001836107e99190610ef4565b815181106107fa576107f9610d87565b5b602002602001018181525050808061081190610f27565b9150505b5b5b5b5b5b808061082590610f27565b9150506103c3565b505f5f5f90505b838110156108715782818151811061084f5761084e610d87565b5b6020026020010151826108629190610ef4565b91508080600101915050610834565b50809450505050505b919050565b60605f600161088d84610949565b0190505f8167ffffffffffffffff8111156108ab576108aa610ac3565b5b6040519080825280601f01601f1916602001820160405280156108dd5781602001600182028036833780820191505090505b5090505f82602083010190505b60011561093e578080600190039150507f3031323334353637383961626364656600000000000000000000000000000000600a86061a8153600a858161093357610932610f6e565b5b0494505f85036108ea575b819350505050919050565b5f5f5f90507a184f03e93ff9f4daa797ed6e38ed64bf6a1f01000000000000000083106109a5577a184f03e93ff9f4daa797ed6e38ed64bf6a1f010000000000000000838161099b5761099a610f6e565b5b0492506040810190505b6d04ee2d6d415b85acef810000000083106109e2576d04ee2d6d415b85acef810000000083816109d8576109d7610f6e565b5b0492506020810190505b662386f26fc100008310610a1157662386f26fc100008381610a0757610a06610f6e565b5b0492506010810190505b6305f5e1008310610a3a576305f5e1008381610a3057610a2f610f6e565b5b0492506008810190505b6127108310610a5f576127108381610a5557610a54610f6e565b5b0492506004810190505b60648310610a825760648381610a7857610a77610f6e565b5b0492506002810190505b600a8310610a91576001810190505b80915050919050565b5f604051905090565b5f5ffd5b5f5ffd5b5f5ffd5b5f5ffd5b5f601f19601f8301169050919050565b7f4e487b71000000000000000000000000000000000000000000000000000000005f52604160045260245ffd5b610af982610ab3565b810181811067ffffffffffffffff82111715610b1857610b17610ac3565b5b80604052505050565b5f610b2a610a9a565b9050610b368282610af0565b919050565b5f67ffffffffffffffff821115610b5557610b54610ac3565b5b610b5e82610ab3565b9050602081019050919050565b828183375f83830152505050565b5f610b8b610b8684610b3b565b610b21565b905082815260208101848484011115610ba757610ba6610aaf565b5b610bb2848285610b6b565b509392505050565b5f82601f830112610bce57610bcd610aab565b5b8135610bde848260208601610b79565b91505092915050565b5f60208284031215610bfc57610bfb610aa3565b5b5f82013567ffffffffffffffff811115610c1957610c18610aa7565b5b610c2584828501610bba565b91505092915050565b5f7fff0000000000000000000000000000000000000000000000000000000000000082169050919050565b610c6281610c2e565b82525050565b5f602082019050610c7b5f830184610c59565b92915050565b5f819050919050565b610c9381610c81565b8114610c9d575f5ffd5b50565b5f81359050610cae81610c8a565b92915050565b5f60208284031215610cc957610cc8610aa3565b5b5f610cd684828501610ca0565b91505092915050565b5f81519050919050565b5f82825260208201905092915050565b8281835e5f83830152505050565b5f610d1182610cdf565b610d1b8185610ce9565b9350610d2b818560208601610cf9565b610d3481610ab3565b840191505092915050565b5f6020820190508181035f830152610d578184610d07565b905092915050565b610d6881610c81565b82525050565b5f602082019050610d815f830184610d5f565b92915050565b7f4e487b71000000000000000000000000000000000000000000000000000000005f52603260045260245ffd5b5f82825260208201905092915050565b7f696e76616c696420737472696e67206c656e67746800000000000000000000005f82015250565b5f610df8601583610db4565b9150610e0382610dc4565b602082019050919050565b5f6020820190508181035f830152610e2581610dec565b9050919050565b7f696e76616c696420737472696e670000000000000000000000000000000000005f82015250565b5f610e60600e83610db4565b9150610e6b82610e2c565b602082019050919050565b5f6020820190508181035f830152610e8d81610e54565b9050919050565b7f4e487b71000000000000000000000000000000000000000000000000000000005f52601160045260245ffd5b5f610ecb82610c81565b9150610ed683610c81565b9250828203905081811115610eee57610eed610e94565b5b92915050565b5f610efe82610c81565b9150610f0983610c81565b9250828201905080821115610f2157610f20610e94565b5b92915050565b5f610f3182610c81565b91507fffffffffffffffffffffffffffffffffffffffffffffffffffffffffffffffff8203610f6357610f62610e94565b5b600182019050919050565b7f4e487b71000000000000000000000000000000000000000000000000000000005f52601260045260245ffdfea26469706673582212207263c5b49c5e9876bf0e488ac05921564d6ec93fab2a343827218c454fb25d7b64736f6c634300081e0033",
					"opcodes": "PUSH1 0x80 PUSH1 0x40 MSTORE CALLVALUE DUP1 ISZERO PUSH2 0xF JUMPI PUSH0 PUSH0 REVERT JUMPDEST POP PUSH1 0x1 PUSH0 PUSH0 PUSH1 0x49 PUSH1 0xF8 SHL PUSH31 0xFFFFFFFFFFFFFFFFFFFFFFFFFFFFFFFFFFFFFFFFFFFFFFFFFFFFFFFFFFFFFF NOT AND DUP2 MSTORE PUSH1 0x20 ADD SWAP1 DUP2 MSTORE PUSH1 0x20 ADD PUSH0 KECCAK256 DUP2 SWAP1 SSTORE POP PUSH1 0x5 PUSH0 PUSH0 PUSH1 0x56 PUSH1 0xF8 SHL PUSH31 0xFFFFFFFFFFFFFFFFFFFFFFFFFFFFFFFFFFFFFFFFFFFFFFFFFFFFFFFFFFFFFF NOT AND DUP2 MSTORE PUSH1 0x20 ADD SWAP1 DUP2 MSTORE PUSH1 0x20 ADD PUSH0 KECCAK256 DUP2 SWAP1 SSTORE POP PUSH1 0xA PUSH0 PUSH0 PUSH1 0x58 PUSH1 0xF8 SHL PUSH31 0xFFFFFFFFFFFFFFFFFFFFFFFFFFFFFFFFFFFFFFFFFFFFFFFFFFFFFFFFFFFFFF NOT AND DUP2 MSTORE PUSH1 0x20 ADD SWAP1 DUP2 MSTORE PUSH1 0x20 ADD PUSH0 KECCAK256 DUP2 SWAP1 SSTORE POP PUSH1 0x32 PUSH0 PUSH0 PUSH1 0x4C PUSH1 0xF8 SHL PUSH31 0xFFFFFFFFFFFFFFFFFFFFFFFFFFFFFFFFFFFFFFFFFFFFFFFFFFFFFFFFFFFFFF NOT AND DUP2 MSTORE PUSH1 0x20 ADD SWAP1 DUP2 MSTORE PUSH1 0x20 ADD PUSH0 KECCAK256 DUP2 SWAP1 SSTORE POP PUSH1 0x64 PUSH0 PUSH0 PUSH1 0x43 PUSH1 0xF8 SHL PUSH31 0xFFFFFFFFFFFFFFFFFFFFFFFFFFFFFFFFFFFFFFFFFFFFFFFFFFFFFFFFFFFFFF NOT AND DUP2 MSTORE PUSH1 0x20 ADD SWAP1 DUP2 MSTORE PUSH1 0x20 ADD PUSH0 KECCAK256 DUP2 SWAP1 SSTORE POP PUSH2 0x1F4 PUSH0 PUSH0 PUSH1 0x44 PUSH1 0xF8 SHL PUSH31 0xFFFFFFFFFFFFFFFFFFFFFFFFFFFFFFFFFFFFFFFFFFFFFFFFFFFFFFFFFFFFFF NOT AND DUP2 MSTORE PUSH1 0x20 ADD SWAP1 DUP2 MSTORE PUSH1 0x20 ADD PUSH0 KECCAK256 DUP2 SWAP1 SSTORE POP PUSH2 0x3E8 PUSH0 PUSH0 PUSH1 0x4D PUSH1 0xF8 SHL PUSH31 0xFFFFFFFFFFFFFFFFFFFFFFFFFFFFFFFFFFFFFFFFFFFFFFFFFFFFFFFFFFFFFF NOT AND DUP2 MSTORE PUSH1 0x20 ADD SWAP1 DUP2 MSTORE PUSH1 0x20 ADD PUSH0 KECCAK256 DUP2 SWAP1 SSTORE POP PUSH2 0xFD1 DUP1 PUSH2 0x1C3 PUSH0 CODECOPY PUSH0 RETURN INVALID PUSH1 0x80 PUSH1 0x40 MSTORE CALLVALUE DUP1 ISZERO PUSH2 0xF JUMPI PUSH0 PUSH0 REVERT JUMPDEST POP PUSH1 0x4 CALLDATASIZE LT PUSH2 0x3F JUMPI PUSH0 CALLDATALOAD PUSH1 0xE0 SHR DUP1 PUSH4 0x9519F1F7 EQ PUSH2 0x43 JUMPI DUP1 PUSH4 0x98F0B612 EQ PUSH2 0x73 JUMPI DUP1 PUSH4 0xC1DCAB14 EQ PUSH2 0xA3 JUMPI JUMPDEST PUSH0 PUSH0 REVERT JUMPDEST PUSH2 0x5D PUSH1 0x4 DUP1 CALLDATASIZE SUB DUP2 ADD SWAP1 PUSH2 0x58 SWAP2 SWAP1 PUSH2 0xBE7 JUMP JUMPDEST PUSH2 0xD3 JUMP JUMPDEST PUSH1 0x40 MLOAD PUSH2 0x6A SWAP2 SWAP1 PUSH2 0xC68 JUMP JUMPDEST PUSH1 0x40 MLOAD DUP1 SWAP2 SUB SWAP1 RETURN JUMPDEST PUSH2 0x8D PUSH1 0x4 DUP1 CALLDATASIZE SUB DUP2 ADD SWAP1 PUSH2 0x88 SWAP2 SWAP1 PUSH2 0xCB4 JUMP JUMPDEST PUSH2 0xFE JUMP JUMPDEST PUSH1 0x40 MLOAD PUSH2 0x9A SWAP2 SWAP1 PUSH2 0xD3F JUMP JUMPDEST PUSH1 0x40 MLOAD DUP1 SWAP2 SUB SWAP1 RETURN JUMPDEST PUSH2 0xBD PUSH1 0x4 DUP1 CALLDATASIZE SUB DUP2 ADD SWAP1 PUSH2 0xB8 SWAP2 SWAP1 PUSH2 0xBE7 JUMP JUMPDEST PUSH2 0x11A JUMP JUMPDEST PUSH1 0x40 MLOAD PUSH2 0xCA SWAP2 SWAP1 PUSH2 0xD6E JUMP JUMPDEST PUSH1 0x40 MLOAD DUP1 SWAP2 SUB SWAP1 RETURN JUMPDEST PUSH0 PUSH0 DUP3 SWAP1 POP DUP1 PUSH0 DUP2 MLOAD DUP2 LT PUSH2 0xEB JUMPI PUSH2 0xEA PUSH2 0xD87 JUMP JUMPDEST JUMPDEST PUSH1 0x20 ADD ADD MLOAD PUSH1 0xF8 SHR PUSH1 0xF8 SHL SWAP2 POP POP SWAP2 SWAP1 POP JUMP JUMPDEST PUSH1 0x60 PUSH0 PUSH2 0x10A DUP4 PUSH2 0x87F JUMP JUMPDEST SWAP1 POP PUSH0 DUP2 SWAP1 POP DUP1 SWAP3 POP POP POP SWAP2 SWAP1 POP JUMP JUMPDEST PUSH0 PUSH0 DUP3 SWAP1 POP PUSH0 DUP2 MLOAD SWAP1 POP PUSH1 0x1 DUP2 LT ISZERO DUP1 ISZERO PUSH2 0x136 JUMPI POP PUSH1 0xF DUP2 GT ISZERO JUMPDEST PUSH2 0x175 JUMPI PUSH1 0x40 MLOAD PUSH32 0x8C379A000000000000000000000000000000000000000000000000000000000 DUP2 MSTORE PUSH1 0x4 ADD PUSH2 0x16C SWAP1 PUSH2 0xE0E JUMP JUMPDEST PUSH1 0x40 MLOAD DUP1 SWAP2 SUB SWAP1 REVERT JUMPDEST PUSH0 PUSH0 SWAP1 POP JUMPDEST DUP2 DUP2 LT ISZERO PUSH2 0x242 JUMPI PUSH0 PUSH0 PUSH0 DUP6 DUP5 DUP2 MLOAD DUP2 LT PUSH2 0x198 JUMPI PUSH2 0x197 PUSH2 0xD87 JUMP JUMPDEST JUMPDEST PUSH1 0x20 ADD ADD MLOAD PUSH1 0xF8 SHR PUSH1 0xF8 SHL PUSH31 0xFFFFFFFFFFFFFFFFFFFFFFFFFFFFFFFFFFFFFFFFFFFFFFFFFFFFFFFFFFFFFF NOT AND PUSH31 0xFFFFFFFFFFFFFFFFFFFFFFFFFFFFFFFFFFFFFFFFFFFFFFFFFFFFFFFFFFFFFF NOT AND DUP2 MSTORE PUSH1 0x20 ADD SWAP1 DUP2 MSTORE PUSH1 0x20 ADD PUSH0 KECCAK256 SLOAD SUB PUSH2 0x235 JUMPI PUSH1 0x40 MLOAD PUSH32 0x8C379A000000000000000000000000000000000000000000000000000000000 DUP2 MSTORE PUSH1 0x4 ADD PUSH2 0x22C SWAP1 PUSH2 0xE76 JUMP JUMPDEST PUSH1 0x40 MLOAD DUP1 SWAP2 SUB SWAP1 REVERT JUMPDEST DUP1 DUP1 PUSH1 0x1 ADD SWAP2 POP POP PUSH2 0x17A JUMP JUMPDEST POP PUSH1 0x1 DUP2 SUB PUSH2 0x2C6 JUMPI PUSH0 PUSH0 DUP4 PUSH0 DUP2 MLOAD DUP2 LT PUSH2 0x260 JUMPI PUSH2 0x25F PUSH2 0xD87 JUMP JUMPDEST JUMPDEST PUSH1 0x20 ADD ADD MLOAD PUSH1 0xF8 SHR PUSH1 0xF8 SHL PUSH31 0xFFFFFFFFFFFFFFFFFFFFFFFFFFFFFFFFFFFFFFFFFFFFFFFFFFFFFFFFFFFFFF NOT AND PUSH31 0xFFFFFFFFFFFFFFFFFFFFFFFFFFFFFFFFFFFFFFFFFFFFFFFFFFFFFFFFFFFFFF NOT AND DUP2 MSTORE PUSH1 0x20 ADD SWAP1 DUP2 MSTORE PUSH1 0x20 ADD PUSH0 KECCAK256 SLOAD SWAP3 POP POP POP PUSH2 0x87A JUMP JUMPDEST PUSH0 DUP2 PUSH8 0xFFFFFFFFFFFFFFFF DUP2 GT ISZERO PUSH2 0x2E1 JUMPI PUSH2 0x2E0 PUSH2 0xAC3 JUMP JUMPDEST JUMPDEST PUSH1 0x40 MLOAD SWAP1 DUP1 DUP3 MSTORE DUP1 PUSH1 0x20 MUL PUSH1 0x20 ADD DUP3 ADD PUSH1 0x40 MSTORE DUP1 ISZERO PUSH2 0x30F JUMPI DUP2 PUSH1 0x20 ADD PUSH1 0x20 DUP3 MUL DUP1 CALLDATASIZE DUP4 CALLDATACOPY DUP1 DUP3 ADD SWAP2 POP POP SWAP1 POP JUMPDEST POP SWAP1 POP PUSH0 PUSH0 SWAP1 POP JUMPDEST DUP3 DUP2 LT ISZERO PUSH2 0x3BD JUMPI PUSH0 PUSH0 DUP6 DUP4 DUP2 MLOAD DUP2 LT PUSH2 0x334 JUMPI PUSH2 0x333 PUSH2 0xD87 JUMP JUMPDEST JUMPDEST PUSH1 0x20 ADD ADD MLOAD PUSH1 0xF8 SHR PUSH1 0xF8 SHL PUSH31 0xFFFFFFFFFFFFFFFFFFFFFFFFFFFFFFFFFFFFFFFFFFFFFFFFFFFFFFFFFFFFFF NOT AND PUSH31 0xFFFFFFFFFFFFFFFFFFFFFFFFFFFFFFFFFFFFFFFFFFFFFFFFFFFFFFFFFFFFFF NOT AND DUP2 MSTORE PUSH1 0x20 ADD SWAP1 DUP2 MSTORE PUSH1 0x20 ADD PUSH0 KECCAK256 SLOAD DUP3 DUP3 DUP2 MLOAD DUP2 LT PUSH2 0x3A4 JUMPI PUSH2 0x3A3 PUSH2 0xD87 JUMP JUMPDEST JUMPDEST PUSH1 0x20 MUL PUSH1 0x20 ADD ADD DUP2 DUP2 MSTORE POP POP DUP1 DUP1 PUSH1 0x1 ADD SWAP2 POP POP PUSH2 0x317 JUMP JUMPDEST POP PUSH0 PUSH0 SWAP1 POP JUMPDEST PUSH1 0x1 DUP4 PUSH2 0x3D0 SWAP2 SWAP1 PUSH2 0xEC1 JUMP JUMPDEST DUP2 LT ISZERO PUSH2 0x82D JUMPI PUSH1 0x1 DUP3 DUP3 DUP2 MLOAD DUP2 LT PUSH2 0x3EC JUMPI PUSH2 0x3EB PUSH2 0xD87 JUMP JUMPDEST JUMPDEST PUSH1 0x20 MUL PUSH1 0x20 ADD ADD MLOAD EQ DUP1 ISZERO PUSH2 0x427 JUMPI POP PUSH1 0x5 DUP3 PUSH1 0x1 DUP4 PUSH2 0x40C SWAP2 SWAP1 PUSH2 0xEF4 JUMP JUMPDEST DUP2 MLOAD DUP2 LT PUSH2 0x41D JUMPI PUSH2 0x41C PUSH2 0xD87 JUMP JUMPDEST JUMPDEST PUSH1 0x20 MUL PUSH1 0x20 ADD ADD MLOAD EQ JUMPDEST ISZERO PUSH2 0x48C JUMPI PUSH0 DUP3 DUP3 DUP2 MLOAD DUP2 LT PUSH2 0x440 JUMPI PUSH2 0x43F PUSH2 0xD87 JUMP JUMPDEST JUMPDEST PUSH1 0x20 MUL PUSH1 0x20 ADD ADD DUP2 DUP2 MSTORE POP POP PUSH1 0x4 DUP3 PUSH1 0x1 DUP4 PUSH2 0x45C SWAP2 SWAP1 PUSH2 0xEF4 JUMP JUMPDEST DUP2 MLOAD DUP2 LT PUSH2 0x46D JUMPI PUSH2 0x46C PUSH2 0xD87 JUMP JUMPDEST JUMPDEST PUSH1 0x20 MUL PUSH1 0x20 ADD ADD DUP2 DUP2 MSTORE POP POP DUP1 DUP1 PUSH2 0x484 SWAP1 PUSH2 0xF27 JUMP JUMPDEST SWAP2 POP POP PUSH2 0x81A JUMP JUMPDEST PUSH1 0x1 DUP3 DUP3 DUP2 MLOAD DUP2 LT PUSH2 0x4A1 JUMPI PUSH2 0x4A0 PUSH2 0xD87 JUMP JUMPDEST JUMPDEST PUSH1 0x20 MUL PUSH1 0x20 ADD ADD MLOAD EQ DUP1 ISZERO PUSH2 0x4DC JUMPI POP PUSH1 0xA DUP3 PUSH1 0x1 DUP4 PUSH2 0x4C1 SWAP2 SWAP1 PUSH2 0xEF4 JUMP JUMPDEST DUP2 MLOAD DUP2 LT PUSH2 0x4D2 JUMPI PUSH2 0x4D1 PUSH2 0xD87 JUMP JUMPDEST JUMPDEST PUSH1 0x20 MUL PUSH1 0x20 ADD ADD MLOAD EQ JUMPDEST ISZERO PUSH2 0x541 JUMPI PUSH0 DUP3 DUP3 DUP2 MLOAD DUP2 LT PUSH2 0x4F5 JUMPI PUSH2 0x4F4 PUSH2 0xD87 JUMP JUMPDEST JUMPDEST PUSH1 0x20 MUL PUSH1 0x20 ADD ADD DUP2 DUP2 MSTORE POP POP PUSH1 0x9 DUP3 PUSH1 0x1 DUP4 PUSH2 0x511 SWAP2 SWAP1 PUSH2 0xEF4 JUMP JUMPDEST DUP2 MLOAD DUP2 LT PUSH2 0x522 JUMPI PUSH2 0x521 PUSH2 0xD87 JUMP JUMPDEST JUMPDEST PUSH1 0x20 MUL PUSH1 0x20 ADD ADD DUP2 DUP2 MSTORE POP POP DUP1 DUP1 PUSH2 0x539 SWAP1 PUSH2 0xF27 JUMP JUMPDEST SWAP2 POP POP PUSH2 0x819 JUMP JUMPDEST PUSH1 0xA DUP3 DUP3 DUP2 MLOAD DUP2 LT PUSH2 0x556 JUMPI PUSH2 0x555 PUSH2 0xD87 JUMP JUMPDEST JUMPDEST PUSH1 0x20 MUL PUSH1 0x20 ADD ADD MLOAD EQ DUP1 ISZERO PUSH2 0x591 JUMPI POP PUSH1 0x32 DUP3 PUSH1 0x1 DUP4 PUSH2 0x576 SWAP2 SWAP1 PUSH2 0xEF4 JUMP JUMPDEST DUP2 MLOAD DUP2 LT PUSH2 0x587 JUMPI PUSH2 0x586 PUSH2 0xD87 JUMP JUMPDEST JUMPDEST PUSH1 0x20 MUL PUSH1 0x20 ADD ADD MLOAD EQ JUMPDEST ISZERO PUSH2 0x5F6 JUMPI PUSH0 DUP3 DUP3 DUP2 MLOAD DUP2 LT PUSH2 0x5AA JUMPI PUSH2 0x5A9 PUSH2 0xD87 JUMP JUMPDEST JUMPDEST PUSH1 0x20 MUL PUSH1 0x20 ADD ADD DUP2 DUP2 MSTORE POP POP PUSH1 0x28 DUP3 PUSH1 0x1 DUP4 PUSH2 0x5C6 SWAP2 SWAP1 PUSH2 0xEF4 JUMP JUMPDEST DUP2 MLOAD DUP2 LT PUSH2 0x5D7 JUMPI PUSH2 0x5D6 PUSH2 0xD87 JUMP JUMPDEST JUMPDEST PUSH1 0x20 MUL PUSH1 0x20 ADD ADD DUP2 DUP2 MSTORE POP POP DUP1 DUP1 PUSH2 0x5EE SWAP1 PUSH2 0xF27 JUMP JUMPDEST SWAP2 POP POP PUSH2 0x818 JUMP JUMPDEST PUSH1 0xA DUP3 DUP3 DUP2 MLOAD DUP2 LT PUSH2 0x60B JUMPI PUSH2 0x60A PUSH2 0xD87 JUMP JUMPDEST JUMPDEST PUSH1 0x20 MUL PUSH1 0x20 ADD ADD MLOAD EQ DUP1 ISZERO PUSH2 0x646 JUMPI POP PUSH1 0x64 DUP3 PUSH1 0x1 DUP4 PUSH2 0x62B SWAP2 SWAP1 PUSH2 0xEF4 JUMP JUMPDEST DUP2 MLOAD DUP2 LT PUSH2 0x63C JUMPI PUSH2 0x63B PUSH2 0xD87 JUMP JUMPDEST JUMPDEST PUSH1 0x20 MUL PUSH1 0x20 ADD ADD MLOAD EQ JUMPDEST ISZERO PUSH2 0x6AB JUMPI PUSH0 DUP3 DUP3 DUP2 MLOAD DUP2 LT PUSH2 0x65F JUMPI PUSH2 0x65E PUSH2 0xD87 JUMP JUMPDEST JUMPDEST PUSH1 0x20 MUL PUSH1 0x20 ADD ADD DUP2 DUP2 MSTORE POP POP PUSH1 0x5A DUP3 PUSH1 0x1 DUP4 PUSH2 0x67B SWAP2 SWAP1 PUSH2 0xEF4 JUMP JUMPDEST DUP2 MLOAD DUP2 LT PUSH2 0x68C JUMPI PUSH2 0x68B PUSH2 0xD87 JUMP JUMPDEST JUMPDEST PUSH1 0x20 MUL PUSH1 0x20 ADD ADD DUP2 DUP2 MSTORE POP POP DUP1 DUP1 PUSH2 0x6A3 SWAP1 PUSH2 0xF27 JUMP JUMPDEST SWAP2 POP POP PUSH2 0x817 JUMP JUMPDEST PUSH1 0x64 DUP3 DUP3 DUP2 MLOAD DUP2 LT PUSH2 0x6C0 JUMPI PUSH2 0x6BF PUSH2 0xD87 JUMP JUMPDEST JUMPDEST PUSH1 0x20 MUL PUSH1 0x20 ADD ADD MLOAD EQ DUP1 ISZERO PUSH2 0x6FC JUMPI POP PUSH2 0x1F4 DUP3 PUSH1 0x1 DUP4 PUSH2 0x6E1 SWAP2 SWAP1 PUSH2 0xEF4 JUMP JUMPDEST DUP2 MLOAD DUP2 LT PUSH2 0x6F2 JUMPI PUSH2 0x6F1 PUSH2 0xD87 JUMP JUMPDEST JUMPDEST PUSH1 0x20 MUL PUSH1 0x20 ADD ADD MLOAD EQ JUMPDEST ISZERO PUSH2 0x762 JUMPI PUSH0 DUP3 DUP3 DUP2 MLOAD DUP2 LT PUSH2 0x715 JUMPI PUSH2 0x714 PUSH2 0xD87 JUMP JUMPDEST JUMPDEST PUSH1 0x20 MUL PUSH1 0x20 ADD ADD DUP2 DUP2 MSTORE POP POP PUSH2 0x190 DUP3 PUSH1 0x1 DUP4 PUSH2 0x732 SWAP2 SWAP1 PUSH2 0xEF4 JUMP JUMPDEST DUP2 MLOAD DUP2 LT PUSH2 0x743 JUMPI PUSH2 0x742 PUSH2 0xD87 JUMP JUMPDEST JUMPDEST PUSH1 0x20 MUL PUSH1 0x20 ADD ADD DUP2 DUP2 MSTORE POP POP DUP1 DUP1 PUSH2 0x75A SWAP1 PUSH2 0xF27 JUMP JUMPDEST SWAP2 POP POP PUSH2 0x816 JUMP JUMPDEST PUSH1 0x64 DUP3 DUP3 DUP2 MLOAD DUP2 LT PUSH2 0x777 JUMPI PUSH2 0x776 PUSH2 0xD87 JUMP JUMPDEST JUMPDEST PUSH1 0x20 MUL PUSH1 0x20 ADD ADD MLOAD EQ DUP1 ISZERO PUSH2 0x7B3 JUMPI POP PUSH2 0x3E8 DUP3 PUSH1 0x1 DUP4 PUSH2 0x798 SWAP2 SWAP1 PUSH2 0xEF4 JUMP JUMPDEST DUP2 MLOAD DUP2 LT PUSH2 0x7A9 JUMPI PUSH2 0x7A8 PUSH2 0xD87 JUMP JUMPDEST JUMPDEST PUSH1 0x20 MUL PUSH1 0x20 ADD ADD MLOAD EQ JUMPDEST ISZERO PUSH2 0x815 JUMPI PUSH0 DUP3 DUP3 DUP2 MLOAD DUP2 LT PUSH2 0x7CC JUMPI PUSH2 0x7CB PUSH2 0xD87 JUMP JUMPDEST JUMPDEST PUSH1 0x20 MUL PUSH1 0x20 ADD ADD DUP2 DUP2 MSTORE POP POP PUSH2 0x384 DUP3 PUSH1 0x1 DUP4 PUSH2 0x7E9 SWAP2 SWAP1 PUSH2 0xEF4 JUMP JUMPDEST DUP2 MLOAD DUP2 LT PUSH2 0x7FA JUMPI PUSH2 0x7F9 PUSH2 0xD87 JUMP JUMPDEST JUMPDEST PUSH1 0x20 MUL PUSH1 0x20 ADD ADD DUP2 DUP2 MSTORE POP POP DUP1 DUP1 PUSH2 0x811 SWAP1 PUSH2 0xF27 JUMP JUMPDEST SWAP2 POP POP JUMPDEST JUMPDEST JUMPDEST JUMPDEST JUMPDEST JUMPDEST DUP1 DUP1 PUSH2 0x825 SWAP1 PUSH2 0xF27 JUMP JUMPDEST SWAP2 POP POP PUSH2 0x3C3 JUMP JUMPDEST POP PUSH0 PUSH0 PUSH0 SWAP1 POP JUMPDEST DUP4 DUP2 LT ISZERO PUSH2 0x871 JUMPI DUP3 DUP2 DUP2 MLOAD DUP2 LT PUSH2 0x84F JUMPI PUSH2 0x84E PUSH2 0xD87 JUMP JUMPDEST JUMPDEST PUSH1 0x20 MUL PUSH1 0x20 ADD ADD MLOAD DUP3 PUSH2 0x862 SWAP2 SWAP1 PUSH2 0xEF4 JUMP JUMPDEST SWAP2 POP DUP1 DUP1 PUSH1 0x1 ADD SWAP2 POP POP PUSH2 0x834 JUMP JUMPDEST POP DUP1 SWAP5 POP POP POP POP POP JUMPDEST SWAP2 SWAP1 POP JUMP JUMPDEST PUSH1 0x60 PUSH0 PUSH1 0x1 PUSH2 0x88D DUP5 PUSH2 0x949 JUMP JUMPDEST ADD SWAP1 POP PUSH0 DUP2 PUSH8 0xFFFFFFFFFFFFFFFF DUP2 GT ISZERO PUSH2 0x8AB JUMPI PUSH2 0x8AA PUSH2 0xAC3 JUMP JUMPDEST JUMPDEST PUSH1 0x40 MLOAD SWAP1 DUP1 DUP3 MSTORE DUP1 PUSH1 0x1F ADD PUSH1 0x1F NOT AND PUSH1 0x20 ADD DUP3 ADD PUSH1 0x40 MSTORE DUP1 ISZERO PUSH2 0x8DD JUMPI DUP2 PUSH1 0x20 ADD PUSH1 0x1 DUP3 MUL DUP1 CALLDATASIZE DUP4 CALLDATACOPY DUP1 DUP3 ADD SWAP2 POP POP SWAP1 POP JUMPDEST POP SWAP1 POP PUSH0 DUP3 PUSH1 0x20 DUP4 ADD ADD SWAP1 POP JUMPDEST PUSH1 0x1 ISZERO PUSH2 0x93E JUMPI DUP1 DUP1 PUSH1 0x1 SWAP1 SUB SWAP2 POP POP PUSH32 0x3031323334353637383961626364656600000000000000000000000000000000 PUSH1 0xA DUP7 MOD BYTE DUP2 MSTORE8 PUSH1 0xA DUP6 DUP2 PUSH2 0x933 JUMPI PUSH2 0x932 PUSH2 0xF6E JUMP JUMPDEST JUMPDEST DIV SWAP5 POP PUSH0 DUP6 SUB PUSH2 0x8EA JUMPI JUMPDEST DUP2 SWAP4 POP POP POP POP SWAP2 SWAP1 POP JUMP JUMPDEST PUSH0 PUSH0 PUSH0 SWAP1 POP PUSH27 0x184F03E93FF9F4DAA797ED6E38ED64BF6A1F010000000000000000 DUP4 LT PUSH2 0x9A5 JUMPI PUSH27 0x184F03E93FF9F4DAA797ED6E38ED64BF6A1F010000000000000000 DUP4 DUP2 PUSH2 0x99B JUMPI PUSH2 0x99A PUSH2 0xF6E JUMP JUMPDEST JUMPDEST DIV SWAP3 POP PUSH1 0x40 DUP2 ADD SWAP1 POP JUMPDEST PUSH14 0x4EE2D6D415B85ACEF8100000000 DUP4 LT PUSH2 0x9E2 JUMPI PUSH14 0x4EE2D6D415B85ACEF8100000000 DUP4 DUP2 PUSH2 0x9D8 JUMPI PUSH2 0x9D7 PUSH2 0xF6E JUMP JUMPDEST JUMPDEST DIV SWAP3 POP PUSH1 0x20 DUP2 ADD SWAP1 POP JUMPDEST PUSH7 0x2386F26FC10000 DUP4 LT PUSH2 0xA11 JUMPI PUSH7 0x2386F26FC10000 DUP4 DUP2 PUSH2 0xA07 JUMPI PUSH2 0xA06 PUSH2 0xF6E JUMP JUMPDEST JUMPDEST DIV SWAP3 POP PUSH1 0x10 DUP2 ADD SWAP1 POP JUMPDEST PUSH4 0x5F5E100 DUP4 LT PUSH2 0xA3A JUMPI PUSH4 0x5F5E100 DUP4 DUP2 PUSH2 0xA30 JUMPI PUSH2 0xA2F PUSH2 0xF6E JUMP JUMPDEST JUMPDEST DIV SWAP3 POP PUSH1 0x8 DUP2 ADD SWAP1 POP JUMPDEST PUSH2 0x2710 DUP4 LT PUSH2 0xA5F JUMPI PUSH2 0x2710 DUP4 DUP2 PUSH2 0xA55 JUMPI PUSH2 0xA54 PUSH2 0xF6E JUMP JUMPDEST JUMPDEST DIV SWAP3 POP PUSH1 0x4 DUP2 ADD SWAP1 POP JUMPDEST PUSH1 0x64 DUP4 LT PUSH2 0xA82 JUMPI PUSH1 0x64 DUP4 DUP2 PUSH2 0xA78 JUMPI PUSH2 0xA77 PUSH2 0xF6E JUMP JUMPDEST JUMPDEST DIV SWAP3 POP PUSH1 0x2 DUP2 ADD SWAP1 POP JUMPDEST PUSH1 0xA DUP4 LT PUSH2 0xA91 JUMPI PUSH1 0x1 DUP2 ADD SWAP1 POP JUMPDEST DUP1 SWAP2 POP POP SWAP2 SWAP1 POP JUMP JUMPDEST PUSH0 PUSH1 0x40 MLOAD SWAP1 POP SWAP1 JUMP JUMPDEST PUSH0 PUSH0 REVERT JUMPDEST PUSH0 PUSH0 REVERT JUMPDEST PUSH0 PUSH0 REVERT JUMPDEST PUSH0 PUSH0 REVERT JUMPDEST PUSH0 PUSH1 0x1F NOT PUSH1 0x1F DUP4 ADD AND SWAP1 POP SWAP2 SWAP1 POP JUMP JUMPDEST PUSH32 0x4E487B7100000000000000000000000000000000000000000000000000000000 PUSH0 MSTORE PUSH1 0x41 PUSH1 0x4 MSTORE PUSH1 0x24 PUSH0 REVERT JUMPDEST PUSH2 0xAF9 DUP3 PUSH2 0xAB3 JUMP JUMPDEST DUP2 ADD DUP2 DUP2 LT PUSH8 0xFFFFFFFFFFFFFFFF DUP3 GT OR ISZERO PUSH2 0xB18 JUMPI PUSH2 0xB17 PUSH2 0xAC3 JUMP JUMPDEST JUMPDEST DUP1 PUSH1 0x40 MSTORE POP POP POP JUMP JUMPDEST PUSH0 PUSH2 0xB2A PUSH2 0xA9A JUMP JUMPDEST SWAP1 POP PUSH2 0xB36 DUP3 DUP3 PUSH2 0xAF0 JUMP JUMPDEST SWAP2 SWAP1 POP JUMP JUMPDEST PUSH0 PUSH8 0xFFFFFFFFFFFFFFFF DUP3 GT ISZERO PUSH2 0xB55 JUMPI PUSH2 0xB54 PUSH2 0xAC3 JUMP JUMPDEST JUMPDEST PUSH2 0xB5E DUP3 PUSH2 0xAB3 JUMP JUMPDEST SWAP1 POP PUSH1 0x20 DUP2 ADD SWAP1 POP SWAP2 SWAP1 POP JUMP JUMPDEST DUP3 DUP2 DUP4 CALLDATACOPY PUSH0 DUP4 DUP4 ADD MSTORE POP POP POP JUMP JUMPDEST PUSH0 PUSH2 0xB8B PUSH2 0xB86 DUP5 PUSH2 0xB3B JUMP JUMPDEST PUSH2 0xB21 JUMP JUMPDEST SWAP1 POP DUP3 DUP2 MSTORE PUSH1 0x20 DUP2 ADD DUP5 DUP5 DUP5 ADD GT ISZERO PUSH2 0xBA7 JUMPI PUSH2 0xBA6 PUSH2 0xAAF JUMP JUMPDEST JUMPDEST PUSH2 0xBB2 DUP5 DUP3 DUP6 PUSH2 0xB6B JUMP JUMPDEST POP SWAP4 SWAP3 POP POP POP JUMP JUMPDEST PUSH0 DUP3 PUSH1 0x1F DUP4 ADD SLT PUSH2 0xBCE JUMPI PUSH2 0xBCD PUSH2 0xAAB JUMP JUMPDEST JUMPDEST DUP2 CALLDATALOAD PUSH2 0xBDE DUP5 DUP3 PUSH1 0x20 DUP7 ADD PUSH2 0xB79 JUMP JUMPDEST SWAP2 POP POP SWAP3 SWAP2 POP POP JUMP JUMPDEST PUSH0 PUSH1 0x20 DUP3 DUP5 SUB SLT ISZERO PUSH2 0xBFC JUMPI PUSH2 0xBFB PUSH2 0xAA3 JUMP JUMPDEST JUMPDEST PUSH0 DUP3 ADD CALLDATALOAD PUSH8 0xFFFFFFFFFFFFFFFF DUP2 GT ISZERO PUSH2 0xC19 JUMPI PUSH2 0xC18 PUSH2 0xAA7 JUMP JUMPDEST JUMPDEST PUSH2 0xC25 DUP5 DUP3 DUP6 ADD PUSH2 0xBBA JUMP JUMPDEST SWAP2 POP POP SWAP3 SWAP2 POP POP JUMP JUMPDEST PUSH0 PUSH32 0xFF00000000000000000000000000000000000000000000000000000000000000 DUP3 AND SWAP1 POP SWAP2 SWAP1 POP JUMP JUMPDEST PUSH2 0xC62 DUP2 PUSH2 0xC2E JUMP JUMPDEST DUP3 MSTORE POP POP JUMP JUMPDEST PUSH0 PUSH1 0x20 DUP3 ADD SWAP1 POP PUSH2 0xC7B PUSH0 DUP4 ADD DUP5 PUSH2 0xC59 JUMP JUMPDEST SWAP3 SWAP2 POP POP JUMP JUMPDEST PUSH0 DUP2 SWAP1 POP SWAP2 SWAP1 POP JUMP JUMPDEST PUSH2 0xC93 DUP2 PUSH2 0xC81 JUMP JUMPDEST DUP2 EQ PUSH2 0xC9D JUMPI PUSH0 PUSH0 REVERT JUMPDEST POP JUMP JUMPDEST PUSH0 DUP2 CALLDATALOAD SWAP1 POP PUSH2 0xCAE DUP2 PUSH2 0xC8A JUMP JUMPDEST SWAP3 SWAP2 POP POP JUMP JUMPDEST PUSH0 PUSH1 0x20 DUP3 DUP5 SUB SLT ISZERO PUSH2 0xCC9 JUMPI PUSH2 0xCC8 PUSH2 0xAA3 JUMP JUMPDEST JUMPDEST PUSH0 PUSH2 0xCD6 DUP5 DUP3 DUP6 ADD PUSH2 0xCA0 JUMP JUMPDEST SWAP2 POP POP SWAP3 SWAP2 POP POP JUMP JUMPDEST PUSH0 DUP2 MLOAD SWAP1 POP SWAP2 SWAP1 POP JUMP JUMPDEST PUSH0 DUP3 DUP3 MSTORE PUSH1 0x20 DUP3 ADD SWAP1 POP SWAP3 SWAP2 POP POP JUMP JUMPDEST DUP3 DUP2 DUP4 MCOPY PUSH0 DUP4 DUP4 ADD MSTORE POP POP POP JUMP JUMPDEST PUSH0 PUSH2 0xD11 DUP3 PUSH2 0xCDF JUMP JUMPDEST PUSH2 0xD1B DUP2 DUP6 PUSH2 0xCE9 JUMP JUMPDEST SWAP4 POP PUSH2 0xD2B DUP2 DUP6 PUSH1 0x20 DUP7 ADD PUSH2 0xCF9 JUMP JUMPDEST PUSH2 0xD34 DUP2 PUSH2 0xAB3 JUMP JUMPDEST DUP5 ADD SWAP2 POP POP SWAP3 SWAP2 POP POP JUMP JUMPDEST PUSH0 PUSH1 0x20 DUP3 ADD SWAP1 POP DUP2 DUP2 SUB PUSH0 DUP4 ADD MSTORE PUSH2 0xD57 DUP2 DUP5 PUSH2 0xD07 JUMP JUMPDEST SWAP1 POP SWAP3 SWAP2 POP POP JUMP JUMPDEST PUSH2 0xD68 DUP2 PUSH2 0xC81 JUMP JUMPDEST DUP3 MSTORE POP POP JUMP JUMPDEST PUSH0 PUSH1 0x20 DUP3 ADD SWAP1 POP PUSH2 0xD81 PUSH0 DUP4 ADD DUP5 PUSH2 0xD5F JUMP JUMPDEST SWAP3 SWAP2 POP POP JUMP JUMPDEST PUSH32 0x4E487B7100000000000000000000000000000000000000000000000000000000 PUSH0 MSTORE PUSH1 0x32 PUSH1 0x4 MSTORE PUSH1 0x24 PUSH0 REVERT JUMPDEST PUSH0 DUP3 DUP3 MSTORE PUSH1 0x20 DUP3 ADD SWAP1 POP SWAP3 SWAP2 POP POP JUMP JUMPDEST PUSH32 0x696E76616C696420737472696E67206C656E6774680000000000000000000000 PUSH0 DUP3 ADD MSTORE POP JUMP JUMPDEST PUSH0 PUSH2 0xDF8 PUSH1 0x15 DUP4 PUSH2 0xDB4 JUMP JUMPDEST SWAP2 POP PUSH2 0xE03 DUP3 PUSH2 0xDC4 JUMP JUMPDEST PUSH1 0x20 DUP3 ADD SWAP1 POP SWAP2 SWAP1 POP JUMP JUMPDEST PUSH0 PUSH1 0x20 DUP3 ADD SWAP1 POP DUP2 DUP2 SUB PUSH0 DUP4 ADD MSTORE PUSH2 0xE25 DUP2 PUSH2 0xDEC JUMP JUMPDEST SWAP1 POP SWAP2 SWAP1 POP JUMP JUMPDEST PUSH32 0x696E76616C696420737472696E67000000000000000000000000000000000000 PUSH0 DUP3 ADD MSTORE POP JUMP JUMPDEST PUSH0 PUSH2 0xE60 PUSH1 0xE DUP4 PUSH2 0xDB4 JUMP JUMPDEST SWAP2 POP PUSH2 0xE6B DUP3 PUSH2 0xE2C JUMP JUMPDEST PUSH1 0x20 DUP3 ADD SWAP1 POP SWAP2 SWAP1 POP JUMP JUMPDEST PUSH0 PUSH1 0x20 DUP3 ADD SWAP1 POP DUP2 DUP2 SUB PUSH0 DUP4 ADD MSTORE PUSH2 0xE8D DUP2 PUSH2 0xE54 JUMP JUMPDEST SWAP1 POP SWAP2 SWAP1 POP JUMP JUMPDEST PUSH32 0x4E487B7100000000000000000000000000000000000000000000000000000000 PUSH0 MSTORE PUSH1 0x11 PUSH1 0x4 MSTORE PUSH1 0x24 PUSH0 REVERT JUMPDEST PUSH0 PUSH2 0xECB DUP3 PUSH2 0xC81 JUMP JUMPDEST SWAP2 POP PUSH2 0xED6 DUP4 PUSH2 0xC81 JUMP JUMPDEST SWAP3 POP DUP3 DUP3 SUB SWAP1 POP DUP2 DUP2 GT ISZERO PUSH2 0xEEE JUMPI PUSH2 0xEED PUSH2 0xE94 JUMP JUMPDEST JUMPDEST SWAP3 SWAP2 POP POP JUMP JUMPDEST PUSH0 PUSH2 0xEFE DUP3 PUSH2 0xC81 JUMP JUMPDEST SWAP2 POP PUSH2 0xF09 DUP4 PUSH2 0xC81 JUMP JUMPDEST SWAP3 POP DUP3 DUP3 ADD SWAP1 POP DUP1 DUP3 GT ISZERO PUSH2 0xF21 JUMPI PUSH2 0xF20 PUSH2 0xE94 JUMP JUMPDEST JUMPDEST SWAP3 SWAP2 POP POP JUMP JUMPDEST PUSH0 PUSH2 0xF31 DUP3 PUSH2 0xC81 JUMP JUMPDEST SWAP2 POP PUSH32 0xFFFFFFFFFFFFFFFFFFFFFFFFFFFFFFFFFFFFFFFFFFFFFFFFFFFFFFFFFFFFFFFF DUP3 SUB PUSH2 0xF63 JUMPI PUSH2 0xF62 PUSH2 0xE94 JUMP JUMPDEST JUMPDEST PUSH1 0x1 DUP3 ADD SWAP1 POP SWAP2 SWAP1 POP JUMP JUMPDEST PUSH32 0x4E487B7100000000000000000000000000000000000000000000000000000000 PUSH0 MSTORE PUSH1 0x12 PUSH1 0x4 MSTORE PUSH1 0x24 PUSH0 REVERT INVALID LOG2 PUSH5 0x6970667358 0x22 SLT KECCAK256 PUSH19 0x63C5B49C5E9876BF0E488AC05921564D6EC93F 0xAB 0x2A CALLVALUE CODESIZE 0x27 0x21 DUP13 GASLIMIT 0x4F 0xB2 TSTORE PUSH28 0x64736F6C634300081E00330000000000000000000000000000000000 "
				},
				"gasEstimates": {
					"creation": {
						"codeDepositCost": "809800",
						"executionCost": "156270",
						"totalCost": "966070"
					},
					"external": {
						"change(string)": "infinite",
						"change2(uint256)": "infinite",
						"change3(string)": "infinite"
					}
				},
				"methodIdentifiers": {
					"change(string)": "c1dcab14",
					"change2(uint256)": "98f0b612",
					"change3(string)": "9519f1f7"
				}
			},
			"storageLayout": {
				"storage": [
					{
						"astId": 4994,
						"contract": "contracts/task1/RomanToInt1.sol:RomanToInt",
						"label": "bytesToInt",
						"offset": 0,
						"slot": "0",
						"type": "t_mapping(t_bytes1,t_uint256)"
					}
				],
				"types": {
					"t_bytes1": {
						"encoding": "inplace",
						"label": "bytes1",
						"numberOfBytes": "1"
					},
					"t_mapping(t_bytes1,t_uint256)": {
						"encoding": "mapping",
						"key": "t_bytes1",
						"label": "mapping(bytes1 => uint256)",
						"numberOfBytes": "32",
						"value": "t_uint256"
					},
					"t_uint256": {
						"encoding": "inplace",
						"label": "uint256",
						"numberOfBytes": "32"
					}
				}
			},
			"userdoc": {
				"kind": "user",
				"methods": {},
				"notice": "罗马转整数",
				"version": 1
			}
		}
	}
}