{
	"contracts/task1/IntToRoman.sol": {
		"IntToRoman": {
			"abi": [
				{
					"inputs": [],
					"stateMutability": "nonpayable",
					"type": "constructor"
				},
				{
					"inputs": [
						{
							"internalType": "uint256",
							"name": "num",
							"type": "uint256"
						}
					],
					"name": "change",
					"outputs": [
						{
							"internalType": "string",
							"name": "",
							"type": "string"
						}
					],
					"stateMutability": "view",
					"type": "function"
				}
			],
			"devdoc": {
				"kind": "dev",
				"methods": {},
				"version": 1
			},
			"evm": {
				"assembly": "    /* \"contracts/task1/IntToRoman.sol\":157:2547  contract IntToRoman {... */\n  mstore(0x40, 0x80)\n    /* \"contracts/task1/IntToRoman.sol\":419:1730  constructor() {... */\n  callvalue\n  dup1\n  iszero\n  tag_1\n  jumpi\n  revert(0x00, 0x00)\ntag_1:\n  pop\n    /* \"contracts/task1/IntToRoman.sol\":444:463  intToRoman[1] = \"I\" */\n  mload(0x40)\n  dup1\n  0x40\n  add\n  0x40\n  mstore\n  dup1\n  0x01\n  dup2\n  mstore\n  0x20\n  add\n  0x4900000000000000000000000000000000000000000000000000000000000000\n  dup2\n  mstore\n  pop\n    /* \"contracts/task1/IntToRoman.sol\":444:454  intToRoman */\n  0x00\n    /* \"contracts/task1/IntToRoman.sol\":444:457  intToRoman[1] */\n  0x00\n    /* \"contracts/task1/IntToRoman.sol\":455:456  1 */\n  0x01\n    /* \"contracts/task1/IntToRoman.sol\":444:457  intToRoman[1] */\n  dup2\n  mstore\n  0x20\n  add\n  swap1\n  dup2\n  mstore\n  0x20\n  add\n  0x00\n  keccak256\n    /* \"contracts/task1/IntToRoman.sol\":444:463  intToRoman[1] = \"I\" */\n  swap1\n  dup2\n  tag_4\n  swap2\n  swap1\n  tag_5\n  jump\t// in\ntag_4:\n  pop\n    /* \"contracts/task1/IntToRoman.sol\":474:494  intToRoman[2] = \"II\" */\n  mload(0x40)\n  dup1\n  0x40\n  add\n  0x40\n  mstore\n  dup1\n  0x02\n  dup2\n  mstore\n  0x20\n  add\n  0x4949000000000000000000000000000000000000000000000000000000000000\n  dup2\n  mstore\n  pop\n    /* \"contracts/task1/IntToRoman.sol\":474:484  intToRoman */\n  0x00\n    /* \"contracts/task1/IntToRoman.sol\":474:487  intToRoman[2] */\n  0x00\n    /* \"contracts/task1/IntToRoman.sol\":485:486  2 */\n  0x02\n    /* \"contracts/task1/IntToRoman.sol\":474:487  intToRoman[2] */\n  dup2\n  mstore\n  0x20\n  add\n  swap1\n  dup2\n  mstore\n  0x20\n  add\n  0x00\n  keccak256\n    /* \"contracts/task1/IntToRoman.sol\":474:494  intToRoman[2] = \"II\" */\n  swap1\n  dup2\n  tag_6\n  swap2\n  swap1\n  tag_5\n  jump\t// in\ntag_6:\n  pop\n    /* \"contracts/task1/IntToRoman.sol\":505:525  intToRoman[3] = \"II\" */\n  mload(0x40)\n  dup1\n  0x40\n  add\n  0x40\n  mstore\n  dup1\n  0x02\n  dup2\n  mstore\n  0x20\n  add\n  0x4949000000000000000000000000000000000000000000000000000000000000\n  dup2\n  mstore\n  pop\n    /* \"contracts/task1/IntToRoman.sol\":505:515  intToRoman */\n  0x00\n    /* \"contracts/task1/IntToRoman.sol\":505:518  intToRoman[3] */\n  0x00\n    /* \"contracts/task1/IntToRoman.sol\":516:517  3 */\n  0x03\n    /* \"contracts/task1/IntToRoman.sol\":505:518  intToRoman[3] */\n  dup2\n  mstore\n  0x20\n  add\n  swap1\n  dup2\n  mstore\n  0x20\n  add\n  0x00\n  keccak256\n    /* \"contracts/task1/IntToRoman.sol\":505:525  intToRoman[3] = \"II\" */\n  swap1\n  dup2\n  tag_7\n  swap2\n  swap1\n  tag_5\n  jump\t// in\ntag_7:\n  pop\n    /* \"contracts/task1/IntToRoman.sol\":536:556  intToRoman[4] = \"IV\" */\n  mload(0x40)\n  dup1\n  0x40\n  add\n  0x40\n  mstore\n  dup1\n  0x02\n  dup2\n  mstore\n  0x20\n  add\n  0x4956000000000000000000000000000000000000000000000000000000000000\n  dup2\n  mstore\n  pop\n    /* \"contracts/task1/IntToRoman.sol\":536:546  intToRoman */\n  0x00\n    /* \"contracts/task1/IntToRoman.sol\":536:549  intToRoman[4] */\n  0x00\n    /* \"contracts/task1/IntToRoman.sol\":547:548  4 */\n  0x04\n    /* \"contracts/task1/IntToRoman.sol\":536:549  intToRoman[4] */\n  dup2\n  mstore\n  0x20\n  add\n  swap1\n  dup2\n  mstore\n  0x20\n  add\n  0x00\n  keccak256\n    /* \"contracts/task1/IntToRoman.sol\":536:556  intToRoman[4] = \"IV\" */\n  swap1\n  dup2\n  tag_8\n  swap2\n  swap1\n  tag_5\n  jump\t// in\ntag_8:\n  pop\n    /* \"contracts/task1/IntToRoman.sol\":567:586  intToRoman[5] = \"V\" */\n  mload(0x40)\n  dup1\n  0x40\n  add\n  0x40\n  mstore\n  dup1\n  0x01\n  dup2\n  mstore\n  0x20\n  add\n  0x5600000000000000000000000000000000000000000000000000000000000000\n  dup2\n  mstore\n  pop\n    /* \"contracts/task1/IntToRoman.sol\":567:577  intToRoman */\n  0x00\n    /* \"contracts/task1/IntToRoman.sol\":567:580  intToRoman[5] */\n  0x00\n    /* \"contracts/task1/IntToRoman.sol\":578:579  5 */\n  0x05\n    /* \"contracts/task1/IntToRoman.sol\":567:580  intToRoman[5] */\n  dup2\n  mstore\n  0x20\n  add\n  swap1\n  dup2\n  mstore\n  0x20\n  add\n  0x00\n  keccak256\n    /* \"contracts/task1/IntToRoman.sol\":567:586  intToRoman[5] = \"V\" */\n  swap1\n  dup2\n  tag_9\n  swap2\n  swap1\n  tag_5\n  jump\t// in\ntag_9:\n  pop\n    /* \"contracts/task1/IntToRoman.sol\":597:617  intToRoman[6] = \"VI\" */\n  mload(0x40)\n  dup1\n  0x40\n  add\n  0x40\n  mstore\n  dup1\n  0x02\n  dup2\n  mstore\n  0x20\n  add\n  0x5649000000000000000000000000000000000000000000000000000000000000\n  dup2\n  mstore\n  pop\n    /* \"contracts/task1/IntToRoman.sol\":597:607  intToRoman */\n  0x00\n    /* \"contracts/task1/IntToRoman.sol\":597:610  intToRoman[6] */\n  0x00\n    /* \"contracts/task1/IntToRoman.sol\":608:609  6 */\n  0x06\n    /* \"contracts/task1/IntToRoman.sol\":597:610  intToRoman[6] */\n  dup2\n  mstore\n  0x20\n  add\n  swap1\n  dup2\n  mstore\n  0x20\n  add\n  0x00\n  keccak256\n    /* \"contracts/task1/IntToRoman.sol\":597:617  intToRoman[6] = \"VI\" */\n  swap1\n  dup2\n  tag_10\n  swap2\n  swap1\n  tag_5\n  jump\t// in\ntag_10:\n  pop\n    /* \"contracts/task1/IntToRoman.sol\":628:649  intToRoman[7] = \"VII\" */\n  mload(0x40)\n  dup1\n  0x40\n  add\n  0x40\n  mstore\n  dup1\n  0x03\n  dup2\n  mstore\n  0x20\n  add\n  0x5649490000000000000000000000000000000000000000000000000000000000\n  dup2\n  mstore\n  pop\n    /* \"contracts/task1/IntToRoman.sol\":628:638  intToRoman */\n  0x00\n    /* \"contracts/task1/IntToRoman.sol\":628:641  intToRoman[7] */\n  0x00\n    /* \"contracts/task1/IntToRoman.sol\":639:640  7 */\n  0x07\n    /* \"contracts/task1/IntToRoman.sol\":628:641  intToRoman[7] */\n  dup2\n  mstore\n  0x20\n  add\n  swap1\n  dup2\n  mstore\n  0x20\n  add\n  0x00\n  keccak256\n    /* \"contracts/task1/IntToRoman.sol\":628:649  intToRoman[7] = \"VII\" */\n  swap1\n  dup2\n  tag_11\n  swap2\n  swap1\n  tag_5\n  jump\t// in\ntag_11:\n  pop\n    /* \"contracts/task1/IntToRoman.sol\":660:682  intToRoman[8] = \"VIII\" */\n  mload(0x40)\n  dup1\n  0x40\n  add\n  0x40\n  mstore\n  dup1\n  0x04\n  dup2\n  mstore\n  0x20\n  add\n  0x5649494900000000000000000000000000000000000000000000000000000000\n  dup2\n  mstore\n  pop\n    /* \"contracts/task1/IntToRoman.sol\":660:670  intToRoman */\n  0x00\n    /* \"contracts/task1/IntToRoman.sol\":660:673  intToRoman[8] */\n  0x00\n    /* \"contracts/task1/IntToRoman.sol\":671:672  8 */\n  0x08\n    /* \"contracts/task1/IntToRoman.sol\":660:673  intToRoman[8] */\n  dup2\n  mstore\n  0x20\n  add\n  swap1\n  dup2\n  mstore\n  0x20\n  add\n  0x00\n  keccak256\n    /* \"contracts/task1/IntToRoman.sol\":660:682  intToRoman[8] = \"VIII\" */\n  swap1\n  dup2\n  tag_12\n  swap2\n  swap1\n  tag_5\n  jump\t// in\ntag_12:\n  pop\n    /* \"contracts/task1/IntToRoman.sol\":693:713  intToRoman[9] = \"IX\" */\n  mload(0x40)\n  dup1\n  0x40\n  add\n  0x40\n  mstore\n  dup1\n  0x02\n  dup2\n  mstore\n  0x20\n  add\n  0x4958000000000000000000000000000000000000000000000000000000000000\n  dup2\n  mstore\n  pop\n    /* \"contracts/task1/IntToRoman.sol\":693:703  intToRoman */\n  0x00\n    /* \"contracts/task1/IntToRoman.sol\":693:706  intToRoman[9] */\n  0x00\n    /* \"contracts/task1/IntToRoman.sol\":704:705  9 */\n  0x09\n    /* \"contracts/task1/IntToRoman.sol\":693:706  intToRoman[9] */\n  dup2\n  mstore\n  0x20\n  add\n  swap1\n  dup2\n  mstore\n  0x20\n  add\n  0x00\n  keccak256\n    /* \"contracts/task1/IntToRoman.sol\":693:713  intToRoman[9] = \"IX\" */\n  swap1\n  dup2\n  tag_13\n  swap2\n  swap1\n  tag_5\n  jump\t// in\ntag_13:\n  pop\n    /* \"contracts/task1/IntToRoman.sol\":726:746  intToRoman[10] = \"X\" */\n  mload(0x40)\n  dup1\n  0x40\n  add\n  0x40\n  mstore\n  dup1\n  0x01\n  dup2\n  mstore\n  0x20\n  add\n  0x5800000000000000000000000000000000000000000000000000000000000000\n  dup2\n  mstore\n  pop\n    /* \"contracts/task1/IntToRoman.sol\":726:736  intToRoman */\n  0x00\n    /* \"contracts/task1/IntToRoman.sol\":726:740  intToRoman[10] */\n  0x00\n    /* \"contracts/task1/IntToRoman.sol\":737:739  10 */\n  0x0a\n    /* \"contracts/task1/IntToRoman.sol\":726:740  intToRoman[10] */\n  dup2\n  mstore\n  0x20\n  add\n  swap1\n  dup2\n  mstore\n  0x20\n  add\n  0x00\n  keccak256\n    /* \"contracts/task1/IntToRoman.sol\":726:746  intToRoman[10] = \"X\" */\n  swap1\n  dup2\n  tag_14\n  swap2\n  swap1\n  tag_5\n  jump\t// in\ntag_14:\n  pop\n    /* \"contracts/task1/IntToRoman.sol\":757:778  intToRoman[20] = \"XX\" */\n  mload(0x40)\n  dup1\n  0x40\n  add\n  0x40\n  mstore\n  dup1\n  0x02\n  dup2\n  mstore\n  0x20\n  add\n  0x5858000000000000000000000000000000000000000000000000000000000000\n  dup2\n  mstore\n  pop\n    /* \"contracts/task1/IntToRoman.sol\":757:767  intToRoman */\n  0x00\n    /* \"contracts/task1/IntToRoman.sol\":757:771  intToRoman[20] */\n  0x00\n    /* \"contracts/task1/IntToRoman.sol\":768:770  20 */\n  0x14\n    /* \"contracts/task1/IntToRoman.sol\":757:771  intToRoman[20] */\n  dup2\n  mstore\n  0x20\n  add\n  swap1\n  dup2\n  mstore\n  0x20\n  add\n  0x00\n  keccak256\n    /* \"contracts/task1/IntToRoman.sol\":757:778  intToRoman[20] = \"XX\" */\n  swap1\n  dup2\n  tag_15\n  swap2\n  swap1\n  tag_5\n  jump\t// in\ntag_15:\n  pop\n    /* \"contracts/task1/IntToRoman.sol\":789:811  intToRoman[30] = \"XXX\" */\n  mload(0x40)\n  dup1\n  0x40\n  add\n  0x40\n  mstore\n  dup1\n  0x03\n  dup2\n  mstore\n  0x20\n  add\n  0x5858580000000000000000000000000000000000000000000000000000000000\n  dup2\n  mstore\n  pop\n    /* \"contracts/task1/IntToRoman.sol\":789:799  intToRoman */\n  0x00\n    /* \"contracts/task1/IntToRoman.sol\":789:803  intToRoman[30] */\n  0x00\n    /* \"contracts/task1/IntToRoman.sol\":800:802  30 */\n  0x1e\n    /* \"contracts/task1/IntToRoman.sol\":789:803  intToRoman[30] */\n  dup2\n  mstore\n  0x20\n  add\n  swap1\n  dup2\n  mstore\n  0x20\n  add\n  0x00\n  keccak256\n    /* \"contracts/task1/IntToRoman.sol\":789:811  intToRoman[30] = \"XXX\" */\n  swap1\n  dup2\n  tag_16\n  swap2\n  swap1\n  tag_5\n  jump\t// in\ntag_16:\n  pop\n    /* \"contracts/task1/IntToRoman.sol\":822:843  intToRoman[40] = \"XL\" */\n  mload(0x40)\n  dup1\n  0x40\n  add\n  0x40\n  mstore\n  dup1\n  0x02\n  dup2\n  mstore\n  0x20\n  add\n  0x584c000000000000000000000000000000000000000000000000000000000000\n  dup2\n  mstore\n  pop\n    /* \"contracts/task1/IntToRoman.sol\":822:832  intToRoman */\n  0x00\n    /* \"contracts/task1/IntToRoman.sol\":822:836  intToRoman[40] */\n  0x00\n    /* \"contracts/task1/IntToRoman.sol\":833:835  40 */\n  0x28\n    /* \"contracts/task1/IntToRoman.sol\":822:836  intToRoman[40] */\n  dup2\n  mstore\n  0x20\n  add\n  swap1\n  dup2\n  mstore\n  0x20\n  add\n  0x00\n  keccak256\n    /* \"contracts/task1/IntToRoman.sol\":822:843  intToRoman[40] = \"XL\" */\n  swap1\n  dup2\n  tag_17\n  swap2\n  swap1\n  tag_5\n  jump\t// in\ntag_17:\n  pop\n    /* \"contracts/task1/IntToRoman.sol\":854:874  intToRoman[50] = \"L\" */\n  mload(0x40)\n  dup1\n  0x40\n  add\n  0x40\n  mstore\n  dup1\n  0x01\n  dup2\n  mstore\n  0x20\n  add\n  0x4c00000000000000000000000000000000000000000000000000000000000000\n  dup2\n  mstore\n  pop\n    /* \"contracts/task1/IntToRoman.sol\":854:864  intToRoman */\n  0x00\n    /* \"contracts/task1/IntToRoman.sol\":854:868  intToRoman[50] */\n  0x00\n    /* \"contracts/task1/IntToRoman.sol\":865:867  50 */\n  0x32\n    /* \"contracts/task1/IntToRoman.sol\":854:868  intToRoman[50] */\n  dup2\n  mstore\n  0x20\n  add\n  swap1\n  dup2\n  mstore\n  0x20\n  add\n  0x00\n  keccak256\n    /* \"contracts/task1/IntToRoman.sol\":854:874  intToRoman[50] = \"L\" */\n  swap1\n  dup2\n  tag_18\n  swap2\n  swap1\n  tag_5\n  jump\t// in\ntag_18:\n  pop\n    /* \"contracts/task1/IntToRoman.sol\":885:906  intToRoman[60] = \"LX\" */\n  mload(0x40)\n  dup1\n  0x40\n  add\n  0x40\n  mstore\n  dup1\n  0x02\n  dup2\n  mstore\n  0x20\n  add\n  0x4c58000000000000000000000000000000000000000000000000000000000000\n  dup2\n  mstore\n  pop\n    /* \"contracts/task1/IntToRoman.sol\":885:895  intToRoman */\n  0x00\n    /* \"contracts/task1/IntToRoman.sol\":885:899  intToRoman[60] */\n  0x00\n    /* \"contracts/task1/IntToRoman.sol\":896:898  60 */\n  0x3c\n    /* \"contracts/task1/IntToRoman.sol\":885:899  intToRoman[60] */\n  dup2\n  mstore\n  0x20\n  add\n  swap1\n  dup2\n  mstore\n  0x20\n  add\n  0x00\n  keccak256\n    /* \"contracts/task1/IntToRoman.sol\":885:906  intToRoman[60] = \"LX\" */\n  swap1\n  dup2\n  tag_19\n  swap2\n  swap1\n  tag_5\n  jump\t// in\ntag_19:\n  pop\n    /* \"contracts/task1/IntToRoman.sol\":917:939  intToRoman[70] = \"LXX\" */\n  mload(0x40)\n  dup1\n  0x40\n  add\n  0x40\n  mstore\n  dup1\n  0x03\n  dup2\n  mstore\n  0x20\n  add\n  0x4c58580000000000000000000000000000000000000000000000000000000000\n  dup2\n  mstore\n  pop\n    /* \"contracts/task1/IntToRoman.sol\":917:927  intToRoman */\n  0x00\n    /* \"contracts/task1/IntToRoman.sol\":917:931  intToRoman[70] */\n  0x00\n    /* \"contracts/task1/IntToRoman.sol\":928:930  70 */\n  0x46\n    /* \"contracts/task1/IntToRoman.sol\":917:931  intToRoman[70] */\n  dup2\n  mstore\n  0x20\n  add\n  swap1\n  dup2\n  mstore\n  0x20\n  add\n  0x00\n  keccak256\n    /* \"contracts/task1/IntToRoman.sol\":917:939  intToRoman[70] = \"LXX\" */\n  swap1\n  dup2\n  tag_20\n  swap2\n  swap1\n  tag_5\n  jump\t// in\ntag_20:\n  pop\n    /* \"contracts/task1/IntToRoman.sol\":950:973  intToRoman[80] = \"LXXX\" */\n  mload(0x40)\n  dup1\n  0x40\n  add\n  0x40\n  mstore\n  dup1\n  0x04\n  dup2\n  mstore\n  0x20\n  add\n  0x4c58585800000000000000000000000000000000000000000000000000000000\n  dup2\n  mstore\n  pop\n    /* \"contracts/task1/IntToRoman.sol\":950:960  intToRoman */\n  0x00\n    /* \"contracts/task1/IntToRoman.sol\":950:964  intToRoman[80] */\n  0x00\n    /* \"contracts/task1/IntToRoman.sol\":961:963  80 */\n  0x50\n    /* \"contracts/task1/IntToRoman.sol\":950:964  intToRoman[80] */\n  dup2\n  mstore\n  0x20\n  add\n  swap1\n  dup2\n  mstore\n  0x20\n  add\n  0x00\n  keccak256\n    /* \"contracts/task1/IntToRoman.sol\":950:973  intToRoman[80] = \"LXXX\" */\n  swap1\n  dup2\n  tag_21\n  swap2\n  swap1\n  tag_5\n  jump\t// in\ntag_21:\n  pop\n    /* \"contracts/task1/IntToRoman.sol\":984:1005  intToRoman[90] = \"XC\" */\n  mload(0x40)\n  dup1\n  0x40\n  add\n  0x40\n  mstore\n  dup1\n  0x02\n  dup2\n  mstore\n  0x20\n  add\n  0x5843000000000000000000000000000000000000000000000000000000000000\n  dup2\n  mstore\n  pop\n    /* \"contracts/task1/IntToRoman.sol\":984:994  intToRoman */\n  0x00\n    /* \"contracts/task1/IntToRoman.sol\":984:998  intToRoman[90] */\n  0x00\n    /* \"contracts/task1/IntToRoman.sol\":995:997  90 */\n  0x5a\n    /* \"contracts/task1/IntToRoman.sol\":984:998  intToRoman[90] */\n  dup2\n  mstore\n  0x20\n  add\n  swap1\n  dup2\n  mstore\n  0x20\n  add\n  0x00\n  keccak256\n    /* \"contracts/task1/IntToRoman.sol\":984:1005  intToRoman[90] = \"XC\" */\n  swap1\n  dup2\n  tag_22\n  swap2\n  swap1\n  tag_5\n  jump\t// in\ntag_22:\n  pop\n    /* \"contracts/task1/IntToRoman.sol\":1018:1039  intToRoman[100] = \"C\" */\n  mload(0x40)\n  dup1\n  0x40\n  add\n  0x40\n  mstore\n  dup1\n  0x01\n  dup2\n  mstore\n  0x20\n  add\n  0x4300000000000000000000000000000000000000000000000000000000000000\n  dup2\n  mstore\n  pop\n    /* \"contracts/task1/IntToRoman.sol\":1018:1028  intToRoman */\n  0x00\n    /* \"contracts/task1/IntToRoman.sol\":1018:1033  intToRoman[100] */\n  0x00\n    /* \"contracts/task1/IntToRoman.sol\":1029:1032  100 */\n  0x64\n    /* \"contracts/task1/IntToRoman.sol\":1018:1033  intToRoman[100] */\n  dup2\n  mstore\n  0x20\n  add\n  swap1\n  dup2\n  mstore\n  0x20\n  add\n  0x00\n  keccak256\n    /* \"contracts/task1/IntToRoman.sol\":1018:1039  intToRoman[100] = \"C\" */\n  swap1\n  dup2\n  tag_23\n  swap2\n  swap1\n  tag_5\n  jump\t// in\ntag_23:\n  pop\n    /* \"contracts/task1/IntToRoman.sol\":1050:1072  intToRoman[200] = \"CC\" */\n  mload(0x40)\n  dup1\n  0x40\n  add\n  0x40\n  mstore\n  dup1\n  0x02\n  dup2\n  mstore\n  0x20\n  add\n  0x4343000000000000000000000000000000000000000000000000000000000000\n  dup2\n  mstore\n  pop\n    /* \"contracts/task1/IntToRoman.sol\":1050:1060  intToRoman */\n  0x00\n    /* \"contracts/task1/IntToRoman.sol\":1050:1065  intToRoman[200] */\n  0x00\n    /* \"contracts/task1/IntToRoman.sol\":1061:1064  200 */\n  0xc8\n    /* \"contracts/task1/IntToRoman.sol\":1050:1065  intToRoman[200] */\n  dup2\n  mstore\n  0x20\n  add\n  swap1\n  dup2\n  mstore\n  0x20\n  add\n  0x00\n  keccak256\n    /* \"contracts/task1/IntToRoman.sol\":1050:1072  intToRoman[200] = \"CC\" */\n  swap1\n  dup2\n  tag_24\n  swap2\n  swap1\n  tag_5\n  jump\t// in\ntag_24:\n  pop\n    /* \"contracts/task1/IntToRoman.sol\":1083:1106  intToRoman[300] = \"CCC\" */\n  mload(0x40)\n  dup1\n  0x40\n  add\n  0x40\n  mstore\n  dup1\n  0x03\n  dup2\n  mstore\n  0x20\n  add\n  0x4343430000000000000000000000000000000000000000000000000000000000\n  dup2\n  mstore\n  pop\n    /* \"contracts/task1/IntToRoman.sol\":1083:1093  intToRoman */\n  0x00\n    /* \"contracts/task1/IntToRoman.sol\":1083:1098  intToRoman[300] */\n  0x00\n    /* \"contracts/task1/IntToRoman.sol\":1094:1097  300 */\n  0x012c\n    /* \"contracts/task1/IntToRoman.sol\":1083:1098  intToRoman[300] */\n  dup2\n  mstore\n  0x20\n  add\n  swap1\n  dup2\n  mstore\n  0x20\n  add\n  0x00\n  keccak256\n    /* \"contracts/task1/IntToRoman.sol\":1083:1106  intToRoman[300] = \"CCC\" */\n  swap1\n  dup2\n  tag_25\n  swap2\n  swap1\n  tag_5\n  jump\t// in\ntag_25:\n  pop\n    /* \"contracts/task1/IntToRoman.sol\":1117:1139  intToRoman[400] = \"CD\" */\n  mload(0x40)\n  dup1\n  0x40\n  add\n  0x40\n  mstore\n  dup1\n  0x02\n  dup2\n  mstore\n  0x20\n  add\n  0x4344000000000000000000000000000000000000000000000000000000000000\n  dup2\n  mstore\n  pop\n    /* \"contracts/task1/IntToRoman.sol\":1117:1127  intToRoman */\n  0x00\n    /* \"contracts/task1/IntToRoman.sol\":1117:1132  intToRoman[400] */\n  0x00\n    /* \"contracts/task1/IntToRoman.sol\":1128:1131  400 */\n  0x0190\n    /* \"contracts/task1/IntToRoman.sol\":1117:1132  intToRoman[400] */\n  dup2\n  mstore\n  0x20\n  add\n  swap1\n  dup2\n  mstore\n  0x20\n  add\n  0x00\n  keccak256\n    /* \"contracts/task1/IntToRoman.sol\":1117:1139  intToRoman[400] = \"CD\" */\n  swap1\n  dup2\n  tag_26\n  swap2\n  swap1\n  tag_5\n  jump\t// in\ntag_26:\n  pop\n    /* \"contracts/task1/IntToRoman.sol\":1150:1171  intToRoman[500] = \"D\" */\n  mload(0x40)\n  dup1\n  0x40\n  add\n  0x40\n  mstore\n  dup1\n  0x01\n  dup2\n  mstore\n  0x20\n  add\n  0x4400000000000000000000000000000000000000000000000000000000000000\n  dup2\n  mstore\n  pop\n    /* \"contracts/task1/IntToRoman.sol\":1150:1160  intToRoman */\n  0x00\n    /* \"contracts/task1/IntToRoman.sol\":1150:1165  intToRoman[500] */\n  0x00\n    /* \"contracts/task1/IntToRoman.sol\":1161:1164  500 */\n  0x01f4\n    /* \"contracts/task1/IntToRoman.sol\":1150:1165  intToRoman[500] */\n  dup2\n  mstore\n  0x20\n  add\n  swap1\n  dup2\n  mstore\n  0x20\n  add\n  0x00\n  keccak256\n    /* \"contracts/task1/IntToRoman.sol\":1150:1171  intToRoman[500] = \"D\" */\n  swap1\n  dup2\n  tag_27\n  swap2\n  swap1\n  tag_5\n  jump\t// in\ntag_27:\n  pop\n    /* \"contracts/task1/IntToRoman.sol\":1182:1204  intToRoman[600] = \"DC\" */\n  mload(0x40)\n  dup1\n  0x40\n  add\n  0x40\n  mstore\n  dup1\n  0x02\n  dup2\n  mstore\n  0x20\n  add\n  0x4443000000000000000000000000000000000000000000000000000000000000\n  dup2\n  mstore\n  pop\n    /* \"contracts/task1/IntToRoman.sol\":1182:1192  intToRoman */\n  0x00\n    /* \"contracts/task1/IntToRoman.sol\":1182:1197  intToRoman[600] */\n  0x00\n    /* \"contracts/task1/IntToRoman.sol\":1193:1196  600 */\n  0x0258\n    /* \"contracts/task1/IntToRoman.sol\":1182:1197  intToRoman[600] */\n  dup2\n  mstore\n  0x20\n  add\n  swap1\n  dup2\n  mstore\n  0x20\n  add\n  0x00\n  keccak256\n    /* \"contracts/task1/IntToRoman.sol\":1182:1204  intToRoman[600] = \"DC\" */\n  swap1\n  dup2\n  tag_28\n  swap2\n  swap1\n  tag_5\n  jump\t// in\ntag_28:\n  pop\n    /* \"contracts/task1/IntToRoman.sol\":1215:1238  intToRoman[700] = \"DCC\" */\n  mload(0x40)\n  dup1\n  0x40\n  add\n  0x40\n  mstore\n  dup1\n  0x03\n  dup2\n  mstore\n  0x20\n  add\n  0x4443430000000000000000000000000000000000000000000000000000000000\n  dup2\n  mstore\n  pop\n    /* \"contracts/task1/IntToRoman.sol\":1215:1225  intToRoman */\n  0x00\n    /* \"contracts/task1/IntToRoman.sol\":1215:1230  intToRoman[700] */\n  0x00\n    /* \"contracts/task1/IntToRoman.sol\":1226:1229  700 */\n  0x02bc\n    /* \"contracts/task1/IntToRoman.sol\":1215:1230  intToRoman[700] */\n  dup2\n  mstore\n  0x20\n  add\n  swap1\n  dup2\n  mstore\n  0x20\n  add\n  0x00\n  keccak256\n    /* \"contracts/task1/IntToRoman.sol\":1215:1238  intToRoman[700] = \"DCC\" */\n  swap1\n  dup2\n  tag_29\n  swap2\n  swap1\n  tag_5\n  jump\t// in\ntag_29:\n  pop\n    /* \"contracts/task1/IntToRoman.sol\":1249:1273  intToRoman[800] = \"DCCC\" */\n  mload(0x40)\n  dup1\n  0x40\n  add\n  0x40\n  mstore\n  dup1\n  0x04\n  dup2\n  mstore\n  0x20\n  add\n  0x4443434300000000000000000000000000000000000000000000000000000000\n  dup2\n  mstore\n  pop\n    /* \"contracts/task1/IntToRoman.sol\":1249:1259  intToRoman */\n  0x00\n    /* \"contracts/task1/IntToRoman.sol\":1249:1264  intToRoman[800] */\n  0x00\n    /* \"contracts/task1/IntToRoman.sol\":1260:1263  800 */\n  0x0320\n    /* \"contracts/task1/IntToRoman.sol\":1249:1264  intToRoman[800] */\n  dup2\n  mstore\n  0x20\n  add\n  swap1\n  dup2\n  mstore\n  0x20\n  add\n  0x00\n  keccak256\n    /* \"contracts/task1/IntToRoman.sol\":1249:1273  intToRoman[800] = \"DCCC\" */\n  swap1\n  dup2\n  tag_30\n  swap2\n  swap1\n  tag_5\n  jump\t// in\ntag_30:\n  pop\n    /* \"contracts/task1/IntToRoman.sol\":1284:1306  intToRoman[900] = \"CM\" */\n  mload(0x40)\n  dup1\n  0x40\n  add\n  0x40\n  mstore\n  dup1\n  0x02\n  dup2\n  mstore\n  0x20\n  add\n  0x434d000000000000000000000000000000000000000000000000000000000000\n  dup2\n  mstore\n  pop\n    /* \"contracts/task1/IntToRoman.sol\":1284:1294  intToRoman */\n  0x00\n    /* \"contracts/task1/IntToRoman.sol\":1284:1299  intToRoman[900] */\n  0x00\n    /* \"contracts/task1/IntToRoman.sol\":1295:1298  900 */\n  0x0384\n    /* \"contracts/task1/IntToRoman.sol\":1284:1299  intToRoman[900] */\n  dup2\n  mstore\n  0x20\n  add\n  swap1\n  dup2\n  mstore\n  0x20\n  add\n  0x00\n  keccak256\n    /* \"contracts/task1/IntToRoman.sol\":1284:1306  intToRoman[900] = \"CM\" */\n  swap1\n  dup2\n  tag_31\n  swap2\n  swap1\n  tag_5\n  jump\t// in\ntag_31:\n  pop\n    /* \"contracts/task1/IntToRoman.sol\":1319:1341  intToRoman[1000] = \"M\" */\n  mload(0x40)\n  dup1\n  0x40\n  add\n  0x40\n  mstore\n  dup1\n  0x01\n  dup2\n  mstore\n  0x20\n  add\n  0x4d00000000000000000000000000000000000000000000000000000000000000\n  dup2\n  mstore\n  pop\n    /* \"contracts/task1/IntToRoman.sol\":1319:1329  intToRoman */\n  0x00\n    /* \"contracts/task1/IntToRoman.sol\":1319:1335  intToRoman[1000] */\n  0x00\n    /* \"contracts/task1/IntToRoman.sol\":1330:1334  1000 */\n  0x03e8\n    /* \"contracts/task1/IntToRoman.sol\":1319:1335  intToRoman[1000] */\n  dup2\n  mstore\n  0x20\n  add\n  swap1\n  dup2\n  mstore\n  0x20\n  add\n  0x00\n  keccak256\n    /* \"contracts/task1/IntToRoman.sol\":1319:1341  intToRoman[1000] = \"M\" */\n  swap1\n  dup2\n  tag_32\n  swap2\n  swap1\n  tag_5\n  jump\t// in\ntag_32:\n  pop\n    /* \"contracts/task1/IntToRoman.sol\":1352:1375  intToRoman[2000] = \"MM\" */\n  mload(0x40)\n  dup1\n  0x40\n  add\n  0x40\n  mstore\n  dup1\n  0x02\n  dup2\n  mstore\n  0x20\n  add\n  0x4d4d000000000000000000000000000000000000000000000000000000000000\n  dup2\n  mstore\n  pop\n    /* \"contracts/task1/IntToRoman.sol\":1352:1362  intToRoman */\n  0x00\n    /* \"contracts/task1/IntToRoman.sol\":1352:1368  intToRoman[2000] */\n  0x00\n    /* \"contracts/task1/IntToRoman.sol\":1363:1367  2000 */\n  0x07d0\n    /* \"contracts/task1/IntToRoman.sol\":1352:1368  intToRoman[2000] */\n  dup2\n  mstore\n  0x20\n  add\n  swap1\n  dup2\n  mstore\n  0x20\n  add\n  0x00\n  keccak256\n    /* \"contracts/task1/IntToRoman.sol\":1352:1375  intToRoman[2000] = \"MM\" */\n  swap1\n  dup2\n  tag_33\n  swap2\n  swap1\n  tag_5\n  jump\t// in\ntag_33:\n  pop\n    /* \"contracts/task1/IntToRoman.sol\":1386:1410  intToRoman[3000] = \"MMM\" */\n  mload(0x40)\n  dup1\n  0x40\n  add\n  0x40\n  mstore\n  dup1\n  0x03\n  dup2\n  mstore\n  0x20\n  add\n  0x4d4d4d0000000000000000000000000000000000000000000000000000000000\n  dup2\n  mstore\n  pop\n    /* \"contracts/task1/IntToRoman.sol\":1386:1396  intToRoman */\n  0x00\n    /* \"contracts/task1/IntToRoman.sol\":1386:1402  intToRoman[3000] */\n  0x00\n    /* \"contracts/task1/IntToRoman.sol\":1397:1401  3000 */\n  0x0bb8\n    /* \"contracts/task1/IntToRoman.sol\":1386:1402  intToRoman[3000] */\n  dup2\n  mstore\n  0x20\n  add\n  swap1\n  dup2\n  mstore\n  0x20\n  add\n  0x00\n  keccak256\n    /* \"contracts/task1/IntToRoman.sol\":1386:1410  intToRoman[3000] = \"MMM\" */\n  swap1\n  dup2\n  tag_34\n  swap2\n  swap1\n  tag_5\n  jump\t// in\ntag_34:\n  pop\n    /* \"contracts/task1/IntToRoman.sol\":1442:1443  0 */\n  0x00\n    /* \"contracts/task1/IntToRoman.sol\":1423:1433  bytesToInt */\n  0x01\n    /* \"contracts/task1/IntToRoman.sol\":1423:1439  bytesToInt[0x30] */\n  0x00\n    /* \"contracts/task1/IntToRoman.sol\":1434:1438  0x30 */\n  0x30\n    /* \"contracts/task1/IntToRoman.sol\":1423:1439  bytesToInt[0x30] */\n  0xf8\n  shl\n  not(0xffffffffffffffffffffffffffffffffffffffffffffffffffffffffffffff)\n  and\n  dup2\n  mstore\n  0x20\n  add\n  swap1\n  dup2\n  mstore\n  0x20\n  add\n  0x00\n  keccak256\n    /* \"contracts/task1/IntToRoman.sol\":1423:1443  bytesToInt[0x30] = 0 */\n  dup2\n  swap1\n  sstore\n  pop\n    /* \"contracts/task1/IntToRoman.sol\":1473:1474  1 */\n  0x01\n    /* \"contracts/task1/IntToRoman.sol\":1454:1464  bytesToInt */\n  dup1\n    /* \"contracts/task1/IntToRoman.sol\":1454:1470  bytesToInt[0x31] */\n  0x00\n    /* \"contracts/task1/IntToRoman.sol\":1465:1469  0x31 */\n  0x31\n    /* \"contracts/task1/IntToRoman.sol\":1454:1470  bytesToInt[0x31] */\n  0xf8\n  shl\n  not(0xffffffffffffffffffffffffffffffffffffffffffffffffffffffffffffff)\n  and\n  dup2\n  mstore\n  0x20\n  add\n  swap1\n  dup2\n  mstore\n  0x20\n  add\n  0x00\n  keccak256\n    /* \"contracts/task1/IntToRoman.sol\":1454:1474  bytesToInt[0x31] = 1 */\n  dup2\n  swap1\n  sstore\n  pop\n    /* \"contracts/task1/IntToRoman.sol\":1504:1505  2 */\n  0x02\n    /* \"contracts/task1/IntToRoman.sol\":1485:1495  bytesToInt */\n  0x01\n    /* \"contracts/task1/IntToRoman.sol\":1485:1501  bytesToInt[0x32] */\n  0x00\n    /* \"contracts/task1/IntToRoman.sol\":1496:1500  0x32 */\n  0x32\n    /* \"contracts/task1/IntToRoman.sol\":1485:1501  bytesToInt[0x32] */\n  0xf8\n  shl\n  not(0xffffffffffffffffffffffffffffffffffffffffffffffffffffffffffffff)\n  and\n  dup2\n  mstore\n  0x20\n  add\n  swap1\n  dup2\n  mstore\n  0x20\n  add\n  0x00\n  keccak256\n    /* \"contracts/task1/IntToRoman.sol\":1485:1505  bytesToInt[0x32] = 2 */\n  dup2\n  swap1\n  sstore\n  pop\n    /* \"contracts/task1/IntToRoman.sol\":1535:1536  3 */\n  0x03\n    /* \"contracts/task1/IntToRoman.sol\":1516:1526  bytesToInt */\n  0x01\n    /* \"contracts/task1/IntToRoman.sol\":1516:1532  bytesToInt[0x33] */\n  0x00\n    /* \"contracts/task1/IntToRoman.sol\":1527:1531  0x33 */\n  0x33\n    /* \"contracts/task1/IntToRoman.sol\":1516:1532  bytesToInt[0x33] */\n  0xf8\n  shl\n  not(0xffffffffffffffffffffffffffffffffffffffffffffffffffffffffffffff)\n  and\n  dup2\n  mstore\n  0x20\n  add\n  swap1\n  dup2\n  mstore\n  0x20\n  add\n  0x00\n  keccak256\n    /* \"contracts/task1/IntToRoman.sol\":1516:1536  bytesToInt[0x33] = 3 */\n  dup2\n  swap1\n  sstore\n  pop\n    /* \"contracts/task1/IntToRoman.sol\":1566:1567  4 */\n  0x04\n    /* \"contracts/task1/IntToRoman.sol\":1547:1557  bytesToInt */\n  0x01\n    /* \"contracts/task1/IntToRoman.sol\":1547:1563  bytesToInt[0x34] */\n  0x00\n    /* \"contracts/task1/IntToRoman.sol\":1558:1562  0x34 */\n  0x34\n    /* \"contracts/task1/IntToRoman.sol\":1547:1563  bytesToInt[0x34] */\n  0xf8\n  shl\n  not(0xffffffffffffffffffffffffffffffffffffffffffffffffffffffffffffff)\n  and\n  dup2\n  mstore\n  0x20\n  add\n  swap1\n  dup2\n  mstore\n  0x20\n  add\n  0x00\n  keccak256\n    /* \"contracts/task1/IntToRoman.sol\":1547:1567  bytesToInt[0x34] = 4 */\n  dup2\n  swap1\n  sstore\n  pop\n    /* \"contracts/task1/IntToRoman.sol\":1597:1598  5 */\n  0x05\n    /* \"contracts/task1/IntToRoman.sol\":1578:1588  bytesToInt */\n  0x01\n    /* \"contracts/task1/IntToRoman.sol\":1578:1594  bytesToInt[0x35] */\n  0x00\n    /* \"contracts/task1/IntToRoman.sol\":1589:1593  0x35 */\n  0x35\n    /* \"contracts/task1/IntToRoman.sol\":1578:1594  bytesToInt[0x35] */\n  0xf8\n  shl\n  not(0xffffffffffffffffffffffffffffffffffffffffffffffffffffffffffffff)\n  and\n  dup2\n  mstore\n  0x20\n  add\n  swap1\n  dup2\n  mstore\n  0x20\n  add\n  0x00\n  keccak256\n    /* \"contracts/task1/IntToRoman.sol\":1578:1598  bytesToInt[0x35] = 5 */\n  dup2\n  swap1\n  sstore\n  pop\n    /* \"contracts/task1/IntToRoman.sol\":1628:1629  6 */\n  0x06\n    /* \"contracts/task1/IntToRoman.sol\":1609:1619  bytesToInt */\n  0x01\n    /* \"contracts/task1/IntToRoman.sol\":1609:1625  bytesToInt[0x36] */\n  0x00\n    /* \"contracts/task1/IntToRoman.sol\":1620:1624  0x36 */\n  0x36\n    /* \"contracts/task1/IntToRoman.sol\":1609:1625  bytesToInt[0x36] */\n  0xf8\n  shl\n  not(0xffffffffffffffffffffffffffffffffffffffffffffffffffffffffffffff)\n  and\n  dup2\n  mstore\n  0x20\n  add\n  swap1\n  dup2\n  mstore\n  0x20\n  add\n  0x00\n  keccak256\n    /* \"contracts/task1/IntToRoman.sol\":1609:1629  bytesToInt[0x36] = 6 */\n  dup2\n  swap1\n  sstore\n  pop\n    /* \"contracts/task1/IntToRoman.sol\":1659:1660  7 */\n  0x07\n    /* \"contracts/task1/IntToRoman.sol\":1640:1650  bytesToInt */\n  0x01\n    /* \"contracts/task1/IntToRoman.sol\":1640:1656  bytesToInt[0x37] */\n  0x00\n    /* \"contracts/task1/IntToRoman.sol\":1651:1655  0x37 */\n  0x37\n    /* \"contracts/task1/IntToRoman.sol\":1640:1656  bytesToInt[0x37] */\n  0xf8\n  shl\n  not(0xffffffffffffffffffffffffffffffffffffffffffffffffffffffffffffff)\n  and\n  dup2\n  mstore\n  0x20\n  add\n  swap1\n  dup2\n  mstore\n  0x20\n  add\n  0x00\n  keccak256\n    /* \"contracts/task1/IntToRoman.sol\":1640:1660  bytesToInt[0x37] = 7 */\n  dup2\n  swap1\n  sstore\n  pop\n    /* \"contracts/task1/IntToRoman.sol\":1690:1691  8 */\n  0x08\n    /* \"contracts/task1/IntToRoman.sol\":1671:1681  bytesToInt */\n  0x01\n    /* \"contracts/task1/IntToRoman.sol\":1671:1687  bytesToInt[0x38] */\n  0x00\n    /* \"contracts/task1/IntToRoman.sol\":1682:1686  0x38 */\n  0x38\n    /* \"contracts/task1/IntToRoman.sol\":1671:1687  bytesToInt[0x38] */\n  0xf8\n  shl\n  not(0xffffffffffffffffffffffffffffffffffffffffffffffffffffffffffffff)\n  and\n  dup2\n  mstore\n  0x20\n  add\n  swap1\n  dup2\n  mstore\n  0x20\n  add\n  0x00\n  keccak256\n    /* \"contracts/task1/IntToRoman.sol\":1671:1691  bytesToInt[0x38] = 8 */\n  dup2\n  swap1\n  sstore\n  pop\n    /* \"contracts/task1/IntToRoman.sol\":1721:1722  9 */\n  0x09\n    /* \"contracts/task1/IntToRoman.sol\":1702:1712  bytesToInt */\n  0x01\n    /* \"contracts/task1/IntToRoman.sol\":1702:1718  bytesToInt[0x39] */\n  0x00\n    /* \"contracts/task1/IntToRoman.sol\":1713:1717  0x39 */\n  0x39\n    /* \"contracts/task1/IntToRoman.sol\":1702:1718  bytesToInt[0x39] */\n  0xf8\n  shl\n  not(0xffffffffffffffffffffffffffffffffffffffffffffffffffffffffffffff)\n  and\n  dup2\n  mstore\n  0x20\n  add\n  swap1\n  dup2\n  mstore\n  0x20\n  add\n  0x00\n  keccak256\n    /* \"contracts/task1/IntToRoman.sol\":1702:1722  bytesToInt[0x39] = 9 */\n  dup2\n  swap1\n  sstore\n  pop\n    /* \"contracts/task1/IntToRoman.sol\":157:2547  contract IntToRoman {... */\n  jump(tag_35)\n    /* \"#utility.yul\":7:106   */\ntag_36:\n    /* \"#utility.yul\":59:65   */\n  0x00\n    /* \"#utility.yul\":93:98   */\n  dup2\n    /* \"#utility.yul\":87:99   */\n  mload\n    /* \"#utility.yul\":77:99   */\n  swap1\n  pop\n    /* \"#utility.yul\":7:106   */\n  swap2\n  swap1\n  pop\n  jump\t// out\n    /* \"#utility.yul\":112:292   */\ntag_37:\n    /* \"#utility.yul\":160:237   */\n  0x4e487b7100000000000000000000000000000000000000000000000000000000\n    /* \"#utility.yul\":157:158   */\n  0x00\n    /* \"#utility.yul\":150:238   */\n  mstore\n    /* \"#utility.yul\":257:261   */\n  0x41\n    /* \"#utility.yul\":254:255   */\n  0x04\n    /* \"#utility.yul\":247:262   */\n  mstore\n    /* \"#utility.yul\":281:285   */\n  0x24\n    /* \"#utility.yul\":278:279   */\n  0x00\n    /* \"#utility.yul\":271:286   */\n  revert\n    /* \"#utility.yul\":298:478   */\ntag_38:\n    /* \"#utility.yul\":346:423   */\n  0x4e487b7100000000000000000000000000000000000000000000000000000000\n    /* \"#utility.yul\":343:344   */\n  0x00\n    /* \"#utility.yul\":336:424   */\n  mstore\n    /* \"#utility.yul\":443:447   */\n  0x22\n    /* \"#utility.yul\":440:441   */\n  0x04\n    /* \"#utility.yul\":433:448   */\n  mstore\n    /* \"#utility.yul\":467:471   */\n  0x24\n    /* \"#utility.yul\":464:465   */\n  0x00\n    /* \"#utility.yul\":457:472   */\n  revert\n    /* \"#utility.yul\":484:804   */\ntag_39:\n    /* \"#utility.yul\":528:534   */\n  0x00\n    /* \"#utility.yul\":565:566   */\n  0x02\n    /* \"#utility.yul\":559:563   */\n  dup3\n    /* \"#utility.yul\":555:567   */\n  div\n    /* \"#utility.yul\":545:567   */\n  swap1\n  pop\n    /* \"#utility.yul\":612:613   */\n  0x01\n    /* \"#utility.yul\":606:610   */\n  dup3\n    /* \"#utility.yul\":602:614   */\n  and\n    /* \"#utility.yul\":633:651   */\n  dup1\n    /* \"#utility.yul\":623:704   */\n  tag_61\n  jumpi\n    /* \"#utility.yul\":689:693   */\n  0x7f\n    /* \"#utility.yul\":681:687   */\n  dup3\n    /* \"#utility.yul\":677:694   */\n  and\n    /* \"#utility.yul\":667:694   */\n  swap2\n  pop\n    /* \"#utility.yul\":623:704   */\ntag_61:\n    /* \"#utility.yul\":751:753   */\n  0x20\n    /* \"#utility.yul\":743:749   */\n  dup3\n    /* \"#utility.yul\":740:754   */\n  lt\n    /* \"#utility.yul\":720:738   */\n  dup2\n    /* \"#utility.yul\":717:755   */\n  sub\n    /* \"#utility.yul\":714:798   */\n  tag_62\n  jumpi\n    /* \"#utility.yul\":770:788   */\n  tag_63\n  tag_38\n  jump\t// in\ntag_63:\n    /* \"#utility.yul\":714:798   */\ntag_62:\n    /* \"#utility.yul\":535:804   */\n  pop\n    /* \"#utility.yul\":484:804   */\n  swap2\n  swap1\n  pop\n  jump\t// out\n    /* \"#utility.yul\":810:951   */\ntag_40:\n    /* \"#utility.yul\":859:863   */\n  0x00\n    /* \"#utility.yul\":882:885   */\n  dup2\n    /* \"#utility.yul\":874:885   */\n  swap1\n  pop\n    /* \"#utility.yul\":905:908   */\n  dup2\n    /* \"#utility.yul\":902:903   */\n  0x00\n    /* \"#utility.yul\":895:909   */\n  mstore\n    /* \"#utility.yul\":939:943   */\n  0x20\n    /* \"#utility.yul\":936:937   */\n  0x00\n    /* \"#utility.yul\":926:944   */\n  keccak256\n    /* \"#utility.yul\":918:944   */\n  swap1\n  pop\n    /* \"#utility.yul\":810:951   */\n  swap2\n  swap1\n  pop\n  jump\t// out\n    /* \"#utility.yul\":957:1050   */\ntag_41:\n    /* \"#utility.yul\":994:1000   */\n  0x00\n    /* \"#utility.yul\":1041:1043   */\n  0x20\n    /* \"#utility.yul\":1036:1038   */\n  0x1f\n    /* \"#utility.yul\":1029:1034   */\n  dup4\n    /* \"#utility.yul\":1025:1039   */\n  add\n    /* \"#utility.yul\":1021:1044   */\n  div\n    /* \"#utility.yul\":1011:1044   */\n  swap1\n  pop\n    /* \"#utility.yul\":957:1050   */\n  swap2\n  swap1\n  pop\n  jump\t// out\n    /* \"#utility.yul\":1056:1163   */\ntag_42:\n    /* \"#utility.yul\":1100:1108   */\n  0x00\n    /* \"#utility.yul\":1150:1155   */\n  dup3\n    /* \"#utility.yul\":1144:1148   */\n  dup3\n    /* \"#utility.yul\":1140:1156   */\n  shl\n    /* \"#utility.yul\":1119:1156   */\n  swap1\n  pop\n    /* \"#utility.yul\":1056:1163   */\n  swap3\n  swap2\n  pop\n  pop\n  jump\t// out\n    /* \"#utility.yul\":1169:1562   */\ntag_43:\n    /* \"#utility.yul\":1238:1244   */\n  0x00\n    /* \"#utility.yul\":1288:1289   */\n  0x08\n    /* \"#utility.yul\":1276:1286   */\n  dup4\n    /* \"#utility.yul\":1272:1290   */\n  mul\n    /* \"#utility.yul\":1311:1408   */\n  tag_68\n    /* \"#utility.yul\":1341:1407   */\n  0xffffffffffffffffffffffffffffffffffffffffffffffffffffffffffffffff\n    /* \"#utility.yul\":1330:1339   */\n  dup3\n    /* \"#utility.yul\":1311:1408   */\n  tag_42\n  jump\t// in\ntag_68:\n    /* \"#utility.yul\":1429:1468   */\n  tag_69\n    /* \"#utility.yul\":1459:1467   */\n  dup7\n    /* \"#utility.yul\":1448:1457   */\n  dup4\n    /* \"#utility.yul\":1429:1468   */\n  tag_42\n  jump\t// in\ntag_69:\n    /* \"#utility.yul\":1417:1468   */\n  swap6\n  pop\n    /* \"#utility.yul\":1501:1505   */\n  dup1\n    /* \"#utility.yul\":1497:1506   */\n  not\n    /* \"#utility.yul\":1490:1495   */\n  dup5\n    /* \"#utility.yul\":1486:1507   */\n  and\n    /* \"#utility.yul\":1477:1507   */\n  swap4\n  pop\n    /* \"#utility.yul\":1550:1554   */\n  dup1\n    /* \"#utility.yul\":1540:1548   */\n  dup7\n    /* \"#utility.yul\":1536:1555   */\n  and\n    /* \"#utility.yul\":1529:1534   */\n  dup5\n    /* \"#utility.yul\":1526:1556   */\n  or\n    /* \"#utility.yul\":1516:1556   */\n  swap3\n  pop\n    /* \"#utility.yul\":1245:1562   */\n  pop\n  pop\n    /* \"#utility.yul\":1169:1562   */\n  swap4\n  swap3\n  pop\n  pop\n  pop\n  jump\t// out\n    /* \"#utility.yul\":1568:1645   */\ntag_44:\n    /* \"#utility.yul\":1605:1612   */\n  0x00\n    /* \"#utility.yul\":1634:1639   */\n  dup2\n    /* \"#utility.yul\":1623:1639   */\n  swap1\n  pop\n    /* \"#utility.yul\":1568:1645   */\n  swap2\n  swap1\n  pop\n  jump\t// out\n    /* \"#utility.yul\":1651:1711   */\ntag_45:\n    /* \"#utility.yul\":1679:1682   */\n  0x00\n    /* \"#utility.yul\":1700:1705   */\n  dup2\n    /* \"#utility.yul\":1693:1705   */\n  swap1\n  pop\n    /* \"#utility.yul\":1651:1711   */\n  swap2\n  swap1\n  pop\n  jump\t// out\n    /* \"#utility.yul\":1717:1859   */\ntag_46:\n    /* \"#utility.yul\":1767:1776   */\n  0x00\n    /* \"#utility.yul\":1800:1853   */\n  tag_73\n    /* \"#utility.yul\":1818:1852   */\n  tag_74\n    /* \"#utility.yul\":1827:1851   */\n  tag_75\n    /* \"#utility.yul\":1845:1850   */\n  dup5\n    /* \"#utility.yul\":1827:1851   */\n  tag_44\n  jump\t// in\ntag_75:\n    /* \"#utility.yul\":1818:1852   */\n  tag_45\n  jump\t// in\ntag_74:\n    /* \"#utility.yul\":1800:1853   */\n  tag_44\n  jump\t// in\ntag_73:\n    /* \"#utility.yul\":1787:1853   */\n  swap1\n  pop\n    /* \"#utility.yul\":1717:1859   */\n  swap2\n  swap1\n  pop\n  jump\t// out\n    /* \"#utility.yul\":1865:1940   */\ntag_47:\n    /* \"#utility.yul\":1908:1911   */\n  0x00\n    /* \"#utility.yul\":1929:1934   */\n  dup2\n    /* \"#utility.yul\":1922:1934   */\n  swap1\n  pop\n    /* \"#utility.yul\":1865:1940   */\n  swap2\n  swap1\n  pop\n  jump\t// out\n    /* \"#utility.yul\":1946:2215   */\ntag_48:\n    /* \"#utility.yul\":2056:2095   */\n  tag_78\n    /* \"#utility.yul\":2087:2094   */\n  dup4\n    /* \"#utility.yul\":2056:2095   */\n  tag_46\n  jump\t// in\ntag_78:\n    /* \"#utility.yul\":2117:2208   */\n  tag_79\n    /* \"#utility.yul\":2166:2207   */\n  tag_80\n    /* \"#utility.yul\":2190:2206   */\n  dup3\n    /* \"#utility.yul\":2166:2207   */\n  tag_47\n  jump\t// in\ntag_80:\n    /* \"#utility.yul\":2158:2164   */\n  dup5\n    /* \"#utility.yul\":2151:2155   */\n  dup5\n    /* \"#utility.yul\":2145:2156   */\n  sload\n    /* \"#utility.yul\":2117:2208   */\n  tag_43\n  jump\t// in\ntag_79:\n    /* \"#utility.yul\":2111:2115   */\n  dup3\n    /* \"#utility.yul\":2104:2209   */\n  sstore\n    /* \"#utility.yul\":2022:2215   */\n  pop\n    /* \"#utility.yul\":1946:2215   */\n  pop\n  pop\n  pop\n  jump\t// out\n    /* \"#utility.yul\":2221:2294   */\ntag_49:\n    /* \"#utility.yul\":2266:2269   */\n  0x00\n    /* \"#utility.yul\":2287:2288   */\n  0x00\n    /* \"#utility.yul\":2280:2288   */\n  swap1\n  pop\n    /* \"#utility.yul\":2221:2294   */\n  swap1\n  jump\t// out\n    /* \"#utility.yul\":2300:2489   */\ntag_50:\n    /* \"#utility.yul\":2377:2409   */\n  tag_83\n  tag_49\n  jump\t// in\ntag_83:\n    /* \"#utility.yul\":2418:2483   */\n  tag_84\n    /* \"#utility.yul\":2476:2482   */\n  dup2\n    /* \"#utility.yul\":2468:2474   */\n  dup5\n    /* \"#utility.yul\":2462:2466   */\n  dup5\n    /* \"#utility.yul\":2418:2483   */\n  tag_48\n  jump\t// in\ntag_84:\n    /* \"#utility.yul\":2353:2489   */\n  pop\n    /* \"#utility.yul\":2300:2489   */\n  pop\n  pop\n  jump\t// out\n    /* \"#utility.yul\":2495:2681   */\ntag_51:\n    /* \"#utility.yul\":2555:2675   */\ntag_86:\n    /* \"#utility.yul\":2572:2575   */\n  dup2\n    /* \"#utility.yul\":2565:2570   */\n  dup2\n    /* \"#utility.yul\":2562:2576   */\n  lt\n    /* \"#utility.yul\":2555:2675   */\n  iszero\n  tag_88\n  jumpi\n    /* \"#utility.yul\":2626:2665   */\n  tag_89\n    /* \"#utility.yul\":2663:2664   */\n  0x00\n    /* \"#utility.yul\":2656:2661   */\n  dup3\n    /* \"#utility.yul\":2626:2665   */\n  tag_50\n  jump\t// in\ntag_89:\n    /* \"#utility.yul\":2599:2600   */\n  0x01\n    /* \"#utility.yul\":2592:2597   */\n  dup2\n    /* \"#utility.yul\":2588:2601   */\n  add\n    /* \"#utility.yul\":2579:2601   */\n  swap1\n  pop\n    /* \"#utility.yul\":2555:2675   */\n  jump(tag_86)\ntag_88:\n    /* \"#utility.yul\":2495:2681   */\n  pop\n  pop\n  jump\t// out\n    /* \"#utility.yul\":2687:3230   */\ntag_52:\n    /* \"#utility.yul\":2788:2790   */\n  0x1f\n    /* \"#utility.yul\":2783:2786   */\n  dup3\n    /* \"#utility.yul\":2780:2791   */\n  gt\n    /* \"#utility.yul\":2777:3223   */\n  iszero\n  tag_91\n  jumpi\n    /* \"#utility.yul\":2822:2860   */\n  tag_92\n    /* \"#utility.yul\":2854:2859   */\n  dup2\n    /* \"#utility.yul\":2822:2860   */\n  tag_40\n  jump\t// in\ntag_92:\n    /* \"#utility.yul\":2906:2935   */\n  tag_93\n    /* \"#utility.yul\":2924:2934   */\n  dup5\n    /* \"#utility.yul\":2906:2935   */\n  tag_41\n  jump\t// in\ntag_93:\n    /* \"#utility.yul\":2896:2904   */\n  dup2\n    /* \"#utility.yul\":2892:2936   */\n  add\n    /* \"#utility.yul\":3089:3091   */\n  0x20\n    /* \"#utility.yul\":3077:3087   */\n  dup6\n    /* \"#utility.yul\":3074:3092   */\n  lt\n    /* \"#utility.yul\":3071:3120   */\n  iszero\n  tag_94\n  jumpi\n    /* \"#utility.yul\":3110:3118   */\n  dup2\n    /* \"#utility.yul\":3095:3118   */\n  swap1\n  pop\n    /* \"#utility.yul\":3071:3120   */\ntag_94:\n    /* \"#utility.yul\":3133:3213   */\n  tag_95\n    /* \"#utility.yul\":3189:3211   */\n  tag_96\n    /* \"#utility.yul\":3207:3210   */\n  dup6\n    /* \"#utility.yul\":3189:3211   */\n  tag_41\n  jump\t// in\ntag_96:\n    /* \"#utility.yul\":3179:3187   */\n  dup4\n    /* \"#utility.yul\":3175:3212   */\n  add\n    /* \"#utility.yul\":3162:3173   */\n  dup3\n    /* \"#utility.yul\":3133:3213   */\n  tag_51\n  jump\t// in\ntag_95:\n    /* \"#utility.yul\":2792:3223   */\n  pop\n  pop\n    /* \"#utility.yul\":2777:3223   */\ntag_91:\n    /* \"#utility.yul\":2687:3230   */\n  pop\n  pop\n  pop\n  jump\t// out\n    /* \"#utility.yul\":3236:3353   */\ntag_53:\n    /* \"#utility.yul\":3290:3298   */\n  0x00\n    /* \"#utility.yul\":3340:3345   */\n  dup3\n    /* \"#utility.yul\":3334:3338   */\n  dup3\n    /* \"#utility.yul\":3330:3346   */\n  shr\n    /* \"#utility.yul\":3309:3346   */\n  swap1\n  pop\n    /* \"#utility.yul\":3236:3353   */\n  swap3\n  swap2\n  pop\n  pop\n  jump\t// out\n    /* \"#utility.yul\":3359:3528   */\ntag_54:\n    /* \"#utility.yul\":3403:3409   */\n  0x00\n    /* \"#utility.yul\":3436:3487   */\n  tag_99\n    /* \"#utility.yul\":3484:3485   */\n  0x00\n    /* \"#utility.yul\":3480:3486   */\n  not\n    /* \"#utility.yul\":3472:3477   */\n  dup5\n    /* \"#utility.yul\":3469:3470   */\n  0x08\n    /* \"#utility.yul\":3465:3478   */\n  mul\n    /* \"#utility.yul\":3436:3487   */\n  tag_53\n  jump\t// in\ntag_99:\n    /* \"#utility.yul\":3432:3488   */\n  not\n    /* \"#utility.yul\":3517:3521   */\n  dup1\n    /* \"#utility.yul\":3511:3515   */\n  dup4\n    /* \"#utility.yul\":3507:3522   */\n  and\n    /* \"#utility.yul\":3497:3522   */\n  swap2\n  pop\n    /* \"#utility.yul\":3410:3528   */\n  pop\n    /* \"#utility.yul\":3359:3528   */\n  swap3\n  swap2\n  pop\n  pop\n  jump\t// out\n    /* \"#utility.yul\":3533:3828   */\ntag_55:\n    /* \"#utility.yul\":3609:3613   */\n  0x00\n    /* \"#utility.yul\":3755:3784   */\n  tag_101\n    /* \"#utility.yul\":3780:3783   */\n  dup4\n    /* \"#utility.yul\":3774:3778   */\n  dup4\n    /* \"#utility.yul\":3755:3784   */\n  tag_54\n  jump\t// in\ntag_101:\n    /* \"#utility.yul\":3747:3784   */\n  swap2\n  pop\n    /* \"#utility.yul\":3817:3820   */\n  dup3\n    /* \"#utility.yul\":3814:3815   */\n  0x02\n    /* \"#utility.yul\":3810:3821   */\n  mul\n    /* \"#utility.yul\":3804:3808   */\n  dup3\n    /* \"#utility.yul\":3801:3822   */\n  or\n    /* \"#utility.yul\":3793:3822   */\n  swap1\n  pop\n    /* \"#utility.yul\":3533:3828   */\n  swap3\n  swap2\n  pop\n  pop\n  jump\t// out\n    /* \"#utility.yul\":3833:5228   */\ntag_5:\n    /* \"#utility.yul\":3950:3987   */\n  tag_103\n    /* \"#utility.yul\":3983:3986   */\n  dup3\n    /* \"#utility.yul\":3950:3987   */\n  tag_36\n  jump\t// in\ntag_103:\n    /* \"#utility.yul\":4052:4070   */\n  0xffffffffffffffff\n    /* \"#utility.yul\":4044:4050   */\n  dup2\n    /* \"#utility.yul\":4041:4071   */\n  gt\n    /* \"#utility.yul\":4038:4094   */\n  iszero\n  tag_104\n  jumpi\n    /* \"#utility.yul\":4074:4092   */\n  tag_105\n  tag_37\n  jump\t// in\ntag_105:\n    /* \"#utility.yul\":4038:4094   */\ntag_104:\n    /* \"#utility.yul\":4118:4156   */\n  tag_106\n    /* \"#utility.yul\":4150:4154   */\n  dup3\n    /* \"#utility.yul\":4144:4155   */\n  sload\n    /* \"#utility.yul\":4118:4156   */\n  tag_39\n  jump\t// in\ntag_106:\n    /* \"#utility.yul\":4203:4270   */\n  tag_107\n    /* \"#utility.yul\":4263:4269   */\n  dup3\n    /* \"#utility.yul\":4255:4261   */\n  dup3\n    /* \"#utility.yul\":4249:4253   */\n  dup6\n    /* \"#utility.yul\":4203:4270   */\n  tag_52\n  jump\t// in\ntag_107:\n    /* \"#utility.yul\":4297:4298   */\n  0x00\n    /* \"#utility.yul\":4321:4325   */\n  0x20\n    /* \"#utility.yul\":4308:4325   */\n  swap1\n  pop\n    /* \"#utility.yul\":4353:4355   */\n  0x1f\n    /* \"#utility.yul\":4345:4351   */\n  dup4\n    /* \"#utility.yul\":4342:4356   */\n  gt\n    /* \"#utility.yul\":4370:4371   */\n  0x01\n    /* \"#utility.yul\":4365:4983   */\n  dup2\n  eq\n  tag_109\n  jumpi\n    /* \"#utility.yul\":5027:5028   */\n  0x00\n    /* \"#utility.yul\":5044:5050   */\n  dup5\n    /* \"#utility.yul\":5041:5118   */\n  iszero\n  tag_110\n  jumpi\n    /* \"#utility.yul\":5093:5102   */\n  dup3\n    /* \"#utility.yul\":5088:5091   */\n  dup8\n    /* \"#utility.yul\":5084:5103   */\n  add\n    /* \"#utility.yul\":5078:5104   */\n  mload\n    /* \"#utility.yul\":5069:5104   */\n  swap1\n  pop\n    /* \"#utility.yul\":5041:5118   */\ntag_110:\n    /* \"#utility.yul\":5144:5211   */\n  tag_111\n    /* \"#utility.yul\":5204:5210   */\n  dup6\n    /* \"#utility.yul\":5197:5202   */\n  dup3\n    /* \"#utility.yul\":5144:5211   */\n  tag_55\n  jump\t// in\ntag_111:\n    /* \"#utility.yul\":5138:5142   */\n  dup7\n    /* \"#utility.yul\":5131:5212   */\n  sstore\n    /* \"#utility.yul\":5000:5222   */\n  pop\n    /* \"#utility.yul\":4335:5222   */\n  jump(tag_108)\n    /* \"#utility.yul\":4365:4983   */\ntag_109:\n    /* \"#utility.yul\":4417:4421   */\n  0x1f\n    /* \"#utility.yul\":4413:4422   */\n  not\n    /* \"#utility.yul\":4405:4411   */\n  dup5\n    /* \"#utility.yul\":4401:4423   */\n  and\n    /* \"#utility.yul\":4451:4488   */\n  tag_112\n    /* \"#utility.yul\":4483:4487   */\n  dup7\n    /* \"#utility.yul\":4451:4488   */\n  tag_40\n  jump\t// in\ntag_112:\n    /* \"#utility.yul\":4510:4511   */\n  0x00\n    /* \"#utility.yul\":4524:4732   */\ntag_113:\n    /* \"#utility.yul\":4538:4545   */\n  dup3\n    /* \"#utility.yul\":4535:4536   */\n  dup2\n    /* \"#utility.yul\":4532:4546   */\n  lt\n    /* \"#utility.yul\":4524:4732   */\n  iszero\n  tag_115\n  jumpi\n    /* \"#utility.yul\":4617:4626   */\n  dup5\n    /* \"#utility.yul\":4612:4615   */\n  dup10\n    /* \"#utility.yul\":4608:4627   */\n  add\n    /* \"#utility.yul\":4602:4628   */\n  mload\n    /* \"#utility.yul\":4594:4600   */\n  dup3\n    /* \"#utility.yul\":4587:4629   */\n  sstore\n    /* \"#utility.yul\":4668:4669   */\n  0x01\n    /* \"#utility.yul\":4660:4666   */\n  dup3\n    /* \"#utility.yul\":4656:4670   */\n  add\n    /* \"#utility.yul\":4646:4670   */\n  swap2\n  pop\n    /* \"#utility.yul\":4715:4717   */\n  0x20\n    /* \"#utility.yul\":4704:4713   */\n  dup6\n    /* \"#utility.yul\":4700:4718   */\n  add\n    /* \"#utility.yul\":4687:4718   */\n  swap5\n  pop\n    /* \"#utility.yul\":4561:4565   */\n  0x20\n    /* \"#utility.yul\":4558:4559   */\n  dup2\n    /* \"#utility.yul\":4554:4566   */\n  add\n    /* \"#utility.yul\":4549:4566   */\n  swap1\n  pop\n    /* \"#utility.yul\":4524:4732   */\n  jump(tag_113)\ntag_115:\n    /* \"#utility.yul\":4760:4766   */\n  dup7\n    /* \"#utility.yul\":4751:4758   */\n  dup4\n    /* \"#utility.yul\":4748:4767   */\n  lt\n    /* \"#utility.yul\":4745:4924   */\n  iszero\n  tag_116\n  jumpi\n    /* \"#utility.yul\":4818:4827   */\n  dup5\n    /* \"#utility.yul\":4813:4816   */\n  dup10\n    /* \"#utility.yul\":4809:4828   */\n  add\n    /* \"#utility.yul\":4803:4829   */\n  mload\n    /* \"#utility.yul\":4861:4909   */\n  tag_117\n    /* \"#utility.yul\":4903:4907   */\n  0x1f\n    /* \"#utility.yul\":4895:4901   */\n  dup10\n    /* \"#utility.yul\":4891:4908   */\n  and\n    /* \"#utility.yul\":4880:4889   */\n  dup3\n    /* \"#utility.yul\":4861:4909   */\n  tag_54\n  jump\t// in\ntag_117:\n    /* \"#utility.yul\":4853:4859   */\n  dup4\n    /* \"#utility.yul\":4846:4910   */\n  sstore\n    /* \"#utility.yul\":4768:4924   */\n  pop\n    /* \"#utility.yul\":4745:4924   */\ntag_116:\n    /* \"#utility.yul\":4970:4971   */\n  0x01\n    /* \"#utility.yul\":4966:4967   */\n  0x02\n    /* \"#utility.yul\":4958:4964   */\n  dup9\n    /* \"#utility.yul\":4954:4968   */\n  mul\n    /* \"#utility.yul\":4950:4972   */\n  add\n    /* \"#utility.yul\":4944:4948   */\n  dup9\n    /* \"#utility.yul\":4937:4973   */\n  sstore\n    /* \"#utility.yul\":4372:4983   */\n  pop\n  pop\n  pop\n    /* \"#utility.yul\":4335:5222   */\ntag_108:\n  pop\n    /* \"#utility.yul\":3925:5228   */\n  pop\n  pop\n  pop\n    /* \"#utility.yul\":3833:5228   */\n  pop\n  pop\n  jump\t// out\n    /* \"contracts/task1/IntToRoman.sol\":157:2547  contract IntToRoman {... */\ntag_35:\n  dataSize(sub_0)\n  dup1\n  dataOffset(sub_0)\n  0x00\n  codecopy\n  0x00\n  return\nstop\n\nsub_0: assembly {\n        /* \"contracts/task1/IntToRoman.sol\":157:2547  contract IntToRoman {... */\n      mstore(0x40, 0x80)\n      callvalue\n      dup1\n      iszero\n      tag_1\n      jumpi\n      revert(0x00, 0x00)\n    tag_1:\n      pop\n      jumpi(tag_2, lt(calldatasize, 0x04))\n      shr(0xe0, calldataload(0x00))\n      dup1\n      0x75322e47\n      eq\n      tag_3\n      jumpi\n    tag_2:\n      revert(0x00, 0x00)\n        /* \"contracts/task1/IntToRoman.sol\":1738:2544  function change(uint256 num) public view returns(string memory){... */\n    tag_3:\n      tag_4\n      0x04\n      dup1\n      calldatasize\n      sub\n      dup2\n      add\n      swap1\n      tag_5\n      swap2\n      swap1\n      tag_6\n      jump\t// in\n    tag_5:\n      tag_7\n      jump\t// in\n    tag_4:\n      mload(0x40)\n      tag_8\n      swap2\n      swap1\n      tag_9\n      jump\t// in\n    tag_8:\n      mload(0x40)\n      dup1\n      swap2\n      sub\n      swap1\n      return\n    tag_7:\n        /* \"contracts/task1/IntToRoman.sol\":1787:1800  string memory */\n      0x60\n        /* \"contracts/task1/IntToRoman.sol\":1825:1826  1 */\n      0x01\n        /* \"contracts/task1/IntToRoman.sol\":1820:1823  num */\n      dup3\n        /* \"contracts/task1/IntToRoman.sol\":1820:1826  num>=1 */\n      lt\n      iszero\n        /* \"contracts/task1/IntToRoman.sol\":1820:1839  num>=1 && num<=3999 */\n      dup1\n      iszero\n      tag_11\n      jumpi\n      pop\n        /* \"contracts/task1/IntToRoman.sol\":1835:1839  3999 */\n      0x0f9f\n        /* \"contracts/task1/IntToRoman.sol\":1830:1833  num */\n      dup3\n        /* \"contracts/task1/IntToRoman.sol\":1830:1839  num<=3999 */\n      gt\n      iszero\n        /* \"contracts/task1/IntToRoman.sol\":1820:1839  num>=1 && num<=3999 */\n    tag_11:\n        /* \"contracts/task1/IntToRoman.sol\":1812:1855  require(num>=1 && num<=3999, \"invalid num\") */\n      tag_12\n      jumpi\n      mload(0x40)\n      0x08c379a000000000000000000000000000000000000000000000000000000000\n      dup2\n      mstore\n      0x04\n      add\n      tag_13\n      swap1\n      tag_14\n      jump\t// in\n    tag_13:\n      mload(0x40)\n      dup1\n      swap2\n      sub\n      swap1\n      revert\n    tag_12:\n        /* \"contracts/task1/IntToRoman.sol\":1866:1881  string memory s */\n      0x00\n        /* \"contracts/task1/IntToRoman.sol\":1884:1898  num.toString() */\n      tag_15\n        /* \"contracts/task1/IntToRoman.sol\":1884:1887  num */\n      dup4\n        /* \"contracts/task1/IntToRoman.sol\":1884:1896  num.toString */\n      tag_16\n        /* \"contracts/task1/IntToRoman.sol\":1884:1898  num.toString() */\n      jump\t// in\n    tag_15:\n        /* \"contracts/task1/IntToRoman.sol\":1866:1898  string memory s = num.toString() */\n      swap1\n      pop\n        /* \"contracts/task1/IntToRoman.sol\":1909:1923  bytes memory b */\n      0x00\n        /* \"contracts/task1/IntToRoman.sol\":1932:1933  s */\n      dup2\n        /* \"contracts/task1/IntToRoman.sol\":1909:1934  bytes memory b = bytes(s) */\n      swap1\n      pop\n        /* \"contracts/task1/IntToRoman.sol\":1947:1972  uint256[] memory numArray */\n      0x00\n        /* \"contracts/task1/IntToRoman.sol\":1989:1990  b */\n      dup2\n        /* \"contracts/task1/IntToRoman.sol\":1989:1997  b.length */\n      mload\n        /* \"contracts/task1/IntToRoman.sol\":1975:1998  new uint256[](b.length) */\n      0xffffffffffffffff\n      dup2\n      gt\n      iszero\n      tag_17\n      jumpi\n      tag_18\n      tag_19\n      jump\t// in\n    tag_18:\n    tag_17:\n      mload(0x40)\n      swap1\n      dup1\n      dup3\n      mstore\n      dup1\n      0x20\n      mul\n      0x20\n      add\n      dup3\n      add\n      0x40\n      mstore\n      dup1\n      iszero\n      tag_20\n      jumpi\n      dup2\n      0x20\n      add\n      0x20\n      dup3\n      mul\n      dup1\n      calldatasize\n      dup4\n      calldatacopy\n      dup1\n      dup3\n      add\n      swap2\n      pop\n      pop\n      swap1\n      pop\n    tag_20:\n      pop\n        /* \"contracts/task1/IntToRoman.sol\":1947:1998  uint256[] memory numArray = new uint256[](b.length) */\n      swap1\n      pop\n        /* \"contracts/task1/IntToRoman.sol\":2034:2045  uint256 bit */\n      0x00\n        /* \"contracts/task1/IntToRoman.sol\":2048:2049  1 */\n      0x01\n        /* \"contracts/task1/IntToRoman.sol\":2034:2049  uint256 bit = 1 */\n      swap1\n      pop\n        /* \"contracts/task1/IntToRoman.sol\":2099:2108  uint256 i */\n      0x00\n        /* \"contracts/task1/IntToRoman.sol\":2120:2121  1 */\n      0x01\n        /* \"contracts/task1/IntToRoman.sol\":2111:2112  b */\n      dup5\n        /* \"contracts/task1/IntToRoman.sol\":2111:2119  b.length */\n      mload\n        /* \"contracts/task1/IntToRoman.sol\":2111:2121  b.length-1 */\n      tag_24\n      swap2\n      swap1\n      tag_25\n      jump\t// in\n    tag_24:\n        /* \"contracts/task1/IntToRoman.sol\":2099:2121  uint256 i = b.length-1 */\n      swap1\n      pop\n        /* \"contracts/task1/IntToRoman.sol\":2094:2306  for (uint256 i = b.length-1; i >= 0; i--) {... */\n    tag_21:\n        /* \"contracts/task1/IntToRoman.sol\":2128:2129  0 */\n      0x00\n        /* \"contracts/task1/IntToRoman.sol\":2123:2124  i */\n      dup2\n        /* \"contracts/task1/IntToRoman.sol\":2123:2129  i >= 0 */\n      lt\n        /* \"contracts/task1/IntToRoman.sol\":2094:2306  for (uint256 i = b.length-1; i >= 0; i--) {... */\n      tag_22\n      jumpi\n        /* \"contracts/task1/IntToRoman.sol\":2184:2187  bit */\n      dup2\n        /* \"contracts/task1/IntToRoman.sol\":2165:2175  bytesToInt */\n      0x01\n        /* \"contracts/task1/IntToRoman.sol\":2165:2181  bytesToInt[b[i]] */\n      0x00\n        /* \"contracts/task1/IntToRoman.sol\":2176:2177  b */\n      dup7\n        /* \"contracts/task1/IntToRoman.sol\":2178:2179  i */\n      dup5\n        /* \"contracts/task1/IntToRoman.sol\":2176:2180  b[i] */\n      dup2\n      mload\n      dup2\n      lt\n      tag_26\n      jumpi\n      tag_27\n      tag_28\n      jump\t// in\n    tag_27:\n    tag_26:\n      0x20\n      add\n      add\n      mload\n      0xf8\n      shr\n      0xf8\n      shl\n        /* \"contracts/task1/IntToRoman.sol\":2165:2181  bytesToInt[b[i]] */\n      not(0xffffffffffffffffffffffffffffffffffffffffffffffffffffffffffffff)\n      and\n      not(0xffffffffffffffffffffffffffffffffffffffffffffffffffffffffffffff)\n      and\n      dup2\n      mstore\n      0x20\n      add\n      swap1\n      dup2\n      mstore\n      0x20\n      add\n      0x00\n      keccak256\n      sload\n        /* \"contracts/task1/IntToRoman.sol\":2165:2187  bytesToInt[b[i]] * bit */\n      tag_29\n      swap2\n      swap1\n      tag_30\n      jump\t// in\n    tag_29:\n        /* \"contracts/task1/IntToRoman.sol\":2151:2159  numArray */\n      dup4\n        /* \"contracts/task1/IntToRoman.sol\":2160:2161  i */\n      dup3\n        /* \"contracts/task1/IntToRoman.sol\":2151:2162  numArray[i] */\n      dup2\n      mload\n      dup2\n      lt\n      tag_31\n      jumpi\n      tag_32\n      tag_28\n      jump\t// in\n    tag_32:\n    tag_31:\n      0x20\n      mul\n      0x20\n      add\n      add\n        /* \"contracts/task1/IntToRoman.sol\":2151:2187  numArray[i] = bytesToInt[b[i]] * bit */\n      dup2\n      dup2\n      mstore\n      pop\n      pop\n        /* \"contracts/task1/IntToRoman.sol\":2209:2211  10 */\n      0x0a\n        /* \"contracts/task1/IntToRoman.sol\":2202:2211  bit *= 10 */\n      dup3\n      tag_33\n      swap2\n      swap1\n      tag_30\n      jump\t// in\n    tag_33:\n      swap2\n      pop\n        /* \"contracts/task1/IntToRoman.sol\":2252:2253  0 */\n      0x00\n        /* \"contracts/task1/IntToRoman.sol\":2247:2248  i */\n      dup2\n        /* \"contracts/task1/IntToRoman.sol\":2247:2253  i == 0 */\n      sub\n        /* \"contracts/task1/IntToRoman.sol\":2243:2295  if (i == 0) {... */\n      iszero\n        /* \"contracts/task1/IntToRoman.sol\":2274:2279  break */\n      tag_22\n        /* \"contracts/task1/IntToRoman.sol\":2243:2295  if (i == 0) {... */\n      jumpi\n        /* \"contracts/task1/IntToRoman.sol\":2131:2134  i-- */\n      dup1\n      dup1\n      tag_35\n      swap1\n      tag_36\n      jump\t// in\n    tag_35:\n      swap2\n      pop\n      pop\n        /* \"contracts/task1/IntToRoman.sol\":2094:2306  for (uint256 i = b.length-1; i >= 0; i--) {... */\n      jump(tag_21)\n    tag_22:\n      pop\n        /* \"contracts/task1/IntToRoman.sol\":2318:2341  string memory numString */\n      0x60\n        /* \"contracts/task1/IntToRoman.sol\":2370:2379  uint256 i */\n      0x00\n        /* \"contracts/task1/IntToRoman.sol\":2382:2383  0 */\n      0x00\n        /* \"contracts/task1/IntToRoman.sol\":2370:2383  uint256 i = 0 */\n      swap1\n      pop\n        /* \"contracts/task1/IntToRoman.sol\":2365:2510  for (uint256 i = 0; i < numArray.length; i++) {... */\n    tag_37:\n        /* \"contracts/task1/IntToRoman.sol\":2389:2397  numArray */\n      dup4\n        /* \"contracts/task1/IntToRoman.sol\":2389:2404  numArray.length */\n      mload\n        /* \"contracts/task1/IntToRoman.sol\":2385:2386  i */\n      dup2\n        /* \"contracts/task1/IntToRoman.sol\":2385:2404  i < numArray.length */\n      lt\n        /* \"contracts/task1/IntToRoman.sol\":2365:2510  for (uint256 i = 0; i < numArray.length; i++) {... */\n      iszero\n      tag_38\n      jumpi\n        /* \"contracts/task1/IntToRoman.sol\":2462:2471  numString */\n      dup2\n        /* \"contracts/task1/IntToRoman.sol\":2473:2483  intToRoman */\n      0x00\n        /* \"contracts/task1/IntToRoman.sol\":2473:2496  intToRoman[numArray[i]] */\n      0x00\n        /* \"contracts/task1/IntToRoman.sol\":2484:2492  numArray */\n      dup7\n        /* \"contracts/task1/IntToRoman.sol\":2493:2494  i */\n      dup5\n        /* \"contracts/task1/IntToRoman.sol\":2484:2495  numArray[i] */\n      dup2\n      mload\n      dup2\n      lt\n      tag_40\n      jumpi\n      tag_41\n      tag_28\n      jump\t// in\n    tag_41:\n    tag_40:\n      0x20\n      mul\n      0x20\n      add\n      add\n      mload\n        /* \"contracts/task1/IntToRoman.sol\":2473:2496  intToRoman[numArray[i]] */\n      dup2\n      mstore\n      0x20\n      add\n      swap1\n      dup2\n      mstore\n      0x20\n      add\n      0x00\n      keccak256\n        /* \"contracts/task1/IntToRoman.sol\":2445:2497  abi.encodePacked(numString, intToRoman[numArray[i]]) */\n      add(0x20, mload(0x40))\n      tag_42\n      swap3\n      swap2\n      swap1\n      tag_43\n      jump\t// in\n    tag_42:\n      mload(0x40)\n      0x20\n      dup2\n      dup4\n      sub\n      sub\n      dup2\n      mstore\n      swap1\n      0x40\n      mstore\n        /* \"contracts/task1/IntToRoman.sol\":2426:2498  numString = string(abi.encodePacked(numString, intToRoman[numArray[i]])) */\n      swap2\n      pop\n        /* \"contracts/task1/IntToRoman.sol\":2406:2409  i++ */\n      dup1\n      dup1\n      0x01\n      add\n      swap2\n      pop\n      pop\n        /* \"contracts/task1/IntToRoman.sol\":2365:2510  for (uint256 i = 0; i < numArray.length; i++) {... */\n      jump(tag_37)\n    tag_38:\n      pop\n        /* \"contracts/task1/IntToRoman.sol\":2527:2536  numString */\n      dup1\n        /* \"contracts/task1/IntToRoman.sol\":2520:2536  return numString */\n      swap6\n      pop\n      pop\n      pop\n      pop\n      pop\n      pop\n        /* \"contracts/task1/IntToRoman.sol\":1738:2544  function change(uint256 num) public view returns(string memory){... */\n      swap2\n      swap1\n      pop\n      jump\t// out\n        /* \"@openzeppelin/contracts/utils/Strings.sol\":1308:1942  function toString(uint256 value) internal pure returns (string memory) {... */\n    tag_16:\n        /* \"@openzeppelin/contracts/utils/Strings.sol\":1364:1377  string memory */\n      0x60\n        /* \"@openzeppelin/contracts/utils/Strings.sol\":1413:1427  uint256 length */\n      0x00\n        /* \"@openzeppelin/contracts/utils/Strings.sol\":1450:1451  1 */\n      0x01\n        /* \"@openzeppelin/contracts/utils/Strings.sol\":1430:1447  Math.log10(value) */\n      tag_45\n        /* \"@openzeppelin/contracts/utils/Strings.sol\":1441:1446  value */\n      dup5\n        /* \"@openzeppelin/contracts/utils/Strings.sol\":1430:1440  Math.log10 */\n      tag_46\n        /* \"@openzeppelin/contracts/utils/Strings.sol\":1430:1447  Math.log10(value) */\n      jump\t// in\n    tag_45:\n        /* \"@openzeppelin/contracts/utils/Strings.sol\":1430:1451  Math.log10(value) + 1 */\n      add\n        /* \"@openzeppelin/contracts/utils/Strings.sol\":1413:1451  uint256 length = Math.log10(value) + 1 */\n      swap1\n      pop\n        /* \"@openzeppelin/contracts/utils/Strings.sol\":1465:1485  string memory buffer */\n      0x00\n        /* \"@openzeppelin/contracts/utils/Strings.sol\":1499:1505  length */\n      dup2\n        /* \"@openzeppelin/contracts/utils/Strings.sol\":1488:1506  new string(length) */\n      0xffffffffffffffff\n      dup2\n      gt\n      iszero\n      tag_47\n      jumpi\n      tag_48\n      tag_19\n      jump\t// in\n    tag_48:\n    tag_47:\n      mload(0x40)\n      swap1\n      dup1\n      dup3\n      mstore\n      dup1\n      0x1f\n      add\n      not(0x1f)\n      and\n      0x20\n      add\n      dup3\n      add\n      0x40\n      mstore\n      dup1\n      iszero\n      tag_49\n      jumpi\n      dup2\n      0x20\n      add\n      0x01\n      dup3\n      mul\n      dup1\n      calldatasize\n      dup4\n      calldatacopy\n      dup1\n      dup3\n      add\n      swap2\n      pop\n      pop\n      swap1\n      pop\n    tag_49:\n      pop\n        /* \"@openzeppelin/contracts/utils/Strings.sol\":1465:1506  string memory buffer = new string(length) */\n      swap1\n      pop\n        /* \"@openzeppelin/contracts/utils/Strings.sol\":1520:1531  uint256 ptr */\n      0x00\n        /* \"@openzeppelin/contracts/utils/Strings.sol\":1618:1624  length */\n      dup3\n        /* \"@openzeppelin/contracts/utils/Strings.sol\":1611:1615  0x20 */\n      0x20\n        /* \"@openzeppelin/contracts/utils/Strings.sol\":1603:1609  buffer */\n      dup4\n        /* \"@openzeppelin/contracts/utils/Strings.sol\":1599:1616  add(buffer, 0x20) */\n      add\n        /* \"@openzeppelin/contracts/utils/Strings.sol\":1595:1625  add(add(buffer, 0x20), length) */\n      add\n        /* \"@openzeppelin/contracts/utils/Strings.sol\":1588:1625  ptr := add(add(buffer, 0x20), length) */\n      swap1\n      pop\n        /* \"@openzeppelin/contracts/utils/Strings.sol\":1652:1899  while (true) {... */\n    tag_50:\n        /* \"@openzeppelin/contracts/utils/Strings.sol\":1659:1663  true */\n      0x01\n        /* \"@openzeppelin/contracts/utils/Strings.sol\":1652:1899  while (true) {... */\n      iszero\n      tag_51\n      jumpi\n        /* \"@openzeppelin/contracts/utils/Strings.sol\":1683:1688  ptr-- */\n      dup1\n      dup1\n      0x01\n      swap1\n      sub\n      swap2\n      pop\n      pop\n        /* \"@openzeppelin/contracts/utils/Strings.sol\":1787:1797  HEX_DIGITS */\n      0x3031323334353637383961626364656600000000000000000000000000000000\n        /* \"@openzeppelin/contracts/utils/Strings.sol\":1782:1784  10 */\n      0x0a\n        /* \"@openzeppelin/contracts/utils/Strings.sol\":1775:1780  value */\n      dup7\n        /* \"@openzeppelin/contracts/utils/Strings.sol\":1771:1785  mod(value, 10) */\n      mod\n        /* \"@openzeppelin/contracts/utils/Strings.sol\":1766:1798  byte(mod(value, 10), HEX_DIGITS) */\n      byte\n        /* \"@openzeppelin/contracts/utils/Strings.sol\":1761:1764  ptr */\n      dup2\n        /* \"@openzeppelin/contracts/utils/Strings.sol\":1753:1799  mstore8(ptr, byte(mod(value, 10), HEX_DIGITS)) */\n      mstore8\n        /* \"@openzeppelin/contracts/utils/Strings.sol\":1843:1845  10 */\n      0x0a\n        /* \"@openzeppelin/contracts/utils/Strings.sol\":1834:1845  value /= 10 */\n      dup6\n      dup2\n      tag_52\n      jumpi\n      tag_53\n      tag_54\n      jump\t// in\n    tag_53:\n    tag_52:\n      div\n      swap5\n      pop\n        /* \"@openzeppelin/contracts/utils/Strings.sol\":1876:1877  0 */\n      0x00\n        /* \"@openzeppelin/contracts/utils/Strings.sol\":1867:1872  value */\n      dup6\n        /* \"@openzeppelin/contracts/utils/Strings.sol\":1867:1877  value == 0 */\n      sub\n        /* \"@openzeppelin/contracts/utils/Strings.sol\":1652:1899  while (true) {... */\n      tag_50\n        /* \"@openzeppelin/contracts/utils/Strings.sol\":1863:1884  if (value == 0) break */\n      jumpi\n        /* \"@openzeppelin/contracts/utils/Strings.sol\":1652:1899  while (true) {... */\n    tag_51:\n        /* \"@openzeppelin/contracts/utils/Strings.sol\":1919:1925  buffer */\n      dup2\n        /* \"@openzeppelin/contracts/utils/Strings.sol\":1912:1925  return buffer */\n      swap4\n      pop\n      pop\n      pop\n      pop\n        /* \"@openzeppelin/contracts/utils/Strings.sol\":1308:1942  function toString(uint256 value) internal pure returns (string memory) {... */\n      swap2\n      swap1\n      pop\n      jump\t// out\n        /* \"@openzeppelin/contracts/utils/math/Math.sol\":29154:30070  function log10(uint256 value) internal pure returns (uint256) {... */\n    tag_46:\n        /* \"@openzeppelin/contracts/utils/math/Math.sol\":29207:29214  uint256 */\n      0x00\n        /* \"@openzeppelin/contracts/utils/math/Math.sol\":29226:29240  uint256 result */\n      0x00\n        /* \"@openzeppelin/contracts/utils/math/Math.sol\":29243:29244  0 */\n      0x00\n        /* \"@openzeppelin/contracts/utils/math/Math.sol\":29226:29244  uint256 result = 0 */\n      swap1\n      pop\n        /* \"@openzeppelin/contracts/utils/math/Math.sol\":29291:29299  10 ** 64 */\n      0x184f03e93ff9f4daa797ed6e38ed64bf6a1f010000000000000000\n        /* \"@openzeppelin/contracts/utils/math/Math.sol\":29282:29287  value */\n      dup4\n        /* \"@openzeppelin/contracts/utils/math/Math.sol\":29282:29299  value >= 10 ** 64 */\n      lt\n        /* \"@openzeppelin/contracts/utils/math/Math.sol\":29278:29381  if (value >= 10 ** 64) {... */\n      tag_57\n      jumpi\n        /* \"@openzeppelin/contracts/utils/math/Math.sol\":29328:29336  10 ** 64 */\n      0x184f03e93ff9f4daa797ed6e38ed64bf6a1f010000000000000000\n        /* \"@openzeppelin/contracts/utils/math/Math.sol\":29319:29336  value /= 10 ** 64 */\n      dup4\n      dup2\n      tag_58\n      jumpi\n      tag_59\n      tag_54\n      jump\t// in\n    tag_59:\n    tag_58:\n      div\n      swap3\n      pop\n        /* \"@openzeppelin/contracts/utils/math/Math.sol\":29364:29366  64 */\n      0x40\n        /* \"@openzeppelin/contracts/utils/math/Math.sol\":29354:29366  result += 64 */\n      dup2\n      add\n      swap1\n      pop\n        /* \"@openzeppelin/contracts/utils/math/Math.sol\":29278:29381  if (value >= 10 ** 64) {... */\n    tag_57:\n        /* \"@openzeppelin/contracts/utils/math/Math.sol\":29407:29415  10 ** 32 */\n      0x04ee2d6d415b85acef8100000000\n        /* \"@openzeppelin/contracts/utils/math/Math.sol\":29398:29403  value */\n      dup4\n        /* \"@openzeppelin/contracts/utils/math/Math.sol\":29398:29415  value >= 10 ** 32 */\n      lt\n        /* \"@openzeppelin/contracts/utils/math/Math.sol\":29394:29497  if (value >= 10 ** 32) {... */\n      tag_60\n      jumpi\n        /* \"@openzeppelin/contracts/utils/math/Math.sol\":29444:29452  10 ** 32 */\n      0x04ee2d6d415b85acef8100000000\n        /* \"@openzeppelin/contracts/utils/math/Math.sol\":29435:29452  value /= 10 ** 32 */\n      dup4\n      dup2\n      tag_61\n      jumpi\n      tag_62\n      tag_54\n      jump\t// in\n    tag_62:\n    tag_61:\n      div\n      swap3\n      pop\n        /* \"@openzeppelin/contracts/utils/math/Math.sol\":29480:29482  32 */\n      0x20\n        /* \"@openzeppelin/contracts/utils/math/Math.sol\":29470:29482  result += 32 */\n      dup2\n      add\n      swap1\n      pop\n        /* \"@openzeppelin/contracts/utils/math/Math.sol\":29394:29497  if (value >= 10 ** 32) {... */\n    tag_60:\n        /* \"@openzeppelin/contracts/utils/math/Math.sol\":29523:29531  10 ** 16 */\n      0x2386f26fc10000\n        /* \"@openzeppelin/contracts/utils/math/Math.sol\":29514:29519  value */\n      dup4\n        /* \"@openzeppelin/contracts/utils/math/Math.sol\":29514:29531  value >= 10 ** 16 */\n      lt\n        /* \"@openzeppelin/contracts/utils/math/Math.sol\":29510:29613  if (value >= 10 ** 16) {... */\n      tag_63\n      jumpi\n        /* \"@openzeppelin/contracts/utils/math/Math.sol\":29560:29568  10 ** 16 */\n      0x2386f26fc10000\n        /* \"@openzeppelin/contracts/utils/math/Math.sol\":29551:29568  value /= 10 ** 16 */\n      dup4\n      dup2\n      tag_64\n      jumpi\n      tag_65\n      tag_54\n      jump\t// in\n    tag_65:\n    tag_64:\n      div\n      swap3\n      pop\n        /* \"@openzeppelin/contracts/utils/math/Math.sol\":29596:29598  16 */\n      0x10\n        /* \"@openzeppelin/contracts/utils/math/Math.sol\":29586:29598  result += 16 */\n      dup2\n      add\n      swap1\n      pop\n        /* \"@openzeppelin/contracts/utils/math/Math.sol\":29510:29613  if (value >= 10 ** 16) {... */\n    tag_63:\n        /* \"@openzeppelin/contracts/utils/math/Math.sol\":29639:29646  10 ** 8 */\n      0x05f5e100\n        /* \"@openzeppelin/contracts/utils/math/Math.sol\":29630:29635  value */\n      dup4\n        /* \"@openzeppelin/contracts/utils/math/Math.sol\":29630:29646  value >= 10 ** 8 */\n      lt\n        /* \"@openzeppelin/contracts/utils/math/Math.sol\":29626:29726  if (value >= 10 ** 8) {... */\n      tag_66\n      jumpi\n        /* \"@openzeppelin/contracts/utils/math/Math.sol\":29675:29682  10 ** 8 */\n      0x05f5e100\n        /* \"@openzeppelin/contracts/utils/math/Math.sol\":29666:29682  value /= 10 ** 8 */\n      dup4\n      dup2\n      tag_67\n      jumpi\n      tag_68\n      tag_54\n      jump\t// in\n    tag_68:\n    tag_67:\n      div\n      swap3\n      pop\n        /* \"@openzeppelin/contracts/utils/math/Math.sol\":29710:29711  8 */\n      0x08\n        /* \"@openzeppelin/contracts/utils/math/Math.sol\":29700:29711  result += 8 */\n      dup2\n      add\n      swap1\n      pop\n        /* \"@openzeppelin/contracts/utils/math/Math.sol\":29626:29726  if (value >= 10 ** 8) {... */\n    tag_66:\n        /* \"@openzeppelin/contracts/utils/math/Math.sol\":29752:29759  10 ** 4 */\n      0x2710\n        /* \"@openzeppelin/contracts/utils/math/Math.sol\":29743:29748  value */\n      dup4\n        /* \"@openzeppelin/contracts/utils/math/Math.sol\":29743:29759  value >= 10 ** 4 */\n      lt\n        /* \"@openzeppelin/contracts/utils/math/Math.sol\":29739:29839  if (value >= 10 ** 4) {... */\n      tag_69\n      jumpi\n        /* \"@openzeppelin/contracts/utils/math/Math.sol\":29788:29795  10 ** 4 */\n      0x2710\n        /* \"@openzeppelin/contracts/utils/math/Math.sol\":29779:29795  value /= 10 ** 4 */\n      dup4\n      dup2\n      tag_70\n      jumpi\n      tag_71\n      tag_54\n      jump\t// in\n    tag_71:\n    tag_70:\n      div\n      swap3\n      pop\n        /* \"@openzeppelin/contracts/utils/math/Math.sol\":29823:29824  4 */\n      0x04\n        /* \"@openzeppelin/contracts/utils/math/Math.sol\":29813:29824  result += 4 */\n      dup2\n      add\n      swap1\n      pop\n        /* \"@openzeppelin/contracts/utils/math/Math.sol\":29739:29839  if (value >= 10 ** 4) {... */\n    tag_69:\n        /* \"@openzeppelin/contracts/utils/math/Math.sol\":29865:29872  10 ** 2 */\n      0x64\n        /* \"@openzeppelin/contracts/utils/math/Math.sol\":29856:29861  value */\n      dup4\n        /* \"@openzeppelin/contracts/utils/math/Math.sol\":29856:29872  value >= 10 ** 2 */\n      lt\n        /* \"@openzeppelin/contracts/utils/math/Math.sol\":29852:29952  if (value >= 10 ** 2) {... */\n      tag_72\n      jumpi\n        /* \"@openzeppelin/contracts/utils/math/Math.sol\":29901:29908  10 ** 2 */\n      0x64\n        /* \"@openzeppelin/contracts/utils/math/Math.sol\":29892:29908  value /= 10 ** 2 */\n      dup4\n      dup2\n      tag_73\n      jumpi\n      tag_74\n      tag_54\n      jump\t// in\n    tag_74:\n    tag_73:\n      div\n      swap3\n      pop\n        /* \"@openzeppelin/contracts/utils/math/Math.sol\":29936:29937  2 */\n      0x02\n        /* \"@openzeppelin/contracts/utils/math/Math.sol\":29926:29937  result += 2 */\n      dup2\n      add\n      swap1\n      pop\n        /* \"@openzeppelin/contracts/utils/math/Math.sol\":29852:29952  if (value >= 10 ** 2) {... */\n    tag_72:\n        /* \"@openzeppelin/contracts/utils/math/Math.sol\":29978:29985  10 ** 1 */\n      0x0a\n        /* \"@openzeppelin/contracts/utils/math/Math.sol\":29969:29974  value */\n      dup4\n        /* \"@openzeppelin/contracts/utils/math/Math.sol\":29969:29985  value >= 10 ** 1 */\n      lt\n        /* \"@openzeppelin/contracts/utils/math/Math.sol\":29965:30031  if (value >= 10 ** 1) {... */\n      tag_75\n      jumpi\n        /* \"@openzeppelin/contracts/utils/math/Math.sol\":30015:30016  1 */\n      0x01\n        /* \"@openzeppelin/contracts/utils/math/Math.sol\":30005:30016  result += 1 */\n      dup2\n      add\n      swap1\n      pop\n        /* \"@openzeppelin/contracts/utils/math/Math.sol\":29965:30031  if (value >= 10 ** 1) {... */\n    tag_75:\n        /* \"@openzeppelin/contracts/utils/math/Math.sol\":30057:30063  result */\n      dup1\n        /* \"@openzeppelin/contracts/utils/math/Math.sol\":30050:30063  return result */\n      swap2\n      pop\n      pop\n        /* \"@openzeppelin/contracts/utils/math/Math.sol\":29154:30070  function log10(uint256 value) internal pure returns (uint256) {... */\n      swap2\n      swap1\n      pop\n      jump\t// out\n        /* \"#utility.yul\":88:205   */\n    tag_77:\n        /* \"#utility.yul\":197:198   */\n      0x00\n        /* \"#utility.yul\":194:195   */\n      0x00\n        /* \"#utility.yul\":187:199   */\n      revert\n        /* \"#utility.yul\":334:411   */\n    tag_79:\n        /* \"#utility.yul\":371:378   */\n      0x00\n        /* \"#utility.yul\":400:405   */\n      dup2\n        /* \"#utility.yul\":389:405   */\n      swap1\n      pop\n        /* \"#utility.yul\":334:411   */\n      swap2\n      swap1\n      pop\n      jump\t// out\n        /* \"#utility.yul\":417:539   */\n    tag_80:\n        /* \"#utility.yul\":490:514   */\n      tag_102\n        /* \"#utility.yul\":508:513   */\n      dup2\n        /* \"#utility.yul\":490:514   */\n      tag_79\n      jump\t// in\n    tag_102:\n        /* \"#utility.yul\":483:488   */\n      dup2\n        /* \"#utility.yul\":480:515   */\n      eq\n        /* \"#utility.yul\":470:533   */\n      tag_103\n      jumpi\n        /* \"#utility.yul\":529:530   */\n      0x00\n        /* \"#utility.yul\":526:527   */\n      0x00\n        /* \"#utility.yul\":519:531   */\n      revert\n        /* \"#utility.yul\":470:533   */\n    tag_103:\n        /* \"#utility.yul\":417:539   */\n      pop\n      jump\t// out\n        /* \"#utility.yul\":545:684   */\n    tag_81:\n        /* \"#utility.yul\":591:596   */\n      0x00\n        /* \"#utility.yul\":629:635   */\n      dup2\n        /* \"#utility.yul\":616:636   */\n      calldataload\n        /* \"#utility.yul\":607:636   */\n      swap1\n      pop\n        /* \"#utility.yul\":645:678   */\n      tag_105\n        /* \"#utility.yul\":672:677   */\n      dup2\n        /* \"#utility.yul\":645:678   */\n      tag_80\n      jump\t// in\n    tag_105:\n        /* \"#utility.yul\":545:684   */\n      swap3\n      swap2\n      pop\n      pop\n      jump\t// out\n        /* \"#utility.yul\":690:1019   */\n    tag_6:\n        /* \"#utility.yul\":749:755   */\n      0x00\n        /* \"#utility.yul\":798:800   */\n      0x20\n        /* \"#utility.yul\":786:795   */\n      dup3\n        /* \"#utility.yul\":777:784   */\n      dup5\n        /* \"#utility.yul\":773:796   */\n      sub\n        /* \"#utility.yul\":769:801   */\n      slt\n        /* \"#utility.yul\":766:885   */\n      iszero\n      tag_107\n      jumpi\n        /* \"#utility.yul\":804:883   */\n      tag_108\n      tag_77\n      jump\t// in\n    tag_108:\n        /* \"#utility.yul\":766:885   */\n    tag_107:\n        /* \"#utility.yul\":924:925   */\n      0x00\n        /* \"#utility.yul\":949:1002   */\n      tag_109\n        /* \"#utility.yul\":994:1001   */\n      dup5\n        /* \"#utility.yul\":985:991   */\n      dup3\n        /* \"#utility.yul\":974:983   */\n      dup6\n        /* \"#utility.yul\":970:992   */\n      add\n        /* \"#utility.yul\":949:1002   */\n      tag_81\n      jump\t// in\n    tag_109:\n        /* \"#utility.yul\":939:1002   */\n      swap2\n      pop\n        /* \"#utility.yul\":895:1012   */\n      pop\n        /* \"#utility.yul\":690:1019   */\n      swap3\n      swap2\n      pop\n      pop\n      jump\t// out\n        /* \"#utility.yul\":1025:1124   */\n    tag_82:\n        /* \"#utility.yul\":1077:1083   */\n      0x00\n        /* \"#utility.yul\":1111:1116   */\n      dup2\n        /* \"#utility.yul\":1105:1117   */\n      mload\n        /* \"#utility.yul\":1095:1117   */\n      swap1\n      pop\n        /* \"#utility.yul\":1025:1124   */\n      swap2\n      swap1\n      pop\n      jump\t// out\n        /* \"#utility.yul\":1130:1299   */\n    tag_83:\n        /* \"#utility.yul\":1214:1225   */\n      0x00\n        /* \"#utility.yul\":1248:1254   */\n      dup3\n        /* \"#utility.yul\":1243:1246   */\n      dup3\n        /* \"#utility.yul\":1236:1255   */\n      mstore\n        /* \"#utility.yul\":1288:1292   */\n      0x20\n        /* \"#utility.yul\":1283:1286   */\n      dup3\n        /* \"#utility.yul\":1279:1293   */\n      add\n        /* \"#utility.yul\":1264:1293   */\n      swap1\n      pop\n        /* \"#utility.yul\":1130:1299   */\n      swap3\n      swap2\n      pop\n      pop\n      jump\t// out\n        /* \"#utility.yul\":1305:1444   */\n    tag_84:\n        /* \"#utility.yul\":1394:1400   */\n      dup3\n        /* \"#utility.yul\":1389:1392   */\n      dup2\n        /* \"#utility.yul\":1384:1387   */\n      dup4\n        /* \"#utility.yul\":1378:1401   */\n      mcopy\n        /* \"#utility.yul\":1435:1436   */\n      0x00\n        /* \"#utility.yul\":1426:1432   */\n      dup4\n        /* \"#utility.yul\":1421:1424   */\n      dup4\n        /* \"#utility.yul\":1417:1433   */\n      add\n        /* \"#utility.yul\":1410:1437   */\n      mstore\n        /* \"#utility.yul\":1305:1444   */\n      pop\n      pop\n      pop\n      jump\t// out\n        /* \"#utility.yul\":1450:1552   */\n    tag_85:\n        /* \"#utility.yul\":1491:1497   */\n      0x00\n        /* \"#utility.yul\":1542:1544   */\n      0x1f\n        /* \"#utility.yul\":1538:1545   */\n      not\n        /* \"#utility.yul\":1533:1535   */\n      0x1f\n        /* \"#utility.yul\":1526:1531   */\n      dup4\n        /* \"#utility.yul\":1522:1536   */\n      add\n        /* \"#utility.yul\":1518:1546   */\n      and\n        /* \"#utility.yul\":1508:1546   */\n      swap1\n      pop\n        /* \"#utility.yul\":1450:1552   */\n      swap2\n      swap1\n      pop\n      jump\t// out\n        /* \"#utility.yul\":1558:1935   */\n    tag_86:\n        /* \"#utility.yul\":1646:1649   */\n      0x00\n        /* \"#utility.yul\":1674:1713   */\n      tag_115\n        /* \"#utility.yul\":1707:1712   */\n      dup3\n        /* \"#utility.yul\":1674:1713   */\n      tag_82\n      jump\t// in\n    tag_115:\n        /* \"#utility.yul\":1729:1800   */\n      tag_116\n        /* \"#utility.yul\":1793:1799   */\n      dup2\n        /* \"#utility.yul\":1788:1791   */\n      dup6\n        /* \"#utility.yul\":1729:1800   */\n      tag_83\n      jump\t// in\n    tag_116:\n        /* \"#utility.yul\":1722:1800   */\n      swap4\n      pop\n        /* \"#utility.yul\":1809:1874   */\n      tag_117\n        /* \"#utility.yul\":1867:1873   */\n      dup2\n        /* \"#utility.yul\":1862:1865   */\n      dup6\n        /* \"#utility.yul\":1855:1859   */\n      0x20\n        /* \"#utility.yul\":1848:1853   */\n      dup7\n        /* \"#utility.yul\":1844:1860   */\n      add\n        /* \"#utility.yul\":1809:1874   */\n      tag_84\n      jump\t// in\n    tag_117:\n        /* \"#utility.yul\":1899:1928   */\n      tag_118\n        /* \"#utility.yul\":1921:1927   */\n      dup2\n        /* \"#utility.yul\":1899:1928   */\n      tag_85\n      jump\t// in\n    tag_118:\n        /* \"#utility.yul\":1894:1897   */\n      dup5\n        /* \"#utility.yul\":1890:1929   */\n      add\n        /* \"#utility.yul\":1883:1929   */\n      swap2\n      pop\n        /* \"#utility.yul\":1650:1935   */\n      pop\n        /* \"#utility.yul\":1558:1935   */\n      swap3\n      swap2\n      pop\n      pop\n      jump\t// out\n        /* \"#utility.yul\":1941:2254   */\n    tag_9:\n        /* \"#utility.yul\":2054:2058   */\n      0x00\n        /* \"#utility.yul\":2092:2094   */\n      0x20\n        /* \"#utility.yul\":2081:2090   */\n      dup3\n        /* \"#utility.yul\":2077:2095   */\n      add\n        /* \"#utility.yul\":2069:2095   */\n      swap1\n      pop\n        /* \"#utility.yul\":2141:2150   */\n      dup2\n        /* \"#utility.yul\":2135:2139   */\n      dup2\n        /* \"#utility.yul\":2131:2151   */\n      sub\n        /* \"#utility.yul\":2127:2128   */\n      0x00\n        /* \"#utility.yul\":2116:2125   */\n      dup4\n        /* \"#utility.yul\":2112:2129   */\n      add\n        /* \"#utility.yul\":2105:2152   */\n      mstore\n        /* \"#utility.yul\":2169:2247   */\n      tag_120\n        /* \"#utility.yul\":2242:2246   */\n      dup2\n        /* \"#utility.yul\":2233:2239   */\n      dup5\n        /* \"#utility.yul\":2169:2247   */\n      tag_86\n      jump\t// in\n    tag_120:\n        /* \"#utility.yul\":2161:2247   */\n      swap1\n      pop\n        /* \"#utility.yul\":1941:2254   */\n      swap3\n      swap2\n      pop\n      pop\n      jump\t// out\n        /* \"#utility.yul\":2260:2421   */\n    tag_87:\n        /* \"#utility.yul\":2400:2413   */\n      0x696e76616c6964206e756d000000000000000000000000000000000000000000\n        /* \"#utility.yul\":2396:2397   */\n      0x00\n        /* \"#utility.yul\":2388:2394   */\n      dup3\n        /* \"#utility.yul\":2384:2398   */\n      add\n        /* \"#utility.yul\":2377:2414   */\n      mstore\n        /* \"#utility.yul\":2260:2421   */\n      pop\n      jump\t// out\n        /* \"#utility.yul\":2427:2793   */\n    tag_88:\n        /* \"#utility.yul\":2569:2572   */\n      0x00\n        /* \"#utility.yul\":2590:2657   */\n      tag_123\n        /* \"#utility.yul\":2654:2656   */\n      0x0b\n        /* \"#utility.yul\":2649:2652   */\n      dup4\n        /* \"#utility.yul\":2590:2657   */\n      tag_83\n      jump\t// in\n    tag_123:\n        /* \"#utility.yul\":2583:2657   */\n      swap2\n      pop\n        /* \"#utility.yul\":2666:2759   */\n      tag_124\n        /* \"#utility.yul\":2755:2758   */\n      dup3\n        /* \"#utility.yul\":2666:2759   */\n      tag_87\n      jump\t// in\n    tag_124:\n        /* \"#utility.yul\":2784:2786   */\n      0x20\n        /* \"#utility.yul\":2779:2782   */\n      dup3\n        /* \"#utility.yul\":2775:2787   */\n      add\n        /* \"#utility.yul\":2768:2787   */\n      swap1\n      pop\n        /* \"#utility.yul\":2427:2793   */\n      swap2\n      swap1\n      pop\n      jump\t// out\n        /* \"#utility.yul\":2799:3218   */\n    tag_14:\n        /* \"#utility.yul\":2965:2969   */\n      0x00\n        /* \"#utility.yul\":3003:3005   */\n      0x20\n        /* \"#utility.yul\":2992:3001   */\n      dup3\n        /* \"#utility.yul\":2988:3006   */\n      add\n        /* \"#utility.yul\":2980:3006   */\n      swap1\n      pop\n        /* \"#utility.yul\":3052:3061   */\n      dup2\n        /* \"#utility.yul\":3046:3050   */\n      dup2\n        /* \"#utility.yul\":3042:3062   */\n      sub\n        /* \"#utility.yul\":3038:3039   */\n      0x00\n        /* \"#utility.yul\":3027:3036   */\n      dup4\n        /* \"#utility.yul\":3023:3040   */\n      add\n        /* \"#utility.yul\":3016:3063   */\n      mstore\n        /* \"#utility.yul\":3080:3211   */\n      tag_126\n        /* \"#utility.yul\":3206:3210   */\n      dup2\n        /* \"#utility.yul\":3080:3211   */\n      tag_88\n      jump\t// in\n    tag_126:\n        /* \"#utility.yul\":3072:3211   */\n      swap1\n      pop\n        /* \"#utility.yul\":2799:3218   */\n      swap2\n      swap1\n      pop\n      jump\t// out\n        /* \"#utility.yul\":3224:3404   */\n    tag_19:\n        /* \"#utility.yul\":3272:3349   */\n      0x4e487b7100000000000000000000000000000000000000000000000000000000\n        /* \"#utility.yul\":3269:3270   */\n      0x00\n        /* \"#utility.yul\":3262:3350   */\n      mstore\n        /* \"#utility.yul\":3369:3373   */\n      0x41\n        /* \"#utility.yul\":3366:3367   */\n      0x04\n        /* \"#utility.yul\":3359:3374   */\n      mstore\n        /* \"#utility.yul\":3393:3397   */\n      0x24\n        /* \"#utility.yul\":3390:3391   */\n      0x00\n        /* \"#utility.yul\":3383:3398   */\n      revert\n        /* \"#utility.yul\":3410:3590   */\n    tag_89:\n        /* \"#utility.yul\":3458:3535   */\n      0x4e487b7100000000000000000000000000000000000000000000000000000000\n        /* \"#utility.yul\":3455:3456   */\n      0x00\n        /* \"#utility.yul\":3448:3536   */\n      mstore\n        /* \"#utility.yul\":3555:3559   */\n      0x11\n        /* \"#utility.yul\":3552:3553   */\n      0x04\n        /* \"#utility.yul\":3545:3560   */\n      mstore\n        /* \"#utility.yul\":3579:3583   */\n      0x24\n        /* \"#utility.yul\":3576:3577   */\n      0x00\n        /* \"#utility.yul\":3569:3584   */\n      revert\n        /* \"#utility.yul\":3596:3790   */\n    tag_25:\n        /* \"#utility.yul\":3636:3640   */\n      0x00\n        /* \"#utility.yul\":3656:3676   */\n      tag_130\n        /* \"#utility.yul\":3674:3675   */\n      dup3\n        /* \"#utility.yul\":3656:3676   */\n      tag_79\n      jump\t// in\n    tag_130:\n        /* \"#utility.yul\":3651:3676   */\n      swap2\n      pop\n        /* \"#utility.yul\":3690:3710   */\n      tag_131\n        /* \"#utility.yul\":3708:3709   */\n      dup4\n        /* \"#utility.yul\":3690:3710   */\n      tag_79\n      jump\t// in\n    tag_131:\n        /* \"#utility.yul\":3685:3710   */\n      swap3\n      pop\n        /* \"#utility.yul\":3734:3735   */\n      dup3\n        /* \"#utility.yul\":3731:3732   */\n      dup3\n        /* \"#utility.yul\":3727:3736   */\n      sub\n        /* \"#utility.yul\":3719:3736   */\n      swap1\n      pop\n        /* \"#utility.yul\":3758:3759   */\n      dup2\n        /* \"#utility.yul\":3752:3756   */\n      dup2\n        /* \"#utility.yul\":3749:3760   */\n      gt\n        /* \"#utility.yul\":3746:3783   */\n      iszero\n      tag_132\n      jumpi\n        /* \"#utility.yul\":3763:3781   */\n      tag_133\n      tag_89\n      jump\t// in\n    tag_133:\n        /* \"#utility.yul\":3746:3783   */\n    tag_132:\n        /* \"#utility.yul\":3596:3790   */\n      swap3\n      swap2\n      pop\n      pop\n      jump\t// out\n        /* \"#utility.yul\":3796:3976   */\n    tag_28:\n        /* \"#utility.yul\":3844:3921   */\n      0x4e487b7100000000000000000000000000000000000000000000000000000000\n        /* \"#utility.yul\":3841:3842   */\n      0x00\n        /* \"#utility.yul\":3834:3922   */\n      mstore\n        /* \"#utility.yul\":3941:3945   */\n      0x32\n        /* \"#utility.yul\":3938:3939   */\n      0x04\n        /* \"#utility.yul\":3931:3946   */\n      mstore\n        /* \"#utility.yul\":3965:3969   */\n      0x24\n        /* \"#utility.yul\":3962:3963   */\n      0x00\n        /* \"#utility.yul\":3955:3970   */\n      revert\n        /* \"#utility.yul\":3982:4392   */\n    tag_30:\n        /* \"#utility.yul\":4022:4029   */\n      0x00\n        /* \"#utility.yul\":4045:4065   */\n      tag_136\n        /* \"#utility.yul\":4063:4064   */\n      dup3\n        /* \"#utility.yul\":4045:4065   */\n      tag_79\n      jump\t// in\n    tag_136:\n        /* \"#utility.yul\":4040:4065   */\n      swap2\n      pop\n        /* \"#utility.yul\":4079:4099   */\n      tag_137\n        /* \"#utility.yul\":4097:4098   */\n      dup4\n        /* \"#utility.yul\":4079:4099   */\n      tag_79\n      jump\t// in\n    tag_137:\n        /* \"#utility.yul\":4074:4099   */\n      swap3\n      pop\n        /* \"#utility.yul\":4134:4135   */\n      dup3\n        /* \"#utility.yul\":4131:4132   */\n      dup3\n        /* \"#utility.yul\":4127:4136   */\n      mul\n        /* \"#utility.yul\":4156:4186   */\n      tag_138\n        /* \"#utility.yul\":4174:4185   */\n      dup2\n        /* \"#utility.yul\":4156:4186   */\n      tag_79\n      jump\t// in\n    tag_138:\n        /* \"#utility.yul\":4145:4186   */\n      swap2\n      pop\n        /* \"#utility.yul\":4335:4336   */\n      dup3\n        /* \"#utility.yul\":4326:4333   */\n      dup3\n        /* \"#utility.yul\":4322:4337   */\n      div\n        /* \"#utility.yul\":4319:4320   */\n      dup5\n        /* \"#utility.yul\":4316:4338   */\n      eq\n        /* \"#utility.yul\":4296:4297   */\n      dup4\n        /* \"#utility.yul\":4289:4298   */\n      iszero\n        /* \"#utility.yul\":4269:4352   */\n      or\n        /* \"#utility.yul\":4246:4385   */\n      tag_139\n      jumpi\n        /* \"#utility.yul\":4365:4383   */\n      tag_140\n      tag_89\n      jump\t// in\n    tag_140:\n        /* \"#utility.yul\":4246:4385   */\n    tag_139:\n        /* \"#utility.yul\":4030:4392   */\n      pop\n        /* \"#utility.yul\":3982:4392   */\n      swap3\n      swap2\n      pop\n      pop\n      jump\t// out\n        /* \"#utility.yul\":4398:4569   */\n    tag_36:\n        /* \"#utility.yul\":4437:4440   */\n      0x00\n        /* \"#utility.yul\":4460:4484   */\n      tag_142\n        /* \"#utility.yul\":4478:4483   */\n      dup3\n        /* \"#utility.yul\":4460:4484   */\n      tag_79\n      jump\t// in\n    tag_142:\n        /* \"#utility.yul\":4451:4484   */\n      swap2\n      pop\n        /* \"#utility.yul\":4506:4510   */\n      0x00\n        /* \"#utility.yul\":4499:4504   */\n      dup3\n        /* \"#utility.yul\":4496:4511   */\n      sub\n        /* \"#utility.yul\":4493:4534   */\n      tag_143\n      jumpi\n        /* \"#utility.yul\":4514:4532   */\n      tag_144\n      tag_89\n      jump\t// in\n    tag_144:\n        /* \"#utility.yul\":4493:4534   */\n    tag_143:\n        /* \"#utility.yul\":4561:4562   */\n      0x01\n        /* \"#utility.yul\":4554:4559   */\n      dup3\n        /* \"#utility.yul\":4550:4563   */\n      sub\n        /* \"#utility.yul\":4543:4563   */\n      swap1\n      pop\n        /* \"#utility.yul\":4398:4569   */\n      swap2\n      swap1\n      pop\n      jump\t// out\n        /* \"#utility.yul\":4575:4723   */\n    tag_90:\n        /* \"#utility.yul\":4677:4688   */\n      0x00\n        /* \"#utility.yul\":4714:4717   */\n      dup2\n        /* \"#utility.yul\":4699:4717   */\n      swap1\n      pop\n        /* \"#utility.yul\":4575:4723   */\n      swap3\n      swap2\n      pop\n      pop\n      jump\t// out\n        /* \"#utility.yul\":4729:5119   */\n    tag_91:\n        /* \"#utility.yul\":4835:4838   */\n      0x00\n        /* \"#utility.yul\":4863:4902   */\n      tag_147\n        /* \"#utility.yul\":4896:4901   */\n      dup3\n        /* \"#utility.yul\":4863:4902   */\n      tag_82\n      jump\t// in\n    tag_147:\n        /* \"#utility.yul\":4918:5007   */\n      tag_148\n        /* \"#utility.yul\":5000:5006   */\n      dup2\n        /* \"#utility.yul\":4995:4998   */\n      dup6\n        /* \"#utility.yul\":4918:5007   */\n      tag_90\n      jump\t// in\n    tag_148:\n        /* \"#utility.yul\":4911:5007   */\n      swap4\n      pop\n        /* \"#utility.yul\":5016:5081   */\n      tag_149\n        /* \"#utility.yul\":5074:5080   */\n      dup2\n        /* \"#utility.yul\":5069:5072   */\n      dup6\n        /* \"#utility.yul\":5062:5066   */\n      0x20\n        /* \"#utility.yul\":5055:5060   */\n      dup7\n        /* \"#utility.yul\":5051:5067   */\n      add\n        /* \"#utility.yul\":5016:5081   */\n      tag_84\n      jump\t// in\n    tag_149:\n        /* \"#utility.yul\":5106:5112   */\n      dup1\n        /* \"#utility.yul\":5101:5104   */\n      dup5\n        /* \"#utility.yul\":5097:5113   */\n      add\n        /* \"#utility.yul\":5090:5113   */\n      swap2\n      pop\n        /* \"#utility.yul\":4839:5119   */\n      pop\n        /* \"#utility.yul\":4729:5119   */\n      swap3\n      swap2\n      pop\n      pop\n      jump\t// out\n        /* \"#utility.yul\":5125:5305   */\n    tag_92:\n        /* \"#utility.yul\":5173:5250   */\n      0x4e487b7100000000000000000000000000000000000000000000000000000000\n        /* \"#utility.yul\":5170:5171   */\n      0x00\n        /* \"#utility.yul\":5163:5251   */\n      mstore\n        /* \"#utility.yul\":5270:5274   */\n      0x22\n        /* \"#utility.yul\":5267:5268   */\n      0x04\n        /* \"#utility.yul\":5260:5275   */\n      mstore\n        /* \"#utility.yul\":5294:5298   */\n      0x24\n        /* \"#utility.yul\":5291:5292   */\n      0x00\n        /* \"#utility.yul\":5284:5299   */\n      revert\n        /* \"#utility.yul\":5311:5631   */\n    tag_93:\n        /* \"#utility.yul\":5355:5361   */\n      0x00\n        /* \"#utility.yul\":5392:5393   */\n      0x02\n        /* \"#utility.yul\":5386:5390   */\n      dup3\n        /* \"#utility.yul\":5382:5394   */\n      div\n        /* \"#utility.yul\":5372:5394   */\n      swap1\n      pop\n        /* \"#utility.yul\":5439:5440   */\n      0x01\n        /* \"#utility.yul\":5433:5437   */\n      dup3\n        /* \"#utility.yul\":5429:5441   */\n      and\n        /* \"#utility.yul\":5460:5478   */\n      dup1\n        /* \"#utility.yul\":5450:5531   */\n      tag_152\n      jumpi\n        /* \"#utility.yul\":5516:5520   */\n      0x7f\n        /* \"#utility.yul\":5508:5514   */\n      dup3\n        /* \"#utility.yul\":5504:5521   */\n      and\n        /* \"#utility.yul\":5494:5521   */\n      swap2\n      pop\n        /* \"#utility.yul\":5450:5531   */\n    tag_152:\n        /* \"#utility.yul\":5578:5580   */\n      0x20\n        /* \"#utility.yul\":5570:5576   */\n      dup3\n        /* \"#utility.yul\":5567:5581   */\n      lt\n        /* \"#utility.yul\":5547:5565   */\n      dup2\n        /* \"#utility.yul\":5544:5582   */\n      sub\n        /* \"#utility.yul\":5541:5625   */\n      tag_153\n      jumpi\n        /* \"#utility.yul\":5597:5615   */\n      tag_154\n      tag_92\n      jump\t// in\n    tag_154:\n        /* \"#utility.yul\":5541:5625   */\n    tag_153:\n        /* \"#utility.yul\":5362:5631   */\n      pop\n        /* \"#utility.yul\":5311:5631   */\n      swap2\n      swap1\n      pop\n      jump\t// out\n        /* \"#utility.yul\":5637:5778   */\n    tag_94:\n        /* \"#utility.yul\":5686:5690   */\n      0x00\n        /* \"#utility.yul\":5709:5712   */\n      dup2\n        /* \"#utility.yul\":5701:5712   */\n      swap1\n      pop\n        /* \"#utility.yul\":5732:5735   */\n      dup2\n        /* \"#utility.yul\":5729:5730   */\n      0x00\n        /* \"#utility.yul\":5722:5736   */\n      mstore\n        /* \"#utility.yul\":5766:5770   */\n      0x20\n        /* \"#utility.yul\":5763:5764   */\n      0x00\n        /* \"#utility.yul\":5753:5771   */\n      keccak256\n        /* \"#utility.yul\":5745:5771   */\n      swap1\n      pop\n        /* \"#utility.yul\":5637:5778   */\n      swap2\n      swap1\n      pop\n      jump\t// out\n        /* \"#utility.yul\":5808:6682   */\n    tag_95:\n        /* \"#utility.yul\":5911:5914   */\n      0x00\n        /* \"#utility.yul\":5948:5953   */\n      dup2\n        /* \"#utility.yul\":5942:5954   */\n      sload\n        /* \"#utility.yul\":5977:6013   */\n      tag_157\n        /* \"#utility.yul\":6003:6012   */\n      dup2\n        /* \"#utility.yul\":5977:6013   */\n      tag_93\n      jump\t// in\n    tag_157:\n        /* \"#utility.yul\":6029:6118   */\n      tag_158\n        /* \"#utility.yul\":6111:6117   */\n      dup2\n        /* \"#utility.yul\":6106:6109   */\n      dup7\n        /* \"#utility.yul\":6029:6118   */\n      tag_90\n      jump\t// in\n    tag_158:\n        /* \"#utility.yul\":6022:6118   */\n      swap5\n      pop\n        /* \"#utility.yul\":6149:6150   */\n      0x01\n        /* \"#utility.yul\":6138:6147   */\n      dup3\n        /* \"#utility.yul\":6134:6151   */\n      and\n        /* \"#utility.yul\":6165:6166   */\n      0x00\n        /* \"#utility.yul\":6160:6326   */\n      dup2\n      eq\n      tag_160\n      jumpi\n        /* \"#utility.yul\":6340:6341   */\n      0x01\n        /* \"#utility.yul\":6335:6676   */\n      dup2\n      eq\n      tag_161\n      jumpi\n        /* \"#utility.yul\":6127:6676   */\n      jump(tag_159)\n        /* \"#utility.yul\":6160:6326   */\n    tag_160:\n        /* \"#utility.yul\":6244:6248   */\n      0xff\n        /* \"#utility.yul\":6240:6249   */\n      not\n        /* \"#utility.yul\":6229:6238   */\n      dup4\n        /* \"#utility.yul\":6225:6250   */\n      and\n        /* \"#utility.yul\":6220:6223   */\n      dup7\n        /* \"#utility.yul\":6213:6251   */\n      mstore\n        /* \"#utility.yul\":6306:6312   */\n      dup2\n        /* \"#utility.yul\":6299:6313   */\n      iszero\n        /* \"#utility.yul\":6292:6314   */\n      iszero\n        /* \"#utility.yul\":6284:6290   */\n      dup3\n        /* \"#utility.yul\":6280:6315   */\n      mul\n        /* \"#utility.yul\":6275:6278   */\n      dup7\n        /* \"#utility.yul\":6271:6316   */\n      add\n        /* \"#utility.yul\":6264:6316   */\n      swap4\n      pop\n        /* \"#utility.yul\":6160:6326   */\n      jump(tag_159)\n        /* \"#utility.yul\":6335:6676   */\n    tag_161:\n        /* \"#utility.yul\":6402:6440   */\n      tag_162\n        /* \"#utility.yul\":6434:6439   */\n      dup6\n        /* \"#utility.yul\":6402:6440   */\n      tag_94\n      jump\t// in\n    tag_162:\n        /* \"#utility.yul\":6462:6463   */\n      0x00\n        /* \"#utility.yul\":6476:6630   */\n    tag_163:\n        /* \"#utility.yul\":6490:6496   */\n      dup4\n        /* \"#utility.yul\":6487:6488   */\n      dup2\n        /* \"#utility.yul\":6484:6497   */\n      lt\n        /* \"#utility.yul\":6476:6630   */\n      iszero\n      tag_165\n      jumpi\n        /* \"#utility.yul\":6564:6571   */\n      dup2\n        /* \"#utility.yul\":6558:6572   */\n      sload\n        /* \"#utility.yul\":6554:6555   */\n      dup2\n        /* \"#utility.yul\":6549:6552   */\n      dup10\n        /* \"#utility.yul\":6545:6556   */\n      add\n        /* \"#utility.yul\":6538:6573   */\n      mstore\n        /* \"#utility.yul\":6614:6615   */\n      0x01\n        /* \"#utility.yul\":6605:6612   */\n      dup3\n        /* \"#utility.yul\":6601:6616   */\n      add\n        /* \"#utility.yul\":6590:6616   */\n      swap2\n      pop\n        /* \"#utility.yul\":6512:6516   */\n      0x20\n        /* \"#utility.yul\":6509:6510   */\n      dup2\n        /* \"#utility.yul\":6505:6517   */\n      add\n        /* \"#utility.yul\":6500:6517   */\n      swap1\n      pop\n        /* \"#utility.yul\":6476:6630   */\n      jump(tag_163)\n    tag_165:\n        /* \"#utility.yul\":6659:6665   */\n      dup4\n        /* \"#utility.yul\":6654:6657   */\n      dup9\n        /* \"#utility.yul\":6650:6666   */\n      add\n        /* \"#utility.yul\":6643:6666   */\n      swap6\n      pop\n        /* \"#utility.yul\":6342:6676   */\n      pop\n      pop\n        /* \"#utility.yul\":6127:6676   */\n    tag_159:\n      pop\n        /* \"#utility.yul\":5915:6682   */\n      pop\n      pop\n        /* \"#utility.yul\":5808:6682   */\n      swap3\n      swap2\n      pop\n      pop\n      jump\t// out\n        /* \"#utility.yul\":6688:7117   */\n    tag_43:\n        /* \"#utility.yul\":6865:6868   */\n      0x00\n        /* \"#utility.yul\":6887:6982   */\n      tag_167\n        /* \"#utility.yul\":6978:6981   */\n      dup3\n        /* \"#utility.yul\":6969:6975   */\n      dup6\n        /* \"#utility.yul\":6887:6982   */\n      tag_91\n      jump\t// in\n    tag_167:\n        /* \"#utility.yul\":6880:6982   */\n      swap2\n      pop\n        /* \"#utility.yul\":6999:7091   */\n      tag_168\n        /* \"#utility.yul\":7087:7090   */\n      dup3\n        /* \"#utility.yul\":7078:7084   */\n      dup5\n        /* \"#utility.yul\":6999:7091   */\n      tag_95\n      jump\t// in\n    tag_168:\n        /* \"#utility.yul\":6992:7091   */\n      swap2\n      pop\n        /* \"#utility.yul\":7108:7111   */\n      dup2\n        /* \"#utility.yul\":7101:7111   */\n      swap1\n      pop\n        /* \"#utility.yul\":6688:7117   */\n      swap4\n      swap3\n      pop\n      pop\n      pop\n      jump\t// out\n        /* \"#utility.yul\":7123:7303   */\n    tag_54:\n        /* \"#utility.yul\":7171:7248   */\n      0x4e487b7100000000000000000000000000000000000000000000000000000000\n        /* \"#utility.yul\":7168:7169   */\n      0x00\n        /* \"#utility.yul\":7161:7249   */\n      mstore\n        /* \"#utility.yul\":7268:7272   */\n      0x12\n        /* \"#utility.yul\":7265:7266   */\n      0x04\n        /* \"#utility.yul\":7258:7273   */\n      mstore\n        /* \"#utility.yul\":7292:7296   */\n      0x24\n        /* \"#utility.yul\":7289:7290   */\n      0x00\n        /* \"#utility.yul\":7282:7297   */\n      revert\n\n    auxdata: 0xa264697066735822122036f3d1e12ed65e26fd6521c0fae465a1737e0b4da3c0b3d34ac910f3351cd7eb64736f6c634300081e0033\n}\n",
				"bytecode": {
					"linkReferences": {},
					"object": "608060405234801561000f575f5ffd5b506040518060400160405280600181526020017f49000000000000000000000000000000000000000000000000000000000000008152505f5f600181526020019081526020015f2090816100639190610e94565b506040518060400160405280600281526020017f49490000000000000000000000000000000000000000000000000000000000008152505f5f600281526020019081526020015f2090816100b79190610e94565b506040518060400160405280600281526020017f49490000000000000000000000000000000000000000000000000000000000008152505f5f600381526020019081526020015f20908161010b9190610e94565b506040518060400160405280600281526020017f49560000000000000000000000000000000000000000000000000000000000008152505f5f600481526020019081526020015f20908161015f9190610e94565b506040518060400160405280600181526020017f56000000000000000000000000000000000000000000000000000000000000008152505f5f600581526020019081526020015f2090816101b39190610e94565b506040518060400160405280600281526020017f56490000000000000000000000000000000000000000000000000000000000008152505f5f600681526020019081526020015f2090816102079190610e94565b506040518060400160405280600381526020017f56494900000000000000000000000000000000000000000000000000000000008152505f5f600781526020019081526020015f20908161025b9190610e94565b506040518060400160405280600481526020017f56494949000000000000000000000000000000000000000000000000000000008152505f5f600881526020019081526020015f2090816102af9190610e94565b506040518060400160405280600281526020017f49580000000000000000000000000000000000000000000000000000000000008152505f5f600981526020019081526020015f2090816103039190610e94565b506040518060400160405280600181526020017f58000000000000000000000000000000000000000000000000000000000000008152505f5f600a81526020019081526020015f2090816103579190610e94565b506040518060400160405280600281526020017f58580000000000000000000000000000000000000000000000000000000000008152505f5f601481526020019081526020015f2090816103ab9190610e94565b506040518060400160405280600381526020017f58585800000000000000000000000000000000000000000000000000000000008152505f5f601e81526020019081526020015f2090816103ff9190610e94565b506040518060400160405280600281526020017f584c0000000000000000000000000000000000000000000000000000000000008152505f5f602881526020019081526020015f2090816104539190610e94565b506040518060400160405280600181526020017f4c000000000000000000000000000000000000000000000000000000000000008152505f5f603281526020019081526020015f2090816104a79190610e94565b506040518060400160405280600281526020017f4c580000000000000000000000000000000000000000000000000000000000008152505f5f603c81526020019081526020015f2090816104fb9190610e94565b506040518060400160405280600381526020017f4c585800000000000000000000000000000000000000000000000000000000008152505f5f604681526020019081526020015f20908161054f9190610e94565b506040518060400160405280600481526020017f4c585858000000000000000000000000000000000000000000000000000000008152505f5f605081526020019081526020015f2090816105a39190610e94565b506040518060400160405280600281526020017f58430000000000000000000000000000000000000000000000000000000000008152505f5f605a81526020019081526020015f2090816105f79190610e94565b506040518060400160405280600181526020017f43000000000000000000000000000000000000000000000000000000000000008152505f5f606481526020019081526020015f20908161064b9190610e94565b506040518060400160405280600281526020017f43430000000000000000000000000000000000000000000000000000000000008152505f5f60c881526020019081526020015f20908161069f9190610e94565b506040518060400160405280600381526020017f43434300000000000000000000000000000000000000000000000000000000008152505f5f61012c81526020019081526020015f2090816106f49190610e94565b506040518060400160405280600281526020017f43440000000000000000000000000000000000000000000000000000000000008152505f5f61019081526020019081526020015f2090816107499190610e94565b506040518060400160405280600181526020017f44000000000000000000000000000000000000000000000000000000000000008152505f5f6101f481526020019081526020015f20908161079e9190610e94565b506040518060400160405280600281526020017f44430000000000000000000000000000000000000000000000000000000000008152505f5f61025881526020019081526020015f2090816107f39190610e94565b506040518060400160405280600381526020017f44434300000000000000000000000000000000000000000000000000000000008152505f5f6102bc81526020019081526020015f2090816108489190610e94565b506040518060400160405280600481526020017f44434343000000000000000000000000000000000000000000000000000000008152505f5f61032081526020019081526020015f20908161089d9190610e94565b506040518060400160405280600281526020017f434d0000000000000000000000000000000000000000000000000000000000008152505f5f61038481526020019081526020015f2090816108f29190610e94565b506040518060400160405280600181526020017f4d000000000000000000000000000000000000000000000000000000000000008152505f5f6103e881526020019081526020015f2090816109479190610e94565b506040518060400160405280600281526020017f4d4d0000000000000000000000000000000000000000000000000000000000008152505f5f6107d081526020019081526020015f20908161099c9190610e94565b506040518060400160405280600381526020017f4d4d4d00000000000000000000000000000000000000000000000000000000008152505f5f610bb881526020019081526020015f2090816109f19190610e94565b505f60015f603060f81b7effffffffffffffffffffffffffffffffffffffffffffffffffffffffffffff191681526020019081526020015f20819055506001805f603160f81b7effffffffffffffffffffffffffffffffffffffffffffffffffffffffffffff191681526020019081526020015f2081905550600260015f603260f81b7effffffffffffffffffffffffffffffffffffffffffffffffffffffffffffff191681526020019081526020015f2081905550600360015f603360f81b7effffffffffffffffffffffffffffffffffffffffffffffffffffffffffffff191681526020019081526020015f2081905550600460015f603460f81b7effffffffffffffffffffffffffffffffffffffffffffffffffffffffffffff191681526020019081526020015f2081905550600560015f603560f81b7effffffffffffffffffffffffffffffffffffffffffffffffffffffffffffff191681526020019081526020015f2081905550600660015f603660f81b7effffffffffffffffffffffffffffffffffffffffffffffffffffffffffffff191681526020019081526020015f2081905550600760015f603760f81b7effffffffffffffffffffffffffffffffffffffffffffffffffffffffffffff191681526020019081526020015f2081905550600860015f603860f81b7effffffffffffffffffffffffffffffffffffffffffffffffffffffffffffff191681526020019081526020015f2081905550600960015f603960f81b7effffffffffffffffffffffffffffffffffffffffffffffffffffffffffffff191681526020019081526020015f2081905550610f63565b5f81519050919050565b7f4e487b71000000000000000000000000000000000000000000000000000000005f52604160045260245ffd5b7f4e487b71000000000000000000000000000000000000000000000000000000005f52602260045260245ffd5b5f6002820490506001821680610cd257607f821691505b602082108103610ce557610ce4610c8e565b5b50919050565b5f819050815f5260205f209050919050565b5f6020601f8301049050919050565b5f82821b905092915050565b5f60088302610d477fffffffffffffffffffffffffffffffffffffffffffffffffffffffffffffffff82610d0c565b610d518683610d0c565b95508019841693508086168417925050509392505050565b5f819050919050565b5f819050919050565b5f610d95610d90610d8b84610d69565b610d72565b610d69565b9050919050565b5f819050919050565b610dae83610d7b565b610dc2610dba82610d9c565b848454610d18565b825550505050565b5f5f905090565b610dd9610dca565b610de4818484610da5565b505050565b5b81811015610e0757610dfc5f82610dd1565b600181019050610dea565b5050565b601f821115610e4c57610e1d81610ceb565b610e2684610cfd565b81016020851015610e35578190505b610e49610e4185610cfd565b830182610de9565b50505b505050565b5f82821c905092915050565b5f610e6c5f1984600802610e51565b1980831691505092915050565b5f610e848383610e5d565b9150826002028217905092915050565b610e9d82610c57565b67ffffffffffffffff811115610eb657610eb5610c61565b5b610ec08254610cbb565b610ecb828285610e0b565b5f60209050601f831160018114610efc575f8415610eea578287015190505b610ef48582610e79565b865550610f5b565b601f198416610f0a86610ceb565b5f5b82811015610f3157848901518255600182019150602085019450602081019050610f0c565b86831015610f4e5784890151610f4a601f891682610e5d565b8355505b6001600288020188555050505b505050505050565b6108b280610f705f395ff3fe608060405234801561000f575f5ffd5b5060043610610029575f3560e01c806375322e471461002d575b5f5ffd5b610047600480360381019061004291906104be565b61005d565b6040516100549190610559565b60405180910390f35b6060600182101580156100725750610f9f8211155b6100b1576040517f08c379a00000000000000000000000000000000000000000000000000000000081526004016100a8906105c3565b60405180910390fd5b5f6100bb8361026c565b90505f8190505f815167ffffffffffffffff8111156100dd576100dc6105e1565b5b60405190808252806020026020018201604052801561010b5781602001602082028036833780820191505090505b5090505f600190505f60018451610122919061063b565b90505b5f81106101f3578160015f8684815181106101435761014261066e565b5b602001015160f81c60f81b7effffffffffffffffffffffffffffffffffffffffffffffffffffffffffffff19167effffffffffffffffffffffffffffffffffffffffffffffffffffffffffffff191681526020019081526020015f20546101aa919061069b565b8382815181106101bd576101bc61066e565b5b602002602001018181525050600a826101d6919061069b565b91505f8103156101f35780806101eb906106dc565b915050610125565b5060605f5f90505b835181101561025e57815f5f86848151811061021a5761021961066e565b5b602002602001015181526020019081526020015f2060405160200161024092919061082c565b604051602081830303815290604052915080806001019150506101fb565b508095505050505050919050565b60605f600161027a84610336565b0190505f8167ffffffffffffffff811115610298576102976105e1565b5b6040519080825280601f01601f1916602001820160405280156102ca5781602001600182028036833780820191505090505b5090505f82602083010190505b60011561032b578080600190039150507f3031323334353637383961626364656600000000000000000000000000000000600a86061a8153600a85816103205761031f61084f565b5b0494505f85036102d7575b819350505050919050565b5f5f5f90507a184f03e93ff9f4daa797ed6e38ed64bf6a1f0100000000000000008310610392577a184f03e93ff9f4daa797ed6e38ed64bf6a1f01000000000000000083816103885761038761084f565b5b0492506040810190505b6d04ee2d6d415b85acef810000000083106103cf576d04ee2d6d415b85acef810000000083816103c5576103c461084f565b5b0492506020810190505b662386f26fc1000083106103fe57662386f26fc1000083816103f4576103f361084f565b5b0492506010810190505b6305f5e1008310610427576305f5e100838161041d5761041c61084f565b5b0492506008810190505b612710831061044c5761271083816104425761044161084f565b5b0492506004810190505b6064831061046f57606483816104655761046461084f565b5b0492506002810190505b600a831061047e576001810190505b80915050919050565b5f5ffd5b5f819050919050565b61049d8161048b565b81146104a7575f5ffd5b50565b5f813590506104b881610494565b92915050565b5f602082840312156104d3576104d2610487565b5b5f6104e0848285016104aa565b91505092915050565b5f81519050919050565b5f82825260208201905092915050565b8281835e5f83830152505050565b5f601f19601f8301169050919050565b5f61052b826104e9565b61053581856104f3565b9350610545818560208601610503565b61054e81610511565b840191505092915050565b5f6020820190508181035f8301526105718184610521565b905092915050565b7f696e76616c6964206e756d0000000000000000000000000000000000000000005f82015250565b5f6105ad600b836104f3565b91506105b882610579565b602082019050919050565b5f6020820190508181035f8301526105da816105a1565b9050919050565b7f4e487b71000000000000000000000000000000000000000000000000000000005f52604160045260245ffd5b7f4e487b71000000000000000000000000000000000000000000000000000000005f52601160045260245ffd5b5f6106458261048b565b91506106508361048b565b92508282039050818111156106685761066761060e565b5b92915050565b7f4e487b71000000000000000000000000000000000000000000000000000000005f52603260045260245ffd5b5f6106a58261048b565b91506106b08361048b565b92508282026106be8161048b565b915082820484148315176106d5576106d461060e565b5b5092915050565b5f6106e68261048b565b91505f82036106f8576106f761060e565b5b600182039050919050565b5f81905092915050565b5f610717826104e9565b6107218185610703565b9350610731818560208601610503565b80840191505092915050565b7f4e487b71000000000000000000000000000000000000000000000000000000005f52602260045260245ffd5b5f600282049050600182168061078157607f821691505b6020821081036107945761079361073d565b5b50919050565b5f819050815f5260205f209050919050565b5f81546107b88161076a565b6107c28186610703565b9450600182165f81146107dc57600181146107f157610823565b60ff1983168652811515820286019350610823565b6107fa8561079a565b5f5b8381101561081b578154818901526001820191506020810190506107fc565b838801955050505b50505092915050565b5f610837828561070d565b915061084382846107ac565b91508190509392505050565b7f4e487b71000000000000000000000000000000000000000000000000000000005f52601260045260245ffdfea264697066735822122036f3d1e12ed65e26fd6521c0fae465a1737e0b4da3c0b3d34ac910f3351cd7eb64736f6c634300081e0033",
					"opcodes": "PUSH1 0x80 PUSH1 0x40 MSTORE CALLVALUE DUP1 ISZERO PUSH2 0xF JUMPI PUSH0 PUSH0 REVERT JUMPDEST POP PUSH1 0x40 MLOAD DUP1 PUSH1 0x40 ADD PUSH1 0x40 MSTORE DUP1 PUSH1 0x1 DUP2 MSTORE PUSH1 0x20 ADD PUSH32 0x4900000000000000000000000000000000000000000000000000000000000000 DUP2 MSTORE POP PUSH0 PUSH0 PUSH1 0x1 DUP2 MSTORE PUSH1 0x20 ADD SWAP1 DUP2 MSTORE PUSH1 0x20 ADD PUSH0 KECCAK256 SWAP1 DUP2 PUSH2 0x63 SWAP2 SWAP1 PUSH2 0xE94 JUMP JUMPDEST POP PUSH1 0x40 MLOAD DUP1 PUSH1 0x40 ADD PUSH1 0x40 MSTORE DUP1 PUSH1 0x2 DUP2 MSTORE PUSH1 0x20 ADD PUSH32 0x4949000000000000000000000000000000000000000000000000000000000000 DUP2 MSTORE POP PUSH0 PUSH0 PUSH1 0x2 DUP2 MSTORE PUSH1 0x20 ADD SWAP1 DUP2 MSTORE PUSH1 0x20 ADD PUSH0 KECCAK256 SWAP1 DUP2 PUSH2 0xB7 SWAP2 SWAP1 PUSH2 0xE94 JUMP JUMPDEST POP PUSH1 0x40 MLOAD DUP1 PUSH1 0x40 ADD PUSH1 0x40 MSTORE DUP1 PUSH1 0x2 DUP2 MSTORE PUSH1 0x20 ADD PUSH32 0x4949000000000000000000000000000000000000000000000000000000000000 DUP2 MSTORE POP PUSH0 PUSH0 PUSH1 0x3 DUP2 MSTORE PUSH1 0x20 ADD SWAP1 DUP2 MSTORE PUSH1 0x20 ADD PUSH0 KECCAK256 SWAP1 DUP2 PUSH2 0x10B SWAP2 SWAP1 PUSH2 0xE94 JUMP JUMPDEST POP PUSH1 0x40 MLOAD DUP1 PUSH1 0x40 ADD PUSH1 0x40 MSTORE DUP1 PUSH1 0x2 DUP2 MSTORE PUSH1 0x20 ADD PUSH32 0x4956000000000000000000000000000000000000000000000000000000000000 DUP2 MSTORE POP PUSH0 PUSH0 PUSH1 0x4 DUP2 MSTORE PUSH1 0x20 ADD SWAP1 DUP2 MSTORE PUSH1 0x20 ADD PUSH0 KECCAK256 SWAP1 DUP2 PUSH2 0x15F SWAP2 SWAP1 PUSH2 0xE94 JUMP JUMPDEST POP PUSH1 0x40 MLOAD DUP1 PUSH1 0x40 ADD PUSH1 0x40 MSTORE DUP1 PUSH1 0x1 DUP2 MSTORE PUSH1 0x20 ADD PUSH32 0x5600000000000000000000000000000000000000000000000000000000000000 DUP2 MSTORE POP PUSH0 PUSH0 PUSH1 0x5 DUP2 MSTORE PUSH1 0x20 ADD SWAP1 DUP2 MSTORE PUSH1 0x20 ADD PUSH0 KECCAK256 SWAP1 DUP2 PUSH2 0x1B3 SWAP2 SWAP1 PUSH2 0xE94 JUMP JUMPDEST POP PUSH1 0x40 MLOAD DUP1 PUSH1 0x40 ADD PUSH1 0x40 MSTORE DUP1 PUSH1 0x2 DUP2 MSTORE PUSH1 0x20 ADD PUSH32 0x5649000000000000000000000000000000000000000000000000000000000000 DUP2 MSTORE POP PUSH0 PUSH0 PUSH1 0x6 DUP2 MSTORE PUSH1 0x20 ADD SWAP1 DUP2 MSTORE PUSH1 0x20 ADD PUSH0 KECCAK256 SWAP1 DUP2 PUSH2 0x207 SWAP2 SWAP1 PUSH2 0xE94 JUMP JUMPDEST POP PUSH1 0x40 MLOAD DUP1 PUSH1 0x40 ADD PUSH1 0x40 MSTORE DUP1 PUSH1 0x3 DUP2 MSTORE PUSH1 0x20 ADD PUSH32 0x5649490000000000000000000000000000000000000000000000000000000000 DUP2 MSTORE POP PUSH0 PUSH0 PUSH1 0x7 DUP2 MSTORE PUSH1 0x20 ADD SWAP1 DUP2 MSTORE PUSH1 0x20 ADD PUSH0 KECCAK256 SWAP1 DUP2 PUSH2 0x25B SWAP2 SWAP1 PUSH2 0xE94 JUMP JUMPDEST POP PUSH1 0x40 MLOAD DUP1 PUSH1 0x40 ADD PUSH1 0x40 MSTORE DUP1 PUSH1 0x4 DUP2 MSTORE PUSH1 0x20 ADD PUSH32 0x5649494900000000000000000000000000000000000000000000000000000000 DUP2 MSTORE POP PUSH0 PUSH0 PUSH1 0x8 DUP2 MSTORE PUSH1 0x20 ADD SWAP1 DUP2 MSTORE PUSH1 0x20 ADD PUSH0 KECCAK256 SWAP1 DUP2 PUSH2 0x2AF SWAP2 SWAP1 PUSH2 0xE94 JUMP JUMPDEST POP PUSH1 0x40 MLOAD DUP1 PUSH1 0x40 ADD PUSH1 0x40 MSTORE DUP1 PUSH1 0x2 DUP2 MSTORE PUSH1 0x20 ADD PUSH32 0x4958000000000000000000000000000000000000000000000000000000000000 DUP2 MSTORE POP PUSH0 PUSH0 PUSH1 0x9 DUP2 MSTORE PUSH1 0x20 ADD SWAP1 DUP2 MSTORE PUSH1 0x20 ADD PUSH0 KECCAK256 SWAP1 DUP2 PUSH2 0x303 SWAP2 SWAP1 PUSH2 0xE94 JUMP JUMPDEST POP PUSH1 0x40 MLOAD DUP1 PUSH1 0x40 ADD PUSH1 0x40 MSTORE DUP1 PUSH1 0x1 DUP2 MSTORE PUSH1 0x20 ADD PUSH32 0x5800000000000000000000000000000000000000000000000000000000000000 DUP2 MSTORE POP PUSH0 PUSH0 PUSH1 0xA DUP2 MSTORE PUSH1 0x20 ADD SWAP1 DUP2 MSTORE PUSH1 0x20 ADD PUSH0 KECCAK256 SWAP1 DUP2 PUSH2 0x357 SWAP2 SWAP1 PUSH2 0xE94 JUMP JUMPDEST POP PUSH1 0x40 MLOAD DUP1 PUSH1 0x40 ADD PUSH1 0x40 MSTORE DUP1 PUSH1 0x2 DUP2 MSTORE PUSH1 0x20 ADD PUSH32 0x5858000000000000000000000000000000000000000000000000000000000000 DUP2 MSTORE POP PUSH0 PUSH0 PUSH1 0x14 DUP2 MSTORE PUSH1 0x20 ADD SWAP1 DUP2 MSTORE PUSH1 0x20 ADD PUSH0 KECCAK256 SWAP1 DUP2 PUSH2 0x3AB SWAP2 SWAP1 PUSH2 0xE94 JUMP JUMPDEST POP PUSH1 0x40 MLOAD DUP1 PUSH1 0x40 ADD PUSH1 0x40 MSTORE DUP1 PUSH1 0x3 DUP2 MSTORE PUSH1 0x20 ADD PUSH32 0x5858580000000000000000000000000000000000000000000000000000000000 DUP2 MSTORE POP PUSH0 PUSH0 PUSH1 0x1E DUP2 MSTORE PUSH1 0x20 ADD SWAP1 DUP2 MSTORE PUSH1 0x20 ADD PUSH0 KECCAK256 SWAP1 DUP2 PUSH2 0x3FF SWAP2 SWAP1 PUSH2 0xE94 JUMP JUMPDEST POP PUSH1 0x40 MLOAD DUP1 PUSH1 0x40 ADD PUSH1 0x40 MSTORE DUP1 PUSH1 0x2 DUP2 MSTORE PUSH1 0x20 ADD PUSH32 0x584C000000000000000000000000000000000000000000000000000000000000 DUP2 MSTORE POP PUSH0 PUSH0 PUSH1 0x28 DUP2 MSTORE PUSH1 0x20 ADD SWAP1 DUP2 MSTORE PUSH1 0x20 ADD PUSH0 KECCAK256 SWAP1 DUP2 PUSH2 0x453 SWAP2 SWAP1 PUSH2 0xE94 JUMP JUMPDEST POP PUSH1 0x40 MLOAD DUP1 PUSH1 0x40 ADD PUSH1 0x40 MSTORE DUP1 PUSH1 0x1 DUP2 MSTORE PUSH1 0x20 ADD PUSH32 0x4C00000000000000000000000000000000000000000000000000000000000000 DUP2 MSTORE POP PUSH0 PUSH0 PUSH1 0x32 DUP2 MSTORE PUSH1 0x20 ADD SWAP1 DUP2 MSTORE PUSH1 0x20 ADD PUSH0 KECCAK256 SWAP1 DUP2 PUSH2 0x4A7 SWAP2 SWAP1 PUSH2 0xE94 JUMP JUMPDEST POP PUSH1 0x40 MLOAD DUP1 PUSH1 0x40 ADD PUSH1 0x40 MSTORE DUP1 PUSH1 0x2 DUP2 MSTORE PUSH1 0x20 ADD PUSH32 0x4C58000000000000000000000000000000000000000000000000000000000000 DUP2 MSTORE POP PUSH0 PUSH0 PUSH1 0x3C DUP2 MSTORE PUSH1 0x20 ADD SWAP1 DUP2 MSTORE PUSH1 0x20 ADD PUSH0 KECCAK256 SWAP1 DUP2 PUSH2 0x4FB SWAP2 SWAP1 PUSH2 0xE94 JUMP JUMPDEST POP PUSH1 0x40 MLOAD DUP1 PUSH1 0x40 ADD PUSH1 0x40 MSTORE DUP1 PUSH1 0x3 DUP2 MSTORE PUSH1 0x20 ADD PUSH32 0x4C58580000000000000000000000000000000000000000000000000000000000 DUP2 MSTORE POP PUSH0 PUSH0 PUSH1 0x46 DUP2 MSTORE PUSH1 0x20 ADD SWAP1 DUP2 MSTORE PUSH1 0x20 ADD PUSH0 KECCAK256 SWAP1 DUP2 PUSH2 0x54F SWAP2 SWAP1 PUSH2 0xE94 JUMP JUMPDEST POP PUSH1 0x40 MLOAD DUP1 PUSH1 0x40 ADD PUSH1 0x40 MSTORE DUP1 PUSH1 0x4 DUP2 MSTORE PUSH1 0x20 ADD PUSH32 0x4C58585800000000000000000000000000000000000000000000000000000000 DUP2 MSTORE POP PUSH0 PUSH0 PUSH1 0x50 DUP2 MSTORE PUSH1 0x20 ADD SWAP1 DUP2 MSTORE PUSH1 0x20 ADD PUSH0 KECCAK256 SWAP1 DUP2 PUSH2 0x5A3 SWAP2 SWAP1 PUSH2 0xE94 JUMP JUMPDEST POP PUSH1 0x40 MLOAD DUP1 PUSH1 0x40 ADD PUSH1 0x40 MSTORE DUP1 PUSH1 0x2 DUP2 MSTORE PUSH1 0x20 ADD PUSH32 0x5843000000000000000000000000000000000000000000000000000000000000 DUP2 MSTORE POP PUSH0 PUSH0 PUSH1 0x5A DUP2 MSTORE PUSH1 0x20 ADD SWAP1 DUP2 MSTORE PUSH1 0x20 ADD PUSH0 KECCAK256 SWAP1 DUP2 PUSH2 0x5F7 SWAP2 SWAP1 PUSH2 0xE94 JUMP JUMPDEST POP PUSH1 0x40 MLOAD DUP1 PUSH1 0x40 ADD PUSH1 0x40 MSTORE DUP1 PUSH1 0x1 DUP2 MSTORE PUSH1 0x20 ADD PUSH32 0x4300000000000000000000000000000000000000000000000000000000000000 DUP2 MSTORE POP PUSH0 PUSH0 PUSH1 0x64 DUP2 MSTORE PUSH1 0x20 ADD SWAP1 DUP2 MSTORE PUSH1 0x20 ADD PUSH0 KECCAK256 SWAP1 DUP2 PUSH2 0x64B SWAP2 SWAP1 PUSH2 0xE94 JUMP JUMPDEST POP PUSH1 0x40 MLOAD DUP1 PUSH1 0x40 ADD PUSH1 0x40 MSTORE DUP1 PUSH1 0x2 DUP2 MSTORE PUSH1 0x20 ADD PUSH32 0x4343000000000000000000000000000000000000000000000000000000000000 DUP2 MSTORE POP PUSH0 PUSH0 PUSH1 0xC8 DUP2 MSTORE PUSH1 0x20 ADD SWAP1 DUP2 MSTORE PUSH1 0x20 ADD PUSH0 KECCAK256 SWAP1 DUP2 PUSH2 0x69F SWAP2 SWAP1 PUSH2 0xE94 JUMP JUMPDEST POP PUSH1 0x40 MLOAD DUP1 PUSH1 0x40 ADD PUSH1 0x40 MSTORE DUP1 PUSH1 0x3 DUP2 MSTORE PUSH1 0x20 ADD PUSH32 0x4343430000000000000000000000000000000000000000000000000000000000 DUP2 MSTORE POP PUSH0 PUSH0 PUSH2 0x12C DUP2 MSTORE PUSH1 0x20 ADD SWAP1 DUP2 MSTORE PUSH1 0x20 ADD PUSH0 KECCAK256 SWAP1 DUP2 PUSH2 0x6F4 SWAP2 SWAP1 PUSH2 0xE94 JUMP JUMPDEST POP PUSH1 0x40 MLOAD DUP1 PUSH1 0x40 ADD PUSH1 0x40 MSTORE DUP1 PUSH1 0x2 DUP2 MSTORE PUSH1 0x20 ADD PUSH32 0x4344000000000000000000000000000000000000000000000000000000000000 DUP2 MSTORE POP PUSH0 PUSH0 PUSH2 0x190 DUP2 MSTORE PUSH1 0x20 ADD SWAP1 DUP2 MSTORE PUSH1 0x20 ADD PUSH0 KECCAK256 SWAP1 DUP2 PUSH2 0x749 SWAP2 SWAP1 PUSH2 0xE94 JUMP JUMPDEST POP PUSH1 0x40 MLOAD DUP1 PUSH1 0x40 ADD PUSH1 0x40 MSTORE DUP1 PUSH1 0x1 DUP2 MSTORE PUSH1 0x20 ADD PUSH32 0x4400000000000000000000000000000000000000000000000000000000000000 DUP2 MSTORE POP PUSH0 PUSH0 PUSH2 0x1F4 DUP2 MSTORE PUSH1 0x20 ADD SWAP1 DUP2 MSTORE PUSH1 0x20 ADD PUSH0 KECCAK256 SWAP1 DUP2 PUSH2 0x79E SWAP2 SWAP1 PUSH2 0xE94 JUMP JUMPDEST POP PUSH1 0x40 MLOAD DUP1 PUSH1 0x40 ADD PUSH1 0x40 MSTORE DUP1 PUSH1 0x2 DUP2 MSTORE PUSH1 0x20 ADD PUSH32 0x4443000000000000000000000000000000000000000000000000000000000000 DUP2 MSTORE POP PUSH0 PUSH0 PUSH2 0x258 DUP2 MSTORE PUSH1 0x20 ADD SWAP1 DUP2 MSTORE PUSH1 0x20 ADD PUSH0 KECCAK256 SWAP1 DUP2 PUSH2 0x7F3 SWAP2 SWAP1 PUSH2 0xE94 JUMP JUMPDEST POP PUSH1 0x40 MLOAD DUP1 PUSH1 0x40 ADD PUSH1 0x40 MSTORE DUP1 PUSH1 0x3 DUP2 MSTORE PUSH1 0x20 ADD PUSH32 0x4443430000000000000000000000000000000000000000000000000000000000 DUP2 MSTORE POP PUSH0 PUSH0 PUSH2 0x2BC DUP2 MSTORE PUSH1 0x20 ADD SWAP1 DUP2 MSTORE PUSH1 0x20 ADD PUSH0 KECCAK256 SWAP1 DUP2 PUSH2 0x848 SWAP2 SWAP1 PUSH2 0xE94 JUMP JUMPDEST POP PUSH1 0x40 MLOAD DUP1 PUSH1 0x40 ADD PUSH1 0x40 MSTORE DUP1 PUSH1 0x4 DUP2 MSTORE PUSH1 0x20 ADD PUSH32 0x4443434300000000000000000000000000000000000000000000000000000000 DUP2 MSTORE POP PUSH0 PUSH0 PUSH2 0x320 DUP2 MSTORE PUSH1 0x20 ADD SWAP1 DUP2 MSTORE PUSH1 0x20 ADD PUSH0 KECCAK256 SWAP1 DUP2 PUSH2 0x89D SWAP2 SWAP1 PUSH2 0xE94 JUMP JUMPDEST POP PUSH1 0x40 MLOAD DUP1 PUSH1 0x40 ADD PUSH1 0x40 MSTORE DUP1 PUSH1 0x2 DUP2 MSTORE PUSH1 0x20 ADD PUSH32 0x434D000000000000000000000000000000000000000000000000000000000000 DUP2 MSTORE POP PUSH0 PUSH0 PUSH2 0x384 DUP2 MSTORE PUSH1 0x20 ADD SWAP1 DUP2 MSTORE PUSH1 0x20 ADD PUSH0 KECCAK256 SWAP1 DUP2 PUSH2 0x8F2 SWAP2 SWAP1 PUSH2 0xE94 JUMP JUMPDEST POP PUSH1 0x40 MLOAD DUP1 PUSH1 0x40 ADD PUSH1 0x40 MSTORE DUP1 PUSH1 0x1 DUP2 MSTORE PUSH1 0x20 ADD PUSH32 0x4D00000000000000000000000000000000000000000000000000000000000000 DUP2 MSTORE POP PUSH0 PUSH0 PUSH2 0x3E8 DUP2 MSTORE PUSH1 0x20 ADD SWAP1 DUP2 MSTORE PUSH1 0x20 ADD PUSH0 KECCAK256 SWAP1 DUP2 PUSH2 0x947 SWAP2 SWAP1 PUSH2 0xE94 JUMP JUMPDEST POP PUSH1 0x40 MLOAD DUP1 PUSH1 0x40 ADD PUSH1 0x40 MSTORE DUP1 PUSH1 0x2 DUP2 MSTORE PUSH1 0x20 ADD PUSH32 0x4D4D000000000000000000000000000000000000000000000000000000000000 DUP2 MSTORE POP PUSH0 PUSH0 PUSH2 0x7D0 DUP2 MSTORE PUSH1 0x20 ADD SWAP1 DUP2 MSTORE PUSH1 0x20 ADD PUSH0 KECCAK256 SWAP1 DUP2 PUSH2 0x99C SWAP2 SWAP1 PUSH2 0xE94 JUMP JUMPDEST POP PUSH1 0x40 MLOAD DUP1 PUSH1 0x40 ADD PUSH1 0x40 MSTORE DUP1 PUSH1 0x3 DUP2 MSTORE PUSH1 0x20 ADD PUSH32 0x4D4D4D0000000000000000000000000000000000000000000000000000000000 DUP2 MSTORE POP PUSH0 PUSH0 PUSH2 0xBB8 DUP2 MSTORE PUSH1 0x20 ADD SWAP1 DUP2 MSTORE PUSH1 0x20 ADD PUSH0 KECCAK256 SWAP1 DUP2 PUSH2 0x9F1 SWAP2 SWAP1 PUSH2 0xE94 JUMP JUMPDEST POP PUSH0 PUSH1 0x1 PUSH0 PUSH1 0x30 PUSH1 0xF8 SHL PUSH31 0xFFFFFFFFFFFFFFFFFFFFFFFFFFFFFFFFFFFFFFFFFFFFFFFFFFFFFFFFFFFFFF NOT AND DUP2 MSTORE PUSH1 0x20 ADD SWAP1 DUP2 MSTORE PUSH1 0x20 ADD PUSH0 KECCAK256 DUP2 SWAP1 SSTORE POP PUSH1 0x1 DUP1 PUSH0 PUSH1 0x31 PUSH1 0xF8 SHL PUSH31 0xFFFFFFFFFFFFFFFFFFFFFFFFFFFFFFFFFFFFFFFFFFFFFFFFFFFFFFFFFFFFFF NOT AND DUP2 MSTORE PUSH1 0x20 ADD SWAP1 DUP2 MSTORE PUSH1 0x20 ADD PUSH0 KECCAK256 DUP2 SWAP1 SSTORE POP PUSH1 0x2 PUSH1 0x1 PUSH0 PUSH1 0x32 PUSH1 0xF8 SHL PUSH31 0xFFFFFFFFFFFFFFFFFFFFFFFFFFFFFFFFFFFFFFFFFFFFFFFFFFFFFFFFFFFFFF NOT AND DUP2 MSTORE PUSH1 0x20 ADD SWAP1 DUP2 MSTORE PUSH1 0x20 ADD PUSH0 KECCAK256 DUP2 SWAP1 SSTORE POP PUSH1 0x3 PUSH1 0x1 PUSH0 PUSH1 0x33 PUSH1 0xF8 SHL PUSH31 0xFFFFFFFFFFFFFFFFFFFFFFFFFFFFFFFFFFFFFFFFFFFFFFFFFFFFFFFFFFFFFF NOT AND DUP2 MSTORE PUSH1 0x20 ADD SWAP1 DUP2 MSTORE PUSH1 0x20 ADD PUSH0 KECCAK256 DUP2 SWAP1 SSTORE POP PUSH1 0x4 PUSH1 0x1 PUSH0 PUSH1 0x34 PUSH1 0xF8 SHL PUSH31 0xFFFFFFFFFFFFFFFFFFFFFFFFFFFFFFFFFFFFFFFFFFFFFFFFFFFFFFFFFFFFFF NOT AND DUP2 MSTORE PUSH1 0x20 ADD SWAP1 DUP2 MSTORE PUSH1 0x20 ADD PUSH0 KECCAK256 DUP2 SWAP1 SSTORE POP PUSH1 0x5 PUSH1 0x1 PUSH0 PUSH1 0x35 PUSH1 0xF8 SHL PUSH31 0xFFFFFFFFFFFFFFFFFFFFFFFFFFFFFFFFFFFFFFFFFFFFFFFFFFFFFFFFFFFFFF NOT AND DUP2 MSTORE PUSH1 0x20 ADD SWAP1 DUP2 MSTORE PUSH1 0x20 ADD PUSH0 KECCAK256 DUP2 SWAP1 SSTORE POP PUSH1 0x6 PUSH1 0x1 PUSH0 PUSH1 0x36 PUSH1 0xF8 SHL PUSH31 0xFFFFFFFFFFFFFFFFFFFFFFFFFFFFFFFFFFFFFFFFFFFFFFFFFFFFFFFFFFFFFF NOT AND DUP2 MSTORE PUSH1 0x20 ADD SWAP1 DUP2 MSTORE PUSH1 0x20 ADD PUSH0 KECCAK256 DUP2 SWAP1 SSTORE POP PUSH1 0x7 PUSH1 0x1 PUSH0 PUSH1 0x37 PUSH1 0xF8 SHL PUSH31 0xFFFFFFFFFFFFFFFFFFFFFFFFFFFFFFFFFFFFFFFFFFFFFFFFFFFFFFFFFFFFFF NOT AND DUP2 MSTORE PUSH1 0x20 ADD SWAP1 DUP2 MSTORE PUSH1 0x20 ADD PUSH0 KECCAK256 DUP2 SWAP1 SSTORE POP PUSH1 0x8 PUSH1 0x1 PUSH0 PUSH1 0x38 PUSH1 0xF8 SHL PUSH31 0xFFFFFFFFFFFFFFFFFFFFFFFFFFFFFFFFFFFFFFFFFFFFFFFFFFFFFFFFFFFFFF NOT AND DUP2 MSTORE PUSH1 0x20 ADD SWAP1 DUP2 MSTORE PUSH1 0x20 ADD PUSH0 KECCAK256 DUP2 SWAP1 SSTORE POP PUSH1 0x9 PUSH1 0x1 PUSH0 PUSH1 0x39 PUSH1 0xF8 SHL PUSH31 0xFFFFFFFFFFFFFFFFFFFFFFFFFFFFFFFFFFFFFFFFFFFFFFFFFFFFFFFFFFFFFF NOT AND DUP2 MSTORE PUSH1 0x20 ADD SWAP1 DUP2 MSTORE PUSH1 0x20 ADD PUSH0 KECCAK256 DUP2 SWAP1 SSTORE POP PUSH2 0xF63 JUMP JUMPDEST PUSH0 DUP2 MLOAD SWAP1 POP SWAP2 SWAP1 POP JUMP JUMPDEST PUSH32 0x4E487B7100000000000000000000000000000000000000000000000000000000 PUSH0 MSTORE PUSH1 0x41 PUSH1 0x4 MSTORE PUSH1 0x24 PUSH0 REVERT JUMPDEST PUSH32 0x4E487B7100000000000000000000000000000000000000000000000000000000 PUSH0 MSTORE PUSH1 0x22 PUSH1 0x4 MSTORE PUSH1 0x24 PUSH0 REVERT JUMPDEST PUSH0 PUSH1 0x2 DUP3 DIV SWAP1 POP PUSH1 0x1 DUP3 AND DUP1 PUSH2 0xCD2 JUMPI PUSH1 0x7F DUP3 AND SWAP2 POP JUMPDEST PUSH1 0x20 DUP3 LT DUP2 SUB PUSH2 0xCE5 JUMPI PUSH2 0xCE4 PUSH2 0xC8E JUMP JUMPDEST JUMPDEST POP SWAP2 SWAP1 POP JUMP JUMPDEST PUSH0 DUP2 SWAP1 POP DUP2 PUSH0 MSTORE PUSH1 0x20 PUSH0 KECCAK256 SWAP1 POP SWAP2 SWAP1 POP JUMP JUMPDEST PUSH0 PUSH1 0x20 PUSH1 0x1F DUP4 ADD DIV SWAP1 POP SWAP2 SWAP1 POP JUMP JUMPDEST PUSH0 DUP3 DUP3 SHL SWAP1 POP SWAP3 SWAP2 POP POP JUMP JUMPDEST PUSH0 PUSH1 0x8 DUP4 MUL PUSH2 0xD47 PUSH32 0xFFFFFFFFFFFFFFFFFFFFFFFFFFFFFFFFFFFFFFFFFFFFFFFFFFFFFFFFFFFFFFFF DUP3 PUSH2 0xD0C JUMP JUMPDEST PUSH2 0xD51 DUP7 DUP4 PUSH2 0xD0C JUMP JUMPDEST SWAP6 POP DUP1 NOT DUP5 AND SWAP4 POP DUP1 DUP7 AND DUP5 OR SWAP3 POP POP POP SWAP4 SWAP3 POP POP POP JUMP JUMPDEST PUSH0 DUP2 SWAP1 POP SWAP2 SWAP1 POP JUMP JUMPDEST PUSH0 DUP2 SWAP1 POP SWAP2 SWAP1 POP JUMP JUMPDEST PUSH0 PUSH2 0xD95 PUSH2 0xD90 PUSH2 0xD8B DUP5 PUSH2 0xD69 JUMP JUMPDEST PUSH2 0xD72 JUMP JUMPDEST PUSH2 0xD69 JUMP JUMPDEST SWAP1 POP SWAP2 SWAP1 POP JUMP JUMPDEST PUSH0 DUP2 SWAP1 POP SWAP2 SWAP1 POP JUMP JUMPDEST PUSH2 0xDAE DUP4 PUSH2 0xD7B JUMP JUMPDEST PUSH2 0xDC2 PUSH2 0xDBA DUP3 PUSH2 0xD9C JUMP JUMPDEST DUP5 DUP5 SLOAD PUSH2 0xD18 JUMP JUMPDEST DUP3 SSTORE POP POP POP POP JUMP JUMPDEST PUSH0 PUSH0 SWAP1 POP SWAP1 JUMP JUMPDEST PUSH2 0xDD9 PUSH2 0xDCA JUMP JUMPDEST PUSH2 0xDE4 DUP2 DUP5 DUP5 PUSH2 0xDA5 JUMP JUMPDEST POP POP POP JUMP JUMPDEST JUMPDEST DUP2 DUP2 LT ISZERO PUSH2 0xE07 JUMPI PUSH2 0xDFC PUSH0 DUP3 PUSH2 0xDD1 JUMP JUMPDEST PUSH1 0x1 DUP2 ADD SWAP1 POP PUSH2 0xDEA JUMP JUMPDEST POP POP JUMP JUMPDEST PUSH1 0x1F DUP3 GT ISZERO PUSH2 0xE4C JUMPI PUSH2 0xE1D DUP2 PUSH2 0xCEB JUMP JUMPDEST PUSH2 0xE26 DUP5 PUSH2 0xCFD JUMP JUMPDEST DUP2 ADD PUSH1 0x20 DUP6 LT ISZERO PUSH2 0xE35 JUMPI DUP2 SWAP1 POP JUMPDEST PUSH2 0xE49 PUSH2 0xE41 DUP6 PUSH2 0xCFD JUMP JUMPDEST DUP4 ADD DUP3 PUSH2 0xDE9 JUMP JUMPDEST POP POP JUMPDEST POP POP POP JUMP JUMPDEST PUSH0 DUP3 DUP3 SHR SWAP1 POP SWAP3 SWAP2 POP POP JUMP JUMPDEST PUSH0 PUSH2 0xE6C PUSH0 NOT DUP5 PUSH1 0x8 MUL PUSH2 0xE51 JUMP JUMPDEST NOT DUP1 DUP4 AND SWAP2 POP POP SWAP3 SWAP2 POP POP JUMP JUMPDEST PUSH0 PUSH2 0xE84 DUP4 DUP4 PUSH2 0xE5D JUMP JUMPDEST SWAP2 POP DUP3 PUSH1 0x2 MUL DUP3 OR SWAP1 POP SWAP3 SWAP2 POP POP JUMP JUMPDEST PUSH2 0xE9D DUP3 PUSH2 0xC57 JUMP JUMPDEST PUSH8 0xFFFFFFFFFFFFFFFF DUP2 GT ISZERO PUSH2 0xEB6 JUMPI PUSH2 0xEB5 PUSH2 0xC61 JUMP JUMPDEST JUMPDEST PUSH2 0xEC0 DUP3 SLOAD PUSH2 0xCBB JUMP JUMPDEST PUSH2 0xECB DUP3 DUP3 DUP6 PUSH2 0xE0B JUMP JUMPDEST PUSH0 PUSH1 0x20 SWAP1 POP PUSH1 0x1F DUP4 GT PUSH1 0x1 DUP2 EQ PUSH2 0xEFC JUMPI PUSH0 DUP5 ISZERO PUSH2 0xEEA JUMPI DUP3 DUP8 ADD MLOAD SWAP1 POP JUMPDEST PUSH2 0xEF4 DUP6 DUP3 PUSH2 0xE79 JUMP JUMPDEST DUP7 SSTORE POP PUSH2 0xF5B JUMP JUMPDEST PUSH1 0x1F NOT DUP5 AND PUSH2 0xF0A DUP7 PUSH2 0xCEB JUMP JUMPDEST PUSH0 JUMPDEST DUP3 DUP2 LT ISZERO PUSH2 0xF31 JUMPI DUP5 DUP10 ADD MLOAD DUP3 SSTORE PUSH1 0x1 DUP3 ADD SWAP2 POP PUSH1 0x20 DUP6 ADD SWAP5 POP PUSH1 0x20 DUP2 ADD SWAP1 POP PUSH2 0xF0C JUMP JUMPDEST DUP7 DUP4 LT ISZERO PUSH2 0xF4E JUMPI DUP5 DUP10 ADD MLOAD PUSH2 0xF4A PUSH1 0x1F DUP10 AND DUP3 PUSH2 0xE5D JUMP JUMPDEST DUP4 SSTORE POP JUMPDEST PUSH1 0x1 PUSH1 0x2 DUP9 MUL ADD DUP9 SSTORE POP POP POP JUMPDEST POP POP POP POP POP POP JUMP JUMPDEST PUSH2 0x8B2 DUP1 PUSH2 0xF70 PUSH0 CODECOPY PUSH0 RETURN INVALID PUSH1 0x80 PUSH1 0x40 MSTORE CALLVALUE DUP1 ISZERO PUSH2 0xF JUMPI PUSH0 PUSH0 REVERT JUMPDEST POP PUSH1 0x4 CALLDATASIZE LT PUSH2 0x29 JUMPI PUSH0 CALLDATALOAD PUSH1 0xE0 SHR DUP1 PUSH4 0x75322E47 EQ PUSH2 0x2D JUMPI JUMPDEST PUSH0 PUSH0 REVERT JUMPDEST PUSH2 0x47 PUSH1 0x4 DUP1 CALLDATASIZE SUB DUP2 ADD SWAP1 PUSH2 0x42 SWAP2 SWAP1 PUSH2 0x4BE JUMP JUMPDEST PUSH2 0x5D JUMP JUMPDEST PUSH1 0x40 MLOAD PUSH2 0x54 SWAP2 SWAP1 PUSH2 0x559 JUMP JUMPDEST PUSH1 0x40 MLOAD DUP1 SWAP2 SUB SWAP1 RETURN JUMPDEST PUSH1 0x60 PUSH1 0x1 DUP3 LT ISZERO DUP1 ISZERO PUSH2 0x72 JUMPI POP PUSH2 0xF9F DUP3 GT ISZERO JUMPDEST PUSH2 0xB1 JUMPI PUSH1 0x40 MLOAD PUSH32 0x8C379A000000000000000000000000000000000000000000000000000000000 DUP2 MSTORE PUSH1 0x4 ADD PUSH2 0xA8 SWAP1 PUSH2 0x5C3 JUMP JUMPDEST PUSH1 0x40 MLOAD DUP1 SWAP2 SUB SWAP1 REVERT JUMPDEST PUSH0 PUSH2 0xBB DUP4 PUSH2 0x26C JUMP JUMPDEST SWAP1 POP PUSH0 DUP2 SWAP1 POP PUSH0 DUP2 MLOAD PUSH8 0xFFFFFFFFFFFFFFFF DUP2 GT ISZERO PUSH2 0xDD JUMPI PUSH2 0xDC PUSH2 0x5E1 JUMP JUMPDEST JUMPDEST PUSH1 0x40 MLOAD SWAP1 DUP1 DUP3 MSTORE DUP1 PUSH1 0x20 MUL PUSH1 0x20 ADD DUP3 ADD PUSH1 0x40 MSTORE DUP1 ISZERO PUSH2 0x10B JUMPI DUP2 PUSH1 0x20 ADD PUSH1 0x20 DUP3 MUL DUP1 CALLDATASIZE DUP4 CALLDATACOPY DUP1 DUP3 ADD SWAP2 POP POP SWAP1 POP JUMPDEST POP SWAP1 POP PUSH0 PUSH1 0x1 SWAP1 POP PUSH0 PUSH1 0x1 DUP5 MLOAD PUSH2 0x122 SWAP2 SWAP1 PUSH2 0x63B JUMP JUMPDEST SWAP1 POP JUMPDEST PUSH0 DUP2 LT PUSH2 0x1F3 JUMPI DUP2 PUSH1 0x1 PUSH0 DUP7 DUP5 DUP2 MLOAD DUP2 LT PUSH2 0x143 JUMPI PUSH2 0x142 PUSH2 0x66E JUMP JUMPDEST JUMPDEST PUSH1 0x20 ADD ADD MLOAD PUSH1 0xF8 SHR PUSH1 0xF8 SHL PUSH31 0xFFFFFFFFFFFFFFFFFFFFFFFFFFFFFFFFFFFFFFFFFFFFFFFFFFFFFFFFFFFFFF NOT AND PUSH31 0xFFFFFFFFFFFFFFFFFFFFFFFFFFFFFFFFFFFFFFFFFFFFFFFFFFFFFFFFFFFFFF NOT AND DUP2 MSTORE PUSH1 0x20 ADD SWAP1 DUP2 MSTORE PUSH1 0x20 ADD PUSH0 KECCAK256 SLOAD PUSH2 0x1AA SWAP2 SWAP1 PUSH2 0x69B JUMP JUMPDEST DUP4 DUP3 DUP2 MLOAD DUP2 LT PUSH2 0x1BD JUMPI PUSH2 0x1BC PUSH2 0x66E JUMP JUMPDEST JUMPDEST PUSH1 0x20 MUL PUSH1 0x20 ADD ADD DUP2 DUP2 MSTORE POP POP PUSH1 0xA DUP3 PUSH2 0x1D6 SWAP2 SWAP1 PUSH2 0x69B JUMP JUMPDEST SWAP2 POP PUSH0 DUP2 SUB ISZERO PUSH2 0x1F3 JUMPI DUP1 DUP1 PUSH2 0x1EB SWAP1 PUSH2 0x6DC JUMP JUMPDEST SWAP2 POP POP PUSH2 0x125 JUMP JUMPDEST POP PUSH1 0x60 PUSH0 PUSH0 SWAP1 POP JUMPDEST DUP4 MLOAD DUP2 LT ISZERO PUSH2 0x25E JUMPI DUP2 PUSH0 PUSH0 DUP7 DUP5 DUP2 MLOAD DUP2 LT PUSH2 0x21A JUMPI PUSH2 0x219 PUSH2 0x66E JUMP JUMPDEST JUMPDEST PUSH1 0x20 MUL PUSH1 0x20 ADD ADD MLOAD DUP2 MSTORE PUSH1 0x20 ADD SWAP1 DUP2 MSTORE PUSH1 0x20 ADD PUSH0 KECCAK256 PUSH1 0x40 MLOAD PUSH1 0x20 ADD PUSH2 0x240 SWAP3 SWAP2 SWAP1 PUSH2 0x82C JUMP JUMPDEST PUSH1 0x40 MLOAD PUSH1 0x20 DUP2 DUP4 SUB SUB DUP2 MSTORE SWAP1 PUSH1 0x40 MSTORE SWAP2 POP DUP1 DUP1 PUSH1 0x1 ADD SWAP2 POP POP PUSH2 0x1FB JUMP JUMPDEST POP DUP1 SWAP6 POP POP POP POP POP POP SWAP2 SWAP1 POP JUMP JUMPDEST PUSH1 0x60 PUSH0 PUSH1 0x1 PUSH2 0x27A DUP5 PUSH2 0x336 JUMP JUMPDEST ADD SWAP1 POP PUSH0 DUP2 PUSH8 0xFFFFFFFFFFFFFFFF DUP2 GT ISZERO PUSH2 0x298 JUMPI PUSH2 0x297 PUSH2 0x5E1 JUMP JUMPDEST JUMPDEST PUSH1 0x40 MLOAD SWAP1 DUP1 DUP3 MSTORE DUP1 PUSH1 0x1F ADD PUSH1 0x1F NOT AND PUSH1 0x20 ADD DUP3 ADD PUSH1 0x40 MSTORE DUP1 ISZERO PUSH2 0x2CA JUMPI DUP2 PUSH1 0x20 ADD PUSH1 0x1 DUP3 MUL DUP1 CALLDATASIZE DUP4 CALLDATACOPY DUP1 DUP3 ADD SWAP2 POP POP SWAP1 POP JUMPDEST POP SWAP1 POP PUSH0 DUP3 PUSH1 0x20 DUP4 ADD ADD SWAP1 POP JUMPDEST PUSH1 0x1 ISZERO PUSH2 0x32B JUMPI DUP1 DUP1 PUSH1 0x1 SWAP1 SUB SWAP2 POP POP PUSH32 0x3031323334353637383961626364656600000000000000000000000000000000 PUSH1 0xA DUP7 MOD BYTE DUP2 MSTORE8 PUSH1 0xA DUP6 DUP2 PUSH2 0x320 JUMPI PUSH2 0x31F PUSH2 0x84F JUMP JUMPDEST JUMPDEST DIV SWAP5 POP PUSH0 DUP6 SUB PUSH2 0x2D7 JUMPI JUMPDEST DUP2 SWAP4 POP POP POP POP SWAP2 SWAP1 POP JUMP JUMPDEST PUSH0 PUSH0 PUSH0 SWAP1 POP PUSH27 0x184F03E93FF9F4DAA797ED6E38ED64BF6A1F010000000000000000 DUP4 LT PUSH2 0x392 JUMPI PUSH27 0x184F03E93FF9F4DAA797ED6E38ED64BF6A1F010000000000000000 DUP4 DUP2 PUSH2 0x388 JUMPI PUSH2 0x387 PUSH2 0x84F JUMP JUMPDEST JUMPDEST DIV SWAP3 POP PUSH1 0x40 DUP2 ADD SWAP1 POP JUMPDEST PUSH14 0x4EE2D6D415B85ACEF8100000000 DUP4 LT PUSH2 0x3CF JUMPI PUSH14 0x4EE2D6D415B85ACEF8100000000 DUP4 DUP2 PUSH2 0x3C5 JUMPI PUSH2 0x3C4 PUSH2 0x84F JUMP JUMPDEST JUMPDEST DIV SWAP3 POP PUSH1 0x20 DUP2 ADD SWAP1 POP JUMPDEST PUSH7 0x2386F26FC10000 DUP4 LT PUSH2 0x3FE JUMPI PUSH7 0x2386F26FC10000 DUP4 DUP2 PUSH2 0x3F4 JUMPI PUSH2 0x3F3 PUSH2 0x84F JUMP JUMPDEST JUMPDEST DIV SWAP3 POP PUSH1 0x10 DUP2 ADD SWAP1 POP JUMPDEST PUSH4 0x5F5E100 DUP4 LT PUSH2 0x427 JUMPI PUSH4 0x5F5E100 DUP4 DUP2 PUSH2 0x41D JUMPI PUSH2 0x41C PUSH2 0x84F JUMP JUMPDEST JUMPDEST DIV SWAP3 POP PUSH1 0x8 DUP2 ADD SWAP1 POP JUMPDEST PUSH2 0x2710 DUP4 LT PUSH2 0x44C JUMPI PUSH2 0x2710 DUP4 DUP2 PUSH2 0x442 JUMPI PUSH2 0x441 PUSH2 0x84F JUMP JUMPDEST JUMPDEST DIV SWAP3 POP PUSH1 0x4 DUP2 ADD SWAP1 POP JUMPDEST PUSH1 0x64 DUP4 LT PUSH2 0x46F JUMPI PUSH1 0x64 DUP4 DUP2 PUSH2 0x465 JUMPI PUSH2 0x464 PUSH2 0x84F JUMP JUMPDEST JUMPDEST DIV SWAP3 POP PUSH1 0x2 DUP2 ADD SWAP1 POP JUMPDEST PUSH1 0xA DUP4 LT PUSH2 0x47E JUMPI PUSH1 0x1 DUP2 ADD SWAP1 POP JUMPDEST DUP1 SWAP2 POP POP SWAP2 SWAP1 POP JUMP JUMPDEST PUSH0 PUSH0 REVERT JUMPDEST PUSH0 DUP2 SWAP1 POP SWAP2 SWAP1 POP JUMP JUMPDEST PUSH2 0x49D DUP2 PUSH2 0x48B JUMP JUMPDEST DUP2 EQ PUSH2 0x4A7 JUMPI PUSH0 PUSH0 REVERT JUMPDEST POP JUMP JUMPDEST PUSH0 DUP2 CALLDATALOAD SWAP1 POP PUSH2 0x4B8 DUP2 PUSH2 0x494 JUMP JUMPDEST SWAP3 SWAP2 POP POP JUMP JUMPDEST PUSH0 PUSH1 0x20 DUP3 DUP5 SUB SLT ISZERO PUSH2 0x4D3 JUMPI PUSH2 0x4D2 PUSH2 0x487 JUMP JUMPDEST JUMPDEST PUSH0 PUSH2 0x4E0 DUP5 DUP3 DUP6 ADD PUSH2 0x4AA JUMP JUMPDEST SWAP2 POP POP SWAP3 SWAP2 POP POP JUMP JUMPDEST PUSH0 DUP2 MLOAD SWAP1 POP SWAP2 SWAP1 POP JUMP JUMPDEST PUSH0 DUP3 DUP3 MSTORE PUSH1 0x20 DUP3 ADD SWAP1 POP SWAP3 SWAP2 POP POP JUMP JUMPDEST DUP3 DUP2 DUP4 MCOPY PUSH0 DUP4 DUP4 ADD MSTORE POP POP POP JUMP JUMPDEST PUSH0 PUSH1 0x1F NOT PUSH1 0x1F DUP4 ADD AND SWAP1 POP SWAP2 SWAP1 POP JUMP JUMPDEST PUSH0 PUSH2 0x52B DUP3 PUSH2 0x4E9 JUMP JUMPDEST PUSH2 0x535 DUP2 DUP6 PUSH2 0x4F3 JUMP JUMPDEST SWAP4 POP PUSH2 0x545 DUP2 DUP6 PUSH1 0x20 DUP7 ADD PUSH2 0x503 JUMP JUMPDEST PUSH2 0x54E DUP2 PUSH2 0x511 JUMP JUMPDEST DUP5 ADD SWAP2 POP POP SWAP3 SWAP2 POP POP JUMP JUMPDEST PUSH0 PUSH1 0x20 DUP3 ADD SWAP1 POP DUP2 DUP2 SUB PUSH0 DUP4 ADD MSTORE PUSH2 0x571 DUP2 DUP5 PUSH2 0x521 JUMP JUMPDEST SWAP1 POP SWAP3 SWAP2 POP POP JUMP JUMPDEST PUSH32 0x696E76616C6964206E756D000000000000000000000000000000000000000000 PUSH0 DUP3 ADD MSTORE POP JUMP JUMPDEST PUSH0 PUSH2 0x5AD PUSH1 0xB DUP4 PUSH2 0x4F3 JUMP JUMPDEST SWAP2 POP PUSH2 0x5B8 DUP3 PUSH2 0x579 JUMP JUMPDEST PUSH1 0x20 DUP3 ADD SWAP1 POP SWAP2 SWAP1 POP JUMP JUMPDEST PUSH0 PUSH1 0x20 DUP3 ADD SWAP1 POP DUP2 DUP2 SUB PUSH0 DUP4 ADD MSTORE PUSH2 0x5DA DUP2 PUSH2 0x5A1 JUMP JUMPDEST SWAP1 POP SWAP2 SWAP1 POP JUMP JUMPDEST PUSH32 0x4E487B7100000000000000000000000000000000000000000000000000000000 PUSH0 MSTORE PUSH1 0x41 PUSH1 0x4 MSTORE PUSH1 0x24 PUSH0 REVERT JUMPDEST PUSH32 0x4E487B7100000000000000000000000000000000000000000000000000000000 PUSH0 MSTORE PUSH1 0x11 PUSH1 0x4 MSTORE PUSH1 0x24 PUSH0 REVERT JUMPDEST PUSH0 PUSH2 0x645 DUP3 PUSH2 0x48B JUMP JUMPDEST SWAP2 POP PUSH2 0x650 DUP4 PUSH2 0x48B JUMP JUMPDEST SWAP3 POP DUP3 DUP3 SUB SWAP1 POP DUP2 DUP2 GT ISZERO PUSH2 0x668 JUMPI PUSH2 0x667 PUSH2 0x60E JUMP JUMPDEST JUMPDEST SWAP3 SWAP2 POP POP JUMP JUMPDEST PUSH32 0x4E487B7100000000000000000000000000000000000000000000000000000000 PUSH0 MSTORE PUSH1 0x32 PUSH1 0x4 MSTORE PUSH1 0x24 PUSH0 REVERT JUMPDEST PUSH0 PUSH2 0x6A5 DUP3 PUSH2 0x48B JUMP JUMPDEST SWAP2 POP PUSH2 0x6B0 DUP4 PUSH2 0x48B JUMP JUMPDEST SWAP3 POP DUP3 DUP3 MUL PUSH2 0x6BE DUP2 PUSH2 0x48B JUMP JUMPDEST SWAP2 POP DUP3 DUP3 DIV DUP5 EQ DUP4 ISZERO OR PUSH2 0x6D5 JUMPI PUSH2 0x6D4 PUSH2 0x60E JUMP JUMPDEST JUMPDEST POP SWAP3 SWAP2 POP POP JUMP JUMPDEST PUSH0 PUSH2 0x6E6 DUP3 PUSH2 0x48B JUMP JUMPDEST SWAP2 POP PUSH0 DUP3 SUB PUSH2 0x6F8 JUMPI PUSH2 0x6F7 PUSH2 0x60E JUMP JUMPDEST JUMPDEST PUSH1 0x1 DUP3 SUB SWAP1 POP SWAP2 SWAP1 POP JUMP JUMPDEST PUSH0 DUP2 SWAP1 POP SWAP3 SWAP2 POP POP JUMP JUMPDEST PUSH0 PUSH2 0x717 DUP3 PUSH2 0x4E9 JUMP JUMPDEST PUSH2 0x721 DUP2 DUP6 PUSH2 0x703 JUMP JUMPDEST SWAP4 POP PUSH2 0x731 DUP2 DUP6 PUSH1 0x20 DUP7 ADD PUSH2 0x503 JUMP JUMPDEST DUP1 DUP5 ADD SWAP2 POP POP SWAP3 SWAP2 POP POP JUMP JUMPDEST PUSH32 0x4E487B7100000000000000000000000000000000000000000000000000000000 PUSH0 MSTORE PUSH1 0x22 PUSH1 0x4 MSTORE PUSH1 0x24 PUSH0 REVERT JUMPDEST PUSH0 PUSH1 0x2 DUP3 DIV SWAP1 POP PUSH1 0x1 DUP3 AND DUP1 PUSH2 0x781 JUMPI PUSH1 0x7F DUP3 AND SWAP2 POP JUMPDEST PUSH1 0x20 DUP3 LT DUP2 SUB PUSH2 0x794 JUMPI PUSH2 0x793 PUSH2 0x73D JUMP JUMPDEST JUMPDEST POP SWAP2 SWAP1 POP JUMP JUMPDEST PUSH0 DUP2 SWAP1 POP DUP2 PUSH0 MSTORE PUSH1 0x20 PUSH0 KECCAK256 SWAP1 POP SWAP2 SWAP1 POP JUMP JUMPDEST PUSH0 DUP2 SLOAD PUSH2 0x7B8 DUP2 PUSH2 0x76A JUMP JUMPDEST PUSH2 0x7C2 DUP2 DUP7 PUSH2 0x703 JUMP JUMPDEST SWAP5 POP PUSH1 0x1 DUP3 AND PUSH0 DUP2 EQ PUSH2 0x7DC JUMPI PUSH1 0x1 DUP2 EQ PUSH2 0x7F1 JUMPI PUSH2 0x823 JUMP JUMPDEST PUSH1 0xFF NOT DUP4 AND DUP7 MSTORE DUP2 ISZERO ISZERO DUP3 MUL DUP7 ADD SWAP4 POP PUSH2 0x823 JUMP JUMPDEST PUSH2 0x7FA DUP6 PUSH2 0x79A JUMP JUMPDEST PUSH0 JUMPDEST DUP4 DUP2 LT ISZERO PUSH2 0x81B JUMPI DUP2 SLOAD DUP2 DUP10 ADD MSTORE PUSH1 0x1 DUP3 ADD SWAP2 POP PUSH1 0x20 DUP2 ADD SWAP1 POP PUSH2 0x7FC JUMP JUMPDEST DUP4 DUP9 ADD SWAP6 POP POP POP JUMPDEST POP POP POP SWAP3 SWAP2 POP POP JUMP JUMPDEST PUSH0 PUSH2 0x837 DUP3 DUP6 PUSH2 0x70D JUMP JUMPDEST SWAP2 POP PUSH2 0x843 DUP3 DUP5 PUSH2 0x7AC JUMP JUMPDEST SWAP2 POP DUP2 SWAP1 POP SWAP4 SWAP3 POP POP POP JUMP JUMPDEST PUSH32 0x4E487B7100000000000000000000000000000000000000000000000000000000 PUSH0 MSTORE PUSH1 0x12 PUSH1 0x4 MSTORE PUSH1 0x24 PUSH0 REVERT INVALID LOG2 PUSH5 0x6970667358 0x22 SLT KECCAK256 CALLDATASIZE RETURN DATALOADN 0xE12E 0xD6 MCOPY 0x26 REVERT PUSH6 0x21C0FAE465A1 PUSH20 0x7E0B4DA3C0B3D34AC910F3351CD7EB64736F6C63 NUMBER STOP ADDMOD 0x1E STOP CALLER "
				},
				"gasEstimates": {
					"creation": {
						"codeDepositCost": "445200",
						"executionCost": "infinite",
						"totalCost": "infinite"
					},
					"external": {
						"change(uint256)": "infinite"
					}
				},
				"methodIdentifiers": {
					"change(uint256)": "75322e47"
				}
			},
			"storageLayout": {
				"storage": [
					{
						"astId": 4994,
						"contract": "contracts/task1/IntToRoman.sol:IntToRoman",
						"label": "intToRoman",
						"offset": 0,
						"slot": "0",
						"type": "t_mapping(t_uint256,t_string_storage)"
					},
					{
						"astId": 4998,
						"contract": "contracts/task1/IntToRoman.sol:IntToRoman",
						"label": "bytesToInt",
						"offset": 0,
						"slot": "1",
						"type": "t_mapping(t_bytes1,t_uint256)"
					}
				],
				"types": {
					"t_bytes1": {
						"encoding": "inplace",
						"label": "bytes1",
						"numberOfBytes": "1"
					},
					"t_mapping(t_bytes1,t_uint256)": {
						"encoding": "mapping",
						"key": "t_bytes1",
						"label": "mapping(bytes1 => uint256)",
						"numberOfBytes": "32",
						"value": "t_uint256"
					},
					"t_mapping(t_uint256,t_string_storage)": {
						"encoding": "mapping",
						"key": "t_uint256",
						"label": "mapping(uint256 => string)",
						"numberOfBytes": "32",
						"value": "t_string_storage"
					},
					"t_string_storage": {
						"encoding": "bytes",
						"label": "string",
						"numberOfBytes": "32"
					},
					"t_uint256": {
						"encoding": "inplace",
						"label": "uint256",
						"numberOfBytes": "32"
					}
				}
			},
			"userdoc": {
				"kind": "user",
				"methods": {},
				"notice": "整数转罗马",
				"version": 1
			}
		}
	}
}