{
	"contracts/ContractUpgrade/Upgrade.sol": {
		"Upgrade": {
			"abi": [
				{
					"inputs": [
						{
							"internalType": "address",
							"name": "_implementation",
							"type": "address"
						}
					],
					"stateMutability": "nonpayable",
					"type": "constructor"
				},
				{
					"stateMutability": "payable",
					"type": "fallback"
				},
				{
					"inputs": [],
					"name": "admin",
					"outputs": [
						{
							"internalType": "address",
							"name": "",
							"type": "address"
						}
					],
					"stateMutability": "view",
					"type": "function"
				},
				{
					"inputs": [],
					"name": "implementation",
					"outputs": [
						{
							"internalType": "address",
							"name": "",
							"type": "address"
						}
					],
					"stateMutability": "view",
					"type": "function"
				},
				{
					"inputs": [
						{
							"internalType": "address",
							"name": "newImplementation",
							"type": "address"
						}
					],
					"name": "upgrade",
					"outputs": [],
					"stateMutability": "nonpayable",
					"type": "function"
				},
				{
					"inputs": [],
					"name": "words",
					"outputs": [
						{
							"internalType": "string",
							"name": "",
							"type": "string"
						}
					],
					"stateMutability": "view",
					"type": "function"
				},
				{
					"stateMutability": "payable",
					"type": "receive"
				}
			],
			"devdoc": {
				"kind": "dev",
				"methods": {},
				"version": 1
			},
			"evm": {
				"assembly": "    /* \"contracts/ContractUpgrade/Upgrade.sol\":636:1618  contract Upgrade {... */\n  mstore(0x40, 0x80)\n    /* \"contracts/ContractUpgrade/Upgrade.sol\":902:1018  constructor(address _implementation){... */\n  callvalue\n  dup1\n  iszero\n  tag_1\n  jumpi\n  revert(0x00, 0x00)\ntag_1:\n  pop\n  mload(0x40)\n  sub(codesize, bytecodeSize)\n  dup1\n  bytecodeSize\n  dup4\n  codecopy\n  dup2\n  dup2\n  add\n  0x40\n  mstore\n  dup2\n  add\n  swap1\n  tag_2\n  swap2\n  swap1\n  tag_3\n  jump\t// in\ntag_2:\n    /* \"contracts/ContractUpgrade/Upgrade.sol\":957:967  msg.sender */\n  caller\n    /* \"contracts/ContractUpgrade/Upgrade.sol\":949:954  admin */\n  0x01\n  0x00\n    /* \"contracts/ContractUpgrade/Upgrade.sol\":949:967  admin = msg.sender */\n  0x0100\n  exp\n  dup2\n  sload\n  dup2\n  0xffffffffffffffffffffffffffffffffffffffff\n  mul\n  not\n  and\n  swap1\n  dup4\n  0xffffffffffffffffffffffffffffffffffffffff\n  and\n  mul\n  or\n  swap1\n  sstore\n  pop\n    /* \"contracts/ContractUpgrade/Upgrade.sol\":995:1010  _implementation */\n  dup1\n    /* \"contracts/ContractUpgrade/Upgrade.sol\":978:992  implementation */\n  0x00\n  0x00\n    /* \"contracts/ContractUpgrade/Upgrade.sol\":978:1010  implementation = _implementation */\n  0x0100\n  exp\n  dup2\n  sload\n  dup2\n  0xffffffffffffffffffffffffffffffffffffffff\n  mul\n  not\n  and\n  swap1\n  dup4\n  0xffffffffffffffffffffffffffffffffffffffff\n  and\n  mul\n  or\n  swap1\n  sstore\n  pop\n    /* \"contracts/ContractUpgrade/Upgrade.sol\":902:1018  constructor(address _implementation){... */\n  pop\n    /* \"contracts/ContractUpgrade/Upgrade.sol\":636:1618  contract Upgrade {... */\n  jump(tag_6)\n    /* \"#utility.yul\":88:205   */\ntag_8:\n    /* \"#utility.yul\":197:198   */\n  0x00\n    /* \"#utility.yul\":194:195   */\n  0x00\n    /* \"#utility.yul\":187:199   */\n  revert\n    /* \"#utility.yul\":334:460   */\ntag_10:\n    /* \"#utility.yul\":371:378   */\n  0x00\n    /* \"#utility.yul\":411:453   */\n  0xffffffffffffffffffffffffffffffffffffffff\n    /* \"#utility.yul\":404:409   */\n  dup3\n    /* \"#utility.yul\":400:454   */\n  and\n    /* \"#utility.yul\":389:454   */\n  swap1\n  pop\n    /* \"#utility.yul\":334:460   */\n  swap2\n  swap1\n  pop\n  jump\t// out\n    /* \"#utility.yul\":466:562   */\ntag_11:\n    /* \"#utility.yul\":503:510   */\n  0x00\n    /* \"#utility.yul\":532:556   */\n  tag_20\n    /* \"#utility.yul\":550:555   */\n  dup3\n    /* \"#utility.yul\":532:556   */\n  tag_10\n  jump\t// in\ntag_20:\n    /* \"#utility.yul\":521:556   */\n  swap1\n  pop\n    /* \"#utility.yul\":466:562   */\n  swap2\n  swap1\n  pop\n  jump\t// out\n    /* \"#utility.yul\":568:690   */\ntag_12:\n    /* \"#utility.yul\":641:665   */\n  tag_22\n    /* \"#utility.yul\":659:664   */\n  dup2\n    /* \"#utility.yul\":641:665   */\n  tag_11\n  jump\t// in\ntag_22:\n    /* \"#utility.yul\":634:639   */\n  dup2\n    /* \"#utility.yul\":631:666   */\n  eq\n    /* \"#utility.yul\":621:684   */\n  tag_23\n  jumpi\n    /* \"#utility.yul\":680:681   */\n  0x00\n    /* \"#utility.yul\":677:678   */\n  0x00\n    /* \"#utility.yul\":670:682   */\n  revert\n    /* \"#utility.yul\":621:684   */\ntag_23:\n    /* \"#utility.yul\":568:690   */\n  pop\n  jump\t// out\n    /* \"#utility.yul\":696:839   */\ntag_13:\n    /* \"#utility.yul\":753:758   */\n  0x00\n    /* \"#utility.yul\":784:790   */\n  dup2\n    /* \"#utility.yul\":778:791   */\n  mload\n    /* \"#utility.yul\":769:791   */\n  swap1\n  pop\n    /* \"#utility.yul\":800:833   */\n  tag_25\n    /* \"#utility.yul\":827:832   */\n  dup2\n    /* \"#utility.yul\":800:833   */\n  tag_12\n  jump\t// in\ntag_25:\n    /* \"#utility.yul\":696:839   */\n  swap3\n  swap2\n  pop\n  pop\n  jump\t// out\n    /* \"#utility.yul\":845:1196   */\ntag_3:\n    /* \"#utility.yul\":915:921   */\n  0x00\n    /* \"#utility.yul\":964:966   */\n  0x20\n    /* \"#utility.yul\":952:961   */\n  dup3\n    /* \"#utility.yul\":943:950   */\n  dup5\n    /* \"#utility.yul\":939:962   */\n  sub\n    /* \"#utility.yul\":935:967   */\n  slt\n    /* \"#utility.yul\":932:1051   */\n  iszero\n  tag_27\n  jumpi\n    /* \"#utility.yul\":970:1049   */\n  tag_28\n  tag_8\n  jump\t// in\ntag_28:\n    /* \"#utility.yul\":932:1051   */\ntag_27:\n    /* \"#utility.yul\":1090:1091   */\n  0x00\n    /* \"#utility.yul\":1115:1179   */\n  tag_29\n    /* \"#utility.yul\":1171:1178   */\n  dup5\n    /* \"#utility.yul\":1162:1168   */\n  dup3\n    /* \"#utility.yul\":1151:1160   */\n  dup6\n    /* \"#utility.yul\":1147:1169   */\n  add\n    /* \"#utility.yul\":1115:1179   */\n  tag_13\n  jump\t// in\ntag_29:\n    /* \"#utility.yul\":1105:1179   */\n  swap2\n  pop\n    /* \"#utility.yul\":1061:1189   */\n  pop\n    /* \"#utility.yul\":845:1196   */\n  swap3\n  swap2\n  pop\n  pop\n  jump\t// out\n    /* \"contracts/ContractUpgrade/Upgrade.sol\":636:1618  contract Upgrade {... */\ntag_6:\n  dataSize(sub_0)\n  dup1\n  dataOffset(sub_0)\n  0x00\n  codecopy\n  0x00\n  return\nstop\n\nsub_0: assembly {\n        /* \"contracts/ContractUpgrade/Upgrade.sol\":636:1618  contract Upgrade {... */\n      mstore(0x40, 0x80)\n      jumpi(tag_1, lt(calldatasize, 0x04))\n      shr(0xe0, calldataload(0x00))\n      dup1\n      0x0900f010\n      eq\n      tag_3\n      jumpi\n      dup1\n      0x5c60da1b\n      eq\n      tag_4\n      jumpi\n      dup1\n      0xf2c31bd9\n      eq\n      tag_5\n      jumpi\n      dup1\n      0xf851a440\n      eq\n      tag_6\n      jumpi\n      jump(tag_2)\n    tag_1:\n      jumpi(tag_2, calldatasize)\n      stop\n    tag_2:\n        /* \"contracts/ContractUpgrade/Upgrade.sol\":1249:1254  admin */\n      0x01\n      0x00\n      swap1\n      sload\n      swap1\n      0x0100\n      exp\n      swap1\n      div\n      0xffffffffffffffffffffffffffffffffffffffff\n      and\n        /* \"contracts/ContractUpgrade/Upgrade.sol\":1235:1254  msg.sender != admin */\n      0xffffffffffffffffffffffffffffffffffffffff\n      and\n        /* \"contracts/ContractUpgrade/Upgrade.sol\":1235:1245  msg.sender */\n      caller\n        /* \"contracts/ContractUpgrade/Upgrade.sol\":1235:1254  msg.sender != admin */\n      0xffffffffffffffffffffffffffffffffffffffff\n      and\n      sub\n        /* \"contracts/ContractUpgrade/Upgrade.sol\":1227:1286  require(msg.sender != admin, \"caller not allowed of admin\") */\n      tag_11\n      jumpi\n      mload(0x40)\n      0x08c379a000000000000000000000000000000000000000000000000000000000\n      dup2\n      mstore\n      0x04\n      add\n      tag_12\n      swap1\n      tag_13\n      jump\t// in\n    tag_12:\n      mload(0x40)\n      dup1\n      swap2\n      sub\n      swap1\n      revert\n    tag_11:\n        /* \"contracts/ContractUpgrade/Upgrade.sol\":1298:1310  bool success */\n      0x00\n        /* \"contracts/ContractUpgrade/Upgrade.sol\":1312:1329  bytes memory data */\n      0x00\n        /* \"contracts/ContractUpgrade/Upgrade.sol\":1333:1347  implementation */\n      0x00\n      0x00\n      swap1\n      sload\n      swap1\n      0x0100\n      exp\n      swap1\n      div\n      0xffffffffffffffffffffffffffffffffffffffff\n      and\n        /* \"contracts/ContractUpgrade/Upgrade.sol\":1333:1360  implementation.delegatecall */\n      0xffffffffffffffffffffffffffffffffffffffff\n      and\n        /* \"contracts/ContractUpgrade/Upgrade.sol\":1361:1369  msg.data */\n      0x00\n      calldatasize\n        /* \"contracts/ContractUpgrade/Upgrade.sol\":1333:1370  implementation.delegatecall(msg.data) */\n      mload(0x40)\n      tag_14\n      swap3\n      swap2\n      swap1\n      tag_15\n      jump\t// in\n    tag_14:\n      0x00\n      mload(0x40)\n      dup1\n      dup4\n      sub\n      dup2\n      dup6\n      gas\n      delegatecall\n      swap2\n      pop\n      pop\n      returndatasize\n      dup1\n      0x00\n      dup2\n      eq\n      tag_18\n      jumpi\n      mload(0x40)\n      swap2\n      pop\n      and(add(returndatasize, 0x3f), not(0x1f))\n      dup3\n      add\n      0x40\n      mstore\n      returndatasize\n      dup3\n      mstore\n      returndatasize\n      0x00\n      0x20\n      dup5\n      add\n      returndatacopy\n      jump(tag_17)\n    tag_18:\n      0x60\n      swap2\n      pop\n    tag_17:\n      stop\n        /* \"contracts/ContractUpgrade/Upgrade.sol\":1457:1615  function upgrade(address newImplementation) external {... */\n    tag_3:\n      callvalue\n      dup1\n      iszero\n      tag_19\n      jumpi\n      revert(0x00, 0x00)\n    tag_19:\n      pop\n      tag_20\n      0x04\n      dup1\n      calldatasize\n      sub\n      dup2\n      add\n      swap1\n      tag_21\n      swap2\n      swap1\n      tag_22\n      jump\t// in\n    tag_21:\n      tag_23\n      jump\t// in\n    tag_20:\n      stop\n        /* \"contracts/ContractUpgrade/Upgrade.sol\":660:689  address public implementation */\n    tag_4:\n      callvalue\n      dup1\n      iszero\n      tag_24\n      jumpi\n      revert(0x00, 0x00)\n    tag_24:\n      pop\n      tag_25\n      tag_26\n      jump\t// in\n    tag_25:\n      mload(0x40)\n      tag_27\n      swap2\n      swap1\n      tag_28\n      jump\t// in\n    tag_27:\n      mload(0x40)\n      dup1\n      swap2\n      sub\n      swap1\n      return\n        /* \"contracts/ContractUpgrade/Upgrade.sol\":760:779  string public words */\n    tag_5:\n      callvalue\n      dup1\n      iszero\n      tag_29\n      jumpi\n      revert(0x00, 0x00)\n    tag_29:\n      pop\n      tag_30\n      tag_31\n      jump\t// in\n    tag_30:\n      mload(0x40)\n      tag_32\n      swap2\n      swap1\n      tag_33\n      jump\t// in\n    tag_32:\n      mload(0x40)\n      dup1\n      swap2\n      sub\n      swap1\n      return\n        /* \"contracts/ContractUpgrade/Upgrade.sol\":718:738  address public admin */\n    tag_6:\n      callvalue\n      dup1\n      iszero\n      tag_34\n      jumpi\n      revert(0x00, 0x00)\n    tag_34:\n      pop\n      tag_35\n      tag_36\n      jump\t// in\n    tag_35:\n      mload(0x40)\n      tag_37\n      swap2\n      swap1\n      tag_28\n      jump\t// in\n    tag_37:\n      mload(0x40)\n      dup1\n      swap2\n      sub\n      swap1\n      return\n        /* \"contracts/ContractUpgrade/Upgrade.sol\":1457:1615  function upgrade(address newImplementation) external {... */\n    tag_23:\n        /* \"contracts/ContractUpgrade/Upgrade.sol\":1543:1548  admin */\n      0x01\n      0x00\n      swap1\n      sload\n      swap1\n      0x0100\n      exp\n      swap1\n      div\n      0xffffffffffffffffffffffffffffffffffffffff\n      and\n        /* \"contracts/ContractUpgrade/Upgrade.sol\":1529:1548  msg.sender == admin */\n      0xffffffffffffffffffffffffffffffffffffffff\n      and\n        /* \"contracts/ContractUpgrade/Upgrade.sol\":1529:1539  msg.sender */\n      caller\n        /* \"contracts/ContractUpgrade/Upgrade.sol\":1529:1548  msg.sender == admin */\n      0xffffffffffffffffffffffffffffffffffffffff\n      and\n      eq\n        /* \"contracts/ContractUpgrade/Upgrade.sol\":1521:1562  require(msg.sender == admin, \"not admin\") */\n      tag_39\n      jumpi\n      mload(0x40)\n      0x08c379a000000000000000000000000000000000000000000000000000000000\n      dup2\n      mstore\n      0x04\n      add\n      tag_40\n      swap1\n      tag_41\n      jump\t// in\n    tag_40:\n      mload(0x40)\n      dup1\n      swap2\n      sub\n      swap1\n      revert\n    tag_39:\n        /* \"contracts/ContractUpgrade/Upgrade.sol\":1590:1607  newImplementation */\n      dup1\n        /* \"contracts/ContractUpgrade/Upgrade.sol\":1573:1587  implementation */\n      0x00\n      0x00\n        /* \"contracts/ContractUpgrade/Upgrade.sol\":1573:1607  implementation = newImplementation */\n      0x0100\n      exp\n      dup2\n      sload\n      dup2\n      0xffffffffffffffffffffffffffffffffffffffff\n      mul\n      not\n      and\n      swap1\n      dup4\n      0xffffffffffffffffffffffffffffffffffffffff\n      and\n      mul\n      or\n      swap1\n      sstore\n      pop\n        /* \"contracts/ContractUpgrade/Upgrade.sol\":1457:1615  function upgrade(address newImplementation) external {... */\n      pop\n      jump\t// out\n        /* \"contracts/ContractUpgrade/Upgrade.sol\":660:689  address public implementation */\n    tag_26:\n      0x00\n      0x00\n      swap1\n      sload\n      swap1\n      0x0100\n      exp\n      swap1\n      div\n      0xffffffffffffffffffffffffffffffffffffffff\n      and\n      dup2\n      jump\t// out\n        /* \"contracts/ContractUpgrade/Upgrade.sol\":760:779  string public words */\n    tag_31:\n      0x02\n      dup1\n      sload\n      tag_42\n      swap1\n      tag_43\n      jump\t// in\n    tag_42:\n      dup1\n      0x1f\n      add\n      0x20\n      dup1\n      swap2\n      div\n      mul\n      0x20\n      add\n      mload(0x40)\n      swap1\n      dup2\n      add\n      0x40\n      mstore\n      dup1\n      swap3\n      swap2\n      swap1\n      dup2\n      dup2\n      mstore\n      0x20\n      add\n      dup3\n      dup1\n      sload\n      tag_44\n      swap1\n      tag_43\n      jump\t// in\n    tag_44:\n      dup1\n      iszero\n      tag_45\n      jumpi\n      dup1\n      0x1f\n      lt\n      tag_46\n      jumpi\n      0x0100\n      dup1\n      dup4\n      sload\n      div\n      mul\n      dup4\n      mstore\n      swap2\n      0x20\n      add\n      swap2\n      jump(tag_45)\n    tag_46:\n      dup3\n      add\n      swap2\n      swap1\n      0x00\n      mstore\n      keccak256(0x00, 0x20)\n      swap1\n    tag_47:\n      dup2\n      sload\n      dup2\n      mstore\n      swap1\n      0x01\n      add\n      swap1\n      0x20\n      add\n      dup1\n      dup4\n      gt\n      tag_47\n      jumpi\n      dup3\n      swap1\n      sub\n      0x1f\n      and\n      dup3\n      add\n      swap2\n    tag_45:\n      pop\n      pop\n      pop\n      pop\n      pop\n      dup2\n      jump\t// out\n        /* \"contracts/ContractUpgrade/Upgrade.sol\":718:738  address public admin */\n    tag_36:\n      0x01\n      0x00\n      swap1\n      sload\n      swap1\n      0x0100\n      exp\n      swap1\n      div\n      0xffffffffffffffffffffffffffffffffffffffff\n      and\n      dup2\n      jump\t// out\n        /* \"#utility.yul\":7:176   */\n    tag_48:\n        /* \"#utility.yul\":91:102   */\n      0x00\n        /* \"#utility.yul\":125:131   */\n      dup3\n        /* \"#utility.yul\":120:123   */\n      dup3\n        /* \"#utility.yul\":113:132   */\n      mstore\n        /* \"#utility.yul\":165:169   */\n      0x20\n        /* \"#utility.yul\":160:163   */\n      dup3\n        /* \"#utility.yul\":156:170   */\n      add\n        /* \"#utility.yul\":141:170   */\n      swap1\n      pop\n        /* \"#utility.yul\":7:176   */\n      swap3\n      swap2\n      pop\n      pop\n      jump\t// out\n        /* \"#utility.yul\":182:359   */\n    tag_49:\n        /* \"#utility.yul\":322:351   */\n      0x63616c6c6572206e6f7420616c6c6f776564206f662061646d696e0000000000\n        /* \"#utility.yul\":318:319   */\n      0x00\n        /* \"#utility.yul\":310:316   */\n      dup3\n        /* \"#utility.yul\":306:320   */\n      add\n        /* \"#utility.yul\":299:352   */\n      mstore\n        /* \"#utility.yul\":182:359   */\n      pop\n      jump\t// out\n        /* \"#utility.yul\":365:731   */\n    tag_50:\n        /* \"#utility.yul\":507:510   */\n      0x00\n        /* \"#utility.yul\":528:595   */\n      tag_73\n        /* \"#utility.yul\":592:594   */\n      0x1b\n        /* \"#utility.yul\":587:590   */\n      dup4\n        /* \"#utility.yul\":528:595   */\n      tag_48\n      jump\t// in\n    tag_73:\n        /* \"#utility.yul\":521:595   */\n      swap2\n      pop\n        /* \"#utility.yul\":604:697   */\n      tag_74\n        /* \"#utility.yul\":693:696   */\n      dup3\n        /* \"#utility.yul\":604:697   */\n      tag_49\n      jump\t// in\n    tag_74:\n        /* \"#utility.yul\":722:724   */\n      0x20\n        /* \"#utility.yul\":717:720   */\n      dup3\n        /* \"#utility.yul\":713:725   */\n      add\n        /* \"#utility.yul\":706:725   */\n      swap1\n      pop\n        /* \"#utility.yul\":365:731   */\n      swap2\n      swap1\n      pop\n      jump\t// out\n        /* \"#utility.yul\":737:1156   */\n    tag_13:\n        /* \"#utility.yul\":903:907   */\n      0x00\n        /* \"#utility.yul\":941:943   */\n      0x20\n        /* \"#utility.yul\":930:939   */\n      dup3\n        /* \"#utility.yul\":926:944   */\n      add\n        /* \"#utility.yul\":918:944   */\n      swap1\n      pop\n        /* \"#utility.yul\":990:999   */\n      dup2\n        /* \"#utility.yul\":984:988   */\n      dup2\n        /* \"#utility.yul\":980:1000   */\n      sub\n        /* \"#utility.yul\":976:977   */\n      0x00\n        /* \"#utility.yul\":965:974   */\n      dup4\n        /* \"#utility.yul\":961:978   */\n      add\n        /* \"#utility.yul\":954:1001   */\n      mstore\n        /* \"#utility.yul\":1018:1149   */\n      tag_76\n        /* \"#utility.yul\":1144:1148   */\n      dup2\n        /* \"#utility.yul\":1018:1149   */\n      tag_50\n      jump\t// in\n    tag_76:\n        /* \"#utility.yul\":1010:1149   */\n      swap1\n      pop\n        /* \"#utility.yul\":737:1156   */\n      swap2\n      swap1\n      pop\n      jump\t// out\n        /* \"#utility.yul\":1162:1309   */\n    tag_51:\n        /* \"#utility.yul\":1263:1274   */\n      0x00\n        /* \"#utility.yul\":1300:1303   */\n      dup2\n        /* \"#utility.yul\":1285:1303   */\n      swap1\n      pop\n        /* \"#utility.yul\":1162:1309   */\n      swap3\n      swap2\n      pop\n      pop\n      jump\t// out\n        /* \"#utility.yul\":1315:1463   */\n    tag_52:\n        /* \"#utility.yul\":1413:1419   */\n      dup3\n        /* \"#utility.yul\":1408:1411   */\n      dup2\n        /* \"#utility.yul\":1403:1406   */\n      dup4\n        /* \"#utility.yul\":1390:1420   */\n      calldatacopy\n        /* \"#utility.yul\":1454:1455   */\n      0x00\n        /* \"#utility.yul\":1445:1451   */\n      dup4\n        /* \"#utility.yul\":1440:1443   */\n      dup4\n        /* \"#utility.yul\":1436:1452   */\n      add\n        /* \"#utility.yul\":1429:1456   */\n      mstore\n        /* \"#utility.yul\":1315:1463   */\n      pop\n      pop\n      pop\n      jump\t// out\n        /* \"#utility.yul\":1491:1818   */\n    tag_53:\n        /* \"#utility.yul\":1605:1608   */\n      0x00\n        /* \"#utility.yul\":1626:1714   */\n      tag_80\n        /* \"#utility.yul\":1707:1713   */\n      dup4\n        /* \"#utility.yul\":1702:1705   */\n      dup6\n        /* \"#utility.yul\":1626:1714   */\n      tag_51\n      jump\t// in\n    tag_80:\n        /* \"#utility.yul\":1619:1714   */\n      swap4\n      pop\n        /* \"#utility.yul\":1724:1780   */\n      tag_81\n        /* \"#utility.yul\":1773:1779   */\n      dup4\n        /* \"#utility.yul\":1768:1771   */\n      dup6\n        /* \"#utility.yul\":1761:1766   */\n      dup5\n        /* \"#utility.yul\":1724:1780   */\n      tag_52\n      jump\t// in\n    tag_81:\n        /* \"#utility.yul\":1805:1811   */\n      dup3\n        /* \"#utility.yul\":1800:1803   */\n      dup5\n        /* \"#utility.yul\":1796:1812   */\n      add\n        /* \"#utility.yul\":1789:1812   */\n      swap1\n      pop\n        /* \"#utility.yul\":1491:1818   */\n      swap4\n      swap3\n      pop\n      pop\n      pop\n      jump\t// out\n        /* \"#utility.yul\":1824:2115   */\n    tag_15:\n        /* \"#utility.yul\":1964:1967   */\n      0x00\n        /* \"#utility.yul\":1986:2089   */\n      tag_83\n        /* \"#utility.yul\":2085:2088   */\n      dup3\n        /* \"#utility.yul\":2076:2082   */\n      dup5\n        /* \"#utility.yul\":2068:2074   */\n      dup7\n        /* \"#utility.yul\":1986:2089   */\n      tag_53\n      jump\t// in\n    tag_83:\n        /* \"#utility.yul\":1979:2089   */\n      swap2\n      pop\n        /* \"#utility.yul\":2106:2109   */\n      dup2\n        /* \"#utility.yul\":2099:2109   */\n      swap1\n      pop\n        /* \"#utility.yul\":1824:2115   */\n      swap4\n      swap3\n      pop\n      pop\n      pop\n      jump\t// out\n        /* \"#utility.yul\":2202:2319   */\n    tag_55:\n        /* \"#utility.yul\":2311:2312   */\n      0x00\n        /* \"#utility.yul\":2308:2309   */\n      0x00\n        /* \"#utility.yul\":2301:2313   */\n      revert\n        /* \"#utility.yul\":2448:2574   */\n    tag_57:\n        /* \"#utility.yul\":2485:2492   */\n      0x00\n        /* \"#utility.yul\":2525:2567   */\n      0xffffffffffffffffffffffffffffffffffffffff\n        /* \"#utility.yul\":2518:2523   */\n      dup3\n        /* \"#utility.yul\":2514:2568   */\n      and\n        /* \"#utility.yul\":2503:2568   */\n      swap1\n      pop\n        /* \"#utility.yul\":2448:2574   */\n      swap2\n      swap1\n      pop\n      jump\t// out\n        /* \"#utility.yul\":2580:2676   */\n    tag_58:\n        /* \"#utility.yul\":2617:2624   */\n      0x00\n        /* \"#utility.yul\":2646:2670   */\n      tag_89\n        /* \"#utility.yul\":2664:2669   */\n      dup3\n        /* \"#utility.yul\":2646:2670   */\n      tag_57\n      jump\t// in\n    tag_89:\n        /* \"#utility.yul\":2635:2670   */\n      swap1\n      pop\n        /* \"#utility.yul\":2580:2676   */\n      swap2\n      swap1\n      pop\n      jump\t// out\n        /* \"#utility.yul\":2682:2804   */\n    tag_59:\n        /* \"#utility.yul\":2755:2779   */\n      tag_91\n        /* \"#utility.yul\":2773:2778   */\n      dup2\n        /* \"#utility.yul\":2755:2779   */\n      tag_58\n      jump\t// in\n    tag_91:\n        /* \"#utility.yul\":2748:2753   */\n      dup2\n        /* \"#utility.yul\":2745:2780   */\n      eq\n        /* \"#utility.yul\":2735:2798   */\n      tag_92\n      jumpi\n        /* \"#utility.yul\":2794:2795   */\n      0x00\n        /* \"#utility.yul\":2791:2792   */\n      0x00\n        /* \"#utility.yul\":2784:2796   */\n      revert\n        /* \"#utility.yul\":2735:2798   */\n    tag_92:\n        /* \"#utility.yul\":2682:2804   */\n      pop\n      jump\t// out\n        /* \"#utility.yul\":2810:2949   */\n    tag_60:\n        /* \"#utility.yul\":2856:2861   */\n      0x00\n        /* \"#utility.yul\":2894:2900   */\n      dup2\n        /* \"#utility.yul\":2881:2901   */\n      calldataload\n        /* \"#utility.yul\":2872:2901   */\n      swap1\n      pop\n        /* \"#utility.yul\":2910:2943   */\n      tag_94\n        /* \"#utility.yul\":2937:2942   */\n      dup2\n        /* \"#utility.yul\":2910:2943   */\n      tag_59\n      jump\t// in\n    tag_94:\n        /* \"#utility.yul\":2810:2949   */\n      swap3\n      swap2\n      pop\n      pop\n      jump\t// out\n        /* \"#utility.yul\":2955:3284   */\n    tag_22:\n        /* \"#utility.yul\":3014:3020   */\n      0x00\n        /* \"#utility.yul\":3063:3065   */\n      0x20\n        /* \"#utility.yul\":3051:3060   */\n      dup3\n        /* \"#utility.yul\":3042:3049   */\n      dup5\n        /* \"#utility.yul\":3038:3061   */\n      sub\n        /* \"#utility.yul\":3034:3066   */\n      slt\n        /* \"#utility.yul\":3031:3150   */\n      iszero\n      tag_96\n      jumpi\n        /* \"#utility.yul\":3069:3148   */\n      tag_97\n      tag_55\n      jump\t// in\n    tag_97:\n        /* \"#utility.yul\":3031:3150   */\n    tag_96:\n        /* \"#utility.yul\":3189:3190   */\n      0x00\n        /* \"#utility.yul\":3214:3267   */\n      tag_98\n        /* \"#utility.yul\":3259:3266   */\n      dup5\n        /* \"#utility.yul\":3250:3256   */\n      dup3\n        /* \"#utility.yul\":3239:3248   */\n      dup6\n        /* \"#utility.yul\":3235:3257   */\n      add\n        /* \"#utility.yul\":3214:3267   */\n      tag_60\n      jump\t// in\n    tag_98:\n        /* \"#utility.yul\":3204:3267   */\n      swap2\n      pop\n        /* \"#utility.yul\":3160:3277   */\n      pop\n        /* \"#utility.yul\":2955:3284   */\n      swap3\n      swap2\n      pop\n      pop\n      jump\t// out\n        /* \"#utility.yul\":3290:3408   */\n    tag_61:\n        /* \"#utility.yul\":3377:3401   */\n      tag_100\n        /* \"#utility.yul\":3395:3400   */\n      dup2\n        /* \"#utility.yul\":3377:3401   */\n      tag_58\n      jump\t// in\n    tag_100:\n        /* \"#utility.yul\":3372:3375   */\n      dup3\n        /* \"#utility.yul\":3365:3402   */\n      mstore\n        /* \"#utility.yul\":3290:3408   */\n      pop\n      pop\n      jump\t// out\n        /* \"#utility.yul\":3414:3636   */\n    tag_28:\n        /* \"#utility.yul\":3507:3511   */\n      0x00\n        /* \"#utility.yul\":3545:3547   */\n      0x20\n        /* \"#utility.yul\":3534:3543   */\n      dup3\n        /* \"#utility.yul\":3530:3548   */\n      add\n        /* \"#utility.yul\":3522:3548   */\n      swap1\n      pop\n        /* \"#utility.yul\":3558:3629   */\n      tag_102\n        /* \"#utility.yul\":3626:3627   */\n      0x00\n        /* \"#utility.yul\":3615:3624   */\n      dup4\n        /* \"#utility.yul\":3611:3628   */\n      add\n        /* \"#utility.yul\":3602:3608   */\n      dup5\n        /* \"#utility.yul\":3558:3629   */\n      tag_61\n      jump\t// in\n    tag_102:\n        /* \"#utility.yul\":3414:3636   */\n      swap3\n      swap2\n      pop\n      pop\n      jump\t// out\n        /* \"#utility.yul\":3642:3741   */\n    tag_62:\n        /* \"#utility.yul\":3694:3700   */\n      0x00\n        /* \"#utility.yul\":3728:3733   */\n      dup2\n        /* \"#utility.yul\":3722:3734   */\n      mload\n        /* \"#utility.yul\":3712:3734   */\n      swap1\n      pop\n        /* \"#utility.yul\":3642:3741   */\n      swap2\n      swap1\n      pop\n      jump\t// out\n        /* \"#utility.yul\":3747:3886   */\n    tag_63:\n        /* \"#utility.yul\":3836:3842   */\n      dup3\n        /* \"#utility.yul\":3831:3834   */\n      dup2\n        /* \"#utility.yul\":3826:3829   */\n      dup4\n        /* \"#utility.yul\":3820:3843   */\n      mcopy\n        /* \"#utility.yul\":3877:3878   */\n      0x00\n        /* \"#utility.yul\":3868:3874   */\n      dup4\n        /* \"#utility.yul\":3863:3866   */\n      dup4\n        /* \"#utility.yul\":3859:3875   */\n      add\n        /* \"#utility.yul\":3852:3879   */\n      mstore\n        /* \"#utility.yul\":3747:3886   */\n      pop\n      pop\n      pop\n      jump\t// out\n        /* \"#utility.yul\":3892:3994   */\n    tag_64:\n        /* \"#utility.yul\":3933:3939   */\n      0x00\n        /* \"#utility.yul\":3984:3986   */\n      0x1f\n        /* \"#utility.yul\":3980:3987   */\n      not\n        /* \"#utility.yul\":3975:3977   */\n      0x1f\n        /* \"#utility.yul\":3968:3973   */\n      dup4\n        /* \"#utility.yul\":3964:3978   */\n      add\n        /* \"#utility.yul\":3960:3988   */\n      and\n        /* \"#utility.yul\":3950:3988   */\n      swap1\n      pop\n        /* \"#utility.yul\":3892:3994   */\n      swap2\n      swap1\n      pop\n      jump\t// out\n        /* \"#utility.yul\":4000:4377   */\n    tag_65:\n        /* \"#utility.yul\":4088:4091   */\n      0x00\n        /* \"#utility.yul\":4116:4155   */\n      tag_107\n        /* \"#utility.yul\":4149:4154   */\n      dup3\n        /* \"#utility.yul\":4116:4155   */\n      tag_62\n      jump\t// in\n    tag_107:\n        /* \"#utility.yul\":4171:4242   */\n      tag_108\n        /* \"#utility.yul\":4235:4241   */\n      dup2\n        /* \"#utility.yul\":4230:4233   */\n      dup6\n        /* \"#utility.yul\":4171:4242   */\n      tag_48\n      jump\t// in\n    tag_108:\n        /* \"#utility.yul\":4164:4242   */\n      swap4\n      pop\n        /* \"#utility.yul\":4251:4316   */\n      tag_109\n        /* \"#utility.yul\":4309:4315   */\n      dup2\n        /* \"#utility.yul\":4304:4307   */\n      dup6\n        /* \"#utility.yul\":4297:4301   */\n      0x20\n        /* \"#utility.yul\":4290:4295   */\n      dup7\n        /* \"#utility.yul\":4286:4302   */\n      add\n        /* \"#utility.yul\":4251:4316   */\n      tag_63\n      jump\t// in\n    tag_109:\n        /* \"#utility.yul\":4341:4370   */\n      tag_110\n        /* \"#utility.yul\":4363:4369   */\n      dup2\n        /* \"#utility.yul\":4341:4370   */\n      tag_64\n      jump\t// in\n    tag_110:\n        /* \"#utility.yul\":4336:4339   */\n      dup5\n        /* \"#utility.yul\":4332:4371   */\n      add\n        /* \"#utility.yul\":4325:4371   */\n      swap2\n      pop\n        /* \"#utility.yul\":4092:4377   */\n      pop\n        /* \"#utility.yul\":4000:4377   */\n      swap3\n      swap2\n      pop\n      pop\n      jump\t// out\n        /* \"#utility.yul\":4383:4696   */\n    tag_33:\n        /* \"#utility.yul\":4496:4500   */\n      0x00\n        /* \"#utility.yul\":4534:4536   */\n      0x20\n        /* \"#utility.yul\":4523:4532   */\n      dup3\n        /* \"#utility.yul\":4519:4537   */\n      add\n        /* \"#utility.yul\":4511:4537   */\n      swap1\n      pop\n        /* \"#utility.yul\":4583:4592   */\n      dup2\n        /* \"#utility.yul\":4577:4581   */\n      dup2\n        /* \"#utility.yul\":4573:4593   */\n      sub\n        /* \"#utility.yul\":4569:4570   */\n      0x00\n        /* \"#utility.yul\":4558:4567   */\n      dup4\n        /* \"#utility.yul\":4554:4571   */\n      add\n        /* \"#utility.yul\":4547:4594   */\n      mstore\n        /* \"#utility.yul\":4611:4689   */\n      tag_112\n        /* \"#utility.yul\":4684:4688   */\n      dup2\n        /* \"#utility.yul\":4675:4681   */\n      dup5\n        /* \"#utility.yul\":4611:4689   */\n      tag_65\n      jump\t// in\n    tag_112:\n        /* \"#utility.yul\":4603:4689   */\n      swap1\n      pop\n        /* \"#utility.yul\":4383:4696   */\n      swap3\n      swap2\n      pop\n      pop\n      jump\t// out\n        /* \"#utility.yul\":4702:4861   */\n    tag_66:\n        /* \"#utility.yul\":4842:4853   */\n      0x6e6f742061646d696e0000000000000000000000000000000000000000000000\n        /* \"#utility.yul\":4838:4839   */\n      0x00\n        /* \"#utility.yul\":4830:4836   */\n      dup3\n        /* \"#utility.yul\":4826:4840   */\n      add\n        /* \"#utility.yul\":4819:4854   */\n      mstore\n        /* \"#utility.yul\":4702:4861   */\n      pop\n      jump\t// out\n        /* \"#utility.yul\":4867:5232   */\n    tag_67:\n        /* \"#utility.yul\":5009:5012   */\n      0x00\n        /* \"#utility.yul\":5030:5096   */\n      tag_115\n        /* \"#utility.yul\":5094:5095   */\n      0x09\n        /* \"#utility.yul\":5089:5092   */\n      dup4\n        /* \"#utility.yul\":5030:5096   */\n      tag_48\n      jump\t// in\n    tag_115:\n        /* \"#utility.yul\":5023:5096   */\n      swap2\n      pop\n        /* \"#utility.yul\":5105:5198   */\n      tag_116\n        /* \"#utility.yul\":5194:5197   */\n      dup3\n        /* \"#utility.yul\":5105:5198   */\n      tag_66\n      jump\t// in\n    tag_116:\n        /* \"#utility.yul\":5223:5225   */\n      0x20\n        /* \"#utility.yul\":5218:5221   */\n      dup3\n        /* \"#utility.yul\":5214:5226   */\n      add\n        /* \"#utility.yul\":5207:5226   */\n      swap1\n      pop\n        /* \"#utility.yul\":4867:5232   */\n      swap2\n      swap1\n      pop\n      jump\t// out\n        /* \"#utility.yul\":5238:5657   */\n    tag_41:\n        /* \"#utility.yul\":5404:5408   */\n      0x00\n        /* \"#utility.yul\":5442:5444   */\n      0x20\n        /* \"#utility.yul\":5431:5440   */\n      dup3\n        /* \"#utility.yul\":5427:5445   */\n      add\n        /* \"#utility.yul\":5419:5445   */\n      swap1\n      pop\n        /* \"#utility.yul\":5491:5500   */\n      dup2\n        /* \"#utility.yul\":5485:5489   */\n      dup2\n        /* \"#utility.yul\":5481:5501   */\n      sub\n        /* \"#utility.yul\":5477:5478   */\n      0x00\n        /* \"#utility.yul\":5466:5475   */\n      dup4\n        /* \"#utility.yul\":5462:5479   */\n      add\n        /* \"#utility.yul\":5455:5502   */\n      mstore\n        /* \"#utility.yul\":5519:5650   */\n      tag_118\n        /* \"#utility.yul\":5645:5649   */\n      dup2\n        /* \"#utility.yul\":5519:5650   */\n      tag_67\n      jump\t// in\n    tag_118:\n        /* \"#utility.yul\":5511:5650   */\n      swap1\n      pop\n        /* \"#utility.yul\":5238:5657   */\n      swap2\n      swap1\n      pop\n      jump\t// out\n        /* \"#utility.yul\":5663:5843   */\n    tag_68:\n        /* \"#utility.yul\":5711:5788   */\n      0x4e487b7100000000000000000000000000000000000000000000000000000000\n        /* \"#utility.yul\":5708:5709   */\n      0x00\n        /* \"#utility.yul\":5701:5789   */\n      mstore\n        /* \"#utility.yul\":5808:5812   */\n      0x22\n        /* \"#utility.yul\":5805:5806   */\n      0x04\n        /* \"#utility.yul\":5798:5813   */\n      mstore\n        /* \"#utility.yul\":5832:5836   */\n      0x24\n        /* \"#utility.yul\":5829:5830   */\n      0x00\n        /* \"#utility.yul\":5822:5837   */\n      revert\n        /* \"#utility.yul\":5849:6169   */\n    tag_43:\n        /* \"#utility.yul\":5893:5899   */\n      0x00\n        /* \"#utility.yul\":5930:5931   */\n      0x02\n        /* \"#utility.yul\":5924:5928   */\n      dup3\n        /* \"#utility.yul\":5920:5932   */\n      div\n        /* \"#utility.yul\":5910:5932   */\n      swap1\n      pop\n        /* \"#utility.yul\":5977:5978   */\n      0x01\n        /* \"#utility.yul\":5971:5975   */\n      dup3\n        /* \"#utility.yul\":5967:5979   */\n      and\n        /* \"#utility.yul\":5998:6016   */\n      dup1\n        /* \"#utility.yul\":5988:6069   */\n      tag_121\n      jumpi\n        /* \"#utility.yul\":6054:6058   */\n      0x7f\n        /* \"#utility.yul\":6046:6052   */\n      dup3\n        /* \"#utility.yul\":6042:6059   */\n      and\n        /* \"#utility.yul\":6032:6059   */\n      swap2\n      pop\n        /* \"#utility.yul\":5988:6069   */\n    tag_121:\n        /* \"#utility.yul\":6116:6118   */\n      0x20\n        /* \"#utility.yul\":6108:6114   */\n      dup3\n        /* \"#utility.yul\":6105:6119   */\n      lt\n        /* \"#utility.yul\":6085:6103   */\n      dup2\n        /* \"#utility.yul\":6082:6120   */\n      sub\n        /* \"#utility.yul\":6079:6163   */\n      tag_122\n      jumpi\n        /* \"#utility.yul\":6135:6153   */\n      tag_123\n      tag_68\n      jump\t// in\n    tag_123:\n        /* \"#utility.yul\":6079:6163   */\n    tag_122:\n        /* \"#utility.yul\":5900:6169   */\n      pop\n        /* \"#utility.yul\":5849:6169   */\n      swap2\n      swap1\n      pop\n      jump\t// out\n\n    auxdata: 0xa26469706673582212208d47303791ac7e19032a7c489cb277971b6d2c38b961bbdd64b7cc389679a27664736f6c63430008220033\n}\n",
				"bytecode": {
					"linkReferences": {},
					"object": "608060405234801561000f575f5ffd5b506040516107f03803806107f083398181016040528101906100319190610114565b3360015f6101000a81548173ffffffffffffffffffffffffffffffffffffffff021916908373ffffffffffffffffffffffffffffffffffffffff160217905550805f5f6101000a81548173ffffffffffffffffffffffffffffffffffffffff021916908373ffffffffffffffffffffffffffffffffffffffff1602179055505061013f565b5f5ffd5b5f73ffffffffffffffffffffffffffffffffffffffff82169050919050565b5f6100e3826100ba565b9050919050565b6100f3816100d9565b81146100fd575f5ffd5b50565b5f8151905061010e816100ea565b92915050565b5f60208284031215610129576101286100b6565b5b5f61013684828501610100565b91505092915050565b6106a48061014c5f395ff3fe608060405260043610610042575f3560e01c80630900f010146101605780635c60da1b14610188578063f2c31bd9146101b2578063f851a440146101dc57610049565b3661004957005b60015f9054906101000a900473ffffffffffffffffffffffffffffffffffffffff1673ffffffffffffffffffffffffffffffffffffffff163373ffffffffffffffffffffffffffffffffffffffff16036100d8576040517f08c379a00000000000000000000000000000000000000000000000000000000081526004016100cf90610406565b60405180910390fd5b5f5f5f5f9054906101000a900473ffffffffffffffffffffffffffffffffffffffff1673ffffffffffffffffffffffffffffffffffffffff165f36604051610121929190610460565b5f60405180830381855af49150503d805f8114610159576040519150601f19603f3d011682016040523d82523d5f602084013e61015e565b606091505b005b34801561016b575f5ffd5b50610186600480360381019061018191906104d6565b610206565b005b348015610193575f5ffd5b5061019c6102d7565b6040516101a99190610510565b60405180910390f35b3480156101bd575f5ffd5b506101c66102fb565b6040516101d39190610589565b60405180910390f35b3480156101e7575f5ffd5b506101f0610387565b6040516101fd9190610510565b60405180910390f35b60015f9054906101000a900473ffffffffffffffffffffffffffffffffffffffff1673ffffffffffffffffffffffffffffffffffffffff163373ffffffffffffffffffffffffffffffffffffffff1614610295576040517f08c379a000000000000000000000000000000000000000000000000000000000815260040161028c906105f3565b60405180910390fd5b805f5f6101000a81548173ffffffffffffffffffffffffffffffffffffffff021916908373ffffffffffffffffffffffffffffffffffffffff16021790555050565b5f5f9054906101000a900473ffffffffffffffffffffffffffffffffffffffff1681565b600280546103089061063e565b80601f01602080910402602001604051908101604052809291908181526020018280546103349061063e565b801561037f5780601f106103565761010080835404028352916020019161037f565b820191905f5260205f20905b81548152906001019060200180831161036257829003601f168201915b505050505081565b60015f9054906101000a900473ffffffffffffffffffffffffffffffffffffffff1681565b5f82825260208201905092915050565b7f63616c6c6572206e6f7420616c6c6f776564206f662061646d696e00000000005f82015250565b5f6103f0601b836103ac565b91506103fb826103bc565b602082019050919050565b5f6020820190508181035f83015261041d816103e4565b9050919050565b5f81905092915050565b828183375f83830152505050565b5f6104478385610424565b935061045483858461042e565b82840190509392505050565b5f61046c82848661043c565b91508190509392505050565b5f5ffd5b5f73ffffffffffffffffffffffffffffffffffffffff82169050919050565b5f6104a58261047c565b9050919050565b6104b58161049b565b81146104bf575f5ffd5b50565b5f813590506104d0816104ac565b92915050565b5f602082840312156104eb576104ea610478565b5b5f6104f8848285016104c2565b91505092915050565b61050a8161049b565b82525050565b5f6020820190506105235f830184610501565b92915050565b5f81519050919050565b8281835e5f83830152505050565b5f601f19601f8301169050919050565b5f61055b82610529565b61056581856103ac565b9350610575818560208601610533565b61057e81610541565b840191505092915050565b5f6020820190508181035f8301526105a18184610551565b905092915050565b7f6e6f742061646d696e00000000000000000000000000000000000000000000005f82015250565b5f6105dd6009836103ac565b91506105e8826105a9565b602082019050919050565b5f6020820190508181035f83015261060a816105d1565b9050919050565b7f4e487b71000000000000000000000000000000000000000000000000000000005f52602260045260245ffd5b5f600282049050600182168061065557607f821691505b60208210810361066857610667610611565b5b5091905056fea26469706673582212208d47303791ac7e19032a7c489cb277971b6d2c38b961bbdd64b7cc389679a27664736f6c63430008220033",
					"opcodes": "PUSH1 0x80 PUSH1 0x40 MSTORE CALLVALUE DUP1 ISZERO PUSH2 0xF JUMPI PUSH0 PUSH0 REVERT JUMPDEST POP PUSH1 0x40 MLOAD PUSH2 0x7F0 CODESIZE SUB DUP1 PUSH2 0x7F0 DUP4 CODECOPY DUP2 DUP2 ADD PUSH1 0x40 MSTORE DUP2 ADD SWAP1 PUSH2 0x31 SWAP2 SWAP1 PUSH2 0x114 JUMP JUMPDEST CALLER PUSH1 0x1 PUSH0 PUSH2 0x100 EXP DUP2 SLOAD DUP2 PUSH20 0xFFFFFFFFFFFFFFFFFFFFFFFFFFFFFFFFFFFFFFFF MUL NOT AND SWAP1 DUP4 PUSH20 0xFFFFFFFFFFFFFFFFFFFFFFFFFFFFFFFFFFFFFFFF AND MUL OR SWAP1 SSTORE POP DUP1 PUSH0 PUSH0 PUSH2 0x100 EXP DUP2 SLOAD DUP2 PUSH20 0xFFFFFFFFFFFFFFFFFFFFFFFFFFFFFFFFFFFFFFFF MUL NOT AND SWAP1 DUP4 PUSH20 0xFFFFFFFFFFFFFFFFFFFFFFFFFFFFFFFFFFFFFFFF AND MUL OR SWAP1 SSTORE POP POP PUSH2 0x13F JUMP JUMPDEST PUSH0 PUSH0 REVERT JUMPDEST PUSH0 PUSH20 0xFFFFFFFFFFFFFFFFFFFFFFFFFFFFFFFFFFFFFFFF DUP3 AND SWAP1 POP SWAP2 SWAP1 POP JUMP JUMPDEST PUSH0 PUSH2 0xE3 DUP3 PUSH2 0xBA JUMP JUMPDEST SWAP1 POP SWAP2 SWAP1 POP JUMP JUMPDEST PUSH2 0xF3 DUP2 PUSH2 0xD9 JUMP JUMPDEST DUP2 EQ PUSH2 0xFD JUMPI PUSH0 PUSH0 REVERT JUMPDEST POP JUMP JUMPDEST PUSH0 DUP2 MLOAD SWAP1 POP PUSH2 0x10E DUP2 PUSH2 0xEA JUMP JUMPDEST SWAP3 SWAP2 POP POP JUMP JUMPDEST PUSH0 PUSH1 0x20 DUP3 DUP5 SUB SLT ISZERO PUSH2 0x129 JUMPI PUSH2 0x128 PUSH2 0xB6 JUMP JUMPDEST JUMPDEST PUSH0 PUSH2 0x136 DUP5 DUP3 DUP6 ADD PUSH2 0x100 JUMP JUMPDEST SWAP2 POP POP SWAP3 SWAP2 POP POP JUMP JUMPDEST PUSH2 0x6A4 DUP1 PUSH2 0x14C PUSH0 CODECOPY PUSH0 RETURN INVALID PUSH1 0x80 PUSH1 0x40 MSTORE PUSH1 0x4 CALLDATASIZE LT PUSH2 0x42 JUMPI PUSH0 CALLDATALOAD PUSH1 0xE0 SHR DUP1 PUSH4 0x900F010 EQ PUSH2 0x160 JUMPI DUP1 PUSH4 0x5C60DA1B EQ PUSH2 0x188 JUMPI DUP1 PUSH4 0xF2C31BD9 EQ PUSH2 0x1B2 JUMPI DUP1 PUSH4 0xF851A440 EQ PUSH2 0x1DC JUMPI PUSH2 0x49 JUMP JUMPDEST CALLDATASIZE PUSH2 0x49 JUMPI STOP JUMPDEST PUSH1 0x1 PUSH0 SWAP1 SLOAD SWAP1 PUSH2 0x100 EXP SWAP1 DIV PUSH20 0xFFFFFFFFFFFFFFFFFFFFFFFFFFFFFFFFFFFFFFFF AND PUSH20 0xFFFFFFFFFFFFFFFFFFFFFFFFFFFFFFFFFFFFFFFF AND CALLER PUSH20 0xFFFFFFFFFFFFFFFFFFFFFFFFFFFFFFFFFFFFFFFF AND SUB PUSH2 0xD8 JUMPI PUSH1 0x40 MLOAD PUSH32 0x8C379A000000000000000000000000000000000000000000000000000000000 DUP2 MSTORE PUSH1 0x4 ADD PUSH2 0xCF SWAP1 PUSH2 0x406 JUMP JUMPDEST PUSH1 0x40 MLOAD DUP1 SWAP2 SUB SWAP1 REVERT JUMPDEST PUSH0 PUSH0 PUSH0 PUSH0 SWAP1 SLOAD SWAP1 PUSH2 0x100 EXP SWAP1 DIV PUSH20 0xFFFFFFFFFFFFFFFFFFFFFFFFFFFFFFFFFFFFFFFF AND PUSH20 0xFFFFFFFFFFFFFFFFFFFFFFFFFFFFFFFFFFFFFFFF AND PUSH0 CALLDATASIZE PUSH1 0x40 MLOAD PUSH2 0x121 SWAP3 SWAP2 SWAP1 PUSH2 0x460 JUMP JUMPDEST PUSH0 PUSH1 0x40 MLOAD DUP1 DUP4 SUB DUP2 DUP6 GAS DELEGATECALL SWAP2 POP POP RETURNDATASIZE DUP1 PUSH0 DUP2 EQ PUSH2 0x159 JUMPI PUSH1 0x40 MLOAD SWAP2 POP PUSH1 0x1F NOT PUSH1 0x3F RETURNDATASIZE ADD AND DUP3 ADD PUSH1 0x40 MSTORE RETURNDATASIZE DUP3 MSTORE RETURNDATASIZE PUSH0 PUSH1 0x20 DUP5 ADD RETURNDATACOPY PUSH2 0x15E JUMP JUMPDEST PUSH1 0x60 SWAP2 POP JUMPDEST STOP JUMPDEST CALLVALUE DUP1 ISZERO PUSH2 0x16B JUMPI PUSH0 PUSH0 REVERT JUMPDEST POP PUSH2 0x186 PUSH1 0x4 DUP1 CALLDATASIZE SUB DUP2 ADD SWAP1 PUSH2 0x181 SWAP2 SWAP1 PUSH2 0x4D6 JUMP JUMPDEST PUSH2 0x206 JUMP JUMPDEST STOP JUMPDEST CALLVALUE DUP1 ISZERO PUSH2 0x193 JUMPI PUSH0 PUSH0 REVERT JUMPDEST POP PUSH2 0x19C PUSH2 0x2D7 JUMP JUMPDEST PUSH1 0x40 MLOAD PUSH2 0x1A9 SWAP2 SWAP1 PUSH2 0x510 JUMP JUMPDEST PUSH1 0x40 MLOAD DUP1 SWAP2 SUB SWAP1 RETURN JUMPDEST CALLVALUE DUP1 ISZERO PUSH2 0x1BD JUMPI PUSH0 PUSH0 REVERT JUMPDEST POP PUSH2 0x1C6 PUSH2 0x2FB JUMP JUMPDEST PUSH1 0x40 MLOAD PUSH2 0x1D3 SWAP2 SWAP1 PUSH2 0x589 JUMP JUMPDEST PUSH1 0x40 MLOAD DUP1 SWAP2 SUB SWAP1 RETURN JUMPDEST CALLVALUE DUP1 ISZERO PUSH2 0x1E7 JUMPI PUSH0 PUSH0 REVERT JUMPDEST POP PUSH2 0x1F0 PUSH2 0x387 JUMP JUMPDEST PUSH1 0x40 MLOAD PUSH2 0x1FD SWAP2 SWAP1 PUSH2 0x510 JUMP JUMPDEST PUSH1 0x40 MLOAD DUP1 SWAP2 SUB SWAP1 RETURN JUMPDEST PUSH1 0x1 PUSH0 SWAP1 SLOAD SWAP1 PUSH2 0x100 EXP SWAP1 DIV PUSH20 0xFFFFFFFFFFFFFFFFFFFFFFFFFFFFFFFFFFFFFFFF AND PUSH20 0xFFFFFFFFFFFFFFFFFFFFFFFFFFFFFFFFFFFFFFFF AND CALLER PUSH20 0xFFFFFFFFFFFFFFFFFFFFFFFFFFFFFFFFFFFFFFFF AND EQ PUSH2 0x295 JUMPI PUSH1 0x40 MLOAD PUSH32 0x8C379A000000000000000000000000000000000000000000000000000000000 DUP2 MSTORE PUSH1 0x4 ADD PUSH2 0x28C SWAP1 PUSH2 0x5F3 JUMP JUMPDEST PUSH1 0x40 MLOAD DUP1 SWAP2 SUB SWAP1 REVERT JUMPDEST DUP1 PUSH0 PUSH0 PUSH2 0x100 EXP DUP2 SLOAD DUP2 PUSH20 0xFFFFFFFFFFFFFFFFFFFFFFFFFFFFFFFFFFFFFFFF MUL NOT AND SWAP1 DUP4 PUSH20 0xFFFFFFFFFFFFFFFFFFFFFFFFFFFFFFFFFFFFFFFF AND MUL OR SWAP1 SSTORE POP POP JUMP JUMPDEST PUSH0 PUSH0 SWAP1 SLOAD SWAP1 PUSH2 0x100 EXP SWAP1 DIV PUSH20 0xFFFFFFFFFFFFFFFFFFFFFFFFFFFFFFFFFFFFFFFF AND DUP2 JUMP JUMPDEST PUSH1 0x2 DUP1 SLOAD PUSH2 0x308 SWAP1 PUSH2 0x63E JUMP JUMPDEST DUP1 PUSH1 0x1F ADD PUSH1 0x20 DUP1 SWAP2 DIV MUL PUSH1 0x20 ADD PUSH1 0x40 MLOAD SWAP1 DUP2 ADD PUSH1 0x40 MSTORE DUP1 SWAP3 SWAP2 SWAP1 DUP2 DUP2 MSTORE PUSH1 0x20 ADD DUP3 DUP1 SLOAD PUSH2 0x334 SWAP1 PUSH2 0x63E JUMP JUMPDEST DUP1 ISZERO PUSH2 0x37F JUMPI DUP1 PUSH1 0x1F LT PUSH2 0x356 JUMPI PUSH2 0x100 DUP1 DUP4 SLOAD DIV MUL DUP4 MSTORE SWAP2 PUSH1 0x20 ADD SWAP2 PUSH2 0x37F JUMP JUMPDEST DUP3 ADD SWAP2 SWAP1 PUSH0 MSTORE PUSH1 0x20 PUSH0 KECCAK256 SWAP1 JUMPDEST DUP2 SLOAD DUP2 MSTORE SWAP1 PUSH1 0x1 ADD SWAP1 PUSH1 0x20 ADD DUP1 DUP4 GT PUSH2 0x362 JUMPI DUP3 SWAP1 SUB PUSH1 0x1F AND DUP3 ADD SWAP2 JUMPDEST POP POP POP POP POP DUP2 JUMP JUMPDEST PUSH1 0x1 PUSH0 SWAP1 SLOAD SWAP1 PUSH2 0x100 EXP SWAP1 DIV PUSH20 0xFFFFFFFFFFFFFFFFFFFFFFFFFFFFFFFFFFFFFFFF AND DUP2 JUMP JUMPDEST PUSH0 DUP3 DUP3 MSTORE PUSH1 0x20 DUP3 ADD SWAP1 POP SWAP3 SWAP2 POP POP JUMP JUMPDEST PUSH32 0x63616C6C6572206E6F7420616C6C6F776564206F662061646D696E0000000000 PUSH0 DUP3 ADD MSTORE POP JUMP JUMPDEST PUSH0 PUSH2 0x3F0 PUSH1 0x1B DUP4 PUSH2 0x3AC JUMP JUMPDEST SWAP2 POP PUSH2 0x3FB DUP3 PUSH2 0x3BC JUMP JUMPDEST PUSH1 0x20 DUP3 ADD SWAP1 POP SWAP2 SWAP1 POP JUMP JUMPDEST PUSH0 PUSH1 0x20 DUP3 ADD SWAP1 POP DUP2 DUP2 SUB PUSH0 DUP4 ADD MSTORE PUSH2 0x41D DUP2 PUSH2 0x3E4 JUMP JUMPDEST SWAP1 POP SWAP2 SWAP1 POP JUMP JUMPDEST PUSH0 DUP2 SWAP1 POP SWAP3 SWAP2 POP POP JUMP JUMPDEST DUP3 DUP2 DUP4 CALLDATACOPY PUSH0 DUP4 DUP4 ADD MSTORE POP POP POP JUMP JUMPDEST PUSH0 PUSH2 0x447 DUP4 DUP6 PUSH2 0x424 JUMP JUMPDEST SWAP4 POP PUSH2 0x454 DUP4 DUP6 DUP5 PUSH2 0x42E JUMP JUMPDEST DUP3 DUP5 ADD SWAP1 POP SWAP4 SWAP3 POP POP POP JUMP JUMPDEST PUSH0 PUSH2 0x46C DUP3 DUP5 DUP7 PUSH2 0x43C JUMP JUMPDEST SWAP2 POP DUP2 SWAP1 POP SWAP4 SWAP3 POP POP POP JUMP JUMPDEST PUSH0 PUSH0 REVERT JUMPDEST PUSH0 PUSH20 0xFFFFFFFFFFFFFFFFFFFFFFFFFFFFFFFFFFFFFFFF DUP3 AND SWAP1 POP SWAP2 SWAP1 POP JUMP JUMPDEST PUSH0 PUSH2 0x4A5 DUP3 PUSH2 0x47C JUMP JUMPDEST SWAP1 POP SWAP2 SWAP1 POP JUMP JUMPDEST PUSH2 0x4B5 DUP2 PUSH2 0x49B JUMP JUMPDEST DUP2 EQ PUSH2 0x4BF JUMPI PUSH0 PUSH0 REVERT JUMPDEST POP JUMP JUMPDEST PUSH0 DUP2 CALLDATALOAD SWAP1 POP PUSH2 0x4D0 DUP2 PUSH2 0x4AC JUMP JUMPDEST SWAP3 SWAP2 POP POP JUMP JUMPDEST PUSH0 PUSH1 0x20 DUP3 DUP5 SUB SLT ISZERO PUSH2 0x4EB JUMPI PUSH2 0x4EA PUSH2 0x478 JUMP JUMPDEST JUMPDEST PUSH0 PUSH2 0x4F8 DUP5 DUP3 DUP6 ADD PUSH2 0x4C2 JUMP JUMPDEST SWAP2 POP POP SWAP3 SWAP2 POP POP JUMP JUMPDEST PUSH2 0x50A DUP2 PUSH2 0x49B JUMP JUMPDEST DUP3 MSTORE POP POP JUMP JUMPDEST PUSH0 PUSH1 0x20 DUP3 ADD SWAP1 POP PUSH2 0x523 PUSH0 DUP4 ADD DUP5 PUSH2 0x501 JUMP JUMPDEST SWAP3 SWAP2 POP POP JUMP JUMPDEST PUSH0 DUP2 MLOAD SWAP1 POP SWAP2 SWAP1 POP JUMP JUMPDEST DUP3 DUP2 DUP4 MCOPY PUSH0 DUP4 DUP4 ADD MSTORE POP POP POP JUMP JUMPDEST PUSH0 PUSH1 0x1F NOT PUSH1 0x1F DUP4 ADD AND SWAP1 POP SWAP2 SWAP1 POP JUMP JUMPDEST PUSH0 PUSH2 0x55B DUP3 PUSH2 0x529 JUMP JUMPDEST PUSH2 0x565 DUP2 DUP6 PUSH2 0x3AC JUMP JUMPDEST SWAP4 POP PUSH2 0x575 DUP2 DUP6 PUSH1 0x20 DUP7 ADD PUSH2 0x533 JUMP JUMPDEST PUSH2 0x57E DUP2 PUSH2 0x541 JUMP JUMPDEST DUP5 ADD SWAP2 POP POP SWAP3 SWAP2 POP POP JUMP JUMPDEST PUSH0 PUSH1 0x20 DUP3 ADD SWAP1 POP DUP2 DUP2 SUB PUSH0 DUP4 ADD MSTORE PUSH2 0x5A1 DUP2 DUP5 PUSH2 0x551 JUMP JUMPDEST SWAP1 POP SWAP3 SWAP2 POP POP JUMP JUMPDEST PUSH32 0x6E6F742061646D696E0000000000000000000000000000000000000000000000 PUSH0 DUP3 ADD MSTORE POP JUMP JUMPDEST PUSH0 PUSH2 0x5DD PUSH1 0x9 DUP4 PUSH2 0x3AC JUMP JUMPDEST SWAP2 POP PUSH2 0x5E8 DUP3 PUSH2 0x5A9 JUMP JUMPDEST PUSH1 0x20 DUP3 ADD SWAP1 POP SWAP2 SWAP1 POP JUMP JUMPDEST PUSH0 PUSH1 0x20 DUP3 ADD SWAP1 POP DUP2 DUP2 SUB PUSH0 DUP4 ADD MSTORE PUSH2 0x60A DUP2 PUSH2 0x5D1 JUMP JUMPDEST SWAP1 POP SWAP2 SWAP1 POP JUMP JUMPDEST PUSH32 0x4E487B7100000000000000000000000000000000000000000000000000000000 PUSH0 MSTORE PUSH1 0x22 PUSH1 0x4 MSTORE PUSH1 0x24 PUSH0 REVERT JUMPDEST PUSH0 PUSH1 0x2 DUP3 DIV SWAP1 POP PUSH1 0x1 DUP3 AND DUP1 PUSH2 0x655 JUMPI PUSH1 0x7F DUP3 AND SWAP2 POP JUMPDEST PUSH1 0x20 DUP3 LT DUP2 SUB PUSH2 0x668 JUMPI PUSH2 0x667 PUSH2 0x611 JUMP JUMPDEST JUMPDEST POP SWAP2 SWAP1 POP JUMP INVALID LOG2 PUSH5 0x6970667358 0x22 SLT KECCAK256 DUP14 SELFBALANCE ADDRESS CALLDATACOPY SWAP2 0xAC PUSH31 0x19032A7C489CB277971B6D2C38B961BBDD64B7CC389679A27664736F6C6343 STOP ADDMOD 0x22 STOP CALLER "
				},
				"gasEstimates": {
					"creation": {
						"codeDepositCost": "340000",
						"executionCost": "infinite",
						"totalCost": "infinite"
					},
					"external": {
						"": "infinite",
						"admin()": "2552",
						"implementation()": "2507",
						"upgrade(address)": "26861",
						"words()": "infinite"
					}
				},
				"methodIdentifiers": {
					"admin()": "f851a440",
					"implementation()": "5c60da1b",
					"upgrade(address)": "0900f010",
					"words()": "f2c31bd9"
				}
			},
			"storageLayout": {
				"storage": [
					{
						"astId": 21,
						"contract": "contracts/ContractUpgrade/Upgrade.sol:Upgrade",
						"label": "implementation",
						"offset": 0,
						"slot": "0",
						"type": "t_address"
					},
					{
						"astId": 23,
						"contract": "contracts/ContractUpgrade/Upgrade.sol:Upgrade",
						"label": "admin",
						"offset": 0,
						"slot": "1",
						"type": "t_address"
					},
					{
						"astId": 25,
						"contract": "contracts/ContractUpgrade/Upgrade.sol:Upgrade",
						"label": "words",
						"offset": 0,
						"slot": "2",
						"type": "t_string_storage"
					}
				],
				"types": {
					"t_address": {
						"encoding": "inplace",
						"label": "address",
						"numberOfBytes": "20"
					},
					"t_string_storage": {
						"encoding": "bytes",
						"label": "string",
						"numberOfBytes": "32"
					}
				}
			},
			"userdoc": {
				"kind": "user",
				"methods": {},
				"notice": "Upgrade简单的可升级合约，管理员可以通过升级函数更改逻辑合约地址，从而改变合约的逻辑。",
				"version": 1
			}
		}
	}
}