{
	"contracts/Transfer.sol": {
		"TestTemp": {
			"abi": [
				{
					"stateMutability": "payable",
					"type": "fallback"
				},
				{
					"inputs": [],
					"name": "a",
					"outputs": [
						{
							"internalType": "uint256",
							"name": "",
							"type": "uint256"
						}
					],
					"stateMutability": "view",
					"type": "function"
				},
				{
					"inputs": [],
					"name": "test",
					"outputs": [
						{
							"internalType": "bytes",
							"name": "",
							"type": "bytes"
						}
					],
					"stateMutability": "payable",
					"type": "function"
				},
				{
					"stateMutability": "payable",
					"type": "receive"
				}
			],
			"devdoc": {
				"kind": "dev",
				"methods": {},
				"version": 1
			},
			"evm": {
				"assembly": "    /* \"contracts/Transfer.sol\":61:328  contract TestTemp {... */\n  mstore(0x40, 0x80)\n    /* \"contracts/Transfer.sol\":105:108  100 */\n  0x64\n    /* \"contracts/Transfer.sol\":86:108  uint256 public a = 100 */\n  0x00\n  sstore\n    /* \"contracts/Transfer.sol\":61:328  contract TestTemp {... */\n  callvalue\n  dup1\n  iszero\n  tag_1\n  jumpi\n  revert(0x00, 0x00)\ntag_1:\n  pop\n  dataSize(sub_0)\n  dup1\n  dataOffset(sub_0)\n  0x00\n  codecopy\n  0x00\n  return\nstop\n\nsub_0: assembly {\n        /* \"contracts/Transfer.sol\":61:328  contract TestTemp {... */\n      mstore(0x40, 0x80)\n      jumpi(tag_1, lt(calldatasize, 0x04))\n      shr(0xe0, calldataload(0x00))\n      dup1\n      0x0dbe671f\n      eq\n      tag_3\n      jumpi\n      dup1\n      0xf8a8fd6d\n      eq\n      tag_4\n      jumpi\n      jump(tag_2)\n    tag_1:\n      jumpi(tag_2, calldatasize)\n        /* \"contracts/Transfer.sol\":254:257  101 */\n      0x65\n        /* \"contracts/Transfer.sol\":250:251  a */\n      0x00\n        /* \"contracts/Transfer.sol\":250:257  a = 101 */\n      dup2\n      swap1\n      sstore\n      stop\n        /* \"contracts/Transfer.sol\":61:328  contract TestTemp {... */\n    tag_2:\n        /* \"contracts/Transfer.sol\":314:317  102 */\n      0x66\n        /* \"contracts/Transfer.sol\":310:311  a */\n      0x00\n        /* \"contracts/Transfer.sol\":310:317  a = 102 */\n      dup2\n      swap1\n      sstore\n      stop\n        /* \"contracts/Transfer.sol\":86:108  uint256 public a = 100 */\n    tag_3:\n      callvalue\n      dup1\n      iszero\n      tag_9\n      jumpi\n      revert(0x00, 0x00)\n    tag_9:\n      pop\n      tag_10\n      tag_11\n      jump\t// in\n    tag_10:\n      mload(0x40)\n      tag_12\n      swap2\n      swap1\n      tag_13\n      jump\t// in\n    tag_12:\n      mload(0x40)\n      dup1\n      swap2\n      sub\n      swap1\n      return\n        /* \"contracts/Transfer.sol\":117:206  function test() public payable returns(bytes calldata) {... */\n    tag_4:\n      tag_14\n      tag_15\n      jump\t// in\n    tag_14:\n      mload(0x40)\n      tag_16\n      swap3\n      swap2\n      swap1\n      tag_17\n      jump\t// in\n    tag_16:\n      mload(0x40)\n      dup1\n      swap2\n      sub\n      swap1\n      return\n        /* \"contracts/Transfer.sol\":86:108  uint256 public a = 100 */\n    tag_11:\n      sload(0x00)\n      dup2\n      jump\t// out\n        /* \"contracts/Transfer.sol\":117:206  function test() public payable returns(bytes calldata) {... */\n    tag_15:\n        /* \"contracts/Transfer.sol\":156:170  bytes calldata */\n      calldatasize\n      0x00\n        /* \"contracts/Transfer.sol\":190:198  msg.data */\n      0x00\n      calldatasize\n        /* \"contracts/Transfer.sol\":183:198  return msg.data */\n      swap2\n      pop\n      swap2\n      pop\n        /* \"contracts/Transfer.sol\":117:206  function test() public payable returns(bytes calldata) {... */\n      swap1\n      swap2\n      jump\t// out\n        /* \"#utility.yul\":7:84   */\n    tag_19:\n        /* \"#utility.yul\":44:51   */\n      0x00\n        /* \"#utility.yul\":73:78   */\n      dup2\n        /* \"#utility.yul\":62:78   */\n      swap1\n      pop\n        /* \"#utility.yul\":7:84   */\n      swap2\n      swap1\n      pop\n      jump\t// out\n        /* \"#utility.yul\":90:208   */\n    tag_20:\n        /* \"#utility.yul\":177:201   */\n      tag_28\n        /* \"#utility.yul\":195:200   */\n      dup2\n        /* \"#utility.yul\":177:201   */\n      tag_19\n      jump\t// in\n    tag_28:\n        /* \"#utility.yul\":172:175   */\n      dup3\n        /* \"#utility.yul\":165:202   */\n      mstore\n        /* \"#utility.yul\":90:208   */\n      pop\n      pop\n      jump\t// out\n        /* \"#utility.yul\":214:436   */\n    tag_13:\n        /* \"#utility.yul\":307:311   */\n      0x00\n        /* \"#utility.yul\":345:347   */\n      0x20\n        /* \"#utility.yul\":334:343   */\n      dup3\n        /* \"#utility.yul\":330:348   */\n      add\n        /* \"#utility.yul\":322:348   */\n      swap1\n      pop\n        /* \"#utility.yul\":358:429   */\n      tag_30\n        /* \"#utility.yul\":426:427   */\n      0x00\n        /* \"#utility.yul\":415:424   */\n      dup4\n        /* \"#utility.yul\":411:428   */\n      add\n        /* \"#utility.yul\":402:408   */\n      dup5\n        /* \"#utility.yul\":358:429   */\n      tag_20\n      jump\t// in\n    tag_30:\n        /* \"#utility.yul\":214:436   */\n      swap3\n      swap2\n      pop\n      pop\n      jump\t// out\n        /* \"#utility.yul\":442:610   */\n    tag_21:\n        /* \"#utility.yul\":525:536   */\n      0x00\n        /* \"#utility.yul\":559:565   */\n      dup3\n        /* \"#utility.yul\":554:557   */\n      dup3\n        /* \"#utility.yul\":547:566   */\n      mstore\n        /* \"#utility.yul\":599:603   */\n      0x20\n        /* \"#utility.yul\":594:597   */\n      dup3\n        /* \"#utility.yul\":590:604   */\n      add\n        /* \"#utility.yul\":575:604   */\n      swap1\n      pop\n        /* \"#utility.yul\":442:610   */\n      swap3\n      swap2\n      pop\n      pop\n      jump\t// out\n        /* \"#utility.yul\":616:764   */\n    tag_22:\n        /* \"#utility.yul\":714:720   */\n      dup3\n        /* \"#utility.yul\":709:712   */\n      dup2\n        /* \"#utility.yul\":704:707   */\n      dup4\n        /* \"#utility.yul\":691:721   */\n      calldatacopy\n        /* \"#utility.yul\":755:756   */\n      0x00\n        /* \"#utility.yul\":746:752   */\n      dup4\n        /* \"#utility.yul\":741:744   */\n      dup4\n        /* \"#utility.yul\":737:753   */\n      add\n        /* \"#utility.yul\":730:757   */\n      mstore\n        /* \"#utility.yul\":616:764   */\n      pop\n      pop\n      pop\n      jump\t// out\n        /* \"#utility.yul\":770:872   */\n    tag_23:\n        /* \"#utility.yul\":811:817   */\n      0x00\n        /* \"#utility.yul\":862:864   */\n      0x1f\n        /* \"#utility.yul\":858:865   */\n      not\n        /* \"#utility.yul\":853:855   */\n      0x1f\n        /* \"#utility.yul\":846:851   */\n      dup4\n        /* \"#utility.yul\":842:856   */\n      add\n        /* \"#utility.yul\":838:866   */\n      and\n        /* \"#utility.yul\":828:866   */\n      swap1\n      pop\n        /* \"#utility.yul\":770:872   */\n      swap2\n      swap1\n      pop\n      jump\t// out\n        /* \"#utility.yul\":900:1214   */\n    tag_24:\n        /* \"#utility.yul\":996:999   */\n      0x00\n        /* \"#utility.yul\":1017:1087   */\n      tag_35\n        /* \"#utility.yul\":1080:1086   */\n      dup4\n        /* \"#utility.yul\":1075:1078   */\n      dup6\n        /* \"#utility.yul\":1017:1087   */\n      tag_21\n      jump\t// in\n    tag_35:\n        /* \"#utility.yul\":1010:1087   */\n      swap4\n      pop\n        /* \"#utility.yul\":1097:1153   */\n      tag_36\n        /* \"#utility.yul\":1146:1152   */\n      dup4\n        /* \"#utility.yul\":1141:1144   */\n      dup6\n        /* \"#utility.yul\":1134:1139   */\n      dup5\n        /* \"#utility.yul\":1097:1153   */\n      tag_22\n      jump\t// in\n    tag_36:\n        /* \"#utility.yul\":1178:1207   */\n      tag_37\n        /* \"#utility.yul\":1200:1206   */\n      dup4\n        /* \"#utility.yul\":1178:1207   */\n      tag_23\n      jump\t// in\n    tag_37:\n        /* \"#utility.yul\":1173:1176   */\n      dup5\n        /* \"#utility.yul\":1169:1208   */\n      add\n        /* \"#utility.yul\":1162:1208   */\n      swap1\n      pop\n        /* \"#utility.yul\":900:1214   */\n      swap4\n      swap3\n      pop\n      pop\n      pop\n      jump\t// out\n        /* \"#utility.yul\":1220:1549   */\n    tag_17:\n        /* \"#utility.yul\":1341:1345   */\n      0x00\n        /* \"#utility.yul\":1379:1381   */\n      0x20\n        /* \"#utility.yul\":1368:1377   */\n      dup3\n        /* \"#utility.yul\":1364:1382   */\n      add\n        /* \"#utility.yul\":1356:1382   */\n      swap1\n      pop\n        /* \"#utility.yul\":1428:1437   */\n      dup2\n        /* \"#utility.yul\":1422:1426   */\n      dup2\n        /* \"#utility.yul\":1418:1438   */\n      sub\n        /* \"#utility.yul\":1414:1415   */\n      0x00\n        /* \"#utility.yul\":1403:1412   */\n      dup4\n        /* \"#utility.yul\":1399:1416   */\n      add\n        /* \"#utility.yul\":1392:1439   */\n      mstore\n        /* \"#utility.yul\":1456:1542   */\n      tag_39\n        /* \"#utility.yul\":1537:1541   */\n      dup2\n        /* \"#utility.yul\":1528:1534   */\n      dup5\n        /* \"#utility.yul\":1520:1526   */\n      dup7\n        /* \"#utility.yul\":1456:1542   */\n      tag_24\n      jump\t// in\n    tag_39:\n        /* \"#utility.yul\":1448:1542   */\n      swap1\n      pop\n        /* \"#utility.yul\":1220:1549   */\n      swap4\n      swap3\n      pop\n      pop\n      pop\n      jump\t// out\n\n    auxdata: 0xa2646970667358221220ecef55b47f0f34e075fad27b82c531c487226b318aad5550b46f6b3c32aa1b8d64736f6c634300081e0033\n}\n",
				"bytecode": {
					"linkReferences": {},
					"object": "608060405260645f553480156012575f5ffd5b5061017e806100205f395ff3fe60806040526004361061002c575f3560e01c80630dbe671f14610041578063f8a8fd6d1461006b57610039565b366100395760655f819055005b60665f819055005b34801561004c575f5ffd5b5061005561008a565b60405161006291906100b3565b60405180910390f35b61007361008f565b604051610081929190610126565b60405180910390f35b5f5481565b365f5f36915091509091565b5f819050919050565b6100ad8161009b565b82525050565b5f6020820190506100c65f8301846100a4565b92915050565b5f82825260208201905092915050565b828183375f83830152505050565b5f601f19601f8301169050919050565b5f61010583856100cc565b93506101128385846100dc565b61011b836100ea565b840190509392505050565b5f6020820190508181035f83015261013f8184866100fa565b9050939250505056fea2646970667358221220ecef55b47f0f34e075fad27b82c531c487226b318aad5550b46f6b3c32aa1b8d64736f6c634300081e0033",
					"opcodes": "PUSH1 0x80 PUSH1 0x40 MSTORE PUSH1 0x64 PUSH0 SSTORE CALLVALUE DUP1 ISZERO PUSH1 0x12 JUMPI PUSH0 PUSH0 REVERT JUMPDEST POP PUSH2 0x17E DUP1 PUSH2 0x20 PUSH0 CODECOPY PUSH0 RETURN INVALID PUSH1 0x80 PUSH1 0x40 MSTORE PUSH1 0x4 CALLDATASIZE LT PUSH2 0x2C JUMPI PUSH0 CALLDATALOAD PUSH1 0xE0 SHR DUP1 PUSH4 0xDBE671F EQ PUSH2 0x41 JUMPI DUP1 PUSH4 0xF8A8FD6D EQ PUSH2 0x6B JUMPI PUSH2 0x39 JUMP JUMPDEST CALLDATASIZE PUSH2 0x39 JUMPI PUSH1 0x65 PUSH0 DUP2 SWAP1 SSTORE STOP JUMPDEST PUSH1 0x66 PUSH0 DUP2 SWAP1 SSTORE STOP JUMPDEST CALLVALUE DUP1 ISZERO PUSH2 0x4C JUMPI PUSH0 PUSH0 REVERT JUMPDEST POP PUSH2 0x55 PUSH2 0x8A JUMP JUMPDEST PUSH1 0x40 MLOAD PUSH2 0x62 SWAP2 SWAP1 PUSH2 0xB3 JUMP JUMPDEST PUSH1 0x40 MLOAD DUP1 SWAP2 SUB SWAP1 RETURN JUMPDEST PUSH2 0x73 PUSH2 0x8F JUMP JUMPDEST PUSH1 0x40 MLOAD PUSH2 0x81 SWAP3 SWAP2 SWAP1 PUSH2 0x126 JUMP JUMPDEST PUSH1 0x40 MLOAD DUP1 SWAP2 SUB SWAP1 RETURN JUMPDEST PUSH0 SLOAD DUP2 JUMP JUMPDEST CALLDATASIZE PUSH0 PUSH0 CALLDATASIZE SWAP2 POP SWAP2 POP SWAP1 SWAP2 JUMP JUMPDEST PUSH0 DUP2 SWAP1 POP SWAP2 SWAP1 POP JUMP JUMPDEST PUSH2 0xAD DUP2 PUSH2 0x9B JUMP JUMPDEST DUP3 MSTORE POP POP JUMP JUMPDEST PUSH0 PUSH1 0x20 DUP3 ADD SWAP1 POP PUSH2 0xC6 PUSH0 DUP4 ADD DUP5 PUSH2 0xA4 JUMP JUMPDEST SWAP3 SWAP2 POP POP JUMP JUMPDEST PUSH0 DUP3 DUP3 MSTORE PUSH1 0x20 DUP3 ADD SWAP1 POP SWAP3 SWAP2 POP POP JUMP JUMPDEST DUP3 DUP2 DUP4 CALLDATACOPY PUSH0 DUP4 DUP4 ADD MSTORE POP POP POP JUMP JUMPDEST PUSH0 PUSH1 0x1F NOT PUSH1 0x1F DUP4 ADD AND SWAP1 POP SWAP2 SWAP1 POP JUMP JUMPDEST PUSH0 PUSH2 0x105 DUP4 DUP6 PUSH2 0xCC JUMP JUMPDEST SWAP4 POP PUSH2 0x112 DUP4 DUP6 DUP5 PUSH2 0xDC JUMP JUMPDEST PUSH2 0x11B DUP4 PUSH2 0xEA JUMP JUMPDEST DUP5 ADD SWAP1 POP SWAP4 SWAP3 POP POP POP JUMP JUMPDEST PUSH0 PUSH1 0x20 DUP3 ADD SWAP1 POP DUP2 DUP2 SUB PUSH0 DUP4 ADD MSTORE PUSH2 0x13F DUP2 DUP5 DUP7 PUSH2 0xFA JUMP JUMPDEST SWAP1 POP SWAP4 SWAP3 POP POP POP JUMP INVALID LOG2 PUSH5 0x6970667358 0x22 SLT KECCAK256 EOFCREATE 0xEF SSTORE 0xB4 PUSH32 0xF34E075FAD27B82C531C487226B318AAD5550B46F6B3C32AA1B8D64736F6C63 NUMBER STOP ADDMOD 0x1E STOP CALLER "
				},
				"gasEstimates": {
					"creation": {
						"codeDepositCost": "76400",
						"executionCost": "22226",
						"totalCost": "98626"
					},
					"external": {
						"": "22217",
						"a()": "2402",
						"test()": "infinite"
					}
				},
				"methodIdentifiers": {
					"a()": "0dbe671f",
					"test()": "f8a8fd6d"
				}
			},
			"storageLayout": {
				"storage": [
					{
						"astId": 4,
						"contract": "contracts/Transfer.sol:TestTemp",
						"label": "a",
						"offset": 0,
						"slot": "0",
						"type": "t_uint256"
					}
				],
				"types": {
					"t_uint256": {
						"encoding": "inplace",
						"label": "uint256",
						"numberOfBytes": "32"
					}
				}
			},
			"userdoc": {
				"kind": "user",
				"methods": {},
				"version": 1
			}
		}
	}
}