{
	"contracts/Transfer.sol": {
		"Test": {
			"abi": [
				{
					"inputs": [
						{
							"internalType": "address payable",
							"name": "_test",
							"type": "address"
						}
					],
					"stateMutability": "nonpayable",
					"type": "constructor"
				},
				{
					"inputs": [],
					"name": "pay1",
					"outputs": [
						{
							"internalType": "bool",
							"name": "",
							"type": "bool"
						},
						{
							"internalType": "bytes",
							"name": "",
							"type": "bytes"
						}
					],
					"stateMutability": "payable",
					"type": "function"
				},
				{
					"inputs": [],
					"name": "pay2",
					"outputs": [],
					"stateMutability": "payable",
					"type": "function"
				},
				{
					"inputs": [],
					"name": "pay3",
					"outputs": [
						{
							"internalType": "bool",
							"name": "",
							"type": "bool"
						},
						{
							"internalType": "bytes",
							"name": "",
							"type": "bytes"
						}
					],
					"stateMutability": "payable",
					"type": "function"
				}
			],
			"devdoc": {
				"kind": "dev",
				"methods": {},
				"version": 1
			},
			"evm": {
				"assembly": "    /* \"contracts/Transfer.sol\":330:1212  contract Test {... */\n  mstore(0x40, 0x80)\n    /* \"contracts/Transfer.sol\":373:449  constructor(address payable _test) {... */\n  callvalue\n  dup1\n  iszero\n  tag_1\n  jumpi\n  revert(0x00, 0x00)\ntag_1:\n  pop\n  mload(0x40)\n  sub(codesize, bytecodeSize)\n  dup1\n  bytecodeSize\n  dup4\n  codecopy\n  dup2\n  dup2\n  add\n  0x40\n  mstore\n  dup2\n  add\n  swap1\n  tag_2\n  swap2\n  swap1\n  tag_3\n  jump\t// in\ntag_2:\n    /* \"contracts/Transfer.sol\":435:440  _test */\n  dup1\n    /* \"contracts/Transfer.sol\":419:423  test */\n  0x00\n  0x00\n    /* \"contracts/Transfer.sol\":419:441  test = TestTemp(_test) */\n  0x0100\n  exp\n  dup2\n  sload\n  dup2\n  0xffffffffffffffffffffffffffffffffffffffff\n  mul\n  not\n  and\n  swap1\n  dup4\n  0xffffffffffffffffffffffffffffffffffffffff\n  and\n  mul\n  or\n  swap1\n  sstore\n  pop\n    /* \"contracts/Transfer.sol\":373:449  constructor(address payable _test) {... */\n  pop\n    /* \"contracts/Transfer.sol\":330:1212  contract Test {... */\n  jump(tag_6)\n    /* \"#utility.yul\":88:205   */\ntag_8:\n    /* \"#utility.yul\":197:198   */\n  0x00\n    /* \"#utility.yul\":194:195   */\n  0x00\n    /* \"#utility.yul\":187:199   */\n  revert\n    /* \"#utility.yul\":334:460   */\ntag_10:\n    /* \"#utility.yul\":371:378   */\n  0x00\n    /* \"#utility.yul\":411:453   */\n  0xffffffffffffffffffffffffffffffffffffffff\n    /* \"#utility.yul\":404:409   */\n  dup3\n    /* \"#utility.yul\":400:454   */\n  and\n    /* \"#utility.yul\":389:454   */\n  swap1\n  pop\n    /* \"#utility.yul\":334:460   */\n  swap2\n  swap1\n  pop\n  jump\t// out\n    /* \"#utility.yul\":466:570   */\ntag_11:\n    /* \"#utility.yul\":511:518   */\n  0x00\n    /* \"#utility.yul\":540:564   */\n  tag_20\n    /* \"#utility.yul\":558:563   */\n  dup3\n    /* \"#utility.yul\":540:564   */\n  tag_10\n  jump\t// in\ntag_20:\n    /* \"#utility.yul\":529:564   */\n  swap1\n  pop\n    /* \"#utility.yul\":466:570   */\n  swap2\n  swap1\n  pop\n  jump\t// out\n    /* \"#utility.yul\":576:714   */\ntag_12:\n    /* \"#utility.yul\":657:689   */\n  tag_22\n    /* \"#utility.yul\":683:688   */\n  dup2\n    /* \"#utility.yul\":657:689   */\n  tag_11\n  jump\t// in\ntag_22:\n    /* \"#utility.yul\":650:655   */\n  dup2\n    /* \"#utility.yul\":647:690   */\n  eq\n    /* \"#utility.yul\":637:708   */\n  tag_23\n  jumpi\n    /* \"#utility.yul\":704:705   */\n  0x00\n    /* \"#utility.yul\":701:702   */\n  0x00\n    /* \"#utility.yul\":694:706   */\n  revert\n    /* \"#utility.yul\":637:708   */\ntag_23:\n    /* \"#utility.yul\":576:714   */\n  pop\n  jump\t// out\n    /* \"#utility.yul\":720:879   */\ntag_13:\n    /* \"#utility.yul\":785:790   */\n  0x00\n    /* \"#utility.yul\":816:822   */\n  dup2\n    /* \"#utility.yul\":810:823   */\n  mload\n    /* \"#utility.yul\":801:823   */\n  swap1\n  pop\n    /* \"#utility.yul\":832:873   */\n  tag_25\n    /* \"#utility.yul\":867:872   */\n  dup2\n    /* \"#utility.yul\":832:873   */\n  tag_12\n  jump\t// in\ntag_25:\n    /* \"#utility.yul\":720:879   */\n  swap3\n  swap2\n  pop\n  pop\n  jump\t// out\n    /* \"#utility.yul\":885:1252   */\ntag_3:\n    /* \"#utility.yul\":963:969   */\n  0x00\n    /* \"#utility.yul\":1012:1014   */\n  0x20\n    /* \"#utility.yul\":1000:1009   */\n  dup3\n    /* \"#utility.yul\":991:998   */\n  dup5\n    /* \"#utility.yul\":987:1010   */\n  sub\n    /* \"#utility.yul\":983:1015   */\n  slt\n    /* \"#utility.yul\":980:1099   */\n  iszero\n  tag_27\n  jumpi\n    /* \"#utility.yul\":1018:1097   */\n  tag_28\n  tag_8\n  jump\t// in\ntag_28:\n    /* \"#utility.yul\":980:1099   */\ntag_27:\n    /* \"#utility.yul\":1138:1139   */\n  0x00\n    /* \"#utility.yul\":1163:1235   */\n  tag_29\n    /* \"#utility.yul\":1227:1234   */\n  dup5\n    /* \"#utility.yul\":1218:1224   */\n  dup3\n    /* \"#utility.yul\":1207:1216   */\n  dup6\n    /* \"#utility.yul\":1203:1225   */\n  add\n    /* \"#utility.yul\":1163:1235   */\n  tag_13\n  jump\t// in\ntag_29:\n    /* \"#utility.yul\":1153:1235   */\n  swap2\n  pop\n    /* \"#utility.yul\":1109:1245   */\n  pop\n    /* \"#utility.yul\":885:1252   */\n  swap3\n  swap2\n  pop\n  pop\n  jump\t// out\n    /* \"contracts/Transfer.sol\":330:1212  contract Test {... */\ntag_6:\n  dataSize(sub_0)\n  dup1\n  dataOffset(sub_0)\n  0x00\n  codecopy\n  0x00\n  return\nstop\n\nsub_0: assembly {\n        /* \"contracts/Transfer.sol\":330:1212  contract Test {... */\n      mstore(0x40, 0x80)\n      jumpi(tag_1, lt(calldatasize, 0x04))\n      shr(0xe0, calldataload(0x00))\n      dup1\n      0x46108f52\n      eq\n      tag_2\n      jumpi\n      dup1\n      0x7e1b3abf\n      eq\n      tag_3\n      jumpi\n      dup1\n      0xf6a15805\n      eq\n      tag_4\n      jumpi\n    tag_1:\n      revert(0x00, 0x00)\n        /* \"contracts/Transfer.sol\":826:1209  function pay3() public payable returns(bool, bytes memory) {... */\n    tag_2:\n      tag_5\n      tag_6\n      jump\t// in\n    tag_5:\n      mload(0x40)\n      tag_7\n      swap3\n      swap2\n      swap1\n      tag_8\n      jump\t// in\n    tag_7:\n      mload(0x40)\n      dup1\n      swap2\n      sub\n      swap1\n      return\n        /* \"contracts/Transfer.sol\":692:820  function pay2() public payable {... */\n    tag_3:\n      tag_9\n      tag_10\n      jump\t// in\n    tag_9:\n      stop\n        /* \"contracts/Transfer.sol\":455:686  function pay1() public payable returns(bool, bytes memory) {... */\n    tag_4:\n      tag_11\n      tag_12\n      jump\t// in\n    tag_11:\n      mload(0x40)\n      tag_13\n      swap3\n      swap2\n      swap1\n      tag_8\n      jump\t// in\n    tag_13:\n      mload(0x40)\n      dup1\n      swap2\n      sub\n      swap1\n      return\n        /* \"contracts/Transfer.sol\":826:1209  function pay3() public payable returns(bool, bytes memory) {... */\n    tag_6:\n        /* \"contracts/Transfer.sol\":865:869  bool */\n      0x00\n        /* \"contracts/Transfer.sol\":871:883  bytes memory */\n      0x60\n        /* \"contracts/Transfer.sol\":928:948  bytes memory msgData */\n      0x00\n        /* \"contracts/Transfer.sol\":992:995  213 */\n      0xd5\n        /* \"contracts/Transfer.sol\":951:996  abi.encodeWithSignature(\"test(uint256)\", 213) */\n      add(0x24, mload(0x40))\n      tag_15\n      swap2\n      swap1\n      tag_16\n      jump\t// in\n    tag_15:\n      mload(0x40)\n      0x20\n      dup2\n      dup4\n      sub\n      sub\n      dup2\n      mstore\n      swap1\n      0x40\n      mstore\n      and(not(0xffffffffffffffffffffffffffffffffffffffffffffffffffffffff), 0x29e99f0700000000000000000000000000000000000000000000000000000000)\n      0x20\n      dup3\n      add\n      dup1\n      mload\n      0xffffffffffffffffffffffffffffffffffffffffffffffffffffffff\n      dup4\n      dup2\n      dup4\n      and\n      or\n      dup4\n      mstore\n      pop\n      pop\n      pop\n      pop\n        /* \"contracts/Transfer.sol\":928:996  bytes memory msgData = abi.encodeWithSignature(\"test(uint256)\", 213) */\n      swap1\n      pop\n        /* \"contracts/Transfer.sol\":1044:1056  bool success */\n      0x00\n        /* \"contracts/Transfer.sol\":1058:1075  bytes memory data */\n      0x00\n        /* \"contracts/Transfer.sol\":1087:1091  test */\n      0x00\n      0x00\n      swap1\n      sload\n      swap1\n      0x0100\n      exp\n      swap1\n      div\n      0xffffffffffffffffffffffffffffffffffffffff\n      and\n        /* \"contracts/Transfer.sol\":1079:1097  address(test).call */\n      0xffffffffffffffffffffffffffffffffffffffff\n      and\n        /* \"contracts/Transfer.sol\":1105:1114  msg.value */\n      callvalue\n        /* \"contracts/Transfer.sol\":1116:1123  msgData */\n      dup5\n        /* \"contracts/Transfer.sol\":1079:1124  address(test).call{value: msg.value}(msgData) */\n      mload(0x40)\n      tag_17\n      swap2\n      swap1\n      tag_18\n      jump\t// in\n    tag_17:\n      0x00\n      mload(0x40)\n      dup1\n      dup4\n      sub\n      dup2\n      dup6\n      dup8\n      gas\n      call\n      swap3\n      pop\n      pop\n      pop\n      returndatasize\n      dup1\n      0x00\n      dup2\n      eq\n      tag_21\n      jumpi\n      mload(0x40)\n      swap2\n      pop\n      and(add(returndatasize, 0x3f), not(0x1f))\n      dup3\n      add\n      0x40\n      mstore\n      returndatasize\n      dup3\n      mstore\n      returndatasize\n      0x00\n      0x20\n      dup5\n      add\n      returndatacopy\n      jump(tag_20)\n    tag_21:\n      0x60\n      swap2\n      pop\n    tag_20:\n      pop\n        /* \"contracts/Transfer.sol\":1043:1124  (bool success, bytes memory data) = address(test).call{value: msg.value}(msgData) */\n      swap2\n      pop\n      swap2\n      pop\n        /* \"contracts/Transfer.sol\":1187:1194  success */\n      dup2\n        /* \"contracts/Transfer.sol\":1196:1200  data */\n      dup2\n        /* \"contracts/Transfer.sol\":1179:1201  return (success, data) */\n      swap5\n      pop\n      swap5\n      pop\n      pop\n      pop\n      pop\n        /* \"contracts/Transfer.sol\":826:1209  function pay3() public payable returns(bool, bytes memory) {... */\n      swap1\n      swap2\n      jump\t// out\n        /* \"contracts/Transfer.sol\":692:820  function pay2() public payable {... */\n    tag_10:\n        /* \"contracts/Transfer.sol\":734:738  test */\n      0x00\n      0x00\n      swap1\n      sload\n      swap1\n      0x0100\n      exp\n      swap1\n      div\n      0xffffffffffffffffffffffffffffffffffffffff\n      and\n        /* \"contracts/Transfer.sol\":734:743  test.test */\n      0xffffffffffffffffffffffffffffffffffffffff\n      and\n      0xf8a8fd6d\n        /* \"contracts/Transfer.sol\":751:760  msg.value */\n      callvalue\n        /* \"contracts/Transfer.sol\":734:763  test.test{value: msg.value}() */\n      mload(0x40)\n      dup3\n      0xffffffff\n      and\n      0xe0\n      shl\n      dup2\n      mstore\n      0x04\n      add\n      0x00\n      mload(0x40)\n      dup1\n      dup4\n      sub\n      dup2\n      dup6\n      dup9\n      gas\n      call\n      iszero\n      dup1\n      iszero\n      tag_24\n      jumpi\n      returndatacopy(0x00, 0x00, returndatasize)\n      revert(0x00, returndatasize)\n    tag_24:\n      pop\n      pop\n      pop\n      pop\n      pop\n      mload(0x40)\n      returndatasize\n      0x00\n      dup3\n      returndatacopy\n      returndatasize\n      not(0x1f)\n      0x1f\n      dup3\n      add\n      and\n      dup3\n      add\n      dup1\n      0x40\n      mstore\n      pop\n      dup2\n      add\n      swap1\n      tag_25\n      swap2\n      swap1\n      tag_26\n      jump\t// in\n    tag_25:\n      pop\n        /* \"contracts/Transfer.sol\":692:820  function pay2() public payable {... */\n      jump\t// out\n        /* \"contracts/Transfer.sol\":455:686  function pay1() public payable returns(bool, bytes memory) {... */\n    tag_12:\n        /* \"contracts/Transfer.sol\":494:498  bool */\n      0x00\n        /* \"contracts/Transfer.sol\":500:512  bytes memory */\n      0x60\n        /* \"contracts/Transfer.sol\":526:538  bool success */\n      0x00\n        /* \"contracts/Transfer.sol\":540:557  bytes memory data */\n      0x00\n        /* \"contracts/Transfer.sol\":569:573  test */\n      0x00\n      0x00\n      swap1\n      sload\n      swap1\n      0x0100\n      exp\n      swap1\n      div\n      0xffffffffffffffffffffffffffffffffffffffff\n      and\n        /* \"contracts/Transfer.sol\":561:579  address(test).call */\n      0xffffffffffffffffffffffffffffffffffffffff\n      and\n        /* \"contracts/Transfer.sol\":587:596  msg.value */\n      callvalue\n        /* \"contracts/Transfer.sol\":561:601  address(test).call{value: msg.value}(\"\") */\n      mload(0x40)\n      tag_28\n      swap1\n      tag_29\n      jump\t// in\n    tag_28:\n      0x00\n      mload(0x40)\n      dup1\n      dup4\n      sub\n      dup2\n      dup6\n      dup8\n      gas\n      call\n      swap3\n      pop\n      pop\n      pop\n      returndatasize\n      dup1\n      0x00\n      dup2\n      eq\n      tag_32\n      jumpi\n      mload(0x40)\n      swap2\n      pop\n      and(add(returndatasize, 0x3f), not(0x1f))\n      dup3\n      add\n      0x40\n      mstore\n      returndatasize\n      dup3\n      mstore\n      returndatasize\n      0x00\n      0x20\n      dup5\n      add\n      returndatacopy\n      jump(tag_31)\n    tag_32:\n      0x60\n      swap2\n      pop\n    tag_31:\n      pop\n        /* \"contracts/Transfer.sol\":525:601  (bool success, bytes memory data) = address(test).call{value: msg.value}(\"\") */\n      swap2\n      pop\n      swap2\n      pop\n        /* \"contracts/Transfer.sol\":664:671  success */\n      dup2\n        /* \"contracts/Transfer.sol\":673:677  data */\n      dup2\n        /* \"contracts/Transfer.sol\":656:678  return (success, data) */\n      swap4\n      pop\n      swap4\n      pop\n      pop\n      pop\n        /* \"contracts/Transfer.sol\":455:686  function pay1() public payable returns(bool, bytes memory) {... */\n      swap1\n      swap2\n      jump\t// out\n        /* \"#utility.yul\":7:97   */\n    tag_33:\n        /* \"#utility.yul\":41:48   */\n      0x00\n        /* \"#utility.yul\":84:89   */\n      dup2\n        /* \"#utility.yul\":77:90   */\n      iszero\n        /* \"#utility.yul\":70:91   */\n      iszero\n        /* \"#utility.yul\":59:91   */\n      swap1\n      pop\n        /* \"#utility.yul\":7:97   */\n      swap2\n      swap1\n      pop\n      jump\t// out\n        /* \"#utility.yul\":103:212   */\n    tag_34:\n        /* \"#utility.yul\":184:205   */\n      tag_63\n        /* \"#utility.yul\":199:204   */\n      dup2\n        /* \"#utility.yul\":184:205   */\n      tag_33\n      jump\t// in\n    tag_63:\n        /* \"#utility.yul\":179:182   */\n      dup3\n        /* \"#utility.yul\":172:206   */\n      mstore\n        /* \"#utility.yul\":103:212   */\n      pop\n      pop\n      jump\t// out\n        /* \"#utility.yul\":218:316   */\n    tag_35:\n        /* \"#utility.yul\":269:275   */\n      0x00\n        /* \"#utility.yul\":303:308   */\n      dup2\n        /* \"#utility.yul\":297:309   */\n      mload\n        /* \"#utility.yul\":287:309   */\n      swap1\n      pop\n        /* \"#utility.yul\":218:316   */\n      swap2\n      swap1\n      pop\n      jump\t// out\n        /* \"#utility.yul\":322:490   */\n    tag_36:\n        /* \"#utility.yul\":405:416   */\n      0x00\n        /* \"#utility.yul\":439:445   */\n      dup3\n        /* \"#utility.yul\":434:437   */\n      dup3\n        /* \"#utility.yul\":427:446   */\n      mstore\n        /* \"#utility.yul\":479:483   */\n      0x20\n        /* \"#utility.yul\":474:477   */\n      dup3\n        /* \"#utility.yul\":470:484   */\n      add\n        /* \"#utility.yul\":455:484   */\n      swap1\n      pop\n        /* \"#utility.yul\":322:490   */\n      swap3\n      swap2\n      pop\n      pop\n      jump\t// out\n        /* \"#utility.yul\":496:635   */\n    tag_37:\n        /* \"#utility.yul\":585:591   */\n      dup3\n        /* \"#utility.yul\":580:583   */\n      dup2\n        /* \"#utility.yul\":575:578   */\n      dup4\n        /* \"#utility.yul\":569:592   */\n      mcopy\n        /* \"#utility.yul\":626:627   */\n      0x00\n        /* \"#utility.yul\":617:623   */\n      dup4\n        /* \"#utility.yul\":612:615   */\n      dup4\n        /* \"#utility.yul\":608:624   */\n      add\n        /* \"#utility.yul\":601:628   */\n      mstore\n        /* \"#utility.yul\":496:635   */\n      pop\n      pop\n      pop\n      jump\t// out\n        /* \"#utility.yul\":641:743   */\n    tag_38:\n        /* \"#utility.yul\":682:688   */\n      0x00\n        /* \"#utility.yul\":733:735   */\n      0x1f\n        /* \"#utility.yul\":729:736   */\n      not\n        /* \"#utility.yul\":724:726   */\n      0x1f\n        /* \"#utility.yul\":717:722   */\n      dup4\n        /* \"#utility.yul\":713:727   */\n      add\n        /* \"#utility.yul\":709:737   */\n      and\n        /* \"#utility.yul\":699:737   */\n      swap1\n      pop\n        /* \"#utility.yul\":641:743   */\n      swap2\n      swap1\n      pop\n      jump\t// out\n        /* \"#utility.yul\":749:1122   */\n    tag_39:\n        /* \"#utility.yul\":835:838   */\n      0x00\n        /* \"#utility.yul\":863:901   */\n      tag_69\n        /* \"#utility.yul\":895:900   */\n      dup3\n        /* \"#utility.yul\":863:901   */\n      tag_35\n      jump\t// in\n    tag_69:\n        /* \"#utility.yul\":917:987   */\n      tag_70\n        /* \"#utility.yul\":980:986   */\n      dup2\n        /* \"#utility.yul\":975:978   */\n      dup6\n        /* \"#utility.yul\":917:987   */\n      tag_36\n      jump\t// in\n    tag_70:\n        /* \"#utility.yul\":910:987   */\n      swap4\n      pop\n        /* \"#utility.yul\":996:1061   */\n      tag_71\n        /* \"#utility.yul\":1054:1060   */\n      dup2\n        /* \"#utility.yul\":1049:1052   */\n      dup6\n        /* \"#utility.yul\":1042:1046   */\n      0x20\n        /* \"#utility.yul\":1035:1040   */\n      dup7\n        /* \"#utility.yul\":1031:1047   */\n      add\n        /* \"#utility.yul\":996:1061   */\n      tag_37\n      jump\t// in\n    tag_71:\n        /* \"#utility.yul\":1086:1115   */\n      tag_72\n        /* \"#utility.yul\":1108:1114   */\n      dup2\n        /* \"#utility.yul\":1086:1115   */\n      tag_38\n      jump\t// in\n    tag_72:\n        /* \"#utility.yul\":1081:1084   */\n      dup5\n        /* \"#utility.yul\":1077:1116   */\n      add\n        /* \"#utility.yul\":1070:1116   */\n      swap2\n      pop\n        /* \"#utility.yul\":839:1122   */\n      pop\n        /* \"#utility.yul\":749:1122   */\n      swap3\n      swap2\n      pop\n      pop\n      jump\t// out\n        /* \"#utility.yul\":1128:1535   */\n    tag_8:\n        /* \"#utility.yul\":1261:1265   */\n      0x00\n        /* \"#utility.yul\":1299:1301   */\n      0x40\n        /* \"#utility.yul\":1288:1297   */\n      dup3\n        /* \"#utility.yul\":1284:1302   */\n      add\n        /* \"#utility.yul\":1276:1302   */\n      swap1\n      pop\n        /* \"#utility.yul\":1312:1377   */\n      tag_74\n        /* \"#utility.yul\":1374:1375   */\n      0x00\n        /* \"#utility.yul\":1363:1372   */\n      dup4\n        /* \"#utility.yul\":1359:1376   */\n      add\n        /* \"#utility.yul\":1350:1356   */\n      dup6\n        /* \"#utility.yul\":1312:1377   */\n      tag_34\n      jump\t// in\n    tag_74:\n        /* \"#utility.yul\":1424:1433   */\n      dup2\n        /* \"#utility.yul\":1418:1422   */\n      dup2\n        /* \"#utility.yul\":1414:1434   */\n      sub\n        /* \"#utility.yul\":1409:1411   */\n      0x20\n        /* \"#utility.yul\":1398:1407   */\n      dup4\n        /* \"#utility.yul\":1394:1412   */\n      add\n        /* \"#utility.yul\":1387:1435   */\n      mstore\n        /* \"#utility.yul\":1452:1528   */\n      tag_75\n        /* \"#utility.yul\":1523:1527   */\n      dup2\n        /* \"#utility.yul\":1514:1520   */\n      dup5\n        /* \"#utility.yul\":1452:1528   */\n      tag_39\n      jump\t// in\n    tag_75:\n        /* \"#utility.yul\":1444:1528   */\n      swap1\n      pop\n        /* \"#utility.yul\":1128:1535   */\n      swap4\n      swap3\n      pop\n      pop\n      pop\n      jump\t// out\n        /* \"#utility.yul\":1541:1628   */\n    tag_40:\n        /* \"#utility.yul\":1588:1595   */\n      0x00\n        /* \"#utility.yul\":1617:1622   */\n      dup2\n        /* \"#utility.yul\":1606:1622   */\n      swap1\n      pop\n        /* \"#utility.yul\":1541:1628   */\n      swap2\n      swap1\n      pop\n      jump\t// out\n        /* \"#utility.yul\":1634:1720   */\n    tag_41:\n        /* \"#utility.yul\":1669:1676   */\n      0x00\n        /* \"#utility.yul\":1709:1713   */\n      0xff\n        /* \"#utility.yul\":1702:1707   */\n      dup3\n        /* \"#utility.yul\":1698:1714   */\n      and\n        /* \"#utility.yul\":1687:1714   */\n      swap1\n      pop\n        /* \"#utility.yul\":1634:1720   */\n      swap2\n      swap1\n      pop\n      jump\t// out\n        /* \"#utility.yul\":1726:1786   */\n    tag_42:\n        /* \"#utility.yul\":1754:1757   */\n      0x00\n        /* \"#utility.yul\":1775:1780   */\n      dup2\n        /* \"#utility.yul\":1768:1780   */\n      swap1\n      pop\n        /* \"#utility.yul\":1726:1786   */\n      swap2\n      swap1\n      pop\n      jump\t// out\n        /* \"#utility.yul\":1792:1950   */\n    tag_43:\n        /* \"#utility.yul\":1850:1859   */\n      0x00\n        /* \"#utility.yul\":1883:1944   */\n      tag_80\n        /* \"#utility.yul\":1899:1943   */\n      tag_81\n        /* \"#utility.yul\":1908:1942   */\n      tag_82\n        /* \"#utility.yul\":1936:1941   */\n      dup5\n        /* \"#utility.yul\":1908:1942   */\n      tag_40\n      jump\t// in\n    tag_82:\n        /* \"#utility.yul\":1899:1943   */\n      tag_42\n      jump\t// in\n    tag_81:\n        /* \"#utility.yul\":1883:1944   */\n      tag_41\n      jump\t// in\n    tag_80:\n        /* \"#utility.yul\":1870:1944   */\n      swap1\n      pop\n        /* \"#utility.yul\":1792:1950   */\n      swap2\n      swap1\n      pop\n      jump\t// out\n        /* \"#utility.yul\":1956:2103   */\n    tag_44:\n        /* \"#utility.yul\":2051:2096   */\n      tag_84\n        /* \"#utility.yul\":2090:2095   */\n      dup2\n        /* \"#utility.yul\":2051:2096   */\n      tag_43\n      jump\t// in\n    tag_84:\n        /* \"#utility.yul\":2046:2049   */\n      dup3\n        /* \"#utility.yul\":2039:2097   */\n      mstore\n        /* \"#utility.yul\":1956:2103   */\n      pop\n      pop\n      jump\t// out\n        /* \"#utility.yul\":2109:2347   */\n    tag_16:\n        /* \"#utility.yul\":2210:2214   */\n      0x00\n        /* \"#utility.yul\":2248:2250   */\n      0x20\n        /* \"#utility.yul\":2237:2246   */\n      dup3\n        /* \"#utility.yul\":2233:2251   */\n      add\n        /* \"#utility.yul\":2225:2251   */\n      swap1\n      pop\n        /* \"#utility.yul\":2261:2340   */\n      tag_86\n        /* \"#utility.yul\":2337:2338   */\n      0x00\n        /* \"#utility.yul\":2326:2335   */\n      dup4\n        /* \"#utility.yul\":2322:2339   */\n      add\n        /* \"#utility.yul\":2313:2319   */\n      dup5\n        /* \"#utility.yul\":2261:2340   */\n      tag_44\n      jump\t// in\n    tag_86:\n        /* \"#utility.yul\":2109:2347   */\n      swap3\n      swap2\n      pop\n      pop\n      jump\t// out\n        /* \"#utility.yul\":2353:2500   */\n    tag_45:\n        /* \"#utility.yul\":2454:2465   */\n      0x00\n        /* \"#utility.yul\":2491:2494   */\n      dup2\n        /* \"#utility.yul\":2476:2494   */\n      swap1\n      pop\n        /* \"#utility.yul\":2353:2500   */\n      swap3\n      swap2\n      pop\n      pop\n      jump\t// out\n        /* \"#utility.yul\":2506:2892   */\n    tag_46:\n        /* \"#utility.yul\":2610:2613   */\n      0x00\n        /* \"#utility.yul\":2638:2676   */\n      tag_89\n        /* \"#utility.yul\":2670:2675   */\n      dup3\n        /* \"#utility.yul\":2638:2676   */\n      tag_35\n      jump\t// in\n    tag_89:\n        /* \"#utility.yul\":2692:2780   */\n      tag_90\n        /* \"#utility.yul\":2773:2779   */\n      dup2\n        /* \"#utility.yul\":2768:2771   */\n      dup6\n        /* \"#utility.yul\":2692:2780   */\n      tag_45\n      jump\t// in\n    tag_90:\n        /* \"#utility.yul\":2685:2780   */\n      swap4\n      pop\n        /* \"#utility.yul\":2789:2854   */\n      tag_91\n        /* \"#utility.yul\":2847:2853   */\n      dup2\n        /* \"#utility.yul\":2842:2845   */\n      dup6\n        /* \"#utility.yul\":2835:2839   */\n      0x20\n        /* \"#utility.yul\":2828:2833   */\n      dup7\n        /* \"#utility.yul\":2824:2840   */\n      add\n        /* \"#utility.yul\":2789:2854   */\n      tag_37\n      jump\t// in\n    tag_91:\n        /* \"#utility.yul\":2879:2885   */\n      dup1\n        /* \"#utility.yul\":2874:2877   */\n      dup5\n        /* \"#utility.yul\":2870:2886   */\n      add\n        /* \"#utility.yul\":2863:2886   */\n      swap2\n      pop\n        /* \"#utility.yul\":2614:2892   */\n      pop\n        /* \"#utility.yul\":2506:2892   */\n      swap3\n      swap2\n      pop\n      pop\n      jump\t// out\n        /* \"#utility.yul\":2898:3169   */\n    tag_18:\n        /* \"#utility.yul\":3028:3031   */\n      0x00\n        /* \"#utility.yul\":3050:3143   */\n      tag_93\n        /* \"#utility.yul\":3139:3142   */\n      dup3\n        /* \"#utility.yul\":3130:3136   */\n      dup5\n        /* \"#utility.yul\":3050:3143   */\n      tag_46\n      jump\t// in\n    tag_93:\n        /* \"#utility.yul\":3043:3143   */\n      swap2\n      pop\n        /* \"#utility.yul\":3160:3163   */\n      dup2\n        /* \"#utility.yul\":3153:3163   */\n      swap1\n      pop\n        /* \"#utility.yul\":2898:3169   */\n      swap3\n      swap2\n      pop\n      pop\n      jump\t// out\n        /* \"#utility.yul\":3175:3250   */\n    tag_47:\n        /* \"#utility.yul\":3208:3214   */\n      0x00\n        /* \"#utility.yul\":3241:3243   */\n      0x40\n        /* \"#utility.yul\":3235:3244   */\n      mload\n        /* \"#utility.yul\":3225:3244   */\n      swap1\n      pop\n        /* \"#utility.yul\":3175:3250   */\n      swap1\n      jump\t// out\n        /* \"#utility.yul\":3256:3373   */\n    tag_48:\n        /* \"#utility.yul\":3365:3366   */\n      0x00\n        /* \"#utility.yul\":3362:3363   */\n      0x00\n        /* \"#utility.yul\":3355:3367   */\n      revert\n        /* \"#utility.yul\":3379:3496   */\n    tag_49:\n        /* \"#utility.yul\":3488:3489   */\n      0x00\n        /* \"#utility.yul\":3485:3486   */\n      0x00\n        /* \"#utility.yul\":3478:3490   */\n      revert\n        /* \"#utility.yul\":3502:3619   */\n    tag_50:\n        /* \"#utility.yul\":3611:3612   */\n      0x00\n        /* \"#utility.yul\":3608:3609   */\n      0x00\n        /* \"#utility.yul\":3601:3613   */\n      revert\n        /* \"#utility.yul\":3625:3742   */\n    tag_51:\n        /* \"#utility.yul\":3734:3735   */\n      0x00\n        /* \"#utility.yul\":3731:3732   */\n      0x00\n        /* \"#utility.yul\":3724:3736   */\n      revert\n        /* \"#utility.yul\":3748:3928   */\n    tag_52:\n        /* \"#utility.yul\":3796:3873   */\n      0x4e487b7100000000000000000000000000000000000000000000000000000000\n        /* \"#utility.yul\":3793:3794   */\n      0x00\n        /* \"#utility.yul\":3786:3874   */\n      mstore\n        /* \"#utility.yul\":3893:3897   */\n      0x41\n        /* \"#utility.yul\":3890:3891   */\n      0x04\n        /* \"#utility.yul\":3883:3898   */\n      mstore\n        /* \"#utility.yul\":3917:3921   */\n      0x24\n        /* \"#utility.yul\":3914:3915   */\n      0x00\n        /* \"#utility.yul\":3907:3922   */\n      revert\n        /* \"#utility.yul\":3934:4215   */\n    tag_53:\n        /* \"#utility.yul\":4017:4044   */\n      tag_101\n        /* \"#utility.yul\":4039:4043   */\n      dup3\n        /* \"#utility.yul\":4017:4044   */\n      tag_38\n      jump\t// in\n    tag_101:\n        /* \"#utility.yul\":4009:4015   */\n      dup2\n        /* \"#utility.yul\":4005:4045   */\n      add\n        /* \"#utility.yul\":4147:4153   */\n      dup2\n        /* \"#utility.yul\":4135:4145   */\n      dup2\n        /* \"#utility.yul\":4132:4154   */\n      lt\n        /* \"#utility.yul\":4111:4129   */\n      0xffffffffffffffff\n        /* \"#utility.yul\":4099:4109   */\n      dup3\n        /* \"#utility.yul\":4096:4130   */\n      gt\n        /* \"#utility.yul\":4093:4155   */\n      or\n        /* \"#utility.yul\":4090:4178   */\n      iszero\n      tag_102\n      jumpi\n        /* \"#utility.yul\":4158:4176   */\n      tag_103\n      tag_52\n      jump\t// in\n    tag_103:\n        /* \"#utility.yul\":4090:4178   */\n    tag_102:\n        /* \"#utility.yul\":4198:4208   */\n      dup1\n        /* \"#utility.yul\":4194:4196   */\n      0x40\n        /* \"#utility.yul\":4187:4209   */\n      mstore\n        /* \"#utility.yul\":3977:4215   */\n      pop\n        /* \"#utility.yul\":3934:4215   */\n      pop\n      pop\n      jump\t// out\n        /* \"#utility.yul\":4221:4350   */\n    tag_54:\n        /* \"#utility.yul\":4255:4261   */\n      0x00\n        /* \"#utility.yul\":4282:4302   */\n      tag_105\n      tag_47\n      jump\t// in\n    tag_105:\n        /* \"#utility.yul\":4272:4302   */\n      swap1\n      pop\n        /* \"#utility.yul\":4311:4344   */\n      tag_106\n        /* \"#utility.yul\":4339:4343   */\n      dup3\n        /* \"#utility.yul\":4331:4337   */\n      dup3\n        /* \"#utility.yul\":4311:4344   */\n      tag_53\n      jump\t// in\n    tag_106:\n        /* \"#utility.yul\":4221:4350   */\n      swap2\n      swap1\n      pop\n      jump\t// out\n        /* \"#utility.yul\":4356:4663   */\n    tag_55:\n        /* \"#utility.yul\":4417:4421   */\n      0x00\n        /* \"#utility.yul\":4507:4525   */\n      0xffffffffffffffff\n        /* \"#utility.yul\":4499:4505   */\n      dup3\n        /* \"#utility.yul\":4496:4526   */\n      gt\n        /* \"#utility.yul\":4493:4549   */\n      iszero\n      tag_108\n      jumpi\n        /* \"#utility.yul\":4529:4547   */\n      tag_109\n      tag_52\n      jump\t// in\n    tag_109:\n        /* \"#utility.yul\":4493:4549   */\n    tag_108:\n        /* \"#utility.yul\":4567:4596   */\n      tag_110\n        /* \"#utility.yul\":4589:4595   */\n      dup3\n        /* \"#utility.yul\":4567:4596   */\n      tag_38\n      jump\t// in\n    tag_110:\n        /* \"#utility.yul\":4559:4596   */\n      swap1\n      pop\n        /* \"#utility.yul\":4651:4655   */\n      0x20\n        /* \"#utility.yul\":4645:4649   */\n      dup2\n        /* \"#utility.yul\":4641:4656   */\n      add\n        /* \"#utility.yul\":4633:4656   */\n      swap1\n      pop\n        /* \"#utility.yul\":4356:4663   */\n      swap2\n      swap1\n      pop\n      jump\t// out\n        /* \"#utility.yul\":4669:5101   */\n    tag_56:\n        /* \"#utility.yul\":4757:4762   */\n      0x00\n        /* \"#utility.yul\":4782:4847   */\n      tag_112\n        /* \"#utility.yul\":4798:4846   */\n      tag_113\n        /* \"#utility.yul\":4839:4845   */\n      dup5\n        /* \"#utility.yul\":4798:4846   */\n      tag_55\n      jump\t// in\n    tag_113:\n        /* \"#utility.yul\":4782:4847   */\n      tag_54\n      jump\t// in\n    tag_112:\n        /* \"#utility.yul\":4773:4847   */\n      swap1\n      pop\n        /* \"#utility.yul\":4870:4876   */\n      dup3\n        /* \"#utility.yul\":4863:4868   */\n      dup2\n        /* \"#utility.yul\":4856:4877   */\n      mstore\n        /* \"#utility.yul\":4908:4912   */\n      0x20\n        /* \"#utility.yul\":4901:4906   */\n      dup2\n        /* \"#utility.yul\":4897:4913   */\n      add\n        /* \"#utility.yul\":4946:4949   */\n      dup5\n        /* \"#utility.yul\":4937:4943   */\n      dup5\n        /* \"#utility.yul\":4932:4935   */\n      dup5\n        /* \"#utility.yul\":4928:4944   */\n      add\n        /* \"#utility.yul\":4925:4950   */\n      gt\n        /* \"#utility.yul\":4922:5034   */\n      iszero\n      tag_114\n      jumpi\n        /* \"#utility.yul\":4953:5032   */\n      tag_115\n      tag_51\n      jump\t// in\n    tag_115:\n        /* \"#utility.yul\":4922:5034   */\n    tag_114:\n        /* \"#utility.yul\":5043:5095   */\n      tag_116\n        /* \"#utility.yul\":5088:5094   */\n      dup5\n        /* \"#utility.yul\":5083:5086   */\n      dup3\n        /* \"#utility.yul\":5078:5081   */\n      dup6\n        /* \"#utility.yul\":5043:5095   */\n      tag_37\n      jump\t// in\n    tag_116:\n        /* \"#utility.yul\":4763:5101   */\n      pop\n        /* \"#utility.yul\":4669:5101   */\n      swap4\n      swap3\n      pop\n      pop\n      pop\n      jump\t// out\n        /* \"#utility.yul\":5120:5473   */\n    tag_57:\n        /* \"#utility.yul\":5186:5191   */\n      0x00\n        /* \"#utility.yul\":5235:5238   */\n      dup3\n        /* \"#utility.yul\":5228:5232   */\n      0x1f\n        /* \"#utility.yul\":5220:5226   */\n      dup4\n        /* \"#utility.yul\":5216:5233   */\n      add\n        /* \"#utility.yul\":5212:5239   */\n      slt\n        /* \"#utility.yul\":5202:5324   */\n      tag_118\n      jumpi\n        /* \"#utility.yul\":5243:5322   */\n      tag_119\n      tag_50\n      jump\t// in\n    tag_119:\n        /* \"#utility.yul\":5202:5324   */\n    tag_118:\n        /* \"#utility.yul\":5353:5359   */\n      dup2\n        /* \"#utility.yul\":5347:5360   */\n      mload\n        /* \"#utility.yul\":5378:5467   */\n      tag_120\n        /* \"#utility.yul\":5463:5466   */\n      dup5\n        /* \"#utility.yul\":5455:5461   */\n      dup3\n        /* \"#utility.yul\":5448:5452   */\n      0x20\n        /* \"#utility.yul\":5440:5446   */\n      dup7\n        /* \"#utility.yul\":5436:5453   */\n      add\n        /* \"#utility.yul\":5378:5467   */\n      tag_56\n      jump\t// in\n    tag_120:\n        /* \"#utility.yul\":5369:5467   */\n      swap2\n      pop\n        /* \"#utility.yul\":5192:5473   */\n      pop\n        /* \"#utility.yul\":5120:5473   */\n      swap3\n      swap2\n      pop\n      pop\n      jump\t// out\n        /* \"#utility.yul\":5479:6001   */\n    tag_26:\n        /* \"#utility.yul\":5558:5564   */\n      0x00\n        /* \"#utility.yul\":5607:5609   */\n      0x20\n        /* \"#utility.yul\":5595:5604   */\n      dup3\n        /* \"#utility.yul\":5586:5593   */\n      dup5\n        /* \"#utility.yul\":5582:5605   */\n      sub\n        /* \"#utility.yul\":5578:5610   */\n      slt\n        /* \"#utility.yul\":5575:5694   */\n      iszero\n      tag_122\n      jumpi\n        /* \"#utility.yul\":5613:5692   */\n      tag_123\n      tag_48\n      jump\t// in\n    tag_123:\n        /* \"#utility.yul\":5575:5694   */\n    tag_122:\n        /* \"#utility.yul\":5754:5755   */\n      0x00\n        /* \"#utility.yul\":5743:5752   */\n      dup3\n        /* \"#utility.yul\":5739:5756   */\n      add\n        /* \"#utility.yul\":5733:5757   */\n      mload\n        /* \"#utility.yul\":5784:5802   */\n      0xffffffffffffffff\n        /* \"#utility.yul\":5776:5782   */\n      dup2\n        /* \"#utility.yul\":5773:5803   */\n      gt\n        /* \"#utility.yul\":5770:5887   */\n      iszero\n      tag_124\n      jumpi\n        /* \"#utility.yul\":5806:5885   */\n      tag_125\n      tag_49\n      jump\t// in\n    tag_125:\n        /* \"#utility.yul\":5770:5887   */\n    tag_124:\n        /* \"#utility.yul\":5911:5984   */\n      tag_126\n        /* \"#utility.yul\":5976:5983   */\n      dup5\n        /* \"#utility.yul\":5967:5973   */\n      dup3\n        /* \"#utility.yul\":5956:5965   */\n      dup6\n        /* \"#utility.yul\":5952:5974   */\n      add\n        /* \"#utility.yul\":5911:5984   */\n      tag_57\n      jump\t// in\n    tag_126:\n        /* \"#utility.yul\":5901:5984   */\n      swap2\n      pop\n        /* \"#utility.yul\":5704:5994   */\n      pop\n        /* \"#utility.yul\":5479:6001   */\n      swap3\n      swap2\n      pop\n      pop\n      jump\t// out\n        /* \"#utility.yul\":6007:6121   */\n    tag_58:\n      pop\n      jump\t// out\n        /* \"#utility.yul\":6127:6525   */\n    tag_59:\n        /* \"#utility.yul\":6286:6289   */\n      0x00\n        /* \"#utility.yul\":6307:6390   */\n      tag_129\n        /* \"#utility.yul\":6388:6389   */\n      0x00\n        /* \"#utility.yul\":6383:6386   */\n      dup4\n        /* \"#utility.yul\":6307:6390   */\n      tag_45\n      jump\t// in\n    tag_129:\n        /* \"#utility.yul\":6300:6390   */\n      swap2\n      pop\n        /* \"#utility.yul\":6399:6492   */\n      tag_130\n        /* \"#utility.yul\":6488:6491   */\n      dup3\n        /* \"#utility.yul\":6399:6492   */\n      tag_58\n      jump\t// in\n    tag_130:\n        /* \"#utility.yul\":6517:6518   */\n      0x00\n        /* \"#utility.yul\":6512:6515   */\n      dup3\n        /* \"#utility.yul\":6508:6519   */\n      add\n        /* \"#utility.yul\":6501:6519   */\n      swap1\n      pop\n        /* \"#utility.yul\":6127:6525   */\n      swap2\n      swap1\n      pop\n      jump\t// out\n        /* \"#utility.yul\":6531:6910   */\n    tag_29:\n        /* \"#utility.yul\":6715:6718   */\n      0x00\n        /* \"#utility.yul\":6737:6884   */\n      tag_132\n        /* \"#utility.yul\":6880:6883   */\n      dup3\n        /* \"#utility.yul\":6737:6884   */\n      tag_59\n      jump\t// in\n    tag_132:\n        /* \"#utility.yul\":6730:6884   */\n      swap2\n      pop\n        /* \"#utility.yul\":6901:6904   */\n      dup2\n        /* \"#utility.yul\":6894:6904   */\n      swap1\n      pop\n        /* \"#utility.yul\":6531:6910   */\n      swap2\n      swap1\n      pop\n      jump\t// out\n\n    auxdata: 0xa26469706673582212202241161014c930f4325a61d050669f2ffa4481a49e2cbdb24f678b8f5a3e50f564736f6c634300081e0033\n}\n",
				"bytecode": {
					"linkReferences": {},
					"object": "608060405234801561000f575f5ffd5b5060405161073a38038061073a833981810160405281019061003191906100d4565b805f5f6101000a81548173ffffffffffffffffffffffffffffffffffffffff021916908373ffffffffffffffffffffffffffffffffffffffff160217905550506100ff565b5f5ffd5b5f73ffffffffffffffffffffffffffffffffffffffff82169050919050565b5f6100a38261007a565b9050919050565b6100b381610099565b81146100bd575f5ffd5b50565b5f815190506100ce816100aa565b92915050565b5f602082840312156100e9576100e8610076565b5b5f6100f6848285016100c0565b91505092915050565b61062e8061010c5f395ff3fe608060405260043610610033575f3560e01c806346108f52146100375780637e1b3abf14610056578063f6a1580514610060575b5f5ffd5b61003f61007f565b60405161004d929190610366565b60405180910390f35b61005e6101ad565b005b610068610243565b604051610076929190610366565b60405180910390f35b5f60605f60d560405160240161009591906103e2565b6040516020818303038152906040527f29e99f07000000000000000000000000000000000000000000000000000000007bffffffffffffffffffffffffffffffffffffffffffffffffffffffff19166020820180517bffffffffffffffffffffffffffffffffffffffffffffffffffffffff838183161783525050505090505f5f5f5f9054906101000a900473ffffffffffffffffffffffffffffffffffffffff1673ffffffffffffffffffffffffffffffffffffffff16348460405161015c9190610435565b5f6040518083038185875af1925050503d805f8114610196576040519150601f19603f3d011682016040523d82523d5f602084013e61019b565b606091505b50915091508181945094505050509091565b5f5f9054906101000a900473ffffffffffffffffffffffffffffffffffffffff1673ffffffffffffffffffffffffffffffffffffffff1663f8a8fd6d346040518263ffffffff1660e01b81526004015f6040518083038185885af1158015610217573d5f5f3e3d5ffd5b50505050506040513d5f823e3d601f19601f82011682018060405250810190610240919061057a565b50565b5f60605f5f5f5f9054906101000a900473ffffffffffffffffffffffffffffffffffffffff1673ffffffffffffffffffffffffffffffffffffffff163460405161028c906105e4565b5f6040518083038185875af1925050503d805f81146102c6576040519150601f19603f3d011682016040523d82523d5f602084013e6102cb565b606091505b509150915081819350935050509091565b5f8115159050919050565b6102f0816102dc565b82525050565b5f81519050919050565b5f82825260208201905092915050565b8281835e5f83830152505050565b5f601f19601f8301169050919050565b5f610338826102f6565b6103428185610300565b9350610352818560208601610310565b61035b8161031e565b840191505092915050565b5f6040820190506103795f8301856102e7565b818103602083015261038b818461032e565b90509392505050565b5f819050919050565b5f60ff82169050919050565b5f819050919050565b5f6103cc6103c76103c284610394565b6103a9565b61039d565b9050919050565b6103dc816103b2565b82525050565b5f6020820190506103f55f8301846103d3565b92915050565b5f81905092915050565b5f61040f826102f6565b61041981856103fb565b9350610429818560208601610310565b80840191505092915050565b5f6104408284610405565b915081905092915050565b5f604051905090565b5f5ffd5b5f5ffd5b5f5ffd5b5f5ffd5b7f4e487b71000000000000000000000000000000000000000000000000000000005f52604160045260245ffd5b61049a8261031e565b810181811067ffffffffffffffff821117156104b9576104b8610464565b5b80604052505050565b5f6104cb61044b565b90506104d78282610491565b919050565b5f67ffffffffffffffff8211156104f6576104f5610464565b5b6104ff8261031e565b9050602081019050919050565b5f61051e610519846104dc565b6104c2565b90508281526020810184848401111561053a57610539610460565b5b610545848285610310565b509392505050565b5f82601f8301126105615761056061045c565b5b815161057184826020860161050c565b91505092915050565b5f6020828403121561058f5761058e610454565b5b5f82015167ffffffffffffffff8111156105ac576105ab610458565b5b6105b88482850161054d565b91505092915050565b50565b5f6105cf5f836103fb565b91506105da826105c1565b5f82019050919050565b5f6105ee826105c4565b915081905091905056fea26469706673582212202241161014c930f4325a61d050669f2ffa4481a49e2cbdb24f678b8f5a3e50f564736f6c634300081e0033",
					"opcodes": "PUSH1 0x80 PUSH1 0x40 MSTORE CALLVALUE DUP1 ISZERO PUSH2 0xF JUMPI PUSH0 PUSH0 REVERT JUMPDEST POP PUSH1 0x40 MLOAD PUSH2 0x73A CODESIZE SUB DUP1 PUSH2 0x73A DUP4 CODECOPY DUP2 DUP2 ADD PUSH1 0x40 MSTORE DUP2 ADD SWAP1 PUSH2 0x31 SWAP2 SWAP1 PUSH2 0xD4 JUMP JUMPDEST DUP1 PUSH0 PUSH0 PUSH2 0x100 EXP DUP2 SLOAD DUP2 PUSH20 0xFFFFFFFFFFFFFFFFFFFFFFFFFFFFFFFFFFFFFFFF MUL NOT AND SWAP1 DUP4 PUSH20 0xFFFFFFFFFFFFFFFFFFFFFFFFFFFFFFFFFFFFFFFF AND MUL OR SWAP1 SSTORE POP POP PUSH2 0xFF JUMP JUMPDEST PUSH0 PUSH0 REVERT JUMPDEST PUSH0 PUSH20 0xFFFFFFFFFFFFFFFFFFFFFFFFFFFFFFFFFFFFFFFF DUP3 AND SWAP1 POP SWAP2 SWAP1 POP JUMP JUMPDEST PUSH0 PUSH2 0xA3 DUP3 PUSH2 0x7A JUMP JUMPDEST SWAP1 POP SWAP2 SWAP1 POP JUMP JUMPDEST PUSH2 0xB3 DUP2 PUSH2 0x99 JUMP JUMPDEST DUP2 EQ PUSH2 0xBD JUMPI PUSH0 PUSH0 REVERT JUMPDEST POP JUMP JUMPDEST PUSH0 DUP2 MLOAD SWAP1 POP PUSH2 0xCE DUP2 PUSH2 0xAA JUMP JUMPDEST SWAP3 SWAP2 POP POP JUMP JUMPDEST PUSH0 PUSH1 0x20 DUP3 DUP5 SUB SLT ISZERO PUSH2 0xE9 JUMPI PUSH2 0xE8 PUSH2 0x76 JUMP JUMPDEST JUMPDEST PUSH0 PUSH2 0xF6 DUP5 DUP3 DUP6 ADD PUSH2 0xC0 JUMP JUMPDEST SWAP2 POP POP SWAP3 SWAP2 POP POP JUMP JUMPDEST PUSH2 0x62E DUP1 PUSH2 0x10C PUSH0 CODECOPY PUSH0 RETURN INVALID PUSH1 0x80 PUSH1 0x40 MSTORE PUSH1 0x4 CALLDATASIZE LT PUSH2 0x33 JUMPI PUSH0 CALLDATALOAD PUSH1 0xE0 SHR DUP1 PUSH4 0x46108F52 EQ PUSH2 0x37 JUMPI DUP1 PUSH4 0x7E1B3ABF EQ PUSH2 0x56 JUMPI DUP1 PUSH4 0xF6A15805 EQ PUSH2 0x60 JUMPI JUMPDEST PUSH0 PUSH0 REVERT JUMPDEST PUSH2 0x3F PUSH2 0x7F JUMP JUMPDEST PUSH1 0x40 MLOAD PUSH2 0x4D SWAP3 SWAP2 SWAP1 PUSH2 0x366 JUMP JUMPDEST PUSH1 0x40 MLOAD DUP1 SWAP2 SUB SWAP1 RETURN JUMPDEST PUSH2 0x5E PUSH2 0x1AD JUMP JUMPDEST STOP JUMPDEST PUSH2 0x68 PUSH2 0x243 JUMP JUMPDEST PUSH1 0x40 MLOAD PUSH2 0x76 SWAP3 SWAP2 SWAP1 PUSH2 0x366 JUMP JUMPDEST PUSH1 0x40 MLOAD DUP1 SWAP2 SUB SWAP1 RETURN JUMPDEST PUSH0 PUSH1 0x60 PUSH0 PUSH1 0xD5 PUSH1 0x40 MLOAD PUSH1 0x24 ADD PUSH2 0x95 SWAP2 SWAP1 PUSH2 0x3E2 JUMP JUMPDEST PUSH1 0x40 MLOAD PUSH1 0x20 DUP2 DUP4 SUB SUB DUP2 MSTORE SWAP1 PUSH1 0x40 MSTORE PUSH32 0x29E99F0700000000000000000000000000000000000000000000000000000000 PUSH28 0xFFFFFFFFFFFFFFFFFFFFFFFFFFFFFFFFFFFFFFFFFFFFFFFFFFFFFFFF NOT AND PUSH1 0x20 DUP3 ADD DUP1 MLOAD PUSH28 0xFFFFFFFFFFFFFFFFFFFFFFFFFFFFFFFFFFFFFFFFFFFFFFFFFFFFFFFF DUP4 DUP2 DUP4 AND OR DUP4 MSTORE POP POP POP POP SWAP1 POP PUSH0 PUSH0 PUSH0 PUSH0 SWAP1 SLOAD SWAP1 PUSH2 0x100 EXP SWAP1 DIV PUSH20 0xFFFFFFFFFFFFFFFFFFFFFFFFFFFFFFFFFFFFFFFF AND PUSH20 0xFFFFFFFFFFFFFFFFFFFFFFFFFFFFFFFFFFFFFFFF AND CALLVALUE DUP5 PUSH1 0x40 MLOAD PUSH2 0x15C SWAP2 SWAP1 PUSH2 0x435 JUMP JUMPDEST PUSH0 PUSH1 0x40 MLOAD DUP1 DUP4 SUB DUP2 DUP6 DUP8 GAS CALL SWAP3 POP POP POP RETURNDATASIZE DUP1 PUSH0 DUP2 EQ PUSH2 0x196 JUMPI PUSH1 0x40 MLOAD SWAP2 POP PUSH1 0x1F NOT PUSH1 0x3F RETURNDATASIZE ADD AND DUP3 ADD PUSH1 0x40 MSTORE RETURNDATASIZE DUP3 MSTORE RETURNDATASIZE PUSH0 PUSH1 0x20 DUP5 ADD RETURNDATACOPY PUSH2 0x19B JUMP JUMPDEST PUSH1 0x60 SWAP2 POP JUMPDEST POP SWAP2 POP SWAP2 POP DUP2 DUP2 SWAP5 POP SWAP5 POP POP POP POP SWAP1 SWAP2 JUMP JUMPDEST PUSH0 PUSH0 SWAP1 SLOAD SWAP1 PUSH2 0x100 EXP SWAP1 DIV PUSH20 0xFFFFFFFFFFFFFFFFFFFFFFFFFFFFFFFFFFFFFFFF AND PUSH20 0xFFFFFFFFFFFFFFFFFFFFFFFFFFFFFFFFFFFFFFFF AND PUSH4 0xF8A8FD6D CALLVALUE PUSH1 0x40 MLOAD DUP3 PUSH4 0xFFFFFFFF AND PUSH1 0xE0 SHL DUP2 MSTORE PUSH1 0x4 ADD PUSH0 PUSH1 0x40 MLOAD DUP1 DUP4 SUB DUP2 DUP6 DUP9 GAS CALL ISZERO DUP1 ISZERO PUSH2 0x217 JUMPI RETURNDATASIZE PUSH0 PUSH0 RETURNDATACOPY RETURNDATASIZE PUSH0 REVERT JUMPDEST POP POP POP POP POP PUSH1 0x40 MLOAD RETURNDATASIZE PUSH0 DUP3 RETURNDATACOPY RETURNDATASIZE PUSH1 0x1F NOT PUSH1 0x1F DUP3 ADD AND DUP3 ADD DUP1 PUSH1 0x40 MSTORE POP DUP2 ADD SWAP1 PUSH2 0x240 SWAP2 SWAP1 PUSH2 0x57A JUMP JUMPDEST POP JUMP JUMPDEST PUSH0 PUSH1 0x60 PUSH0 PUSH0 PUSH0 PUSH0 SWAP1 SLOAD SWAP1 PUSH2 0x100 EXP SWAP1 DIV PUSH20 0xFFFFFFFFFFFFFFFFFFFFFFFFFFFFFFFFFFFFFFFF AND PUSH20 0xFFFFFFFFFFFFFFFFFFFFFFFFFFFFFFFFFFFFFFFF AND CALLVALUE PUSH1 0x40 MLOAD PUSH2 0x28C SWAP1 PUSH2 0x5E4 JUMP JUMPDEST PUSH0 PUSH1 0x40 MLOAD DUP1 DUP4 SUB DUP2 DUP6 DUP8 GAS CALL SWAP3 POP POP POP RETURNDATASIZE DUP1 PUSH0 DUP2 EQ PUSH2 0x2C6 JUMPI PUSH1 0x40 MLOAD SWAP2 POP PUSH1 0x1F NOT PUSH1 0x3F RETURNDATASIZE ADD AND DUP3 ADD PUSH1 0x40 MSTORE RETURNDATASIZE DUP3 MSTORE RETURNDATASIZE PUSH0 PUSH1 0x20 DUP5 ADD RETURNDATACOPY PUSH2 0x2CB JUMP JUMPDEST PUSH1 0x60 SWAP2 POP JUMPDEST POP SWAP2 POP SWAP2 POP DUP2 DUP2 SWAP4 POP SWAP4 POP POP POP SWAP1 SWAP2 JUMP JUMPDEST PUSH0 DUP2 ISZERO ISZERO SWAP1 POP SWAP2 SWAP1 POP JUMP JUMPDEST PUSH2 0x2F0 DUP2 PUSH2 0x2DC JUMP JUMPDEST DUP3 MSTORE POP POP JUMP JUMPDEST PUSH0 DUP2 MLOAD SWAP1 POP SWAP2 SWAP1 POP JUMP JUMPDEST PUSH0 DUP3 DUP3 MSTORE PUSH1 0x20 DUP3 ADD SWAP1 POP SWAP3 SWAP2 POP POP JUMP JUMPDEST DUP3 DUP2 DUP4 MCOPY PUSH0 DUP4 DUP4 ADD MSTORE POP POP POP JUMP JUMPDEST PUSH0 PUSH1 0x1F NOT PUSH1 0x1F DUP4 ADD AND SWAP1 POP SWAP2 SWAP1 POP JUMP JUMPDEST PUSH0 PUSH2 0x338 DUP3 PUSH2 0x2F6 JUMP JUMPDEST PUSH2 0x342 DUP2 DUP6 PUSH2 0x300 JUMP JUMPDEST SWAP4 POP PUSH2 0x352 DUP2 DUP6 PUSH1 0x20 DUP7 ADD PUSH2 0x310 JUMP JUMPDEST PUSH2 0x35B DUP2 PUSH2 0x31E JUMP JUMPDEST DUP5 ADD SWAP2 POP POP SWAP3 SWAP2 POP POP JUMP JUMPDEST PUSH0 PUSH1 0x40 DUP3 ADD SWAP1 POP PUSH2 0x379 PUSH0 DUP4 ADD DUP6 PUSH2 0x2E7 JUMP JUMPDEST DUP2 DUP2 SUB PUSH1 0x20 DUP4 ADD MSTORE PUSH2 0x38B DUP2 DUP5 PUSH2 0x32E JUMP JUMPDEST SWAP1 POP SWAP4 SWAP3 POP POP POP JUMP JUMPDEST PUSH0 DUP2 SWAP1 POP SWAP2 SWAP1 POP JUMP JUMPDEST PUSH0 PUSH1 0xFF DUP3 AND SWAP1 POP SWAP2 SWAP1 POP JUMP JUMPDEST PUSH0 DUP2 SWAP1 POP SWAP2 SWAP1 POP JUMP JUMPDEST PUSH0 PUSH2 0x3CC PUSH2 0x3C7 PUSH2 0x3C2 DUP5 PUSH2 0x394 JUMP JUMPDEST PUSH2 0x3A9 JUMP JUMPDEST PUSH2 0x39D JUMP JUMPDEST SWAP1 POP SWAP2 SWAP1 POP JUMP JUMPDEST PUSH2 0x3DC DUP2 PUSH2 0x3B2 JUMP JUMPDEST DUP3 MSTORE POP POP JUMP JUMPDEST PUSH0 PUSH1 0x20 DUP3 ADD SWAP1 POP PUSH2 0x3F5 PUSH0 DUP4 ADD DUP5 PUSH2 0x3D3 JUMP JUMPDEST SWAP3 SWAP2 POP POP JUMP JUMPDEST PUSH0 DUP2 SWAP1 POP SWAP3 SWAP2 POP POP JUMP JUMPDEST PUSH0 PUSH2 0x40F DUP3 PUSH2 0x2F6 JUMP JUMPDEST PUSH2 0x419 DUP2 DUP6 PUSH2 0x3FB JUMP JUMPDEST SWAP4 POP PUSH2 0x429 DUP2 DUP6 PUSH1 0x20 DUP7 ADD PUSH2 0x310 JUMP JUMPDEST DUP1 DUP5 ADD SWAP2 POP POP SWAP3 SWAP2 POP POP JUMP JUMPDEST PUSH0 PUSH2 0x440 DUP3 DUP5 PUSH2 0x405 JUMP JUMPDEST SWAP2 POP DUP2 SWAP1 POP SWAP3 SWAP2 POP POP JUMP JUMPDEST PUSH0 PUSH1 0x40 MLOAD SWAP1 POP SWAP1 JUMP JUMPDEST PUSH0 PUSH0 REVERT JUMPDEST PUSH0 PUSH0 REVERT JUMPDEST PUSH0 PUSH0 REVERT JUMPDEST PUSH0 PUSH0 REVERT JUMPDEST PUSH32 0x4E487B7100000000000000000000000000000000000000000000000000000000 PUSH0 MSTORE PUSH1 0x41 PUSH1 0x4 MSTORE PUSH1 0x24 PUSH0 REVERT JUMPDEST PUSH2 0x49A DUP3 PUSH2 0x31E JUMP JUMPDEST DUP2 ADD DUP2 DUP2 LT PUSH8 0xFFFFFFFFFFFFFFFF DUP3 GT OR ISZERO PUSH2 0x4B9 JUMPI PUSH2 0x4B8 PUSH2 0x464 JUMP JUMPDEST JUMPDEST DUP1 PUSH1 0x40 MSTORE POP POP POP JUMP JUMPDEST PUSH0 PUSH2 0x4CB PUSH2 0x44B JUMP JUMPDEST SWAP1 POP PUSH2 0x4D7 DUP3 DUP3 PUSH2 0x491 JUMP JUMPDEST SWAP2 SWAP1 POP JUMP JUMPDEST PUSH0 PUSH8 0xFFFFFFFFFFFFFFFF DUP3 GT ISZERO PUSH2 0x4F6 JUMPI PUSH2 0x4F5 PUSH2 0x464 JUMP JUMPDEST JUMPDEST PUSH2 0x4FF DUP3 PUSH2 0x31E JUMP JUMPDEST SWAP1 POP PUSH1 0x20 DUP2 ADD SWAP1 POP SWAP2 SWAP1 POP JUMP JUMPDEST PUSH0 PUSH2 0x51E PUSH2 0x519 DUP5 PUSH2 0x4DC JUMP JUMPDEST PUSH2 0x4C2 JUMP JUMPDEST SWAP1 POP DUP3 DUP2 MSTORE PUSH1 0x20 DUP2 ADD DUP5 DUP5 DUP5 ADD GT ISZERO PUSH2 0x53A JUMPI PUSH2 0x539 PUSH2 0x460 JUMP JUMPDEST JUMPDEST PUSH2 0x545 DUP5 DUP3 DUP6 PUSH2 0x310 JUMP JUMPDEST POP SWAP4 SWAP3 POP POP POP JUMP JUMPDEST PUSH0 DUP3 PUSH1 0x1F DUP4 ADD SLT PUSH2 0x561 JUMPI PUSH2 0x560 PUSH2 0x45C JUMP JUMPDEST JUMPDEST DUP2 MLOAD PUSH2 0x571 DUP5 DUP3 PUSH1 0x20 DUP7 ADD PUSH2 0x50C JUMP JUMPDEST SWAP2 POP POP SWAP3 SWAP2 POP POP JUMP JUMPDEST PUSH0 PUSH1 0x20 DUP3 DUP5 SUB SLT ISZERO PUSH2 0x58F JUMPI PUSH2 0x58E PUSH2 0x454 JUMP JUMPDEST JUMPDEST PUSH0 DUP3 ADD MLOAD PUSH8 0xFFFFFFFFFFFFFFFF DUP2 GT ISZERO PUSH2 0x5AC JUMPI PUSH2 0x5AB PUSH2 0x458 JUMP JUMPDEST JUMPDEST PUSH2 0x5B8 DUP5 DUP3 DUP6 ADD PUSH2 0x54D JUMP JUMPDEST SWAP2 POP POP SWAP3 SWAP2 POP POP JUMP JUMPDEST POP JUMP JUMPDEST PUSH0 PUSH2 0x5CF PUSH0 DUP4 PUSH2 0x3FB JUMP JUMPDEST SWAP2 POP PUSH2 0x5DA DUP3 PUSH2 0x5C1 JUMP JUMPDEST PUSH0 DUP3 ADD SWAP1 POP SWAP2 SWAP1 POP JUMP JUMPDEST PUSH0 PUSH2 0x5EE DUP3 PUSH2 0x5C4 JUMP JUMPDEST SWAP2 POP DUP2 SWAP1 POP SWAP2 SWAP1 POP JUMP INVALID LOG2 PUSH5 0x6970667358 0x22 SLT KECCAK256 0x22 COINBASE AND LT EQ 0xC9 ADDRESS DELEGATECALL ORIGIN GAS PUSH2 0xD050 PUSH7 0x9F2FFA4481A49E 0x2C 0xBD 0xB2 0x4F PUSH8 0x8B8F5A3E50F56473 PUSH16 0x6C634300081E00330000000000000000 "
				},
				"gasEstimates": {
					"creation": {
						"codeDepositCost": "316400",
						"executionCost": "infinite",
						"totalCost": "infinite"
					},
					"external": {
						"pay1()": "infinite",
						"pay2()": "infinite",
						"pay3()": "infinite"
					}
				},
				"methodIdentifiers": {
					"pay1()": "f6a15805",
					"pay2()": "7e1b3abf",
					"pay3()": "46108f52"
				}
			},
			"storageLayout": {
				"storage": [
					{
						"astId": 33,
						"contract": "contracts/Transfer.sol:Test",
						"label": "test",
						"offset": 0,
						"slot": "0",
						"type": "t_contract(TestTemp)30"
					}
				],
				"types": {
					"t_contract(TestTemp)30": {
						"encoding": "inplace",
						"label": "contract TestTemp",
						"numberOfBytes": "20"
					}
				}
			},
			"userdoc": {
				"kind": "user",
				"methods": {},
				"version": 1
			}
		}
	}
}