{
	"contracts/Crowdfunding.sol": {
		"Crowdfunding": {
			"abi": [
				{
					"inputs": [
						{
							"internalType": "uint256",
							"name": "_goalAmount",
							"type": "uint256"
						},
						{
							"internalType": "uint256",
							"name": "_durationInMinutes",
							"type": "uint256"
						}
					],
					"stateMutability": "nonpayable",
					"type": "constructor"
				},
				{
					"anonymous": false,
					"inputs": [
						{
							"indexed": true,
							"internalType": "address",
							"name": "contributor",
							"type": "address"
						},
						{
							"indexed": false,
							"internalType": "uint256",
							"name": "amount",
							"type": "uint256"
						},
						{
							"indexed": false,
							"internalType": "uint256",
							"name": "currentTotal",
							"type": "uint256"
						}
					],
					"name": "ContributionReceived",
					"type": "event"
				},
				{
					"anonymous": false,
					"inputs": [
						{
							"indexed": true,
							"internalType": "address",
							"name": "recipient",
							"type": "address"
						},
						{
							"indexed": false,
							"internalType": "uint256",
							"name": "amount",
							"type": "uint256"
						}
					],
					"name": "FundsWithdrawn",
					"type": "event"
				},
				{
					"anonymous": false,
					"inputs": [
						{
							"indexed": true,
							"internalType": "address",
							"name": "contributor",
							"type": "address"
						},
						{
							"indexed": false,
							"internalType": "uint256",
							"name": "amount",
							"type": "uint256"
						}
					],
					"name": "RefundIssued",
					"type": "event"
				},
				{
					"anonymous": false,
					"inputs": [
						{
							"indexed": false,
							"internalType": "enum Crowdfunding.State",
							"name": "newState",
							"type": "uint8"
						}
					],
					"name": "StateChanged",
					"type": "event"
				},
				{
					"inputs": [],
					"name": "MIN_CONTRIBUTION",
					"outputs": [
						{
							"internalType": "uint256",
							"name": "",
							"type": "uint256"
						}
					],
					"stateMutability": "view",
					"type": "function"
				},
				{
					"inputs": [],
					"name": "contribute",
					"outputs": [],
					"stateMutability": "payable",
					"type": "function"
				},
				{
					"inputs": [
						{
							"internalType": "address",
							"name": "",
							"type": "address"
						}
					],
					"name": "contributions",
					"outputs": [
						{
							"internalType": "uint256",
							"name": "",
							"type": "uint256"
						}
					],
					"stateMutability": "view",
					"type": "function"
				},
				{
					"inputs": [],
					"name": "currentRaisedAmount",
					"outputs": [
						{
							"internalType": "uint256",
							"name": "",
							"type": "uint256"
						}
					],
					"stateMutability": "view",
					"type": "function"
				},
				{
					"inputs": [],
					"name": "currentState",
					"outputs": [
						{
							"internalType": "enum Crowdfunding.State",
							"name": "",
							"type": "uint8"
						}
					],
					"stateMutability": "view",
					"type": "function"
				},
				{
					"inputs": [],
					"name": "deadline",
					"outputs": [
						{
							"internalType": "uint256",
							"name": "",
							"type": "uint256"
						}
					],
					"stateMutability": "view",
					"type": "function"
				},
				{
					"inputs": [],
					"name": "goalAmount",
					"outputs": [
						{
							"internalType": "uint256",
							"name": "",
							"type": "uint256"
						}
					],
					"stateMutability": "view",
					"type": "function"
				},
				{
					"inputs": [],
					"name": "owner",
					"outputs": [
						{
							"internalType": "address",
							"name": "",
							"type": "address"
						}
					],
					"stateMutability": "view",
					"type": "function"
				},
				{
					"inputs": [],
					"name": "refund",
					"outputs": [],
					"stateMutability": "nonpayable",
					"type": "function"
				},
				{
					"inputs": [],
					"name": "withdrawFunds",
					"outputs": [],
					"stateMutability": "nonpayable",
					"type": "function"
				}
			],
			"devdoc": {
				"kind": "dev",
				"methods": {},
				"version": 1
			},
			"evm": {
				"assembly": "    /* \"contracts/Crowdfunding.sol\":231:3247  contract Crowdfunding {... */\n  mstore(0x40, 0xe0)\n    /* \"contracts/Crowdfunding.sol\":1378:1805  constructor(uint _goalAmount, uint _durationInMinutes) {... */\n  callvalue\n  dup1\n  iszero\n  tag_1\n  jumpi\n  revert(0x00, 0x00)\ntag_1:\n  pop\n  mload(0x40)\n  sub(codesize, bytecodeSize)\n  dup1\n  bytecodeSize\n  dup4\n  codecopy\n  dup2\n  dup2\n  add\n  0x40\n  mstore\n  dup2\n  add\n  swap1\n  tag_2\n  swap2\n  swap1\n  tag_3\n  jump\t// in\ntag_2:\n    /* \"contracts/Crowdfunding.sol\":1466:1467  0 */\n  0x00\n    /* \"contracts/Crowdfunding.sol\":1452:1463  _goalAmount */\n  dup3\n    /* \"contracts/Crowdfunding.sol\":1452:1467  _goalAmount > 0 */\n  gt\n    /* \"contracts/Crowdfunding.sol\":1444:1486  require(_goalAmount > 0, \"Invalid amount\") */\n  tag_6\n  jumpi\n  mload(0x40)\n  0x08c379a000000000000000000000000000000000000000000000000000000000\n  dup2\n  mstore\n  0x04\n  add\n  tag_7\n  swap1\n  tag_8\n  jump\t// in\ntag_7:\n  mload(0x40)\n  dup1\n  swap2\n  sub\n  swap1\n  revert\ntag_6:\n    /* \"contracts/Crowdfunding.sol\":1526:1527  0 */\n  0x00\n    /* \"contracts/Crowdfunding.sol\":1505:1523  _durationInMinutes */\n  dup2\n    /* \"contracts/Crowdfunding.sol\":1505:1527  _durationInMinutes > 0 */\n  gt\n    /* \"contracts/Crowdfunding.sol\":1505:1555  _durationInMinutes > 0 && _durationInMinutes <= 90 */\n  dup1\n  iszero\n  tag_9\n  jumpi\n  pop\n    /* \"contracts/Crowdfunding.sol\":1553:1555  90 */\n  0x5a\n    /* \"contracts/Crowdfunding.sol\":1531:1549  _durationInMinutes */\n  dup2\n    /* \"contracts/Crowdfunding.sol\":1531:1555  _durationInMinutes <= 90 */\n  gt\n  iszero\n    /* \"contracts/Crowdfunding.sol\":1505:1555  _durationInMinutes > 0 && _durationInMinutes <= 90 */\ntag_9:\n    /* \"contracts/Crowdfunding.sol\":1497:1576  require(_durationInMinutes > 0 && _durationInMinutes <= 90, \"Invalid duration\") */\n  tag_10\n  jumpi\n  mload(0x40)\n  0x08c379a000000000000000000000000000000000000000000000000000000000\n  dup2\n  mstore\n  0x04\n  add\n  tag_11\n  swap1\n  tag_12\n  jump\t// in\ntag_11:\n  mload(0x40)\n  dup1\n  swap2\n  sub\n  swap1\n  revert\ntag_10:\n    /* \"contracts/Crowdfunding.sol\":1595:1605  msg.sender */\n  caller\n    /* \"contracts/Crowdfunding.sol\":1587:1605  owner = msg.sender */\n  0xffffffffffffffffffffffffffffffffffffffff\n  and\n  0x80\n  dup2\n  0xffffffffffffffffffffffffffffffffffffffff\n  and\n  dup2\n  mstore\n  pop\n  pop\n    /* \"contracts/Crowdfunding.sol\":1667:1676  1 minutes */\n  0x3c\n    /* \"contracts/Crowdfunding.sol\":1646:1664  _durationInMinutes */\n  dup2\n    /* \"contracts/Crowdfunding.sol\":1646:1676  _durationInMinutes * 1 minutes */\n  tag_13\n  swap2\n  swap1\n  tag_14\n  jump\t// in\ntag_13:\n    /* \"contracts/Crowdfunding.sol\":1627:1642  block.timestamp */\n  timestamp\n    /* \"contracts/Crowdfunding.sol\":1627:1677  block.timestamp + (_durationInMinutes * 1 minutes) */\n  tag_15\n  swap2\n  swap1\n  tag_16\n  jump\t// in\ntag_15:\n    /* \"contracts/Crowdfunding.sol\":1616:1677  deadline = block.timestamp + (_durationInMinutes * 1 minutes) */\n  0xa0\n  dup2\n  dup2\n  mstore\n  pop\n  pop\n    /* \"contracts/Crowdfunding.sol\":1701:1712  _goalAmount */\n  dup2\n    /* \"contracts/Crowdfunding.sol\":1688:1712  goalAmount = _goalAmount */\n  0xc0\n  dup2\n  dup2\n  mstore\n  pop\n  pop\n    /* \"contracts/Crowdfunding.sol\":1738:1755  State.Fundraising */\n  0x00\n    /* \"contracts/Crowdfunding.sol\":1723:1735  currentState */\n  0x00\n  0x00\n    /* \"contracts/Crowdfunding.sol\":1723:1755  currentState = State.Fundraising */\n  0x0100\n  exp\n  dup2\n  sload\n  dup2\n  0xff\n  mul\n  not\n  and\n  swap1\n  dup4\n  0x03\n  dup2\n  gt\n  iszero\n  tag_17\n  jumpi\n  tag_18\n  tag_19\n  jump\t// in\ntag_18:\ntag_17:\n  mul\n  or\n  swap1\n  sstore\n  pop\n    /* \"contracts/Crowdfunding.sol\":1771:1797  StateChanged(currentState) */\n  0x551dc40198cc79684bb69e4931dba4ac16e4598792ee1c0a5000aeea366d7bb6\n    /* \"contracts/Crowdfunding.sol\":1784:1796  currentState */\n  0x00\n  0x00\n  swap1\n  sload\n  swap1\n  0x0100\n  exp\n  swap1\n  div\n  0xff\n  and\n    /* \"contracts/Crowdfunding.sol\":1771:1797  StateChanged(currentState) */\n  mload(0x40)\n  tag_20\n  swap2\n  swap1\n  tag_21\n  jump\t// in\ntag_20:\n  mload(0x40)\n  dup1\n  swap2\n  sub\n  swap1\n  log1\n    /* \"contracts/Crowdfunding.sol\":1378:1805  constructor(uint _goalAmount, uint _durationInMinutes) {... */\n  pop\n  pop\n    /* \"contracts/Crowdfunding.sol\":231:3247  contract Crowdfunding {... */\n  jump(tag_22)\n    /* \"#utility.yul\":88:205   */\ntag_24:\n    /* \"#utility.yul\":197:198   */\n  0x00\n    /* \"#utility.yul\":194:195   */\n  0x00\n    /* \"#utility.yul\":187:199   */\n  revert\n    /* \"#utility.yul\":334:411   */\ntag_26:\n    /* \"#utility.yul\":371:378   */\n  0x00\n    /* \"#utility.yul\":400:405   */\n  dup2\n    /* \"#utility.yul\":389:405   */\n  swap1\n  pop\n    /* \"#utility.yul\":334:411   */\n  swap2\n  swap1\n  pop\n  jump\t// out\n    /* \"#utility.yul\":417:539   */\ntag_27:\n    /* \"#utility.yul\":490:514   */\n  tag_45\n    /* \"#utility.yul\":508:513   */\n  dup2\n    /* \"#utility.yul\":490:514   */\n  tag_26\n  jump\t// in\ntag_45:\n    /* \"#utility.yul\":483:488   */\n  dup2\n    /* \"#utility.yul\":480:515   */\n  eq\n    /* \"#utility.yul\":470:533   */\n  tag_46\n  jumpi\n    /* \"#utility.yul\":529:530   */\n  0x00\n    /* \"#utility.yul\":526:527   */\n  0x00\n    /* \"#utility.yul\":519:531   */\n  revert\n    /* \"#utility.yul\":470:533   */\ntag_46:\n    /* \"#utility.yul\":417:539   */\n  pop\n  jump\t// out\n    /* \"#utility.yul\":545:688   */\ntag_28:\n    /* \"#utility.yul\":602:607   */\n  0x00\n    /* \"#utility.yul\":633:639   */\n  dup2\n    /* \"#utility.yul\":627:640   */\n  mload\n    /* \"#utility.yul\":618:640   */\n  swap1\n  pop\n    /* \"#utility.yul\":649:682   */\n  tag_48\n    /* \"#utility.yul\":676:681   */\n  dup2\n    /* \"#utility.yul\":649:682   */\n  tag_27\n  jump\t// in\ntag_48:\n    /* \"#utility.yul\":545:688   */\n  swap3\n  swap2\n  pop\n  pop\n  jump\t// out\n    /* \"#utility.yul\":694:1201   */\ntag_3:\n    /* \"#utility.yul\":773:779   */\n  0x00\n    /* \"#utility.yul\":781:787   */\n  0x00\n    /* \"#utility.yul\":830:832   */\n  0x40\n    /* \"#utility.yul\":818:827   */\n  dup4\n    /* \"#utility.yul\":809:816   */\n  dup6\n    /* \"#utility.yul\":805:828   */\n  sub\n    /* \"#utility.yul\":801:833   */\n  slt\n    /* \"#utility.yul\":798:917   */\n  iszero\n  tag_50\n  jumpi\n    /* \"#utility.yul\":836:915   */\n  tag_51\n  tag_24\n  jump\t// in\ntag_51:\n    /* \"#utility.yul\":798:917   */\ntag_50:\n    /* \"#utility.yul\":956:957   */\n  0x00\n    /* \"#utility.yul\":981:1045   */\n  tag_52\n    /* \"#utility.yul\":1037:1044   */\n  dup6\n    /* \"#utility.yul\":1028:1034   */\n  dup3\n    /* \"#utility.yul\":1017:1026   */\n  dup7\n    /* \"#utility.yul\":1013:1035   */\n  add\n    /* \"#utility.yul\":981:1045   */\n  tag_28\n  jump\t// in\ntag_52:\n    /* \"#utility.yul\":971:1045   */\n  swap3\n  pop\n    /* \"#utility.yul\":927:1055   */\n  pop\n    /* \"#utility.yul\":1094:1096   */\n  0x20\n    /* \"#utility.yul\":1120:1184   */\n  tag_53\n    /* \"#utility.yul\":1176:1183   */\n  dup6\n    /* \"#utility.yul\":1167:1173   */\n  dup3\n    /* \"#utility.yul\":1156:1165   */\n  dup7\n    /* \"#utility.yul\":1152:1174   */\n  add\n    /* \"#utility.yul\":1120:1184   */\n  tag_28\n  jump\t// in\ntag_53:\n    /* \"#utility.yul\":1110:1184   */\n  swap2\n  pop\n    /* \"#utility.yul\":1065:1194   */\n  pop\n    /* \"#utility.yul\":694:1201   */\n  swap3\n  pop\n  swap3\n  swap1\n  pop\n  jump\t// out\n    /* \"#utility.yul\":1207:1376   */\ntag_29:\n    /* \"#utility.yul\":1291:1302   */\n  0x00\n    /* \"#utility.yul\":1325:1331   */\n  dup3\n    /* \"#utility.yul\":1320:1323   */\n  dup3\n    /* \"#utility.yul\":1313:1332   */\n  mstore\n    /* \"#utility.yul\":1365:1369   */\n  0x20\n    /* \"#utility.yul\":1360:1363   */\n  dup3\n    /* \"#utility.yul\":1356:1370   */\n  add\n    /* \"#utility.yul\":1341:1370   */\n  swap1\n  pop\n    /* \"#utility.yul\":1207:1376   */\n  swap3\n  swap2\n  pop\n  pop\n  jump\t// out\n    /* \"#utility.yul\":1382:1546   */\ntag_30:\n    /* \"#utility.yul\":1522:1538   */\n  0x496e76616c696420616d6f756e74000000000000000000000000000000000000\n    /* \"#utility.yul\":1518:1519   */\n  0x00\n    /* \"#utility.yul\":1510:1516   */\n  dup3\n    /* \"#utility.yul\":1506:1520   */\n  add\n    /* \"#utility.yul\":1499:1539   */\n  mstore\n    /* \"#utility.yul\":1382:1546   */\n  pop\n  jump\t// out\n    /* \"#utility.yul\":1552:1918   */\ntag_31:\n    /* \"#utility.yul\":1694:1697   */\n  0x00\n    /* \"#utility.yul\":1715:1782   */\n  tag_57\n    /* \"#utility.yul\":1779:1781   */\n  0x0e\n    /* \"#utility.yul\":1774:1777   */\n  dup4\n    /* \"#utility.yul\":1715:1782   */\n  tag_29\n  jump\t// in\ntag_57:\n    /* \"#utility.yul\":1708:1782   */\n  swap2\n  pop\n    /* \"#utility.yul\":1791:1884   */\n  tag_58\n    /* \"#utility.yul\":1880:1883   */\n  dup3\n    /* \"#utility.yul\":1791:1884   */\n  tag_30\n  jump\t// in\ntag_58:\n    /* \"#utility.yul\":1909:1911   */\n  0x20\n    /* \"#utility.yul\":1904:1907   */\n  dup3\n    /* \"#utility.yul\":1900:1912   */\n  add\n    /* \"#utility.yul\":1893:1912   */\n  swap1\n  pop\n    /* \"#utility.yul\":1552:1918   */\n  swap2\n  swap1\n  pop\n  jump\t// out\n    /* \"#utility.yul\":1924:2343   */\ntag_8:\n    /* \"#utility.yul\":2090:2094   */\n  0x00\n    /* \"#utility.yul\":2128:2130   */\n  0x20\n    /* \"#utility.yul\":2117:2126   */\n  dup3\n    /* \"#utility.yul\":2113:2131   */\n  add\n    /* \"#utility.yul\":2105:2131   */\n  swap1\n  pop\n    /* \"#utility.yul\":2177:2186   */\n  dup2\n    /* \"#utility.yul\":2171:2175   */\n  dup2\n    /* \"#utility.yul\":2167:2187   */\n  sub\n    /* \"#utility.yul\":2163:2164   */\n  0x00\n    /* \"#utility.yul\":2152:2161   */\n  dup4\n    /* \"#utility.yul\":2148:2165   */\n  add\n    /* \"#utility.yul\":2141:2188   */\n  mstore\n    /* \"#utility.yul\":2205:2336   */\n  tag_60\n    /* \"#utility.yul\":2331:2335   */\n  dup2\n    /* \"#utility.yul\":2205:2336   */\n  tag_31\n  jump\t// in\ntag_60:\n    /* \"#utility.yul\":2197:2336   */\n  swap1\n  pop\n    /* \"#utility.yul\":1924:2343   */\n  swap2\n  swap1\n  pop\n  jump\t// out\n    /* \"#utility.yul\":2349:2515   */\ntag_32:\n    /* \"#utility.yul\":2489:2507   */\n  0x496e76616c6964206475726174696f6e00000000000000000000000000000000\n    /* \"#utility.yul\":2485:2486   */\n  0x00\n    /* \"#utility.yul\":2477:2483   */\n  dup3\n    /* \"#utility.yul\":2473:2487   */\n  add\n    /* \"#utility.yul\":2466:2508   */\n  mstore\n    /* \"#utility.yul\":2349:2515   */\n  pop\n  jump\t// out\n    /* \"#utility.yul\":2521:2887   */\ntag_33:\n    /* \"#utility.yul\":2663:2666   */\n  0x00\n    /* \"#utility.yul\":2684:2751   */\n  tag_63\n    /* \"#utility.yul\":2748:2750   */\n  0x10\n    /* \"#utility.yul\":2743:2746   */\n  dup4\n    /* \"#utility.yul\":2684:2751   */\n  tag_29\n  jump\t// in\ntag_63:\n    /* \"#utility.yul\":2677:2751   */\n  swap2\n  pop\n    /* \"#utility.yul\":2760:2853   */\n  tag_64\n    /* \"#utility.yul\":2849:2852   */\n  dup3\n    /* \"#utility.yul\":2760:2853   */\n  tag_32\n  jump\t// in\ntag_64:\n    /* \"#utility.yul\":2878:2880   */\n  0x20\n    /* \"#utility.yul\":2873:2876   */\n  dup3\n    /* \"#utility.yul\":2869:2881   */\n  add\n    /* \"#utility.yul\":2862:2881   */\n  swap1\n  pop\n    /* \"#utility.yul\":2521:2887   */\n  swap2\n  swap1\n  pop\n  jump\t// out\n    /* \"#utility.yul\":2893:3312   */\ntag_12:\n    /* \"#utility.yul\":3059:3063   */\n  0x00\n    /* \"#utility.yul\":3097:3099   */\n  0x20\n    /* \"#utility.yul\":3086:3095   */\n  dup3\n    /* \"#utility.yul\":3082:3100   */\n  add\n    /* \"#utility.yul\":3074:3100   */\n  swap1\n  pop\n    /* \"#utility.yul\":3146:3155   */\n  dup2\n    /* \"#utility.yul\":3140:3144   */\n  dup2\n    /* \"#utility.yul\":3136:3156   */\n  sub\n    /* \"#utility.yul\":3132:3133   */\n  0x00\n    /* \"#utility.yul\":3121:3130   */\n  dup4\n    /* \"#utility.yul\":3117:3134   */\n  add\n    /* \"#utility.yul\":3110:3157   */\n  mstore\n    /* \"#utility.yul\":3174:3305   */\n  tag_66\n    /* \"#utility.yul\":3300:3304   */\n  dup2\n    /* \"#utility.yul\":3174:3305   */\n  tag_33\n  jump\t// in\ntag_66:\n    /* \"#utility.yul\":3166:3305   */\n  swap1\n  pop\n    /* \"#utility.yul\":2893:3312   */\n  swap2\n  swap1\n  pop\n  jump\t// out\n    /* \"#utility.yul\":3318:3498   */\ntag_34:\n    /* \"#utility.yul\":3366:3443   */\n  0x4e487b7100000000000000000000000000000000000000000000000000000000\n    /* \"#utility.yul\":3363:3364   */\n  0x00\n    /* \"#utility.yul\":3356:3444   */\n  mstore\n    /* \"#utility.yul\":3463:3467   */\n  0x11\n    /* \"#utility.yul\":3460:3461   */\n  0x04\n    /* \"#utility.yul\":3453:3468   */\n  mstore\n    /* \"#utility.yul\":3487:3491   */\n  0x24\n    /* \"#utility.yul\":3484:3485   */\n  0x00\n    /* \"#utility.yul\":3477:3492   */\n  revert\n    /* \"#utility.yul\":3504:3914   */\ntag_14:\n    /* \"#utility.yul\":3544:3551   */\n  0x00\n    /* \"#utility.yul\":3567:3587   */\n  tag_69\n    /* \"#utility.yul\":3585:3586   */\n  dup3\n    /* \"#utility.yul\":3567:3587   */\n  tag_26\n  jump\t// in\ntag_69:\n    /* \"#utility.yul\":3562:3587   */\n  swap2\n  pop\n    /* \"#utility.yul\":3601:3621   */\n  tag_70\n    /* \"#utility.yul\":3619:3620   */\n  dup4\n    /* \"#utility.yul\":3601:3621   */\n  tag_26\n  jump\t// in\ntag_70:\n    /* \"#utility.yul\":3596:3621   */\n  swap3\n  pop\n    /* \"#utility.yul\":3656:3657   */\n  dup3\n    /* \"#utility.yul\":3653:3654   */\n  dup3\n    /* \"#utility.yul\":3649:3658   */\n  mul\n    /* \"#utility.yul\":3678:3708   */\n  tag_71\n    /* \"#utility.yul\":3696:3707   */\n  dup2\n    /* \"#utility.yul\":3678:3708   */\n  tag_26\n  jump\t// in\ntag_71:\n    /* \"#utility.yul\":3667:3708   */\n  swap2\n  pop\n    /* \"#utility.yul\":3857:3858   */\n  dup3\n    /* \"#utility.yul\":3848:3855   */\n  dup3\n    /* \"#utility.yul\":3844:3859   */\n  div\n    /* \"#utility.yul\":3841:3842   */\n  dup5\n    /* \"#utility.yul\":3838:3860   */\n  eq\n    /* \"#utility.yul\":3818:3819   */\n  dup4\n    /* \"#utility.yul\":3811:3820   */\n  iszero\n    /* \"#utility.yul\":3791:3874   */\n  or\n    /* \"#utility.yul\":3768:3907   */\n  tag_72\n  jumpi\n    /* \"#utility.yul\":3887:3905   */\n  tag_73\n  tag_34\n  jump\t// in\ntag_73:\n    /* \"#utility.yul\":3768:3907   */\ntag_72:\n    /* \"#utility.yul\":3552:3914   */\n  pop\n    /* \"#utility.yul\":3504:3914   */\n  swap3\n  swap2\n  pop\n  pop\n  jump\t// out\n    /* \"#utility.yul\":3920:4111   */\ntag_16:\n    /* \"#utility.yul\":3960:3963   */\n  0x00\n    /* \"#utility.yul\":3979:3999   */\n  tag_75\n    /* \"#utility.yul\":3997:3998   */\n  dup3\n    /* \"#utility.yul\":3979:3999   */\n  tag_26\n  jump\t// in\ntag_75:\n    /* \"#utility.yul\":3974:3999   */\n  swap2\n  pop\n    /* \"#utility.yul\":4013:4033   */\n  tag_76\n    /* \"#utility.yul\":4031:4032   */\n  dup4\n    /* \"#utility.yul\":4013:4033   */\n  tag_26\n  jump\t// in\ntag_76:\n    /* \"#utility.yul\":4008:4033   */\n  swap3\n  pop\n    /* \"#utility.yul\":4056:4057   */\n  dup3\n    /* \"#utility.yul\":4053:4054   */\n  dup3\n    /* \"#utility.yul\":4049:4058   */\n  add\n    /* \"#utility.yul\":4042:4058   */\n  swap1\n  pop\n    /* \"#utility.yul\":4077:4080   */\n  dup1\n    /* \"#utility.yul\":4074:4075   */\n  dup3\n    /* \"#utility.yul\":4071:4081   */\n  gt\n    /* \"#utility.yul\":4068:4104   */\n  iszero\n  tag_77\n  jumpi\n    /* \"#utility.yul\":4084:4102   */\n  tag_78\n  tag_34\n  jump\t// in\ntag_78:\n    /* \"#utility.yul\":4068:4104   */\ntag_77:\n    /* \"#utility.yul\":3920:4111   */\n  swap3\n  swap2\n  pop\n  pop\n  jump\t// out\n    /* \"#utility.yul\":4117:4297   */\ntag_19:\n    /* \"#utility.yul\":4165:4242   */\n  0x4e487b7100000000000000000000000000000000000000000000000000000000\n    /* \"#utility.yul\":4162:4163   */\n  0x00\n    /* \"#utility.yul\":4155:4243   */\n  mstore\n    /* \"#utility.yul\":4262:4266   */\n  0x21\n    /* \"#utility.yul\":4259:4260   */\n  0x04\n    /* \"#utility.yul\":4252:4267   */\n  mstore\n    /* \"#utility.yul\":4286:4290   */\n  0x24\n    /* \"#utility.yul\":4283:4284   */\n  0x00\n    /* \"#utility.yul\":4276:4291   */\n  revert\n    /* \"#utility.yul\":4303:4415   */\ntag_35:\n    /* \"#utility.yul\":4383:4384   */\n  0x04\n    /* \"#utility.yul\":4376:4381   */\n  dup2\n    /* \"#utility.yul\":4373:4385   */\n  lt\n    /* \"#utility.yul\":4363:4409   */\n  tag_81\n  jumpi\n    /* \"#utility.yul\":4389:4407   */\n  tag_82\n  tag_19\n  jump\t// in\ntag_82:\n    /* \"#utility.yul\":4363:4409   */\ntag_81:\n    /* \"#utility.yul\":4303:4415   */\n  pop\n  jump\t// out\n    /* \"#utility.yul\":4421:4546   */\ntag_36:\n    /* \"#utility.yul\":4465:4472   */\n  0x00\n    /* \"#utility.yul\":4494:4499   */\n  dup2\n    /* \"#utility.yul\":4483:4499   */\n  swap1\n  pop\n    /* \"#utility.yul\":4500:4540   */\n  tag_84\n    /* \"#utility.yul\":4534:4539   */\n  dup3\n    /* \"#utility.yul\":4500:4540   */\n  tag_35\n  jump\t// in\ntag_84:\n    /* \"#utility.yul\":4421:4546   */\n  swap2\n  swap1\n  pop\n  jump\t// out\n    /* \"#utility.yul\":4552:4677   */\ntag_37:\n    /* \"#utility.yul\":4607:4616   */\n  0x00\n    /* \"#utility.yul\":4640:4671   */\n  tag_86\n    /* \"#utility.yul\":4665:4670   */\n  dup3\n    /* \"#utility.yul\":4640:4671   */\n  tag_36\n  jump\t// in\ntag_86:\n    /* \"#utility.yul\":4627:4671   */\n  swap1\n  pop\n    /* \"#utility.yul\":4552:4677   */\n  swap2\n  swap1\n  pop\n  jump\t// out\n    /* \"#utility.yul\":4683:4824   */\ntag_38:\n    /* \"#utility.yul\":4775:4817   */\n  tag_88\n    /* \"#utility.yul\":4811:4816   */\n  dup2\n    /* \"#utility.yul\":4775:4817   */\n  tag_37\n  jump\t// in\ntag_88:\n    /* \"#utility.yul\":4770:4773   */\n  dup3\n    /* \"#utility.yul\":4763:4818   */\n  mstore\n    /* \"#utility.yul\":4683:4824   */\n  pop\n  pop\n  jump\t// out\n    /* \"#utility.yul\":4830:5062   */\ntag_21:\n    /* \"#utility.yul\":4928:4932   */\n  0x00\n    /* \"#utility.yul\":4966:4968   */\n  0x20\n    /* \"#utility.yul\":4955:4964   */\n  dup3\n    /* \"#utility.yul\":4951:4969   */\n  add\n    /* \"#utility.yul\":4943:4969   */\n  swap1\n  pop\n    /* \"#utility.yul\":4979:5055   */\n  tag_90\n    /* \"#utility.yul\":5052:5053   */\n  0x00\n    /* \"#utility.yul\":5041:5050   */\n  dup4\n    /* \"#utility.yul\":5037:5054   */\n  add\n    /* \"#utility.yul\":5028:5034   */\n  dup5\n    /* \"#utility.yul\":4979:5055   */\n  tag_38\n  jump\t// in\ntag_90:\n    /* \"#utility.yul\":4830:5062   */\n  swap3\n  swap2\n  pop\n  pop\n  jump\t// out\n    /* \"contracts/Crowdfunding.sol\":231:3247  contract Crowdfunding {... */\ntag_22:\n  mload(0x80)\n  mload(0xa0)\n  mload(0xc0)\n  codecopy(0x00, dataOffset(sub_0), dataSize(sub_0))\n  0x00\n  assignImmutable(\"0x1d3be50b2bb17407dd170f1d5da128d1def30c6b1598d6a629e79b4775265526\")\n  0x00\n  assignImmutable(\"0x789bcdf275fa270780a52ae3b79bb1ce0fda7e0aaad87b57b74bb99ac290714a\")\n  0x00\n  assignImmutable(\"0x7880aec93413f117ef14bd4e6d130875ab2c7d7d55a064fac3c2f7bd51516380\")\n  return(0x00, dataSize(sub_0))\nstop\n\nsub_0: assembly {\n        /* \"contracts/Crowdfunding.sol\":231:3247  contract Crowdfunding {... */\n      mstore(0x40, 0x80)\n      jumpi(tag_1, lt(calldatasize, 0x04))\n      shr(0xe0, calldataload(0x00))\n      dup1\n      0x40650c91\n      gt\n      tag_12\n      jumpi\n      dup1\n      0x40650c91\n      eq\n      tag_7\n      jumpi\n      dup1\n      0x42e94c90\n      eq\n      tag_8\n      jumpi\n      dup1\n      0x590e1ae3\n      eq\n      tag_9\n      jumpi\n      dup1\n      0x8da5cb5b\n      eq\n      tag_10\n      jumpi\n      dup1\n      0xd7bb99ba\n      eq\n      tag_11\n      jumpi\n      jump(tag_1)\n    tag_12:\n      dup1\n      0x0c3f6acf\n      eq\n      tag_2\n      jumpi\n      dup1\n      0x24600fc3\n      eq\n      tag_3\n      jumpi\n      dup1\n      0x2636b945\n      eq\n      tag_4\n      jumpi\n      dup1\n      0x29dcb0cf\n      eq\n      tag_5\n      jumpi\n      dup1\n      0x2d2a1d20\n      eq\n      tag_6\n      jumpi\n    tag_1:\n      revert(0x00, 0x00)\n        /* \"contracts/Crowdfunding.sol\":380:405  State public currentState */\n    tag_2:\n      callvalue\n      dup1\n      iszero\n      tag_13\n      jumpi\n      revert(0x00, 0x00)\n    tag_13:\n      pop\n      tag_14\n      tag_15\n      jump\t// in\n    tag_14:\n      mload(0x40)\n      tag_16\n      swap2\n      swap1\n      tag_17\n      jump\t// in\n    tag_16:\n      mload(0x40)\n      dup1\n      swap2\n      sub\n      swap1\n      return\n        /* \"contracts/Crowdfunding.sol\":2419:2796  function withdrawFunds() public onlyOwner inState(State.Success) {... */\n    tag_3:\n      callvalue\n      dup1\n      iszero\n      tag_18\n      jumpi\n      revert(0x00, 0x00)\n    tag_18:\n      pop\n      tag_19\n      tag_20\n      jump\t// in\n    tag_19:\n      stop\n        /* \"contracts/Crowdfunding.sol\":549:584  uint256 public immutable goalAmount */\n    tag_4:\n      callvalue\n      dup1\n      iszero\n      tag_21\n      jumpi\n      revert(0x00, 0x00)\n    tag_21:\n      pop\n      tag_22\n      tag_23\n      jump\t// in\n    tag_22:\n      mload(0x40)\n      tag_24\n      swap2\n      swap1\n      tag_25\n      jump\t// in\n    tag_24:\n      mload(0x40)\n      dup1\n      swap2\n      sub\n      swap1\n      return\n        /* \"contracts/Crowdfunding.sol\":488:521  uint256 public immutable deadline */\n    tag_5:\n      callvalue\n      dup1\n      iszero\n      tag_26\n      jumpi\n      revert(0x00, 0x00)\n    tag_26:\n      pop\n      tag_27\n      tag_28\n      jump\t// in\n    tag_27:\n      mload(0x40)\n      tag_29\n      swap2\n      swap1\n      tag_25\n      jump\t// in\n    tag_29:\n      mload(0x40)\n      dup1\n      swap2\n      sub\n      swap1\n      return\n        /* \"contracts/Crowdfunding.sol\":699:733  uint256 public currentRaisedAmount */\n    tag_6:\n      callvalue\n      dup1\n      iszero\n      tag_30\n      jumpi\n      revert(0x00, 0x00)\n    tag_30:\n      pop\n      tag_31\n      tag_32\n      jump\t// in\n    tag_31:\n      mload(0x40)\n      tag_33\n      swap2\n      swap1\n      tag_25\n      jump\t// in\n    tag_33:\n      mload(0x40)\n      dup1\n      swap2\n      sub\n      swap1\n      return\n        /* \"contracts/Crowdfunding.sol\":621:671  uint256 public constant MIN_CONTRIBUTION = 1 ether */\n    tag_7:\n      callvalue\n      dup1\n      iszero\n      tag_34\n      jumpi\n      revert(0x00, 0x00)\n    tag_34:\n      pop\n      tag_35\n      tag_36\n      jump\t// in\n    tag_35:\n      mload(0x40)\n      tag_37\n      swap2\n      swap1\n      tag_25\n      jump\t// in\n    tag_37:\n      mload(0x40)\n      dup1\n      swap2\n      sub\n      swap1\n      return\n        /* \"contracts/Crowdfunding.sol\":770:818  mapping(address => uint256) public contributions */\n    tag_8:\n      callvalue\n      dup1\n      iszero\n      tag_38\n      jumpi\n      revert(0x00, 0x00)\n    tag_38:\n      pop\n      tag_39\n      0x04\n      dup1\n      calldatasize\n      sub\n      dup2\n      add\n      swap1\n      tag_40\n      swap2\n      swap1\n      tag_41\n      jump\t// in\n    tag_40:\n      tag_42\n      jump\t// in\n    tag_39:\n      mload(0x40)\n      tag_43\n      swap2\n      swap1\n      tag_25\n      jump\t// in\n    tag_43:\n      mload(0x40)\n      dup1\n      swap2\n      sub\n      swap1\n      return\n        /* \"contracts/Crowdfunding.sol\":2817:3244  function refund() public inState(State.Failed) {... */\n    tag_9:\n      callvalue\n      dup1\n      iszero\n      tag_44\n      jumpi\n      revert(0x00, 0x00)\n    tag_44:\n      pop\n      tag_45\n      tag_46\n      jump\t// in\n    tag_45:\n      stop\n        /* \"contracts/Crowdfunding.sol\":433:463  address public immutable owner */\n    tag_10:\n      callvalue\n      dup1\n      iszero\n      tag_47\n      jumpi\n      revert(0x00, 0x00)\n    tag_47:\n      pop\n      tag_48\n      tag_49\n      jump\t// in\n    tag_48:\n      mload(0x40)\n      tag_50\n      swap2\n      swap1\n      tag_51\n      jump\t// in\n    tag_50:\n      mload(0x40)\n      dup1\n      swap2\n      sub\n      swap1\n      return\n        /* \"contracts/Crowdfunding.sol\":1826:2398  function contribute() public payable inState(State.Fundraising) {... */\n    tag_11:\n      tag_52\n      tag_53\n      jump\t// in\n    tag_52:\n      stop\n        /* \"contracts/Crowdfunding.sol\":380:405  State public currentState */\n    tag_15:\n      0x00\n      0x00\n      swap1\n      sload\n      swap1\n      0x0100\n      exp\n      swap1\n      div\n      0xff\n      and\n      dup2\n      jump\t// out\n        /* \"contracts/Crowdfunding.sol\":2419:2796  function withdrawFunds() public onlyOwner inState(State.Success) {... */\n    tag_20:\n        /* \"contracts/Crowdfunding.sol\":1216:1221  owner */\n      immutable(\"0x7880aec93413f117ef14bd4e6d130875ab2c7d7d55a064fac3c2f7bd51516380\")\n        /* \"contracts/Crowdfunding.sol\":1202:1221  msg.sender == owner */\n      0xffffffffffffffffffffffffffffffffffffffff\n      and\n        /* \"contracts/Crowdfunding.sol\":1202:1212  msg.sender */\n      caller\n        /* \"contracts/Crowdfunding.sol\":1202:1221  msg.sender == owner */\n      0xffffffffffffffffffffffffffffffffffffffff\n      and\n      eq\n        /* \"contracts/Crowdfunding.sol\":1194:1236  require(msg.sender == owner, \"Only owner\") */\n      tag_55\n      jumpi\n      mload(0x40)\n      0x08c379a000000000000000000000000000000000000000000000000000000000\n      dup2\n      mstore\n      0x04\n      add\n      tag_56\n      swap1\n      tag_57\n      jump\t// in\n    tag_56:\n      mload(0x40)\n      dup1\n      swap2\n      sub\n      swap1\n      revert\n    tag_55:\n        /* \"contracts/Crowdfunding.sol\":2469:2482  State.Success */\n      0x01\n        /* \"contracts/Crowdfunding.sol\":1328:1334  _state */\n      dup1\n        /* \"contracts/Crowdfunding.sol\":1312:1334  currentState == _state */\n      0x03\n      dup2\n      gt\n      iszero\n      tag_59\n      jumpi\n      tag_60\n      tag_61\n      jump\t// in\n    tag_60:\n    tag_59:\n        /* \"contracts/Crowdfunding.sol\":1312:1324  currentState */\n      0x00\n      0x00\n      swap1\n      sload\n      swap1\n      0x0100\n      exp\n      swap1\n      div\n      0xff\n      and\n        /* \"contracts/Crowdfunding.sol\":1312:1334  currentState == _state */\n      0x03\n      dup2\n      gt\n      iszero\n      tag_62\n      jumpi\n      tag_63\n      tag_61\n      jump\t// in\n    tag_63:\n    tag_62:\n      eq\n        /* \"contracts/Crowdfunding.sol\":1304:1352  require(currentState == _state, \"Invalid state\") */\n      tag_64\n      jumpi\n      mload(0x40)\n      0x08c379a000000000000000000000000000000000000000000000000000000000\n      dup2\n      mstore\n      0x04\n      add\n      tag_65\n      swap1\n      tag_66\n      jump\t// in\n    tag_65:\n      mload(0x40)\n      dup1\n      swap2\n      sub\n      swap1\n      revert\n    tag_64:\n        /* \"contracts/Crowdfunding.sol\":2510:2525  State.Withdrawn */\n      0x03\n        /* \"contracts/Crowdfunding.sol\":2495:2507  currentState */\n      0x00\n      0x00\n        /* \"contracts/Crowdfunding.sol\":2495:2525  currentState = State.Withdrawn */\n      0x0100\n      exp\n      dup2\n      sload\n      dup2\n      0xff\n      mul\n      not\n      and\n      swap1\n      dup4\n      0x03\n      dup2\n      gt\n      iszero\n      tag_68\n      jumpi\n      tag_69\n      tag_61\n      jump\t// in\n    tag_69:\n    tag_68:\n      mul\n      or\n      swap1\n      sstore\n      pop\n        /* \"contracts/Crowdfunding.sol\":2541:2567  StateChanged(currentState) */\n      0x551dc40198cc79684bb69e4931dba4ac16e4598792ee1c0a5000aeea366d7bb6\n        /* \"contracts/Crowdfunding.sol\":2554:2566  currentState */\n      0x00\n      0x00\n      swap1\n      sload\n      swap1\n      0x0100\n      exp\n      swap1\n      div\n      0xff\n      and\n        /* \"contracts/Crowdfunding.sol\":2541:2567  StateChanged(currentState) */\n      mload(0x40)\n      tag_70\n      swap2\n      swap1\n      tag_17\n      jump\t// in\n    tag_70:\n      mload(0x40)\n      dup1\n      swap2\n      sub\n      swap1\n      log1\n        /* \"contracts/Crowdfunding.sol\":2580:2594  uint256 amount */\n      0x00\n        /* \"contracts/Crowdfunding.sol\":2597:2618  address(this).balance */\n      selfbalance\n        /* \"contracts/Crowdfunding.sol\":2580:2618  uint256 amount = address(this).balance */\n      swap1\n      pop\n        /* \"contracts/Crowdfunding.sol\":2630:2642  bool success */\n      0x00\n        /* \"contracts/Crowdfunding.sol\":2656:2661  owner */\n      immutable(\"0x7880aec93413f117ef14bd4e6d130875ab2c7d7d55a064fac3c2f7bd51516380\")\n        /* \"contracts/Crowdfunding.sol\":2648:2667  payable(owner).call */\n      0xffffffffffffffffffffffffffffffffffffffff\n      and\n        /* \"contracts/Crowdfunding.sol\":2675:2681  amount */\n      dup3\n        /* \"contracts/Crowdfunding.sol\":2648:2686  payable(owner).call{value: amount}(\"\") */\n      mload(0x40)\n      tag_71\n      swap1\n      tag_72\n      jump\t// in\n    tag_71:\n      0x00\n      mload(0x40)\n      dup1\n      dup4\n      sub\n      dup2\n      dup6\n      dup8\n      gas\n      call\n      swap3\n      pop\n      pop\n      pop\n      returndatasize\n      dup1\n      0x00\n      dup2\n      eq\n      tag_75\n      jumpi\n      mload(0x40)\n      swap2\n      pop\n      and(add(returndatasize, 0x3f), not(0x1f))\n      dup3\n      add\n      0x40\n      mstore\n      returndatasize\n      dup3\n      mstore\n      returndatasize\n      0x00\n      0x20\n      dup5\n      add\n      returndatacopy\n      jump(tag_74)\n    tag_75:\n      0x60\n      swap2\n      pop\n    tag_74:\n      pop\n        /* \"contracts/Crowdfunding.sol\":2629:2686  (bool success, ) = payable(owner).call{value: amount}(\"\") */\n      pop\n      swap1\n      pop\n        /* \"contracts/Crowdfunding.sol\":2705:2712  success */\n      dup1\n        /* \"contracts/Crowdfunding.sol\":2697:2741  require(success, \"Failed to withdraw Funds\") */\n      tag_76\n      jumpi\n      mload(0x40)\n      0x08c379a000000000000000000000000000000000000000000000000000000000\n      dup2\n      mstore\n      0x04\n      add\n      tag_77\n      swap1\n      tag_78\n      jump\t// in\n    tag_77:\n      mload(0x40)\n      dup1\n      swap2\n      sub\n      swap1\n      revert\n    tag_76:\n        /* \"contracts/Crowdfunding.sol\":2774:2779  owner */\n      immutable(\"0x7880aec93413f117ef14bd4e6d130875ab2c7d7d55a064fac3c2f7bd51516380\")\n        /* \"contracts/Crowdfunding.sol\":2759:2788  FundsWithdrawn(owner, amount) */\n      0xffffffffffffffffffffffffffffffffffffffff\n      and\n      0xeaff4b37086828766ad3268786972c0cd24259d4c87a80f9d3963a3c3d999b0d\n        /* \"contracts/Crowdfunding.sol\":2781:2787  amount */\n      dup4\n        /* \"contracts/Crowdfunding.sol\":2759:2788  FundsWithdrawn(owner, amount) */\n      mload(0x40)\n      tag_79\n      swap2\n      swap1\n      tag_25\n      jump\t// in\n    tag_79:\n      mload(0x40)\n      dup1\n      swap2\n      sub\n      swap1\n      log2\n        /* \"contracts/Crowdfunding.sol\":2484:2796  {... */\n      pop\n      pop\n        /* \"contracts/Crowdfunding.sol\":1247:1248  _ */\n      pop\n        /* \"contracts/Crowdfunding.sol\":2419:2796  function withdrawFunds() public onlyOwner inState(State.Success) {... */\n      jump\t// out\n        /* \"contracts/Crowdfunding.sol\":549:584  uint256 public immutable goalAmount */\n    tag_23:\n      immutable(\"0x1d3be50b2bb17407dd170f1d5da128d1def30c6b1598d6a629e79b4775265526\")\n      dup2\n      jump\t// out\n        /* \"contracts/Crowdfunding.sol\":488:521  uint256 public immutable deadline */\n    tag_28:\n      immutable(\"0x789bcdf275fa270780a52ae3b79bb1ce0fda7e0aaad87b57b74bb99ac290714a\")\n      dup2\n      jump\t// out\n        /* \"contracts/Crowdfunding.sol\":699:733  uint256 public currentRaisedAmount */\n    tag_32:\n      sload(0x01)\n      dup2\n      jump\t// out\n        /* \"contracts/Crowdfunding.sol\":621:671  uint256 public constant MIN_CONTRIBUTION = 1 ether */\n    tag_36:\n        /* \"contracts/Crowdfunding.sol\":664:671  1 ether */\n      0x0de0b6b3a7640000\n        /* \"contracts/Crowdfunding.sol\":621:671  uint256 public constant MIN_CONTRIBUTION = 1 ether */\n      dup2\n      jump\t// out\n        /* \"contracts/Crowdfunding.sol\":770:818  mapping(address => uint256) public contributions */\n    tag_42:\n      mstore(0x20, 0x02)\n      dup1\n      0x00\n      mstore\n      keccak256(0x00, 0x40)\n      0x00\n      swap2\n      pop\n      swap1\n      pop\n      sload\n      dup2\n      jump\t// out\n        /* \"contracts/Crowdfunding.sol\":2817:3244  function refund() public inState(State.Failed) {... */\n    tag_46:\n        /* \"contracts/Crowdfunding.sol\":2850:2862  State.Failed */\n      0x02\n        /* \"contracts/Crowdfunding.sol\":1328:1334  _state */\n      dup1\n        /* \"contracts/Crowdfunding.sol\":1312:1334  currentState == _state */\n      0x03\n      dup2\n      gt\n      iszero\n      tag_81\n      jumpi\n      tag_82\n      tag_61\n      jump\t// in\n    tag_82:\n    tag_81:\n        /* \"contracts/Crowdfunding.sol\":1312:1324  currentState */\n      0x00\n      0x00\n      swap1\n      sload\n      swap1\n      0x0100\n      exp\n      swap1\n      div\n      0xff\n      and\n        /* \"contracts/Crowdfunding.sol\":1312:1334  currentState == _state */\n      0x03\n      dup2\n      gt\n      iszero\n      tag_83\n      jumpi\n      tag_84\n      tag_61\n      jump\t// in\n    tag_84:\n    tag_83:\n      eq\n        /* \"contracts/Crowdfunding.sol\":1304:1352  require(currentState == _state, \"Invalid state\") */\n      tag_85\n      jumpi\n      mload(0x40)\n      0x08c379a000000000000000000000000000000000000000000000000000000000\n      dup2\n      mstore\n      0x04\n      add\n      tag_86\n      swap1\n      tag_66\n      jump\t// in\n    tag_86:\n      mload(0x40)\n      dup1\n      swap2\n      sub\n      swap1\n      revert\n    tag_85:\n        /* \"contracts/Crowdfunding.sol\":2875:2897  uint256 amountToRefund */\n      0x00\n        /* \"contracts/Crowdfunding.sol\":2900:2913  contributions */\n      0x02\n        /* \"contracts/Crowdfunding.sol\":2900:2925  contributions[msg.sender] */\n      0x00\n        /* \"contracts/Crowdfunding.sol\":2914:2924  msg.sender */\n      caller\n        /* \"contracts/Crowdfunding.sol\":2900:2925  contributions[msg.sender] */\n      0xffffffffffffffffffffffffffffffffffffffff\n      and\n      0xffffffffffffffffffffffffffffffffffffffff\n      and\n      dup2\n      mstore\n      0x20\n      add\n      swap1\n      dup2\n      mstore\n      0x20\n      add\n      0x00\n      keccak256\n      sload\n        /* \"contracts/Crowdfunding.sol\":2875:2925  uint256 amountToRefund = contributions[msg.sender] */\n      swap1\n      pop\n        /* \"contracts/Crowdfunding.sol\":2961:2962  0 */\n      0x00\n        /* \"contracts/Crowdfunding.sol\":2944:2958  amountToRefund */\n      dup2\n        /* \"contracts/Crowdfunding.sol\":2944:2962  amountToRefund > 0 */\n      gt\n        /* \"contracts/Crowdfunding.sol\":2936:2992  require(amountToRefund > 0, \"No contribution to refund\") */\n      tag_88\n      jumpi\n      mload(0x40)\n      0x08c379a000000000000000000000000000000000000000000000000000000000\n      dup2\n      mstore\n      0x04\n      add\n      tag_89\n      swap1\n      tag_90\n      jump\t// in\n    tag_89:\n      mload(0x40)\n      dup1\n      swap2\n      sub\n      swap1\n      revert\n    tag_88:\n        /* \"contracts/Crowdfunding.sol\":3041:3042  0 */\n      0x00\n        /* \"contracts/Crowdfunding.sol\":3013:3026  contributions */\n      0x02\n        /* \"contracts/Crowdfunding.sol\":3013:3038  contributions[msg.sender] */\n      0x00\n        /* \"contracts/Crowdfunding.sol\":3027:3037  msg.sender */\n      caller\n        /* \"contracts/Crowdfunding.sol\":3013:3038  contributions[msg.sender] */\n      0xffffffffffffffffffffffffffffffffffffffff\n      and\n      0xffffffffffffffffffffffffffffffffffffffff\n      and\n      dup2\n      mstore\n      0x20\n      add\n      swap1\n      dup2\n      mstore\n      0x20\n      add\n      0x00\n      keccak256\n        /* \"contracts/Crowdfunding.sol\":3013:3042  contributions[msg.sender] = 0 */\n      dup2\n      swap1\n      sstore\n      pop\n        /* \"contracts/Crowdfunding.sol\":3054:3066  bool success */\n      0x00\n        /* \"contracts/Crowdfunding.sol\":3080:3090  msg.sender */\n      caller\n        /* \"contracts/Crowdfunding.sol\":3072:3096  payable(msg.sender).call */\n      0xffffffffffffffffffffffffffffffffffffffff\n      and\n        /* \"contracts/Crowdfunding.sol\":3104:3118  amountToRefund */\n      dup3\n        /* \"contracts/Crowdfunding.sol\":3072:3123  payable(msg.sender).call{value: amountToRefund}(\"\") */\n      mload(0x40)\n      tag_91\n      swap1\n      tag_72\n      jump\t// in\n    tag_91:\n      0x00\n      mload(0x40)\n      dup1\n      dup4\n      sub\n      dup2\n      dup6\n      dup8\n      gas\n      call\n      swap3\n      pop\n      pop\n      pop\n      returndatasize\n      dup1\n      0x00\n      dup2\n      eq\n      tag_94\n      jumpi\n      mload(0x40)\n      swap2\n      pop\n      and(add(returndatasize, 0x3f), not(0x1f))\n      dup3\n      add\n      0x40\n      mstore\n      returndatasize\n      dup3\n      mstore\n      returndatasize\n      0x00\n      0x20\n      dup5\n      add\n      returndatacopy\n      jump(tag_93)\n    tag_94:\n      0x60\n      swap2\n      pop\n    tag_93:\n      pop\n        /* \"contracts/Crowdfunding.sol\":3053:3123  (bool success, ) = payable(msg.sender).call{value: amountToRefund}(\"\") */\n      pop\n      swap1\n      pop\n        /* \"contracts/Crowdfunding.sol\":3142:3149  success */\n      dup1\n        /* \"contracts/Crowdfunding.sol\":3134:3170  require(success, \"Failed to refund\") */\n      tag_95\n      jumpi\n      mload(0x40)\n      0x08c379a000000000000000000000000000000000000000000000000000000000\n      dup2\n      mstore\n      0x04\n      add\n      tag_96\n      swap1\n      tag_97\n      jump\t// in\n    tag_96:\n      mload(0x40)\n      dup1\n      swap2\n      sub\n      swap1\n      revert\n    tag_95:\n        /* \"contracts/Crowdfunding.sol\":3209:3219  msg.sender */\n      caller\n        /* \"contracts/Crowdfunding.sol\":3196:3236  RefundIssued(msg.sender, amountToRefund) */\n      0xffffffffffffffffffffffffffffffffffffffff\n      and\n      0xa171b6942063c6f2800ce40a780edce37baa2b618571b11eedd1e69e626e7d76\n        /* \"contracts/Crowdfunding.sol\":3221:3235  amountToRefund */\n      dup4\n        /* \"contracts/Crowdfunding.sol\":3196:3236  RefundIssued(msg.sender, amountToRefund) */\n      mload(0x40)\n      tag_98\n      swap2\n      swap1\n      tag_25\n      jump\t// in\n    tag_98:\n      mload(0x40)\n      dup1\n      swap2\n      sub\n      swap1\n      log2\n        /* \"contracts/Crowdfunding.sol\":2864:3244  {... */\n      pop\n      pop\n        /* \"contracts/Crowdfunding.sol\":2817:3244  function refund() public inState(State.Failed) {... */\n      pop\n      jump\t// out\n        /* \"contracts/Crowdfunding.sol\":433:463  address public immutable owner */\n    tag_49:\n      immutable(\"0x7880aec93413f117ef14bd4e6d130875ab2c7d7d55a064fac3c2f7bd51516380\")\n      dup2\n      jump\t// out\n        /* \"contracts/Crowdfunding.sol\":1826:2398  function contribute() public payable inState(State.Fundraising) {... */\n    tag_53:\n        /* \"contracts/Crowdfunding.sol\":1871:1888  State.Fundraising */\n      0x00\n        /* \"contracts/Crowdfunding.sol\":1328:1334  _state */\n      dup1\n        /* \"contracts/Crowdfunding.sol\":1312:1334  currentState == _state */\n      0x03\n      dup2\n      gt\n      iszero\n      tag_100\n      jumpi\n      tag_101\n      tag_61\n      jump\t// in\n    tag_101:\n    tag_100:\n        /* \"contracts/Crowdfunding.sol\":1312:1324  currentState */\n      0x00\n      0x00\n      swap1\n      sload\n      swap1\n      0x0100\n      exp\n      swap1\n      div\n      0xff\n      and\n        /* \"contracts/Crowdfunding.sol\":1312:1334  currentState == _state */\n      0x03\n      dup2\n      gt\n      iszero\n      tag_102\n      jumpi\n      tag_103\n      tag_61\n      jump\t// in\n    tag_103:\n    tag_102:\n      eq\n        /* \"contracts/Crowdfunding.sol\":1304:1352  require(currentState == _state, \"Invalid state\") */\n      tag_104\n      jumpi\n      mload(0x40)\n      0x08c379a000000000000000000000000000000000000000000000000000000000\n      dup2\n      mstore\n      0x04\n      add\n      tag_105\n      swap1\n      tag_66\n      jump\t// in\n    tag_105:\n      mload(0x40)\n      dup1\n      swap2\n      sub\n      swap1\n      revert\n    tag_104:\n        /* \"contracts/Crowdfunding.sol\":664:671  1 ether */\n      0x0de0b6b3a7640000\n        /* \"contracts/Crowdfunding.sol\":1909:1918  msg.value */\n      callvalue\n        /* \"contracts/Crowdfunding.sol\":1909:1938  msg.value >= MIN_CONTRIBUTION */\n      lt\n      iszero\n        /* \"contracts/Crowdfunding.sol\":1901:1989  require(msg.value >= MIN_CONTRIBUTION, \"Contribution must be at least MIN_CONTRIBUTION\") */\n      tag_107\n      jumpi\n      mload(0x40)\n      0x08c379a000000000000000000000000000000000000000000000000000000000\n      dup2\n      mstore\n      0x04\n      add\n      tag_108\n      swap1\n      tag_109\n      jump\t// in\n    tag_108:\n      mload(0x40)\n      dup1\n      swap2\n      sub\n      swap1\n      revert\n    tag_107:\n        /* \"contracts/Crowdfunding.sol\":2027:2035  deadline */\n      immutable(\"0x789bcdf275fa270780a52ae3b79bb1ce0fda7e0aaad87b57b74bb99ac290714a\")\n        /* \"contracts/Crowdfunding.sol\":2008:2023  block.timestamp */\n      timestamp\n        /* \"contracts/Crowdfunding.sol\":2008:2035  block.timestamp <= deadline */\n      gt\n      iszero\n        /* \"contracts/Crowdfunding.sol\":2000:2062  require(block.timestamp <= deadline, \"Crowdfunding has ended\") */\n      tag_110\n      jumpi\n      mload(0x40)\n      0x08c379a000000000000000000000000000000000000000000000000000000000\n      dup2\n      mstore\n      0x04\n      add\n      tag_111\n      swap1\n      tag_112\n      jump\t// in\n    tag_111:\n      mload(0x40)\n      dup1\n      swap2\n      sub\n      swap1\n      revert\n    tag_110:\n        /* \"contracts/Crowdfunding.sol\":2104:2113  msg.value */\n      callvalue\n        /* \"contracts/Crowdfunding.sol\":2075:2088  contributions */\n      0x02\n        /* \"contracts/Crowdfunding.sol\":2075:2100  contributions[msg.sender] */\n      0x00\n        /* \"contracts/Crowdfunding.sol\":2089:2099  msg.sender */\n      caller\n        /* \"contracts/Crowdfunding.sol\":2075:2100  contributions[msg.sender] */\n      0xffffffffffffffffffffffffffffffffffffffff\n      and\n      0xffffffffffffffffffffffffffffffffffffffff\n      and\n      dup2\n      mstore\n      0x20\n      add\n      swap1\n      dup2\n      mstore\n      0x20\n      add\n      0x00\n      keccak256\n      0x00\n        /* \"contracts/Crowdfunding.sol\":2075:2113  contributions[msg.sender] += msg.value */\n      dup3\n      dup3\n      sload\n      tag_113\n      swap2\n      swap1\n      tag_114\n      jump\t// in\n    tag_113:\n      swap3\n      pop\n      pop\n      dup2\n      swap1\n      sstore\n      pop\n        /* \"contracts/Crowdfunding.sol\":2147:2156  msg.value */\n      callvalue\n        /* \"contracts/Crowdfunding.sol\":2124:2143  currentRaisedAmount */\n      0x01\n      0x00\n        /* \"contracts/Crowdfunding.sol\":2124:2156  currentRaisedAmount += msg.value */\n      dup3\n      dup3\n      sload\n      tag_115\n      swap2\n      swap1\n      tag_114\n      jump\t// in\n    tag_115:\n      swap3\n      pop\n      pop\n      dup2\n      swap1\n      sstore\n      pop\n        /* \"contracts/Crowdfunding.sol\":2196:2206  goalAmount */\n      immutable(\"0x1d3be50b2bb17407dd170f1d5da128d1def30c6b1598d6a629e79b4775265526\")\n        /* \"contracts/Crowdfunding.sol\":2173:2192  currentRaisedAmount */\n      sload(0x01)\n        /* \"contracts/Crowdfunding.sol\":2173:2206  currentRaisedAmount >= goalAmount */\n      lt\n        /* \"contracts/Crowdfunding.sol\":2169:2309  if (currentRaisedAmount >= goalAmount) {... */\n      tag_116\n      jumpi\n        /* \"contracts/Crowdfunding.sol\":2238:2251  State.Success */\n      0x01\n        /* \"contracts/Crowdfunding.sol\":2223:2235  currentState */\n      0x00\n      0x00\n        /* \"contracts/Crowdfunding.sol\":2223:2251  currentState = State.Success */\n      0x0100\n      exp\n      dup2\n      sload\n      dup2\n      0xff\n      mul\n      not\n      and\n      swap1\n      dup4\n      0x03\n      dup2\n      gt\n      iszero\n      tag_117\n      jumpi\n      tag_118\n      tag_61\n      jump\t// in\n    tag_118:\n    tag_117:\n      mul\n      or\n      swap1\n      sstore\n      pop\n        /* \"contracts/Crowdfunding.sol\":2271:2297  StateChanged(currentState) */\n      0x551dc40198cc79684bb69e4931dba4ac16e4598792ee1c0a5000aeea366d7bb6\n        /* \"contracts/Crowdfunding.sol\":2284:2296  currentState */\n      0x00\n      0x00\n      swap1\n      sload\n      swap1\n      0x0100\n      exp\n      swap1\n      div\n      0xff\n      and\n        /* \"contracts/Crowdfunding.sol\":2271:2297  StateChanged(currentState) */\n      mload(0x40)\n      tag_119\n      swap2\n      swap1\n      tag_17\n      jump\t// in\n    tag_119:\n      mload(0x40)\n      dup1\n      swap2\n      sub\n      swap1\n      log1\n        /* \"contracts/Crowdfunding.sol\":2169:2309  if (currentRaisedAmount >= goalAmount) {... */\n    tag_116:\n        /* \"contracts/Crowdfunding.sol\":2347:2357  msg.sender */\n      caller\n        /* \"contracts/Crowdfunding.sol\":2326:2390  ContributionReceived(msg.sender, msg.value, currentRaisedAmount) */\n      0xffffffffffffffffffffffffffffffffffffffff\n      and\n      0xd2dff949d20e874cc6ba1dcefb840fb8cf6000a4197bfb69accfea5a32443ff5\n        /* \"contracts/Crowdfunding.sol\":2359:2368  msg.value */\n      callvalue\n        /* \"contracts/Crowdfunding.sol\":2370:2389  currentRaisedAmount */\n      sload(0x01)\n        /* \"contracts/Crowdfunding.sol\":2326:2390  ContributionReceived(msg.sender, msg.value, currentRaisedAmount) */\n      mload(0x40)\n      tag_120\n      swap3\n      swap2\n      swap1\n      tag_121\n      jump\t// in\n    tag_120:\n      mload(0x40)\n      dup1\n      swap2\n      sub\n      swap1\n      log2\n        /* \"contracts/Crowdfunding.sol\":1826:2398  function contribute() public payable inState(State.Fundraising) {... */\n      pop\n      jump\t// out\n        /* \"#utility.yul\":7:187   */\n    tag_61:\n        /* \"#utility.yul\":55:132   */\n      0x4e487b7100000000000000000000000000000000000000000000000000000000\n        /* \"#utility.yul\":52:53   */\n      0x00\n        /* \"#utility.yul\":45:133   */\n      mstore\n        /* \"#utility.yul\":152:156   */\n      0x21\n        /* \"#utility.yul\":149:150   */\n      0x04\n        /* \"#utility.yul\":142:157   */\n      mstore\n        /* \"#utility.yul\":176:180   */\n      0x24\n        /* \"#utility.yul\":173:174   */\n      0x00\n        /* \"#utility.yul\":166:181   */\n      revert\n        /* \"#utility.yul\":193:305   */\n    tag_122:\n        /* \"#utility.yul\":273:274   */\n      0x04\n        /* \"#utility.yul\":266:271   */\n      dup2\n        /* \"#utility.yul\":263:275   */\n      lt\n        /* \"#utility.yul\":253:299   */\n      tag_158\n      jumpi\n        /* \"#utility.yul\":279:297   */\n      tag_159\n      tag_61\n      jump\t// in\n    tag_159:\n        /* \"#utility.yul\":253:299   */\n    tag_158:\n        /* \"#utility.yul\":193:305   */\n      pop\n      jump\t// out\n        /* \"#utility.yul\":311:436   */\n    tag_123:\n        /* \"#utility.yul\":355:362   */\n      0x00\n        /* \"#utility.yul\":384:389   */\n      dup2\n        /* \"#utility.yul\":373:389   */\n      swap1\n      pop\n        /* \"#utility.yul\":390:430   */\n      tag_161\n        /* \"#utility.yul\":424:429   */\n      dup3\n        /* \"#utility.yul\":390:430   */\n      tag_122\n      jump\t// in\n    tag_161:\n        /* \"#utility.yul\":311:436   */\n      swap2\n      swap1\n      pop\n      jump\t// out\n        /* \"#utility.yul\":442:567   */\n    tag_124:\n        /* \"#utility.yul\":497:506   */\n      0x00\n        /* \"#utility.yul\":530:561   */\n      tag_163\n        /* \"#utility.yul\":555:560   */\n      dup3\n        /* \"#utility.yul\":530:561   */\n      tag_123\n      jump\t// in\n    tag_163:\n        /* \"#utility.yul\":517:561   */\n      swap1\n      pop\n        /* \"#utility.yul\":442:567   */\n      swap2\n      swap1\n      pop\n      jump\t// out\n        /* \"#utility.yul\":573:714   */\n    tag_125:\n        /* \"#utility.yul\":665:707   */\n      tag_165\n        /* \"#utility.yul\":701:706   */\n      dup2\n        /* \"#utility.yul\":665:707   */\n      tag_124\n      jump\t// in\n    tag_165:\n        /* \"#utility.yul\":660:663   */\n      dup3\n        /* \"#utility.yul\":653:708   */\n      mstore\n        /* \"#utility.yul\":573:714   */\n      pop\n      pop\n      jump\t// out\n        /* \"#utility.yul\":720:952   */\n    tag_17:\n        /* \"#utility.yul\":818:822   */\n      0x00\n        /* \"#utility.yul\":856:858   */\n      0x20\n        /* \"#utility.yul\":845:854   */\n      dup3\n        /* \"#utility.yul\":841:859   */\n      add\n        /* \"#utility.yul\":833:859   */\n      swap1\n      pop\n        /* \"#utility.yul\":869:945   */\n      tag_167\n        /* \"#utility.yul\":942:943   */\n      0x00\n        /* \"#utility.yul\":931:940   */\n      dup4\n        /* \"#utility.yul\":927:944   */\n      add\n        /* \"#utility.yul\":918:924   */\n      dup5\n        /* \"#utility.yul\":869:945   */\n      tag_125\n      jump\t// in\n    tag_167:\n        /* \"#utility.yul\":720:952   */\n      swap3\n      swap2\n      pop\n      pop\n      jump\t// out\n        /* \"#utility.yul\":958:1035   */\n    tag_126:\n        /* \"#utility.yul\":995:1002   */\n      0x00\n        /* \"#utility.yul\":1024:1029   */\n      dup2\n        /* \"#utility.yul\":1013:1029   */\n      swap1\n      pop\n        /* \"#utility.yul\":958:1035   */\n      swap2\n      swap1\n      pop\n      jump\t// out\n        /* \"#utility.yul\":1041:1159   */\n    tag_127:\n        /* \"#utility.yul\":1128:1152   */\n      tag_170\n        /* \"#utility.yul\":1146:1151   */\n      dup2\n        /* \"#utility.yul\":1128:1152   */\n      tag_126\n      jump\t// in\n    tag_170:\n        /* \"#utility.yul\":1123:1126   */\n      dup3\n        /* \"#utility.yul\":1116:1153   */\n      mstore\n        /* \"#utility.yul\":1041:1159   */\n      pop\n      pop\n      jump\t// out\n        /* \"#utility.yul\":1165:1387   */\n    tag_25:\n        /* \"#utility.yul\":1258:1262   */\n      0x00\n        /* \"#utility.yul\":1296:1298   */\n      0x20\n        /* \"#utility.yul\":1285:1294   */\n      dup3\n        /* \"#utility.yul\":1281:1299   */\n      add\n        /* \"#utility.yul\":1273:1299   */\n      swap1\n      pop\n        /* \"#utility.yul\":1309:1380   */\n      tag_172\n        /* \"#utility.yul\":1377:1378   */\n      0x00\n        /* \"#utility.yul\":1366:1375   */\n      dup4\n        /* \"#utility.yul\":1362:1379   */\n      add\n        /* \"#utility.yul\":1353:1359   */\n      dup5\n        /* \"#utility.yul\":1309:1380   */\n      tag_127\n      jump\t// in\n    tag_172:\n        /* \"#utility.yul\":1165:1387   */\n      swap3\n      swap2\n      pop\n      pop\n      jump\t// out\n        /* \"#utility.yul\":1474:1591   */\n    tag_129:\n        /* \"#utility.yul\":1583:1584   */\n      0x00\n        /* \"#utility.yul\":1580:1581   */\n      0x00\n        /* \"#utility.yul\":1573:1585   */\n      revert\n        /* \"#utility.yul\":1720:1846   */\n    tag_131:\n        /* \"#utility.yul\":1757:1764   */\n      0x00\n        /* \"#utility.yul\":1797:1839   */\n      0xffffffffffffffffffffffffffffffffffffffff\n        /* \"#utility.yul\":1790:1795   */\n      dup3\n        /* \"#utility.yul\":1786:1840   */\n      and\n        /* \"#utility.yul\":1775:1840   */\n      swap1\n      pop\n        /* \"#utility.yul\":1720:1846   */\n      swap2\n      swap1\n      pop\n      jump\t// out\n        /* \"#utility.yul\":1852:1948   */\n    tag_132:\n        /* \"#utility.yul\":1889:1896   */\n      0x00\n        /* \"#utility.yul\":1918:1942   */\n      tag_178\n        /* \"#utility.yul\":1936:1941   */\n      dup3\n        /* \"#utility.yul\":1918:1942   */\n      tag_131\n      jump\t// in\n    tag_178:\n        /* \"#utility.yul\":1907:1942   */\n      swap1\n      pop\n        /* \"#utility.yul\":1852:1948   */\n      swap2\n      swap1\n      pop\n      jump\t// out\n        /* \"#utility.yul\":1954:2076   */\n    tag_133:\n        /* \"#utility.yul\":2027:2051   */\n      tag_180\n        /* \"#utility.yul\":2045:2050   */\n      dup2\n        /* \"#utility.yul\":2027:2051   */\n      tag_132\n      jump\t// in\n    tag_180:\n        /* \"#utility.yul\":2020:2025   */\n      dup2\n        /* \"#utility.yul\":2017:2052   */\n      eq\n        /* \"#utility.yul\":2007:2070   */\n      tag_181\n      jumpi\n        /* \"#utility.yul\":2066:2067   */\n      0x00\n        /* \"#utility.yul\":2063:2064   */\n      0x00\n        /* \"#utility.yul\":2056:2068   */\n      revert\n        /* \"#utility.yul\":2007:2070   */\n    tag_181:\n        /* \"#utility.yul\":1954:2076   */\n      pop\n      jump\t// out\n        /* \"#utility.yul\":2082:2221   */\n    tag_134:\n        /* \"#utility.yul\":2128:2133   */\n      0x00\n        /* \"#utility.yul\":2166:2172   */\n      dup2\n        /* \"#utility.yul\":2153:2173   */\n      calldataload\n        /* \"#utility.yul\":2144:2173   */\n      swap1\n      pop\n        /* \"#utility.yul\":2182:2215   */\n      tag_183\n        /* \"#utility.yul\":2209:2214   */\n      dup2\n        /* \"#utility.yul\":2182:2215   */\n      tag_133\n      jump\t// in\n    tag_183:\n        /* \"#utility.yul\":2082:2221   */\n      swap3\n      swap2\n      pop\n      pop\n      jump\t// out\n        /* \"#utility.yul\":2227:2556   */\n    tag_41:\n        /* \"#utility.yul\":2286:2292   */\n      0x00\n        /* \"#utility.yul\":2335:2337   */\n      0x20\n        /* \"#utility.yul\":2323:2332   */\n      dup3\n        /* \"#utility.yul\":2314:2321   */\n      dup5\n        /* \"#utility.yul\":2310:2333   */\n      sub\n        /* \"#utility.yul\":2306:2338   */\n      slt\n        /* \"#utility.yul\":2303:2422   */\n      iszero\n      tag_185\n      jumpi\n        /* \"#utility.yul\":2341:2420   */\n      tag_186\n      tag_129\n      jump\t// in\n    tag_186:\n        /* \"#utility.yul\":2303:2422   */\n    tag_185:\n        /* \"#utility.yul\":2461:2462   */\n      0x00\n        /* \"#utility.yul\":2486:2539   */\n      tag_187\n        /* \"#utility.yul\":2531:2538   */\n      dup5\n        /* \"#utility.yul\":2522:2528   */\n      dup3\n        /* \"#utility.yul\":2511:2520   */\n      dup6\n        /* \"#utility.yul\":2507:2529   */\n      add\n        /* \"#utility.yul\":2486:2539   */\n      tag_134\n      jump\t// in\n    tag_187:\n        /* \"#utility.yul\":2476:2539   */\n      swap2\n      pop\n        /* \"#utility.yul\":2432:2549   */\n      pop\n        /* \"#utility.yul\":2227:2556   */\n      swap3\n      swap2\n      pop\n      pop\n      jump\t// out\n        /* \"#utility.yul\":2562:2680   */\n    tag_135:\n        /* \"#utility.yul\":2649:2673   */\n      tag_189\n        /* \"#utility.yul\":2667:2672   */\n      dup2\n        /* \"#utility.yul\":2649:2673   */\n      tag_132\n      jump\t// in\n    tag_189:\n        /* \"#utility.yul\":2644:2647   */\n      dup3\n        /* \"#utility.yul\":2637:2674   */\n      mstore\n        /* \"#utility.yul\":2562:2680   */\n      pop\n      pop\n      jump\t// out\n        /* \"#utility.yul\":2686:2908   */\n    tag_51:\n        /* \"#utility.yul\":2779:2783   */\n      0x00\n        /* \"#utility.yul\":2817:2819   */\n      0x20\n        /* \"#utility.yul\":2806:2815   */\n      dup3\n        /* \"#utility.yul\":2802:2820   */\n      add\n        /* \"#utility.yul\":2794:2820   */\n      swap1\n      pop\n        /* \"#utility.yul\":2830:2901   */\n      tag_191\n        /* \"#utility.yul\":2898:2899   */\n      0x00\n        /* \"#utility.yul\":2887:2896   */\n      dup4\n        /* \"#utility.yul\":2883:2900   */\n      add\n        /* \"#utility.yul\":2874:2880   */\n      dup5\n        /* \"#utility.yul\":2830:2901   */\n      tag_135\n      jump\t// in\n    tag_191:\n        /* \"#utility.yul\":2686:2908   */\n      swap3\n      swap2\n      pop\n      pop\n      jump\t// out\n        /* \"#utility.yul\":2914:3083   */\n    tag_136:\n        /* \"#utility.yul\":2998:3009   */\n      0x00\n        /* \"#utility.yul\":3032:3038   */\n      dup3\n        /* \"#utility.yul\":3027:3030   */\n      dup3\n        /* \"#utility.yul\":3020:3039   */\n      mstore\n        /* \"#utility.yul\":3072:3076   */\n      0x20\n        /* \"#utility.yul\":3067:3070   */\n      dup3\n        /* \"#utility.yul\":3063:3077   */\n      add\n        /* \"#utility.yul\":3048:3077   */\n      swap1\n      pop\n        /* \"#utility.yul\":2914:3083   */\n      swap3\n      swap2\n      pop\n      pop\n      jump\t// out\n        /* \"#utility.yul\":3089:3249   */\n    tag_137:\n        /* \"#utility.yul\":3229:3241   */\n      0x4f6e6c79206f776e657200000000000000000000000000000000000000000000\n        /* \"#utility.yul\":3225:3226   */\n      0x00\n        /* \"#utility.yul\":3217:3223   */\n      dup3\n        /* \"#utility.yul\":3213:3227   */\n      add\n        /* \"#utility.yul\":3206:3242   */\n      mstore\n        /* \"#utility.yul\":3089:3249   */\n      pop\n      jump\t// out\n        /* \"#utility.yul\":3255:3621   */\n    tag_138:\n        /* \"#utility.yul\":3397:3400   */\n      0x00\n        /* \"#utility.yul\":3418:3485   */\n      tag_195\n        /* \"#utility.yul\":3482:3484   */\n      0x0a\n        /* \"#utility.yul\":3477:3480   */\n      dup4\n        /* \"#utility.yul\":3418:3485   */\n      tag_136\n      jump\t// in\n    tag_195:\n        /* \"#utility.yul\":3411:3485   */\n      swap2\n      pop\n        /* \"#utility.yul\":3494:3587   */\n      tag_196\n        /* \"#utility.yul\":3583:3586   */\n      dup3\n        /* \"#utility.yul\":3494:3587   */\n      tag_137\n      jump\t// in\n    tag_196:\n        /* \"#utility.yul\":3612:3614   */\n      0x20\n        /* \"#utility.yul\":3607:3610   */\n      dup3\n        /* \"#utility.yul\":3603:3615   */\n      add\n        /* \"#utility.yul\":3596:3615   */\n      swap1\n      pop\n        /* \"#utility.yul\":3255:3621   */\n      swap2\n      swap1\n      pop\n      jump\t// out\n        /* \"#utility.yul\":3627:4046   */\n    tag_57:\n        /* \"#utility.yul\":3793:3797   */\n      0x00\n        /* \"#utility.yul\":3831:3833   */\n      0x20\n        /* \"#utility.yul\":3820:3829   */\n      dup3\n        /* \"#utility.yul\":3816:3834   */\n      add\n        /* \"#utility.yul\":3808:3834   */\n      swap1\n      pop\n        /* \"#utility.yul\":3880:3889   */\n      dup2\n        /* \"#utility.yul\":3874:3878   */\n      dup2\n        /* \"#utility.yul\":3870:3890   */\n      sub\n        /* \"#utility.yul\":3866:3867   */\n      0x00\n        /* \"#utility.yul\":3855:3864   */\n      dup4\n        /* \"#utility.yul\":3851:3868   */\n      add\n        /* \"#utility.yul\":3844:3891   */\n      mstore\n        /* \"#utility.yul\":3908:4039   */\n      tag_198\n        /* \"#utility.yul\":4034:4038   */\n      dup2\n        /* \"#utility.yul\":3908:4039   */\n      tag_138\n      jump\t// in\n    tag_198:\n        /* \"#utility.yul\":3900:4039   */\n      swap1\n      pop\n        /* \"#utility.yul\":3627:4046   */\n      swap2\n      swap1\n      pop\n      jump\t// out\n        /* \"#utility.yul\":4052:4215   */\n    tag_139:\n        /* \"#utility.yul\":4192:4207   */\n      0x496e76616c696420737461746500000000000000000000000000000000000000\n        /* \"#utility.yul\":4188:4189   */\n      0x00\n        /* \"#utility.yul\":4180:4186   */\n      dup3\n        /* \"#utility.yul\":4176:4190   */\n      add\n        /* \"#utility.yul\":4169:4208   */\n      mstore\n        /* \"#utility.yul\":4052:4215   */\n      pop\n      jump\t// out\n        /* \"#utility.yul\":4221:4587   */\n    tag_140:\n        /* \"#utility.yul\":4363:4366   */\n      0x00\n        /* \"#utility.yul\":4384:4451   */\n      tag_201\n        /* \"#utility.yul\":4448:4450   */\n      0x0d\n        /* \"#utility.yul\":4443:4446   */\n      dup4\n        /* \"#utility.yul\":4384:4451   */\n      tag_136\n      jump\t// in\n    tag_201:\n        /* \"#utility.yul\":4377:4451   */\n      swap2\n      pop\n        /* \"#utility.yul\":4460:4553   */\n      tag_202\n        /* \"#utility.yul\":4549:4552   */\n      dup3\n        /* \"#utility.yul\":4460:4553   */\n      tag_139\n      jump\t// in\n    tag_202:\n        /* \"#utility.yul\":4578:4580   */\n      0x20\n        /* \"#utility.yul\":4573:4576   */\n      dup3\n        /* \"#utility.yul\":4569:4581   */\n      add\n        /* \"#utility.yul\":4562:4581   */\n      swap1\n      pop\n        /* \"#utility.yul\":4221:4587   */\n      swap2\n      swap1\n      pop\n      jump\t// out\n        /* \"#utility.yul\":4593:5012   */\n    tag_66:\n        /* \"#utility.yul\":4759:4763   */\n      0x00\n        /* \"#utility.yul\":4797:4799   */\n      0x20\n        /* \"#utility.yul\":4786:4795   */\n      dup3\n        /* \"#utility.yul\":4782:4800   */\n      add\n        /* \"#utility.yul\":4774:4800   */\n      swap1\n      pop\n        /* \"#utility.yul\":4846:4855   */\n      dup2\n        /* \"#utility.yul\":4840:4844   */\n      dup2\n        /* \"#utility.yul\":4836:4856   */\n      sub\n        /* \"#utility.yul\":4832:4833   */\n      0x00\n        /* \"#utility.yul\":4821:4830   */\n      dup4\n        /* \"#utility.yul\":4817:4834   */\n      add\n        /* \"#utility.yul\":4810:4857   */\n      mstore\n        /* \"#utility.yul\":4874:5005   */\n      tag_204\n        /* \"#utility.yul\":5000:5004   */\n      dup2\n        /* \"#utility.yul\":4874:5005   */\n      tag_140\n      jump\t// in\n    tag_204:\n        /* \"#utility.yul\":4866:5005   */\n      swap1\n      pop\n        /* \"#utility.yul\":4593:5012   */\n      swap2\n      swap1\n      pop\n      jump\t// out\n        /* \"#utility.yul\":5018:5165   */\n    tag_141:\n        /* \"#utility.yul\":5119:5130   */\n      0x00\n        /* \"#utility.yul\":5156:5159   */\n      dup2\n        /* \"#utility.yul\":5141:5159   */\n      swap1\n      pop\n        /* \"#utility.yul\":5018:5165   */\n      swap3\n      swap2\n      pop\n      pop\n      jump\t// out\n        /* \"#utility.yul\":5171:5285   */\n    tag_142:\n      pop\n      jump\t// out\n        /* \"#utility.yul\":5291:5689   */\n    tag_143:\n        /* \"#utility.yul\":5450:5453   */\n      0x00\n        /* \"#utility.yul\":5471:5554   */\n      tag_208\n        /* \"#utility.yul\":5552:5553   */\n      0x00\n        /* \"#utility.yul\":5547:5550   */\n      dup4\n        /* \"#utility.yul\":5471:5554   */\n      tag_141\n      jump\t// in\n    tag_208:\n        /* \"#utility.yul\":5464:5554   */\n      swap2\n      pop\n        /* \"#utility.yul\":5563:5656   */\n      tag_209\n        /* \"#utility.yul\":5652:5655   */\n      dup3\n        /* \"#utility.yul\":5563:5656   */\n      tag_142\n      jump\t// in\n    tag_209:\n        /* \"#utility.yul\":5681:5682   */\n      0x00\n        /* \"#utility.yul\":5676:5679   */\n      dup3\n        /* \"#utility.yul\":5672:5683   */\n      add\n        /* \"#utility.yul\":5665:5683   */\n      swap1\n      pop\n        /* \"#utility.yul\":5291:5689   */\n      swap2\n      swap1\n      pop\n      jump\t// out\n        /* \"#utility.yul\":5695:6074   */\n    tag_72:\n        /* \"#utility.yul\":5879:5882   */\n      0x00\n        /* \"#utility.yul\":5901:6048   */\n      tag_211\n        /* \"#utility.yul\":6044:6047   */\n      dup3\n        /* \"#utility.yul\":5901:6048   */\n      tag_143\n      jump\t// in\n    tag_211:\n        /* \"#utility.yul\":5894:6048   */\n      swap2\n      pop\n        /* \"#utility.yul\":6065:6068   */\n      dup2\n        /* \"#utility.yul\":6058:6068   */\n      swap1\n      pop\n        /* \"#utility.yul\":5695:6074   */\n      swap2\n      swap1\n      pop\n      jump\t// out\n        /* \"#utility.yul\":6080:6254   */\n    tag_144:\n        /* \"#utility.yul\":6220:6246   */\n      0x4661696c656420746f2077697468647261772046756e64730000000000000000\n        /* \"#utility.yul\":6216:6217   */\n      0x00\n        /* \"#utility.yul\":6208:6214   */\n      dup3\n        /* \"#utility.yul\":6204:6218   */\n      add\n        /* \"#utility.yul\":6197:6247   */\n      mstore\n        /* \"#utility.yul\":6080:6254   */\n      pop\n      jump\t// out\n        /* \"#utility.yul\":6260:6626   */\n    tag_145:\n        /* \"#utility.yul\":6402:6405   */\n      0x00\n        /* \"#utility.yul\":6423:6490   */\n      tag_214\n        /* \"#utility.yul\":6487:6489   */\n      0x18\n        /* \"#utility.yul\":6482:6485   */\n      dup4\n        /* \"#utility.yul\":6423:6490   */\n      tag_136\n      jump\t// in\n    tag_214:\n        /* \"#utility.yul\":6416:6490   */\n      swap2\n      pop\n        /* \"#utility.yul\":6499:6592   */\n      tag_215\n        /* \"#utility.yul\":6588:6591   */\n      dup3\n        /* \"#utility.yul\":6499:6592   */\n      tag_144\n      jump\t// in\n    tag_215:\n        /* \"#utility.yul\":6617:6619   */\n      0x20\n        /* \"#utility.yul\":6612:6615   */\n      dup3\n        /* \"#utility.yul\":6608:6620   */\n      add\n        /* \"#utility.yul\":6601:6620   */\n      swap1\n      pop\n        /* \"#utility.yul\":6260:6626   */\n      swap2\n      swap1\n      pop\n      jump\t// out\n        /* \"#utility.yul\":6632:7051   */\n    tag_78:\n        /* \"#utility.yul\":6798:6802   */\n      0x00\n        /* \"#utility.yul\":6836:6838   */\n      0x20\n        /* \"#utility.yul\":6825:6834   */\n      dup3\n        /* \"#utility.yul\":6821:6839   */\n      add\n        /* \"#utility.yul\":6813:6839   */\n      swap1\n      pop\n        /* \"#utility.yul\":6885:6894   */\n      dup2\n        /* \"#utility.yul\":6879:6883   */\n      dup2\n        /* \"#utility.yul\":6875:6895   */\n      sub\n        /* \"#utility.yul\":6871:6872   */\n      0x00\n        /* \"#utility.yul\":6860:6869   */\n      dup4\n        /* \"#utility.yul\":6856:6873   */\n      add\n        /* \"#utility.yul\":6849:6896   */\n      mstore\n        /* \"#utility.yul\":6913:7044   */\n      tag_217\n        /* \"#utility.yul\":7039:7043   */\n      dup2\n        /* \"#utility.yul\":6913:7044   */\n      tag_145\n      jump\t// in\n    tag_217:\n        /* \"#utility.yul\":6905:7044   */\n      swap1\n      pop\n        /* \"#utility.yul\":6632:7051   */\n      swap2\n      swap1\n      pop\n      jump\t// out\n        /* \"#utility.yul\":7057:7232   */\n    tag_146:\n        /* \"#utility.yul\":7197:7224   */\n      0x4e6f20636f6e747269627574696f6e20746f20726566756e6400000000000000\n        /* \"#utility.yul\":7193:7194   */\n      0x00\n        /* \"#utility.yul\":7185:7191   */\n      dup3\n        /* \"#utility.yul\":7181:7195   */\n      add\n        /* \"#utility.yul\":7174:7225   */\n      mstore\n        /* \"#utility.yul\":7057:7232   */\n      pop\n      jump\t// out\n        /* \"#utility.yul\":7238:7604   */\n    tag_147:\n        /* \"#utility.yul\":7380:7383   */\n      0x00\n        /* \"#utility.yul\":7401:7468   */\n      tag_220\n        /* \"#utility.yul\":7465:7467   */\n      0x19\n        /* \"#utility.yul\":7460:7463   */\n      dup4\n        /* \"#utility.yul\":7401:7468   */\n      tag_136\n      jump\t// in\n    tag_220:\n        /* \"#utility.yul\":7394:7468   */\n      swap2\n      pop\n        /* \"#utility.yul\":7477:7570   */\n      tag_221\n        /* \"#utility.yul\":7566:7569   */\n      dup3\n        /* \"#utility.yul\":7477:7570   */\n      tag_146\n      jump\t// in\n    tag_221:\n        /* \"#utility.yul\":7595:7597   */\n      0x20\n        /* \"#utility.yul\":7590:7593   */\n      dup3\n        /* \"#utility.yul\":7586:7598   */\n      add\n        /* \"#utility.yul\":7579:7598   */\n      swap1\n      pop\n        /* \"#utility.yul\":7238:7604   */\n      swap2\n      swap1\n      pop\n      jump\t// out\n        /* \"#utility.yul\":7610:8029   */\n    tag_90:\n        /* \"#utility.yul\":7776:7780   */\n      0x00\n        /* \"#utility.yul\":7814:7816   */\n      0x20\n        /* \"#utility.yul\":7803:7812   */\n      dup3\n        /* \"#utility.yul\":7799:7817   */\n      add\n        /* \"#utility.yul\":7791:7817   */\n      swap1\n      pop\n        /* \"#utility.yul\":7863:7872   */\n      dup2\n        /* \"#utility.yul\":7857:7861   */\n      dup2\n        /* \"#utility.yul\":7853:7873   */\n      sub\n        /* \"#utility.yul\":7849:7850   */\n      0x00\n        /* \"#utility.yul\":7838:7847   */\n      dup4\n        /* \"#utility.yul\":7834:7851   */\n      add\n        /* \"#utility.yul\":7827:7874   */\n      mstore\n        /* \"#utility.yul\":7891:8022   */\n      tag_223\n        /* \"#utility.yul\":8017:8021   */\n      dup2\n        /* \"#utility.yul\":7891:8022   */\n      tag_147\n      jump\t// in\n    tag_223:\n        /* \"#utility.yul\":7883:8022   */\n      swap1\n      pop\n        /* \"#utility.yul\":7610:8029   */\n      swap2\n      swap1\n      pop\n      jump\t// out\n        /* \"#utility.yul\":8035:8201   */\n    tag_148:\n        /* \"#utility.yul\":8175:8193   */\n      0x4661696c656420746f20726566756e6400000000000000000000000000000000\n        /* \"#utility.yul\":8171:8172   */\n      0x00\n        /* \"#utility.yul\":8163:8169   */\n      dup3\n        /* \"#utility.yul\":8159:8173   */\n      add\n        /* \"#utility.yul\":8152:8194   */\n      mstore\n        /* \"#utility.yul\":8035:8201   */\n      pop\n      jump\t// out\n        /* \"#utility.yul\":8207:8573   */\n    tag_149:\n        /* \"#utility.yul\":8349:8352   */\n      0x00\n        /* \"#utility.yul\":8370:8437   */\n      tag_226\n        /* \"#utility.yul\":8434:8436   */\n      0x10\n        /* \"#utility.yul\":8429:8432   */\n      dup4\n        /* \"#utility.yul\":8370:8437   */\n      tag_136\n      jump\t// in\n    tag_226:\n        /* \"#utility.yul\":8363:8437   */\n      swap2\n      pop\n        /* \"#utility.yul\":8446:8539   */\n      tag_227\n        /* \"#utility.yul\":8535:8538   */\n      dup3\n        /* \"#utility.yul\":8446:8539   */\n      tag_148\n      jump\t// in\n    tag_227:\n        /* \"#utility.yul\":8564:8566   */\n      0x20\n        /* \"#utility.yul\":8559:8562   */\n      dup3\n        /* \"#utility.yul\":8555:8567   */\n      add\n        /* \"#utility.yul\":8548:8567   */\n      swap1\n      pop\n        /* \"#utility.yul\":8207:8573   */\n      swap2\n      swap1\n      pop\n      jump\t// out\n        /* \"#utility.yul\":8579:8998   */\n    tag_97:\n        /* \"#utility.yul\":8745:8749   */\n      0x00\n        /* \"#utility.yul\":8783:8785   */\n      0x20\n        /* \"#utility.yul\":8772:8781   */\n      dup3\n        /* \"#utility.yul\":8768:8786   */\n      add\n        /* \"#utility.yul\":8760:8786   */\n      swap1\n      pop\n        /* \"#utility.yul\":8832:8841   */\n      dup2\n        /* \"#utility.yul\":8826:8830   */\n      dup2\n        /* \"#utility.yul\":8822:8842   */\n      sub\n        /* \"#utility.yul\":8818:8819   */\n      0x00\n        /* \"#utility.yul\":8807:8816   */\n      dup4\n        /* \"#utility.yul\":8803:8820   */\n      add\n        /* \"#utility.yul\":8796:8843   */\n      mstore\n        /* \"#utility.yul\":8860:8991   */\n      tag_229\n        /* \"#utility.yul\":8986:8990   */\n      dup2\n        /* \"#utility.yul\":8860:8991   */\n      tag_149\n      jump\t// in\n    tag_229:\n        /* \"#utility.yul\":8852:8991   */\n      swap1\n      pop\n        /* \"#utility.yul\":8579:8998   */\n      swap2\n      swap1\n      pop\n      jump\t// out\n        /* \"#utility.yul\":9004:9237   */\n    tag_150:\n        /* \"#utility.yul\":9144:9178   */\n      0x436f6e747269627574696f6e206d757374206265206174206c65617374204d49\n        /* \"#utility.yul\":9140:9141   */\n      0x00\n        /* \"#utility.yul\":9132:9138   */\n      dup3\n        /* \"#utility.yul\":9128:9142   */\n      add\n        /* \"#utility.yul\":9121:9179   */\n      mstore\n        /* \"#utility.yul\":9213:9229   */\n      0x4e5f434f4e545249425554494f4e000000000000000000000000000000000000\n        /* \"#utility.yul\":9208:9210   */\n      0x20\n        /* \"#utility.yul\":9200:9206   */\n      dup3\n        /* \"#utility.yul\":9196:9211   */\n      add\n        /* \"#utility.yul\":9189:9230   */\n      mstore\n        /* \"#utility.yul\":9004:9237   */\n      pop\n      jump\t// out\n        /* \"#utility.yul\":9243:9609   */\n    tag_151:\n        /* \"#utility.yul\":9385:9388   */\n      0x00\n        /* \"#utility.yul\":9406:9473   */\n      tag_232\n        /* \"#utility.yul\":9470:9472   */\n      0x2e\n        /* \"#utility.yul\":9465:9468   */\n      dup4\n        /* \"#utility.yul\":9406:9473   */\n      tag_136\n      jump\t// in\n    tag_232:\n        /* \"#utility.yul\":9399:9473   */\n      swap2\n      pop\n        /* \"#utility.yul\":9482:9575   */\n      tag_233\n        /* \"#utility.yul\":9571:9574   */\n      dup3\n        /* \"#utility.yul\":9482:9575   */\n      tag_150\n      jump\t// in\n    tag_233:\n        /* \"#utility.yul\":9600:9602   */\n      0x40\n        /* \"#utility.yul\":9595:9598   */\n      dup3\n        /* \"#utility.yul\":9591:9603   */\n      add\n        /* \"#utility.yul\":9584:9603   */\n      swap1\n      pop\n        /* \"#utility.yul\":9243:9609   */\n      swap2\n      swap1\n      pop\n      jump\t// out\n        /* \"#utility.yul\":9615:10034   */\n    tag_109:\n        /* \"#utility.yul\":9781:9785   */\n      0x00\n        /* \"#utility.yul\":9819:9821   */\n      0x20\n        /* \"#utility.yul\":9808:9817   */\n      dup3\n        /* \"#utility.yul\":9804:9822   */\n      add\n        /* \"#utility.yul\":9796:9822   */\n      swap1\n      pop\n        /* \"#utility.yul\":9868:9877   */\n      dup2\n        /* \"#utility.yul\":9862:9866   */\n      dup2\n        /* \"#utility.yul\":9858:9878   */\n      sub\n        /* \"#utility.yul\":9854:9855   */\n      0x00\n        /* \"#utility.yul\":9843:9852   */\n      dup4\n        /* \"#utility.yul\":9839:9856   */\n      add\n        /* \"#utility.yul\":9832:9879   */\n      mstore\n        /* \"#utility.yul\":9896:10027   */\n      tag_235\n        /* \"#utility.yul\":10022:10026   */\n      dup2\n        /* \"#utility.yul\":9896:10027   */\n      tag_151\n      jump\t// in\n    tag_235:\n        /* \"#utility.yul\":9888:10027   */\n      swap1\n      pop\n        /* \"#utility.yul\":9615:10034   */\n      swap2\n      swap1\n      pop\n      jump\t// out\n        /* \"#utility.yul\":10040:10212   */\n    tag_152:\n        /* \"#utility.yul\":10180:10204   */\n      0x43726f776466756e64696e672068617320656e64656400000000000000000000\n        /* \"#utility.yul\":10176:10177   */\n      0x00\n        /* \"#utility.yul\":10168:10174   */\n      dup3\n        /* \"#utility.yul\":10164:10178   */\n      add\n        /* \"#utility.yul\":10157:10205   */\n      mstore\n        /* \"#utility.yul\":10040:10212   */\n      pop\n      jump\t// out\n        /* \"#utility.yul\":10218:10584   */\n    tag_153:\n        /* \"#utility.yul\":10360:10363   */\n      0x00\n        /* \"#utility.yul\":10381:10448   */\n      tag_238\n        /* \"#utility.yul\":10445:10447   */\n      0x16\n        /* \"#utility.yul\":10440:10443   */\n      dup4\n        /* \"#utility.yul\":10381:10448   */\n      tag_136\n      jump\t// in\n    tag_238:\n        /* \"#utility.yul\":10374:10448   */\n      swap2\n      pop\n        /* \"#utility.yul\":10457:10550   */\n      tag_239\n        /* \"#utility.yul\":10546:10549   */\n      dup3\n        /* \"#utility.yul\":10457:10550   */\n      tag_152\n      jump\t// in\n    tag_239:\n        /* \"#utility.yul\":10575:10577   */\n      0x20\n        /* \"#utility.yul\":10570:10573   */\n      dup3\n        /* \"#utility.yul\":10566:10578   */\n      add\n        /* \"#utility.yul\":10559:10578   */\n      swap1\n      pop\n        /* \"#utility.yul\":10218:10584   */\n      swap2\n      swap1\n      pop\n      jump\t// out\n        /* \"#utility.yul\":10590:11009   */\n    tag_112:\n        /* \"#utility.yul\":10756:10760   */\n      0x00\n        /* \"#utility.yul\":10794:10796   */\n      0x20\n        /* \"#utility.yul\":10783:10792   */\n      dup3\n        /* \"#utility.yul\":10779:10797   */\n      add\n        /* \"#utility.yul\":10771:10797   */\n      swap1\n      pop\n        /* \"#utility.yul\":10843:10852   */\n      dup2\n        /* \"#utility.yul\":10837:10841   */\n      dup2\n        /* \"#utility.yul\":10833:10853   */\n      sub\n        /* \"#utility.yul\":10829:10830   */\n      0x00\n        /* \"#utility.yul\":10818:10827   */\n      dup4\n        /* \"#utility.yul\":10814:10831   */\n      add\n        /* \"#utility.yul\":10807:10854   */\n      mstore\n        /* \"#utility.yul\":10871:11002   */\n      tag_241\n        /* \"#utility.yul\":10997:11001   */\n      dup2\n        /* \"#utility.yul\":10871:11002   */\n      tag_153\n      jump\t// in\n    tag_241:\n        /* \"#utility.yul\":10863:11002   */\n      swap1\n      pop\n        /* \"#utility.yul\":10590:11009   */\n      swap2\n      swap1\n      pop\n      jump\t// out\n        /* \"#utility.yul\":11015:11195   */\n    tag_154:\n        /* \"#utility.yul\":11063:11140   */\n      0x4e487b7100000000000000000000000000000000000000000000000000000000\n        /* \"#utility.yul\":11060:11061   */\n      0x00\n        /* \"#utility.yul\":11053:11141   */\n      mstore\n        /* \"#utility.yul\":11160:11164   */\n      0x11\n        /* \"#utility.yul\":11157:11158   */\n      0x04\n        /* \"#utility.yul\":11150:11165   */\n      mstore\n        /* \"#utility.yul\":11184:11188   */\n      0x24\n        /* \"#utility.yul\":11181:11182   */\n      0x00\n        /* \"#utility.yul\":11174:11189   */\n      revert\n        /* \"#utility.yul\":11201:11392   */\n    tag_114:\n        /* \"#utility.yul\":11241:11244   */\n      0x00\n        /* \"#utility.yul\":11260:11280   */\n      tag_244\n        /* \"#utility.yul\":11278:11279   */\n      dup3\n        /* \"#utility.yul\":11260:11280   */\n      tag_126\n      jump\t// in\n    tag_244:\n        /* \"#utility.yul\":11255:11280   */\n      swap2\n      pop\n        /* \"#utility.yul\":11294:11314   */\n      tag_245\n        /* \"#utility.yul\":11312:11313   */\n      dup4\n        /* \"#utility.yul\":11294:11314   */\n      tag_126\n      jump\t// in\n    tag_245:\n        /* \"#utility.yul\":11289:11314   */\n      swap3\n      pop\n        /* \"#utility.yul\":11337:11338   */\n      dup3\n        /* \"#utility.yul\":11334:11335   */\n      dup3\n        /* \"#utility.yul\":11330:11339   */\n      add\n        /* \"#utility.yul\":11323:11339   */\n      swap1\n      pop\n        /* \"#utility.yul\":11358:11361   */\n      dup1\n        /* \"#utility.yul\":11355:11356   */\n      dup3\n        /* \"#utility.yul\":11352:11362   */\n      gt\n        /* \"#utility.yul\":11349:11385   */\n      iszero\n      tag_246\n      jumpi\n        /* \"#utility.yul\":11365:11383   */\n      tag_247\n      tag_154\n      jump\t// in\n    tag_247:\n        /* \"#utility.yul\":11349:11385   */\n    tag_246:\n        /* \"#utility.yul\":11201:11392   */\n      swap3\n      swap2\n      pop\n      pop\n      jump\t// out\n        /* \"#utility.yul\":11398:11730   */\n    tag_121:\n        /* \"#utility.yul\":11519:11523   */\n      0x00\n        /* \"#utility.yul\":11557:11559   */\n      0x40\n        /* \"#utility.yul\":11546:11555   */\n      dup3\n        /* \"#utility.yul\":11542:11560   */\n      add\n        /* \"#utility.yul\":11534:11560   */\n      swap1\n      pop\n        /* \"#utility.yul\":11570:11641   */\n      tag_249\n        /* \"#utility.yul\":11638:11639   */\n      0x00\n        /* \"#utility.yul\":11627:11636   */\n      dup4\n        /* \"#utility.yul\":11623:11640   */\n      add\n        /* \"#utility.yul\":11614:11620   */\n      dup6\n        /* \"#utility.yul\":11570:11641   */\n      tag_127\n      jump\t// in\n    tag_249:\n        /* \"#utility.yul\":11651:11723   */\n      tag_250\n        /* \"#utility.yul\":11719:11721   */\n      0x20\n        /* \"#utility.yul\":11708:11717   */\n      dup4\n        /* \"#utility.yul\":11704:11722   */\n      add\n        /* \"#utility.yul\":11695:11701   */\n      dup5\n        /* \"#utility.yul\":11651:11723   */\n      tag_127\n      jump\t// in\n    tag_250:\n        /* \"#utility.yul\":11398:11730   */\n      swap4\n      swap3\n      pop\n      pop\n      pop\n      jump\t// out\n\n    auxdata: 0xa264697066735822122079bc33b4eb13573a824a6d5cd9dc0020cb95cba3731484d26eb37a08ed77713264736f6c634300081e0033\n}\n",
				"bytecode": {
					"linkReferences": {},
					"object": "60e060405234801561000f575f5ffd5b506040516113dc3803806113dc833981810160405281019061003191906101c7565b5f8211610073576040517f08c379a000000000000000000000000000000000000000000000000000000000815260040161006a9061025f565b60405180910390fd5b5f811180156100835750605a8111155b6100c2576040517f08c379a00000000000000000000000000000000000000000000000000000000081526004016100b9906102c7565b60405180910390fd5b3373ffffffffffffffffffffffffffffffffffffffff1660808173ffffffffffffffffffffffffffffffffffffffff1681525050603c816101039190610312565b4261010e9190610353565b60a081815250508160c081815250505f5f5f6101000a81548160ff021916908360038111156101405761013f610386565b5b02179055507f551dc40198cc79684bb69e4931dba4ac16e4598792ee1c0a5000aeea366d7bb65f5f9054906101000a900460ff1660405161018191906103f9565b60405180910390a15050610412565b5f5ffd5b5f819050919050565b6101a681610194565b81146101b0575f5ffd5b50565b5f815190506101c18161019d565b92915050565b5f5f604083850312156101dd576101dc610190565b5b5f6101ea858286016101b3565b92505060206101fb858286016101b3565b9150509250929050565b5f82825260208201905092915050565b7f496e76616c696420616d6f756e740000000000000000000000000000000000005f82015250565b5f610249600e83610205565b915061025482610215565b602082019050919050565b5f6020820190508181035f8301526102768161023d565b9050919050565b7f496e76616c6964206475726174696f6e000000000000000000000000000000005f82015250565b5f6102b1601083610205565b91506102bc8261027d565b602082019050919050565b5f6020820190508181035f8301526102de816102a5565b9050919050565b7f4e487b71000000000000000000000000000000000000000000000000000000005f52601160045260245ffd5b5f61031c82610194565b915061032783610194565b925082820261033581610194565b9150828204841483151761034c5761034b6102e5565b5b5092915050565b5f61035d82610194565b915061036883610194565b92508282019050808211156103805761037f6102e5565b5b92915050565b7f4e487b71000000000000000000000000000000000000000000000000000000005f52602160045260245ffd5b600481106103c4576103c3610386565b5b50565b5f8190506103d4826103b3565b919050565b5f6103e3826103c7565b9050919050565b6103f3816103d9565b82525050565b5f60208201905061040c5f8301846103ea565b92915050565b60805160a05160c051610f7d61045f5f395f81816104c4015261091901525f81816104e8015261084b01525f81816102150152818161038a0152818161045101526107680152610f7d5ff3fe608060405260043610610090575f3560e01c806340650c911161005857806340650c911461015257806342e94c901461017c578063590e1ae3146101b85780638da5cb5b146101ce578063d7bb99ba146101f857610090565b80630c3f6acf1461009457806324600fc3146100be5780632636b945146100d457806329dcb0cf146100fe5780632d2a1d2014610128575b5f5ffd5b34801561009f575f5ffd5b506100a8610202565b6040516100b59190610a76565b60405180910390f35b3480156100c9575f5ffd5b506100d2610213565b005b3480156100df575f5ffd5b506100e86104c2565b6040516100f59190610aa7565b60405180910390f35b348015610109575f5ffd5b506101126104e6565b60405161011f9190610aa7565b60405180910390f35b348015610133575f5ffd5b5061013c61050a565b6040516101499190610aa7565b60405180910390f35b34801561015d575f5ffd5b50610166610510565b6040516101739190610aa7565b60405180910390f35b348015610187575f5ffd5b506101a2600480360381019061019d9190610b1e565b61051c565b6040516101af9190610aa7565b60405180910390f35b3480156101c3575f5ffd5b506101cc610531565b005b3480156101d9575f5ffd5b506101e2610766565b6040516101ef9190610b58565b60405180910390f35b61020061078a565b005b5f5f9054906101000a900460ff1681565b7f000000000000000000000000000000000000000000000000000000000000000073ffffffffffffffffffffffffffffffffffffffff163373ffffffffffffffffffffffffffffffffffffffff16146102a1576040517f08c379a000000000000000000000000000000000000000000000000000000000815260040161029890610bcb565b60405180910390fd5b60018060038111156102b6576102b5610a03565b5b5f5f9054906101000a900460ff1660038111156102d6576102d5610a03565b5b14610316576040517f08c379a000000000000000000000000000000000000000000000000000000000815260040161030d90610c33565b60405180910390fd5b60035f5f6101000a81548160ff0219169083600381111561033a57610339610a03565b5b02179055507f551dc40198cc79684bb69e4931dba4ac16e4598792ee1c0a5000aeea366d7bb65f5f9054906101000a900460ff1660405161037b9190610a76565b60405180910390a15f4790505f7f000000000000000000000000000000000000000000000000000000000000000073ffffffffffffffffffffffffffffffffffffffff16826040516103cc90610c7e565b5f6040518083038185875af1925050503d805f8114610406576040519150601f19603f3d011682016040523d82523d5f602084013e61040b565b606091505b505090508061044f576040517f08c379a000000000000000000000000000000000000000000000000000000000815260040161044690610cdc565b60405180910390fd5b7f000000000000000000000000000000000000000000000000000000000000000073ffffffffffffffffffffffffffffffffffffffff167feaff4b37086828766ad3268786972c0cd24259d4c87a80f9d3963a3c3d999b0d836040516104b59190610aa7565b60405180910390a2505050565b7f000000000000000000000000000000000000000000000000000000000000000081565b7f000000000000000000000000000000000000000000000000000000000000000081565b60015481565b670de0b6b3a764000081565b6002602052805f5260405f205f915090505481565b600280600381111561054657610545610a03565b5b5f5f9054906101000a900460ff16600381111561056657610565610a03565b5b146105a6576040517f08c379a000000000000000000000000000000000000000000000000000000000815260040161059d90610c33565b60405180910390fd5b5f60025f3373ffffffffffffffffffffffffffffffffffffffff1673ffffffffffffffffffffffffffffffffffffffff1681526020019081526020015f205490505f8111610629576040517f08c379a000000000000000000000000000000000000000000000000000000000815260040161062090610d44565b60405180910390fd5b5f60025f3373ffffffffffffffffffffffffffffffffffffffff1673ffffffffffffffffffffffffffffffffffffffff1681526020019081526020015f20819055505f3373ffffffffffffffffffffffffffffffffffffffff168260405161069090610c7e565b5f6040518083038185875af1925050503d805f81146106ca576040519150601f19603f3d011682016040523d82523d5f602084013e6106cf565b606091505b5050905080610713576040517f08c379a000000000000000000000000000000000000000000000000000000000815260040161070a90610dac565b60405180910390fd5b3373ffffffffffffffffffffffffffffffffffffffff167fa171b6942063c6f2800ce40a780edce37baa2b618571b11eedd1e69e626e7d76836040516107599190610aa7565b60405180910390a2505050565b7f000000000000000000000000000000000000000000000000000000000000000081565b5f80600381111561079e5761079d610a03565b5b5f5f9054906101000a900460ff1660038111156107be576107bd610a03565b5b146107fe576040517f08c379a00000000000000000000000000000000000000000000000000000000081526004016107f590610c33565b60405180910390fd5b670de0b6b3a7640000341015610849576040517f08c379a000000000000000000000000000000000000000000000000000000000815260040161084090610e3a565b60405180910390fd5b7f00000000000000000000000000000000000000000000000000000000000000004211156108ac576040517f08c379a00000000000000000000000000000000000000000000000000000000081526004016108a390610ea2565b60405180910390fd5b3460025f3373ffffffffffffffffffffffffffffffffffffffff1673ffffffffffffffffffffffffffffffffffffffff1681526020019081526020015f205f8282546108f89190610eed565b925050819055503460015f8282546109109190610eed565b925050819055507f0000000000000000000000000000000000000000000000000000000000000000600154106109ae5760015f5f6101000a81548160ff0219169083600381111561096457610963610a03565b5b02179055507f551dc40198cc79684bb69e4931dba4ac16e4598792ee1c0a5000aeea366d7bb65f5f9054906101000a900460ff166040516109a59190610a76565b60405180910390a15b3373ffffffffffffffffffffffffffffffffffffffff167fd2dff949d20e874cc6ba1dcefb840fb8cf6000a4197bfb69accfea5a32443ff5346001546040516109f8929190610f20565b60405180910390a250565b7f4e487b71000000000000000000000000000000000000000000000000000000005f52602160045260245ffd5b60048110610a4157610a40610a03565b5b50565b5f819050610a5182610a30565b919050565b5f610a6082610a44565b9050919050565b610a7081610a56565b82525050565b5f602082019050610a895f830184610a67565b92915050565b5f819050919050565b610aa181610a8f565b82525050565b5f602082019050610aba5f830184610a98565b92915050565b5f5ffd5b5f73ffffffffffffffffffffffffffffffffffffffff82169050919050565b5f610aed82610ac4565b9050919050565b610afd81610ae3565b8114610b07575f5ffd5b50565b5f81359050610b1881610af4565b92915050565b5f60208284031215610b3357610b32610ac0565b5b5f610b4084828501610b0a565b91505092915050565b610b5281610ae3565b82525050565b5f602082019050610b6b5f830184610b49565b92915050565b5f82825260208201905092915050565b7f4f6e6c79206f776e6572000000000000000000000000000000000000000000005f82015250565b5f610bb5600a83610b71565b9150610bc082610b81565b602082019050919050565b5f6020820190508181035f830152610be281610ba9565b9050919050565b7f496e76616c6964207374617465000000000000000000000000000000000000005f82015250565b5f610c1d600d83610b71565b9150610c2882610be9565b602082019050919050565b5f6020820190508181035f830152610c4a81610c11565b9050919050565b5f81905092915050565b50565b5f610c695f83610c51565b9150610c7482610c5b565b5f82019050919050565b5f610c8882610c5e565b9150819050919050565b7f4661696c656420746f2077697468647261772046756e647300000000000000005f82015250565b5f610cc6601883610b71565b9150610cd182610c92565b602082019050919050565b5f6020820190508181035f830152610cf381610cba565b9050919050565b7f4e6f20636f6e747269627574696f6e20746f20726566756e64000000000000005f82015250565b5f610d2e601983610b71565b9150610d3982610cfa565b602082019050919050565b5f6020820190508181035f830152610d5b81610d22565b9050919050565b7f4661696c656420746f20726566756e64000000000000000000000000000000005f82015250565b5f610d96601083610b71565b9150610da182610d62565b602082019050919050565b5f6020820190508181035f830152610dc381610d8a565b9050919050565b7f436f6e747269627574696f6e206d757374206265206174206c65617374204d495f8201527f4e5f434f4e545249425554494f4e000000000000000000000000000000000000602082015250565b5f610e24602e83610b71565b9150610e2f82610dca565b604082019050919050565b5f6020820190508181035f830152610e5181610e18565b9050919050565b7f43726f776466756e64696e672068617320656e646564000000000000000000005f82015250565b5f610e8c601683610b71565b9150610e9782610e58565b602082019050919050565b5f6020820190508181035f830152610eb981610e80565b9050919050565b7f4e487b71000000000000000000000000000000000000000000000000000000005f52601160045260245ffd5b5f610ef782610a8f565b9150610f0283610a8f565b9250828201905080821115610f1a57610f19610ec0565b5b92915050565b5f604082019050610f335f830185610a98565b610f406020830184610a98565b939250505056fea264697066735822122079bc33b4eb13573a824a6d5cd9dc0020cb95cba3731484d26eb37a08ed77713264736f6c634300081e0033",
					"opcodes": "PUSH1 0xE0 PUSH1 0x40 MSTORE CALLVALUE DUP1 ISZERO PUSH2 0xF JUMPI PUSH0 PUSH0 REVERT JUMPDEST POP PUSH1 0x40 MLOAD PUSH2 0x13DC CODESIZE SUB DUP1 PUSH2 0x13DC DUP4 CODECOPY DUP2 DUP2 ADD PUSH1 0x40 MSTORE DUP2 ADD SWAP1 PUSH2 0x31 SWAP2 SWAP1 PUSH2 0x1C7 JUMP JUMPDEST PUSH0 DUP3 GT PUSH2 0x73 JUMPI PUSH1 0x40 MLOAD PUSH32 0x8C379A000000000000000000000000000000000000000000000000000000000 DUP2 MSTORE PUSH1 0x4 ADD PUSH2 0x6A SWAP1 PUSH2 0x25F JUMP JUMPDEST PUSH1 0x40 MLOAD DUP1 SWAP2 SUB SWAP1 REVERT JUMPDEST PUSH0 DUP2 GT DUP1 ISZERO PUSH2 0x83 JUMPI POP PUSH1 0x5A DUP2 GT ISZERO JUMPDEST PUSH2 0xC2 JUMPI PUSH1 0x40 MLOAD PUSH32 0x8C379A000000000000000000000000000000000000000000000000000000000 DUP2 MSTORE PUSH1 0x4 ADD PUSH2 0xB9 SWAP1 PUSH2 0x2C7 JUMP JUMPDEST PUSH1 0x40 MLOAD DUP1 SWAP2 SUB SWAP1 REVERT JUMPDEST CALLER PUSH20 0xFFFFFFFFFFFFFFFFFFFFFFFFFFFFFFFFFFFFFFFF AND PUSH1 0x80 DUP2 PUSH20 0xFFFFFFFFFFFFFFFFFFFFFFFFFFFFFFFFFFFFFFFF AND DUP2 MSTORE POP POP PUSH1 0x3C DUP2 PUSH2 0x103 SWAP2 SWAP1 PUSH2 0x312 JUMP JUMPDEST TIMESTAMP PUSH2 0x10E SWAP2 SWAP1 PUSH2 0x353 JUMP JUMPDEST PUSH1 0xA0 DUP2 DUP2 MSTORE POP POP DUP2 PUSH1 0xC0 DUP2 DUP2 MSTORE POP POP PUSH0 PUSH0 PUSH0 PUSH2 0x100 EXP DUP2 SLOAD DUP2 PUSH1 0xFF MUL NOT AND SWAP1 DUP4 PUSH1 0x3 DUP2 GT ISZERO PUSH2 0x140 JUMPI PUSH2 0x13F PUSH2 0x386 JUMP JUMPDEST JUMPDEST MUL OR SWAP1 SSTORE POP PUSH32 0x551DC40198CC79684BB69E4931DBA4AC16E4598792EE1C0A5000AEEA366D7BB6 PUSH0 PUSH0 SWAP1 SLOAD SWAP1 PUSH2 0x100 EXP SWAP1 DIV PUSH1 0xFF AND PUSH1 0x40 MLOAD PUSH2 0x181 SWAP2 SWAP1 PUSH2 0x3F9 JUMP JUMPDEST PUSH1 0x40 MLOAD DUP1 SWAP2 SUB SWAP1 LOG1 POP POP PUSH2 0x412 JUMP JUMPDEST PUSH0 PUSH0 REVERT JUMPDEST PUSH0 DUP2 SWAP1 POP SWAP2 SWAP1 POP JUMP JUMPDEST PUSH2 0x1A6 DUP2 PUSH2 0x194 JUMP JUMPDEST DUP2 EQ PUSH2 0x1B0 JUMPI PUSH0 PUSH0 REVERT JUMPDEST POP JUMP JUMPDEST PUSH0 DUP2 MLOAD SWAP1 POP PUSH2 0x1C1 DUP2 PUSH2 0x19D JUMP JUMPDEST SWAP3 SWAP2 POP POP JUMP JUMPDEST PUSH0 PUSH0 PUSH1 0x40 DUP4 DUP6 SUB SLT ISZERO PUSH2 0x1DD JUMPI PUSH2 0x1DC PUSH2 0x190 JUMP JUMPDEST JUMPDEST PUSH0 PUSH2 0x1EA DUP6 DUP3 DUP7 ADD PUSH2 0x1B3 JUMP JUMPDEST SWAP3 POP POP PUSH1 0x20 PUSH2 0x1FB DUP6 DUP3 DUP7 ADD PUSH2 0x1B3 JUMP JUMPDEST SWAP2 POP POP SWAP3 POP SWAP3 SWAP1 POP JUMP JUMPDEST PUSH0 DUP3 DUP3 MSTORE PUSH1 0x20 DUP3 ADD SWAP1 POP SWAP3 SWAP2 POP POP JUMP JUMPDEST PUSH32 0x496E76616C696420616D6F756E74000000000000000000000000000000000000 PUSH0 DUP3 ADD MSTORE POP JUMP JUMPDEST PUSH0 PUSH2 0x249 PUSH1 0xE DUP4 PUSH2 0x205 JUMP JUMPDEST SWAP2 POP PUSH2 0x254 DUP3 PUSH2 0x215 JUMP JUMPDEST PUSH1 0x20 DUP3 ADD SWAP1 POP SWAP2 SWAP1 POP JUMP JUMPDEST PUSH0 PUSH1 0x20 DUP3 ADD SWAP1 POP DUP2 DUP2 SUB PUSH0 DUP4 ADD MSTORE PUSH2 0x276 DUP2 PUSH2 0x23D JUMP JUMPDEST SWAP1 POP SWAP2 SWAP1 POP JUMP JUMPDEST PUSH32 0x496E76616C6964206475726174696F6E00000000000000000000000000000000 PUSH0 DUP3 ADD MSTORE POP JUMP JUMPDEST PUSH0 PUSH2 0x2B1 PUSH1 0x10 DUP4 PUSH2 0x205 JUMP JUMPDEST SWAP2 POP PUSH2 0x2BC DUP3 PUSH2 0x27D JUMP JUMPDEST PUSH1 0x20 DUP3 ADD SWAP1 POP SWAP2 SWAP1 POP JUMP JUMPDEST PUSH0 PUSH1 0x20 DUP3 ADD SWAP1 POP DUP2 DUP2 SUB PUSH0 DUP4 ADD MSTORE PUSH2 0x2DE DUP2 PUSH2 0x2A5 JUMP JUMPDEST SWAP1 POP SWAP2 SWAP1 POP JUMP JUMPDEST PUSH32 0x4E487B7100000000000000000000000000000000000000000000000000000000 PUSH0 MSTORE PUSH1 0x11 PUSH1 0x4 MSTORE PUSH1 0x24 PUSH0 REVERT JUMPDEST PUSH0 PUSH2 0x31C DUP3 PUSH2 0x194 JUMP JUMPDEST SWAP2 POP PUSH2 0x327 DUP4 PUSH2 0x194 JUMP JUMPDEST SWAP3 POP DUP3 DUP3 MUL PUSH2 0x335 DUP2 PUSH2 0x194 JUMP JUMPDEST SWAP2 POP DUP3 DUP3 DIV DUP5 EQ DUP4 ISZERO OR PUSH2 0x34C JUMPI PUSH2 0x34B PUSH2 0x2E5 JUMP JUMPDEST JUMPDEST POP SWAP3 SWAP2 POP POP JUMP JUMPDEST PUSH0 PUSH2 0x35D DUP3 PUSH2 0x194 JUMP JUMPDEST SWAP2 POP PUSH2 0x368 DUP4 PUSH2 0x194 JUMP JUMPDEST SWAP3 POP DUP3 DUP3 ADD SWAP1 POP DUP1 DUP3 GT ISZERO PUSH2 0x380 JUMPI PUSH2 0x37F PUSH2 0x2E5 JUMP JUMPDEST JUMPDEST SWAP3 SWAP2 POP POP JUMP JUMPDEST PUSH32 0x4E487B7100000000000000000000000000000000000000000000000000000000 PUSH0 MSTORE PUSH1 0x21 PUSH1 0x4 MSTORE PUSH1 0x24 PUSH0 REVERT JUMPDEST PUSH1 0x4 DUP2 LT PUSH2 0x3C4 JUMPI PUSH2 0x3C3 PUSH2 0x386 JUMP JUMPDEST JUMPDEST POP JUMP JUMPDEST PUSH0 DUP2 SWAP1 POP PUSH2 0x3D4 DUP3 PUSH2 0x3B3 JUMP JUMPDEST SWAP2 SWAP1 POP JUMP JUMPDEST PUSH0 PUSH2 0x3E3 DUP3 PUSH2 0x3C7 JUMP JUMPDEST SWAP1 POP SWAP2 SWAP1 POP JUMP JUMPDEST PUSH2 0x3F3 DUP2 PUSH2 0x3D9 JUMP JUMPDEST DUP3 MSTORE POP POP JUMP JUMPDEST PUSH0 PUSH1 0x20 DUP3 ADD SWAP1 POP PUSH2 0x40C PUSH0 DUP4 ADD DUP5 PUSH2 0x3EA JUMP JUMPDEST SWAP3 SWAP2 POP POP JUMP JUMPDEST PUSH1 0x80 MLOAD PUSH1 0xA0 MLOAD PUSH1 0xC0 MLOAD PUSH2 0xF7D PUSH2 0x45F PUSH0 CODECOPY PUSH0 DUP2 DUP2 PUSH2 0x4C4 ADD MSTORE PUSH2 0x919 ADD MSTORE PUSH0 DUP2 DUP2 PUSH2 0x4E8 ADD MSTORE PUSH2 0x84B ADD MSTORE PUSH0 DUP2 DUP2 PUSH2 0x215 ADD MSTORE DUP2 DUP2 PUSH2 0x38A ADD MSTORE DUP2 DUP2 PUSH2 0x451 ADD MSTORE PUSH2 0x768 ADD MSTORE PUSH2 0xF7D PUSH0 RETURN INVALID PUSH1 0x80 PUSH1 0x40 MSTORE PUSH1 0x4 CALLDATASIZE LT PUSH2 0x90 JUMPI PUSH0 CALLDATALOAD PUSH1 0xE0 SHR DUP1 PUSH4 0x40650C91 GT PUSH2 0x58 JUMPI DUP1 PUSH4 0x40650C91 EQ PUSH2 0x152 JUMPI DUP1 PUSH4 0x42E94C90 EQ PUSH2 0x17C JUMPI DUP1 PUSH4 0x590E1AE3 EQ PUSH2 0x1B8 JUMPI DUP1 PUSH4 0x8DA5CB5B EQ PUSH2 0x1CE JUMPI DUP1 PUSH4 0xD7BB99BA EQ PUSH2 0x1F8 JUMPI PUSH2 0x90 JUMP JUMPDEST DUP1 PUSH4 0xC3F6ACF EQ PUSH2 0x94 JUMPI DUP1 PUSH4 0x24600FC3 EQ PUSH2 0xBE JUMPI DUP1 PUSH4 0x2636B945 EQ PUSH2 0xD4 JUMPI DUP1 PUSH4 0x29DCB0CF EQ PUSH2 0xFE JUMPI DUP1 PUSH4 0x2D2A1D20 EQ PUSH2 0x128 JUMPI JUMPDEST PUSH0 PUSH0 REVERT JUMPDEST CALLVALUE DUP1 ISZERO PUSH2 0x9F JUMPI PUSH0 PUSH0 REVERT JUMPDEST POP PUSH2 0xA8 PUSH2 0x202 JUMP JUMPDEST PUSH1 0x40 MLOAD PUSH2 0xB5 SWAP2 SWAP1 PUSH2 0xA76 JUMP JUMPDEST PUSH1 0x40 MLOAD DUP1 SWAP2 SUB SWAP1 RETURN JUMPDEST CALLVALUE DUP1 ISZERO PUSH2 0xC9 JUMPI PUSH0 PUSH0 REVERT JUMPDEST POP PUSH2 0xD2 PUSH2 0x213 JUMP JUMPDEST STOP JUMPDEST CALLVALUE DUP1 ISZERO PUSH2 0xDF JUMPI PUSH0 PUSH0 REVERT JUMPDEST POP PUSH2 0xE8 PUSH2 0x4C2 JUMP JUMPDEST PUSH1 0x40 MLOAD PUSH2 0xF5 SWAP2 SWAP1 PUSH2 0xAA7 JUMP JUMPDEST PUSH1 0x40 MLOAD DUP1 SWAP2 SUB SWAP1 RETURN JUMPDEST CALLVALUE DUP1 ISZERO PUSH2 0x109 JUMPI PUSH0 PUSH0 REVERT JUMPDEST POP PUSH2 0x112 PUSH2 0x4E6 JUMP JUMPDEST PUSH1 0x40 MLOAD PUSH2 0x11F SWAP2 SWAP1 PUSH2 0xAA7 JUMP JUMPDEST PUSH1 0x40 MLOAD DUP1 SWAP2 SUB SWAP1 RETURN JUMPDEST CALLVALUE DUP1 ISZERO PUSH2 0x133 JUMPI PUSH0 PUSH0 REVERT JUMPDEST POP PUSH2 0x13C PUSH2 0x50A JUMP JUMPDEST PUSH1 0x40 MLOAD PUSH2 0x149 SWAP2 SWAP1 PUSH2 0xAA7 JUMP JUMPDEST PUSH1 0x40 MLOAD DUP1 SWAP2 SUB SWAP1 RETURN JUMPDEST CALLVALUE DUP1 ISZERO PUSH2 0x15D JUMPI PUSH0 PUSH0 REVERT JUMPDEST POP PUSH2 0x166 PUSH2 0x510 JUMP JUMPDEST PUSH1 0x40 MLOAD PUSH2 0x173 SWAP2 SWAP1 PUSH2 0xAA7 JUMP JUMPDEST PUSH1 0x40 MLOAD DUP1 SWAP2 SUB SWAP1 RETURN JUMPDEST CALLVALUE DUP1 ISZERO PUSH2 0x187 JUMPI PUSH0 PUSH0 REVERT JUMPDEST POP PUSH2 0x1A2 PUSH1 0x4 DUP1 CALLDATASIZE SUB DUP2 ADD SWAP1 PUSH2 0x19D SWAP2 SWAP1 PUSH2 0xB1E JUMP JUMPDEST PUSH2 0x51C JUMP JUMPDEST PUSH1 0x40 MLOAD PUSH2 0x1AF SWAP2 SWAP1 PUSH2 0xAA7 JUMP JUMPDEST PUSH1 0x40 MLOAD DUP1 SWAP2 SUB SWAP1 RETURN JUMPDEST CALLVALUE DUP1 ISZERO PUSH2 0x1C3 JUMPI PUSH0 PUSH0 REVERT JUMPDEST POP PUSH2 0x1CC PUSH2 0x531 JUMP JUMPDEST STOP JUMPDEST CALLVALUE DUP1 ISZERO PUSH2 0x1D9 JUMPI PUSH0 PUSH0 REVERT JUMPDEST POP PUSH2 0x1E2 PUSH2 0x766 JUMP JUMPDEST PUSH1 0x40 MLOAD PUSH2 0x1EF SWAP2 SWAP1 PUSH2 0xB58 JUMP JUMPDEST PUSH1 0x40 MLOAD DUP1 SWAP2 SUB SWAP1 RETURN JUMPDEST PUSH2 0x200 PUSH2 0x78A JUMP JUMPDEST STOP JUMPDEST PUSH0 PUSH0 SWAP1 SLOAD SWAP1 PUSH2 0x100 EXP SWAP1 DIV PUSH1 0xFF AND DUP2 JUMP JUMPDEST PUSH32 0x0 PUSH20 0xFFFFFFFFFFFFFFFFFFFFFFFFFFFFFFFFFFFFFFFF AND CALLER PUSH20 0xFFFFFFFFFFFFFFFFFFFFFFFFFFFFFFFFFFFFFFFF AND EQ PUSH2 0x2A1 JUMPI PUSH1 0x40 MLOAD PUSH32 0x8C379A000000000000000000000000000000000000000000000000000000000 DUP2 MSTORE PUSH1 0x4 ADD PUSH2 0x298 SWAP1 PUSH2 0xBCB JUMP JUMPDEST PUSH1 0x40 MLOAD DUP1 SWAP2 SUB SWAP1 REVERT JUMPDEST PUSH1 0x1 DUP1 PUSH1 0x3 DUP2 GT ISZERO PUSH2 0x2B6 JUMPI PUSH2 0x2B5 PUSH2 0xA03 JUMP JUMPDEST JUMPDEST PUSH0 PUSH0 SWAP1 SLOAD SWAP1 PUSH2 0x100 EXP SWAP1 DIV PUSH1 0xFF AND PUSH1 0x3 DUP2 GT ISZERO PUSH2 0x2D6 JUMPI PUSH2 0x2D5 PUSH2 0xA03 JUMP JUMPDEST JUMPDEST EQ PUSH2 0x316 JUMPI PUSH1 0x40 MLOAD PUSH32 0x8C379A000000000000000000000000000000000000000000000000000000000 DUP2 MSTORE PUSH1 0x4 ADD PUSH2 0x30D SWAP1 PUSH2 0xC33 JUMP JUMPDEST PUSH1 0x40 MLOAD DUP1 SWAP2 SUB SWAP1 REVERT JUMPDEST PUSH1 0x3 PUSH0 PUSH0 PUSH2 0x100 EXP DUP2 SLOAD DUP2 PUSH1 0xFF MUL NOT AND SWAP1 DUP4 PUSH1 0x3 DUP2 GT ISZERO PUSH2 0x33A JUMPI PUSH2 0x339 PUSH2 0xA03 JUMP JUMPDEST JUMPDEST MUL OR SWAP1 SSTORE POP PUSH32 0x551DC40198CC79684BB69E4931DBA4AC16E4598792EE1C0A5000AEEA366D7BB6 PUSH0 PUSH0 SWAP1 SLOAD SWAP1 PUSH2 0x100 EXP SWAP1 DIV PUSH1 0xFF AND PUSH1 0x40 MLOAD PUSH2 0x37B SWAP2 SWAP1 PUSH2 0xA76 JUMP JUMPDEST PUSH1 0x40 MLOAD DUP1 SWAP2 SUB SWAP1 LOG1 PUSH0 SELFBALANCE SWAP1 POP PUSH0 PUSH32 0x0 PUSH20 0xFFFFFFFFFFFFFFFFFFFFFFFFFFFFFFFFFFFFFFFF AND DUP3 PUSH1 0x40 MLOAD PUSH2 0x3CC SWAP1 PUSH2 0xC7E JUMP JUMPDEST PUSH0 PUSH1 0x40 MLOAD DUP1 DUP4 SUB DUP2 DUP6 DUP8 GAS CALL SWAP3 POP POP POP RETURNDATASIZE DUP1 PUSH0 DUP2 EQ PUSH2 0x406 JUMPI PUSH1 0x40 MLOAD SWAP2 POP PUSH1 0x1F NOT PUSH1 0x3F RETURNDATASIZE ADD AND DUP3 ADD PUSH1 0x40 MSTORE RETURNDATASIZE DUP3 MSTORE RETURNDATASIZE PUSH0 PUSH1 0x20 DUP5 ADD RETURNDATACOPY PUSH2 0x40B JUMP JUMPDEST PUSH1 0x60 SWAP2 POP JUMPDEST POP POP SWAP1 POP DUP1 PUSH2 0x44F JUMPI PUSH1 0x40 MLOAD PUSH32 0x8C379A000000000000000000000000000000000000000000000000000000000 DUP2 MSTORE PUSH1 0x4 ADD PUSH2 0x446 SWAP1 PUSH2 0xCDC JUMP JUMPDEST PUSH1 0x40 MLOAD DUP1 SWAP2 SUB SWAP1 REVERT JUMPDEST PUSH32 0x0 PUSH20 0xFFFFFFFFFFFFFFFFFFFFFFFFFFFFFFFFFFFFFFFF AND PUSH32 0xEAFF4B37086828766AD3268786972C0CD24259D4C87A80F9D3963A3C3D999B0D DUP4 PUSH1 0x40 MLOAD PUSH2 0x4B5 SWAP2 SWAP1 PUSH2 0xAA7 JUMP JUMPDEST PUSH1 0x40 MLOAD DUP1 SWAP2 SUB SWAP1 LOG2 POP POP POP JUMP JUMPDEST PUSH32 0x0 DUP2 JUMP JUMPDEST PUSH32 0x0 DUP2 JUMP JUMPDEST PUSH1 0x1 SLOAD DUP2 JUMP JUMPDEST PUSH8 0xDE0B6B3A7640000 DUP2 JUMP JUMPDEST PUSH1 0x2 PUSH1 0x20 MSTORE DUP1 PUSH0 MSTORE PUSH1 0x40 PUSH0 KECCAK256 PUSH0 SWAP2 POP SWAP1 POP SLOAD DUP2 JUMP JUMPDEST PUSH1 0x2 DUP1 PUSH1 0x3 DUP2 GT ISZERO PUSH2 0x546 JUMPI PUSH2 0x545 PUSH2 0xA03 JUMP JUMPDEST JUMPDEST PUSH0 PUSH0 SWAP1 SLOAD SWAP1 PUSH2 0x100 EXP SWAP1 DIV PUSH1 0xFF AND PUSH1 0x3 DUP2 GT ISZERO PUSH2 0x566 JUMPI PUSH2 0x565 PUSH2 0xA03 JUMP JUMPDEST JUMPDEST EQ PUSH2 0x5A6 JUMPI PUSH1 0x40 MLOAD PUSH32 0x8C379A000000000000000000000000000000000000000000000000000000000 DUP2 MSTORE PUSH1 0x4 ADD PUSH2 0x59D SWAP1 PUSH2 0xC33 JUMP JUMPDEST PUSH1 0x40 MLOAD DUP1 SWAP2 SUB SWAP1 REVERT JUMPDEST PUSH0 PUSH1 0x2 PUSH0 CALLER PUSH20 0xFFFFFFFFFFFFFFFFFFFFFFFFFFFFFFFFFFFFFFFF AND PUSH20 0xFFFFFFFFFFFFFFFFFFFFFFFFFFFFFFFFFFFFFFFF AND DUP2 MSTORE PUSH1 0x20 ADD SWAP1 DUP2 MSTORE PUSH1 0x20 ADD PUSH0 KECCAK256 SLOAD SWAP1 POP PUSH0 DUP2 GT PUSH2 0x629 JUMPI PUSH1 0x40 MLOAD PUSH32 0x8C379A000000000000000000000000000000000000000000000000000000000 DUP2 MSTORE PUSH1 0x4 ADD PUSH2 0x620 SWAP1 PUSH2 0xD44 JUMP JUMPDEST PUSH1 0x40 MLOAD DUP1 SWAP2 SUB SWAP1 REVERT JUMPDEST PUSH0 PUSH1 0x2 PUSH0 CALLER PUSH20 0xFFFFFFFFFFFFFFFFFFFFFFFFFFFFFFFFFFFFFFFF AND PUSH20 0xFFFFFFFFFFFFFFFFFFFFFFFFFFFFFFFFFFFFFFFF AND DUP2 MSTORE PUSH1 0x20 ADD SWAP1 DUP2 MSTORE PUSH1 0x20 ADD PUSH0 KECCAK256 DUP2 SWAP1 SSTORE POP PUSH0 CALLER PUSH20 0xFFFFFFFFFFFFFFFFFFFFFFFFFFFFFFFFFFFFFFFF AND DUP3 PUSH1 0x40 MLOAD PUSH2 0x690 SWAP1 PUSH2 0xC7E JUMP JUMPDEST PUSH0 PUSH1 0x40 MLOAD DUP1 DUP4 SUB DUP2 DUP6 DUP8 GAS CALL SWAP3 POP POP POP RETURNDATASIZE DUP1 PUSH0 DUP2 EQ PUSH2 0x6CA JUMPI PUSH1 0x40 MLOAD SWAP2 POP PUSH1 0x1F NOT PUSH1 0x3F RETURNDATASIZE ADD AND DUP3 ADD PUSH1 0x40 MSTORE RETURNDATASIZE DUP3 MSTORE RETURNDATASIZE PUSH0 PUSH1 0x20 DUP5 ADD RETURNDATACOPY PUSH2 0x6CF JUMP JUMPDEST PUSH1 0x60 SWAP2 POP JUMPDEST POP POP SWAP1 POP DUP1 PUSH2 0x713 JUMPI PUSH1 0x40 MLOAD PUSH32 0x8C379A000000000000000000000000000000000000000000000000000000000 DUP2 MSTORE PUSH1 0x4 ADD PUSH2 0x70A SWAP1 PUSH2 0xDAC JUMP JUMPDEST PUSH1 0x40 MLOAD DUP1 SWAP2 SUB SWAP1 REVERT JUMPDEST CALLER PUSH20 0xFFFFFFFFFFFFFFFFFFFFFFFFFFFFFFFFFFFFFFFF AND PUSH32 0xA171B6942063C6F2800CE40A780EDCE37BAA2B618571B11EEDD1E69E626E7D76 DUP4 PUSH1 0x40 MLOAD PUSH2 0x759 SWAP2 SWAP1 PUSH2 0xAA7 JUMP JUMPDEST PUSH1 0x40 MLOAD DUP1 SWAP2 SUB SWAP1 LOG2 POP POP POP JUMP JUMPDEST PUSH32 0x0 DUP2 JUMP JUMPDEST PUSH0 DUP1 PUSH1 0x3 DUP2 GT ISZERO PUSH2 0x79E JUMPI PUSH2 0x79D PUSH2 0xA03 JUMP JUMPDEST JUMPDEST PUSH0 PUSH0 SWAP1 SLOAD SWAP1 PUSH2 0x100 EXP SWAP1 DIV PUSH1 0xFF AND PUSH1 0x3 DUP2 GT ISZERO PUSH2 0x7BE JUMPI PUSH2 0x7BD PUSH2 0xA03 JUMP JUMPDEST JUMPDEST EQ PUSH2 0x7FE JUMPI PUSH1 0x40 MLOAD PUSH32 0x8C379A000000000000000000000000000000000000000000000000000000000 DUP2 MSTORE PUSH1 0x4 ADD PUSH2 0x7F5 SWAP1 PUSH2 0xC33 JUMP JUMPDEST PUSH1 0x40 MLOAD DUP1 SWAP2 SUB SWAP1 REVERT JUMPDEST PUSH8 0xDE0B6B3A7640000 CALLVALUE LT ISZERO PUSH2 0x849 JUMPI PUSH1 0x40 MLOAD PUSH32 0x8C379A000000000000000000000000000000000000000000000000000000000 DUP2 MSTORE PUSH1 0x4 ADD PUSH2 0x840 SWAP1 PUSH2 0xE3A JUMP JUMPDEST PUSH1 0x40 MLOAD DUP1 SWAP2 SUB SWAP1 REVERT JUMPDEST PUSH32 0x0 TIMESTAMP GT ISZERO PUSH2 0x8AC JUMPI PUSH1 0x40 MLOAD PUSH32 0x8C379A000000000000000000000000000000000000000000000000000000000 DUP2 MSTORE PUSH1 0x4 ADD PUSH2 0x8A3 SWAP1 PUSH2 0xEA2 JUMP JUMPDEST PUSH1 0x40 MLOAD DUP1 SWAP2 SUB SWAP1 REVERT JUMPDEST CALLVALUE PUSH1 0x2 PUSH0 CALLER PUSH20 0xFFFFFFFFFFFFFFFFFFFFFFFFFFFFFFFFFFFFFFFF AND PUSH20 0xFFFFFFFFFFFFFFFFFFFFFFFFFFFFFFFFFFFFFFFF AND DUP2 MSTORE PUSH1 0x20 ADD SWAP1 DUP2 MSTORE PUSH1 0x20 ADD PUSH0 KECCAK256 PUSH0 DUP3 DUP3 SLOAD PUSH2 0x8F8 SWAP2 SWAP1 PUSH2 0xEED JUMP JUMPDEST SWAP3 POP POP DUP2 SWAP1 SSTORE POP CALLVALUE PUSH1 0x1 PUSH0 DUP3 DUP3 SLOAD PUSH2 0x910 SWAP2 SWAP1 PUSH2 0xEED JUMP JUMPDEST SWAP3 POP POP DUP2 SWAP1 SSTORE POP PUSH32 0x0 PUSH1 0x1 SLOAD LT PUSH2 0x9AE JUMPI PUSH1 0x1 PUSH0 PUSH0 PUSH2 0x100 EXP DUP2 SLOAD DUP2 PUSH1 0xFF MUL NOT AND SWAP1 DUP4 PUSH1 0x3 DUP2 GT ISZERO PUSH2 0x964 JUMPI PUSH2 0x963 PUSH2 0xA03 JUMP JUMPDEST JUMPDEST MUL OR SWAP1 SSTORE POP PUSH32 0x551DC40198CC79684BB69E4931DBA4AC16E4598792EE1C0A5000AEEA366D7BB6 PUSH0 PUSH0 SWAP1 SLOAD SWAP1 PUSH2 0x100 EXP SWAP1 DIV PUSH1 0xFF AND PUSH1 0x40 MLOAD PUSH2 0x9A5 SWAP2 SWAP1 PUSH2 0xA76 JUMP JUMPDEST PUSH1 0x40 MLOAD DUP1 SWAP2 SUB SWAP1 LOG1 JUMPDEST CALLER PUSH20 0xFFFFFFFFFFFFFFFFFFFFFFFFFFFFFFFFFFFFFFFF AND PUSH32 0xD2DFF949D20E874CC6BA1DCEFB840FB8CF6000A4197BFB69ACCFEA5A32443FF5 CALLVALUE PUSH1 0x1 SLOAD PUSH1 0x40 MLOAD PUSH2 0x9F8 SWAP3 SWAP2 SWAP1 PUSH2 0xF20 JUMP JUMPDEST PUSH1 0x40 MLOAD DUP1 SWAP2 SUB SWAP1 LOG2 POP JUMP JUMPDEST PUSH32 0x4E487B7100000000000000000000000000000000000000000000000000000000 PUSH0 MSTORE PUSH1 0x21 PUSH1 0x4 MSTORE PUSH1 0x24 PUSH0 REVERT JUMPDEST PUSH1 0x4 DUP2 LT PUSH2 0xA41 JUMPI PUSH2 0xA40 PUSH2 0xA03 JUMP JUMPDEST JUMPDEST POP JUMP JUMPDEST PUSH0 DUP2 SWAP1 POP PUSH2 0xA51 DUP3 PUSH2 0xA30 JUMP JUMPDEST SWAP2 SWAP1 POP JUMP JUMPDEST PUSH0 PUSH2 0xA60 DUP3 PUSH2 0xA44 JUMP JUMPDEST SWAP1 POP SWAP2 SWAP1 POP JUMP JUMPDEST PUSH2 0xA70 DUP2 PUSH2 0xA56 JUMP JUMPDEST DUP3 MSTORE POP POP JUMP JUMPDEST PUSH0 PUSH1 0x20 DUP3 ADD SWAP1 POP PUSH2 0xA89 PUSH0 DUP4 ADD DUP5 PUSH2 0xA67 JUMP JUMPDEST SWAP3 SWAP2 POP POP JUMP JUMPDEST PUSH0 DUP2 SWAP1 POP SWAP2 SWAP1 POP JUMP JUMPDEST PUSH2 0xAA1 DUP2 PUSH2 0xA8F JUMP JUMPDEST DUP3 MSTORE POP POP JUMP JUMPDEST PUSH0 PUSH1 0x20 DUP3 ADD SWAP1 POP PUSH2 0xABA PUSH0 DUP4 ADD DUP5 PUSH2 0xA98 JUMP JUMPDEST SWAP3 SWAP2 POP POP JUMP JUMPDEST PUSH0 PUSH0 REVERT JUMPDEST PUSH0 PUSH20 0xFFFFFFFFFFFFFFFFFFFFFFFFFFFFFFFFFFFFFFFF DUP3 AND SWAP1 POP SWAP2 SWAP1 POP JUMP JUMPDEST PUSH0 PUSH2 0xAED DUP3 PUSH2 0xAC4 JUMP JUMPDEST SWAP1 POP SWAP2 SWAP1 POP JUMP JUMPDEST PUSH2 0xAFD DUP2 PUSH2 0xAE3 JUMP JUMPDEST DUP2 EQ PUSH2 0xB07 JUMPI PUSH0 PUSH0 REVERT JUMPDEST POP JUMP JUMPDEST PUSH0 DUP2 CALLDATALOAD SWAP1 POP PUSH2 0xB18 DUP2 PUSH2 0xAF4 JUMP JUMPDEST SWAP3 SWAP2 POP POP JUMP JUMPDEST PUSH0 PUSH1 0x20 DUP3 DUP5 SUB SLT ISZERO PUSH2 0xB33 JUMPI PUSH2 0xB32 PUSH2 0xAC0 JUMP JUMPDEST JUMPDEST PUSH0 PUSH2 0xB40 DUP5 DUP3 DUP6 ADD PUSH2 0xB0A JUMP JUMPDEST SWAP2 POP POP SWAP3 SWAP2 POP POP JUMP JUMPDEST PUSH2 0xB52 DUP2 PUSH2 0xAE3 JUMP JUMPDEST DUP3 MSTORE POP POP JUMP JUMPDEST PUSH0 PUSH1 0x20 DUP3 ADD SWAP1 POP PUSH2 0xB6B PUSH0 DUP4 ADD DUP5 PUSH2 0xB49 JUMP JUMPDEST SWAP3 SWAP2 POP POP JUMP JUMPDEST PUSH0 DUP3 DUP3 MSTORE PUSH1 0x20 DUP3 ADD SWAP1 POP SWAP3 SWAP2 POP POP JUMP JUMPDEST PUSH32 0x4F6E6C79206F776E657200000000000000000000000000000000000000000000 PUSH0 DUP3 ADD MSTORE POP JUMP JUMPDEST PUSH0 PUSH2 0xBB5 PUSH1 0xA DUP4 PUSH2 0xB71 JUMP JUMPDEST SWAP2 POP PUSH2 0xBC0 DUP3 PUSH2 0xB81 JUMP JUMPDEST PUSH1 0x20 DUP3 ADD SWAP1 POP SWAP2 SWAP1 POP JUMP JUMPDEST PUSH0 PUSH1 0x20 DUP3 ADD SWAP1 POP DUP2 DUP2 SUB PUSH0 DUP4 ADD MSTORE PUSH2 0xBE2 DUP2 PUSH2 0xBA9 JUMP JUMPDEST SWAP1 POP SWAP2 SWAP1 POP JUMP JUMPDEST PUSH32 0x496E76616C696420737461746500000000000000000000000000000000000000 PUSH0 DUP3 ADD MSTORE POP JUMP JUMPDEST PUSH0 PUSH2 0xC1D PUSH1 0xD DUP4 PUSH2 0xB71 JUMP JUMPDEST SWAP2 POP PUSH2 0xC28 DUP3 PUSH2 0xBE9 JUMP JUMPDEST PUSH1 0x20 DUP3 ADD SWAP1 POP SWAP2 SWAP1 POP JUMP JUMPDEST PUSH0 PUSH1 0x20 DUP3 ADD SWAP1 POP DUP2 DUP2 SUB PUSH0 DUP4 ADD MSTORE PUSH2 0xC4A DUP2 PUSH2 0xC11 JUMP JUMPDEST SWAP1 POP SWAP2 SWAP1 POP JUMP JUMPDEST PUSH0 DUP2 SWAP1 POP SWAP3 SWAP2 POP POP JUMP JUMPDEST POP JUMP JUMPDEST PUSH0 PUSH2 0xC69 PUSH0 DUP4 PUSH2 0xC51 JUMP JUMPDEST SWAP2 POP PUSH2 0xC74 DUP3 PUSH2 0xC5B JUMP JUMPDEST PUSH0 DUP3 ADD SWAP1 POP SWAP2 SWAP1 POP JUMP JUMPDEST PUSH0 PUSH2 0xC88 DUP3 PUSH2 0xC5E JUMP JUMPDEST SWAP2 POP DUP2 SWAP1 POP SWAP2 SWAP1 POP JUMP JUMPDEST PUSH32 0x4661696C656420746F2077697468647261772046756E64730000000000000000 PUSH0 DUP3 ADD MSTORE POP JUMP JUMPDEST PUSH0 PUSH2 0xCC6 PUSH1 0x18 DUP4 PUSH2 0xB71 JUMP JUMPDEST SWAP2 POP PUSH2 0xCD1 DUP3 PUSH2 0xC92 JUMP JUMPDEST PUSH1 0x20 DUP3 ADD SWAP1 POP SWAP2 SWAP1 POP JUMP JUMPDEST PUSH0 PUSH1 0x20 DUP3 ADD SWAP1 POP DUP2 DUP2 SUB PUSH0 DUP4 ADD MSTORE PUSH2 0xCF3 DUP2 PUSH2 0xCBA JUMP JUMPDEST SWAP1 POP SWAP2 SWAP1 POP JUMP JUMPDEST PUSH32 0x4E6F20636F6E747269627574696F6E20746F20726566756E6400000000000000 PUSH0 DUP3 ADD MSTORE POP JUMP JUMPDEST PUSH0 PUSH2 0xD2E PUSH1 0x19 DUP4 PUSH2 0xB71 JUMP JUMPDEST SWAP2 POP PUSH2 0xD39 DUP3 PUSH2 0xCFA JUMP JUMPDEST PUSH1 0x20 DUP3 ADD SWAP1 POP SWAP2 SWAP1 POP JUMP JUMPDEST PUSH0 PUSH1 0x20 DUP3 ADD SWAP1 POP DUP2 DUP2 SUB PUSH0 DUP4 ADD MSTORE PUSH2 0xD5B DUP2 PUSH2 0xD22 JUMP JUMPDEST SWAP1 POP SWAP2 SWAP1 POP JUMP JUMPDEST PUSH32 0x4661696C656420746F20726566756E6400000000000000000000000000000000 PUSH0 DUP3 ADD MSTORE POP JUMP JUMPDEST PUSH0 PUSH2 0xD96 PUSH1 0x10 DUP4 PUSH2 0xB71 JUMP JUMPDEST SWAP2 POP PUSH2 0xDA1 DUP3 PUSH2 0xD62 JUMP JUMPDEST PUSH1 0x20 DUP3 ADD SWAP1 POP SWAP2 SWAP1 POP JUMP JUMPDEST PUSH0 PUSH1 0x20 DUP3 ADD SWAP1 POP DUP2 DUP2 SUB PUSH0 DUP4 ADD MSTORE PUSH2 0xDC3 DUP2 PUSH2 0xD8A JUMP JUMPDEST SWAP1 POP SWAP2 SWAP1 POP JUMP JUMPDEST PUSH32 0x436F6E747269627574696F6E206D757374206265206174206C65617374204D49 PUSH0 DUP3 ADD MSTORE PUSH32 0x4E5F434F4E545249425554494F4E000000000000000000000000000000000000 PUSH1 0x20 DUP3 ADD MSTORE POP JUMP JUMPDEST PUSH0 PUSH2 0xE24 PUSH1 0x2E DUP4 PUSH2 0xB71 JUMP JUMPDEST SWAP2 POP PUSH2 0xE2F DUP3 PUSH2 0xDCA JUMP JUMPDEST PUSH1 0x40 DUP3 ADD SWAP1 POP SWAP2 SWAP1 POP JUMP JUMPDEST PUSH0 PUSH1 0x20 DUP3 ADD SWAP1 POP DUP2 DUP2 SUB PUSH0 DUP4 ADD MSTORE PUSH2 0xE51 DUP2 PUSH2 0xE18 JUMP JUMPDEST SWAP1 POP SWAP2 SWAP1 POP JUMP JUMPDEST PUSH32 0x43726F776466756E64696E672068617320656E64656400000000000000000000 PUSH0 DUP3 ADD MSTORE POP JUMP JUMPDEST PUSH0 PUSH2 0xE8C PUSH1 0x16 DUP4 PUSH2 0xB71 JUMP JUMPDEST SWAP2 POP PUSH2 0xE97 DUP3 PUSH2 0xE58 JUMP JUMPDEST PUSH1 0x20 DUP3 ADD SWAP1 POP SWAP2 SWAP1 POP JUMP JUMPDEST PUSH0 PUSH1 0x20 DUP3 ADD SWAP1 POP DUP2 DUP2 SUB PUSH0 DUP4 ADD MSTORE PUSH2 0xEB9 DUP2 PUSH2 0xE80 JUMP JUMPDEST SWAP1 POP SWAP2 SWAP1 POP JUMP JUMPDEST PUSH32 0x4E487B7100000000000000000000000000000000000000000000000000000000 PUSH0 MSTORE PUSH1 0x11 PUSH1 0x4 MSTORE PUSH1 0x24 PUSH0 REVERT JUMPDEST PUSH0 PUSH2 0xEF7 DUP3 PUSH2 0xA8F JUMP JUMPDEST SWAP2 POP PUSH2 0xF02 DUP4 PUSH2 0xA8F JUMP JUMPDEST SWAP3 POP DUP3 DUP3 ADD SWAP1 POP DUP1 DUP3 GT ISZERO PUSH2 0xF1A JUMPI PUSH2 0xF19 PUSH2 0xEC0 JUMP JUMPDEST JUMPDEST SWAP3 SWAP2 POP POP JUMP JUMPDEST PUSH0 PUSH1 0x40 DUP3 ADD SWAP1 POP PUSH2 0xF33 PUSH0 DUP4 ADD DUP6 PUSH2 0xA98 JUMP JUMPDEST PUSH2 0xF40 PUSH1 0x20 DUP4 ADD DUP5 PUSH2 0xA98 JUMP JUMPDEST SWAP4 SWAP3 POP POP POP JUMP INVALID LOG2 PUSH5 0x6970667358 0x22 SLT KECCAK256 PUSH26 0xBC33B4EB13573A824A6D5CD9DC0020CB95CBA3731484D26EB37A ADDMOD 0xED PUSH24 0x713264736F6C634300081E00330000000000000000000000 "
				},
				"gasEstimates": {
					"creation": {
						"codeDepositCost": "793000",
						"executionCost": "infinite",
						"totalCost": "infinite"
					},
					"external": {
						"MIN_CONTRIBUTION()": "325",
						"contribute()": "infinite",
						"contributions(address)": "2824",
						"currentRaisedAmount()": "2514",
						"currentState()": "2554",
						"deadline()": "infinite",
						"goalAmount()": "infinite",
						"owner()": "infinite",
						"refund()": "infinite",
						"withdrawFunds()": "infinite"
					}
				},
				"methodIdentifiers": {
					"MIN_CONTRIBUTION()": "40650c91",
					"contribute()": "d7bb99ba",
					"contributions(address)": "42e94c90",
					"currentRaisedAmount()": "2d2a1d20",
					"currentState()": "0c3f6acf",
					"deadline()": "29dcb0cf",
					"goalAmount()": "2636b945",
					"owner()": "8da5cb5b",
					"refund()": "590e1ae3",
					"withdrawFunds()": "24600fc3"
				}
			},
			"storageLayout": {
				"storage": [
					{
						"astId": 9,
						"contract": "contracts/Crowdfunding.sol:Crowdfunding",
						"label": "currentState",
						"offset": 0,
						"slot": "0",
						"type": "t_enum(State)6"
					},
					{
						"astId": 20,
						"contract": "contracts/Crowdfunding.sol:Crowdfunding",
						"label": "currentRaisedAmount",
						"offset": 0,
						"slot": "1",
						"type": "t_uint256"
					},
					{
						"astId": 24,
						"contract": "contracts/Crowdfunding.sol:Crowdfunding",
						"label": "contributions",
						"offset": 0,
						"slot": "2",
						"type": "t_mapping(t_address,t_uint256)"
					}
				],
				"types": {
					"t_address": {
						"encoding": "inplace",
						"label": "address",
						"numberOfBytes": "20"
					},
					"t_enum(State)6": {
						"encoding": "inplace",
						"label": "enum Crowdfunding.State",
						"numberOfBytes": "1"
					},
					"t_mapping(t_address,t_uint256)": {
						"encoding": "mapping",
						"key": "t_address",
						"label": "mapping(address => uint256)",
						"numberOfBytes": "32",
						"value": "t_uint256"
					},
					"t_uint256": {
						"encoding": "inplace",
						"label": "uint256",
						"numberOfBytes": "32"
					}
				}
			},
			"userdoc": {
				"kind": "user",
				"methods": {},
				"version": 1
			}
		}
	}
}