{
	"contracts/task1/IntRomanChange2.sol": {
		"IntRomanChange2": {
			"abi": [
				{
					"inputs": [],
					"stateMutability": "nonpayable",
					"type": "constructor"
				},
				{
					"inputs": [
						{
							"internalType": "string",
							"name": "s",
							"type": "string"
						}
					],
					"name": "change",
					"outputs": [
						{
							"internalType": "uint256",
							"name": "",
							"type": "uint256"
						}
					],
					"stateMutability": "view",
					"type": "function"
				}
			],
			"devdoc": {
				"kind": "dev",
				"methods": {},
				"version": 1
			},
			"evm": {
				"assembly": "    /* \"contracts/task1/IntRomanChange2.sol\":108:2638  contract IntRomanChange2 {... */\n  mstore(0x40, 0x80)\n    /* \"contracts/task1/IntRomanChange2.sol\":231:472  constructor() {... */\n  callvalue\n  dup1\n  iszero\n  tag_1\n  jumpi\n  revert(0x00, 0x00)\ntag_1:\n  pop\n    /* \"contracts/task1/IntRomanChange2.sol\":274:275  1 */\n  0x01\n    /* \"contracts/task1/IntRomanChange2.sol\":256:265  byteToInt */\n  0x00\n    /* \"contracts/task1/IntRomanChange2.sol\":256:271  byteToInt[0x49] */\n  0x00\n    /* \"contracts/task1/IntRomanChange2.sol\":266:270  0x49 */\n  0x49\n    /* \"contracts/task1/IntRomanChange2.sol\":256:271  byteToInt[0x49] */\n  0xf8\n  shl\n  not(0xffffffffffffffffffffffffffffffffffffffffffffffffffffffffffffff)\n  and\n  dup2\n  mstore\n  0x20\n  add\n  swap1\n  dup2\n  mstore\n  0x20\n  add\n  0x00\n  keccak256\n    /* \"contracts/task1/IntRomanChange2.sol\":256:275  byteToInt[0x49] = 1 */\n  dup2\n  swap1\n  sstore\n  pop\n    /* \"contracts/task1/IntRomanChange2.sol\":304:305  5 */\n  0x05\n    /* \"contracts/task1/IntRomanChange2.sol\":286:295  byteToInt */\n  0x00\n    /* \"contracts/task1/IntRomanChange2.sol\":286:301  byteToInt[0x56] */\n  0x00\n    /* \"contracts/task1/IntRomanChange2.sol\":296:300  0x56 */\n  0x56\n    /* \"contracts/task1/IntRomanChange2.sol\":286:301  byteToInt[0x56] */\n  0xf8\n  shl\n  not(0xffffffffffffffffffffffffffffffffffffffffffffffffffffffffffffff)\n  and\n  dup2\n  mstore\n  0x20\n  add\n  swap1\n  dup2\n  mstore\n  0x20\n  add\n  0x00\n  keccak256\n    /* \"contracts/task1/IntRomanChange2.sol\":286:305  byteToInt[0x56] = 5 */\n  dup2\n  swap1\n  sstore\n  pop\n    /* \"contracts/task1/IntRomanChange2.sol\":334:336  10 */\n  0x0a\n    /* \"contracts/task1/IntRomanChange2.sol\":316:325  byteToInt */\n  0x00\n    /* \"contracts/task1/IntRomanChange2.sol\":316:331  byteToInt[0x58] */\n  0x00\n    /* \"contracts/task1/IntRomanChange2.sol\":326:330  0x58 */\n  0x58\n    /* \"contracts/task1/IntRomanChange2.sol\":316:331  byteToInt[0x58] */\n  0xf8\n  shl\n  not(0xffffffffffffffffffffffffffffffffffffffffffffffffffffffffffffff)\n  and\n  dup2\n  mstore\n  0x20\n  add\n  swap1\n  dup2\n  mstore\n  0x20\n  add\n  0x00\n  keccak256\n    /* \"contracts/task1/IntRomanChange2.sol\":316:336  byteToInt[0x58] = 10 */\n  dup2\n  swap1\n  sstore\n  pop\n    /* \"contracts/task1/IntRomanChange2.sol\":365:367  50 */\n  0x32\n    /* \"contracts/task1/IntRomanChange2.sol\":347:356  byteToInt */\n  0x00\n    /* \"contracts/task1/IntRomanChange2.sol\":347:362  byteToInt[0x4c] */\n  0x00\n    /* \"contracts/task1/IntRomanChange2.sol\":357:361  0x4c */\n  0x4c\n    /* \"contracts/task1/IntRomanChange2.sol\":347:362  byteToInt[0x4c] */\n  0xf8\n  shl\n  not(0xffffffffffffffffffffffffffffffffffffffffffffffffffffffffffffff)\n  and\n  dup2\n  mstore\n  0x20\n  add\n  swap1\n  dup2\n  mstore\n  0x20\n  add\n  0x00\n  keccak256\n    /* \"contracts/task1/IntRomanChange2.sol\":347:367  byteToInt[0x4c] = 50 */\n  dup2\n  swap1\n  sstore\n  pop\n    /* \"contracts/task1/IntRomanChange2.sol\":396:399  100 */\n  0x64\n    /* \"contracts/task1/IntRomanChange2.sol\":378:387  byteToInt */\n  0x00\n    /* \"contracts/task1/IntRomanChange2.sol\":378:393  byteToInt[0x43] */\n  0x00\n    /* \"contracts/task1/IntRomanChange2.sol\":388:392  0x43 */\n  0x43\n    /* \"contracts/task1/IntRomanChange2.sol\":378:393  byteToInt[0x43] */\n  0xf8\n  shl\n  not(0xffffffffffffffffffffffffffffffffffffffffffffffffffffffffffffff)\n  and\n  dup2\n  mstore\n  0x20\n  add\n  swap1\n  dup2\n  mstore\n  0x20\n  add\n  0x00\n  keccak256\n    /* \"contracts/task1/IntRomanChange2.sol\":378:399  byteToInt[0x43] = 100 */\n  dup2\n  swap1\n  sstore\n  pop\n    /* \"contracts/task1/IntRomanChange2.sol\":428:431  500 */\n  0x01f4\n    /* \"contracts/task1/IntRomanChange2.sol\":410:419  byteToInt */\n  0x00\n    /* \"contracts/task1/IntRomanChange2.sol\":410:425  byteToInt[0x44] */\n  0x00\n    /* \"contracts/task1/IntRomanChange2.sol\":420:424  0x44 */\n  0x44\n    /* \"contracts/task1/IntRomanChange2.sol\":410:425  byteToInt[0x44] */\n  0xf8\n  shl\n  not(0xffffffffffffffffffffffffffffffffffffffffffffffffffffffffffffff)\n  and\n  dup2\n  mstore\n  0x20\n  add\n  swap1\n  dup2\n  mstore\n  0x20\n  add\n  0x00\n  keccak256\n    /* \"contracts/task1/IntRomanChange2.sol\":410:431  byteToInt[0x44] = 500 */\n  dup2\n  swap1\n  sstore\n  pop\n    /* \"contracts/task1/IntRomanChange2.sol\":460:464  1000 */\n  0x03e8\n    /* \"contracts/task1/IntRomanChange2.sol\":442:451  byteToInt */\n  0x00\n    /* \"contracts/task1/IntRomanChange2.sol\":442:457  byteToInt[0x4d] */\n  0x00\n    /* \"contracts/task1/IntRomanChange2.sol\":452:456  0x4d */\n  0x4d\n    /* \"contracts/task1/IntRomanChange2.sol\":442:457  byteToInt[0x4d] */\n  0xf8\n  shl\n  not(0xffffffffffffffffffffffffffffffffffffffffffffffffffffffffffffff)\n  and\n  dup2\n  mstore\n  0x20\n  add\n  swap1\n  dup2\n  mstore\n  0x20\n  add\n  0x00\n  keccak256\n    /* \"contracts/task1/IntRomanChange2.sol\":442:464  byteToInt[0x4d] = 1000 */\n  dup2\n  swap1\n  sstore\n  pop\n    /* \"contracts/task1/IntRomanChange2.sol\":108:2638  contract IntRomanChange2 {... */\n  dataSize(sub_0)\n  dup1\n  dataOffset(sub_0)\n  0x00\n  codecopy\n  0x00\n  return\nstop\n\nsub_0: assembly {\n        /* \"contracts/task1/IntRomanChange2.sol\":108:2638  contract IntRomanChange2 {... */\n      mstore(0x40, 0x80)\n      callvalue\n      dup1\n      iszero\n      tag_1\n      jumpi\n      revert(0x00, 0x00)\n    tag_1:\n      pop\n      jumpi(tag_2, lt(calldatasize, 0x04))\n      shr(0xe0, calldataload(0x00))\n      dup1\n      0xc1dcab14\n      eq\n      tag_3\n      jumpi\n    tag_2:\n      revert(0x00, 0x00)\n        /* \"contracts/task1/IntRomanChange2.sol\":480:2635  function change(string memory s) public view returns(uint256){... */\n    tag_3:\n      tag_4\n      0x04\n      dup1\n      calldatasize\n      sub\n      dup2\n      add\n      swap1\n      tag_5\n      swap2\n      swap1\n      tag_6\n      jump\t// in\n    tag_5:\n      tag_7\n      jump\t// in\n    tag_4:\n      mload(0x40)\n      tag_8\n      swap2\n      swap1\n      tag_9\n      jump\t// in\n    tag_8:\n      mload(0x40)\n      dup1\n      swap2\n      sub\n      swap1\n      return\n    tag_7:\n        /* \"contracts/task1/IntRomanChange2.sol\":533:540  uint256 */\n      0x00\n        /* \"contracts/task1/IntRomanChange2.sol\":552:573  bytes memory romanNum */\n      0x00\n        /* \"contracts/task1/IntRomanChange2.sol\":582:583  s */\n      dup3\n        /* \"contracts/task1/IntRomanChange2.sol\":552:584  bytes memory romanNum = bytes(s) */\n      swap1\n      pop\n        /* \"contracts/task1/IntRomanChange2.sol\":633:644  uint256 len */\n      0x00\n        /* \"contracts/task1/IntRomanChange2.sol\":647:655  romanNum */\n      dup2\n        /* \"contracts/task1/IntRomanChange2.sol\":647:662  romanNum.length */\n      mload\n        /* \"contracts/task1/IntRomanChange2.sol\":633:662  uint256 len = romanNum.length */\n      swap1\n      pop\n        /* \"contracts/task1/IntRomanChange2.sol\":686:687  1 */\n      0x01\n        /* \"contracts/task1/IntRomanChange2.sol\":681:684  len */\n      dup2\n        /* \"contracts/task1/IntRomanChange2.sol\":681:687  len>=1 */\n      lt\n      iszero\n        /* \"contracts/task1/IntRomanChange2.sol\":681:698  len>=1 && len<=15 */\n      dup1\n      iszero\n      tag_11\n      jumpi\n      pop\n        /* \"contracts/task1/IntRomanChange2.sol\":696:698  15 */\n      0x0f\n        /* \"contracts/task1/IntRomanChange2.sol\":691:694  len */\n      dup2\n        /* \"contracts/task1/IntRomanChange2.sol\":691:698  len<=15 */\n      gt\n      iszero\n        /* \"contracts/task1/IntRomanChange2.sol\":681:698  len>=1 && len<=15 */\n    tag_11:\n        /* \"contracts/task1/IntRomanChange2.sol\":673:724  require(len>=1 && len<=15, \"invalid string length\") */\n      tag_12\n      jumpi\n      mload(0x40)\n      0x08c379a000000000000000000000000000000000000000000000000000000000\n      dup2\n      mstore\n      0x04\n      add\n      tag_13\n      swap1\n      tag_14\n      jump\t// in\n    tag_13:\n      mload(0x40)\n      dup1\n      swap2\n      sub\n      swap1\n      revert\n    tag_12:\n        /* \"contracts/task1/IntRomanChange2.sol\":768:777  uint256 i */\n      0x00\n        /* \"contracts/task1/IntRomanChange2.sol\":780:781  0 */\n      0x00\n        /* \"contracts/task1/IntRomanChange2.sol\":768:781  uint256 i = 0 */\n      swap1\n      pop\n        /* \"contracts/task1/IntRomanChange2.sol\":763:932  for (uint256 i = 0; i < len; i++) {... */\n    tag_15:\n        /* \"contracts/task1/IntRomanChange2.sol\":787:790  len */\n      dup2\n        /* \"contracts/task1/IntRomanChange2.sol\":783:784  i */\n      dup2\n        /* \"contracts/task1/IntRomanChange2.sol\":783:790  i < len */\n      lt\n        /* \"contracts/task1/IntRomanChange2.sol\":763:932  for (uint256 i = 0; i < len; i++) {... */\n      iszero\n      tag_16\n      jumpi\n        /* \"contracts/task1/IntRomanChange2.sol\":846:847  0 */\n      0x00\n        /* \"contracts/task1/IntRomanChange2.sol\":820:829  byteToInt */\n      0x00\n        /* \"contracts/task1/IntRomanChange2.sol\":820:842  byteToInt[romanNum[i]] */\n      0x00\n        /* \"contracts/task1/IntRomanChange2.sol\":830:838  romanNum */\n      dup6\n        /* \"contracts/task1/IntRomanChange2.sol\":839:840  i */\n      dup5\n        /* \"contracts/task1/IntRomanChange2.sol\":830:841  romanNum[i] */\n      dup2\n      mload\n      dup2\n      lt\n      tag_18\n      jumpi\n      tag_19\n      tag_20\n      jump\t// in\n    tag_19:\n    tag_18:\n      0x20\n      add\n      add\n      mload\n      0xf8\n      shr\n      0xf8\n      shl\n        /* \"contracts/task1/IntRomanChange2.sol\":820:842  byteToInt[romanNum[i]] */\n      not(0xffffffffffffffffffffffffffffffffffffffffffffffffffffffffffffff)\n      and\n      not(0xffffffffffffffffffffffffffffffffffffffffffffffffffffffffffffff)\n      and\n      dup2\n      mstore\n      0x20\n      add\n      swap1\n      dup2\n      mstore\n      0x20\n      add\n      0x00\n      keccak256\n      sload\n        /* \"contracts/task1/IntRomanChange2.sol\":820:847  byteToInt[romanNum[i]] != 0 */\n      sub\n        /* \"contracts/task1/IntRomanChange2.sol\":812:866  require(byteToInt[romanNum[i]] != 0, \"invalid string\") */\n      tag_21\n      jumpi\n      mload(0x40)\n      0x08c379a000000000000000000000000000000000000000000000000000000000\n      dup2\n      mstore\n      0x04\n      add\n      tag_22\n      swap1\n      tag_23\n      jump\t// in\n    tag_22:\n      mload(0x40)\n      dup1\n      swap2\n      sub\n      swap1\n      revert\n    tag_21:\n        /* \"contracts/task1/IntRomanChange2.sol\":792:795  i++ */\n      dup1\n      dup1\n      0x01\n      add\n      swap2\n      pop\n      pop\n        /* \"contracts/task1/IntRomanChange2.sol\":763:932  for (uint256 i = 0; i < len; i++) {... */\n      jump(tag_15)\n    tag_16:\n      pop\n        /* \"contracts/task1/IntRomanChange2.sol\":955:956  1 */\n      0x01\n        /* \"contracts/task1/IntRomanChange2.sol\":948:951  len */\n      dup2\n        /* \"contracts/task1/IntRomanChange2.sol\":948:956  len == 1 */\n      sub\n        /* \"contracts/task1/IntRomanChange2.sol\":944:1064  if (len == 1) {... */\n      tag_24\n      jumpi\n        /* \"contracts/task1/IntRomanChange2.sol\":980:989  byteToInt */\n      0x00\n        /* \"contracts/task1/IntRomanChange2.sol\":980:1002  byteToInt[romanNum[0]] */\n      0x00\n        /* \"contracts/task1/IntRomanChange2.sol\":990:998  romanNum */\n      dup4\n        /* \"contracts/task1/IntRomanChange2.sol\":999:1000  0 */\n      0x00\n        /* \"contracts/task1/IntRomanChange2.sol\":990:1001  romanNum[0] */\n      dup2\n      mload\n      dup2\n      lt\n      tag_25\n      jumpi\n      tag_26\n      tag_20\n      jump\t// in\n    tag_26:\n    tag_25:\n      0x20\n      add\n      add\n      mload\n      0xf8\n      shr\n      0xf8\n      shl\n        /* \"contracts/task1/IntRomanChange2.sol\":980:1002  byteToInt[romanNum[0]] */\n      not(0xffffffffffffffffffffffffffffffffffffffffffffffffffffffffffffff)\n      and\n      not(0xffffffffffffffffffffffffffffffffffffffffffffffffffffffffffffff)\n      and\n      dup2\n      mstore\n      0x20\n      add\n      swap1\n      dup2\n      mstore\n      0x20\n      add\n      0x00\n      keccak256\n      sload\n        /* \"contracts/task1/IntRomanChange2.sol\":973:1002  return byteToInt[romanNum[0]] */\n      swap3\n      pop\n      pop\n      pop\n      jump(tag_10)\n        /* \"contracts/task1/IntRomanChange2.sol\":944:1064  if (len == 1) {... */\n    tag_24:\n        /* \"contracts/task1/IntRomanChange2.sol\":1076:1101  uint256[] memory numArray */\n      0x00\n        /* \"contracts/task1/IntRomanChange2.sol\":1115:1118  len */\n      dup2\n        /* \"contracts/task1/IntRomanChange2.sol\":1104:1119  new uint[](len) */\n      0xffffffffffffffff\n      dup2\n      gt\n      iszero\n      tag_27\n      jumpi\n      tag_28\n      tag_29\n      jump\t// in\n    tag_28:\n    tag_27:\n      mload(0x40)\n      swap1\n      dup1\n      dup3\n      mstore\n      dup1\n      0x20\n      mul\n      0x20\n      add\n      dup3\n      add\n      0x40\n      mstore\n      dup1\n      iszero\n      tag_30\n      jumpi\n      dup2\n      0x20\n      add\n      0x20\n      dup3\n      mul\n      dup1\n      calldatasize\n      dup4\n      calldatacopy\n      dup1\n      dup3\n      add\n      swap2\n      pop\n      pop\n      swap1\n      pop\n    tag_30:\n      pop\n        /* \"contracts/task1/IntRomanChange2.sol\":1076:1119  uint256[] memory numArray = new uint[](len) */\n      swap1\n      pop\n        /* \"contracts/task1/IntRomanChange2.sol\":1163:1172  uint256 i */\n      0x00\n        /* \"contracts/task1/IntRomanChange2.sol\":1175:1176  0 */\n      0x00\n        /* \"contracts/task1/IntRomanChange2.sol\":1163:1176  uint256 i = 0 */\n      swap1\n      pop\n        /* \"contracts/task1/IntRomanChange2.sol\":1158:1255  for (uint256 i = 0; i < len; i++) {... */\n    tag_31:\n        /* \"contracts/task1/IntRomanChange2.sol\":1182:1185  len */\n      dup3\n        /* \"contracts/task1/IntRomanChange2.sol\":1178:1179  i */\n      dup2\n        /* \"contracts/task1/IntRomanChange2.sol\":1178:1185  i < len */\n      lt\n        /* \"contracts/task1/IntRomanChange2.sol\":1158:1255  for (uint256 i = 0; i < len; i++) {... */\n      iszero\n      tag_32\n      jumpi\n        /* \"contracts/task1/IntRomanChange2.sol\":1221:1230  byteToInt */\n      0x00\n        /* \"contracts/task1/IntRomanChange2.sol\":1221:1243  byteToInt[romanNum[i]] */\n      0x00\n        /* \"contracts/task1/IntRomanChange2.sol\":1231:1239  romanNum */\n      dup6\n        /* \"contracts/task1/IntRomanChange2.sol\":1240:1241  i */\n      dup4\n        /* \"contracts/task1/IntRomanChange2.sol\":1231:1242  romanNum[i] */\n      dup2\n      mload\n      dup2\n      lt\n      tag_34\n      jumpi\n      tag_35\n      tag_20\n      jump\t// in\n    tag_35:\n    tag_34:\n      0x20\n      add\n      add\n      mload\n      0xf8\n      shr\n      0xf8\n      shl\n        /* \"contracts/task1/IntRomanChange2.sol\":1221:1243  byteToInt[romanNum[i]] */\n      not(0xffffffffffffffffffffffffffffffffffffffffffffffffffffffffffffff)\n      and\n      not(0xffffffffffffffffffffffffffffffffffffffffffffffffffffffffffffff)\n      and\n      dup2\n      mstore\n      0x20\n      add\n      swap1\n      dup2\n      mstore\n      0x20\n      add\n      0x00\n      keccak256\n      sload\n        /* \"contracts/task1/IntRomanChange2.sol\":1207:1215  numArray */\n      dup3\n        /* \"contracts/task1/IntRomanChange2.sol\":1216:1217  i */\n      dup3\n        /* \"contracts/task1/IntRomanChange2.sol\":1207:1218  numArray[i] */\n      dup2\n      mload\n      dup2\n      lt\n      tag_36\n      jumpi\n      tag_37\n      tag_20\n      jump\t// in\n    tag_37:\n    tag_36:\n      0x20\n      mul\n      0x20\n      add\n      add\n        /* \"contracts/task1/IntRomanChange2.sol\":1207:1243  numArray[i] = byteToInt[romanNum[i]] */\n      dup2\n      dup2\n      mstore\n      pop\n      pop\n        /* \"contracts/task1/IntRomanChange2.sol\":1187:1190  i++ */\n      dup1\n      dup1\n      0x01\n      add\n      swap2\n      pop\n      pop\n        /* \"contracts/task1/IntRomanChange2.sol\":1158:1255  for (uint256 i = 0; i < len; i++) {... */\n      jump(tag_31)\n    tag_32:\n      pop\n        /* \"contracts/task1/IntRomanChange2.sol\":1549:1560  uint256 sum */\n      0x00\n        /* \"contracts/task1/IntRomanChange2.sol\":1576:1585  uint256 i */\n      0x00\n        /* \"contracts/task1/IntRomanChange2.sol\":1588:1589  0 */\n      0x00\n        /* \"contracts/task1/IntRomanChange2.sol\":1576:1589  uint256 i = 0 */\n      swap1\n      pop\n        /* \"contracts/task1/IntRomanChange2.sol\":1571:2605  for (uint256 i = 0; i < len-1; i++) {... */\n    tag_38:\n        /* \"contracts/task1/IntRomanChange2.sol\":1599:1600  1 */\n      0x01\n        /* \"contracts/task1/IntRomanChange2.sol\":1595:1598  len */\n      dup5\n        /* \"contracts/task1/IntRomanChange2.sol\":1595:1600  len-1 */\n      tag_41\n      swap2\n      swap1\n      tag_42\n      jump\t// in\n    tag_41:\n        /* \"contracts/task1/IntRomanChange2.sol\":1591:1592  i */\n      dup2\n        /* \"contracts/task1/IntRomanChange2.sol\":1591:1600  i < len-1 */\n      lt\n        /* \"contracts/task1/IntRomanChange2.sol\":1571:2605  for (uint256 i = 0; i < len-1; i++) {... */\n      iszero\n      tag_39\n      jumpi\n        /* \"contracts/task1/IntRomanChange2.sol\":1639:1640  1 */\n      0x01\n        /* \"contracts/task1/IntRomanChange2.sol\":1626:1634  numArray */\n      dup4\n        /* \"contracts/task1/IntRomanChange2.sol\":1635:1636  i */\n      dup3\n        /* \"contracts/task1/IntRomanChange2.sol\":1626:1637  numArray[i] */\n      dup2\n      mload\n      dup2\n      lt\n      tag_43\n      jumpi\n      tag_44\n      tag_20\n      jump\t// in\n    tag_44:\n    tag_43:\n      0x20\n      mul\n      0x20\n      add\n      add\n      mload\n        /* \"contracts/task1/IntRomanChange2.sol\":1626:1640  numArray[i]==1 */\n      eq\n        /* \"contracts/task1/IntRomanChange2.sol\":1626:1660  numArray[i]==1 && numArray[i+1]==5 */\n      dup1\n      iszero\n      tag_45\n      jumpi\n      pop\n        /* \"contracts/task1/IntRomanChange2.sol\":1659:1660  5 */\n      0x05\n        /* \"contracts/task1/IntRomanChange2.sol\":1644:1652  numArray */\n      dup4\n        /* \"contracts/task1/IntRomanChange2.sol\":1655:1656  1 */\n      0x01\n        /* \"contracts/task1/IntRomanChange2.sol\":1653:1654  i */\n      dup4\n        /* \"contracts/task1/IntRomanChange2.sol\":1653:1656  i+1 */\n      tag_46\n      swap2\n      swap1\n      tag_47\n      jump\t// in\n    tag_46:\n        /* \"contracts/task1/IntRomanChange2.sol\":1644:1657  numArray[i+1] */\n      dup2\n      mload\n      dup2\n      lt\n      tag_48\n      jumpi\n      tag_49\n      tag_20\n      jump\t// in\n    tag_49:\n    tag_48:\n      0x20\n      mul\n      0x20\n      add\n      add\n      mload\n        /* \"contracts/task1/IntRomanChange2.sol\":1644:1660  numArray[i+1]==5 */\n      eq\n        /* \"contracts/task1/IntRomanChange2.sol\":1626:1660  numArray[i]==1 && numArray[i+1]==5 */\n    tag_45:\n        /* \"contracts/task1/IntRomanChange2.sol\":1622:2561  if (numArray[i]==1 && numArray[i+1]==5) {... */\n      iszero\n      tag_50\n      jumpi\n        /* \"contracts/task1/IntRomanChange2.sol\":1695:1696  0 */\n      0x00\n        /* \"contracts/task1/IntRomanChange2.sol\":1681:1689  numArray */\n      dup4\n        /* \"contracts/task1/IntRomanChange2.sol\":1690:1691  i */\n      dup3\n        /* \"contracts/task1/IntRomanChange2.sol\":1681:1692  numArray[i] */\n      dup2\n      mload\n      dup2\n      lt\n      tag_51\n      jumpi\n      tag_52\n      tag_20\n      jump\t// in\n    tag_52:\n    tag_51:\n      0x20\n      mul\n      0x20\n      add\n      add\n        /* \"contracts/task1/IntRomanChange2.sol\":1681:1696  numArray[i] = 0 */\n      dup2\n      dup2\n      mstore\n      pop\n      pop\n        /* \"contracts/task1/IntRomanChange2.sol\":1731:1732  4 */\n      0x04\n        /* \"contracts/task1/IntRomanChange2.sol\":1715:1723  numArray */\n      dup4\n        /* \"contracts/task1/IntRomanChange2.sol\":1726:1727  1 */\n      0x01\n        /* \"contracts/task1/IntRomanChange2.sol\":1724:1725  i */\n      dup4\n        /* \"contracts/task1/IntRomanChange2.sol\":1724:1727  i+1 */\n      tag_53\n      swap2\n      swap1\n      tag_47\n      jump\t// in\n    tag_53:\n        /* \"contracts/task1/IntRomanChange2.sol\":1715:1728  numArray[i+1] */\n      dup2\n      mload\n      dup2\n      lt\n      tag_54\n      jumpi\n      tag_55\n      tag_20\n      jump\t// in\n    tag_55:\n    tag_54:\n      0x20\n      mul\n      0x20\n      add\n      add\n        /* \"contracts/task1/IntRomanChange2.sol\":1715:1732  numArray[i+1] = 4 */\n      dup2\n      dup2\n      mstore\n      pop\n      pop\n        /* \"contracts/task1/IntRomanChange2.sol\":1751:1754  i++ */\n      dup1\n      dup1\n      tag_56\n      swap1\n      tag_57\n      jump\t// in\n    tag_56:\n      swap2\n      pop\n      pop\n        /* \"contracts/task1/IntRomanChange2.sol\":1622:2561  if (numArray[i]==1 && numArray[i+1]==5) {... */\n      jump(tag_58)\n    tag_50:\n        /* \"contracts/task1/IntRomanChange2.sol\":1793:1794  1 */\n      0x01\n        /* \"contracts/task1/IntRomanChange2.sol\":1780:1788  numArray */\n      dup4\n        /* \"contracts/task1/IntRomanChange2.sol\":1789:1790  i */\n      dup3\n        /* \"contracts/task1/IntRomanChange2.sol\":1780:1791  numArray[i] */\n      dup2\n      mload\n      dup2\n      lt\n      tag_59\n      jumpi\n      tag_60\n      tag_20\n      jump\t// in\n    tag_60:\n    tag_59:\n      0x20\n      mul\n      0x20\n      add\n      add\n      mload\n        /* \"contracts/task1/IntRomanChange2.sol\":1780:1794  numArray[i]==1 */\n      eq\n        /* \"contracts/task1/IntRomanChange2.sol\":1780:1815  numArray[i]==1 && numArray[i+1]==10 */\n      dup1\n      iszero\n      tag_61\n      jumpi\n      pop\n        /* \"contracts/task1/IntRomanChange2.sol\":1813:1815  10 */\n      0x0a\n        /* \"contracts/task1/IntRomanChange2.sol\":1798:1806  numArray */\n      dup4\n        /* \"contracts/task1/IntRomanChange2.sol\":1809:1810  1 */\n      0x01\n        /* \"contracts/task1/IntRomanChange2.sol\":1807:1808  i */\n      dup4\n        /* \"contracts/task1/IntRomanChange2.sol\":1807:1810  i+1 */\n      tag_62\n      swap2\n      swap1\n      tag_47\n      jump\t// in\n    tag_62:\n        /* \"contracts/task1/IntRomanChange2.sol\":1798:1811  numArray[i+1] */\n      dup2\n      mload\n      dup2\n      lt\n      tag_63\n      jumpi\n      tag_64\n      tag_20\n      jump\t// in\n    tag_64:\n    tag_63:\n      0x20\n      mul\n      0x20\n      add\n      add\n      mload\n        /* \"contracts/task1/IntRomanChange2.sol\":1798:1815  numArray[i+1]==10 */\n      eq\n        /* \"contracts/task1/IntRomanChange2.sol\":1780:1815  numArray[i]==1 && numArray[i+1]==10 */\n    tag_61:\n        /* \"contracts/task1/IntRomanChange2.sol\":1776:2561  if (numArray[i]==1 && numArray[i+1]==10) {... */\n      iszero\n      tag_65\n      jumpi\n        /* \"contracts/task1/IntRomanChange2.sol\":1850:1851  0 */\n      0x00\n        /* \"contracts/task1/IntRomanChange2.sol\":1836:1844  numArray */\n      dup4\n        /* \"contracts/task1/IntRomanChange2.sol\":1845:1846  i */\n      dup3\n        /* \"contracts/task1/IntRomanChange2.sol\":1836:1847  numArray[i] */\n      dup2\n      mload\n      dup2\n      lt\n      tag_66\n      jumpi\n      tag_67\n      tag_20\n      jump\t// in\n    tag_67:\n    tag_66:\n      0x20\n      mul\n      0x20\n      add\n      add\n        /* \"contracts/task1/IntRomanChange2.sol\":1836:1851  numArray[i] = 0 */\n      dup2\n      dup2\n      mstore\n      pop\n      pop\n        /* \"contracts/task1/IntRomanChange2.sol\":1886:1887  9 */\n      0x09\n        /* \"contracts/task1/IntRomanChange2.sol\":1870:1878  numArray */\n      dup4\n        /* \"contracts/task1/IntRomanChange2.sol\":1881:1882  1 */\n      0x01\n        /* \"contracts/task1/IntRomanChange2.sol\":1879:1880  i */\n      dup4\n        /* \"contracts/task1/IntRomanChange2.sol\":1879:1882  i+1 */\n      tag_68\n      swap2\n      swap1\n      tag_47\n      jump\t// in\n    tag_68:\n        /* \"contracts/task1/IntRomanChange2.sol\":1870:1883  numArray[i+1] */\n      dup2\n      mload\n      dup2\n      lt\n      tag_69\n      jumpi\n      tag_70\n      tag_20\n      jump\t// in\n    tag_70:\n    tag_69:\n      0x20\n      mul\n      0x20\n      add\n      add\n        /* \"contracts/task1/IntRomanChange2.sol\":1870:1887  numArray[i+1] = 9 */\n      dup2\n      dup2\n      mstore\n      pop\n      pop\n        /* \"contracts/task1/IntRomanChange2.sol\":1906:1909  i++ */\n      dup1\n      dup1\n      tag_71\n      swap1\n      tag_57\n      jump\t// in\n    tag_71:\n      swap2\n      pop\n      pop\n        /* \"contracts/task1/IntRomanChange2.sol\":1776:2561  if (numArray[i]==1 && numArray[i+1]==10) {... */\n      jump(tag_72)\n    tag_65:\n        /* \"contracts/task1/IntRomanChange2.sol\":1948:1950  10 */\n      0x0a\n        /* \"contracts/task1/IntRomanChange2.sol\":1935:1943  numArray */\n      dup4\n        /* \"contracts/task1/IntRomanChange2.sol\":1944:1945  i */\n      dup3\n        /* \"contracts/task1/IntRomanChange2.sol\":1935:1946  numArray[i] */\n      dup2\n      mload\n      dup2\n      lt\n      tag_73\n      jumpi\n      tag_74\n      tag_20\n      jump\t// in\n    tag_74:\n    tag_73:\n      0x20\n      mul\n      0x20\n      add\n      add\n      mload\n        /* \"contracts/task1/IntRomanChange2.sol\":1935:1950  numArray[i]==10 */\n      eq\n        /* \"contracts/task1/IntRomanChange2.sol\":1935:1971  numArray[i]==10 && numArray[i+1]==50 */\n      dup1\n      iszero\n      tag_75\n      jumpi\n      pop\n        /* \"contracts/task1/IntRomanChange2.sol\":1969:1971  50 */\n      0x32\n        /* \"contracts/task1/IntRomanChange2.sol\":1954:1962  numArray */\n      dup4\n        /* \"contracts/task1/IntRomanChange2.sol\":1965:1966  1 */\n      0x01\n        /* \"contracts/task1/IntRomanChange2.sol\":1963:1964  i */\n      dup4\n        /* \"contracts/task1/IntRomanChange2.sol\":1963:1966  i+1 */\n      tag_76\n      swap2\n      swap1\n      tag_47\n      jump\t// in\n    tag_76:\n        /* \"contracts/task1/IntRomanChange2.sol\":1954:1967  numArray[i+1] */\n      dup2\n      mload\n      dup2\n      lt\n      tag_77\n      jumpi\n      tag_78\n      tag_20\n      jump\t// in\n    tag_78:\n    tag_77:\n      0x20\n      mul\n      0x20\n      add\n      add\n      mload\n        /* \"contracts/task1/IntRomanChange2.sol\":1954:1971  numArray[i+1]==50 */\n      eq\n        /* \"contracts/task1/IntRomanChange2.sol\":1935:1971  numArray[i]==10 && numArray[i+1]==50 */\n    tag_75:\n        /* \"contracts/task1/IntRomanChange2.sol\":1931:2561  if (numArray[i]==10 && numArray[i+1]==50) {... */\n      iszero\n      tag_79\n      jumpi\n        /* \"contracts/task1/IntRomanChange2.sol\":2006:2007  0 */\n      0x00\n        /* \"contracts/task1/IntRomanChange2.sol\":1992:2000  numArray */\n      dup4\n        /* \"contracts/task1/IntRomanChange2.sol\":2001:2002  i */\n      dup3\n        /* \"contracts/task1/IntRomanChange2.sol\":1992:2003  numArray[i] */\n      dup2\n      mload\n      dup2\n      lt\n      tag_80\n      jumpi\n      tag_81\n      tag_20\n      jump\t// in\n    tag_81:\n    tag_80:\n      0x20\n      mul\n      0x20\n      add\n      add\n        /* \"contracts/task1/IntRomanChange2.sol\":1992:2007  numArray[i] = 0 */\n      dup2\n      dup2\n      mstore\n      pop\n      pop\n        /* \"contracts/task1/IntRomanChange2.sol\":2042:2044  40 */\n      0x28\n        /* \"contracts/task1/IntRomanChange2.sol\":2026:2034  numArray */\n      dup4\n        /* \"contracts/task1/IntRomanChange2.sol\":2037:2038  1 */\n      0x01\n        /* \"contracts/task1/IntRomanChange2.sol\":2035:2036  i */\n      dup4\n        /* \"contracts/task1/IntRomanChange2.sol\":2035:2038  i+1 */\n      tag_82\n      swap2\n      swap1\n      tag_47\n      jump\t// in\n    tag_82:\n        /* \"contracts/task1/IntRomanChange2.sol\":2026:2039  numArray[i+1] */\n      dup2\n      mload\n      dup2\n      lt\n      tag_83\n      jumpi\n      tag_84\n      tag_20\n      jump\t// in\n    tag_84:\n    tag_83:\n      0x20\n      mul\n      0x20\n      add\n      add\n        /* \"contracts/task1/IntRomanChange2.sol\":2026:2044  numArray[i+1] = 40 */\n      dup2\n      dup2\n      mstore\n      pop\n      pop\n        /* \"contracts/task1/IntRomanChange2.sol\":2063:2066  i++ */\n      dup1\n      dup1\n      tag_85\n      swap1\n      tag_57\n      jump\t// in\n    tag_85:\n      swap2\n      pop\n      pop\n        /* \"contracts/task1/IntRomanChange2.sol\":1931:2561  if (numArray[i]==10 && numArray[i+1]==50) {... */\n      jump(tag_86)\n    tag_79:\n        /* \"contracts/task1/IntRomanChange2.sol\":2105:2107  10 */\n      0x0a\n        /* \"contracts/task1/IntRomanChange2.sol\":2092:2100  numArray */\n      dup4\n        /* \"contracts/task1/IntRomanChange2.sol\":2101:2102  i */\n      dup3\n        /* \"contracts/task1/IntRomanChange2.sol\":2092:2103  numArray[i] */\n      dup2\n      mload\n      dup2\n      lt\n      tag_87\n      jumpi\n      tag_88\n      tag_20\n      jump\t// in\n    tag_88:\n    tag_87:\n      0x20\n      mul\n      0x20\n      add\n      add\n      mload\n        /* \"contracts/task1/IntRomanChange2.sol\":2092:2107  numArray[i]==10 */\n      eq\n        /* \"contracts/task1/IntRomanChange2.sol\":2092:2129  numArray[i]==10 && numArray[i+1]==100 */\n      dup1\n      iszero\n      tag_89\n      jumpi\n      pop\n        /* \"contracts/task1/IntRomanChange2.sol\":2126:2129  100 */\n      0x64\n        /* \"contracts/task1/IntRomanChange2.sol\":2111:2119  numArray */\n      dup4\n        /* \"contracts/task1/IntRomanChange2.sol\":2122:2123  1 */\n      0x01\n        /* \"contracts/task1/IntRomanChange2.sol\":2120:2121  i */\n      dup4\n        /* \"contracts/task1/IntRomanChange2.sol\":2120:2123  i+1 */\n      tag_90\n      swap2\n      swap1\n      tag_47\n      jump\t// in\n    tag_90:\n        /* \"contracts/task1/IntRomanChange2.sol\":2111:2124  numArray[i+1] */\n      dup2\n      mload\n      dup2\n      lt\n      tag_91\n      jumpi\n      tag_92\n      tag_20\n      jump\t// in\n    tag_92:\n    tag_91:\n      0x20\n      mul\n      0x20\n      add\n      add\n      mload\n        /* \"contracts/task1/IntRomanChange2.sol\":2111:2129  numArray[i+1]==100 */\n      eq\n        /* \"contracts/task1/IntRomanChange2.sol\":2092:2129  numArray[i]==10 && numArray[i+1]==100 */\n    tag_89:\n        /* \"contracts/task1/IntRomanChange2.sol\":2088:2561  if (numArray[i]==10 && numArray[i+1]==100) {... */\n      iszero\n      tag_93\n      jumpi\n        /* \"contracts/task1/IntRomanChange2.sol\":2164:2165  0 */\n      0x00\n        /* \"contracts/task1/IntRomanChange2.sol\":2150:2158  numArray */\n      dup4\n        /* \"contracts/task1/IntRomanChange2.sol\":2159:2160  i */\n      dup3\n        /* \"contracts/task1/IntRomanChange2.sol\":2150:2161  numArray[i] */\n      dup2\n      mload\n      dup2\n      lt\n      tag_94\n      jumpi\n      tag_95\n      tag_20\n      jump\t// in\n    tag_95:\n    tag_94:\n      0x20\n      mul\n      0x20\n      add\n      add\n        /* \"contracts/task1/IntRomanChange2.sol\":2150:2165  numArray[i] = 0 */\n      dup2\n      dup2\n      mstore\n      pop\n      pop\n        /* \"contracts/task1/IntRomanChange2.sol\":2200:2202  90 */\n      0x5a\n        /* \"contracts/task1/IntRomanChange2.sol\":2184:2192  numArray */\n      dup4\n        /* \"contracts/task1/IntRomanChange2.sol\":2195:2196  1 */\n      0x01\n        /* \"contracts/task1/IntRomanChange2.sol\":2193:2194  i */\n      dup4\n        /* \"contracts/task1/IntRomanChange2.sol\":2193:2196  i+1 */\n      tag_96\n      swap2\n      swap1\n      tag_47\n      jump\t// in\n    tag_96:\n        /* \"contracts/task1/IntRomanChange2.sol\":2184:2197  numArray[i+1] */\n      dup2\n      mload\n      dup2\n      lt\n      tag_97\n      jumpi\n      tag_98\n      tag_20\n      jump\t// in\n    tag_98:\n    tag_97:\n      0x20\n      mul\n      0x20\n      add\n      add\n        /* \"contracts/task1/IntRomanChange2.sol\":2184:2202  numArray[i+1] = 90 */\n      dup2\n      dup2\n      mstore\n      pop\n      pop\n        /* \"contracts/task1/IntRomanChange2.sol\":2221:2224  i++ */\n      dup1\n      dup1\n      tag_99\n      swap1\n      tag_57\n      jump\t// in\n    tag_99:\n      swap2\n      pop\n      pop\n        /* \"contracts/task1/IntRomanChange2.sol\":2088:2561  if (numArray[i]==10 && numArray[i+1]==100) {... */\n      jump(tag_100)\n    tag_93:\n        /* \"contracts/task1/IntRomanChange2.sol\":2263:2266  100 */\n      0x64\n        /* \"contracts/task1/IntRomanChange2.sol\":2250:2258  numArray */\n      dup4\n        /* \"contracts/task1/IntRomanChange2.sol\":2259:2260  i */\n      dup3\n        /* \"contracts/task1/IntRomanChange2.sol\":2250:2261  numArray[i] */\n      dup2\n      mload\n      dup2\n      lt\n      tag_101\n      jumpi\n      tag_102\n      tag_20\n      jump\t// in\n    tag_102:\n    tag_101:\n      0x20\n      mul\n      0x20\n      add\n      add\n      mload\n        /* \"contracts/task1/IntRomanChange2.sol\":2250:2266  numArray[i]==100 */\n      eq\n        /* \"contracts/task1/IntRomanChange2.sol\":2250:2288  numArray[i]==100 && numArray[i+1]==500 */\n      dup1\n      iszero\n      tag_103\n      jumpi\n      pop\n        /* \"contracts/task1/IntRomanChange2.sol\":2285:2288  500 */\n      0x01f4\n        /* \"contracts/task1/IntRomanChange2.sol\":2270:2278  numArray */\n      dup4\n        /* \"contracts/task1/IntRomanChange2.sol\":2281:2282  1 */\n      0x01\n        /* \"contracts/task1/IntRomanChange2.sol\":2279:2280  i */\n      dup4\n        /* \"contracts/task1/IntRomanChange2.sol\":2279:2282  i+1 */\n      tag_104\n      swap2\n      swap1\n      tag_47\n      jump\t// in\n    tag_104:\n        /* \"contracts/task1/IntRomanChange2.sol\":2270:2283  numArray[i+1] */\n      dup2\n      mload\n      dup2\n      lt\n      tag_105\n      jumpi\n      tag_106\n      tag_20\n      jump\t// in\n    tag_106:\n    tag_105:\n      0x20\n      mul\n      0x20\n      add\n      add\n      mload\n        /* \"contracts/task1/IntRomanChange2.sol\":2270:2288  numArray[i+1]==500 */\n      eq\n        /* \"contracts/task1/IntRomanChange2.sol\":2250:2288  numArray[i]==100 && numArray[i+1]==500 */\n    tag_103:\n        /* \"contracts/task1/IntRomanChange2.sol\":2246:2561  if (numArray[i]==100 && numArray[i+1]==500) {... */\n      iszero\n      tag_107\n      jumpi\n        /* \"contracts/task1/IntRomanChange2.sol\":2323:2324  0 */\n      0x00\n        /* \"contracts/task1/IntRomanChange2.sol\":2309:2317  numArray */\n      dup4\n        /* \"contracts/task1/IntRomanChange2.sol\":2318:2319  i */\n      dup3\n        /* \"contracts/task1/IntRomanChange2.sol\":2309:2320  numArray[i] */\n      dup2\n      mload\n      dup2\n      lt\n      tag_108\n      jumpi\n      tag_109\n      tag_20\n      jump\t// in\n    tag_109:\n    tag_108:\n      0x20\n      mul\n      0x20\n      add\n      add\n        /* \"contracts/task1/IntRomanChange2.sol\":2309:2324  numArray[i] = 0 */\n      dup2\n      dup2\n      mstore\n      pop\n      pop\n        /* \"contracts/task1/IntRomanChange2.sol\":2359:2362  400 */\n      0x0190\n        /* \"contracts/task1/IntRomanChange2.sol\":2343:2351  numArray */\n      dup4\n        /* \"contracts/task1/IntRomanChange2.sol\":2354:2355  1 */\n      0x01\n        /* \"contracts/task1/IntRomanChange2.sol\":2352:2353  i */\n      dup4\n        /* \"contracts/task1/IntRomanChange2.sol\":2352:2355  i+1 */\n      tag_110\n      swap2\n      swap1\n      tag_47\n      jump\t// in\n    tag_110:\n        /* \"contracts/task1/IntRomanChange2.sol\":2343:2356  numArray[i+1] */\n      dup2\n      mload\n      dup2\n      lt\n      tag_111\n      jumpi\n      tag_112\n      tag_20\n      jump\t// in\n    tag_112:\n    tag_111:\n      0x20\n      mul\n      0x20\n      add\n      add\n        /* \"contracts/task1/IntRomanChange2.sol\":2343:2362  numArray[i+1] = 400 */\n      dup2\n      dup2\n      mstore\n      pop\n      pop\n        /* \"contracts/task1/IntRomanChange2.sol\":2381:2384  i++ */\n      dup1\n      dup1\n      tag_113\n      swap1\n      tag_57\n      jump\t// in\n    tag_113:\n      swap2\n      pop\n      pop\n        /* \"contracts/task1/IntRomanChange2.sol\":2246:2561  if (numArray[i]==100 && numArray[i+1]==500) {... */\n      jump(tag_114)\n    tag_107:\n        /* \"contracts/task1/IntRomanChange2.sol\":2423:2426  100 */\n      0x64\n        /* \"contracts/task1/IntRomanChange2.sol\":2410:2418  numArray */\n      dup4\n        /* \"contracts/task1/IntRomanChange2.sol\":2419:2420  i */\n      dup3\n        /* \"contracts/task1/IntRomanChange2.sol\":2410:2421  numArray[i] */\n      dup2\n      mload\n      dup2\n      lt\n      tag_115\n      jumpi\n      tag_116\n      tag_20\n      jump\t// in\n    tag_116:\n    tag_115:\n      0x20\n      mul\n      0x20\n      add\n      add\n      mload\n        /* \"contracts/task1/IntRomanChange2.sol\":2410:2426  numArray[i]==100 */\n      eq\n        /* \"contracts/task1/IntRomanChange2.sol\":2410:2449  numArray[i]==100 && numArray[i+1]==1000 */\n      dup1\n      iszero\n      tag_117\n      jumpi\n      pop\n        /* \"contracts/task1/IntRomanChange2.sol\":2445:2449  1000 */\n      0x03e8\n        /* \"contracts/task1/IntRomanChange2.sol\":2430:2438  numArray */\n      dup4\n        /* \"contracts/task1/IntRomanChange2.sol\":2441:2442  1 */\n      0x01\n        /* \"contracts/task1/IntRomanChange2.sol\":2439:2440  i */\n      dup4\n        /* \"contracts/task1/IntRomanChange2.sol\":2439:2442  i+1 */\n      tag_118\n      swap2\n      swap1\n      tag_47\n      jump\t// in\n    tag_118:\n        /* \"contracts/task1/IntRomanChange2.sol\":2430:2443  numArray[i+1] */\n      dup2\n      mload\n      dup2\n      lt\n      tag_119\n      jumpi\n      tag_120\n      tag_20\n      jump\t// in\n    tag_120:\n    tag_119:\n      0x20\n      mul\n      0x20\n      add\n      add\n      mload\n        /* \"contracts/task1/IntRomanChange2.sol\":2430:2449  numArray[i+1]==1000 */\n      eq\n        /* \"contracts/task1/IntRomanChange2.sol\":2410:2449  numArray[i]==100 && numArray[i+1]==1000 */\n    tag_117:\n        /* \"contracts/task1/IntRomanChange2.sol\":2406:2561  if (numArray[i]==100 && numArray[i+1]==1000) {... */\n      iszero\n      tag_121\n      jumpi\n        /* \"contracts/task1/IntRomanChange2.sol\":2484:2485  0 */\n      0x00\n        /* \"contracts/task1/IntRomanChange2.sol\":2470:2478  numArray */\n      dup4\n        /* \"contracts/task1/IntRomanChange2.sol\":2479:2480  i */\n      dup3\n        /* \"contracts/task1/IntRomanChange2.sol\":2470:2481  numArray[i] */\n      dup2\n      mload\n      dup2\n      lt\n      tag_122\n      jumpi\n      tag_123\n      tag_20\n      jump\t// in\n    tag_123:\n    tag_122:\n      0x20\n      mul\n      0x20\n      add\n      add\n        /* \"contracts/task1/IntRomanChange2.sol\":2470:2485  numArray[i] = 0 */\n      dup2\n      dup2\n      mstore\n      pop\n      pop\n        /* \"contracts/task1/IntRomanChange2.sol\":2520:2523  900 */\n      0x0384\n        /* \"contracts/task1/IntRomanChange2.sol\":2504:2512  numArray */\n      dup4\n        /* \"contracts/task1/IntRomanChange2.sol\":2515:2516  1 */\n      0x01\n        /* \"contracts/task1/IntRomanChange2.sol\":2513:2514  i */\n      dup4\n        /* \"contracts/task1/IntRomanChange2.sol\":2513:2516  i+1 */\n      tag_124\n      swap2\n      swap1\n      tag_47\n      jump\t// in\n    tag_124:\n        /* \"contracts/task1/IntRomanChange2.sol\":2504:2517  numArray[i+1] */\n      dup2\n      mload\n      dup2\n      lt\n      tag_125\n      jumpi\n      tag_126\n      tag_20\n      jump\t// in\n    tag_126:\n    tag_125:\n      0x20\n      mul\n      0x20\n      add\n      add\n        /* \"contracts/task1/IntRomanChange2.sol\":2504:2523  numArray[i+1] = 900 */\n      dup2\n      dup2\n      mstore\n      pop\n      pop\n        /* \"contracts/task1/IntRomanChange2.sol\":2542:2545  i++ */\n      dup1\n      dup1\n      tag_127\n      swap1\n      tag_57\n      jump\t// in\n    tag_127:\n      swap2\n      pop\n      pop\n        /* \"contracts/task1/IntRomanChange2.sol\":2406:2561  if (numArray[i]==100 && numArray[i+1]==1000) {... */\n    tag_121:\n        /* \"contracts/task1/IntRomanChange2.sol\":2246:2561  if (numArray[i]==100 && numArray[i+1]==500) {... */\n    tag_114:\n        /* \"contracts/task1/IntRomanChange2.sol\":2088:2561  if (numArray[i]==10 && numArray[i+1]==100) {... */\n    tag_100:\n        /* \"contracts/task1/IntRomanChange2.sol\":1931:2561  if (numArray[i]==10 && numArray[i+1]==50) {... */\n    tag_86:\n        /* \"contracts/task1/IntRomanChange2.sol\":1776:2561  if (numArray[i]==1 && numArray[i+1]==10) {... */\n    tag_72:\n        /* \"contracts/task1/IntRomanChange2.sol\":1622:2561  if (numArray[i]==1 && numArray[i+1]==5) {... */\n    tag_58:\n        /* \"contracts/task1/IntRomanChange2.sol\":2582:2590  numArray */\n      dup3\n        /* \"contracts/task1/IntRomanChange2.sol\":2591:2592  i */\n      dup2\n        /* \"contracts/task1/IntRomanChange2.sol\":2582:2593  numArray[i] */\n      dup2\n      mload\n      dup2\n      lt\n      tag_128\n      jumpi\n      tag_129\n      tag_20\n      jump\t// in\n    tag_129:\n    tag_128:\n      0x20\n      mul\n      0x20\n      add\n      add\n      mload\n        /* \"contracts/task1/IntRomanChange2.sol\":2575:2593  sum += numArray[i] */\n      dup3\n      tag_130\n      swap2\n      swap1\n      tag_47\n      jump\t// in\n    tag_130:\n      swap2\n      pop\n        /* \"contracts/task1/IntRomanChange2.sol\":1602:1605  i++ */\n      dup1\n      dup1\n      tag_131\n      swap1\n      tag_57\n      jump\t// in\n    tag_131:\n      swap2\n      pop\n      pop\n        /* \"contracts/task1/IntRomanChange2.sol\":1571:2605  for (uint256 i = 0; i < len-1; i++) {... */\n      jump(tag_38)\n    tag_39:\n      pop\n        /* \"contracts/task1/IntRomanChange2.sol\":2624:2627  sum */\n      dup1\n        /* \"contracts/task1/IntRomanChange2.sol\":2617:2627  return sum */\n      swap5\n      pop\n      pop\n      pop\n      pop\n      pop\n        /* \"contracts/task1/IntRomanChange2.sol\":480:2635  function change(string memory s) public view returns(uint256){... */\n    tag_10:\n      swap2\n      swap1\n      pop\n      jump\t// out\n        /* \"#utility.yul\":7:82   */\n    tag_132:\n        /* \"#utility.yul\":40:46   */\n      0x00\n        /* \"#utility.yul\":73:75   */\n      0x40\n        /* \"#utility.yul\":67:76   */\n      mload\n        /* \"#utility.yul\":57:76   */\n      swap1\n      pop\n        /* \"#utility.yul\":7:82   */\n      swap1\n      jump\t// out\n        /* \"#utility.yul\":88:205   */\n    tag_133:\n        /* \"#utility.yul\":197:198   */\n      0x00\n        /* \"#utility.yul\":194:195   */\n      0x00\n        /* \"#utility.yul\":187:199   */\n      revert\n        /* \"#utility.yul\":211:328   */\n    tag_134:\n        /* \"#utility.yul\":320:321   */\n      0x00\n        /* \"#utility.yul\":317:318   */\n      0x00\n        /* \"#utility.yul\":310:322   */\n      revert\n        /* \"#utility.yul\":334:451   */\n    tag_135:\n        /* \"#utility.yul\":443:444   */\n      0x00\n        /* \"#utility.yul\":440:441   */\n      0x00\n        /* \"#utility.yul\":433:445   */\n      revert\n        /* \"#utility.yul\":457:574   */\n    tag_136:\n        /* \"#utility.yul\":566:567   */\n      0x00\n        /* \"#utility.yul\":563:564   */\n      0x00\n        /* \"#utility.yul\":556:568   */\n      revert\n        /* \"#utility.yul\":580:682   */\n    tag_137:\n        /* \"#utility.yul\":621:627   */\n      0x00\n        /* \"#utility.yul\":672:674   */\n      0x1f\n        /* \"#utility.yul\":668:675   */\n      not\n        /* \"#utility.yul\":663:665   */\n      0x1f\n        /* \"#utility.yul\":656:661   */\n      dup4\n        /* \"#utility.yul\":652:666   */\n      add\n        /* \"#utility.yul\":648:676   */\n      and\n        /* \"#utility.yul\":638:676   */\n      swap1\n      pop\n        /* \"#utility.yul\":580:682   */\n      swap2\n      swap1\n      pop\n      jump\t// out\n        /* \"#utility.yul\":688:868   */\n    tag_29:\n        /* \"#utility.yul\":736:813   */\n      0x4e487b7100000000000000000000000000000000000000000000000000000000\n        /* \"#utility.yul\":733:734   */\n      0x00\n        /* \"#utility.yul\":726:814   */\n      mstore\n        /* \"#utility.yul\":833:837   */\n      0x41\n        /* \"#utility.yul\":830:831   */\n      0x04\n        /* \"#utility.yul\":823:838   */\n      mstore\n        /* \"#utility.yul\":857:861   */\n      0x24\n        /* \"#utility.yul\":854:855   */\n      0x00\n        /* \"#utility.yul\":847:862   */\n      revert\n        /* \"#utility.yul\":874:1155   */\n    tag_138:\n        /* \"#utility.yul\":957:984   */\n      tag_161\n        /* \"#utility.yul\":979:983   */\n      dup3\n        /* \"#utility.yul\":957:984   */\n      tag_137\n      jump\t// in\n    tag_161:\n        /* \"#utility.yul\":949:955   */\n      dup2\n        /* \"#utility.yul\":945:985   */\n      add\n        /* \"#utility.yul\":1087:1093   */\n      dup2\n        /* \"#utility.yul\":1075:1085   */\n      dup2\n        /* \"#utility.yul\":1072:1094   */\n      lt\n        /* \"#utility.yul\":1051:1069   */\n      0xffffffffffffffff\n        /* \"#utility.yul\":1039:1049   */\n      dup3\n        /* \"#utility.yul\":1036:1070   */\n      gt\n        /* \"#utility.yul\":1033:1095   */\n      or\n        /* \"#utility.yul\":1030:1118   */\n      iszero\n      tag_162\n      jumpi\n        /* \"#utility.yul\":1098:1116   */\n      tag_163\n      tag_29\n      jump\t// in\n    tag_163:\n        /* \"#utility.yul\":1030:1118   */\n    tag_162:\n        /* \"#utility.yul\":1138:1148   */\n      dup1\n        /* \"#utility.yul\":1134:1136   */\n      0x40\n        /* \"#utility.yul\":1127:1149   */\n      mstore\n        /* \"#utility.yul\":917:1155   */\n      pop\n        /* \"#utility.yul\":874:1155   */\n      pop\n      pop\n      jump\t// out\n        /* \"#utility.yul\":1161:1290   */\n    tag_139:\n        /* \"#utility.yul\":1195:1201   */\n      0x00\n        /* \"#utility.yul\":1222:1242   */\n      tag_165\n      tag_132\n      jump\t// in\n    tag_165:\n        /* \"#utility.yul\":1212:1242   */\n      swap1\n      pop\n        /* \"#utility.yul\":1251:1284   */\n      tag_166\n        /* \"#utility.yul\":1279:1283   */\n      dup3\n        /* \"#utility.yul\":1271:1277   */\n      dup3\n        /* \"#utility.yul\":1251:1284   */\n      tag_138\n      jump\t// in\n    tag_166:\n        /* \"#utility.yul\":1161:1290   */\n      swap2\n      swap1\n      pop\n      jump\t// out\n        /* \"#utility.yul\":1296:1604   */\n    tag_140:\n        /* \"#utility.yul\":1358:1362   */\n      0x00\n        /* \"#utility.yul\":1448:1466   */\n      0xffffffffffffffff\n        /* \"#utility.yul\":1440:1446   */\n      dup3\n        /* \"#utility.yul\":1437:1467   */\n      gt\n        /* \"#utility.yul\":1434:1490   */\n      iszero\n      tag_168\n      jumpi\n        /* \"#utility.yul\":1470:1488   */\n      tag_169\n      tag_29\n      jump\t// in\n    tag_169:\n        /* \"#utility.yul\":1434:1490   */\n    tag_168:\n        /* \"#utility.yul\":1508:1537   */\n      tag_170\n        /* \"#utility.yul\":1530:1536   */\n      dup3\n        /* \"#utility.yul\":1508:1537   */\n      tag_137\n      jump\t// in\n    tag_170:\n        /* \"#utility.yul\":1500:1537   */\n      swap1\n      pop\n        /* \"#utility.yul\":1592:1596   */\n      0x20\n        /* \"#utility.yul\":1586:1590   */\n      dup2\n        /* \"#utility.yul\":1582:1597   */\n      add\n        /* \"#utility.yul\":1574:1597   */\n      swap1\n      pop\n        /* \"#utility.yul\":1296:1604   */\n      swap2\n      swap1\n      pop\n      jump\t// out\n        /* \"#utility.yul\":1610:1758   */\n    tag_141:\n        /* \"#utility.yul\":1708:1714   */\n      dup3\n        /* \"#utility.yul\":1703:1706   */\n      dup2\n        /* \"#utility.yul\":1698:1701   */\n      dup4\n        /* \"#utility.yul\":1685:1715   */\n      calldatacopy\n        /* \"#utility.yul\":1749:1750   */\n      0x00\n        /* \"#utility.yul\":1740:1746   */\n      dup4\n        /* \"#utility.yul\":1735:1738   */\n      dup4\n        /* \"#utility.yul\":1731:1747   */\n      add\n        /* \"#utility.yul\":1724:1751   */\n      mstore\n        /* \"#utility.yul\":1610:1758   */\n      pop\n      pop\n      pop\n      jump\t// out\n        /* \"#utility.yul\":1764:2189   */\n    tag_142:\n        /* \"#utility.yul\":1842:1847   */\n      0x00\n        /* \"#utility.yul\":1867:1933   */\n      tag_173\n        /* \"#utility.yul\":1883:1932   */\n      tag_174\n        /* \"#utility.yul\":1925:1931   */\n      dup5\n        /* \"#utility.yul\":1883:1932   */\n      tag_140\n      jump\t// in\n    tag_174:\n        /* \"#utility.yul\":1867:1933   */\n      tag_139\n      jump\t// in\n    tag_173:\n        /* \"#utility.yul\":1858:1933   */\n      swap1\n      pop\n        /* \"#utility.yul\":1956:1962   */\n      dup3\n        /* \"#utility.yul\":1949:1954   */\n      dup2\n        /* \"#utility.yul\":1942:1963   */\n      mstore\n        /* \"#utility.yul\":1994:1998   */\n      0x20\n        /* \"#utility.yul\":1987:1992   */\n      dup2\n        /* \"#utility.yul\":1983:1999   */\n      add\n        /* \"#utility.yul\":2032:2035   */\n      dup5\n        /* \"#utility.yul\":2023:2029   */\n      dup5\n        /* \"#utility.yul\":2018:2021   */\n      dup5\n        /* \"#utility.yul\":2014:2030   */\n      add\n        /* \"#utility.yul\":2011:2036   */\n      gt\n        /* \"#utility.yul\":2008:2120   */\n      iszero\n      tag_175\n      jumpi\n        /* \"#utility.yul\":2039:2118   */\n      tag_176\n      tag_136\n      jump\t// in\n    tag_176:\n        /* \"#utility.yul\":2008:2120   */\n    tag_175:\n        /* \"#utility.yul\":2129:2183   */\n      tag_177\n        /* \"#utility.yul\":2176:2182   */\n      dup5\n        /* \"#utility.yul\":2171:2174   */\n      dup3\n        /* \"#utility.yul\":2166:2169   */\n      dup6\n        /* \"#utility.yul\":2129:2183   */\n      tag_141\n      jump\t// in\n    tag_177:\n        /* \"#utility.yul\":1848:2189   */\n      pop\n        /* \"#utility.yul\":1764:2189   */\n      swap4\n      swap3\n      pop\n      pop\n      pop\n      jump\t// out\n        /* \"#utility.yul\":2209:2549   */\n    tag_143:\n        /* \"#utility.yul\":2265:2270   */\n      0x00\n        /* \"#utility.yul\":2314:2317   */\n      dup3\n        /* \"#utility.yul\":2307:2311   */\n      0x1f\n        /* \"#utility.yul\":2299:2305   */\n      dup4\n        /* \"#utility.yul\":2295:2312   */\n      add\n        /* \"#utility.yul\":2291:2318   */\n      slt\n        /* \"#utility.yul\":2281:2403   */\n      tag_179\n      jumpi\n        /* \"#utility.yul\":2322:2401   */\n      tag_180\n      tag_135\n      jump\t// in\n    tag_180:\n        /* \"#utility.yul\":2281:2403   */\n    tag_179:\n        /* \"#utility.yul\":2439:2445   */\n      dup2\n        /* \"#utility.yul\":2426:2446   */\n      calldataload\n        /* \"#utility.yul\":2464:2543   */\n      tag_181\n        /* \"#utility.yul\":2539:2542   */\n      dup5\n        /* \"#utility.yul\":2531:2537   */\n      dup3\n        /* \"#utility.yul\":2524:2528   */\n      0x20\n        /* \"#utility.yul\":2516:2522   */\n      dup7\n        /* \"#utility.yul\":2512:2529   */\n      add\n        /* \"#utility.yul\":2464:2543   */\n      tag_142\n      jump\t// in\n    tag_181:\n        /* \"#utility.yul\":2455:2543   */\n      swap2\n      pop\n        /* \"#utility.yul\":2271:2549   */\n      pop\n        /* \"#utility.yul\":2209:2549   */\n      swap3\n      swap2\n      pop\n      pop\n      jump\t// out\n        /* \"#utility.yul\":2555:3064   */\n    tag_6:\n        /* \"#utility.yul\":2624:2630   */\n      0x00\n        /* \"#utility.yul\":2673:2675   */\n      0x20\n        /* \"#utility.yul\":2661:2670   */\n      dup3\n        /* \"#utility.yul\":2652:2659   */\n      dup5\n        /* \"#utility.yul\":2648:2671   */\n      sub\n        /* \"#utility.yul\":2644:2676   */\n      slt\n        /* \"#utility.yul\":2641:2760   */\n      iszero\n      tag_183\n      jumpi\n        /* \"#utility.yul\":2679:2758   */\n      tag_184\n      tag_133\n      jump\t// in\n    tag_184:\n        /* \"#utility.yul\":2641:2760   */\n    tag_183:\n        /* \"#utility.yul\":2827:2828   */\n      0x00\n        /* \"#utility.yul\":2816:2825   */\n      dup3\n        /* \"#utility.yul\":2812:2829   */\n      add\n        /* \"#utility.yul\":2799:2830   */\n      calldataload\n        /* \"#utility.yul\":2857:2875   */\n      0xffffffffffffffff\n        /* \"#utility.yul\":2849:2855   */\n      dup2\n        /* \"#utility.yul\":2846:2876   */\n      gt\n        /* \"#utility.yul\":2843:2960   */\n      iszero\n      tag_185\n      jumpi\n        /* \"#utility.yul\":2879:2958   */\n      tag_186\n      tag_134\n      jump\t// in\n    tag_186:\n        /* \"#utility.yul\":2843:2960   */\n    tag_185:\n        /* \"#utility.yul\":2984:3047   */\n      tag_187\n        /* \"#utility.yul\":3039:3046   */\n      dup5\n        /* \"#utility.yul\":3030:3036   */\n      dup3\n        /* \"#utility.yul\":3019:3028   */\n      dup6\n        /* \"#utility.yul\":3015:3037   */\n      add\n        /* \"#utility.yul\":2984:3047   */\n      tag_143\n      jump\t// in\n    tag_187:\n        /* \"#utility.yul\":2974:3047   */\n      swap2\n      pop\n        /* \"#utility.yul\":2770:3057   */\n      pop\n        /* \"#utility.yul\":2555:3064   */\n      swap3\n      swap2\n      pop\n      pop\n      jump\t// out\n        /* \"#utility.yul\":3070:3147   */\n    tag_144:\n        /* \"#utility.yul\":3107:3114   */\n      0x00\n        /* \"#utility.yul\":3136:3141   */\n      dup2\n        /* \"#utility.yul\":3125:3141   */\n      swap1\n      pop\n        /* \"#utility.yul\":3070:3147   */\n      swap2\n      swap1\n      pop\n      jump\t// out\n        /* \"#utility.yul\":3153:3271   */\n    tag_145:\n        /* \"#utility.yul\":3240:3264   */\n      tag_190\n        /* \"#utility.yul\":3258:3263   */\n      dup2\n        /* \"#utility.yul\":3240:3264   */\n      tag_144\n      jump\t// in\n    tag_190:\n        /* \"#utility.yul\":3235:3238   */\n      dup3\n        /* \"#utility.yul\":3228:3265   */\n      mstore\n        /* \"#utility.yul\":3153:3271   */\n      pop\n      pop\n      jump\t// out\n        /* \"#utility.yul\":3277:3499   */\n    tag_9:\n        /* \"#utility.yul\":3370:3374   */\n      0x00\n        /* \"#utility.yul\":3408:3410   */\n      0x20\n        /* \"#utility.yul\":3397:3406   */\n      dup3\n        /* \"#utility.yul\":3393:3411   */\n      add\n        /* \"#utility.yul\":3385:3411   */\n      swap1\n      pop\n        /* \"#utility.yul\":3421:3492   */\n      tag_192\n        /* \"#utility.yul\":3489:3490   */\n      0x00\n        /* \"#utility.yul\":3478:3487   */\n      dup4\n        /* \"#utility.yul\":3474:3491   */\n      add\n        /* \"#utility.yul\":3465:3471   */\n      dup5\n        /* \"#utility.yul\":3421:3492   */\n      tag_145\n      jump\t// in\n    tag_192:\n        /* \"#utility.yul\":3277:3499   */\n      swap3\n      swap2\n      pop\n      pop\n      jump\t// out\n        /* \"#utility.yul\":3505:3674   */\n    tag_146:\n        /* \"#utility.yul\":3589:3600   */\n      0x00\n        /* \"#utility.yul\":3623:3629   */\n      dup3\n        /* \"#utility.yul\":3618:3621   */\n      dup3\n        /* \"#utility.yul\":3611:3630   */\n      mstore\n        /* \"#utility.yul\":3663:3667   */\n      0x20\n        /* \"#utility.yul\":3658:3661   */\n      dup3\n        /* \"#utility.yul\":3654:3668   */\n      add\n        /* \"#utility.yul\":3639:3668   */\n      swap1\n      pop\n        /* \"#utility.yul\":3505:3674   */\n      swap3\n      swap2\n      pop\n      pop\n      jump\t// out\n        /* \"#utility.yul\":3680:3851   */\n    tag_147:\n        /* \"#utility.yul\":3820:3843   */\n      0x696e76616c696420737472696e67206c656e6774680000000000000000000000\n        /* \"#utility.yul\":3816:3817   */\n      0x00\n        /* \"#utility.yul\":3808:3814   */\n      dup3\n        /* \"#utility.yul\":3804:3818   */\n      add\n        /* \"#utility.yul\":3797:3844   */\n      mstore\n        /* \"#utility.yul\":3680:3851   */\n      pop\n      jump\t// out\n        /* \"#utility.yul\":3857:4223   */\n    tag_148:\n        /* \"#utility.yul\":3999:4002   */\n      0x00\n        /* \"#utility.yul\":4020:4087   */\n      tag_196\n        /* \"#utility.yul\":4084:4086   */\n      0x15\n        /* \"#utility.yul\":4079:4082   */\n      dup4\n        /* \"#utility.yul\":4020:4087   */\n      tag_146\n      jump\t// in\n    tag_196:\n        /* \"#utility.yul\":4013:4087   */\n      swap2\n      pop\n        /* \"#utility.yul\":4096:4189   */\n      tag_197\n        /* \"#utility.yul\":4185:4188   */\n      dup3\n        /* \"#utility.yul\":4096:4189   */\n      tag_147\n      jump\t// in\n    tag_197:\n        /* \"#utility.yul\":4214:4216   */\n      0x20\n        /* \"#utility.yul\":4209:4212   */\n      dup3\n        /* \"#utility.yul\":4205:4217   */\n      add\n        /* \"#utility.yul\":4198:4217   */\n      swap1\n      pop\n        /* \"#utility.yul\":3857:4223   */\n      swap2\n      swap1\n      pop\n      jump\t// out\n        /* \"#utility.yul\":4229:4648   */\n    tag_14:\n        /* \"#utility.yul\":4395:4399   */\n      0x00\n        /* \"#utility.yul\":4433:4435   */\n      0x20\n        /* \"#utility.yul\":4422:4431   */\n      dup3\n        /* \"#utility.yul\":4418:4436   */\n      add\n        /* \"#utility.yul\":4410:4436   */\n      swap1\n      pop\n        /* \"#utility.yul\":4482:4491   */\n      dup2\n        /* \"#utility.yul\":4476:4480   */\n      dup2\n        /* \"#utility.yul\":4472:4492   */\n      sub\n        /* \"#utility.yul\":4468:4469   */\n      0x00\n        /* \"#utility.yul\":4457:4466   */\n      dup4\n        /* \"#utility.yul\":4453:4470   */\n      add\n        /* \"#utility.yul\":4446:4493   */\n      mstore\n        /* \"#utility.yul\":4510:4641   */\n      tag_199\n        /* \"#utility.yul\":4636:4640   */\n      dup2\n        /* \"#utility.yul\":4510:4641   */\n      tag_148\n      jump\t// in\n    tag_199:\n        /* \"#utility.yul\":4502:4641   */\n      swap1\n      pop\n        /* \"#utility.yul\":4229:4648   */\n      swap2\n      swap1\n      pop\n      jump\t// out\n        /* \"#utility.yul\":4654:4834   */\n    tag_20:\n        /* \"#utility.yul\":4702:4779   */\n      0x4e487b7100000000000000000000000000000000000000000000000000000000\n        /* \"#utility.yul\":4699:4700   */\n      0x00\n        /* \"#utility.yul\":4692:4780   */\n      mstore\n        /* \"#utility.yul\":4799:4803   */\n      0x32\n        /* \"#utility.yul\":4796:4797   */\n      0x04\n        /* \"#utility.yul\":4789:4804   */\n      mstore\n        /* \"#utility.yul\":4823:4827   */\n      0x24\n        /* \"#utility.yul\":4820:4821   */\n      0x00\n        /* \"#utility.yul\":4813:4828   */\n      revert\n        /* \"#utility.yul\":4840:5004   */\n    tag_149:\n        /* \"#utility.yul\":4980:4996   */\n      0x696e76616c696420737472696e67000000000000000000000000000000000000\n        /* \"#utility.yul\":4976:4977   */\n      0x00\n        /* \"#utility.yul\":4968:4974   */\n      dup3\n        /* \"#utility.yul\":4964:4978   */\n      add\n        /* \"#utility.yul\":4957:4997   */\n      mstore\n        /* \"#utility.yul\":4840:5004   */\n      pop\n      jump\t// out\n        /* \"#utility.yul\":5010:5376   */\n    tag_150:\n        /* \"#utility.yul\":5152:5155   */\n      0x00\n        /* \"#utility.yul\":5173:5240   */\n      tag_203\n        /* \"#utility.yul\":5237:5239   */\n      0x0e\n        /* \"#utility.yul\":5232:5235   */\n      dup4\n        /* \"#utility.yul\":5173:5240   */\n      tag_146\n      jump\t// in\n    tag_203:\n        /* \"#utility.yul\":5166:5240   */\n      swap2\n      pop\n        /* \"#utility.yul\":5249:5342   */\n      tag_204\n        /* \"#utility.yul\":5338:5341   */\n      dup3\n        /* \"#utility.yul\":5249:5342   */\n      tag_149\n      jump\t// in\n    tag_204:\n        /* \"#utility.yul\":5367:5369   */\n      0x20\n        /* \"#utility.yul\":5362:5365   */\n      dup3\n        /* \"#utility.yul\":5358:5370   */\n      add\n        /* \"#utility.yul\":5351:5370   */\n      swap1\n      pop\n        /* \"#utility.yul\":5010:5376   */\n      swap2\n      swap1\n      pop\n      jump\t// out\n        /* \"#utility.yul\":5382:5801   */\n    tag_23:\n        /* \"#utility.yul\":5548:5552   */\n      0x00\n        /* \"#utility.yul\":5586:5588   */\n      0x20\n        /* \"#utility.yul\":5575:5584   */\n      dup3\n        /* \"#utility.yul\":5571:5589   */\n      add\n        /* \"#utility.yul\":5563:5589   */\n      swap1\n      pop\n        /* \"#utility.yul\":5635:5644   */\n      dup2\n        /* \"#utility.yul\":5629:5633   */\n      dup2\n        /* \"#utility.yul\":5625:5645   */\n      sub\n        /* \"#utility.yul\":5621:5622   */\n      0x00\n        /* \"#utility.yul\":5610:5619   */\n      dup4\n        /* \"#utility.yul\":5606:5623   */\n      add\n        /* \"#utility.yul\":5599:5646   */\n      mstore\n        /* \"#utility.yul\":5663:5794   */\n      tag_206\n        /* \"#utility.yul\":5789:5793   */\n      dup2\n        /* \"#utility.yul\":5663:5794   */\n      tag_150\n      jump\t// in\n    tag_206:\n        /* \"#utility.yul\":5655:5794   */\n      swap1\n      pop\n        /* \"#utility.yul\":5382:5801   */\n      swap2\n      swap1\n      pop\n      jump\t// out\n        /* \"#utility.yul\":5807:5987   */\n    tag_151:\n        /* \"#utility.yul\":5855:5932   */\n      0x4e487b7100000000000000000000000000000000000000000000000000000000\n        /* \"#utility.yul\":5852:5853   */\n      0x00\n        /* \"#utility.yul\":5845:5933   */\n      mstore\n        /* \"#utility.yul\":5952:5956   */\n      0x11\n        /* \"#utility.yul\":5949:5950   */\n      0x04\n        /* \"#utility.yul\":5942:5957   */\n      mstore\n        /* \"#utility.yul\":5976:5980   */\n      0x24\n        /* \"#utility.yul\":5973:5974   */\n      0x00\n        /* \"#utility.yul\":5966:5981   */\n      revert\n        /* \"#utility.yul\":5993:6187   */\n    tag_42:\n        /* \"#utility.yul\":6033:6037   */\n      0x00\n        /* \"#utility.yul\":6053:6073   */\n      tag_209\n        /* \"#utility.yul\":6071:6072   */\n      dup3\n        /* \"#utility.yul\":6053:6073   */\n      tag_144\n      jump\t// in\n    tag_209:\n        /* \"#utility.yul\":6048:6073   */\n      swap2\n      pop\n        /* \"#utility.yul\":6087:6107   */\n      tag_210\n        /* \"#utility.yul\":6105:6106   */\n      dup4\n        /* \"#utility.yul\":6087:6107   */\n      tag_144\n      jump\t// in\n    tag_210:\n        /* \"#utility.yul\":6082:6107   */\n      swap3\n      pop\n        /* \"#utility.yul\":6131:6132   */\n      dup3\n        /* \"#utility.yul\":6128:6129   */\n      dup3\n        /* \"#utility.yul\":6124:6133   */\n      sub\n        /* \"#utility.yul\":6116:6133   */\n      swap1\n      pop\n        /* \"#utility.yul\":6155:6156   */\n      dup2\n        /* \"#utility.yul\":6149:6153   */\n      dup2\n        /* \"#utility.yul\":6146:6157   */\n      gt\n        /* \"#utility.yul\":6143:6180   */\n      iszero\n      tag_211\n      jumpi\n        /* \"#utility.yul\":6160:6178   */\n      tag_212\n      tag_151\n      jump\t// in\n    tag_212:\n        /* \"#utility.yul\":6143:6180   */\n    tag_211:\n        /* \"#utility.yul\":5993:6187   */\n      swap3\n      swap2\n      pop\n      pop\n      jump\t// out\n        /* \"#utility.yul\":6193:6384   */\n    tag_47:\n        /* \"#utility.yul\":6233:6236   */\n      0x00\n        /* \"#utility.yul\":6252:6272   */\n      tag_214\n        /* \"#utility.yul\":6270:6271   */\n      dup3\n        /* \"#utility.yul\":6252:6272   */\n      tag_144\n      jump\t// in\n    tag_214:\n        /* \"#utility.yul\":6247:6272   */\n      swap2\n      pop\n        /* \"#utility.yul\":6286:6306   */\n      tag_215\n        /* \"#utility.yul\":6304:6305   */\n      dup4\n        /* \"#utility.yul\":6286:6306   */\n      tag_144\n      jump\t// in\n    tag_215:\n        /* \"#utility.yul\":6281:6306   */\n      swap3\n      pop\n        /* \"#utility.yul\":6329:6330   */\n      dup3\n        /* \"#utility.yul\":6326:6327   */\n      dup3\n        /* \"#utility.yul\":6322:6331   */\n      add\n        /* \"#utility.yul\":6315:6331   */\n      swap1\n      pop\n        /* \"#utility.yul\":6350:6353   */\n      dup1\n        /* \"#utility.yul\":6347:6348   */\n      dup3\n        /* \"#utility.yul\":6344:6354   */\n      gt\n        /* \"#utility.yul\":6341:6377   */\n      iszero\n      tag_216\n      jumpi\n        /* \"#utility.yul\":6357:6375   */\n      tag_217\n      tag_151\n      jump\t// in\n    tag_217:\n        /* \"#utility.yul\":6341:6377   */\n    tag_216:\n        /* \"#utility.yul\":6193:6384   */\n      swap3\n      swap2\n      pop\n      pop\n      jump\t// out\n        /* \"#utility.yul\":6390:6623   */\n    tag_57:\n        /* \"#utility.yul\":6429:6432   */\n      0x00\n        /* \"#utility.yul\":6452:6476   */\n      tag_219\n        /* \"#utility.yul\":6470:6475   */\n      dup3\n        /* \"#utility.yul\":6452:6476   */\n      tag_144\n      jump\t// in\n    tag_219:\n        /* \"#utility.yul\":6443:6476   */\n      swap2\n      pop\n        /* \"#utility.yul\":6498:6564   */\n      0xffffffffffffffffffffffffffffffffffffffffffffffffffffffffffffffff\n        /* \"#utility.yul\":6491:6496   */\n      dup3\n        /* \"#utility.yul\":6488:6565   */\n      sub\n        /* \"#utility.yul\":6485:6588   */\n      tag_220\n      jumpi\n        /* \"#utility.yul\":6568:6586   */\n      tag_221\n      tag_151\n      jump\t// in\n    tag_221:\n        /* \"#utility.yul\":6485:6588   */\n    tag_220:\n        /* \"#utility.yul\":6615:6616   */\n      0x01\n        /* \"#utility.yul\":6608:6613   */\n      dup3\n        /* \"#utility.yul\":6604:6617   */\n      add\n        /* \"#utility.yul\":6597:6617   */\n      swap1\n      pop\n        /* \"#utility.yul\":6390:6623   */\n      swap2\n      swap1\n      pop\n      jump\t// out\n\n    auxdata: 0xa26469706673582212201efdf2b877d325660b6a96a83795b13cb3aba52c7976eeccfcac88566ecaf4af64736f6c634300081e0033\n}\n",
				"bytecode": {
					"linkReferences": {},
					"object": "608060405234801561000f575f5ffd5b5060015f5f604960f81b7effffffffffffffffffffffffffffffffffffffffffffffffffffffffffffff191681526020019081526020015f208190555060055f5f605660f81b7effffffffffffffffffffffffffffffffffffffffffffffffffffffffffffff191681526020019081526020015f2081905550600a5f5f605860f81b7effffffffffffffffffffffffffffffffffffffffffffffffffffffffffffff191681526020019081526020015f208190555060325f5f604c60f81b7effffffffffffffffffffffffffffffffffffffffffffffffffffffffffffff191681526020019081526020015f208190555060645f5f604360f81b7effffffffffffffffffffffffffffffffffffffffffffffffffffffffffffff191681526020019081526020015f20819055506101f45f5f604460f81b7effffffffffffffffffffffffffffffffffffffffffffffffffffffffffffff191681526020019081526020015f20819055506103e85f5f604d60f81b7effffffffffffffffffffffffffffffffffffffffffffffffffffffffffffff191681526020019081526020015f2081905550610b89806101c35f395ff3fe608060405234801561000f575f5ffd5b5060043610610029575f3560e01c8063c1dcab141461002d575b5f5ffd5b610047600480360381019061004291906108f4565b61005d565b6040516100549190610953565b60405180910390f35b5f5f8290505f81519050600181101580156100795750600f8111155b6100b8576040517f08c379a00000000000000000000000000000000000000000000000000000000081526004016100af906109c6565b60405180910390fd5b5f5f90505b81811015610185575f5f5f8584815181106100db576100da6109e4565b5b602001015160f81c60f81b7effffffffffffffffffffffffffffffffffffffffffffffffffffffffffffff19167effffffffffffffffffffffffffffffffffffffffffffffffffffffffffffff191681526020019081526020015f205403610178576040517f08c379a000000000000000000000000000000000000000000000000000000000815260040161016f90610a5b565b60405180910390fd5b80806001019150506100bd565b5060018103610209575f5f835f815181106101a3576101a26109e4565b5b602001015160f81c60f81b7effffffffffffffffffffffffffffffffffffffffffffffffffffffffffffff19167effffffffffffffffffffffffffffffffffffffffffffffffffffffffffffff191681526020019081526020015f2054925050506107a2565b5f8167ffffffffffffffff811115610224576102236107d0565b5b6040519080825280602002602001820160405280156102525781602001602082028036833780820191505090505b5090505f5f90505b82811015610300575f5f858381518110610277576102766109e4565b5b602001015160f81c60f81b7effffffffffffffffffffffffffffffffffffffffffffffffffffffffffffff19167effffffffffffffffffffffffffffffffffffffffffffffffffffffffffffff191681526020019081526020015f20548282815181106102e7576102e66109e4565b5b602002602001018181525050808060010191505061025a565b505f5f5f90505b6001846103149190610aa6565b8110156107995760018382815181106103305761032f6109e4565b5b602002602001015114801561036b57506005836001836103509190610ad9565b81518110610361576103606109e4565b5b6020026020010151145b156103d0575f838281518110610384576103836109e4565b5b6020026020010181815250506004836001836103a09190610ad9565b815181106103b1576103b06109e4565b5b60200260200101818152505080806103c890610b0c565b91505061075e565b60018382815181106103e5576103e46109e4565b5b60200260200101511480156104205750600a836001836104059190610ad9565b81518110610416576104156109e4565b5b6020026020010151145b15610485575f838281518110610439576104386109e4565b5b6020026020010181815250506009836001836104559190610ad9565b81518110610466576104656109e4565b5b602002602001018181525050808061047d90610b0c565b91505061075d565b600a83828151811061049a576104996109e4565b5b60200260200101511480156104d557506032836001836104ba9190610ad9565b815181106104cb576104ca6109e4565b5b6020026020010151145b1561053a575f8382815181106104ee576104ed6109e4565b5b60200260200101818152505060288360018361050a9190610ad9565b8151811061051b5761051a6109e4565b5b602002602001018181525050808061053290610b0c565b91505061075c565b600a83828151811061054f5761054e6109e4565b5b602002602001015114801561058a575060648360018361056f9190610ad9565b815181106105805761057f6109e4565b5b6020026020010151145b156105ef575f8382815181106105a3576105a26109e4565b5b602002602001018181525050605a836001836105bf9190610ad9565b815181106105d0576105cf6109e4565b5b60200260200101818152505080806105e790610b0c565b91505061075b565b6064838281518110610604576106036109e4565b5b602002602001015114801561064057506101f4836001836106259190610ad9565b81518110610636576106356109e4565b5b6020026020010151145b156106a6575f838281518110610659576106586109e4565b5b602002602001018181525050610190836001836106769190610ad9565b81518110610687576106866109e4565b5b602002602001018181525050808061069e90610b0c565b91505061075a565b60648382815181106106bb576106ba6109e4565b5b60200260200101511480156106f757506103e8836001836106dc9190610ad9565b815181106106ed576106ec6109e4565b5b6020026020010151145b15610759575f8382815181106107105761070f6109e4565b5b6020026020010181815250506103848360018361072d9190610ad9565b8151811061073e5761073d6109e4565b5b602002602001018181525050808061075590610b0c565b9150505b5b5b5b5b5b828181518110610771576107706109e4565b5b6020026020010151826107849190610ad9565b9150808061079190610b0c565b915050610307565b50809450505050505b919050565b5f604051905090565b5f5ffd5b5f5ffd5b5f5ffd5b5f5ffd5b5f601f19601f8301169050919050565b7f4e487b71000000000000000000000000000000000000000000000000000000005f52604160045260245ffd5b610806826107c0565b810181811067ffffffffffffffff82111715610825576108246107d0565b5b80604052505050565b5f6108376107a7565b905061084382826107fd565b919050565b5f67ffffffffffffffff821115610862576108616107d0565b5b61086b826107c0565b9050602081019050919050565b828183375f83830152505050565b5f61089861089384610848565b61082e565b9050828152602081018484840111156108b4576108b36107bc565b5b6108bf848285610878565b509392505050565b5f82601f8301126108db576108da6107b8565b5b81356108eb848260208601610886565b91505092915050565b5f60208284031215610909576109086107b0565b5b5f82013567ffffffffffffffff811115610926576109256107b4565b5b610932848285016108c7565b91505092915050565b5f819050919050565b61094d8161093b565b82525050565b5f6020820190506109665f830184610944565b92915050565b5f82825260208201905092915050565b7f696e76616c696420737472696e67206c656e67746800000000000000000000005f82015250565b5f6109b060158361096c565b91506109bb8261097c565b602082019050919050565b5f6020820190508181035f8301526109dd816109a4565b9050919050565b7f4e487b71000000000000000000000000000000000000000000000000000000005f52603260045260245ffd5b7f696e76616c696420737472696e670000000000000000000000000000000000005f82015250565b5f610a45600e8361096c565b9150610a5082610a11565b602082019050919050565b5f6020820190508181035f830152610a7281610a39565b9050919050565b7f4e487b71000000000000000000000000000000000000000000000000000000005f52601160045260245ffd5b5f610ab08261093b565b9150610abb8361093b565b9250828203905081811115610ad357610ad2610a79565b5b92915050565b5f610ae38261093b565b9150610aee8361093b565b9250828201905080821115610b0657610b05610a79565b5b92915050565b5f610b168261093b565b91507fffffffffffffffffffffffffffffffffffffffffffffffffffffffffffffffff8203610b4857610b47610a79565b5b60018201905091905056fea26469706673582212201efdf2b877d325660b6a96a83795b13cb3aba52c7976eeccfcac88566ecaf4af64736f6c634300081e0033",
					"opcodes": "PUSH1 0x80 PUSH1 0x40 MSTORE CALLVALUE DUP1 ISZERO PUSH2 0xF JUMPI PUSH0 PUSH0 REVERT JUMPDEST POP PUSH1 0x1 PUSH0 PUSH0 PUSH1 0x49 PUSH1 0xF8 SHL PUSH31 0xFFFFFFFFFFFFFFFFFFFFFFFFFFFFFFFFFFFFFFFFFFFFFFFFFFFFFFFFFFFFFF NOT AND DUP2 MSTORE PUSH1 0x20 ADD SWAP1 DUP2 MSTORE PUSH1 0x20 ADD PUSH0 KECCAK256 DUP2 SWAP1 SSTORE POP PUSH1 0x5 PUSH0 PUSH0 PUSH1 0x56 PUSH1 0xF8 SHL PUSH31 0xFFFFFFFFFFFFFFFFFFFFFFFFFFFFFFFFFFFFFFFFFFFFFFFFFFFFFFFFFFFFFF NOT AND DUP2 MSTORE PUSH1 0x20 ADD SWAP1 DUP2 MSTORE PUSH1 0x20 ADD PUSH0 KECCAK256 DUP2 SWAP1 SSTORE POP PUSH1 0xA PUSH0 PUSH0 PUSH1 0x58 PUSH1 0xF8 SHL PUSH31 0xFFFFFFFFFFFFFFFFFFFFFFFFFFFFFFFFFFFFFFFFFFFFFFFFFFFFFFFFFFFFFF NOT AND DUP2 MSTORE PUSH1 0x20 ADD SWAP1 DUP2 MSTORE PUSH1 0x20 ADD PUSH0 KECCAK256 DUP2 SWAP1 SSTORE POP PUSH1 0x32 PUSH0 PUSH0 PUSH1 0x4C PUSH1 0xF8 SHL PUSH31 0xFFFFFFFFFFFFFFFFFFFFFFFFFFFFFFFFFFFFFFFFFFFFFFFFFFFFFFFFFFFFFF NOT AND DUP2 MSTORE PUSH1 0x20 ADD SWAP1 DUP2 MSTORE PUSH1 0x20 ADD PUSH0 KECCAK256 DUP2 SWAP1 SSTORE POP PUSH1 0x64 PUSH0 PUSH0 PUSH1 0x43 PUSH1 0xF8 SHL PUSH31 0xFFFFFFFFFFFFFFFFFFFFFFFFFFFFFFFFFFFFFFFFFFFFFFFFFFFFFFFFFFFFFF NOT AND DUP2 MSTORE PUSH1 0x20 ADD SWAP1 DUP2 MSTORE PUSH1 0x20 ADD PUSH0 KECCAK256 DUP2 SWAP1 SSTORE POP PUSH2 0x1F4 PUSH0 PUSH0 PUSH1 0x44 PUSH1 0xF8 SHL PUSH31 0xFFFFFFFFFFFFFFFFFFFFFFFFFFFFFFFFFFFFFFFFFFFFFFFFFFFFFFFFFFFFFF NOT AND DUP2 MSTORE PUSH1 0x20 ADD SWAP1 DUP2 MSTORE PUSH1 0x20 ADD PUSH0 KECCAK256 DUP2 SWAP1 SSTORE POP PUSH2 0x3E8 PUSH0 PUSH0 PUSH1 0x4D PUSH1 0xF8 SHL PUSH31 0xFFFFFFFFFFFFFFFFFFFFFFFFFFFFFFFFFFFFFFFFFFFFFFFFFFFFFFFFFFFFFF NOT AND DUP2 MSTORE PUSH1 0x20 ADD SWAP1 DUP2 MSTORE PUSH1 0x20 ADD PUSH0 KECCAK256 DUP2 SWAP1 SSTORE POP PUSH2 0xB89 DUP1 PUSH2 0x1C3 PUSH0 CODECOPY PUSH0 RETURN INVALID PUSH1 0x80 PUSH1 0x40 MSTORE CALLVALUE DUP1 ISZERO PUSH2 0xF JUMPI PUSH0 PUSH0 REVERT JUMPDEST POP PUSH1 0x4 CALLDATASIZE LT PUSH2 0x29 JUMPI PUSH0 CALLDATALOAD PUSH1 0xE0 SHR DUP1 PUSH4 0xC1DCAB14 EQ PUSH2 0x2D JUMPI JUMPDEST PUSH0 PUSH0 REVERT JUMPDEST PUSH2 0x47 PUSH1 0x4 DUP1 CALLDATASIZE SUB DUP2 ADD SWAP1 PUSH2 0x42 SWAP2 SWAP1 PUSH2 0x8F4 JUMP JUMPDEST PUSH2 0x5D JUMP JUMPDEST PUSH1 0x40 MLOAD PUSH2 0x54 SWAP2 SWAP1 PUSH2 0x953 JUMP JUMPDEST PUSH1 0x40 MLOAD DUP1 SWAP2 SUB SWAP1 RETURN JUMPDEST PUSH0 PUSH0 DUP3 SWAP1 POP PUSH0 DUP2 MLOAD SWAP1 POP PUSH1 0x1 DUP2 LT ISZERO DUP1 ISZERO PUSH2 0x79 JUMPI POP PUSH1 0xF DUP2 GT ISZERO JUMPDEST PUSH2 0xB8 JUMPI PUSH1 0x40 MLOAD PUSH32 0x8C379A000000000000000000000000000000000000000000000000000000000 DUP2 MSTORE PUSH1 0x4 ADD PUSH2 0xAF SWAP1 PUSH2 0x9C6 JUMP JUMPDEST PUSH1 0x40 MLOAD DUP1 SWAP2 SUB SWAP1 REVERT JUMPDEST PUSH0 PUSH0 SWAP1 POP JUMPDEST DUP2 DUP2 LT ISZERO PUSH2 0x185 JUMPI PUSH0 PUSH0 PUSH0 DUP6 DUP5 DUP2 MLOAD DUP2 LT PUSH2 0xDB JUMPI PUSH2 0xDA PUSH2 0x9E4 JUMP JUMPDEST JUMPDEST PUSH1 0x20 ADD ADD MLOAD PUSH1 0xF8 SHR PUSH1 0xF8 SHL PUSH31 0xFFFFFFFFFFFFFFFFFFFFFFFFFFFFFFFFFFFFFFFFFFFFFFFFFFFFFFFFFFFFFF NOT AND PUSH31 0xFFFFFFFFFFFFFFFFFFFFFFFFFFFFFFFFFFFFFFFFFFFFFFFFFFFFFFFFFFFFFF NOT AND DUP2 MSTORE PUSH1 0x20 ADD SWAP1 DUP2 MSTORE PUSH1 0x20 ADD PUSH0 KECCAK256 SLOAD SUB PUSH2 0x178 JUMPI PUSH1 0x40 MLOAD PUSH32 0x8C379A000000000000000000000000000000000000000000000000000000000 DUP2 MSTORE PUSH1 0x4 ADD PUSH2 0x16F SWAP1 PUSH2 0xA5B JUMP JUMPDEST PUSH1 0x40 MLOAD DUP1 SWAP2 SUB SWAP1 REVERT JUMPDEST DUP1 DUP1 PUSH1 0x1 ADD SWAP2 POP POP PUSH2 0xBD JUMP JUMPDEST POP PUSH1 0x1 DUP2 SUB PUSH2 0x209 JUMPI PUSH0 PUSH0 DUP4 PUSH0 DUP2 MLOAD DUP2 LT PUSH2 0x1A3 JUMPI PUSH2 0x1A2 PUSH2 0x9E4 JUMP JUMPDEST JUMPDEST PUSH1 0x20 ADD ADD MLOAD PUSH1 0xF8 SHR PUSH1 0xF8 SHL PUSH31 0xFFFFFFFFFFFFFFFFFFFFFFFFFFFFFFFFFFFFFFFFFFFFFFFFFFFFFFFFFFFFFF NOT AND PUSH31 0xFFFFFFFFFFFFFFFFFFFFFFFFFFFFFFFFFFFFFFFFFFFFFFFFFFFFFFFFFFFFFF NOT AND DUP2 MSTORE PUSH1 0x20 ADD SWAP1 DUP2 MSTORE PUSH1 0x20 ADD PUSH0 KECCAK256 SLOAD SWAP3 POP POP POP PUSH2 0x7A2 JUMP JUMPDEST PUSH0 DUP2 PUSH8 0xFFFFFFFFFFFFFFFF DUP2 GT ISZERO PUSH2 0x224 JUMPI PUSH2 0x223 PUSH2 0x7D0 JUMP JUMPDEST JUMPDEST PUSH1 0x40 MLOAD SWAP1 DUP1 DUP3 MSTORE DUP1 PUSH1 0x20 MUL PUSH1 0x20 ADD DUP3 ADD PUSH1 0x40 MSTORE DUP1 ISZERO PUSH2 0x252 JUMPI DUP2 PUSH1 0x20 ADD PUSH1 0x20 DUP3 MUL DUP1 CALLDATASIZE DUP4 CALLDATACOPY DUP1 DUP3 ADD SWAP2 POP POP SWAP1 POP JUMPDEST POP SWAP1 POP PUSH0 PUSH0 SWAP1 POP JUMPDEST DUP3 DUP2 LT ISZERO PUSH2 0x300 JUMPI PUSH0 PUSH0 DUP6 DUP4 DUP2 MLOAD DUP2 LT PUSH2 0x277 JUMPI PUSH2 0x276 PUSH2 0x9E4 JUMP JUMPDEST JUMPDEST PUSH1 0x20 ADD ADD MLOAD PUSH1 0xF8 SHR PUSH1 0xF8 SHL PUSH31 0xFFFFFFFFFFFFFFFFFFFFFFFFFFFFFFFFFFFFFFFFFFFFFFFFFFFFFFFFFFFFFF NOT AND PUSH31 0xFFFFFFFFFFFFFFFFFFFFFFFFFFFFFFFFFFFFFFFFFFFFFFFFFFFFFFFFFFFFFF NOT AND DUP2 MSTORE PUSH1 0x20 ADD SWAP1 DUP2 MSTORE PUSH1 0x20 ADD PUSH0 KECCAK256 SLOAD DUP3 DUP3 DUP2 MLOAD DUP2 LT PUSH2 0x2E7 JUMPI PUSH2 0x2E6 PUSH2 0x9E4 JUMP JUMPDEST JUMPDEST PUSH1 0x20 MUL PUSH1 0x20 ADD ADD DUP2 DUP2 MSTORE POP POP DUP1 DUP1 PUSH1 0x1 ADD SWAP2 POP POP PUSH2 0x25A JUMP JUMPDEST POP PUSH0 PUSH0 PUSH0 SWAP1 POP JUMPDEST PUSH1 0x1 DUP5 PUSH2 0x314 SWAP2 SWAP1 PUSH2 0xAA6 JUMP JUMPDEST DUP2 LT ISZERO PUSH2 0x799 JUMPI PUSH1 0x1 DUP4 DUP3 DUP2 MLOAD DUP2 LT PUSH2 0x330 JUMPI PUSH2 0x32F PUSH2 0x9E4 JUMP JUMPDEST JUMPDEST PUSH1 0x20 MUL PUSH1 0x20 ADD ADD MLOAD EQ DUP1 ISZERO PUSH2 0x36B JUMPI POP PUSH1 0x5 DUP4 PUSH1 0x1 DUP4 PUSH2 0x350 SWAP2 SWAP1 PUSH2 0xAD9 JUMP JUMPDEST DUP2 MLOAD DUP2 LT PUSH2 0x361 JUMPI PUSH2 0x360 PUSH2 0x9E4 JUMP JUMPDEST JUMPDEST PUSH1 0x20 MUL PUSH1 0x20 ADD ADD MLOAD EQ JUMPDEST ISZERO PUSH2 0x3D0 JUMPI PUSH0 DUP4 DUP3 DUP2 MLOAD DUP2 LT PUSH2 0x384 JUMPI PUSH2 0x383 PUSH2 0x9E4 JUMP JUMPDEST JUMPDEST PUSH1 0x20 MUL PUSH1 0x20 ADD ADD DUP2 DUP2 MSTORE POP POP PUSH1 0x4 DUP4 PUSH1 0x1 DUP4 PUSH2 0x3A0 SWAP2 SWAP1 PUSH2 0xAD9 JUMP JUMPDEST DUP2 MLOAD DUP2 LT PUSH2 0x3B1 JUMPI PUSH2 0x3B0 PUSH2 0x9E4 JUMP JUMPDEST JUMPDEST PUSH1 0x20 MUL PUSH1 0x20 ADD ADD DUP2 DUP2 MSTORE POP POP DUP1 DUP1 PUSH2 0x3C8 SWAP1 PUSH2 0xB0C JUMP JUMPDEST SWAP2 POP POP PUSH2 0x75E JUMP JUMPDEST PUSH1 0x1 DUP4 DUP3 DUP2 MLOAD DUP2 LT PUSH2 0x3E5 JUMPI PUSH2 0x3E4 PUSH2 0x9E4 JUMP JUMPDEST JUMPDEST PUSH1 0x20 MUL PUSH1 0x20 ADD ADD MLOAD EQ DUP1 ISZERO PUSH2 0x420 JUMPI POP PUSH1 0xA DUP4 PUSH1 0x1 DUP4 PUSH2 0x405 SWAP2 SWAP1 PUSH2 0xAD9 JUMP JUMPDEST DUP2 MLOAD DUP2 LT PUSH2 0x416 JUMPI PUSH2 0x415 PUSH2 0x9E4 JUMP JUMPDEST JUMPDEST PUSH1 0x20 MUL PUSH1 0x20 ADD ADD MLOAD EQ JUMPDEST ISZERO PUSH2 0x485 JUMPI PUSH0 DUP4 DUP3 DUP2 MLOAD DUP2 LT PUSH2 0x439 JUMPI PUSH2 0x438 PUSH2 0x9E4 JUMP JUMPDEST JUMPDEST PUSH1 0x20 MUL PUSH1 0x20 ADD ADD DUP2 DUP2 MSTORE POP POP PUSH1 0x9 DUP4 PUSH1 0x1 DUP4 PUSH2 0x455 SWAP2 SWAP1 PUSH2 0xAD9 JUMP JUMPDEST DUP2 MLOAD DUP2 LT PUSH2 0x466 JUMPI PUSH2 0x465 PUSH2 0x9E4 JUMP JUMPDEST JUMPDEST PUSH1 0x20 MUL PUSH1 0x20 ADD ADD DUP2 DUP2 MSTORE POP POP DUP1 DUP1 PUSH2 0x47D SWAP1 PUSH2 0xB0C JUMP JUMPDEST SWAP2 POP POP PUSH2 0x75D JUMP JUMPDEST PUSH1 0xA DUP4 DUP3 DUP2 MLOAD DUP2 LT PUSH2 0x49A JUMPI PUSH2 0x499 PUSH2 0x9E4 JUMP JUMPDEST JUMPDEST PUSH1 0x20 MUL PUSH1 0x20 ADD ADD MLOAD EQ DUP1 ISZERO PUSH2 0x4D5 JUMPI POP PUSH1 0x32 DUP4 PUSH1 0x1 DUP4 PUSH2 0x4BA SWAP2 SWAP1 PUSH2 0xAD9 JUMP JUMPDEST DUP2 MLOAD DUP2 LT PUSH2 0x4CB JUMPI PUSH2 0x4CA PUSH2 0x9E4 JUMP JUMPDEST JUMPDEST PUSH1 0x20 MUL PUSH1 0x20 ADD ADD MLOAD EQ JUMPDEST ISZERO PUSH2 0x53A JUMPI PUSH0 DUP4 DUP3 DUP2 MLOAD DUP2 LT PUSH2 0x4EE JUMPI PUSH2 0x4ED PUSH2 0x9E4 JUMP JUMPDEST JUMPDEST PUSH1 0x20 MUL PUSH1 0x20 ADD ADD DUP2 DUP2 MSTORE POP POP PUSH1 0x28 DUP4 PUSH1 0x1 DUP4 PUSH2 0x50A SWAP2 SWAP1 PUSH2 0xAD9 JUMP JUMPDEST DUP2 MLOAD DUP2 LT PUSH2 0x51B JUMPI PUSH2 0x51A PUSH2 0x9E4 JUMP JUMPDEST JUMPDEST PUSH1 0x20 MUL PUSH1 0x20 ADD ADD DUP2 DUP2 MSTORE POP POP DUP1 DUP1 PUSH2 0x532 SWAP1 PUSH2 0xB0C JUMP JUMPDEST SWAP2 POP POP PUSH2 0x75C JUMP JUMPDEST PUSH1 0xA DUP4 DUP3 DUP2 MLOAD DUP2 LT PUSH2 0x54F JUMPI PUSH2 0x54E PUSH2 0x9E4 JUMP JUMPDEST JUMPDEST PUSH1 0x20 MUL PUSH1 0x20 ADD ADD MLOAD EQ DUP1 ISZERO PUSH2 0x58A JUMPI POP PUSH1 0x64 DUP4 PUSH1 0x1 DUP4 PUSH2 0x56F SWAP2 SWAP1 PUSH2 0xAD9 JUMP JUMPDEST DUP2 MLOAD DUP2 LT PUSH2 0x580 JUMPI PUSH2 0x57F PUSH2 0x9E4 JUMP JUMPDEST JUMPDEST PUSH1 0x20 MUL PUSH1 0x20 ADD ADD MLOAD EQ JUMPDEST ISZERO PUSH2 0x5EF JUMPI PUSH0 DUP4 DUP3 DUP2 MLOAD DUP2 LT PUSH2 0x5A3 JUMPI PUSH2 0x5A2 PUSH2 0x9E4 JUMP JUMPDEST JUMPDEST PUSH1 0x20 MUL PUSH1 0x20 ADD ADD DUP2 DUP2 MSTORE POP POP PUSH1 0x5A DUP4 PUSH1 0x1 DUP4 PUSH2 0x5BF SWAP2 SWAP1 PUSH2 0xAD9 JUMP JUMPDEST DUP2 MLOAD DUP2 LT PUSH2 0x5D0 JUMPI PUSH2 0x5CF PUSH2 0x9E4 JUMP JUMPDEST JUMPDEST PUSH1 0x20 MUL PUSH1 0x20 ADD ADD DUP2 DUP2 MSTORE POP POP DUP1 DUP1 PUSH2 0x5E7 SWAP1 PUSH2 0xB0C JUMP JUMPDEST SWAP2 POP POP PUSH2 0x75B JUMP JUMPDEST PUSH1 0x64 DUP4 DUP3 DUP2 MLOAD DUP2 LT PUSH2 0x604 JUMPI PUSH2 0x603 PUSH2 0x9E4 JUMP JUMPDEST JUMPDEST PUSH1 0x20 MUL PUSH1 0x20 ADD ADD MLOAD EQ DUP1 ISZERO PUSH2 0x640 JUMPI POP PUSH2 0x1F4 DUP4 PUSH1 0x1 DUP4 PUSH2 0x625 SWAP2 SWAP1 PUSH2 0xAD9 JUMP JUMPDEST DUP2 MLOAD DUP2 LT PUSH2 0x636 JUMPI PUSH2 0x635 PUSH2 0x9E4 JUMP JUMPDEST JUMPDEST PUSH1 0x20 MUL PUSH1 0x20 ADD ADD MLOAD EQ JUMPDEST ISZERO PUSH2 0x6A6 JUMPI PUSH0 DUP4 DUP3 DUP2 MLOAD DUP2 LT PUSH2 0x659 JUMPI PUSH2 0x658 PUSH2 0x9E4 JUMP JUMPDEST JUMPDEST PUSH1 0x20 MUL PUSH1 0x20 ADD ADD DUP2 DUP2 MSTORE POP POP PUSH2 0x190 DUP4 PUSH1 0x1 DUP4 PUSH2 0x676 SWAP2 SWAP1 PUSH2 0xAD9 JUMP JUMPDEST DUP2 MLOAD DUP2 LT PUSH2 0x687 JUMPI PUSH2 0x686 PUSH2 0x9E4 JUMP JUMPDEST JUMPDEST PUSH1 0x20 MUL PUSH1 0x20 ADD ADD DUP2 DUP2 MSTORE POP POP DUP1 DUP1 PUSH2 0x69E SWAP1 PUSH2 0xB0C JUMP JUMPDEST SWAP2 POP POP PUSH2 0x75A JUMP JUMPDEST PUSH1 0x64 DUP4 DUP3 DUP2 MLOAD DUP2 LT PUSH2 0x6BB JUMPI PUSH2 0x6BA PUSH2 0x9E4 JUMP JUMPDEST JUMPDEST PUSH1 0x20 MUL PUSH1 0x20 ADD ADD MLOAD EQ DUP1 ISZERO PUSH2 0x6F7 JUMPI POP PUSH2 0x3E8 DUP4 PUSH1 0x1 DUP4 PUSH2 0x6DC SWAP2 SWAP1 PUSH2 0xAD9 JUMP JUMPDEST DUP2 MLOAD DUP2 LT PUSH2 0x6ED JUMPI PUSH2 0x6EC PUSH2 0x9E4 JUMP JUMPDEST JUMPDEST PUSH1 0x20 MUL PUSH1 0x20 ADD ADD MLOAD EQ JUMPDEST ISZERO PUSH2 0x759 JUMPI PUSH0 DUP4 DUP3 DUP2 MLOAD DUP2 LT PUSH2 0x710 JUMPI PUSH2 0x70F PUSH2 0x9E4 JUMP JUMPDEST JUMPDEST PUSH1 0x20 MUL PUSH1 0x20 ADD ADD DUP2 DUP2 MSTORE POP POP PUSH2 0x384 DUP4 PUSH1 0x1 DUP4 PUSH2 0x72D SWAP2 SWAP1 PUSH2 0xAD9 JUMP JUMPDEST DUP2 MLOAD DUP2 LT PUSH2 0x73E JUMPI PUSH2 0x73D PUSH2 0x9E4 JUMP JUMPDEST JUMPDEST PUSH1 0x20 MUL PUSH1 0x20 ADD ADD DUP2 DUP2 MSTORE POP POP DUP1 DUP1 PUSH2 0x755 SWAP1 PUSH2 0xB0C JUMP JUMPDEST SWAP2 POP POP JUMPDEST JUMPDEST JUMPDEST JUMPDEST JUMPDEST JUMPDEST DUP3 DUP2 DUP2 MLOAD DUP2 LT PUSH2 0x771 JUMPI PUSH2 0x770 PUSH2 0x9E4 JUMP JUMPDEST JUMPDEST PUSH1 0x20 MUL PUSH1 0x20 ADD ADD MLOAD DUP3 PUSH2 0x784 SWAP2 SWAP1 PUSH2 0xAD9 JUMP JUMPDEST SWAP2 POP DUP1 DUP1 PUSH2 0x791 SWAP1 PUSH2 0xB0C JUMP JUMPDEST SWAP2 POP POP PUSH2 0x307 JUMP JUMPDEST POP DUP1 SWAP5 POP POP POP POP POP JUMPDEST SWAP2 SWAP1 POP JUMP JUMPDEST PUSH0 PUSH1 0x40 MLOAD SWAP1 POP SWAP1 JUMP JUMPDEST PUSH0 PUSH0 REVERT JUMPDEST PUSH0 PUSH0 REVERT JUMPDEST PUSH0 PUSH0 REVERT JUMPDEST PUSH0 PUSH0 REVERT JUMPDEST PUSH0 PUSH1 0x1F NOT PUSH1 0x1F DUP4 ADD AND SWAP1 POP SWAP2 SWAP1 POP JUMP JUMPDEST PUSH32 0x4E487B7100000000000000000000000000000000000000000000000000000000 PUSH0 MSTORE PUSH1 0x41 PUSH1 0x4 MSTORE PUSH1 0x24 PUSH0 REVERT JUMPDEST PUSH2 0x806 DUP3 PUSH2 0x7C0 JUMP JUMPDEST DUP2 ADD DUP2 DUP2 LT PUSH8 0xFFFFFFFFFFFFFFFF DUP3 GT OR ISZERO PUSH2 0x825 JUMPI PUSH2 0x824 PUSH2 0x7D0 JUMP JUMPDEST JUMPDEST DUP1 PUSH1 0x40 MSTORE POP POP POP JUMP JUMPDEST PUSH0 PUSH2 0x837 PUSH2 0x7A7 JUMP JUMPDEST SWAP1 POP PUSH2 0x843 DUP3 DUP3 PUSH2 0x7FD JUMP JUMPDEST SWAP2 SWAP1 POP JUMP JUMPDEST PUSH0 PUSH8 0xFFFFFFFFFFFFFFFF DUP3 GT ISZERO PUSH2 0x862 JUMPI PUSH2 0x861 PUSH2 0x7D0 JUMP JUMPDEST JUMPDEST PUSH2 0x86B DUP3 PUSH2 0x7C0 JUMP JUMPDEST SWAP1 POP PUSH1 0x20 DUP2 ADD SWAP1 POP SWAP2 SWAP1 POP JUMP JUMPDEST DUP3 DUP2 DUP4 CALLDATACOPY PUSH0 DUP4 DUP4 ADD MSTORE POP POP POP JUMP JUMPDEST PUSH0 PUSH2 0x898 PUSH2 0x893 DUP5 PUSH2 0x848 JUMP JUMPDEST PUSH2 0x82E JUMP JUMPDEST SWAP1 POP DUP3 DUP2 MSTORE PUSH1 0x20 DUP2 ADD DUP5 DUP5 DUP5 ADD GT ISZERO PUSH2 0x8B4 JUMPI PUSH2 0x8B3 PUSH2 0x7BC JUMP JUMPDEST JUMPDEST PUSH2 0x8BF DUP5 DUP3 DUP6 PUSH2 0x878 JUMP JUMPDEST POP SWAP4 SWAP3 POP POP POP JUMP JUMPDEST PUSH0 DUP3 PUSH1 0x1F DUP4 ADD SLT PUSH2 0x8DB JUMPI PUSH2 0x8DA PUSH2 0x7B8 JUMP JUMPDEST JUMPDEST DUP2 CALLDATALOAD PUSH2 0x8EB DUP5 DUP3 PUSH1 0x20 DUP7 ADD PUSH2 0x886 JUMP JUMPDEST SWAP2 POP POP SWAP3 SWAP2 POP POP JUMP JUMPDEST PUSH0 PUSH1 0x20 DUP3 DUP5 SUB SLT ISZERO PUSH2 0x909 JUMPI PUSH2 0x908 PUSH2 0x7B0 JUMP JUMPDEST JUMPDEST PUSH0 DUP3 ADD CALLDATALOAD PUSH8 0xFFFFFFFFFFFFFFFF DUP2 GT ISZERO PUSH2 0x926 JUMPI PUSH2 0x925 PUSH2 0x7B4 JUMP JUMPDEST JUMPDEST PUSH2 0x932 DUP5 DUP3 DUP6 ADD PUSH2 0x8C7 JUMP JUMPDEST SWAP2 POP POP SWAP3 SWAP2 POP POP JUMP JUMPDEST PUSH0 DUP2 SWAP1 POP SWAP2 SWAP1 POP JUMP JUMPDEST PUSH2 0x94D DUP2 PUSH2 0x93B JUMP JUMPDEST DUP3 MSTORE POP POP JUMP JUMPDEST PUSH0 PUSH1 0x20 DUP3 ADD SWAP1 POP PUSH2 0x966 PUSH0 DUP4 ADD DUP5 PUSH2 0x944 JUMP JUMPDEST SWAP3 SWAP2 POP POP JUMP JUMPDEST PUSH0 DUP3 DUP3 MSTORE PUSH1 0x20 DUP3 ADD SWAP1 POP SWAP3 SWAP2 POP POP JUMP JUMPDEST PUSH32 0x696E76616C696420737472696E67206C656E6774680000000000000000000000 PUSH0 DUP3 ADD MSTORE POP JUMP JUMPDEST PUSH0 PUSH2 0x9B0 PUSH1 0x15 DUP4 PUSH2 0x96C JUMP JUMPDEST SWAP2 POP PUSH2 0x9BB DUP3 PUSH2 0x97C JUMP JUMPDEST PUSH1 0x20 DUP3 ADD SWAP1 POP SWAP2 SWAP1 POP JUMP JUMPDEST PUSH0 PUSH1 0x20 DUP3 ADD SWAP1 POP DUP2 DUP2 SUB PUSH0 DUP4 ADD MSTORE PUSH2 0x9DD DUP2 PUSH2 0x9A4 JUMP JUMPDEST SWAP1 POP SWAP2 SWAP1 POP JUMP JUMPDEST PUSH32 0x4E487B7100000000000000000000000000000000000000000000000000000000 PUSH0 MSTORE PUSH1 0x32 PUSH1 0x4 MSTORE PUSH1 0x24 PUSH0 REVERT JUMPDEST PUSH32 0x696E76616C696420737472696E67000000000000000000000000000000000000 PUSH0 DUP3 ADD MSTORE POP JUMP JUMPDEST PUSH0 PUSH2 0xA45 PUSH1 0xE DUP4 PUSH2 0x96C JUMP JUMPDEST SWAP2 POP PUSH2 0xA50 DUP3 PUSH2 0xA11 JUMP JUMPDEST PUSH1 0x20 DUP3 ADD SWAP1 POP SWAP2 SWAP1 POP JUMP JUMPDEST PUSH0 PUSH1 0x20 DUP3 ADD SWAP1 POP DUP2 DUP2 SUB PUSH0 DUP4 ADD MSTORE PUSH2 0xA72 DUP2 PUSH2 0xA39 JUMP JUMPDEST SWAP1 POP SWAP2 SWAP1 POP JUMP JUMPDEST PUSH32 0x4E487B7100000000000000000000000000000000000000000000000000000000 PUSH0 MSTORE PUSH1 0x11 PUSH1 0x4 MSTORE PUSH1 0x24 PUSH0 REVERT JUMPDEST PUSH0 PUSH2 0xAB0 DUP3 PUSH2 0x93B JUMP JUMPDEST SWAP2 POP PUSH2 0xABB DUP4 PUSH2 0x93B JUMP JUMPDEST SWAP3 POP DUP3 DUP3 SUB SWAP1 POP DUP2 DUP2 GT ISZERO PUSH2 0xAD3 JUMPI PUSH2 0xAD2 PUSH2 0xA79 JUMP JUMPDEST JUMPDEST SWAP3 SWAP2 POP POP JUMP JUMPDEST PUSH0 PUSH2 0xAE3 DUP3 PUSH2 0x93B JUMP JUMPDEST SWAP2 POP PUSH2 0xAEE DUP4 PUSH2 0x93B JUMP JUMPDEST SWAP3 POP DUP3 DUP3 ADD SWAP1 POP DUP1 DUP3 GT ISZERO PUSH2 0xB06 JUMPI PUSH2 0xB05 PUSH2 0xA79 JUMP JUMPDEST JUMPDEST SWAP3 SWAP2 POP POP JUMP JUMPDEST PUSH0 PUSH2 0xB16 DUP3 PUSH2 0x93B JUMP JUMPDEST SWAP2 POP PUSH32 0xFFFFFFFFFFFFFFFFFFFFFFFFFFFFFFFFFFFFFFFFFFFFFFFFFFFFFFFFFFFFFFFF DUP3 SUB PUSH2 0xB48 JUMPI PUSH2 0xB47 PUSH2 0xA79 JUMP JUMPDEST JUMPDEST PUSH1 0x1 DUP3 ADD SWAP1 POP SWAP2 SWAP1 POP JUMP INVALID LOG2 PUSH5 0x6970667358 0x22 SLT KECCAK256 0x1E REVERT CALLCODE 0xB8 PUSH24 0xD325660B6A96A83795B13CB3ABA52C7976EECCFCAC88566E 0xCA DELEGATECALL 0xAF PUSH5 0x736F6C6343 STOP ADDMOD 0x1E STOP CALLER "
				},
				"gasEstimates": {
					"creation": {
						"codeDepositCost": "590600",
						"executionCost": "156051",
						"totalCost": "746651"
					},
					"external": {
						"change(string)": "infinite"
					}
				},
				"methodIdentifiers": {
					"change(string)": "c1dcab14"
				}
			},
			"storageLayout": {
				"storage": [
					{
						"astId": 6,
						"contract": "contracts/task1/IntRomanChange2.sol:IntRomanChange2",
						"label": "byteToInt",
						"offset": 0,
						"slot": "0",
						"type": "t_mapping(t_bytes1,t_uint256)"
					}
				],
				"types": {
					"t_bytes1": {
						"encoding": "inplace",
						"label": "bytes1",
						"numberOfBytes": "1"
					},
					"t_mapping(t_bytes1,t_uint256)": {
						"encoding": "mapping",
						"key": "t_bytes1",
						"label": "mapping(bytes1 => uint256)",
						"numberOfBytes": "32",
						"value": "t_uint256"
					},
					"t_uint256": {
						"encoding": "inplace",
						"label": "uint256",
						"numberOfBytes": "32"
					}
				}
			},
			"userdoc": {
				"kind": "user",
				"methods": {},
				"notice": "整数转罗马数字",
				"version": 1
			}
		}
	}
}