{
	"contracts/TestTemp.sol": {
		"TestTemp": {
			"abi": [
				{
					"anonymous": false,
					"inputs": [
						{
							"indexed": true,
							"internalType": "address",
							"name": "from",
							"type": "address"
						},
						{
							"indexed": false,
							"internalType": "uint256",
							"name": "value",
							"type": "uint256"
						}
					],
					"name": "Input",
					"type": "event"
				},
				{
					"inputs": [],
					"name": "selector1",
					"outputs": [
						{
							"internalType": "bytes4",
							"name": "",
							"type": "bytes4"
						}
					],
					"stateMutability": "view",
					"type": "function"
				},
				{
					"inputs": [],
					"name": "selector2",
					"outputs": [
						{
							"internalType": "bytes4",
							"name": "",
							"type": "bytes4"
						}
					],
					"stateMutability": "view",
					"type": "function"
				},
				{
					"inputs": [],
					"name": "show",
					"outputs": [],
					"stateMutability": "nonpayable",
					"type": "function"
				}
			],
			"devdoc": {
				"kind": "dev",
				"methods": {},
				"version": 1
			},
			"evm": {
				"assembly": "    /* \"contracts/TestTemp.sol\":61:407  contract TestTemp {... */\n  mstore(0x40, 0x80)\n    /* \"contracts/TestTemp.sol\":119:145  keccak256(\"burn(uint256)\") */\n  0x42966c689b5afe9b9b3f8a7103b2a19980d59629bfd6a20a60972312ed41d836\n    /* \"contracts/TestTemp.sol\":86:146  bytes4 public selector1 = bytes4(keccak256(\"burn(uint256)\")) */\n  0x00\n  exp(0x0100, 0x00)\n  dup2\n  sload\n  dup2\n  0xffffffff\n  mul\n  not\n  and\n  swap1\n  dup4\n  0xe0\n  shr\n  mul\n  or\n  swap1\n  sstore\n  pop\n    /* \"contracts/TestTemp.sol\":186:233  keccak256(\"collate_propagate_storage(bytes16)\") */\n  0x42966c684c869f2e2e56c232c00c827b4e8fcd1119259bd54a90d765bf17bbd6\n    /* \"contracts/TestTemp.sol\":153:234  bytes4 public selector2 = bytes4(keccak256(\"collate_propagate_storage(bytes16)\")) */\n  0x00\n  exp(0x0100, 0x04)\n  dup2\n  sload\n  dup2\n  0xffffffff\n  mul\n  not\n  and\n  swap1\n  dup4\n  0xe0\n  shr\n  mul\n  or\n  swap1\n  sstore\n  pop\n    /* \"contracts/TestTemp.sol\":61:407  contract TestTemp {... */\n  callvalue\n  dup1\n  iszero\n  tag_1\n  jumpi\n  revert(0x00, 0x00)\ntag_1:\n  pop\n  dataSize(sub_0)\n  dup1\n  dataOffset(sub_0)\n  0x00\n  codecopy\n  0x00\n  return\nstop\n\nsub_0: assembly {\n        /* \"contracts/TestTemp.sol\":61:407  contract TestTemp {... */\n      mstore(0x40, 0x80)\n      callvalue\n      dup1\n      iszero\n      tag_1\n      jumpi\n      revert(0x00, 0x00)\n    tag_1:\n      pop\n      jumpi(tag_2, lt(calldatasize, 0x04))\n      shr(0xe0, calldataload(0x00))\n      dup1\n      0x44c984a7\n      eq\n      tag_3\n      jumpi\n      dup1\n      0xcc80f6f3\n      eq\n      tag_4\n      jumpi\n      dup1\n      0xe9b33174\n      eq\n      tag_5\n      jumpi\n    tag_2:\n      revert(0x00, 0x00)\n        /* \"contracts/TestTemp.sol\":153:234  bytes4 public selector2 = bytes4(keccak256(\"collate_propagate_storage(bytes16)\")) */\n    tag_3:\n      tag_6\n      tag_7\n      jump\t// in\n    tag_6:\n      mload(0x40)\n      tag_8\n      swap2\n      swap1\n      tag_9\n      jump\t// in\n    tag_8:\n      mload(0x40)\n      dup1\n      swap2\n      sub\n      swap1\n      return\n        /* \"contracts/TestTemp.sol\":302:404  function show() public  {... */\n    tag_4:\n      tag_10\n      tag_11\n      jump\t// in\n    tag_10:\n      stop\n        /* \"contracts/TestTemp.sol\":86:146  bytes4 public selector1 = bytes4(keccak256(\"burn(uint256)\")) */\n    tag_5:\n      tag_12\n      tag_13\n      jump\t// in\n    tag_12:\n      mload(0x40)\n      tag_14\n      swap2\n      swap1\n      tag_9\n      jump\t// in\n    tag_14:\n      mload(0x40)\n      dup1\n      swap2\n      sub\n      swap1\n      return\n        /* \"contracts/TestTemp.sol\":153:234  bytes4 public selector2 = bytes4(keccak256(\"collate_propagate_storage(bytes16)\")) */\n    tag_7:\n      0x00\n      0x04\n      swap1\n      sload\n      swap1\n      0x0100\n      exp\n      swap1\n      div\n      0xe0\n      shl\n      dup2\n      jump\t// out\n        /* \"contracts/TestTemp.sol\":302:404  function show() public  {... */\n    tag_11:\n        /* \"contracts/TestTemp.sol\":348:390  0x5B38Da6a701c568545dCfcB03FcB875f56beddC4 */\n      0x5b38da6a701c568545dcfcb03fcb875f56beddc4\n        /* \"contracts/TestTemp.sol\":342:396  Input(0x5B38Da6a701c568545dCfcB03FcB875f56beddC4, 213) */\n      0xffffffffffffffffffffffffffffffffffffffff\n      and\n      0x212d7263066aaf725f5eaacab4697d8a021b27a2d68091298f8d4dbf54e5eb6c\n        /* \"contracts/TestTemp.sol\":392:395  213 */\n      0xd5\n        /* \"contracts/TestTemp.sol\":342:396  Input(0x5B38Da6a701c568545dCfcB03FcB875f56beddC4, 213) */\n      mload(0x40)\n      tag_16\n      swap2\n      swap1\n      tag_17\n      jump\t// in\n    tag_16:\n      mload(0x40)\n      dup1\n      swap2\n      sub\n      swap1\n      log2\n        /* \"contracts/TestTemp.sol\":302:404  function show() public  {... */\n      jump\t// out\n        /* \"contracts/TestTemp.sol\":86:146  bytes4 public selector1 = bytes4(keccak256(\"burn(uint256)\")) */\n    tag_13:\n      0x00\n      0x00\n      swap1\n      sload\n      swap1\n      0x0100\n      exp\n      swap1\n      div\n      0xe0\n      shl\n      dup2\n      jump\t// out\n        /* \"#utility.yul\":7:156   */\n    tag_18:\n        /* \"#utility.yul\":43:50   */\n      0x00\n        /* \"#utility.yul\":83:149   */\n      0xffffffff00000000000000000000000000000000000000000000000000000000\n        /* \"#utility.yul\":76:81   */\n      dup3\n        /* \"#utility.yul\":72:150   */\n      and\n        /* \"#utility.yul\":61:150   */\n      swap1\n      pop\n        /* \"#utility.yul\":7:156   */\n      swap2\n      swap1\n      pop\n      jump\t// out\n        /* \"#utility.yul\":162:277   */\n    tag_19:\n        /* \"#utility.yul\":247:270   */\n      tag_28\n        /* \"#utility.yul\":264:269   */\n      dup2\n        /* \"#utility.yul\":247:270   */\n      tag_18\n      jump\t// in\n    tag_28:\n        /* \"#utility.yul\":242:245   */\n      dup3\n        /* \"#utility.yul\":235:271   */\n      mstore\n        /* \"#utility.yul\":162:277   */\n      pop\n      pop\n      jump\t// out\n        /* \"#utility.yul\":283:501   */\n    tag_9:\n        /* \"#utility.yul\":374:378   */\n      0x00\n        /* \"#utility.yul\":412:414   */\n      0x20\n        /* \"#utility.yul\":401:410   */\n      dup3\n        /* \"#utility.yul\":397:415   */\n      add\n        /* \"#utility.yul\":389:415   */\n      swap1\n      pop\n        /* \"#utility.yul\":425:494   */\n      tag_30\n        /* \"#utility.yul\":491:492   */\n      0x00\n        /* \"#utility.yul\":480:489   */\n      dup4\n        /* \"#utility.yul\":476:493   */\n      add\n        /* \"#utility.yul\":467:473   */\n      dup5\n        /* \"#utility.yul\":425:494   */\n      tag_19\n      jump\t// in\n    tag_30:\n        /* \"#utility.yul\":283:501   */\n      swap3\n      swap2\n      pop\n      pop\n      jump\t// out\n        /* \"#utility.yul\":507:594   */\n    tag_20:\n        /* \"#utility.yul\":554:561   */\n      0x00\n        /* \"#utility.yul\":583:588   */\n      dup2\n        /* \"#utility.yul\":572:588   */\n      swap1\n      pop\n        /* \"#utility.yul\":507:594   */\n      swap2\n      swap1\n      pop\n      jump\t// out\n        /* \"#utility.yul\":600:677   */\n    tag_21:\n        /* \"#utility.yul\":637:644   */\n      0x00\n        /* \"#utility.yul\":666:671   */\n      dup2\n        /* \"#utility.yul\":655:671   */\n      swap1\n      pop\n        /* \"#utility.yul\":600:677   */\n      swap2\n      swap1\n      pop\n      jump\t// out\n        /* \"#utility.yul\":683:743   */\n    tag_22:\n        /* \"#utility.yul\":711:714   */\n      0x00\n        /* \"#utility.yul\":732:737   */\n      dup2\n        /* \"#utility.yul\":725:737   */\n      swap1\n      pop\n        /* \"#utility.yul\":683:743   */\n      swap2\n      swap1\n      pop\n      jump\t// out\n        /* \"#utility.yul\":749:911   */\n    tag_23:\n        /* \"#utility.yul\":809:818   */\n      0x00\n        /* \"#utility.yul\":842:905   */\n      tag_35\n        /* \"#utility.yul\":860:904   */\n      tag_36\n        /* \"#utility.yul\":869:903   */\n      tag_37\n        /* \"#utility.yul\":897:902   */\n      dup5\n        /* \"#utility.yul\":869:903   */\n      tag_20\n      jump\t// in\n    tag_37:\n        /* \"#utility.yul\":860:904   */\n      tag_22\n      jump\t// in\n    tag_36:\n        /* \"#utility.yul\":842:905   */\n      tag_21\n      jump\t// in\n    tag_35:\n        /* \"#utility.yul\":829:905   */\n      swap1\n      pop\n        /* \"#utility.yul\":749:911   */\n      swap2\n      swap1\n      pop\n      jump\t// out\n        /* \"#utility.yul\":917:1068   */\n    tag_24:\n        /* \"#utility.yul\":1014:1061   */\n      tag_39\n        /* \"#utility.yul\":1055:1060   */\n      dup2\n        /* \"#utility.yul\":1014:1061   */\n      tag_23\n      jump\t// in\n    tag_39:\n        /* \"#utility.yul\":1009:1012   */\n      dup3\n        /* \"#utility.yul\":1002:1062   */\n      mstore\n        /* \"#utility.yul\":917:1068   */\n      pop\n      pop\n      jump\t// out\n        /* \"#utility.yul\":1074:1316   */\n    tag_17:\n        /* \"#utility.yul\":1177:1181   */\n      0x00\n        /* \"#utility.yul\":1215:1217   */\n      0x20\n        /* \"#utility.yul\":1204:1213   */\n      dup3\n        /* \"#utility.yul\":1200:1218   */\n      add\n        /* \"#utility.yul\":1192:1218   */\n      swap1\n      pop\n        /* \"#utility.yul\":1228:1309   */\n      tag_41\n        /* \"#utility.yul\":1306:1307   */\n      0x00\n        /* \"#utility.yul\":1295:1304   */\n      dup4\n        /* \"#utility.yul\":1291:1308   */\n      add\n        /* \"#utility.yul\":1282:1288   */\n      dup5\n        /* \"#utility.yul\":1228:1309   */\n      tag_24\n      jump\t// in\n    tag_41:\n        /* \"#utility.yul\":1074:1316   */\n      swap3\n      swap2\n      pop\n      pop\n      jump\t// out\n\n    auxdata: 0xa2646970667358221220256e3a7f047018d352c5854f424b690c236261dac9f42e51ec2080f58a567d2964736f6c634300081e0033\n}\n",
				"bytecode": {
					"linkReferences": {},
					"object": "60806040527f42966c689b5afe9b9b3f8a7103b2a19980d59629bfd6a20a60972312ed41d8365f5f6101000a81548163ffffffff021916908360e01c02179055507f42966c684c869f2e2e56c232c00c827b4e8fcd1119259bd54a90d765bf17bbd65f60046101000a81548163ffffffff021916908360e01c02179055503480156087575f5ffd5b506101fe806100955f395ff3fe608060405234801561000f575f5ffd5b506004361061003f575f3560e01c806344c984a714610043578063cc80f6f314610061578063e9b331741461006b575b5f5ffd5b61004b610089565b604051610058919061014b565b60405180910390f35b61006961009b565b005b610073610100565b604051610080919061014b565b60405180910390f35b5f60049054906101000a900460e01b81565b735b38da6a701c568545dcfcb03fcb875f56beddc473ffffffffffffffffffffffffffffffffffffffff167f212d7263066aaf725f5eaacab4697d8a021b27a2d68091298f8d4dbf54e5eb6c60d56040516100f691906101af565b60405180910390a2565b5f5f9054906101000a900460e01b81565b5f7fffffffff0000000000000000000000000000000000000000000000000000000082169050919050565b61014581610111565b82525050565b5f60208201905061015e5f83018461013c565b92915050565b5f819050919050565b5f819050919050565b5f819050919050565b5f61019961019461018f84610164565b610176565b61016d565b9050919050565b6101a98161017f565b82525050565b5f6020820190506101c25f8301846101a0565b9291505056fea2646970667358221220256e3a7f047018d352c5854f424b690c236261dac9f42e51ec2080f58a567d2964736f6c634300081e0033",
					"opcodes": "PUSH1 0x80 PUSH1 0x40 MSTORE PUSH32 0x42966C689B5AFE9B9B3F8A7103B2A19980D59629BFD6A20A60972312ED41D836 PUSH0 PUSH0 PUSH2 0x100 EXP DUP2 SLOAD DUP2 PUSH4 0xFFFFFFFF MUL NOT AND SWAP1 DUP4 PUSH1 0xE0 SHR MUL OR SWAP1 SSTORE POP PUSH32 0x42966C684C869F2E2E56C232C00C827B4E8FCD1119259BD54A90D765BF17BBD6 PUSH0 PUSH1 0x4 PUSH2 0x100 EXP DUP2 SLOAD DUP2 PUSH4 0xFFFFFFFF MUL NOT AND SWAP1 DUP4 PUSH1 0xE0 SHR MUL OR SWAP1 SSTORE POP CALLVALUE DUP1 ISZERO PUSH1 0x87 JUMPI PUSH0 PUSH0 REVERT JUMPDEST POP PUSH2 0x1FE DUP1 PUSH2 0x95 PUSH0 CODECOPY PUSH0 RETURN INVALID PUSH1 0x80 PUSH1 0x40 MSTORE CALLVALUE DUP1 ISZERO PUSH2 0xF JUMPI PUSH0 PUSH0 REVERT JUMPDEST POP PUSH1 0x4 CALLDATASIZE LT PUSH2 0x3F JUMPI PUSH0 CALLDATALOAD PUSH1 0xE0 SHR DUP1 PUSH4 0x44C984A7 EQ PUSH2 0x43 JUMPI DUP1 PUSH4 0xCC80F6F3 EQ PUSH2 0x61 JUMPI DUP1 PUSH4 0xE9B33174 EQ PUSH2 0x6B JUMPI JUMPDEST PUSH0 PUSH0 REVERT JUMPDEST PUSH2 0x4B PUSH2 0x89 JUMP JUMPDEST PUSH1 0x40 MLOAD PUSH2 0x58 SWAP2 SWAP1 PUSH2 0x14B JUMP JUMPDEST PUSH1 0x40 MLOAD DUP1 SWAP2 SUB SWAP1 RETURN JUMPDEST PUSH2 0x69 PUSH2 0x9B JUMP JUMPDEST STOP JUMPDEST PUSH2 0x73 PUSH2 0x100 JUMP JUMPDEST PUSH1 0x40 MLOAD PUSH2 0x80 SWAP2 SWAP1 PUSH2 0x14B JUMP JUMPDEST PUSH1 0x40 MLOAD DUP1 SWAP2 SUB SWAP1 RETURN JUMPDEST PUSH0 PUSH1 0x4 SWAP1 SLOAD SWAP1 PUSH2 0x100 EXP SWAP1 DIV PUSH1 0xE0 SHL DUP2 JUMP JUMPDEST PUSH20 0x5B38DA6A701C568545DCFCB03FCB875F56BEDDC4 PUSH20 0xFFFFFFFFFFFFFFFFFFFFFFFFFFFFFFFFFFFFFFFF AND PUSH32 0x212D7263066AAF725F5EAACAB4697D8A021B27A2D68091298F8D4DBF54E5EB6C PUSH1 0xD5 PUSH1 0x40 MLOAD PUSH2 0xF6 SWAP2 SWAP1 PUSH2 0x1AF JUMP JUMPDEST PUSH1 0x40 MLOAD DUP1 SWAP2 SUB SWAP1 LOG2 JUMP JUMPDEST PUSH0 PUSH0 SWAP1 SLOAD SWAP1 PUSH2 0x100 EXP SWAP1 DIV PUSH1 0xE0 SHL DUP2 JUMP JUMPDEST PUSH0 PUSH32 0xFFFFFFFF00000000000000000000000000000000000000000000000000000000 DUP3 AND SWAP1 POP SWAP2 SWAP1 POP JUMP JUMPDEST PUSH2 0x145 DUP2 PUSH2 0x111 JUMP JUMPDEST DUP3 MSTORE POP POP JUMP JUMPDEST PUSH0 PUSH1 0x20 DUP3 ADD SWAP1 POP PUSH2 0x15E PUSH0 DUP4 ADD DUP5 PUSH2 0x13C JUMP JUMPDEST SWAP3 SWAP2 POP POP JUMP JUMPDEST PUSH0 DUP2 SWAP1 POP SWAP2 SWAP1 POP JUMP JUMPDEST PUSH0 DUP2 SWAP1 POP SWAP2 SWAP1 POP JUMP JUMPDEST PUSH0 DUP2 SWAP1 POP SWAP2 SWAP1 POP JUMP JUMPDEST PUSH0 PUSH2 0x199 PUSH2 0x194 PUSH2 0x18F DUP5 PUSH2 0x164 JUMP JUMPDEST PUSH2 0x176 JUMP JUMPDEST PUSH2 0x16D JUMP JUMPDEST SWAP1 POP SWAP2 SWAP1 POP JUMP JUMPDEST PUSH2 0x1A9 DUP2 PUSH2 0x17F JUMP JUMPDEST DUP3 MSTORE POP POP JUMP JUMPDEST PUSH0 PUSH1 0x20 DUP3 ADD SWAP1 POP PUSH2 0x1C2 PUSH0 DUP4 ADD DUP5 PUSH2 0x1A0 JUMP JUMPDEST SWAP3 SWAP2 POP POP JUMP INVALID LOG2 PUSH5 0x6970667358 0x22 SLT KECCAK256 0x25 PUSH15 0x3A7F047018D352C5854F424B690C23 PUSH3 0x61DAC9 DELEGATECALL 0x2E MLOAD EOFCREATE 0x20 DUP1 CREATE2 DUP11 JUMP PUSH30 0x2964736F6C634300081E0033000000000000000000000000000000000000 "
				},
				"gasEstimates": {
					"creation": {
						"codeDepositCost": "102000",
						"executionCost": "48726",
						"totalCost": "150726"
					},
					"external": {
						"selector1()": "2487",
						"selector2()": "2494",
						"show()": "1841"
					}
				},
				"methodIdentifiers": {
					"selector1()": "e9b33174",
					"selector2()": "44c984a7",
					"show()": "cc80f6f3"
				}
			},
			"storageLayout": {
				"storage": [
					{
						"astId": 9,
						"contract": "contracts/TestTemp.sol:TestTemp",
						"label": "selector1",
						"offset": 0,
						"slot": "0",
						"type": "t_bytes4"
					},
					{
						"astId": 17,
						"contract": "contracts/TestTemp.sol:TestTemp",
						"label": "selector2",
						"offset": 4,
						"slot": "0",
						"type": "t_bytes4"
					}
				],
				"types": {
					"t_bytes4": {
						"encoding": "inplace",
						"label": "bytes4",
						"numberOfBytes": "4"
					}
				}
			},
			"userdoc": {
				"kind": "user",
				"methods": {},
				"version": 1
			}
		}
	}
}