{
	"contracts/1_Storage.sol": {
		"Storage": {
			"abi": [
				{
					"inputs": [
						{
							"internalType": "uint8",
							"name": "a",
							"type": "uint8"
						},
						{
							"internalType": "uint8",
							"name": "b",
							"type": "uint8"
						}
					],
					"name": "add",
					"outputs": [
						{
							"internalType": "uint8",
							"name": "c",
							"type": "uint8"
						}
					],
					"stateMutability": "pure",
					"type": "function"
				},
				{
					"inputs": [],
					"name": "retrieve",
					"outputs": [
						{
							"internalType": "uint256",
							"name": "",
							"type": "uint256"
						}
					],
					"stateMutability": "view",
					"type": "function"
				},
				{
					"inputs": [
						{
							"internalType": "uint256",
							"name": "num",
							"type": "uint256"
						}
					],
					"name": "store",
					"outputs": [],
					"stateMutability": "nonpayable",
					"type": "function"
				}
			],
			"devdoc": {
				"custom:dev-run-script": "./scripts/deploy_with_ethers.ts",
				"details": "Store & retrieve value in a variable",
				"kind": "dev",
				"methods": {
					"retrieve()": {
						"details": "Return value ",
						"returns": {
							"_0": "value of 'number'"
						}
					},
					"store(uint256)": {
						"details": "Store value in variable",
						"params": {
							"num": "value to store"
						}
					}
				},
				"title": "Storage",
				"version": 1
			},
			"evm": {
				"assembly": "    /* \"contracts/1_Storage.sol\":198:660  contract Storage {... */\n  mstore(0x40, 0x80)\n  callvalue\n  dup1\n  iszero\n  tag_1\n  jumpi\n  revert(0x00, 0x00)\ntag_1:\n  pop\n  dataSize(sub_0)\n  dup1\n  dataOffset(sub_0)\n  0x00\n  codecopy\n  0x00\n  return\nstop\n\nsub_0: assembly {\n        /* \"contracts/1_Storage.sol\":198:660  contract Storage {... */\n      mstore(0x40, 0x80)\n      callvalue\n      dup1\n      iszero\n      tag_1\n      jumpi\n      revert(0x00, 0x00)\n    tag_1:\n      pop\n      jumpi(tag_2, lt(calldatasize, 0x04))\n      shr(0xe0, calldataload(0x00))\n      dup1\n      0x2e64cec1\n      eq\n      tag_3\n      jumpi\n      dup1\n      0x6057361d\n      eq\n      tag_4\n      jumpi\n      dup1\n      0xbb4e3f4d\n      eq\n      tag_5\n      jumpi\n    tag_2:\n      revert(0x00, 0x00)\n        /* \"contracts/1_Storage.sol\":473:552  function retrieve() public view returns (uint256){... */\n    tag_3:\n      tag_6\n      tag_7\n      jump\t// in\n    tag_6:\n      mload(0x40)\n      tag_8\n      swap2\n      swap1\n      tag_9\n      jump\t// in\n    tag_8:\n      mload(0x40)\n      dup1\n      swap2\n      sub\n      swap1\n      return\n        /* \"contracts/1_Storage.sol\":328:392  function store(uint256 num) public {... */\n    tag_4:\n      tag_10\n      0x04\n      dup1\n      calldatasize\n      sub\n      dup2\n      add\n      swap1\n      tag_11\n      swap2\n      swap1\n      tag_12\n      jump\t// in\n    tag_11:\n      tag_13\n      jump\t// in\n    tag_10:\n      stop\n        /* \"contracts/1_Storage.sol\":558:658  function add(uint8 a, uint8 b) public pure returns(uint8 c) {... */\n    tag_5:\n      tag_14\n      0x04\n      dup1\n      calldatasize\n      sub\n      dup2\n      add\n      swap1\n      tag_15\n      swap2\n      swap1\n      tag_16\n      jump\t// in\n    tag_15:\n      tag_17\n      jump\t// in\n    tag_14:\n      mload(0x40)\n      tag_18\n      swap2\n      swap1\n      tag_19\n      jump\t// in\n    tag_18:\n      mload(0x40)\n      dup1\n      swap2\n      sub\n      swap1\n      return\n        /* \"contracts/1_Storage.sol\":473:552  function retrieve() public view returns (uint256){... */\n    tag_7:\n        /* \"contracts/1_Storage.sol\":514:521  uint256 */\n      0x00\n        /* \"contracts/1_Storage.sol\":539:545  number */\n      sload(0x00)\n        /* \"contracts/1_Storage.sol\":532:545  return number */\n      swap1\n      pop\n        /* \"contracts/1_Storage.sol\":473:552  function retrieve() public view returns (uint256){... */\n      swap1\n      jump\t// out\n        /* \"contracts/1_Storage.sol\":328:392  function store(uint256 num) public {... */\n    tag_13:\n        /* \"contracts/1_Storage.sol\":382:385  num */\n      dup1\n        /* \"contracts/1_Storage.sol\":373:379  number */\n      0x00\n        /* \"contracts/1_Storage.sol\":373:385  number = num */\n      dup2\n      swap1\n      sstore\n      pop\n        /* \"contracts/1_Storage.sol\":328:392  function store(uint256 num) public {... */\n      pop\n      jump\t// out\n        /* \"contracts/1_Storage.sol\":558:658  function add(uint8 a, uint8 b) public pure returns(uint8 c) {... */\n    tag_17:\n        /* \"contracts/1_Storage.sol\":609:616  uint8 c */\n      0x00\n        /* \"contracts/1_Storage.sol\":649:650  b */\n      dup2\n        /* \"contracts/1_Storage.sol\":645:646  a */\n      dup4\n        /* \"contracts/1_Storage.sol\":645:650  a + b */\n      add\n        /* \"contracts/1_Storage.sol\":638:650  return a + b */\n      swap1\n      pop\n        /* \"contracts/1_Storage.sol\":558:658  function add(uint8 a, uint8 b) public pure returns(uint8 c) {... */\n      swap3\n      swap2\n      pop\n      pop\n      jump\t// out\n        /* \"#utility.yul\":7:84   */\n    tag_23:\n        /* \"#utility.yul\":44:51   */\n      0x00\n        /* \"#utility.yul\":73:78   */\n      dup2\n        /* \"#utility.yul\":62:78   */\n      swap1\n      pop\n        /* \"#utility.yul\":7:84   */\n      swap2\n      swap1\n      pop\n      jump\t// out\n        /* \"#utility.yul\":90:208   */\n    tag_24:\n        /* \"#utility.yul\":177:201   */\n      tag_37\n        /* \"#utility.yul\":195:200   */\n      dup2\n        /* \"#utility.yul\":177:201   */\n      tag_23\n      jump\t// in\n    tag_37:\n        /* \"#utility.yul\":172:175   */\n      dup3\n        /* \"#utility.yul\":165:202   */\n      mstore\n        /* \"#utility.yul\":90:208   */\n      pop\n      pop\n      jump\t// out\n        /* \"#utility.yul\":214:436   */\n    tag_9:\n        /* \"#utility.yul\":307:311   */\n      0x00\n        /* \"#utility.yul\":345:347   */\n      0x20\n        /* \"#utility.yul\":334:343   */\n      dup3\n        /* \"#utility.yul\":330:348   */\n      add\n        /* \"#utility.yul\":322:348   */\n      swap1\n      pop\n        /* \"#utility.yul\":358:429   */\n      tag_39\n        /* \"#utility.yul\":426:427   */\n      0x00\n        /* \"#utility.yul\":415:424   */\n      dup4\n        /* \"#utility.yul\":411:428   */\n      add\n        /* \"#utility.yul\":402:408   */\n      dup5\n        /* \"#utility.yul\":358:429   */\n      tag_24\n      jump\t// in\n    tag_39:\n        /* \"#utility.yul\":214:436   */\n      swap3\n      swap2\n      pop\n      pop\n      jump\t// out\n        /* \"#utility.yul\":523:640   */\n    tag_26:\n        /* \"#utility.yul\":632:633   */\n      0x00\n        /* \"#utility.yul\":629:630   */\n      0x00\n        /* \"#utility.yul\":622:634   */\n      revert\n        /* \"#utility.yul\":769:891   */\n    tag_28:\n        /* \"#utility.yul\":842:866   */\n      tag_44\n        /* \"#utility.yul\":860:865   */\n      dup2\n        /* \"#utility.yul\":842:866   */\n      tag_23\n      jump\t// in\n    tag_44:\n        /* \"#utility.yul\":835:840   */\n      dup2\n        /* \"#utility.yul\":832:867   */\n      eq\n        /* \"#utility.yul\":822:885   */\n      tag_45\n      jumpi\n        /* \"#utility.yul\":881:882   */\n      0x00\n        /* \"#utility.yul\":878:879   */\n      0x00\n        /* \"#utility.yul\":871:883   */\n      revert\n        /* \"#utility.yul\":822:885   */\n    tag_45:\n        /* \"#utility.yul\":769:891   */\n      pop\n      jump\t// out\n        /* \"#utility.yul\":897:1036   */\n    tag_29:\n        /* \"#utility.yul\":943:948   */\n      0x00\n        /* \"#utility.yul\":981:987   */\n      dup2\n        /* \"#utility.yul\":968:988   */\n      calldataload\n        /* \"#utility.yul\":959:988   */\n      swap1\n      pop\n        /* \"#utility.yul\":997:1030   */\n      tag_47\n        /* \"#utility.yul\":1024:1029   */\n      dup2\n        /* \"#utility.yul\":997:1030   */\n      tag_28\n      jump\t// in\n    tag_47:\n        /* \"#utility.yul\":897:1036   */\n      swap3\n      swap2\n      pop\n      pop\n      jump\t// out\n        /* \"#utility.yul\":1042:1371   */\n    tag_12:\n        /* \"#utility.yul\":1101:1107   */\n      0x00\n        /* \"#utility.yul\":1150:1152   */\n      0x20\n        /* \"#utility.yul\":1138:1147   */\n      dup3\n        /* \"#utility.yul\":1129:1136   */\n      dup5\n        /* \"#utility.yul\":1125:1148   */\n      sub\n        /* \"#utility.yul\":1121:1153   */\n      slt\n        /* \"#utility.yul\":1118:1237   */\n      iszero\n      tag_49\n      jumpi\n        /* \"#utility.yul\":1156:1235   */\n      tag_50\n      tag_26\n      jump\t// in\n    tag_50:\n        /* \"#utility.yul\":1118:1237   */\n    tag_49:\n        /* \"#utility.yul\":1276:1277   */\n      0x00\n        /* \"#utility.yul\":1301:1354   */\n      tag_51\n        /* \"#utility.yul\":1346:1353   */\n      dup5\n        /* \"#utility.yul\":1337:1343   */\n      dup3\n        /* \"#utility.yul\":1326:1335   */\n      dup6\n        /* \"#utility.yul\":1322:1344   */\n      add\n        /* \"#utility.yul\":1301:1354   */\n      tag_29\n      jump\t// in\n    tag_51:\n        /* \"#utility.yul\":1291:1354   */\n      swap2\n      pop\n        /* \"#utility.yul\":1247:1364   */\n      pop\n        /* \"#utility.yul\":1042:1371   */\n      swap3\n      swap2\n      pop\n      pop\n      jump\t// out\n        /* \"#utility.yul\":1377:1463   */\n    tag_30:\n        /* \"#utility.yul\":1412:1419   */\n      0x00\n        /* \"#utility.yul\":1452:1456   */\n      0xff\n        /* \"#utility.yul\":1445:1450   */\n      dup3\n        /* \"#utility.yul\":1441:1457   */\n      and\n        /* \"#utility.yul\":1430:1457   */\n      swap1\n      pop\n        /* \"#utility.yul\":1377:1463   */\n      swap2\n      swap1\n      pop\n      jump\t// out\n        /* \"#utility.yul\":1469:1587   */\n    tag_31:\n        /* \"#utility.yul\":1540:1562   */\n      tag_54\n        /* \"#utility.yul\":1556:1561   */\n      dup2\n        /* \"#utility.yul\":1540:1562   */\n      tag_30\n      jump\t// in\n    tag_54:\n        /* \"#utility.yul\":1533:1538   */\n      dup2\n        /* \"#utility.yul\":1530:1563   */\n      eq\n        /* \"#utility.yul\":1520:1581   */\n      tag_55\n      jumpi\n        /* \"#utility.yul\":1577:1578   */\n      0x00\n        /* \"#utility.yul\":1574:1575   */\n      0x00\n        /* \"#utility.yul\":1567:1579   */\n      revert\n        /* \"#utility.yul\":1520:1581   */\n    tag_55:\n        /* \"#utility.yul\":1469:1587   */\n      pop\n      jump\t// out\n        /* \"#utility.yul\":1593:1728   */\n    tag_32:\n        /* \"#utility.yul\":1637:1642   */\n      0x00\n        /* \"#utility.yul\":1675:1681   */\n      dup2\n        /* \"#utility.yul\":1662:1682   */\n      calldataload\n        /* \"#utility.yul\":1653:1682   */\n      swap1\n      pop\n        /* \"#utility.yul\":1691:1722   */\n      tag_57\n        /* \"#utility.yul\":1716:1721   */\n      dup2\n        /* \"#utility.yul\":1691:1722   */\n      tag_31\n      jump\t// in\n    tag_57:\n        /* \"#utility.yul\":1593:1728   */\n      swap3\n      swap2\n      pop\n      pop\n      jump\t// out\n        /* \"#utility.yul\":1734:2200   */\n    tag_16:\n        /* \"#utility.yul\":1798:1804   */\n      0x00\n        /* \"#utility.yul\":1806:1812   */\n      0x00\n        /* \"#utility.yul\":1855:1857   */\n      0x40\n        /* \"#utility.yul\":1843:1852   */\n      dup4\n        /* \"#utility.yul\":1834:1841   */\n      dup6\n        /* \"#utility.yul\":1830:1853   */\n      sub\n        /* \"#utility.yul\":1826:1858   */\n      slt\n        /* \"#utility.yul\":1823:1942   */\n      iszero\n      tag_59\n      jumpi\n        /* \"#utility.yul\":1861:1940   */\n      tag_60\n      tag_26\n      jump\t// in\n    tag_60:\n        /* \"#utility.yul\":1823:1942   */\n    tag_59:\n        /* \"#utility.yul\":1981:1982   */\n      0x00\n        /* \"#utility.yul\":2006:2057   */\n      tag_61\n        /* \"#utility.yul\":2049:2056   */\n      dup6\n        /* \"#utility.yul\":2040:2046   */\n      dup3\n        /* \"#utility.yul\":2029:2038   */\n      dup7\n        /* \"#utility.yul\":2025:2047   */\n      add\n        /* \"#utility.yul\":2006:2057   */\n      tag_32\n      jump\t// in\n    tag_61:\n        /* \"#utility.yul\":1996:2057   */\n      swap3\n      pop\n        /* \"#utility.yul\":1952:2067   */\n      pop\n        /* \"#utility.yul\":2106:2108   */\n      0x20\n        /* \"#utility.yul\":2132:2183   */\n      tag_62\n        /* \"#utility.yul\":2175:2182   */\n      dup6\n        /* \"#utility.yul\":2166:2172   */\n      dup3\n        /* \"#utility.yul\":2155:2164   */\n      dup7\n        /* \"#utility.yul\":2151:2173   */\n      add\n        /* \"#utility.yul\":2132:2183   */\n      tag_32\n      jump\t// in\n    tag_62:\n        /* \"#utility.yul\":2122:2183   */\n      swap2\n      pop\n        /* \"#utility.yul\":2077:2193   */\n      pop\n        /* \"#utility.yul\":1734:2200   */\n      swap3\n      pop\n      swap3\n      swap1\n      pop\n      jump\t// out\n        /* \"#utility.yul\":2206:2318   */\n    tag_33:\n        /* \"#utility.yul\":2289:2311   */\n      tag_64\n        /* \"#utility.yul\":2305:2310   */\n      dup2\n        /* \"#utility.yul\":2289:2311   */\n      tag_30\n      jump\t// in\n    tag_64:\n        /* \"#utility.yul\":2284:2287   */\n      dup3\n        /* \"#utility.yul\":2277:2312   */\n      mstore\n        /* \"#utility.yul\":2206:2318   */\n      pop\n      pop\n      jump\t// out\n        /* \"#utility.yul\":2324:2538   */\n    tag_19:\n        /* \"#utility.yul\":2413:2417   */\n      0x00\n        /* \"#utility.yul\":2451:2453   */\n      0x20\n        /* \"#utility.yul\":2440:2449   */\n      dup3\n        /* \"#utility.yul\":2436:2454   */\n      add\n        /* \"#utility.yul\":2428:2454   */\n      swap1\n      pop\n        /* \"#utility.yul\":2464:2531   */\n      tag_66\n        /* \"#utility.yul\":2528:2529   */\n      0x00\n        /* \"#utility.yul\":2517:2526   */\n      dup4\n        /* \"#utility.yul\":2513:2530   */\n      add\n        /* \"#utility.yul\":2504:2510   */\n      dup5\n        /* \"#utility.yul\":2464:2531   */\n      tag_33\n      jump\t// in\n    tag_66:\n        /* \"#utility.yul\":2324:2538   */\n      swap3\n      swap2\n      pop\n      pop\n      jump\t// out\n\n    auxdata: 0xa2646970667358221220e83368b8ee15dc02ed403547e2c166ea3b4fca8c4a68f0eeda9e41f4e4892fc064736f6c634300081e0033\n}\n",
				"bytecode": {
					"linkReferences": {},
					"object": "6080604052348015600e575f5ffd5b506102268061001c5f395ff3fe608060405234801561000f575f5ffd5b506004361061003f575f3560e01c80632e64cec1146100435780636057361d14610061578063bb4e3f4d1461007d575b5f5ffd5b61004b6100ad565b60405161005891906100e2565b60405180910390f35b61007b60048036038101906100769190610129565b6100b5565b005b6100976004803603810190610092919061018a565b6100be565b6040516100a491906101d7565b60405180910390f35b5f5f54905090565b805f8190555050565b5f818301905092915050565b5f819050919050565b6100dc816100ca565b82525050565b5f6020820190506100f55f8301846100d3565b92915050565b5f5ffd5b610108816100ca565b8114610112575f5ffd5b50565b5f81359050610123816100ff565b92915050565b5f6020828403121561013e5761013d6100fb565b5b5f61014b84828501610115565b91505092915050565b5f60ff82169050919050565b61016981610154565b8114610173575f5ffd5b50565b5f8135905061018481610160565b92915050565b5f5f604083850312156101a05761019f6100fb565b5b5f6101ad85828601610176565b92505060206101be85828601610176565b9150509250929050565b6101d181610154565b82525050565b5f6020820190506101ea5f8301846101c8565b9291505056fea2646970667358221220e83368b8ee15dc02ed403547e2c166ea3b4fca8c4a68f0eeda9e41f4e4892fc064736f6c634300081e0033",
					"opcodes": "PUSH1 0x80 PUSH1 0x40 MSTORE CALLVALUE DUP1 ISZERO PUSH1 0xE JUMPI PUSH0 PUSH0 REVERT JUMPDEST POP PUSH2 0x226 DUP1 PUSH2 0x1C PUSH0 CODECOPY PUSH0 RETURN INVALID PUSH1 0x80 PUSH1 0x40 MSTORE CALLVALUE DUP1 ISZERO PUSH2 0xF JUMPI PUSH0 PUSH0 REVERT JUMPDEST POP PUSH1 0x4 CALLDATASIZE LT PUSH2 0x3F JUMPI PUSH0 CALLDATALOAD PUSH1 0xE0 SHR DUP1 PUSH4 0x2E64CEC1 EQ PUSH2 0x43 JUMPI DUP1 PUSH4 0x6057361D EQ PUSH2 0x61 JUMPI DUP1 PUSH4 0xBB4E3F4D EQ PUSH2 0x7D JUMPI JUMPDEST PUSH0 PUSH0 REVERT JUMPDEST PUSH2 0x4B PUSH2 0xAD JUMP JUMPDEST PUSH1 0x40 MLOAD PUSH2 0x58 SWAP2 SWAP1 PUSH2 0xE2 JUMP JUMPDEST PUSH1 0x40 MLOAD DUP1 SWAP2 SUB SWAP1 RETURN JUMPDEST PUSH2 0x7B PUSH1 0x4 DUP1 CALLDATASIZE SUB DUP2 ADD SWAP1 PUSH2 0x76 SWAP2 SWAP1 PUSH2 0x129 JUMP JUMPDEST PUSH2 0xB5 JUMP JUMPDEST STOP JUMPDEST PUSH2 0x97 PUSH1 0x4 DUP1 CALLDATASIZE SUB DUP2 ADD SWAP1 PUSH2 0x92 SWAP2 SWAP1 PUSH2 0x18A JUMP JUMPDEST PUSH2 0xBE JUMP JUMPDEST PUSH1 0x40 MLOAD PUSH2 0xA4 SWAP2 SWAP1 PUSH2 0x1D7 JUMP JUMPDEST PUSH1 0x40 MLOAD DUP1 SWAP2 SUB SWAP1 RETURN JUMPDEST PUSH0 PUSH0 SLOAD SWAP1 POP SWAP1 JUMP JUMPDEST DUP1 PUSH0 DUP2 SWAP1 SSTORE POP POP JUMP JUMPDEST PUSH0 DUP2 DUP4 ADD SWAP1 POP SWAP3 SWAP2 POP POP JUMP JUMPDEST PUSH0 DUP2 SWAP1 POP SWAP2 SWAP1 POP JUMP JUMPDEST PUSH2 0xDC DUP2 PUSH2 0xCA JUMP JUMPDEST DUP3 MSTORE POP POP JUMP JUMPDEST PUSH0 PUSH1 0x20 DUP3 ADD SWAP1 POP PUSH2 0xF5 PUSH0 DUP4 ADD DUP5 PUSH2 0xD3 JUMP JUMPDEST SWAP3 SWAP2 POP POP JUMP JUMPDEST PUSH0 PUSH0 REVERT JUMPDEST PUSH2 0x108 DUP2 PUSH2 0xCA JUMP JUMPDEST DUP2 EQ PUSH2 0x112 JUMPI PUSH0 PUSH0 REVERT JUMPDEST POP JUMP JUMPDEST PUSH0 DUP2 CALLDATALOAD SWAP1 POP PUSH2 0x123 DUP2 PUSH2 0xFF JUMP JUMPDEST SWAP3 SWAP2 POP POP JUMP JUMPDEST PUSH0 PUSH1 0x20 DUP3 DUP5 SUB SLT ISZERO PUSH2 0x13E JUMPI PUSH2 0x13D PUSH2 0xFB JUMP JUMPDEST JUMPDEST PUSH0 PUSH2 0x14B DUP5 DUP3 DUP6 ADD PUSH2 0x115 JUMP JUMPDEST SWAP2 POP POP SWAP3 SWAP2 POP POP JUMP JUMPDEST PUSH0 PUSH1 0xFF DUP3 AND SWAP1 POP SWAP2 SWAP1 POP JUMP JUMPDEST PUSH2 0x169 DUP2 PUSH2 0x154 JUMP JUMPDEST DUP2 EQ PUSH2 0x173 JUMPI PUSH0 PUSH0 REVERT JUMPDEST POP JUMP JUMPDEST PUSH0 DUP2 CALLDATALOAD SWAP1 POP PUSH2 0x184 DUP2 PUSH2 0x160 JUMP JUMPDEST SWAP3 SWAP2 POP POP JUMP JUMPDEST PUSH0 PUSH0 PUSH1 0x40 DUP4 DUP6 SUB SLT ISZERO PUSH2 0x1A0 JUMPI PUSH2 0x19F PUSH2 0xFB JUMP JUMPDEST JUMPDEST PUSH0 PUSH2 0x1AD DUP6 DUP3 DUP7 ADD PUSH2 0x176 JUMP JUMPDEST SWAP3 POP POP PUSH1 0x20 PUSH2 0x1BE DUP6 DUP3 DUP7 ADD PUSH2 0x176 JUMP JUMPDEST SWAP2 POP POP SWAP3 POP SWAP3 SWAP1 POP JUMP JUMPDEST PUSH2 0x1D1 DUP2 PUSH2 0x154 JUMP JUMPDEST DUP3 MSTORE POP POP JUMP JUMPDEST PUSH0 PUSH1 0x20 DUP3 ADD SWAP1 POP PUSH2 0x1EA PUSH0 DUP4 ADD DUP5 PUSH2 0x1C8 JUMP JUMPDEST SWAP3 SWAP2 POP POP JUMP INVALID LOG2 PUSH5 0x6970667358 0x22 SLT KECCAK256 0xE8 CALLER PUSH9 0xB8EE15DC02ED403547 0xE2 0xC1 PUSH7 0xEA3B4FCA8C4A68 CREATE RETURNCONTRACT 0xDA SWAP15 COINBASE DELEGATECALL RETF DUP10 0x2F 0xC0 PUSH5 0x736F6C6343 STOP ADDMOD 0x1E STOP CALLER "
				},
				"gasEstimates": {
					"creation": {
						"codeDepositCost": "110000",
						"executionCost": "157",
						"totalCost": "110157"
					},
					"external": {
						"add(uint8,uint8)": "infinite",
						"retrieve()": "2409",
						"store(uint256)": "22514"
					}
				},
				"methodIdentifiers": {
					"add(uint8,uint8)": "bb4e3f4d",
					"retrieve()": "2e64cec1",
					"store(uint256)": "6057361d"
				}
			},
			"storageLayout": {
				"storage": [
					{
						"astId": 4,
						"contract": "contracts/1_Storage.sol:Storage",
						"label": "number",
						"offset": 0,
						"slot": "0",
						"type": "t_uint256"
					}
				],
				"types": {
					"t_uint256": {
						"encoding": "inplace",
						"label": "uint256",
						"numberOfBytes": "32"
					}
				}
			},
			"userdoc": {
				"kind": "user",
				"methods": {},
				"version": 1
			}
		}
	}
}