{
	"contracts/TestTransfer.sol": {
		"TestTemp": {
			"abi": [
				{
					"stateMutability": "payable",
					"type": "fallback"
				},
				{
					"inputs": [],
					"name": "a",
					"outputs": [
						{
							"internalType": "uint256",
							"name": "",
							"type": "uint256"
						}
					],
					"stateMutability": "view",
					"type": "function"
				},
				{
					"inputs": [],
					"name": "resetA",
					"outputs": [],
					"stateMutability": "nonpayable",
					"type": "function"
				},
				{
					"stateMutability": "payable",
					"type": "receive"
				}
			],
			"devdoc": {
				"kind": "dev",
				"methods": {},
				"version": 1
			},
			"evm": {
				"assembly": "    /* \"contracts/TestTransfer.sol\":61:295  contract TestTemp {... */\n  mstore(0x40, 0x80)\n    /* \"contracts/TestTransfer.sol\":105:108  100 */\n  0x64\n    /* \"contracts/TestTransfer.sol\":86:108  uint256 public a = 100 */\n  0x00\n  sstore\n    /* \"contracts/TestTransfer.sol\":61:295  contract TestTemp {... */\n  callvalue\n  dup1\n  iszero\n  tag_1\n  jumpi\n  revert(0x00, 0x00)\ntag_1:\n  pop\n  dataSize(sub_0)\n  dup1\n  dataOffset(sub_0)\n  0x00\n  codecopy\n  0x00\n  return\nstop\n\nsub_0: assembly {\n        /* \"contracts/TestTransfer.sol\":61:295  contract TestTemp {... */\n      mstore(0x40, 0x80)\n      jumpi(tag_1, lt(calldatasize, 0x04))\n      shr(0xe0, calldataload(0x00))\n      dup1\n      0x0dbe671f\n      eq\n      tag_3\n      jumpi\n      dup1\n      0x733b92f7\n      eq\n      tag_4\n      jumpi\n      jump(tag_2)\n    tag_1:\n    tag_2:\n      stop\n        /* \"contracts/TestTransfer.sol\":86:108  uint256 public a = 100 */\n    tag_3:\n      callvalue\n      dup1\n      iszero\n      tag_9\n      jumpi\n      revert(0x00, 0x00)\n    tag_9:\n      pop\n      tag_10\n      tag_11\n      jump\t// in\n    tag_10:\n      mload(0x40)\n      tag_12\n      swap2\n      swap1\n      tag_13\n      jump\t// in\n    tag_12:\n      mload(0x40)\n      dup1\n      swap2\n      sub\n      swap1\n      return\n        /* \"contracts/TestTransfer.sol\":115:167  function resetA() public {... */\n    tag_4:\n      callvalue\n      dup1\n      iszero\n      tag_14\n      jumpi\n      revert(0x00, 0x00)\n    tag_14:\n      pop\n      tag_15\n      tag_16\n      jump\t// in\n    tag_15:\n      stop\n        /* \"contracts/TestTransfer.sol\":86:108  uint256 public a = 100 */\n    tag_11:\n      sload(0x00)\n      dup2\n      jump\t// out\n        /* \"contracts/TestTransfer.sol\":115:167  function resetA() public {... */\n    tag_16:\n        /* \"contracts/TestTransfer.sol\":158:159  a */\n      0x00\n        /* \"contracts/TestTransfer.sol\":151:159  delete a */\n      0x00\n      swap1\n      sstore\n        /* \"contracts/TestTransfer.sol\":115:167  function resetA() public {... */\n      jump\t// out\n        /* \"#utility.yul\":7:84   */\n    tag_18:\n        /* \"#utility.yul\":44:51   */\n      0x00\n        /* \"#utility.yul\":73:78   */\n      dup2\n        /* \"#utility.yul\":62:78   */\n      swap1\n      pop\n        /* \"#utility.yul\":7:84   */\n      swap2\n      swap1\n      pop\n      jump\t// out\n        /* \"#utility.yul\":90:208   */\n    tag_19:\n        /* \"#utility.yul\":177:201   */\n      tag_23\n        /* \"#utility.yul\":195:200   */\n      dup2\n        /* \"#utility.yul\":177:201   */\n      tag_18\n      jump\t// in\n    tag_23:\n        /* \"#utility.yul\":172:175   */\n      dup3\n        /* \"#utility.yul\":165:202   */\n      mstore\n        /* \"#utility.yul\":90:208   */\n      pop\n      pop\n      jump\t// out\n        /* \"#utility.yul\":214:436   */\n    tag_13:\n        /* \"#utility.yul\":307:311   */\n      0x00\n        /* \"#utility.yul\":345:347   */\n      0x20\n        /* \"#utility.yul\":334:343   */\n      dup3\n        /* \"#utility.yul\":330:348   */\n      add\n        /* \"#utility.yul\":322:348   */\n      swap1\n      pop\n        /* \"#utility.yul\":358:429   */\n      tag_25\n        /* \"#utility.yul\":426:427   */\n      0x00\n        /* \"#utility.yul\":415:424   */\n      dup4\n        /* \"#utility.yul\":411:428   */\n      add\n        /* \"#utility.yul\":402:408   */\n      dup5\n        /* \"#utility.yul\":358:429   */\n      tag_19\n      jump\t// in\n    tag_25:\n        /* \"#utility.yul\":214:436   */\n      swap3\n      swap2\n      pop\n      pop\n      jump\t// out\n\n    auxdata: 0xa2646970667358221220fd6f348b9ced36095a97211eb8baeda245da67312140d87dd5ff60ebea25b7e164736f6c634300081e0033\n}\n",
				"bytecode": {
					"linkReferences": {},
					"object": "608060405260645f553480156012575f5ffd5b5060d180601e5f395ff3fe6080604052600436106028575f3560e01c80630dbe671f14602b578063733b92f7146050576029565b5b005b3480156035575f5ffd5b50603c6063565b604051604791906084565b60405180910390f35b348015605a575f5ffd5b5060616068565b005b5f5481565b5f5f9055565b5f819050919050565b607e81606e565b82525050565b5f60208201905060955f8301846077565b9291505056fea2646970667358221220fd6f348b9ced36095a97211eb8baeda245da67312140d87dd5ff60ebea25b7e164736f6c634300081e0033",
					"opcodes": "PUSH1 0x80 PUSH1 0x40 MSTORE PUSH1 0x64 PUSH0 SSTORE CALLVALUE DUP1 ISZERO PUSH1 0x12 JUMPI PUSH0 PUSH0 REVERT JUMPDEST POP PUSH1 0xD1 DUP1 PUSH1 0x1E PUSH0 CODECOPY PUSH0 RETURN INVALID PUSH1 0x80 PUSH1 0x40 MSTORE PUSH1 0x4 CALLDATASIZE LT PUSH1 0x28 JUMPI PUSH0 CALLDATALOAD PUSH1 0xE0 SHR DUP1 PUSH4 0xDBE671F EQ PUSH1 0x2B JUMPI DUP1 PUSH4 0x733B92F7 EQ PUSH1 0x50 JUMPI PUSH1 0x29 JUMP JUMPDEST JUMPDEST STOP JUMPDEST CALLVALUE DUP1 ISZERO PUSH1 0x35 JUMPI PUSH0 PUSH0 REVERT JUMPDEST POP PUSH1 0x3C PUSH1 0x63 JUMP JUMPDEST PUSH1 0x40 MLOAD PUSH1 0x47 SWAP2 SWAP1 PUSH1 0x84 JUMP JUMPDEST PUSH1 0x40 MLOAD DUP1 SWAP2 SUB SWAP1 RETURN JUMPDEST CALLVALUE DUP1 ISZERO PUSH1 0x5A JUMPI PUSH0 PUSH0 REVERT JUMPDEST POP PUSH1 0x61 PUSH1 0x68 JUMP JUMPDEST STOP JUMPDEST PUSH0 SLOAD DUP2 JUMP JUMPDEST PUSH0 PUSH0 SWAP1 SSTORE JUMP JUMPDEST PUSH0 DUP2 SWAP1 POP SWAP2 SWAP1 POP JUMP JUMPDEST PUSH1 0x7E DUP2 PUSH1 0x6E JUMP JUMPDEST DUP3 MSTORE POP POP JUMP JUMPDEST PUSH0 PUSH1 0x20 DUP3 ADD SWAP1 POP PUSH1 0x95 PUSH0 DUP4 ADD DUP5 PUSH1 0x77 JUMP JUMPDEST SWAP3 SWAP2 POP POP JUMP INVALID LOG2 PUSH5 0x6970667358 0x22 SLT KECCAK256 REVERT PUSH16 0x348B9CED36095A97211EB8BAEDA245DA PUSH8 0x312140D87DD5FF60 0xEB 0xEA 0x25 0xB7 RJUMPI 0x6473 PUSH16 0x6C634300081E00330000000000000000 "
				},
				"gasEstimates": {
					"creation": {
						"codeDepositCost": "41800",
						"executionCost": "22196",
						"totalCost": "63996"
					},
					"external": {
						"": "106",
						"a()": "2402",
						"resetA()": "5150"
					}
				},
				"methodIdentifiers": {
					"a()": "0dbe671f",
					"resetA()": "733b92f7"
				}
			},
			"storageLayout": {
				"storage": [
					{
						"astId": 4,
						"contract": "contracts/TestTransfer.sol:TestTemp",
						"label": "a",
						"offset": 0,
						"slot": "0",
						"type": "t_uint256"
					}
				],
				"types": {
					"t_uint256": {
						"encoding": "inplace",
						"label": "uint256",
						"numberOfBytes": "32"
					}
				}
			},
			"userdoc": {
				"kind": "user",
				"methods": {},
				"version": 1
			}
		}
	}
}