{
	"contracts/SimpleToken2.sol": {
		"TokenSwap": {
			"abi": [
				{
					"inputs": [
						{
							"internalType": "address",
							"name": "_tokenA",
							"type": "address"
						}
					],
					"stateMutability": "nonpayable",
					"type": "constructor"
				},
				{
					"inputs": [
						{
							"internalType": "uint256",
							"name": "amountA",
							"type": "uint256"
						}
					],
					"name": "swap",
					"outputs": [],
					"stateMutability": "nonpayable",
					"type": "function"
				},
				{
					"inputs": [],
					"name": "tokenA",
					"outputs": [
						{
							"internalType": "contract IERC20",
							"name": "",
							"type": "address"
						}
					],
					"stateMutability": "view",
					"type": "function"
				}
			],
			"devdoc": {
				"kind": "dev",
				"methods": {},
				"version": 1
			},
			"evm": {
				"assembly": "    /* \"contracts/SimpleToken2.sol\":1154:1524  contract TokenSwap {... */\n  mstore(0x40, 0x80)\n    /* \"contracts/SimpleToken2.sol\":1209:1281  constructor(address _tokenA) {... */\n  callvalue\n  dup1\n  iszero\n  tag_1\n  jumpi\n  revert(0x00, 0x00)\ntag_1:\n  pop\n  mload(0x40)\n  sub(codesize, bytecodeSize)\n  dup1\n  bytecodeSize\n  dup4\n  codecopy\n  dup2\n  dup2\n  add\n  0x40\n  mstore\n  dup2\n  add\n  swap1\n  tag_2\n  swap2\n  swap1\n  tag_3\n  jump\t// in\ntag_2:\n    /* \"contracts/SimpleToken2.sol\":1265:1272  _tokenA */\n  dup1\n    /* \"contracts/SimpleToken2.sol\":1249:1255  tokenA */\n  0x00\n  0x00\n    /* \"contracts/SimpleToken2.sol\":1249:1273  tokenA = IERC20(_tokenA) */\n  0x0100\n  exp\n  dup2\n  sload\n  dup2\n  0xffffffffffffffffffffffffffffffffffffffff\n  mul\n  not\n  and\n  swap1\n  dup4\n  0xffffffffffffffffffffffffffffffffffffffff\n  and\n  mul\n  or\n  swap1\n  sstore\n  pop\n    /* \"contracts/SimpleToken2.sol\":1209:1281  constructor(address _tokenA) {... */\n  pop\n    /* \"contracts/SimpleToken2.sol\":1154:1524  contract TokenSwap {... */\n  jump(tag_6)\n    /* \"#utility.yul\":88:205   */\ntag_8:\n    /* \"#utility.yul\":197:198   */\n  0x00\n    /* \"#utility.yul\":194:195   */\n  0x00\n    /* \"#utility.yul\":187:199   */\n  revert\n    /* \"#utility.yul\":334:460   */\ntag_10:\n    /* \"#utility.yul\":371:378   */\n  0x00\n    /* \"#utility.yul\":411:453   */\n  0xffffffffffffffffffffffffffffffffffffffff\n    /* \"#utility.yul\":404:409   */\n  dup3\n    /* \"#utility.yul\":400:454   */\n  and\n    /* \"#utility.yul\":389:454   */\n  swap1\n  pop\n    /* \"#utility.yul\":334:460   */\n  swap2\n  swap1\n  pop\n  jump\t// out\n    /* \"#utility.yul\":466:562   */\ntag_11:\n    /* \"#utility.yul\":503:510   */\n  0x00\n    /* \"#utility.yul\":532:556   */\n  tag_20\n    /* \"#utility.yul\":550:555   */\n  dup3\n    /* \"#utility.yul\":532:556   */\n  tag_10\n  jump\t// in\ntag_20:\n    /* \"#utility.yul\":521:556   */\n  swap1\n  pop\n    /* \"#utility.yul\":466:562   */\n  swap2\n  swap1\n  pop\n  jump\t// out\n    /* \"#utility.yul\":568:690   */\ntag_12:\n    /* \"#utility.yul\":641:665   */\n  tag_22\n    /* \"#utility.yul\":659:664   */\n  dup2\n    /* \"#utility.yul\":641:665   */\n  tag_11\n  jump\t// in\ntag_22:\n    /* \"#utility.yul\":634:639   */\n  dup2\n    /* \"#utility.yul\":631:666   */\n  eq\n    /* \"#utility.yul\":621:684   */\n  tag_23\n  jumpi\n    /* \"#utility.yul\":680:681   */\n  0x00\n    /* \"#utility.yul\":677:678   */\n  0x00\n    /* \"#utility.yul\":670:682   */\n  revert\n    /* \"#utility.yul\":621:684   */\ntag_23:\n    /* \"#utility.yul\":568:690   */\n  pop\n  jump\t// out\n    /* \"#utility.yul\":696:839   */\ntag_13:\n    /* \"#utility.yul\":753:758   */\n  0x00\n    /* \"#utility.yul\":784:790   */\n  dup2\n    /* \"#utility.yul\":778:791   */\n  mload\n    /* \"#utility.yul\":769:791   */\n  swap1\n  pop\n    /* \"#utility.yul\":800:833   */\n  tag_25\n    /* \"#utility.yul\":827:832   */\n  dup2\n    /* \"#utility.yul\":800:833   */\n  tag_12\n  jump\t// in\ntag_25:\n    /* \"#utility.yul\":696:839   */\n  swap3\n  swap2\n  pop\n  pop\n  jump\t// out\n    /* \"#utility.yul\":845:1196   */\ntag_3:\n    /* \"#utility.yul\":915:921   */\n  0x00\n    /* \"#utility.yul\":964:966   */\n  0x20\n    /* \"#utility.yul\":952:961   */\n  dup3\n    /* \"#utility.yul\":943:950   */\n  dup5\n    /* \"#utility.yul\":939:962   */\n  sub\n    /* \"#utility.yul\":935:967   */\n  slt\n    /* \"#utility.yul\":932:1051   */\n  iszero\n  tag_27\n  jumpi\n    /* \"#utility.yul\":970:1049   */\n  tag_28\n  tag_8\n  jump\t// in\ntag_28:\n    /* \"#utility.yul\":932:1051   */\ntag_27:\n    /* \"#utility.yul\":1090:1091   */\n  0x00\n    /* \"#utility.yul\":1115:1179   */\n  tag_29\n    /* \"#utility.yul\":1171:1178   */\n  dup5\n    /* \"#utility.yul\":1162:1168   */\n  dup3\n    /* \"#utility.yul\":1151:1160   */\n  dup6\n    /* \"#utility.yul\":1147:1169   */\n  add\n    /* \"#utility.yul\":1115:1179   */\n  tag_13\n  jump\t// in\ntag_29:\n    /* \"#utility.yul\":1105:1179   */\n  swap2\n  pop\n    /* \"#utility.yul\":1061:1189   */\n  pop\n    /* \"#utility.yul\":845:1196   */\n  swap3\n  swap2\n  pop\n  pop\n  jump\t// out\n    /* \"contracts/SimpleToken2.sol\":1154:1524  contract TokenSwap {... */\ntag_6:\n  dataSize(sub_0)\n  dup1\n  dataOffset(sub_0)\n  0x00\n  codecopy\n  0x00\n  return\nstop\n\nsub_0: assembly {\n        /* \"contracts/SimpleToken2.sol\":1154:1524  contract TokenSwap {... */\n      mstore(0x40, 0x80)\n      callvalue\n      dup1\n      iszero\n      tag_1\n      jumpi\n      revert(0x00, 0x00)\n    tag_1:\n      pop\n      jumpi(tag_2, lt(calldatasize, 0x04))\n      shr(0xe0, calldataload(0x00))\n      dup1\n      0x0fc63d10\n      eq\n      tag_3\n      jumpi\n      dup1\n      0x94b918de\n      eq\n      tag_4\n      jumpi\n    tag_2:\n      revert(0x00, 0x00)\n        /* \"contracts/SimpleToken2.sol\":1180:1200  IERC20 public tokenA */\n    tag_3:\n      tag_5\n      tag_6\n      jump\t// in\n    tag_5:\n      mload(0x40)\n      tag_7\n      swap2\n      swap1\n      tag_8\n      jump\t// in\n    tag_7:\n      mload(0x40)\n      dup1\n      swap2\n      sub\n      swap1\n      return\n        /* \"contracts/SimpleToken2.sol\":1289:1521  function swap(uint256 amountA) external {... */\n    tag_4:\n      tag_9\n      0x04\n      dup1\n      calldatasize\n      sub\n      dup2\n      add\n      swap1\n      tag_10\n      swap2\n      swap1\n      tag_11\n      jump\t// in\n    tag_10:\n      tag_12\n      jump\t// in\n    tag_9:\n      stop\n        /* \"contracts/SimpleToken2.sol\":1180:1200  IERC20 public tokenA */\n    tag_6:\n      0x00\n      0x00\n      swap1\n      sload\n      swap1\n      0x0100\n      exp\n      swap1\n      div\n      0xffffffffffffffffffffffffffffffffffffffff\n      and\n      dup2\n      jump\t// out\n        /* \"contracts/SimpleToken2.sol\":1289:1521  function swap(uint256 amountA) external {... */\n    tag_12:\n        /* \"contracts/SimpleToken2.sol\":1340:1346  tokenA */\n      0x00\n      0x00\n      swap1\n      sload\n      swap1\n      0x0100\n      exp\n      swap1\n      div\n      0xffffffffffffffffffffffffffffffffffffffff\n      and\n        /* \"contracts/SimpleToken2.sol\":1340:1359  tokenA.transferFrom */\n      0xffffffffffffffffffffffffffffffffffffffff\n      and\n      0x23b872dd\n        /* \"contracts/SimpleToken2.sol\":1360:1370  msg.sender */\n      caller\n        /* \"contracts/SimpleToken2.sol\":1380:1384  this */\n      address\n        /* \"contracts/SimpleToken2.sol\":1387:1394  amountA */\n      dup5\n        /* \"contracts/SimpleToken2.sol\":1340:1395  tokenA.transferFrom(msg.sender, address(this), amountA) */\n      mload(0x40)\n      dup5\n      0xffffffff\n      and\n      0xe0\n      shl\n      dup2\n      mstore\n      0x04\n      add\n      tag_14\n      swap4\n      swap3\n      swap2\n      swap1\n      tag_15\n      jump\t// in\n    tag_14:\n      0x20\n      mload(0x40)\n      dup1\n      dup4\n      sub\n      dup2\n      0x00\n      dup8\n      gas\n      call\n      iszero\n      dup1\n      iszero\n      tag_17\n      jumpi\n      returndatacopy(0x00, 0x00, returndatasize)\n      revert(0x00, returndatasize)\n    tag_17:\n      pop\n      pop\n      pop\n      pop\n      mload(0x40)\n      returndatasize\n      not(0x1f)\n      0x1f\n      dup3\n      add\n      and\n      dup3\n      add\n      dup1\n      0x40\n      mstore\n      pop\n      dup2\n      add\n      swap1\n      tag_18\n      swap2\n      swap1\n      tag_19\n      jump\t// in\n    tag_18:\n      pop\n        /* \"contracts/SimpleToken2.sol\":1289:1521  function swap(uint256 amountA) external {... */\n      pop\n      jump\t// out\n        /* \"#utility.yul\":7:133   */\n    tag_20:\n        /* \"#utility.yul\":44:51   */\n      0x00\n        /* \"#utility.yul\":84:126   */\n      0xffffffffffffffffffffffffffffffffffffffff\n        /* \"#utility.yul\":77:82   */\n      dup3\n        /* \"#utility.yul\":73:127   */\n      and\n        /* \"#utility.yul\":62:127   */\n      swap1\n      pop\n        /* \"#utility.yul\":7:133   */\n      swap2\n      swap1\n      pop\n      jump\t// out\n        /* \"#utility.yul\":139:199   */\n    tag_21:\n        /* \"#utility.yul\":167:170   */\n      0x00\n        /* \"#utility.yul\":188:193   */\n      dup2\n        /* \"#utility.yul\":181:193   */\n      swap1\n      pop\n        /* \"#utility.yul\":139:199   */\n      swap2\n      swap1\n      pop\n      jump\t// out\n        /* \"#utility.yul\":205:347   */\n    tag_22:\n        /* \"#utility.yul\":255:264   */\n      0x00\n        /* \"#utility.yul\":288:341   */\n      tag_42\n        /* \"#utility.yul\":306:340   */\n      tag_43\n        /* \"#utility.yul\":315:339   */\n      tag_44\n        /* \"#utility.yul\":333:338   */\n      dup5\n        /* \"#utility.yul\":315:339   */\n      tag_20\n      jump\t// in\n    tag_44:\n        /* \"#utility.yul\":306:340   */\n      tag_21\n      jump\t// in\n    tag_43:\n        /* \"#utility.yul\":288:341   */\n      tag_20\n      jump\t// in\n    tag_42:\n        /* \"#utility.yul\":275:341   */\n      swap1\n      pop\n        /* \"#utility.yul\":205:347   */\n      swap2\n      swap1\n      pop\n      jump\t// out\n        /* \"#utility.yul\":353:479   */\n    tag_23:\n        /* \"#utility.yul\":403:412   */\n      0x00\n        /* \"#utility.yul\":436:473   */\n      tag_46\n        /* \"#utility.yul\":467:472   */\n      dup3\n        /* \"#utility.yul\":436:473   */\n      tag_22\n      jump\t// in\n    tag_46:\n        /* \"#utility.yul\":423:473   */\n      swap1\n      pop\n        /* \"#utility.yul\":353:479   */\n      swap2\n      swap1\n      pop\n      jump\t// out\n        /* \"#utility.yul\":485:624   */\n    tag_24:\n        /* \"#utility.yul\":548:557   */\n      0x00\n        /* \"#utility.yul\":581:618   */\n      tag_48\n        /* \"#utility.yul\":612:617   */\n      dup3\n        /* \"#utility.yul\":581:618   */\n      tag_23\n      jump\t// in\n    tag_48:\n        /* \"#utility.yul\":568:618   */\n      swap1\n      pop\n        /* \"#utility.yul\":485:624   */\n      swap2\n      swap1\n      pop\n      jump\t// out\n        /* \"#utility.yul\":630:787   */\n    tag_25:\n        /* \"#utility.yul\":730:780   */\n      tag_50\n        /* \"#utility.yul\":774:779   */\n      dup2\n        /* \"#utility.yul\":730:780   */\n      tag_24\n      jump\t// in\n    tag_50:\n        /* \"#utility.yul\":725:728   */\n      dup3\n        /* \"#utility.yul\":718:781   */\n      mstore\n        /* \"#utility.yul\":630:787   */\n      pop\n      pop\n      jump\t// out\n        /* \"#utility.yul\":793:1041   */\n    tag_8:\n        /* \"#utility.yul\":899:903   */\n      0x00\n        /* \"#utility.yul\":937:939   */\n      0x20\n        /* \"#utility.yul\":926:935   */\n      dup3\n        /* \"#utility.yul\":922:940   */\n      add\n        /* \"#utility.yul\":914:940   */\n      swap1\n      pop\n        /* \"#utility.yul\":950:1034   */\n      tag_52\n        /* \"#utility.yul\":1031:1032   */\n      0x00\n        /* \"#utility.yul\":1020:1029   */\n      dup4\n        /* \"#utility.yul\":1016:1033   */\n      add\n        /* \"#utility.yul\":1007:1013   */\n      dup5\n        /* \"#utility.yul\":950:1034   */\n      tag_25\n      jump\t// in\n    tag_52:\n        /* \"#utility.yul\":793:1041   */\n      swap3\n      swap2\n      pop\n      pop\n      jump\t// out\n        /* \"#utility.yul\":1128:1245   */\n    tag_27:\n        /* \"#utility.yul\":1237:1238   */\n      0x00\n        /* \"#utility.yul\":1234:1235   */\n      0x00\n        /* \"#utility.yul\":1227:1239   */\n      revert\n        /* \"#utility.yul\":1374:1451   */\n    tag_29:\n        /* \"#utility.yul\":1411:1418   */\n      0x00\n        /* \"#utility.yul\":1440:1445   */\n      dup2\n        /* \"#utility.yul\":1429:1445   */\n      swap1\n      pop\n        /* \"#utility.yul\":1374:1451   */\n      swap2\n      swap1\n      pop\n      jump\t// out\n        /* \"#utility.yul\":1457:1579   */\n    tag_30:\n        /* \"#utility.yul\":1530:1554   */\n      tag_58\n        /* \"#utility.yul\":1548:1553   */\n      dup2\n        /* \"#utility.yul\":1530:1554   */\n      tag_29\n      jump\t// in\n    tag_58:\n        /* \"#utility.yul\":1523:1528   */\n      dup2\n        /* \"#utility.yul\":1520:1555   */\n      eq\n        /* \"#utility.yul\":1510:1573   */\n      tag_59\n      jumpi\n        /* \"#utility.yul\":1569:1570   */\n      0x00\n        /* \"#utility.yul\":1566:1567   */\n      0x00\n        /* \"#utility.yul\":1559:1571   */\n      revert\n        /* \"#utility.yul\":1510:1573   */\n    tag_59:\n        /* \"#utility.yul\":1457:1579   */\n      pop\n      jump\t// out\n        /* \"#utility.yul\":1585:1724   */\n    tag_31:\n        /* \"#utility.yul\":1631:1636   */\n      0x00\n        /* \"#utility.yul\":1669:1675   */\n      dup2\n        /* \"#utility.yul\":1656:1676   */\n      calldataload\n        /* \"#utility.yul\":1647:1676   */\n      swap1\n      pop\n        /* \"#utility.yul\":1685:1718   */\n      tag_61\n        /* \"#utility.yul\":1712:1717   */\n      dup2\n        /* \"#utility.yul\":1685:1718   */\n      tag_30\n      jump\t// in\n    tag_61:\n        /* \"#utility.yul\":1585:1724   */\n      swap3\n      swap2\n      pop\n      pop\n      jump\t// out\n        /* \"#utility.yul\":1730:2059   */\n    tag_11:\n        /* \"#utility.yul\":1789:1795   */\n      0x00\n        /* \"#utility.yul\":1838:1840   */\n      0x20\n        /* \"#utility.yul\":1826:1835   */\n      dup3\n        /* \"#utility.yul\":1817:1824   */\n      dup5\n        /* \"#utility.yul\":1813:1836   */\n      sub\n        /* \"#utility.yul\":1809:1841   */\n      slt\n        /* \"#utility.yul\":1806:1925   */\n      iszero\n      tag_63\n      jumpi\n        /* \"#utility.yul\":1844:1923   */\n      tag_64\n      tag_27\n      jump\t// in\n    tag_64:\n        /* \"#utility.yul\":1806:1925   */\n    tag_63:\n        /* \"#utility.yul\":1964:1965   */\n      0x00\n        /* \"#utility.yul\":1989:2042   */\n      tag_65\n        /* \"#utility.yul\":2034:2041   */\n      dup5\n        /* \"#utility.yul\":2025:2031   */\n      dup3\n        /* \"#utility.yul\":2014:2023   */\n      dup6\n        /* \"#utility.yul\":2010:2032   */\n      add\n        /* \"#utility.yul\":1989:2042   */\n      tag_31\n      jump\t// in\n    tag_65:\n        /* \"#utility.yul\":1979:2042   */\n      swap2\n      pop\n        /* \"#utility.yul\":1935:2052   */\n      pop\n        /* \"#utility.yul\":1730:2059   */\n      swap3\n      swap2\n      pop\n      pop\n      jump\t// out\n        /* \"#utility.yul\":2065:2161   */\n    tag_32:\n        /* \"#utility.yul\":2102:2109   */\n      0x00\n        /* \"#utility.yul\":2131:2155   */\n      tag_67\n        /* \"#utility.yul\":2149:2154   */\n      dup3\n        /* \"#utility.yul\":2131:2155   */\n      tag_20\n      jump\t// in\n    tag_67:\n        /* \"#utility.yul\":2120:2155   */\n      swap1\n      pop\n        /* \"#utility.yul\":2065:2161   */\n      swap2\n      swap1\n      pop\n      jump\t// out\n        /* \"#utility.yul\":2167:2285   */\n    tag_33:\n        /* \"#utility.yul\":2254:2278   */\n      tag_69\n        /* \"#utility.yul\":2272:2277   */\n      dup2\n        /* \"#utility.yul\":2254:2278   */\n      tag_32\n      jump\t// in\n    tag_69:\n        /* \"#utility.yul\":2249:2252   */\n      dup3\n        /* \"#utility.yul\":2242:2279   */\n      mstore\n        /* \"#utility.yul\":2167:2285   */\n      pop\n      pop\n      jump\t// out\n        /* \"#utility.yul\":2291:2409   */\n    tag_34:\n        /* \"#utility.yul\":2378:2402   */\n      tag_71\n        /* \"#utility.yul\":2396:2401   */\n      dup2\n        /* \"#utility.yul\":2378:2402   */\n      tag_29\n      jump\t// in\n    tag_71:\n        /* \"#utility.yul\":2373:2376   */\n      dup3\n        /* \"#utility.yul\":2366:2403   */\n      mstore\n        /* \"#utility.yul\":2291:2409   */\n      pop\n      pop\n      jump\t// out\n        /* \"#utility.yul\":2415:2857   */\n    tag_15:\n        /* \"#utility.yul\":2564:2568   */\n      0x00\n        /* \"#utility.yul\":2602:2604   */\n      0x60\n        /* \"#utility.yul\":2591:2600   */\n      dup3\n        /* \"#utility.yul\":2587:2605   */\n      add\n        /* \"#utility.yul\":2579:2605   */\n      swap1\n      pop\n        /* \"#utility.yul\":2615:2686   */\n      tag_73\n        /* \"#utility.yul\":2683:2684   */\n      0x00\n        /* \"#utility.yul\":2672:2681   */\n      dup4\n        /* \"#utility.yul\":2668:2685   */\n      add\n        /* \"#utility.yul\":2659:2665   */\n      dup7\n        /* \"#utility.yul\":2615:2686   */\n      tag_33\n      jump\t// in\n    tag_73:\n        /* \"#utility.yul\":2696:2768   */\n      tag_74\n        /* \"#utility.yul\":2764:2766   */\n      0x20\n        /* \"#utility.yul\":2753:2762   */\n      dup4\n        /* \"#utility.yul\":2749:2767   */\n      add\n        /* \"#utility.yul\":2740:2746   */\n      dup6\n        /* \"#utility.yul\":2696:2768   */\n      tag_33\n      jump\t// in\n    tag_74:\n        /* \"#utility.yul\":2778:2850   */\n      tag_75\n        /* \"#utility.yul\":2846:2848   */\n      0x40\n        /* \"#utility.yul\":2835:2844   */\n      dup4\n        /* \"#utility.yul\":2831:2849   */\n      add\n        /* \"#utility.yul\":2822:2828   */\n      dup5\n        /* \"#utility.yul\":2778:2850   */\n      tag_34\n      jump\t// in\n    tag_75:\n        /* \"#utility.yul\":2415:2857   */\n      swap5\n      swap4\n      pop\n      pop\n      pop\n      pop\n      jump\t// out\n        /* \"#utility.yul\":2863:2953   */\n    tag_35:\n        /* \"#utility.yul\":2897:2904   */\n      0x00\n        /* \"#utility.yul\":2940:2945   */\n      dup2\n        /* \"#utility.yul\":2933:2946   */\n      iszero\n        /* \"#utility.yul\":2926:2947   */\n      iszero\n        /* \"#utility.yul\":2915:2947   */\n      swap1\n      pop\n        /* \"#utility.yul\":2863:2953   */\n      swap2\n      swap1\n      pop\n      jump\t// out\n        /* \"#utility.yul\":2959:3075   */\n    tag_36:\n        /* \"#utility.yul\":3029:3050   */\n      tag_78\n        /* \"#utility.yul\":3044:3049   */\n      dup2\n        /* \"#utility.yul\":3029:3050   */\n      tag_35\n      jump\t// in\n    tag_78:\n        /* \"#utility.yul\":3022:3027   */\n      dup2\n        /* \"#utility.yul\":3019:3051   */\n      eq\n        /* \"#utility.yul\":3009:3069   */\n      tag_79\n      jumpi\n        /* \"#utility.yul\":3065:3066   */\n      0x00\n        /* \"#utility.yul\":3062:3063   */\n      0x00\n        /* \"#utility.yul\":3055:3067   */\n      revert\n        /* \"#utility.yul\":3009:3069   */\n    tag_79:\n        /* \"#utility.yul\":2959:3075   */\n      pop\n      jump\t// out\n        /* \"#utility.yul\":3081:3218   */\n    tag_37:\n        /* \"#utility.yul\":3135:3140   */\n      0x00\n        /* \"#utility.yul\":3166:3172   */\n      dup2\n        /* \"#utility.yul\":3160:3173   */\n      mload\n        /* \"#utility.yul\":3151:3173   */\n      swap1\n      pop\n        /* \"#utility.yul\":3182:3212   */\n      tag_81\n        /* \"#utility.yul\":3206:3211   */\n      dup2\n        /* \"#utility.yul\":3182:3212   */\n      tag_36\n      jump\t// in\n    tag_81:\n        /* \"#utility.yul\":3081:3218   */\n      swap3\n      swap2\n      pop\n      pop\n      jump\t// out\n        /* \"#utility.yul\":3224:3569   */\n    tag_19:\n        /* \"#utility.yul\":3291:3297   */\n      0x00\n        /* \"#utility.yul\":3340:3342   */\n      0x20\n        /* \"#utility.yul\":3328:3337   */\n      dup3\n        /* \"#utility.yul\":3319:3326   */\n      dup5\n        /* \"#utility.yul\":3315:3338   */\n      sub\n        /* \"#utility.yul\":3311:3343   */\n      slt\n        /* \"#utility.yul\":3308:3427   */\n      iszero\n      tag_83\n      jumpi\n        /* \"#utility.yul\":3346:3425   */\n      tag_84\n      tag_27\n      jump\t// in\n    tag_84:\n        /* \"#utility.yul\":3308:3427   */\n    tag_83:\n        /* \"#utility.yul\":3466:3467   */\n      0x00\n        /* \"#utility.yul\":3491:3552   */\n      tag_85\n        /* \"#utility.yul\":3544:3551   */\n      dup5\n        /* \"#utility.yul\":3535:3541   */\n      dup3\n        /* \"#utility.yul\":3524:3533   */\n      dup6\n        /* \"#utility.yul\":3520:3542   */\n      add\n        /* \"#utility.yul\":3491:3552   */\n      tag_37\n      jump\t// in\n    tag_85:\n        /* \"#utility.yul\":3481:3552   */\n      swap2\n      pop\n        /* \"#utility.yul\":3437:3562   */\n      pop\n        /* \"#utility.yul\":3224:3569   */\n      swap3\n      swap2\n      pop\n      pop\n      jump\t// out\n\n    auxdata: 0xa2646970667358221220b97fcfcec52b1b2e7ef8273198cce781ccd473732616d89bf863f55df203013464736f6c634300081e0033\n}\n",
				"bytecode": {
					"linkReferences": {},
					"object": "608060405234801561000f575f5ffd5b50604051610432380380610432833981810160405281019061003191906100d4565b805f5f6101000a81548173ffffffffffffffffffffffffffffffffffffffff021916908373ffffffffffffffffffffffffffffffffffffffff160217905550506100ff565b5f5ffd5b5f73ffffffffffffffffffffffffffffffffffffffff82169050919050565b5f6100a38261007a565b9050919050565b6100b381610099565b81146100bd575f5ffd5b50565b5f815190506100ce816100aa565b92915050565b5f602082840312156100e9576100e8610076565b5b5f6100f6848285016100c0565b91505092915050565b6103268061010c5f395ff3fe608060405234801561000f575f5ffd5b5060043610610034575f3560e01c80630fc63d101461003857806394b918de14610056575b5f5ffd5b610040610072565b60405161004d91906101b1565b60405180910390f35b610070600480360381019061006b9190610201565b610096565b005b5f5f9054906101000a900473ffffffffffffffffffffffffffffffffffffffff1681565b5f5f9054906101000a900473ffffffffffffffffffffffffffffffffffffffff1673ffffffffffffffffffffffffffffffffffffffff166323b872dd3330846040518463ffffffff1660e01b81526004016100f39392919061025b565b6020604051808303815f875af115801561010f573d5f5f3e3d5ffd5b505050506040513d601f19601f8201168201806040525081019061013391906102c5565b5050565b5f73ffffffffffffffffffffffffffffffffffffffff82169050919050565b5f819050919050565b5f61017961017461016f84610137565b610156565b610137565b9050919050565b5f61018a8261015f565b9050919050565b5f61019b82610180565b9050919050565b6101ab81610191565b82525050565b5f6020820190506101c45f8301846101a2565b92915050565b5f5ffd5b5f819050919050565b6101e0816101ce565b81146101ea575f5ffd5b50565b5f813590506101fb816101d7565b92915050565b5f60208284031215610216576102156101ca565b5b5f610223848285016101ed565b91505092915050565b5f61023682610137565b9050919050565b6102468161022c565b82525050565b610255816101ce565b82525050565b5f60608201905061026e5f83018661023d565b61027b602083018561023d565b610288604083018461024c565b949350505050565b5f8115159050919050565b6102a481610290565b81146102ae575f5ffd5b50565b5f815190506102bf8161029b565b92915050565b5f602082840312156102da576102d96101ca565b5b5f6102e7848285016102b1565b9150509291505056fea2646970667358221220b97fcfcec52b1b2e7ef8273198cce781ccd473732616d89bf863f55df203013464736f6c634300081e0033",
					"opcodes": "PUSH1 0x80 PUSH1 0x40 MSTORE CALLVALUE DUP1 ISZERO PUSH2 0xF JUMPI PUSH0 PUSH0 REVERT JUMPDEST POP PUSH1 0x40 MLOAD PUSH2 0x432 CODESIZE SUB DUP1 PUSH2 0x432 DUP4 CODECOPY DUP2 DUP2 ADD PUSH1 0x40 MSTORE DUP2 ADD SWAP1 PUSH2 0x31 SWAP2 SWAP1 PUSH2 0xD4 JUMP JUMPDEST DUP1 PUSH0 PUSH0 PUSH2 0x100 EXP DUP2 SLOAD DUP2 PUSH20 0xFFFFFFFFFFFFFFFFFFFFFFFFFFFFFFFFFFFFFFFF MUL NOT AND SWAP1 DUP4 PUSH20 0xFFFFFFFFFFFFFFFFFFFFFFFFFFFFFFFFFFFFFFFF AND MUL OR SWAP1 SSTORE POP POP PUSH2 0xFF JUMP JUMPDEST PUSH0 PUSH0 REVERT JUMPDEST PUSH0 PUSH20 0xFFFFFFFFFFFFFFFFFFFFFFFFFFFFFFFFFFFFFFFF DUP3 AND SWAP1 POP SWAP2 SWAP1 POP JUMP JUMPDEST PUSH0 PUSH2 0xA3 DUP3 PUSH2 0x7A JUMP JUMPDEST SWAP1 POP SWAP2 SWAP1 POP JUMP JUMPDEST PUSH2 0xB3 DUP2 PUSH2 0x99 JUMP JUMPDEST DUP2 EQ PUSH2 0xBD JUMPI PUSH0 PUSH0 REVERT JUMPDEST POP JUMP JUMPDEST PUSH0 DUP2 MLOAD SWAP1 POP PUSH2 0xCE DUP2 PUSH2 0xAA JUMP JUMPDEST SWAP3 SWAP2 POP POP JUMP JUMPDEST PUSH0 PUSH1 0x20 DUP3 DUP5 SUB SLT ISZERO PUSH2 0xE9 JUMPI PUSH2 0xE8 PUSH2 0x76 JUMP JUMPDEST JUMPDEST PUSH0 PUSH2 0xF6 DUP5 DUP3 DUP6 ADD PUSH2 0xC0 JUMP JUMPDEST SWAP2 POP POP SWAP3 SWAP2 POP POP JUMP JUMPDEST PUSH2 0x326 DUP1 PUSH2 0x10C PUSH0 CODECOPY PUSH0 RETURN INVALID PUSH1 0x80 PUSH1 0x40 MSTORE CALLVALUE DUP1 ISZERO PUSH2 0xF JUMPI PUSH0 PUSH0 REVERT JUMPDEST POP PUSH1 0x4 CALLDATASIZE LT PUSH2 0x34 JUMPI PUSH0 CALLDATALOAD PUSH1 0xE0 SHR DUP1 PUSH4 0xFC63D10 EQ PUSH2 0x38 JUMPI DUP1 PUSH4 0x94B918DE EQ PUSH2 0x56 JUMPI JUMPDEST PUSH0 PUSH0 REVERT JUMPDEST PUSH2 0x40 PUSH2 0x72 JUMP JUMPDEST PUSH1 0x40 MLOAD PUSH2 0x4D SWAP2 SWAP1 PUSH2 0x1B1 JUMP JUMPDEST PUSH1 0x40 MLOAD DUP1 SWAP2 SUB SWAP1 RETURN JUMPDEST PUSH2 0x70 PUSH1 0x4 DUP1 CALLDATASIZE SUB DUP2 ADD SWAP1 PUSH2 0x6B SWAP2 SWAP1 PUSH2 0x201 JUMP JUMPDEST PUSH2 0x96 JUMP JUMPDEST STOP JUMPDEST PUSH0 PUSH0 SWAP1 SLOAD SWAP1 PUSH2 0x100 EXP SWAP1 DIV PUSH20 0xFFFFFFFFFFFFFFFFFFFFFFFFFFFFFFFFFFFFFFFF AND DUP2 JUMP JUMPDEST PUSH0 PUSH0 SWAP1 SLOAD SWAP1 PUSH2 0x100 EXP SWAP1 DIV PUSH20 0xFFFFFFFFFFFFFFFFFFFFFFFFFFFFFFFFFFFFFFFF AND PUSH20 0xFFFFFFFFFFFFFFFFFFFFFFFFFFFFFFFFFFFFFFFF AND PUSH4 0x23B872DD CALLER ADDRESS DUP5 PUSH1 0x40 MLOAD DUP5 PUSH4 0xFFFFFFFF AND PUSH1 0xE0 SHL DUP2 MSTORE PUSH1 0x4 ADD PUSH2 0xF3 SWAP4 SWAP3 SWAP2 SWAP1 PUSH2 0x25B JUMP JUMPDEST PUSH1 0x20 PUSH1 0x40 MLOAD DUP1 DUP4 SUB DUP2 PUSH0 DUP8 GAS CALL ISZERO DUP1 ISZERO PUSH2 0x10F JUMPI RETURNDATASIZE PUSH0 PUSH0 RETURNDATACOPY RETURNDATASIZE PUSH0 REVERT JUMPDEST POP POP POP POP PUSH1 0x40 MLOAD RETURNDATASIZE PUSH1 0x1F NOT PUSH1 0x1F DUP3 ADD AND DUP3 ADD DUP1 PUSH1 0x40 MSTORE POP DUP2 ADD SWAP1 PUSH2 0x133 SWAP2 SWAP1 PUSH2 0x2C5 JUMP JUMPDEST POP POP JUMP JUMPDEST PUSH0 PUSH20 0xFFFFFFFFFFFFFFFFFFFFFFFFFFFFFFFFFFFFFFFF DUP3 AND SWAP1 POP SWAP2 SWAP1 POP JUMP JUMPDEST PUSH0 DUP2 SWAP1 POP SWAP2 SWAP1 POP JUMP JUMPDEST PUSH0 PUSH2 0x179 PUSH2 0x174 PUSH2 0x16F DUP5 PUSH2 0x137 JUMP JUMPDEST PUSH2 0x156 JUMP JUMPDEST PUSH2 0x137 JUMP JUMPDEST SWAP1 POP SWAP2 SWAP1 POP JUMP JUMPDEST PUSH0 PUSH2 0x18A DUP3 PUSH2 0x15F JUMP JUMPDEST SWAP1 POP SWAP2 SWAP1 POP JUMP JUMPDEST PUSH0 PUSH2 0x19B DUP3 PUSH2 0x180 JUMP JUMPDEST SWAP1 POP SWAP2 SWAP1 POP JUMP JUMPDEST PUSH2 0x1AB DUP2 PUSH2 0x191 JUMP JUMPDEST DUP3 MSTORE POP POP JUMP JUMPDEST PUSH0 PUSH1 0x20 DUP3 ADD SWAP1 POP PUSH2 0x1C4 PUSH0 DUP4 ADD DUP5 PUSH2 0x1A2 JUMP JUMPDEST SWAP3 SWAP2 POP POP JUMP JUMPDEST PUSH0 PUSH0 REVERT JUMPDEST PUSH0 DUP2 SWAP1 POP SWAP2 SWAP1 POP JUMP JUMPDEST PUSH2 0x1E0 DUP2 PUSH2 0x1CE JUMP JUMPDEST DUP2 EQ PUSH2 0x1EA JUMPI PUSH0 PUSH0 REVERT JUMPDEST POP JUMP JUMPDEST PUSH0 DUP2 CALLDATALOAD SWAP1 POP PUSH2 0x1FB DUP2 PUSH2 0x1D7 JUMP JUMPDEST SWAP3 SWAP2 POP POP JUMP JUMPDEST PUSH0 PUSH1 0x20 DUP3 DUP5 SUB SLT ISZERO PUSH2 0x216 JUMPI PUSH2 0x215 PUSH2 0x1CA JUMP JUMPDEST JUMPDEST PUSH0 PUSH2 0x223 DUP5 DUP3 DUP6 ADD PUSH2 0x1ED JUMP JUMPDEST SWAP2 POP POP SWAP3 SWAP2 POP POP JUMP JUMPDEST PUSH0 PUSH2 0x236 DUP3 PUSH2 0x137 JUMP JUMPDEST SWAP1 POP SWAP2 SWAP1 POP JUMP JUMPDEST PUSH2 0x246 DUP2 PUSH2 0x22C JUMP JUMPDEST DUP3 MSTORE POP POP JUMP JUMPDEST PUSH2 0x255 DUP2 PUSH2 0x1CE JUMP JUMPDEST DUP3 MSTORE POP POP JUMP JUMPDEST PUSH0 PUSH1 0x60 DUP3 ADD SWAP1 POP PUSH2 0x26E PUSH0 DUP4 ADD DUP7 PUSH2 0x23D JUMP JUMPDEST PUSH2 0x27B PUSH1 0x20 DUP4 ADD DUP6 PUSH2 0x23D JUMP JUMPDEST PUSH2 0x288 PUSH1 0x40 DUP4 ADD DUP5 PUSH2 0x24C JUMP JUMPDEST SWAP5 SWAP4 POP POP POP POP JUMP JUMPDEST PUSH0 DUP2 ISZERO ISZERO SWAP1 POP SWAP2 SWAP1 POP JUMP JUMPDEST PUSH2 0x2A4 DUP2 PUSH2 0x290 JUMP JUMPDEST DUP2 EQ PUSH2 0x2AE JUMPI PUSH0 PUSH0 REVERT JUMPDEST POP JUMP JUMPDEST PUSH0 DUP2 MLOAD SWAP1 POP PUSH2 0x2BF DUP2 PUSH2 0x29B JUMP JUMPDEST SWAP3 SWAP2 POP POP JUMP JUMPDEST PUSH0 PUSH1 0x20 DUP3 DUP5 SUB SLT ISZERO PUSH2 0x2DA JUMPI PUSH2 0x2D9 PUSH2 0x1CA JUMP JUMPDEST JUMPDEST PUSH0 PUSH2 0x2E7 DUP5 DUP3 DUP6 ADD PUSH2 0x2B1 JUMP JUMPDEST SWAP2 POP POP SWAP3 SWAP2 POP POP JUMP INVALID LOG2 PUSH5 0x6970667358 0x22 SLT KECCAK256 0xB9 PUSH32 0xCFCEC52B1B2E7EF8273198CCE781CCD473732616D89BF863F55DF20301346473 PUSH16 0x6C634300081E00330000000000000000 "
				},
				"gasEstimates": {
					"creation": {
						"codeDepositCost": "161200",
						"executionCost": "infinite",
						"totalCost": "infinite"
					},
					"external": {
						"swap(uint256)": "infinite",
						"tokenA()": "infinite"
					}
				},
				"methodIdentifiers": {
					"swap(uint256)": "94b918de",
					"tokenA()": "0fc63d10"
				}
			},
			"storageLayout": {
				"storage": [
					{
						"astId": 142,
						"contract": "contracts/SimpleToken2.sol:TokenSwap",
						"label": "tokenA",
						"offset": 0,
						"slot": "0",
						"type": "t_contract(IERC20)22"
					}
				],
				"types": {
					"t_contract(IERC20)22": {
						"encoding": "inplace",
						"label": "contract IERC20",
						"numberOfBytes": "20"
					}
				}
			},
			"userdoc": {
				"kind": "user",
				"methods": {},
				"version": 1
			}
		}
	}
}