{
	"contracts/Strings.sol": {
		"Strings": {
			"abi": [
				{
					"inputs": [
						{
							"internalType": "string",
							"name": "s",
							"type": "string"
						}
					],
					"name": "stringToUint",
					"outputs": [
						{
							"internalType": "uint256",
							"name": "",
							"type": "uint256"
						}
					],
					"stateMutability": "pure",
					"type": "function"
				}
			],
			"devdoc": {
				"kind": "dev",
				"methods": {},
				"version": 1
			},
			"evm": {
				"assembly": "    /* \"contracts/Strings.sol\":72:609  library Strings {... */\n  dataSize(sub_0)\n  dataOffset(sub_0)\n  0x0b\n  dup3\n  dup3\n  dup3\n  codecopy\n  dup1\n  mload\n  0x00\n  byte\n  0x73\n  eq\n  tag_1\n  jumpi\n  mstore(0x00, 0x4e487b7100000000000000000000000000000000000000000000000000000000)\n  mstore(0x04, 0x00)\n  revert(0x00, 0x24)\ntag_1:\n  mstore(0x00, address)\n  0x73\n  dup2\n  mstore8\n  dup3\n  dup2\n  return\nstop\n\nsub_0: assembly {\n        /* \"contracts/Strings.sol\":72:609  library Strings {... */\n      eq(address, deployTimeAddress())\n      mstore(0x40, 0x80)\n      jumpi(tag_1, lt(calldatasize, 0x04))\n      shr(0xe0, calldataload(0x00))\n      dup1\n      0x1bd95155\n      eq\n      tag_2\n      jumpi\n    tag_1:\n      revert(0x00, 0x00)\n        /* \"contracts/Strings.sol\":122:606  function stringToUint(string memory s) public pure returns(uint256) {... */\n    tag_2:\n      tag_3\n      0x04\n      dup1\n      calldatasize\n      sub\n      dup2\n      add\n      swap1\n      tag_4\n      swap2\n      swap1\n      tag_5\n      jump\t// in\n    tag_4:\n      tag_6\n      jump\t// in\n    tag_3:\n      mload(0x40)\n      tag_7\n      swap2\n      swap1\n      tag_8\n      jump\t// in\n    tag_7:\n      mload(0x40)\n      dup1\n      swap2\n      sub\n      swap1\n      return\n    tag_6:\n        /* \"contracts/Strings.sol\":181:188  uint256 */\n      0x00\n        /* \"contracts/Strings.sol\":201:215  bytes memory b */\n      0x00\n        /* \"contracts/Strings.sol\":224:225  s */\n      dup3\n        /* \"contracts/Strings.sol\":201:226  bytes memory b = bytes(s) */\n      swap1\n      pop\n        /* \"contracts/Strings.sol\":237:251  uint256 result */\n      0x00\n        /* \"contracts/Strings.sol\":254:255  0 */\n      0x00\n        /* \"contracts/Strings.sol\":237:255  uint256 result = 0 */\n      swap1\n      pop\n        /* \"contracts/Strings.sol\":271:280  uint256 i */\n      0x00\n        /* \"contracts/Strings.sol\":283:284  0 */\n      0x00\n        /* \"contracts/Strings.sol\":271:284  uint256 i = 0 */\n      swap1\n      pop\n        /* \"contracts/Strings.sol\":266:575  for (uint256 i = 0; i < b.length; i++) {... */\n    tag_10:\n        /* \"contracts/Strings.sol\":290:291  b */\n      dup3\n        /* \"contracts/Strings.sol\":290:298  b.length */\n      mload\n        /* \"contracts/Strings.sol\":286:287  i */\n      dup2\n        /* \"contracts/Strings.sol\":286:298  i < b.length */\n      lt\n        /* \"contracts/Strings.sol\":266:575  for (uint256 i = 0; i < b.length; i++) {... */\n      iszero\n      tag_11\n      jumpi\n        /* \"contracts/Strings.sol\":320:333  uint256 digit */\n      0x00\n        /* \"contracts/Strings.sol\":350:351  b */\n      dup4\n        /* \"contracts/Strings.sol\":352:353  i */\n      dup3\n        /* \"contracts/Strings.sol\":350:354  b[i] */\n      dup2\n      mload\n      dup2\n      lt\n      tag_13\n      jumpi\n      tag_14\n      tag_15\n      jump\t// in\n    tag_14:\n    tag_13:\n      0x20\n      add\n      add\n      mload\n      0xf8\n      shr\n      0xf8\n      shl\n        /* \"contracts/Strings.sol\":344:355  uint8(b[i]) */\n      0xf8\n      shr\n        /* \"contracts/Strings.sol\":336:356  uint256(uint8(b[i])) */\n      0xff\n      and\n        /* \"contracts/Strings.sol\":320:356  uint256 digit = uint256(uint8(b[i])) */\n      swap1\n      pop\n        /* \"contracts/Strings.sol\":388:390  48 */\n      0x30\n        /* \"contracts/Strings.sol\":379:384  digit */\n      dup2\n        /* \"contracts/Strings.sol\":379:390  digit >= 48 */\n      lt\n      iszero\n        /* \"contracts/Strings.sol\":379:404  digit >= 48 && digit <=57 */\n      dup1\n      iszero\n      tag_16\n      jumpi\n      pop\n        /* \"contracts/Strings.sol\":402:404  57 */\n      0x39\n        /* \"contracts/Strings.sol\":394:399  digit */\n      dup2\n        /* \"contracts/Strings.sol\":394:404  digit <=57 */\n      gt\n      iszero\n        /* \"contracts/Strings.sol\":379:404  digit >= 48 && digit <=57 */\n    tag_16:\n        /* \"contracts/Strings.sol\":371:426  require(digit >= 48 && digit <=57, \"Invalid character\") */\n      tag_17\n      jumpi\n      mload(0x40)\n      0x08c379a000000000000000000000000000000000000000000000000000000000\n      dup2\n      mstore\n      0x04\n      add\n      tag_18\n      swap1\n      tag_19\n      jump\t// in\n    tag_18:\n      mload(0x40)\n      dup1\n      swap2\n      sub\n      swap1\n      revert\n    tag_17:\n        /* \"contracts/Strings.sol\":474:476  48 */\n      0x30\n        /* \"contracts/Strings.sol\":466:471  digit */\n      dup2\n        /* \"contracts/Strings.sol\":466:476  digit - 48 */\n      tag_20\n      swap2\n      swap1\n      tag_21\n      jump\t// in\n    tag_20:\n        /* \"contracts/Strings.sol\":458:476  digit = digit - 48 */\n      swap1\n      pop\n        /* \"contracts/Strings.sol\":514:519  digit */\n      dup1\n        /* \"contracts/Strings.sol\":509:511  10 */\n      0x0a\n        /* \"contracts/Strings.sol\":500:506  result */\n      dup5\n        /* \"contracts/Strings.sol\":500:511  result * 10 */\n      tag_22\n      swap2\n      swap1\n      tag_23\n      jump\t// in\n    tag_22:\n        /* \"contracts/Strings.sol\":500:519  result * 10 + digit */\n      tag_24\n      swap2\n      swap1\n      tag_25\n      jump\t// in\n    tag_24:\n        /* \"contracts/Strings.sol\":491:519  result = result * 10 + digit */\n      swap3\n      pop\n        /* \"contracts/Strings.sol\":305:575  {... */\n      pop\n        /* \"contracts/Strings.sol\":300:303  i++ */\n      dup1\n      dup1\n      0x01\n      add\n      swap2\n      pop\n      pop\n        /* \"contracts/Strings.sol\":266:575  for (uint256 i = 0; i < b.length; i++) {... */\n      jump(tag_10)\n    tag_11:\n      pop\n        /* \"contracts/Strings.sol\":592:598  result */\n      dup1\n        /* \"contracts/Strings.sol\":585:598  return result */\n      swap3\n      pop\n      pop\n      pop\n        /* \"contracts/Strings.sol\":122:606  function stringToUint(string memory s) public pure returns(uint256) {... */\n      swap2\n      swap1\n      pop\n      jump\t// out\n        /* \"#utility.yul\":7:82   */\n    tag_26:\n        /* \"#utility.yul\":40:46   */\n      0x00\n        /* \"#utility.yul\":73:75   */\n      0x40\n        /* \"#utility.yul\":67:76   */\n      mload\n        /* \"#utility.yul\":57:76   */\n      swap1\n      pop\n        /* \"#utility.yul\":7:82   */\n      swap1\n      jump\t// out\n        /* \"#utility.yul\":88:205   */\n    tag_27:\n        /* \"#utility.yul\":197:198   */\n      0x00\n        /* \"#utility.yul\":194:195   */\n      0x00\n        /* \"#utility.yul\":187:199   */\n      revert\n        /* \"#utility.yul\":211:328   */\n    tag_28:\n        /* \"#utility.yul\":320:321   */\n      0x00\n        /* \"#utility.yul\":317:318   */\n      0x00\n        /* \"#utility.yul\":310:322   */\n      revert\n        /* \"#utility.yul\":334:451   */\n    tag_29:\n        /* \"#utility.yul\":443:444   */\n      0x00\n        /* \"#utility.yul\":440:441   */\n      0x00\n        /* \"#utility.yul\":433:445   */\n      revert\n        /* \"#utility.yul\":457:574   */\n    tag_30:\n        /* \"#utility.yul\":566:567   */\n      0x00\n        /* \"#utility.yul\":563:564   */\n      0x00\n        /* \"#utility.yul\":556:568   */\n      revert\n        /* \"#utility.yul\":580:682   */\n    tag_31:\n        /* \"#utility.yul\":621:627   */\n      0x00\n        /* \"#utility.yul\":672:674   */\n      0x1f\n        /* \"#utility.yul\":668:675   */\n      not\n        /* \"#utility.yul\":663:665   */\n      0x1f\n        /* \"#utility.yul\":656:661   */\n      dup4\n        /* \"#utility.yul\":652:666   */\n      add\n        /* \"#utility.yul\":648:676   */\n      and\n        /* \"#utility.yul\":638:676   */\n      swap1\n      pop\n        /* \"#utility.yul\":580:682   */\n      swap2\n      swap1\n      pop\n      jump\t// out\n        /* \"#utility.yul\":688:868   */\n    tag_32:\n        /* \"#utility.yul\":736:813   */\n      0x4e487b7100000000000000000000000000000000000000000000000000000000\n        /* \"#utility.yul\":733:734   */\n      0x00\n        /* \"#utility.yul\":726:814   */\n      mstore\n        /* \"#utility.yul\":833:837   */\n      0x41\n        /* \"#utility.yul\":830:831   */\n      0x04\n        /* \"#utility.yul\":823:838   */\n      mstore\n        /* \"#utility.yul\":857:861   */\n      0x24\n        /* \"#utility.yul\":854:855   */\n      0x00\n        /* \"#utility.yul\":847:862   */\n      revert\n        /* \"#utility.yul\":874:1155   */\n    tag_33:\n        /* \"#utility.yul\":957:984   */\n      tag_54\n        /* \"#utility.yul\":979:983   */\n      dup3\n        /* \"#utility.yul\":957:984   */\n      tag_31\n      jump\t// in\n    tag_54:\n        /* \"#utility.yul\":949:955   */\n      dup2\n        /* \"#utility.yul\":945:985   */\n      add\n        /* \"#utility.yul\":1087:1093   */\n      dup2\n        /* \"#utility.yul\":1075:1085   */\n      dup2\n        /* \"#utility.yul\":1072:1094   */\n      lt\n        /* \"#utility.yul\":1051:1069   */\n      0xffffffffffffffff\n        /* \"#utility.yul\":1039:1049   */\n      dup3\n        /* \"#utility.yul\":1036:1070   */\n      gt\n        /* \"#utility.yul\":1033:1095   */\n      or\n        /* \"#utility.yul\":1030:1118   */\n      iszero\n      tag_55\n      jumpi\n        /* \"#utility.yul\":1098:1116   */\n      tag_56\n      tag_32\n      jump\t// in\n    tag_56:\n        /* \"#utility.yul\":1030:1118   */\n    tag_55:\n        /* \"#utility.yul\":1138:1148   */\n      dup1\n        /* \"#utility.yul\":1134:1136   */\n      0x40\n        /* \"#utility.yul\":1127:1149   */\n      mstore\n        /* \"#utility.yul\":917:1155   */\n      pop\n        /* \"#utility.yul\":874:1155   */\n      pop\n      pop\n      jump\t// out\n        /* \"#utility.yul\":1161:1290   */\n    tag_34:\n        /* \"#utility.yul\":1195:1201   */\n      0x00\n        /* \"#utility.yul\":1222:1242   */\n      tag_58\n      tag_26\n      jump\t// in\n    tag_58:\n        /* \"#utility.yul\":1212:1242   */\n      swap1\n      pop\n        /* \"#utility.yul\":1251:1284   */\n      tag_59\n        /* \"#utility.yul\":1279:1283   */\n      dup3\n        /* \"#utility.yul\":1271:1277   */\n      dup3\n        /* \"#utility.yul\":1251:1284   */\n      tag_33\n      jump\t// in\n    tag_59:\n        /* \"#utility.yul\":1161:1290   */\n      swap2\n      swap1\n      pop\n      jump\t// out\n        /* \"#utility.yul\":1296:1604   */\n    tag_35:\n        /* \"#utility.yul\":1358:1362   */\n      0x00\n        /* \"#utility.yul\":1448:1466   */\n      0xffffffffffffffff\n        /* \"#utility.yul\":1440:1446   */\n      dup3\n        /* \"#utility.yul\":1437:1467   */\n      gt\n        /* \"#utility.yul\":1434:1490   */\n      iszero\n      tag_61\n      jumpi\n        /* \"#utility.yul\":1470:1488   */\n      tag_62\n      tag_32\n      jump\t// in\n    tag_62:\n        /* \"#utility.yul\":1434:1490   */\n    tag_61:\n        /* \"#utility.yul\":1508:1537   */\n      tag_63\n        /* \"#utility.yul\":1530:1536   */\n      dup3\n        /* \"#utility.yul\":1508:1537   */\n      tag_31\n      jump\t// in\n    tag_63:\n        /* \"#utility.yul\":1500:1537   */\n      swap1\n      pop\n        /* \"#utility.yul\":1592:1596   */\n      0x20\n        /* \"#utility.yul\":1586:1590   */\n      dup2\n        /* \"#utility.yul\":1582:1597   */\n      add\n        /* \"#utility.yul\":1574:1597   */\n      swap1\n      pop\n        /* \"#utility.yul\":1296:1604   */\n      swap2\n      swap1\n      pop\n      jump\t// out\n        /* \"#utility.yul\":1610:1758   */\n    tag_36:\n        /* \"#utility.yul\":1708:1714   */\n      dup3\n        /* \"#utility.yul\":1703:1706   */\n      dup2\n        /* \"#utility.yul\":1698:1701   */\n      dup4\n        /* \"#utility.yul\":1685:1715   */\n      calldatacopy\n        /* \"#utility.yul\":1749:1750   */\n      0x00\n        /* \"#utility.yul\":1740:1746   */\n      dup4\n        /* \"#utility.yul\":1735:1738   */\n      dup4\n        /* \"#utility.yul\":1731:1747   */\n      add\n        /* \"#utility.yul\":1724:1751   */\n      mstore\n        /* \"#utility.yul\":1610:1758   */\n      pop\n      pop\n      pop\n      jump\t// out\n        /* \"#utility.yul\":1764:2189   */\n    tag_37:\n        /* \"#utility.yul\":1842:1847   */\n      0x00\n        /* \"#utility.yul\":1867:1933   */\n      tag_66\n        /* \"#utility.yul\":1883:1932   */\n      tag_67\n        /* \"#utility.yul\":1925:1931   */\n      dup5\n        /* \"#utility.yul\":1883:1932   */\n      tag_35\n      jump\t// in\n    tag_67:\n        /* \"#utility.yul\":1867:1933   */\n      tag_34\n      jump\t// in\n    tag_66:\n        /* \"#utility.yul\":1858:1933   */\n      swap1\n      pop\n        /* \"#utility.yul\":1956:1962   */\n      dup3\n        /* \"#utility.yul\":1949:1954   */\n      dup2\n        /* \"#utility.yul\":1942:1963   */\n      mstore\n        /* \"#utility.yul\":1994:1998   */\n      0x20\n        /* \"#utility.yul\":1987:1992   */\n      dup2\n        /* \"#utility.yul\":1983:1999   */\n      add\n        /* \"#utility.yul\":2032:2035   */\n      dup5\n        /* \"#utility.yul\":2023:2029   */\n      dup5\n        /* \"#utility.yul\":2018:2021   */\n      dup5\n        /* \"#utility.yul\":2014:2030   */\n      add\n        /* \"#utility.yul\":2011:2036   */\n      gt\n        /* \"#utility.yul\":2008:2120   */\n      iszero\n      tag_68\n      jumpi\n        /* \"#utility.yul\":2039:2118   */\n      tag_69\n      tag_30\n      jump\t// in\n    tag_69:\n        /* \"#utility.yul\":2008:2120   */\n    tag_68:\n        /* \"#utility.yul\":2129:2183   */\n      tag_70\n        /* \"#utility.yul\":2176:2182   */\n      dup5\n        /* \"#utility.yul\":2171:2174   */\n      dup3\n        /* \"#utility.yul\":2166:2169   */\n      dup6\n        /* \"#utility.yul\":2129:2183   */\n      tag_36\n      jump\t// in\n    tag_70:\n        /* \"#utility.yul\":1848:2189   */\n      pop\n        /* \"#utility.yul\":1764:2189   */\n      swap4\n      swap3\n      pop\n      pop\n      pop\n      jump\t// out\n        /* \"#utility.yul\":2209:2549   */\n    tag_38:\n        /* \"#utility.yul\":2265:2270   */\n      0x00\n        /* \"#utility.yul\":2314:2317   */\n      dup3\n        /* \"#utility.yul\":2307:2311   */\n      0x1f\n        /* \"#utility.yul\":2299:2305   */\n      dup4\n        /* \"#utility.yul\":2295:2312   */\n      add\n        /* \"#utility.yul\":2291:2318   */\n      slt\n        /* \"#utility.yul\":2281:2403   */\n      tag_72\n      jumpi\n        /* \"#utility.yul\":2322:2401   */\n      tag_73\n      tag_29\n      jump\t// in\n    tag_73:\n        /* \"#utility.yul\":2281:2403   */\n    tag_72:\n        /* \"#utility.yul\":2439:2445   */\n      dup2\n        /* \"#utility.yul\":2426:2446   */\n      calldataload\n        /* \"#utility.yul\":2464:2543   */\n      tag_74\n        /* \"#utility.yul\":2539:2542   */\n      dup5\n        /* \"#utility.yul\":2531:2537   */\n      dup3\n        /* \"#utility.yul\":2524:2528   */\n      0x20\n        /* \"#utility.yul\":2516:2522   */\n      dup7\n        /* \"#utility.yul\":2512:2529   */\n      add\n        /* \"#utility.yul\":2464:2543   */\n      tag_37\n      jump\t// in\n    tag_74:\n        /* \"#utility.yul\":2455:2543   */\n      swap2\n      pop\n        /* \"#utility.yul\":2271:2549   */\n      pop\n        /* \"#utility.yul\":2209:2549   */\n      swap3\n      swap2\n      pop\n      pop\n      jump\t// out\n        /* \"#utility.yul\":2555:3064   */\n    tag_5:\n        /* \"#utility.yul\":2624:2630   */\n      0x00\n        /* \"#utility.yul\":2673:2675   */\n      0x20\n        /* \"#utility.yul\":2661:2670   */\n      dup3\n        /* \"#utility.yul\":2652:2659   */\n      dup5\n        /* \"#utility.yul\":2648:2671   */\n      sub\n        /* \"#utility.yul\":2644:2676   */\n      slt\n        /* \"#utility.yul\":2641:2760   */\n      iszero\n      tag_76\n      jumpi\n        /* \"#utility.yul\":2679:2758   */\n      tag_77\n      tag_27\n      jump\t// in\n    tag_77:\n        /* \"#utility.yul\":2641:2760   */\n    tag_76:\n        /* \"#utility.yul\":2827:2828   */\n      0x00\n        /* \"#utility.yul\":2816:2825   */\n      dup3\n        /* \"#utility.yul\":2812:2829   */\n      add\n        /* \"#utility.yul\":2799:2830   */\n      calldataload\n        /* \"#utility.yul\":2857:2875   */\n      0xffffffffffffffff\n        /* \"#utility.yul\":2849:2855   */\n      dup2\n        /* \"#utility.yul\":2846:2876   */\n      gt\n        /* \"#utility.yul\":2843:2960   */\n      iszero\n      tag_78\n      jumpi\n        /* \"#utility.yul\":2879:2958   */\n      tag_79\n      tag_28\n      jump\t// in\n    tag_79:\n        /* \"#utility.yul\":2843:2960   */\n    tag_78:\n        /* \"#utility.yul\":2984:3047   */\n      tag_80\n        /* \"#utility.yul\":3039:3046   */\n      dup5\n        /* \"#utility.yul\":3030:3036   */\n      dup3\n        /* \"#utility.yul\":3019:3028   */\n      dup6\n        /* \"#utility.yul\":3015:3037   */\n      add\n        /* \"#utility.yul\":2984:3047   */\n      tag_38\n      jump\t// in\n    tag_80:\n        /* \"#utility.yul\":2974:3047   */\n      swap2\n      pop\n        /* \"#utility.yul\":2770:3057   */\n      pop\n        /* \"#utility.yul\":2555:3064   */\n      swap3\n      swap2\n      pop\n      pop\n      jump\t// out\n        /* \"#utility.yul\":3070:3147   */\n    tag_39:\n        /* \"#utility.yul\":3107:3114   */\n      0x00\n        /* \"#utility.yul\":3136:3141   */\n      dup2\n        /* \"#utility.yul\":3125:3141   */\n      swap1\n      pop\n        /* \"#utility.yul\":3070:3147   */\n      swap2\n      swap1\n      pop\n      jump\t// out\n        /* \"#utility.yul\":3153:3279   */\n    tag_40:\n        /* \"#utility.yul\":3248:3272   */\n      tag_83\n        /* \"#utility.yul\":3266:3271   */\n      dup2\n        /* \"#utility.yul\":3248:3272   */\n      tag_39\n      jump\t// in\n    tag_83:\n        /* \"#utility.yul\":3243:3246   */\n      dup3\n        /* \"#utility.yul\":3236:3273   */\n      mstore\n        /* \"#utility.yul\":3153:3279   */\n      pop\n      pop\n      jump\t// out\n        /* \"#utility.yul\":3285:3523   */\n    tag_8:\n        /* \"#utility.yul\":3386:3390   */\n      0x00\n        /* \"#utility.yul\":3424:3426   */\n      0x20\n        /* \"#utility.yul\":3413:3422   */\n      dup3\n        /* \"#utility.yul\":3409:3427   */\n      add\n        /* \"#utility.yul\":3401:3427   */\n      swap1\n      pop\n        /* \"#utility.yul\":3437:3516   */\n      tag_85\n        /* \"#utility.yul\":3513:3514   */\n      0x00\n        /* \"#utility.yul\":3502:3511   */\n      dup4\n        /* \"#utility.yul\":3498:3515   */\n      add\n        /* \"#utility.yul\":3489:3495   */\n      dup5\n        /* \"#utility.yul\":3437:3516   */\n      tag_40\n      jump\t// in\n    tag_85:\n        /* \"#utility.yul\":3285:3523   */\n      swap3\n      swap2\n      pop\n      pop\n      jump\t// out\n        /* \"#utility.yul\":3529:3709   */\n    tag_15:\n        /* \"#utility.yul\":3577:3654   */\n      0x4e487b7100000000000000000000000000000000000000000000000000000000\n        /* \"#utility.yul\":3574:3575   */\n      0x00\n        /* \"#utility.yul\":3567:3655   */\n      mstore\n        /* \"#utility.yul\":3674:3678   */\n      0x32\n        /* \"#utility.yul\":3671:3672   */\n      0x04\n        /* \"#utility.yul\":3664:3679   */\n      mstore\n        /* \"#utility.yul\":3698:3702   */\n      0x24\n        /* \"#utility.yul\":3695:3696   */\n      0x00\n        /* \"#utility.yul\":3688:3703   */\n      revert\n        /* \"#utility.yul\":3715:3884   */\n    tag_41:\n        /* \"#utility.yul\":3799:3810   */\n      0x00\n        /* \"#utility.yul\":3833:3839   */\n      dup3\n        /* \"#utility.yul\":3828:3831   */\n      dup3\n        /* \"#utility.yul\":3821:3840   */\n      mstore\n        /* \"#utility.yul\":3873:3877   */\n      0x20\n        /* \"#utility.yul\":3868:3871   */\n      dup3\n        /* \"#utility.yul\":3864:3878   */\n      add\n        /* \"#utility.yul\":3849:3878   */\n      swap1\n      pop\n        /* \"#utility.yul\":3715:3884   */\n      swap3\n      swap2\n      pop\n      pop\n      jump\t// out\n        /* \"#utility.yul\":3890:4057   */\n    tag_42:\n        /* \"#utility.yul\":4030:4049   */\n      0x496e76616c696420636861726163746572000000000000000000000000000000\n        /* \"#utility.yul\":4026:4027   */\n      0x00\n        /* \"#utility.yul\":4018:4024   */\n      dup3\n        /* \"#utility.yul\":4014:4028   */\n      add\n        /* \"#utility.yul\":4007:4050   */\n      mstore\n        /* \"#utility.yul\":3890:4057   */\n      pop\n      jump\t// out\n        /* \"#utility.yul\":4063:4429   */\n    tag_43:\n        /* \"#utility.yul\":4205:4208   */\n      0x00\n        /* \"#utility.yul\":4226:4293   */\n      tag_90\n        /* \"#utility.yul\":4290:4292   */\n      0x11\n        /* \"#utility.yul\":4285:4288   */\n      dup4\n        /* \"#utility.yul\":4226:4293   */\n      tag_41\n      jump\t// in\n    tag_90:\n        /* \"#utility.yul\":4219:4293   */\n      swap2\n      pop\n        /* \"#utility.yul\":4302:4395   */\n      tag_91\n        /* \"#utility.yul\":4391:4394   */\n      dup3\n        /* \"#utility.yul\":4302:4395   */\n      tag_42\n      jump\t// in\n    tag_91:\n        /* \"#utility.yul\":4420:4422   */\n      0x20\n        /* \"#utility.yul\":4415:4418   */\n      dup3\n        /* \"#utility.yul\":4411:4423   */\n      add\n        /* \"#utility.yul\":4404:4423   */\n      swap1\n      pop\n        /* \"#utility.yul\":4063:4429   */\n      swap2\n      swap1\n      pop\n      jump\t// out\n        /* \"#utility.yul\":4435:4854   */\n    tag_19:\n        /* \"#utility.yul\":4601:4605   */\n      0x00\n        /* \"#utility.yul\":4639:4641   */\n      0x20\n        /* \"#utility.yul\":4628:4637   */\n      dup3\n        /* \"#utility.yul\":4624:4642   */\n      add\n        /* \"#utility.yul\":4616:4642   */\n      swap1\n      pop\n        /* \"#utility.yul\":4688:4697   */\n      dup2\n        /* \"#utility.yul\":4682:4686   */\n      dup2\n        /* \"#utility.yul\":4678:4698   */\n      sub\n        /* \"#utility.yul\":4674:4675   */\n      0x00\n        /* \"#utility.yul\":4663:4672   */\n      dup4\n        /* \"#utility.yul\":4659:4676   */\n      add\n        /* \"#utility.yul\":4652:4699   */\n      mstore\n        /* \"#utility.yul\":4716:4847   */\n      tag_93\n        /* \"#utility.yul\":4842:4846   */\n      dup2\n        /* \"#utility.yul\":4716:4847   */\n      tag_43\n      jump\t// in\n    tag_93:\n        /* \"#utility.yul\":4708:4847   */\n      swap1\n      pop\n        /* \"#utility.yul\":4435:4854   */\n      swap2\n      swap1\n      pop\n      jump\t// out\n        /* \"#utility.yul\":4860:5040   */\n    tag_44:\n        /* \"#utility.yul\":4908:4985   */\n      0x4e487b7100000000000000000000000000000000000000000000000000000000\n        /* \"#utility.yul\":4905:4906   */\n      0x00\n        /* \"#utility.yul\":4898:4986   */\n      mstore\n        /* \"#utility.yul\":5005:5009   */\n      0x11\n        /* \"#utility.yul\":5002:5003   */\n      0x04\n        /* \"#utility.yul\":4995:5010   */\n      mstore\n        /* \"#utility.yul\":5029:5033   */\n      0x24\n        /* \"#utility.yul\":5026:5027   */\n      0x00\n        /* \"#utility.yul\":5019:5034   */\n      revert\n        /* \"#utility.yul\":5046:5240   */\n    tag_21:\n        /* \"#utility.yul\":5086:5090   */\n      0x00\n        /* \"#utility.yul\":5106:5126   */\n      tag_96\n        /* \"#utility.yul\":5124:5125   */\n      dup3\n        /* \"#utility.yul\":5106:5126   */\n      tag_39\n      jump\t// in\n    tag_96:\n        /* \"#utility.yul\":5101:5126   */\n      swap2\n      pop\n        /* \"#utility.yul\":5140:5160   */\n      tag_97\n        /* \"#utility.yul\":5158:5159   */\n      dup4\n        /* \"#utility.yul\":5140:5160   */\n      tag_39\n      jump\t// in\n    tag_97:\n        /* \"#utility.yul\":5135:5160   */\n      swap3\n      pop\n        /* \"#utility.yul\":5184:5185   */\n      dup3\n        /* \"#utility.yul\":5181:5182   */\n      dup3\n        /* \"#utility.yul\":5177:5186   */\n      sub\n        /* \"#utility.yul\":5169:5186   */\n      swap1\n      pop\n        /* \"#utility.yul\":5208:5209   */\n      dup2\n        /* \"#utility.yul\":5202:5206   */\n      dup2\n        /* \"#utility.yul\":5199:5210   */\n      gt\n        /* \"#utility.yul\":5196:5233   */\n      iszero\n      tag_98\n      jumpi\n        /* \"#utility.yul\":5213:5231   */\n      tag_99\n      tag_44\n      jump\t// in\n    tag_99:\n        /* \"#utility.yul\":5196:5233   */\n    tag_98:\n        /* \"#utility.yul\":5046:5240   */\n      swap3\n      swap2\n      pop\n      pop\n      jump\t// out\n        /* \"#utility.yul\":5246:5656   */\n    tag_23:\n        /* \"#utility.yul\":5286:5293   */\n      0x00\n        /* \"#utility.yul\":5309:5329   */\n      tag_101\n        /* \"#utility.yul\":5327:5328   */\n      dup3\n        /* \"#utility.yul\":5309:5329   */\n      tag_39\n      jump\t// in\n    tag_101:\n        /* \"#utility.yul\":5304:5329   */\n      swap2\n      pop\n        /* \"#utility.yul\":5343:5363   */\n      tag_102\n        /* \"#utility.yul\":5361:5362   */\n      dup4\n        /* \"#utility.yul\":5343:5363   */\n      tag_39\n      jump\t// in\n    tag_102:\n        /* \"#utility.yul\":5338:5363   */\n      swap3\n      pop\n        /* \"#utility.yul\":5398:5399   */\n      dup3\n        /* \"#utility.yul\":5395:5396   */\n      dup3\n        /* \"#utility.yul\":5391:5400   */\n      mul\n        /* \"#utility.yul\":5420:5450   */\n      tag_103\n        /* \"#utility.yul\":5438:5449   */\n      dup2\n        /* \"#utility.yul\":5420:5450   */\n      tag_39\n      jump\t// in\n    tag_103:\n        /* \"#utility.yul\":5409:5450   */\n      swap2\n      pop\n        /* \"#utility.yul\":5599:5600   */\n      dup3\n        /* \"#utility.yul\":5590:5597   */\n      dup3\n        /* \"#utility.yul\":5586:5601   */\n      div\n        /* \"#utility.yul\":5583:5584   */\n      dup5\n        /* \"#utility.yul\":5580:5602   */\n      eq\n        /* \"#utility.yul\":5560:5561   */\n      dup4\n        /* \"#utility.yul\":5553:5562   */\n      iszero\n        /* \"#utility.yul\":5533:5616   */\n      or\n        /* \"#utility.yul\":5510:5649   */\n      tag_104\n      jumpi\n        /* \"#utility.yul\":5629:5647   */\n      tag_105\n      tag_44\n      jump\t// in\n    tag_105:\n        /* \"#utility.yul\":5510:5649   */\n    tag_104:\n        /* \"#utility.yul\":5294:5656   */\n      pop\n        /* \"#utility.yul\":5246:5656   */\n      swap3\n      swap2\n      pop\n      pop\n      jump\t// out\n        /* \"#utility.yul\":5662:5853   */\n    tag_25:\n        /* \"#utility.yul\":5702:5705   */\n      0x00\n        /* \"#utility.yul\":5721:5741   */\n      tag_107\n        /* \"#utility.yul\":5739:5740   */\n      dup3\n        /* \"#utility.yul\":5721:5741   */\n      tag_39\n      jump\t// in\n    tag_107:\n        /* \"#utility.yul\":5716:5741   */\n      swap2\n      pop\n        /* \"#utility.yul\":5755:5775   */\n      tag_108\n        /* \"#utility.yul\":5773:5774   */\n      dup4\n        /* \"#utility.yul\":5755:5775   */\n      tag_39\n      jump\t// in\n    tag_108:\n        /* \"#utility.yul\":5750:5775   */\n      swap3\n      pop\n        /* \"#utility.yul\":5798:5799   */\n      dup3\n        /* \"#utility.yul\":5795:5796   */\n      dup3\n        /* \"#utility.yul\":5791:5800   */\n      add\n        /* \"#utility.yul\":5784:5800   */\n      swap1\n      pop\n        /* \"#utility.yul\":5819:5822   */\n      dup1\n        /* \"#utility.yul\":5816:5817   */\n      dup3\n        /* \"#utility.yul\":5813:5823   */\n      gt\n        /* \"#utility.yul\":5810:5846   */\n      iszero\n      tag_109\n      jumpi\n        /* \"#utility.yul\":5826:5844   */\n      tag_110\n      tag_44\n      jump\t// in\n    tag_110:\n        /* \"#utility.yul\":5810:5846   */\n    tag_109:\n        /* \"#utility.yul\":5662:5853   */\n      swap3\n      swap2\n      pop\n      pop\n      jump\t// out\n\n    auxdata: 0xa2646970667358221220fbd5635c13113b6583fc55e55747aba866a18ecd7134ed730710f297693714a564736f6c634300081e0033\n}\n",
				"bytecode": {
					"linkReferences": {},
					"object": "6104ad61004d600b8282823980515f1a6073146041577f4e487b71000000000000000000000000000000000000000000000000000000005f525f60045260245ffd5b305f52607381538281f3fe7300000000000000000000000000000000000000003014608060405260043610610034575f3560e01c80631bd9515514610038575b5f5ffd5b610052600480360381019061004d9190610286565b610068565b60405161005f91906102e5565b60405180910390f35b5f5f8290505f5f90505f5f90505b825181101561012e575f838281518110610093576100926102fe565b5b602001015160f81c60f81b60f81c60ff169050603081101580156100b8575060398111155b6100f7576040517f08c379a00000000000000000000000000000000000000000000000000000000081526004016100ee90610385565b60405180910390fd5b60308161010491906103d0565b905080600a846101149190610403565b61011e9190610444565b9250508080600101915050610076565b508092505050919050565b5f604051905090565b5f5ffd5b5f5ffd5b5f5ffd5b5f5ffd5b5f601f19601f8301169050919050565b7f4e487b71000000000000000000000000000000000000000000000000000000005f52604160045260245ffd5b61019882610152565b810181811067ffffffffffffffff821117156101b7576101b6610162565b5b80604052505050565b5f6101c9610139565b90506101d5828261018f565b919050565b5f67ffffffffffffffff8211156101f4576101f3610162565b5b6101fd82610152565b9050602081019050919050565b828183375f83830152505050565b5f61022a610225846101da565b6101c0565b9050828152602081018484840111156102465761024561014e565b5b61025184828561020a565b509392505050565b5f82601f83011261026d5761026c61014a565b5b813561027d848260208601610218565b91505092915050565b5f6020828403121561029b5761029a610142565b5b5f82013567ffffffffffffffff8111156102b8576102b7610146565b5b6102c484828501610259565b91505092915050565b5f819050919050565b6102df816102cd565b82525050565b5f6020820190506102f85f8301846102d6565b92915050565b7f4e487b71000000000000000000000000000000000000000000000000000000005f52603260045260245ffd5b5f82825260208201905092915050565b7f496e76616c6964206368617261637465720000000000000000000000000000005f82015250565b5f61036f60118361032b565b915061037a8261033b565b602082019050919050565b5f6020820190508181035f83015261039c81610363565b9050919050565b7f4e487b71000000000000000000000000000000000000000000000000000000005f52601160045260245ffd5b5f6103da826102cd565b91506103e5836102cd565b92508282039050818111156103fd576103fc6103a3565b5b92915050565b5f61040d826102cd565b9150610418836102cd565b9250828202610426816102cd565b9150828204841483151761043d5761043c6103a3565b5b5092915050565b5f61044e826102cd565b9150610459836102cd565b9250828201905080821115610471576104706103a3565b5b9291505056fea2646970667358221220fbd5635c13113b6583fc55e55747aba866a18ecd7134ed730710f297693714a564736f6c634300081e0033",
					"opcodes": "PUSH2 0x4AD PUSH2 0x4D PUSH1 0xB DUP3 DUP3 DUP3 CODECOPY DUP1 MLOAD PUSH0 BYTE PUSH1 0x73 EQ PUSH1 0x41 JUMPI PUSH32 0x4E487B7100000000000000000000000000000000000000000000000000000000 PUSH0 MSTORE PUSH0 PUSH1 0x4 MSTORE PUSH1 0x24 PUSH0 REVERT JUMPDEST ADDRESS PUSH0 MSTORE PUSH1 0x73 DUP2 MSTORE8 DUP3 DUP2 RETURN INVALID PUSH20 0x0 ADDRESS EQ PUSH1 0x80 PUSH1 0x40 MSTORE PUSH1 0x4 CALLDATASIZE LT PUSH2 0x34 JUMPI PUSH0 CALLDATALOAD PUSH1 0xE0 SHR DUP1 PUSH4 0x1BD95155 EQ PUSH2 0x38 JUMPI JUMPDEST PUSH0 PUSH0 REVERT JUMPDEST PUSH2 0x52 PUSH1 0x4 DUP1 CALLDATASIZE SUB DUP2 ADD SWAP1 PUSH2 0x4D SWAP2 SWAP1 PUSH2 0x286 JUMP JUMPDEST PUSH2 0x68 JUMP JUMPDEST PUSH1 0x40 MLOAD PUSH2 0x5F SWAP2 SWAP1 PUSH2 0x2E5 JUMP JUMPDEST PUSH1 0x40 MLOAD DUP1 SWAP2 SUB SWAP1 RETURN JUMPDEST PUSH0 PUSH0 DUP3 SWAP1 POP PUSH0 PUSH0 SWAP1 POP PUSH0 PUSH0 SWAP1 POP JUMPDEST DUP3 MLOAD DUP2 LT ISZERO PUSH2 0x12E JUMPI PUSH0 DUP4 DUP3 DUP2 MLOAD DUP2 LT PUSH2 0x93 JUMPI PUSH2 0x92 PUSH2 0x2FE JUMP JUMPDEST JUMPDEST PUSH1 0x20 ADD ADD MLOAD PUSH1 0xF8 SHR PUSH1 0xF8 SHL PUSH1 0xF8 SHR PUSH1 0xFF AND SWAP1 POP PUSH1 0x30 DUP2 LT ISZERO DUP1 ISZERO PUSH2 0xB8 JUMPI POP PUSH1 0x39 DUP2 GT ISZERO JUMPDEST PUSH2 0xF7 JUMPI PUSH1 0x40 MLOAD PUSH32 0x8C379A000000000000000000000000000000000000000000000000000000000 DUP2 MSTORE PUSH1 0x4 ADD PUSH2 0xEE SWAP1 PUSH2 0x385 JUMP JUMPDEST PUSH1 0x40 MLOAD DUP1 SWAP2 SUB SWAP1 REVERT JUMPDEST PUSH1 0x30 DUP2 PUSH2 0x104 SWAP2 SWAP1 PUSH2 0x3D0 JUMP JUMPDEST SWAP1 POP DUP1 PUSH1 0xA DUP5 PUSH2 0x114 SWAP2 SWAP1 PUSH2 0x403 JUMP JUMPDEST PUSH2 0x11E SWAP2 SWAP1 PUSH2 0x444 JUMP JUMPDEST SWAP3 POP POP DUP1 DUP1 PUSH1 0x1 ADD SWAP2 POP POP PUSH2 0x76 JUMP JUMPDEST POP DUP1 SWAP3 POP POP POP SWAP2 SWAP1 POP JUMP JUMPDEST PUSH0 PUSH1 0x40 MLOAD SWAP1 POP SWAP1 JUMP JUMPDEST PUSH0 PUSH0 REVERT JUMPDEST PUSH0 PUSH0 REVERT JUMPDEST PUSH0 PUSH0 REVERT JUMPDEST PUSH0 PUSH0 REVERT JUMPDEST PUSH0 PUSH1 0x1F NOT PUSH1 0x1F DUP4 ADD AND SWAP1 POP SWAP2 SWAP1 POP JUMP JUMPDEST PUSH32 0x4E487B7100000000000000000000000000000000000000000000000000000000 PUSH0 MSTORE PUSH1 0x41 PUSH1 0x4 MSTORE PUSH1 0x24 PUSH0 REVERT JUMPDEST PUSH2 0x198 DUP3 PUSH2 0x152 JUMP JUMPDEST DUP2 ADD DUP2 DUP2 LT PUSH8 0xFFFFFFFFFFFFFFFF DUP3 GT OR ISZERO PUSH2 0x1B7 JUMPI PUSH2 0x1B6 PUSH2 0x162 JUMP JUMPDEST JUMPDEST DUP1 PUSH1 0x40 MSTORE POP POP POP JUMP JUMPDEST PUSH0 PUSH2 0x1C9 PUSH2 0x139 JUMP JUMPDEST SWAP1 POP PUSH2 0x1D5 DUP3 DUP3 PUSH2 0x18F JUMP JUMPDEST SWAP2 SWAP1 POP JUMP JUMPDEST PUSH0 PUSH8 0xFFFFFFFFFFFFFFFF DUP3 GT ISZERO PUSH2 0x1F4 JUMPI PUSH2 0x1F3 PUSH2 0x162 JUMP JUMPDEST JUMPDEST PUSH2 0x1FD DUP3 PUSH2 0x152 JUMP JUMPDEST SWAP1 POP PUSH1 0x20 DUP2 ADD SWAP1 POP SWAP2 SWAP1 POP JUMP JUMPDEST DUP3 DUP2 DUP4 CALLDATACOPY PUSH0 DUP4 DUP4 ADD MSTORE POP POP POP JUMP JUMPDEST PUSH0 PUSH2 0x22A PUSH2 0x225 DUP5 PUSH2 0x1DA JUMP JUMPDEST PUSH2 0x1C0 JUMP JUMPDEST SWAP1 POP DUP3 DUP2 MSTORE PUSH1 0x20 DUP2 ADD DUP5 DUP5 DUP5 ADD GT ISZERO PUSH2 0x246 JUMPI PUSH2 0x245 PUSH2 0x14E JUMP JUMPDEST JUMPDEST PUSH2 0x251 DUP5 DUP3 DUP6 PUSH2 0x20A JUMP JUMPDEST POP SWAP4 SWAP3 POP POP POP JUMP JUMPDEST PUSH0 DUP3 PUSH1 0x1F DUP4 ADD SLT PUSH2 0x26D JUMPI PUSH2 0x26C PUSH2 0x14A JUMP JUMPDEST JUMPDEST DUP2 CALLDATALOAD PUSH2 0x27D DUP5 DUP3 PUSH1 0x20 DUP7 ADD PUSH2 0x218 JUMP JUMPDEST SWAP2 POP POP SWAP3 SWAP2 POP POP JUMP JUMPDEST PUSH0 PUSH1 0x20 DUP3 DUP5 SUB SLT ISZERO PUSH2 0x29B JUMPI PUSH2 0x29A PUSH2 0x142 JUMP JUMPDEST JUMPDEST PUSH0 DUP3 ADD CALLDATALOAD PUSH8 0xFFFFFFFFFFFFFFFF DUP2 GT ISZERO PUSH2 0x2B8 JUMPI PUSH2 0x2B7 PUSH2 0x146 JUMP JUMPDEST JUMPDEST PUSH2 0x2C4 DUP5 DUP3 DUP6 ADD PUSH2 0x259 JUMP JUMPDEST SWAP2 POP POP SWAP3 SWAP2 POP POP JUMP JUMPDEST PUSH0 DUP2 SWAP1 POP SWAP2 SWAP1 POP JUMP JUMPDEST PUSH2 0x2DF DUP2 PUSH2 0x2CD JUMP JUMPDEST DUP3 MSTORE POP POP JUMP JUMPDEST PUSH0 PUSH1 0x20 DUP3 ADD SWAP1 POP PUSH2 0x2F8 PUSH0 DUP4 ADD DUP5 PUSH2 0x2D6 JUMP JUMPDEST SWAP3 SWAP2 POP POP JUMP JUMPDEST PUSH32 0x4E487B7100000000000000000000000000000000000000000000000000000000 PUSH0 MSTORE PUSH1 0x32 PUSH1 0x4 MSTORE PUSH1 0x24 PUSH0 REVERT JUMPDEST PUSH0 DUP3 DUP3 MSTORE PUSH1 0x20 DUP3 ADD SWAP1 POP SWAP3 SWAP2 POP POP JUMP JUMPDEST PUSH32 0x496E76616C696420636861726163746572000000000000000000000000000000 PUSH0 DUP3 ADD MSTORE POP JUMP JUMPDEST PUSH0 PUSH2 0x36F PUSH1 0x11 DUP4 PUSH2 0x32B JUMP JUMPDEST SWAP2 POP PUSH2 0x37A DUP3 PUSH2 0x33B JUMP JUMPDEST PUSH1 0x20 DUP3 ADD SWAP1 POP SWAP2 SWAP1 POP JUMP JUMPDEST PUSH0 PUSH1 0x20 DUP3 ADD SWAP1 POP DUP2 DUP2 SUB PUSH0 DUP4 ADD MSTORE PUSH2 0x39C DUP2 PUSH2 0x363 JUMP JUMPDEST SWAP1 POP SWAP2 SWAP1 POP JUMP JUMPDEST PUSH32 0x4E487B7100000000000000000000000000000000000000000000000000000000 PUSH0 MSTORE PUSH1 0x11 PUSH1 0x4 MSTORE PUSH1 0x24 PUSH0 REVERT JUMPDEST PUSH0 PUSH2 0x3DA DUP3 PUSH2 0x2CD JUMP JUMPDEST SWAP2 POP PUSH2 0x3E5 DUP4 PUSH2 0x2CD JUMP JUMPDEST SWAP3 POP DUP3 DUP3 SUB SWAP1 POP DUP2 DUP2 GT ISZERO PUSH2 0x3FD JUMPI PUSH2 0x3FC PUSH2 0x3A3 JUMP JUMPDEST JUMPDEST SWAP3 SWAP2 POP POP JUMP JUMPDEST PUSH0 PUSH2 0x40D DUP3 PUSH2 0x2CD JUMP JUMPDEST SWAP2 POP PUSH2 0x418 DUP4 PUSH2 0x2CD JUMP JUMPDEST SWAP3 POP DUP3 DUP3 MUL PUSH2 0x426 DUP2 PUSH2 0x2CD JUMP JUMPDEST SWAP2 POP DUP3 DUP3 DIV DUP5 EQ DUP4 ISZERO OR PUSH2 0x43D JUMPI PUSH2 0x43C PUSH2 0x3A3 JUMP JUMPDEST JUMPDEST POP SWAP3 SWAP2 POP POP JUMP JUMPDEST PUSH0 PUSH2 0x44E DUP3 PUSH2 0x2CD JUMP JUMPDEST SWAP2 POP PUSH2 0x459 DUP4 PUSH2 0x2CD JUMP JUMPDEST SWAP3 POP DUP3 DUP3 ADD SWAP1 POP DUP1 DUP3 GT ISZERO PUSH2 0x471 JUMPI PUSH2 0x470 PUSH2 0x3A3 JUMP JUMPDEST JUMPDEST SWAP3 SWAP2 POP POP JUMP INVALID LOG2 PUSH5 0x6970667358 0x22 SLT KECCAK256 EXTSTATICCALL 0xD5 PUSH4 0x5C13113B PUSH6 0x83FC55E55747 0xAB 0xA8 PUSH7 0xA18ECD7134ED73 SMOD LT CALLCODE SWAP8 PUSH10 0x3714A564736F6C634300 ADDMOD 0x1E STOP CALLER "
				},
				"gasEstimates": {
					"creation": {
						"codeDepositCost": "239400",
						"executionCost": "304",
						"totalCost": "239704"
					},
					"external": {
						"stringToUint(string)": "infinite"
					}
				},
				"methodIdentifiers": {
					"stringToUint(string)": "1bd95155"
				}
			},
			"storageLayout": {
				"storage": [],
				"types": null
			},
			"userdoc": {
				"kind": "user",
				"methods": {},
				"version": 1
			}
		}
	}
}