{
	"data": {
		"bytecode": {
			"linkReferences": {},
			"object": "60806040526040516116a93803806116a9833981810160405281019061002591906100c8565b805f5f6101000a81548173ffffffffffffffffffffffffffffffffffffffff021916908373ffffffffffffffffffffffffffffffffffffffff160217905550506100f3565b5f5ffd5b5f73ffffffffffffffffffffffffffffffffffffffff82169050919050565b5f6100978261006e565b9050919050565b6100a78161008d565b81146100b1575f5ffd5b50565b5f815190506100c28161009e565b92915050565b5f602082840312156100dd576100dc61006a565b5b5f6100ea848285016100b4565b91505092915050565b6115a9806101005f395ff3fe608060405260043610610129575f3560e01c80638b84610c116100aa578063cd4ecbbe1161006e578063cd4ecbbe146102b3578063db73d515146102d2578063dfde0226146102f0578063f6a158051461030e578063f96f435b1461032c578063ffd6f1001461034b57610129565b80638b84610c1461022d5780638fcf5d961461024c578063afc505c21461026b578063b4518ece1461028a578063b94ccc1e1461029457610129565b806375bafd2a116100f157806375bafd2a146101bd5780637843fef4146101c7578063793f6e73146101e65780637e1b3abf146102055780638200adbd1461022357610129565b80630f5f848f1461012d57806313c9030d1461014c5780631dabd7cd146101765780632b15f51c146101805780634c9868711461019f575b5f5ffd5b61013561036a565b604051610143929190611211565b60405180910390f35b348015610157575f5ffd5b50610160610498565b60405161016d919061123f565b60405180910390f35b61017e6104a0565b005b610188610543565b604051610196929190611211565b60405180910390f35b6101a76105da565b6040516101b4919061123f565b60405180910390f35b6101c56105e2565b005b6101cf610682565b6040516101dd929190611211565b60405180910390f35b6101ee6107ae565b6040516101fc929190611211565b60405180910390f35b61020d6108da565b60405161021a9190611270565b60405180910390f35b61022b6108e1565b005b6102356108e3565b604051610243929190611211565b60405180910390f35b610254610a11565b604051610262929190611211565b60405180910390f35b610273610aaa565b604051610281929190611211565b60405180910390f35b610292610bd6565b005b61029c610c77565b6040516102aa929190611211565b60405180910390f35b6102bb610da3565b6040516102c9929190611211565b60405180910390f35b6102da610e44565b6040516102e7919061123f565b60405180910390f35b6102f8610eb8565b604051610305919061123f565b60405180910390f35b610316610f24565b6040516103239190611270565b60405180910390f35b610334610f2b565b604051610342929190611211565b60405180910390f35b610353611059565b604051610361929190611211565b60405180910390f35b5f60605f60d560405160240161038091906112d7565b6040516020818303038152906040527f29e99f07000000000000000000000000000000000000000000000000000000007bffffffffffffffffffffffffffffffffffffffffffffffffffffffff19166020820180517bffffffffffffffffffffffffffffffffffffffffffffffffffffffff838183161783525050505090505f5f5f5f9054906101000a900473ffffffffffffffffffffffffffffffffffffffff1673ffffffffffffffffffffffffffffffffffffffff163484604051610447919061132a565b5f6040518083038185875af1925050503d805f8114610481576040519150601f19603f3d011682016040523d82523d5f602084013e610486565b606091505b50915091508181945094505050509091565b5f6001905090565b5f5f9054906101000a900473ffffffffffffffffffffffffffffffffffffffff1673ffffffffffffffffffffffffffffffffffffffff1663caf446833460d56040518363ffffffff1660e01b81526004016104fb9190611370565b5f6040518083038185885af1158015610516573d5f5f3e3d5ffd5b50505050506040513d5f823e3d601f19601f8201168201806040525081019061053f91906114e2565b5050565b5f60605f5f5f5f9054906101000a900473ffffffffffffffffffffffffffffffffffffffff1673ffffffffffffffffffffffffffffffffffffffff1660405161058b9061155f565b5f604051808303815f865af19150503d805f81146105c4576040519150601f19603f3d011682016040523d82523d5f602084013e6105c9565b606091505b509150915081819350935050509091565b5f6001905090565b5f5f9054906101000a900473ffffffffffffffffffffffffffffffffffffffff1673ffffffffffffffffffffffffffffffffffffffff166319ae899460d56040518263ffffffff1660e01b815260040161063c9190611370565b5f60405180830381865afa158015610656573d5f5f3e3d5ffd5b505050506040513d5f823e3d601f19601f8201168201806040525081019061067e91906114e2565b5050565b5f60605f60d560405160240161069891906112d7565b6040516020818303038152906040527fcaf44683000000000000000000000000000000000000000000000000000000007bffffffffffffffffffffffffffffffffffffffffffffffffffffffff19166020820180517bffffffffffffffffffffffffffffffffffffffffffffffffffffffff838183161783525050505090505f5f5f5f9054906101000a900473ffffffffffffffffffffffffffffffffffffffff1673ffffffffffffffffffffffffffffffffffffffff168360405161075e919061132a565b5f604051808303815f865af19150503d805f8114610797576040519150601f19603f3d011682016040523d82523d5f602084013e61079c565b606091505b50915091508181945094505050509091565b5f60605f60d56040516024016107c491906112d7565b6040516020818303038152906040527f29e99f07000000000000000000000000000000000000000000000000000000007bffffffffffffffffffffffffffffffffffffffffffffffffffffffff19166020820180517bffffffffffffffffffffffffffffffffffffffffffffffffffffffff838183161783525050505090505f5f5f5f9054906101000a900473ffffffffffffffffffffffffffffffffffffffff1673ffffffffffffffffffffffffffffffffffffffff168360405161088a919061132a565b5f604051808303815f865af19150503d805f81146108c3576040519150601f19603f3d011682016040523d82523d5f602084013e6108c8565b606091505b50915091508181945094505050509091565b5f47905090565b565b5f60605f60d56040516024016108f991906112d7565b6040516020818303038152906040527f19ae8994000000000000000000000000000000000000000000000000000000007bffffffffffffffffffffffffffffffffffffffffffffffffffffffff19166020820180517bffffffffffffffffffffffffffffffffffffffffffffffffffffffff838183161783525050505090505f5f5f5f9054906101000a900473ffffffffffffffffffffffffffffffffffffffff1673ffffffffffffffffffffffffffffffffffffffff1634846040516109c0919061132a565b5f6040518083038185875af1925050503d805f81146109fa576040519150601f19603f3d011682016040523d82523d5f602084013e6109ff565b606091505b50915091508181945094505050509091565b5f60605f5f5f5f9054906101000a900473ffffffffffffffffffffffffffffffffffffffff1673ffffffffffffffffffffffffffffffffffffffff165f604051610a5a9061155f565b5f6040518083038185875af1925050503d805f8114610a94576040519150601f19603f3d011682016040523d82523d5f602084013e610a99565b606091505b509150915081819350935050509091565b5f60605f60d5604051602401610ac091906112d7565b6040516020818303038152906040527f29e99f07000000000000000000000000000000000000000000000000000000007bffffffffffffffffffffffffffffffffffffffffffffffffffffffff19166020820180517bffffffffffffffffffffffffffffffffffffffffffffffffffffffff838183161783525050505090505f5f5f5f9054906101000a900473ffffffffffffffffffffffffffffffffffffffff1673ffffffffffffffffffffffffffffffffffffffff1683604051610b86919061132a565b5f604051808303815f865af19150503d805f8114610bbf576040519150601f19603f3d011682016040523d82523d5f602084013e610bc4565b606091505b50915091508181945094505050509091565b5f5f9054906101000a900473ffffffffffffffffffffffffffffffffffffffff1673ffffffffffffffffffffffffffffffffffffffff1663caf4468360d56040518263ffffffff1660e01b8152600401610c309190611370565b5f604051808303815f875af1158015610c4b573d5f5f3e3d5ffd5b505050506040513d5f823e3d601f19601f82011682018060405250810190610c7391906114e2565b5050565b5f60605f60d5604051602401610c8d91906112d7565b6040516020818303038152906040527f19ae8994000000000000000000000000000000000000000000000000000000007bffffffffffffffffffffffffffffffffffffffffffffffffffffffff19166020820180517bffffffffffffffffffffffffffffffffffffffffffffffffffffffff838183161783525050505090505f5f5f5f9054906101000a900473ffffffffffffffffffffffffffffffffffffffff1673ffffffffffffffffffffffffffffffffffffffff1683604051610d53919061132a565b5f604051808303815f865af19150503d805f8114610d8c576040519150601f19603f3d011682016040523d82523d5f602084013e610d91565b606091505b50915091508181945094505050509091565b5f60605f5f5f5f9054906101000a900473ffffffffffffffffffffffffffffffffffffffff1673ffffffffffffffffffffffffffffffffffffffff16671bc16d674ec80000604051610df49061155f565b5f6040518083038185875af1925050503d805f8114610e2e576040519150601f19603f3d011682016040523d82523d5f602084013e610e33565b606091505b509150915081819350935050509091565b5f5f5f9054906101000a900473ffffffffffffffffffffffffffffffffffffffff1673ffffffffffffffffffffffffffffffffffffffff166108fc671bc16d674ec8000090811502906040515f60405180830381858888f19350505050158015610eb0573d5f5f3e3d5ffd5b506001905090565b5f5f5f9054906101000a900473ffffffffffffffffffffffffffffffffffffffff1673ffffffffffffffffffffffffffffffffffffffff166108fc5f90811502906040515f60405180830381858888f19350505050158015610f1c573d5f5f3e3d5ffd5b506001905090565b5f34905090565b5f60605f60d5604051602401610f4191906112d7565b6040516020818303038152906040527fcaf44683000000000000000000000000000000000000000000000000000000007bffffffffffffffffffffffffffffffffffffffffffffffffffffffff19166020820180517bffffffffffffffffffffffffffffffffffffffffffffffffffffffff838183161783525050505090505f5f5f5f9054906101000a900473ffffffffffffffffffffffffffffffffffffffff1673ffffffffffffffffffffffffffffffffffffffff163484604051611008919061132a565b5f6040518083038185875af1925050503d805f8114611042576040519150601f19603f3d011682016040523d82523d5f602084013e611047565b606091505b50915091508181945094505050509091565b5f60605f60d560405160240161106f91906112d7565b6040516020818303038152906040527f29e99f07000000000000000000000000000000000000000000000000000000007bffffffffffffffffffffffffffffffffffffffffffffffffffffffff19166020820180517bffffffffffffffffffffffffffffffffffffffffffffffffffffffff838183161783525050505090505f5f5f5f9054906101000a900473ffffffffffffffffffffffffffffffffffffffff1673ffffffffffffffffffffffffffffffffffffffff163484604051611136919061132a565b5f6040518083038185875af1925050503d805f8114611170576040519150601f19603f3d011682016040523d82523d5f602084013e611175565b606091505b50915091508181945094505050509091565b5f8115159050919050565b61119b81611187565b82525050565b5f81519050919050565b5f82825260208201905092915050565b8281835e5f83830152505050565b5f601f19601f8301169050919050565b5f6111e3826111a1565b6111ed81856111ab565b93506111fd8185602086016111bb565b611206816111c9565b840191505092915050565b5f6040820190506112245f830185611192565b818103602083015261123681846111d9565b90509392505050565b5f6020820190506112525f830184611192565b92915050565b5f819050919050565b61126a81611258565b82525050565b5f6020820190506112835f830184611261565b92915050565b5f819050919050565b5f60ff82169050919050565b5f819050919050565b5f6112c16112bc6112b784611289565b61129e565b611292565b9050919050565b6112d1816112a7565b82525050565b5f6020820190506112ea5f8301846112c8565b92915050565b5f81905092915050565b5f611304826111a1565b61130e81856112f0565b935061131e8185602086016111bb565b80840191505092915050565b5f61133582846112fa565b915081905092915050565b5f61135a61135561135084611289565b61129e565b611258565b9050919050565b61136a81611340565b82525050565b5f6020820190506113835f830184611361565b92915050565b5f604051905090565b5f5ffd5b5f5ffd5b5f5ffd5b5f5ffd5b7f4e487b71000000000000000000000000000000000000000000000000000000005f52604160045260245ffd5b6113d8826111c9565b810181811067ffffffffffffffff821117156113f7576113f66113a2565b5b80604052505050565b5f611409611389565b905061141582826113cf565b919050565b5f67ffffffffffffffff821115611434576114336113a2565b5b61143d826111c9565b9050602081019050919050565b5f61145c6114578461141a565b611400565b9050828152602081018484840111156114785761147761139e565b5b6114838482856111bb565b509392505050565b5f82601f83011261149f5761149e61139a565b5b81516114af84826020860161144a565b91505092915050565b6114c181611258565b81146114cb575f5ffd5b50565b5f815190506114dc816114b8565b92915050565b5f5f604083850312156114f8576114f7611392565b5b5f83015167ffffffffffffffff81111561151557611514611396565b5b6115218582860161148b565b9250506020611532858286016114ce565b9150509250929050565b50565b5f61154a5f836112f0565b91506115558261153c565b5f82019050919050565b5f6115698261153f565b915081905091905056fea26469706673582212203b0baf85decec2a3e4566faed279c7f2f66d7674806fc16b4997332aa18ba72b64736f6c634300081e0033",
			"opcodes": "PUSH1 0x80 PUSH1 0x40 MSTORE PUSH1 0x40 MLOAD PUSH2 0x16A9 CODESIZE SUB DUP1 PUSH2 0x16A9 DUP4 CODECOPY DUP2 DUP2 ADD PUSH1 0x40 MSTORE DUP2 ADD SWAP1 PUSH2 0x25 SWAP2 SWAP1 PUSH2 0xC8 JUMP JUMPDEST DUP1 PUSH0 PUSH0 PUSH2 0x100 EXP DUP2 SLOAD DUP2 PUSH20 0xFFFFFFFFFFFFFFFFFFFFFFFFFFFFFFFFFFFFFFFF MUL NOT AND SWAP1 DUP4 PUSH20 0xFFFFFFFFFFFFFFFFFFFFFFFFFFFFFFFFFFFFFFFF AND MUL OR SWAP1 SSTORE POP POP PUSH2 0xF3 JUMP JUMPDEST PUSH0 PUSH0 REVERT JUMPDEST PUSH0 PUSH20 0xFFFFFFFFFFFFFFFFFFFFFFFFFFFFFFFFFFFFFFFF DUP3 AND SWAP1 POP SWAP2 SWAP1 POP JUMP JUMPDEST PUSH0 PUSH2 0x97 DUP3 PUSH2 0x6E JUMP JUMPDEST SWAP1 POP SWAP2 SWAP1 POP JUMP JUMPDEST PUSH2 0xA7 DUP2 PUSH2 0x8D JUMP JUMPDEST DUP2 EQ PUSH2 0xB1 JUMPI PUSH0 PUSH0 REVERT JUMPDEST POP JUMP JUMPDEST PUSH0 DUP2 MLOAD SWAP1 POP PUSH2 0xC2 DUP2 PUSH2 0x9E JUMP JUMPDEST SWAP3 SWAP2 POP POP JUMP JUMPDEST PUSH0 PUSH1 0x20 DUP3 DUP5 SUB SLT ISZERO PUSH2 0xDD JUMPI PUSH2 0xDC PUSH2 0x6A JUMP JUMPDEST JUMPDEST PUSH0 PUSH2 0xEA DUP5 DUP3 DUP6 ADD PUSH2 0xB4 JUMP JUMPDEST SWAP2 POP POP SWAP3 SWAP2 POP POP JUMP JUMPDEST PUSH2 0x15A9 DUP1 PUSH2 0x100 PUSH0 CODECOPY PUSH0 RETURN INVALID PUSH1 0x80 PUSH1 0x40 MSTORE PUSH1 0x4 CALLDATASIZE LT PUSH2 0x129 JUMPI PUSH0 CALLDATALOAD PUSH1 0xE0 SHR DUP1 PUSH4 0x8B84610C GT PUSH2 0xAA JUMPI DUP1 PUSH4 0xCD4ECBBE GT PUSH2 0x6E JUMPI DUP1 PUSH4 0xCD4ECBBE EQ PUSH2 0x2B3 JUMPI DUP1 PUSH4 0xDB73D515 EQ PUSH2 0x2D2 JUMPI DUP1 PUSH4 0xDFDE0226 EQ PUSH2 0x2F0 JUMPI DUP1 PUSH4 0xF6A15805 EQ PUSH2 0x30E JUMPI DUP1 PUSH4 0xF96F435B EQ PUSH2 0x32C JUMPI DUP1 PUSH4 0xFFD6F100 EQ PUSH2 0x34B JUMPI PUSH2 0x129 JUMP JUMPDEST DUP1 PUSH4 0x8B84610C EQ PUSH2 0x22D JUMPI DUP1 PUSH4 0x8FCF5D96 EQ PUSH2 0x24C JUMPI DUP1 PUSH4 0xAFC505C2 EQ PUSH2 0x26B JUMPI DUP1 PUSH4 0xB4518ECE EQ PUSH2 0x28A JUMPI DUP1 PUSH4 0xB94CCC1E EQ PUSH2 0x294 JUMPI PUSH2 0x129 JUMP JUMPDEST DUP1 PUSH4 0x75BAFD2A GT PUSH2 0xF1 JUMPI DUP1 PUSH4 0x75BAFD2A EQ PUSH2 0x1BD JUMPI DUP1 PUSH4 0x7843FEF4 EQ PUSH2 0x1C7 JUMPI DUP1 PUSH4 0x793F6E73 EQ PUSH2 0x1E6 JUMPI DUP1 PUSH4 0x7E1B3ABF EQ PUSH2 0x205 JUMPI DUP1 PUSH4 0x8200ADBD EQ PUSH2 0x223 JUMPI PUSH2 0x129 JUMP JUMPDEST DUP1 PUSH4 0xF5F848F EQ PUSH2 0x12D JUMPI DUP1 PUSH4 0x13C9030D EQ PUSH2 0x14C JUMPI DUP1 PUSH4 0x1DABD7CD EQ PUSH2 0x176 JUMPI DUP1 PUSH4 0x2B15F51C EQ PUSH2 0x180 JUMPI DUP1 PUSH4 0x4C986871 EQ PUSH2 0x19F JUMPI JUMPDEST PUSH0 PUSH0 REVERT JUMPDEST PUSH2 0x135 PUSH2 0x36A JUMP JUMPDEST PUSH1 0x40 MLOAD PUSH2 0x143 SWAP3 SWAP2 SWAP1 PUSH2 0x1211 JUMP JUMPDEST PUSH1 0x40 MLOAD DUP1 SWAP2 SUB SWAP1 RETURN JUMPDEST CALLVALUE DUP1 ISZERO PUSH2 0x157 JUMPI PUSH0 PUSH0 REVERT JUMPDEST POP PUSH2 0x160 PUSH2 0x498 JUMP JUMPDEST PUSH1 0x40 MLOAD PUSH2 0x16D SWAP2 SWAP1 PUSH2 0x123F JUMP JUMPDEST PUSH1 0x40 MLOAD DUP1 SWAP2 SUB SWAP1 RETURN JUMPDEST PUSH2 0x17E PUSH2 0x4A0 JUMP JUMPDEST STOP JUMPDEST PUSH2 0x188 PUSH2 0x543 JUMP JUMPDEST PUSH1 0x40 MLOAD PUSH2 0x196 SWAP3 SWAP2 SWAP1 PUSH2 0x1211 JUMP JUMPDEST PUSH1 0x40 MLOAD DUP1 SWAP2 SUB SWAP1 RETURN JUMPDEST PUSH2 0x1A7 PUSH2 0x5DA JUMP JUMPDEST PUSH1 0x40 MLOAD PUSH2 0x1B4 SWAP2 SWAP1 PUSH2 0x123F JUMP JUMPDEST PUSH1 0x40 MLOAD DUP1 SWAP2 SUB SWAP1 RETURN JUMPDEST PUSH2 0x1C5 PUSH2 0x5E2 JUMP JUMPDEST STOP JUMPDEST PUSH2 0x1CF PUSH2 0x682 JUMP JUMPDEST PUSH1 0x40 MLOAD PUSH2 0x1DD SWAP3 SWAP2 SWAP1 PUSH2 0x1211 JUMP JUMPDEST PUSH1 0x40 MLOAD DUP1 SWAP2 SUB SWAP1 RETURN JUMPDEST PUSH2 0x1EE PUSH2 0x7AE JUMP JUMPDEST PUSH1 0x40 MLOAD PUSH2 0x1FC SWAP3 SWAP2 SWAP1 PUSH2 0x1211 JUMP JUMPDEST PUSH1 0x40 MLOAD DUP1 SWAP2 SUB SWAP1 RETURN JUMPDEST PUSH2 0x20D PUSH2 0x8DA JUMP JUMPDEST PUSH1 0x40 MLOAD PUSH2 0x21A SWAP2 SWAP1 PUSH2 0x1270 JUMP JUMPDEST PUSH1 0x40 MLOAD DUP1 SWAP2 SUB SWAP1 RETURN JUMPDEST PUSH2 0x22B PUSH2 0x8E1 JUMP JUMPDEST STOP JUMPDEST PUSH2 0x235 PUSH2 0x8E3 JUMP JUMPDEST PUSH1 0x40 MLOAD PUSH2 0x243 SWAP3 SWAP2 SWAP1 PUSH2 0x1211 JUMP JUMPDEST PUSH1 0x40 MLOAD DUP1 SWAP2 SUB SWAP1 RETURN JUMPDEST PUSH2 0x254 PUSH2 0xA11 JUMP JUMPDEST PUSH1 0x40 MLOAD PUSH2 0x262 SWAP3 SWAP2 SWAP1 PUSH2 0x1211 JUMP JUMPDEST PUSH1 0x40 MLOAD DUP1 SWAP2 SUB SWAP1 RETURN JUMPDEST PUSH2 0x273 PUSH2 0xAAA JUMP JUMPDEST PUSH1 0x40 MLOAD PUSH2 0x281 SWAP3 SWAP2 SWAP1 PUSH2 0x1211 JUMP JUMPDEST PUSH1 0x40 MLOAD DUP1 SWAP2 SUB SWAP1 RETURN JUMPDEST PUSH2 0x292 PUSH2 0xBD6 JUMP JUMPDEST STOP JUMPDEST PUSH2 0x29C PUSH2 0xC77 JUMP JUMPDEST PUSH1 0x40 MLOAD PUSH2 0x2AA SWAP3 SWAP2 SWAP1 PUSH2 0x1211 JUMP JUMPDEST PUSH1 0x40 MLOAD DUP1 SWAP2 SUB SWAP1 RETURN JUMPDEST PUSH2 0x2BB PUSH2 0xDA3 JUMP JUMPDEST PUSH1 0x40 MLOAD PUSH2 0x2C9 SWAP3 SWAP2 SWAP1 PUSH2 0x1211 JUMP JUMPDEST PUSH1 0x40 MLOAD DUP1 SWAP2 SUB SWAP1 RETURN JUMPDEST PUSH2 0x2DA PUSH2 0xE44 JUMP JUMPDEST PUSH1 0x40 MLOAD PUSH2 0x2E7 SWAP2 SWAP1 PUSH2 0x123F JUMP JUMPDEST PUSH1 0x40 MLOAD DUP1 SWAP2 SUB SWAP1 RETURN JUMPDEST PUSH2 0x2F8 PUSH2 0xEB8 JUMP JUMPDEST PUSH1 0x40 MLOAD PUSH2 0x305 SWAP2 SWAP1 PUSH2 0x123F JUMP JUMPDEST PUSH1 0x40 MLOAD DUP1 SWAP2 SUB SWAP1 RETURN JUMPDEST PUSH2 0x316 PUSH2 0xF24 JUMP JUMPDEST PUSH1 0x40 MLOAD PUSH2 0x323 SWAP2 SWAP1 PUSH2 0x1270 JUMP JUMPDEST PUSH1 0x40 MLOAD DUP1 SWAP2 SUB SWAP1 RETURN JUMPDEST PUSH2 0x334 PUSH2 0xF2B JUMP JUMPDEST PUSH1 0x40 MLOAD PUSH2 0x342 SWAP3 SWAP2 SWAP1 PUSH2 0x1211 JUMP JUMPDEST PUSH1 0x40 MLOAD DUP1 SWAP2 SUB SWAP1 RETURN JUMPDEST PUSH2 0x353 PUSH2 0x1059 JUMP JUMPDEST PUSH1 0x40 MLOAD PUSH2 0x361 SWAP3 SWAP2 SWAP1 PUSH2 0x1211 JUMP JUMPDEST PUSH1 0x40 MLOAD DUP1 SWAP2 SUB SWAP1 RETURN JUMPDEST PUSH0 PUSH1 0x60 PUSH0 PUSH1 0xD5 PUSH1 0x40 MLOAD PUSH1 0x24 ADD PUSH2 0x380 SWAP2 SWAP1 PUSH2 0x12D7 JUMP JUMPDEST PUSH1 0x40 MLOAD PUSH1 0x20 DUP2 DUP4 SUB SUB DUP2 MSTORE SWAP1 PUSH1 0x40 MSTORE PUSH32 0x29E99F0700000000000000000000000000000000000000000000000000000000 PUSH28 0xFFFFFFFFFFFFFFFFFFFFFFFFFFFFFFFFFFFFFFFFFFFFFFFFFFFFFFFF NOT AND PUSH1 0x20 DUP3 ADD DUP1 MLOAD PUSH28 0xFFFFFFFFFFFFFFFFFFFFFFFFFFFFFFFFFFFFFFFFFFFFFFFFFFFFFFFF DUP4 DUP2 DUP4 AND OR DUP4 MSTORE POP POP POP POP SWAP1 POP PUSH0 PUSH0 PUSH0 PUSH0 SWAP1 SLOAD SWAP1 PUSH2 0x100 EXP SWAP1 DIV PUSH20 0xFFFFFFFFFFFFFFFFFFFFFFFFFFFFFFFFFFFFFFFF AND PUSH20 0xFFFFFFFFFFFFFFFFFFFFFFFFFFFFFFFFFFFFFFFF AND CALLVALUE DUP5 PUSH1 0x40 MLOAD PUSH2 0x447 SWAP2 SWAP1 PUSH2 0x132A JUMP JUMPDEST PUSH0 PUSH1 0x40 MLOAD DUP1 DUP4 SUB DUP2 DUP6 DUP8 GAS CALL SWAP3 POP POP POP RETURNDATASIZE DUP1 PUSH0 DUP2 EQ PUSH2 0x481 JUMPI PUSH1 0x40 MLOAD SWAP2 POP PUSH1 0x1F NOT PUSH1 0x3F RETURNDATASIZE ADD AND DUP3 ADD PUSH1 0x40 MSTORE RETURNDATASIZE DUP3 MSTORE RETURNDATASIZE PUSH0 PUSH1 0x20 DUP5 ADD RETURNDATACOPY PUSH2 0x486 JUMP JUMPDEST PUSH1 0x60 SWAP2 POP JUMPDEST POP SWAP2 POP SWAP2 POP DUP2 DUP2 SWAP5 POP SWAP5 POP POP POP POP SWAP1 SWAP2 JUMP JUMPDEST PUSH0 PUSH1 0x1 SWAP1 POP SWAP1 JUMP JUMPDEST PUSH0 PUSH0 SWAP1 SLOAD SWAP1 PUSH2 0x100 EXP SWAP1 DIV PUSH20 0xFFFFFFFFFFFFFFFFFFFFFFFFFFFFFFFFFFFFFFFF AND PUSH20 0xFFFFFFFFFFFFFFFFFFFFFFFFFFFFFFFFFFFFFFFF AND PUSH4 0xCAF44683 CALLVALUE PUSH1 0xD5 PUSH1 0x40 MLOAD DUP4 PUSH4 0xFFFFFFFF AND PUSH1 0xE0 SHL DUP2 MSTORE PUSH1 0x4 ADD PUSH2 0x4FB SWAP2 SWAP1 PUSH2 0x1370 JUMP JUMPDEST PUSH0 PUSH1 0x40 MLOAD DUP1 DUP4 SUB DUP2 DUP6 DUP9 GAS CALL ISZERO DUP1 ISZERO PUSH2 0x516 JUMPI RETURNDATASIZE PUSH0 PUSH0 RETURNDATACOPY RETURNDATASIZE PUSH0 REVERT JUMPDEST POP POP POP POP POP PUSH1 0x40 MLOAD RETURNDATASIZE PUSH0 DUP3 RETURNDATACOPY RETURNDATASIZE PUSH1 0x1F NOT PUSH1 0x1F DUP3 ADD AND DUP3 ADD DUP1 PUSH1 0x40 MSTORE POP DUP2 ADD SWAP1 PUSH2 0x53F SWAP2 SWAP1 PUSH2 0x14E2 JUMP JUMPDEST POP POP JUMP JUMPDEST PUSH0 PUSH1 0x60 PUSH0 PUSH0 PUSH0 PUSH0 SWAP1 SLOAD SWAP1 PUSH2 0x100 EXP SWAP1 DIV PUSH20 0xFFFFFFFFFFFFFFFFFFFFFFFFFFFFFFFFFFFFFFFF AND PUSH20 0xFFFFFFFFFFFFFFFFFFFFFFFFFFFFFFFFFFFFFFFF AND PUSH1 0x40 MLOAD PUSH2 0x58B SWAP1 PUSH2 0x155F JUMP JUMPDEST PUSH0 PUSH1 0x40 MLOAD DUP1 DUP4 SUB DUP2 PUSH0 DUP7 GAS CALL SWAP2 POP POP RETURNDATASIZE DUP1 PUSH0 DUP2 EQ PUSH2 0x5C4 JUMPI PUSH1 0x40 MLOAD SWAP2 POP PUSH1 0x1F NOT PUSH1 0x3F RETURNDATASIZE ADD AND DUP3 ADD PUSH1 0x40 MSTORE RETURNDATASIZE DUP3 MSTORE RETURNDATASIZE PUSH0 PUSH1 0x20 DUP5 ADD RETURNDATACOPY PUSH2 0x5C9 JUMP JUMPDEST PUSH1 0x60 SWAP2 POP JUMPDEST POP SWAP2 POP SWAP2 POP DUP2 DUP2 SWAP4 POP SWAP4 POP POP POP SWAP1 SWAP2 JUMP JUMPDEST PUSH0 PUSH1 0x1 SWAP1 POP SWAP1 JUMP JUMPDEST PUSH0 PUSH0 SWAP1 SLOAD SWAP1 PUSH2 0x100 EXP SWAP1 DIV PUSH20 0xFFFFFFFFFFFFFFFFFFFFFFFFFFFFFFFFFFFFFFFF AND PUSH20 0xFFFFFFFFFFFFFFFFFFFFFFFFFFFFFFFFFFFFFFFF AND PUSH4 0x19AE8994 PUSH1 0xD5 PUSH1 0x40 MLOAD DUP3 PUSH4 0xFFFFFFFF AND PUSH1 0xE0 SHL DUP2 MSTORE PUSH1 0x4 ADD PUSH2 0x63C SWAP2 SWAP1 PUSH2 0x1370 JUMP JUMPDEST PUSH0 PUSH1 0x40 MLOAD DUP1 DUP4 SUB DUP2 DUP7 GAS STATICCALL ISZERO DUP1 ISZERO PUSH2 0x656 JUMPI RETURNDATASIZE PUSH0 PUSH0 RETURNDATACOPY RETURNDATASIZE PUSH0 REVERT JUMPDEST POP POP POP POP PUSH1 0x40 MLOAD RETURNDATASIZE PUSH0 DUP3 RETURNDATACOPY RETURNDATASIZE PUSH1 0x1F NOT PUSH1 0x1F DUP3 ADD AND DUP3 ADD DUP1 PUSH1 0x40 MSTORE POP DUP2 ADD SWAP1 PUSH2 0x67E SWAP2 SWAP1 PUSH2 0x14E2 JUMP JUMPDEST POP POP JUMP JUMPDEST PUSH0 PUSH1 0x60 PUSH0 PUSH1 0xD5 PUSH1 0x40 MLOAD PUSH1 0x24 ADD PUSH2 0x698 SWAP2 SWAP1 PUSH2 0x12D7 JUMP JUMPDEST PUSH1 0x40 MLOAD PUSH1 0x20 DUP2 DUP4 SUB SUB DUP2 MSTORE SWAP1 PUSH1 0x40 MSTORE PUSH32 0xCAF4468300000000000000000000000000000000000000000000000000000000 PUSH28 0xFFFFFFFFFFFFFFFFFFFFFFFFFFFFFFFFFFFFFFFFFFFFFFFFFFFFFFFF NOT AND PUSH1 0x20 DUP3 ADD DUP1 MLOAD PUSH28 0xFFFFFFFFFFFFFFFFFFFFFFFFFFFFFFFFFFFFFFFFFFFFFFFFFFFFFFFF DUP4 DUP2 DUP4 AND OR DUP4 MSTORE POP POP POP POP SWAP1 POP PUSH0 PUSH0 PUSH0 PUSH0 SWAP1 SLOAD SWAP1 PUSH2 0x100 EXP SWAP1 DIV PUSH20 0xFFFFFFFFFFFFFFFFFFFFFFFFFFFFFFFFFFFFFFFF AND PUSH20 0xFFFFFFFFFFFFFFFFFFFFFFFFFFFFFFFFFFFFFFFF AND DUP4 PUSH1 0x40 MLOAD PUSH2 0x75E SWAP2 SWAP1 PUSH2 0x132A JUMP JUMPDEST PUSH0 PUSH1 0x40 MLOAD DUP1 DUP4 SUB DUP2 PUSH0 DUP7 GAS CALL SWAP2 POP POP RETURNDATASIZE DUP1 PUSH0 DUP2 EQ PUSH2 0x797 JUMPI PUSH1 0x40 MLOAD SWAP2 POP PUSH1 0x1F NOT PUSH1 0x3F RETURNDATASIZE ADD AND DUP3 ADD PUSH1 0x40 MSTORE RETURNDATASIZE DUP3 MSTORE RETURNDATASIZE PUSH0 PUSH1 0x20 DUP5 ADD RETURNDATACOPY PUSH2 0x79C JUMP JUMPDEST PUSH1 0x60 SWAP2 POP JUMPDEST POP SWAP2 POP SWAP2 POP DUP2 DUP2 SWAP5 POP SWAP5 POP POP POP POP SWAP1 SWAP2 JUMP JUMPDEST PUSH0 PUSH1 0x60 PUSH0 PUSH1 0xD5 PUSH1 0x40 MLOAD PUSH1 0x24 ADD PUSH2 0x7C4 SWAP2 SWAP1 PUSH2 0x12D7 JUMP JUMPDEST PUSH1 0x40 MLOAD PUSH1 0x20 DUP2 DUP4 SUB SUB DUP2 MSTORE SWAP1 PUSH1 0x40 MSTORE PUSH32 0x29E99F0700000000000000000000000000000000000000000000000000000000 PUSH28 0xFFFFFFFFFFFFFFFFFFFFFFFFFFFFFFFFFFFFFFFFFFFFFFFFFFFFFFFF NOT AND PUSH1 0x20 DUP3 ADD DUP1 MLOAD PUSH28 0xFFFFFFFFFFFFFFFFFFFFFFFFFFFFFFFFFFFFFFFFFFFFFFFFFFFFFFFF DUP4 DUP2 DUP4 AND OR DUP4 MSTORE POP POP POP POP SWAP1 POP PUSH0 PUSH0 PUSH0 PUSH0 SWAP1 SLOAD SWAP1 PUSH2 0x100 EXP SWAP1 DIV PUSH20 0xFFFFFFFFFFFFFFFFFFFFFFFFFFFFFFFFFFFFFFFF AND PUSH20 0xFFFFFFFFFFFFFFFFFFFFFFFFFFFFFFFFFFFFFFFF AND DUP4 PUSH1 0x40 MLOAD PUSH2 0x88A SWAP2 SWAP1 PUSH2 0x132A JUMP JUMPDEST PUSH0 PUSH1 0x40 MLOAD DUP1 DUP4 SUB DUP2 PUSH0 DUP7 GAS CALL SWAP2 POP POP RETURNDATASIZE DUP1 PUSH0 DUP2 EQ PUSH2 0x8C3 JUMPI PUSH1 0x40 MLOAD SWAP2 POP PUSH1 0x1F NOT PUSH1 0x3F RETURNDATASIZE ADD AND DUP3 ADD PUSH1 0x40 MSTORE RETURNDATASIZE DUP3 MSTORE RETURNDATASIZE PUSH0 PUSH1 0x20 DUP5 ADD RETURNDATACOPY PUSH2 0x8C8 JUMP JUMPDEST PUSH1 0x60 SWAP2 POP JUMPDEST POP SWAP2 POP SWAP2 POP DUP2 DUP2 SWAP5 POP SWAP5 POP POP POP POP SWAP1 SWAP2 JUMP JUMPDEST PUSH0 SELFBALANCE SWAP1 POP SWAP1 JUMP JUMPDEST JUMP JUMPDEST PUSH0 PUSH1 0x60 PUSH0 PUSH1 0xD5 PUSH1 0x40 MLOAD PUSH1 0x24 ADD PUSH2 0x8F9 SWAP2 SWAP1 PUSH2 0x12D7 JUMP JUMPDEST PUSH1 0x40 MLOAD PUSH1 0x20 DUP2 DUP4 SUB SUB DUP2 MSTORE SWAP1 PUSH1 0x40 MSTORE PUSH32 0x19AE899400000000000000000000000000000000000000000000000000000000 PUSH28 0xFFFFFFFFFFFFFFFFFFFFFFFFFFFFFFFFFFFFFFFFFFFFFFFFFFFFFFFF NOT AND PUSH1 0x20 DUP3 ADD DUP1 MLOAD PUSH28 0xFFFFFFFFFFFFFFFFFFFFFFFFFFFFFFFFFFFFFFFFFFFFFFFFFFFFFFFF DUP4 DUP2 DUP4 AND OR DUP4 MSTORE POP POP POP POP SWAP1 POP PUSH0 PUSH0 PUSH0 PUSH0 SWAP1 SLOAD SWAP1 PUSH2 0x100 EXP SWAP1 DIV PUSH20 0xFFFFFFFFFFFFFFFFFFFFFFFFFFFFFFFFFFFFFFFF AND PUSH20 0xFFFFFFFFFFFFFFFFFFFFFFFFFFFFFFFFFFFFFFFF AND CALLVALUE DUP5 PUSH1 0x40 MLOAD PUSH2 0x9C0 SWAP2 SWAP1 PUSH2 0x132A JUMP JUMPDEST PUSH0 PUSH1 0x40 MLOAD DUP1 DUP4 SUB DUP2 DUP6 DUP8 GAS CALL SWAP3 POP POP POP RETURNDATASIZE DUP1 PUSH0 DUP2 EQ PUSH2 0x9FA JUMPI PUSH1 0x40 MLOAD SWAP2 POP PUSH1 0x1F NOT PUSH1 0x3F RETURNDATASIZE ADD AND DUP3 ADD PUSH1 0x40 MSTORE RETURNDATASIZE DUP3 MSTORE RETURNDATASIZE PUSH0 PUSH1 0x20 DUP5 ADD RETURNDATACOPY PUSH2 0x9FF JUMP JUMPDEST PUSH1 0x60 SWAP2 POP JUMPDEST POP SWAP2 POP SWAP2 POP DUP2 DUP2 SWAP5 POP SWAP5 POP POP POP POP SWAP1 SWAP2 JUMP JUMPDEST PUSH0 PUSH1 0x60 PUSH0 PUSH0 PUSH0 PUSH0 SWAP1 SLOAD SWAP1 PUSH2 0x100 EXP SWAP1 DIV PUSH20 0xFFFFFFFFFFFFFFFFFFFFFFFFFFFFFFFFFFFFFFFF AND PUSH20 0xFFFFFFFFFFFFFFFFFFFFFFFFFFFFFFFFFFFFFFFF AND PUSH0 PUSH1 0x40 MLOAD PUSH2 0xA5A SWAP1 PUSH2 0x155F JUMP JUMPDEST PUSH0 PUSH1 0x40 MLOAD DUP1 DUP4 SUB DUP2 DUP6 DUP8 GAS CALL SWAP3 POP POP POP RETURNDATASIZE DUP1 PUSH0 DUP2 EQ PUSH2 0xA94 JUMPI PUSH1 0x40 MLOAD SWAP2 POP PUSH1 0x1F NOT PUSH1 0x3F RETURNDATASIZE ADD AND DUP3 ADD PUSH1 0x40 MSTORE RETURNDATASIZE DUP3 MSTORE RETURNDATASIZE PUSH0 PUSH1 0x20 DUP5 ADD RETURNDATACOPY PUSH2 0xA99 JUMP JUMPDEST PUSH1 0x60 SWAP2 POP JUMPDEST POP SWAP2 POP SWAP2 POP DUP2 DUP2 SWAP4 POP SWAP4 POP POP POP SWAP1 SWAP2 JUMP JUMPDEST PUSH0 PUSH1 0x60 PUSH0 PUSH1 0xD5 PUSH1 0x40 MLOAD PUSH1 0x24 ADD PUSH2 0xAC0 SWAP2 SWAP1 PUSH2 0x12D7 JUMP JUMPDEST PUSH1 0x40 MLOAD PUSH1 0x20 DUP2 DUP4 SUB SUB DUP2 MSTORE SWAP1 PUSH1 0x40 MSTORE PUSH32 0x29E99F0700000000000000000000000000000000000000000000000000000000 PUSH28 0xFFFFFFFFFFFFFFFFFFFFFFFFFFFFFFFFFFFFFFFFFFFFFFFFFFFFFFFF NOT AND PUSH1 0x20 DUP3 ADD DUP1 MLOAD PUSH28 0xFFFFFFFFFFFFFFFFFFFFFFFFFFFFFFFFFFFFFFFFFFFFFFFFFFFFFFFF DUP4 DUP2 DUP4 AND OR DUP4 MSTORE POP POP POP POP SWAP1 POP PUSH0 PUSH0 PUSH0 PUSH0 SWAP1 SLOAD SWAP1 PUSH2 0x100 EXP SWAP1 DIV PUSH20 0xFFFFFFFFFFFFFFFFFFFFFFFFFFFFFFFFFFFFFFFF AND PUSH20 0xFFFFFFFFFFFFFFFFFFFFFFFFFFFFFFFFFFFFFFFF AND DUP4 PUSH1 0x40 MLOAD PUSH2 0xB86 SWAP2 SWAP1 PUSH2 0x132A JUMP JUMPDEST PUSH0 PUSH1 0x40 MLOAD DUP1 DUP4 SUB DUP2 PUSH0 DUP7 GAS CALL SWAP2 POP POP RETURNDATASIZE DUP1 PUSH0 DUP2 EQ PUSH2 0xBBF JUMPI PUSH1 0x40 MLOAD SWAP2 POP PUSH1 0x1F NOT PUSH1 0x3F RETURNDATASIZE ADD AND DUP3 ADD PUSH1 0x40 MSTORE RETURNDATASIZE DUP3 MSTORE RETURNDATASIZE PUSH0 PUSH1 0x20 DUP5 ADD RETURNDATACOPY PUSH2 0xBC4 JUMP JUMPDEST PUSH1 0x60 SWAP2 POP JUMPDEST POP SWAP2 POP SWAP2 POP DUP2 DUP2 SWAP5 POP SWAP5 POP POP POP POP SWAP1 SWAP2 JUMP JUMPDEST PUSH0 PUSH0 SWAP1 SLOAD SWAP1 PUSH2 0x100 EXP SWAP1 DIV PUSH20 0xFFFFFFFFFFFFFFFFFFFFFFFFFFFFFFFFFFFFFFFF AND PUSH20 0xFFFFFFFFFFFFFFFFFFFFFFFFFFFFFFFFFFFFFFFF AND PUSH4 0xCAF44683 PUSH1 0xD5 PUSH1 0x40 MLOAD DUP3 PUSH4 0xFFFFFFFF AND PUSH1 0xE0 SHL DUP2 MSTORE PUSH1 0x4 ADD PUSH2 0xC30 SWAP2 SWAP1 PUSH2 0x1370 JUMP JUMPDEST PUSH0 PUSH1 0x40 MLOAD DUP1 DUP4 SUB DUP2 PUSH0 DUP8 GAS CALL ISZERO DUP1 ISZERO PUSH2 0xC4B JUMPI RETURNDATASIZE PUSH0 PUSH0 RETURNDATACOPY RETURNDATASIZE PUSH0 REVERT JUMPDEST POP POP POP POP PUSH1 0x40 MLOAD RETURNDATASIZE PUSH0 DUP3 RETURNDATACOPY RETURNDATASIZE PUSH1 0x1F NOT PUSH1 0x1F DUP3 ADD AND DUP3 ADD DUP1 PUSH1 0x40 MSTORE POP DUP2 ADD SWAP1 PUSH2 0xC73 SWAP2 SWAP1 PUSH2 0x14E2 JUMP JUMPDEST POP POP JUMP JUMPDEST PUSH0 PUSH1 0x60 PUSH0 PUSH1 0xD5 PUSH1 0x40 MLOAD PUSH1 0x24 ADD PUSH2 0xC8D SWAP2 SWAP1 PUSH2 0x12D7 JUMP JUMPDEST PUSH1 0x40 MLOAD PUSH1 0x20 DUP2 DUP4 SUB SUB DUP2 MSTORE SWAP1 PUSH1 0x40 MSTORE PUSH32 0x19AE899400000000000000000000000000000000000000000000000000000000 PUSH28 0xFFFFFFFFFFFFFFFFFFFFFFFFFFFFFFFFFFFFFFFFFFFFFFFFFFFFFFFF NOT AND PUSH1 0x20 DUP3 ADD DUP1 MLOAD PUSH28 0xFFFFFFFFFFFFFFFFFFFFFFFFFFFFFFFFFFFFFFFFFFFFFFFFFFFFFFFF DUP4 DUP2 DUP4 AND OR DUP4 MSTORE POP POP POP POP SWAP1 POP PUSH0 PUSH0 PUSH0 PUSH0 SWAP1 SLOAD SWAP1 PUSH2 0x100 EXP SWAP1 DIV PUSH20 0xFFFFFFFFFFFFFFFFFFFFFFFFFFFFFFFFFFFFFFFF AND PUSH20 0xFFFFFFFFFFFFFFFFFFFFFFFFFFFFFFFFFFFFFFFF AND DUP4 PUSH1 0x40 MLOAD PUSH2 0xD53 SWAP2 SWAP1 PUSH2 0x132A JUMP JUMPDEST PUSH0 PUSH1 0x40 MLOAD DUP1 DUP4 SUB DUP2 PUSH0 DUP7 GAS CALL SWAP2 POP POP RETURNDATASIZE DUP1 PUSH0 DUP2 EQ PUSH2 0xD8C JUMPI PUSH1 0x40 MLOAD SWAP2 POP PUSH1 0x1F NOT PUSH1 0x3F RETURNDATASIZE ADD AND DUP3 ADD PUSH1 0x40 MSTORE RETURNDATASIZE DUP3 MSTORE RETURNDATASIZE PUSH0 PUSH1 0x20 DUP5 ADD RETURNDATACOPY PUSH2 0xD91 JUMP JUMPDEST PUSH1 0x60 SWAP2 POP JUMPDEST POP SWAP2 POP SWAP2 POP DUP2 DUP2 SWAP5 POP SWAP5 POP POP POP POP SWAP1 SWAP2 JUMP JUMPDEST PUSH0 PUSH1 0x60 PUSH0 PUSH0 PUSH0 PUSH0 SWAP1 SLOAD SWAP1 PUSH2 0x100 EXP SWAP1 DIV PUSH20 0xFFFFFFFFFFFFFFFFFFFFFFFFFFFFFFFFFFFFFFFF AND PUSH20 0xFFFFFFFFFFFFFFFFFFFFFFFFFFFFFFFFFFFFFFFF AND PUSH8 0x1BC16D674EC80000 PUSH1 0x40 MLOAD PUSH2 0xDF4 SWAP1 PUSH2 0x155F JUMP JUMPDEST PUSH0 PUSH1 0x40 MLOAD DUP1 DUP4 SUB DUP2 DUP6 DUP8 GAS CALL SWAP3 POP POP POP RETURNDATASIZE DUP1 PUSH0 DUP2 EQ PUSH2 0xE2E JUMPI PUSH1 0x40 MLOAD SWAP2 POP PUSH1 0x1F NOT PUSH1 0x3F RETURNDATASIZE ADD AND DUP3 ADD PUSH1 0x40 MSTORE RETURNDATASIZE DUP3 MSTORE RETURNDATASIZE PUSH0 PUSH1 0x20 DUP5 ADD RETURNDATACOPY PUSH2 0xE33 JUMP JUMPDEST PUSH1 0x60 SWAP2 POP JUMPDEST POP SWAP2 POP SWAP2 POP DUP2 DUP2 SWAP4 POP SWAP4 POP POP POP SWAP1 SWAP2 JUMP JUMPDEST PUSH0 PUSH0 PUSH0 SWAP1 SLOAD SWAP1 PUSH2 0x100 EXP SWAP1 DIV PUSH20 0xFFFFFFFFFFFFFFFFFFFFFFFFFFFFFFFFFFFFFFFF AND PUSH20 0xFFFFFFFFFFFFFFFFFFFFFFFFFFFFFFFFFFFFFFFF AND PUSH2 0x8FC PUSH8 0x1BC16D674EC80000 SWAP1 DUP2 ISZERO MUL SWAP1 PUSH1 0x40 MLOAD PUSH0 PUSH1 0x40 MLOAD DUP1 DUP4 SUB DUP2 DUP6 DUP9 DUP9 CALL SWAP4 POP POP POP POP ISZERO DUP1 ISZERO PUSH2 0xEB0 JUMPI RETURNDATASIZE PUSH0 PUSH0 RETURNDATACOPY RETURNDATASIZE PUSH0 REVERT JUMPDEST POP PUSH1 0x1 SWAP1 POP SWAP1 JUMP JUMPDEST PUSH0 PUSH0 PUSH0 SWAP1 SLOAD SWAP1 PUSH2 0x100 EXP SWAP1 DIV PUSH20 0xFFFFFFFFFFFFFFFFFFFFFFFFFFFFFFFFFFFFFFFF AND PUSH20 0xFFFFFFFFFFFFFFFFFFFFFFFFFFFFFFFFFFFFFFFF AND PUSH2 0x8FC PUSH0 SWAP1 DUP2 ISZERO MUL SWAP1 PUSH1 0x40 MLOAD PUSH0 PUSH1 0x40 MLOAD DUP1 DUP4 SUB DUP2 DUP6 DUP9 DUP9 CALL SWAP4 POP POP POP POP ISZERO DUP1 ISZERO PUSH2 0xF1C JUMPI RETURNDATASIZE PUSH0 PUSH0 RETURNDATACOPY RETURNDATASIZE PUSH0 REVERT JUMPDEST POP PUSH1 0x1 SWAP1 POP SWAP1 JUMP JUMPDEST PUSH0 CALLVALUE SWAP1 POP SWAP1 JUMP JUMPDEST PUSH0 PUSH1 0x60 PUSH0 PUSH1 0xD5 PUSH1 0x40 MLOAD PUSH1 0x24 ADD PUSH2 0xF41 SWAP2 SWAP1 PUSH2 0x12D7 JUMP JUMPDEST PUSH1 0x40 MLOAD PUSH1 0x20 DUP2 DUP4 SUB SUB DUP2 MSTORE SWAP1 PUSH1 0x40 MSTORE PUSH32 0xCAF4468300000000000000000000000000000000000000000000000000000000 PUSH28 0xFFFFFFFFFFFFFFFFFFFFFFFFFFFFFFFFFFFFFFFFFFFFFFFFFFFFFFFF NOT AND PUSH1 0x20 DUP3 ADD DUP1 MLOAD PUSH28 0xFFFFFFFFFFFFFFFFFFFFFFFFFFFFFFFFFFFFFFFFFFFFFFFFFFFFFFFF DUP4 DUP2 DUP4 AND OR DUP4 MSTORE POP POP POP POP SWAP1 POP PUSH0 PUSH0 PUSH0 PUSH0 SWAP1 SLOAD SWAP1 PUSH2 0x100 EXP SWAP1 DIV PUSH20 0xFFFFFFFFFFFFFFFFFFFFFFFFFFFFFFFFFFFFFFFF AND PUSH20 0xFFFFFFFFFFFFFFFFFFFFFFFFFFFFFFFFFFFFFFFF AND CALLVALUE DUP5 PUSH1 0x40 MLOAD PUSH2 0x1008 SWAP2 SWAP1 PUSH2 0x132A JUMP JUMPDEST PUSH0 PUSH1 0x40 MLOAD DUP1 DUP4 SUB DUP2 DUP6 DUP8 GAS CALL SWAP3 POP POP POP RETURNDATASIZE DUP1 PUSH0 DUP2 EQ PUSH2 0x1042 JUMPI PUSH1 0x40 MLOAD SWAP2 POP PUSH1 0x1F NOT PUSH1 0x3F RETURNDATASIZE ADD AND DUP3 ADD PUSH1 0x40 MSTORE RETURNDATASIZE DUP3 MSTORE RETURNDATASIZE PUSH0 PUSH1 0x20 DUP5 ADD RETURNDATACOPY PUSH2 0x1047 JUMP JUMPDEST PUSH1 0x60 SWAP2 POP JUMPDEST POP SWAP2 POP SWAP2 POP DUP2 DUP2 SWAP5 POP SWAP5 POP POP POP POP SWAP1 SWAP2 JUMP JUMPDEST PUSH0 PUSH1 0x60 PUSH0 PUSH1 0xD5 PUSH1 0x40 MLOAD PUSH1 0x24 ADD PUSH2 0x106F SWAP2 SWAP1 PUSH2 0x12D7 JUMP JUMPDEST PUSH1 0x40 MLOAD PUSH1 0x20 DUP2 DUP4 SUB SUB DUP2 MSTORE SWAP1 PUSH1 0x40 MSTORE PUSH32 0x29E99F0700000000000000000000000000000000000000000000000000000000 PUSH28 0xFFFFFFFFFFFFFFFFFFFFFFFFFFFFFFFFFFFFFFFFFFFFFFFFFFFFFFFF NOT AND PUSH1 0x20 DUP3 ADD DUP1 MLOAD PUSH28 0xFFFFFFFFFFFFFFFFFFFFFFFFFFFFFFFFFFFFFFFFFFFFFFFFFFFFFFFF DUP4 DUP2 DUP4 AND OR DUP4 MSTORE POP POP POP POP SWAP1 POP PUSH0 PUSH0 PUSH0 PUSH0 SWAP1 SLOAD SWAP1 PUSH2 0x100 EXP SWAP1 DIV PUSH20 0xFFFFFFFFFFFFFFFFFFFFFFFFFFFFFFFFFFFFFFFF AND PUSH20 0xFFFFFFFFFFFFFFFFFFFFFFFFFFFFFFFFFFFFFFFF AND CALLVALUE DUP5 PUSH1 0x40 MLOAD PUSH2 0x1136 SWAP2 SWAP1 PUSH2 0x132A JUMP JUMPDEST PUSH0 PUSH1 0x40 MLOAD DUP1 DUP4 SUB DUP2 DUP6 DUP8 GAS CALL SWAP3 POP POP POP RETURNDATASIZE DUP1 PUSH0 DUP2 EQ PUSH2 0x1170 JUMPI PUSH1 0x40 MLOAD SWAP2 POP PUSH1 0x1F NOT PUSH1 0x3F RETURNDATASIZE ADD AND DUP3 ADD PUSH1 0x40 MSTORE RETURNDATASIZE DUP3 MSTORE RETURNDATASIZE PUSH0 PUSH1 0x20 DUP5 ADD RETURNDATACOPY PUSH2 0x1175 JUMP JUMPDEST PUSH1 0x60 SWAP2 POP JUMPDEST POP SWAP2 POP SWAP2 POP DUP2 DUP2 SWAP5 POP SWAP5 POP POP POP POP SWAP1 SWAP2 JUMP JUMPDEST PUSH0 DUP2 ISZERO ISZERO SWAP1 POP SWAP2 SWAP1 POP JUMP JUMPDEST PUSH2 0x119B DUP2 PUSH2 0x1187 JUMP JUMPDEST DUP3 MSTORE POP POP JUMP JUMPDEST PUSH0 DUP2 MLOAD SWAP1 POP SWAP2 SWAP1 POP JUMP JUMPDEST PUSH0 DUP3 DUP3 MSTORE PUSH1 0x20 DUP3 ADD SWAP1 POP SWAP3 SWAP2 POP POP JUMP JUMPDEST DUP3 DUP2 DUP4 MCOPY PUSH0 DUP4 DUP4 ADD MSTORE POP POP POP JUMP JUMPDEST PUSH0 PUSH1 0x1F NOT PUSH1 0x1F DUP4 ADD AND SWAP1 POP SWAP2 SWAP1 POP JUMP JUMPDEST PUSH0 PUSH2 0x11E3 DUP3 PUSH2 0x11A1 JUMP JUMPDEST PUSH2 0x11ED DUP2 DUP6 PUSH2 0x11AB JUMP JUMPDEST SWAP4 POP PUSH2 0x11FD DUP2 DUP6 PUSH1 0x20 DUP7 ADD PUSH2 0x11BB JUMP JUMPDEST PUSH2 0x1206 DUP2 PUSH2 0x11C9 JUMP JUMPDEST DUP5 ADD SWAP2 POP POP SWAP3 SWAP2 POP POP JUMP JUMPDEST PUSH0 PUSH1 0x40 DUP3 ADD SWAP1 POP PUSH2 0x1224 PUSH0 DUP4 ADD DUP6 PUSH2 0x1192 JUMP JUMPDEST DUP2 DUP2 SUB PUSH1 0x20 DUP4 ADD MSTORE PUSH2 0x1236 DUP2 DUP5 PUSH2 0x11D9 JUMP JUMPDEST SWAP1 POP SWAP4 SWAP3 POP POP POP JUMP JUMPDEST PUSH0 PUSH1 0x20 DUP3 ADD SWAP1 POP PUSH2 0x1252 PUSH0 DUP4 ADD DUP5 PUSH2 0x1192 JUMP JUMPDEST SWAP3 SWAP2 POP POP JUMP JUMPDEST PUSH0 DUP2 SWAP1 POP SWAP2 SWAP1 POP JUMP JUMPDEST PUSH2 0x126A DUP2 PUSH2 0x1258 JUMP JUMPDEST DUP3 MSTORE POP POP JUMP JUMPDEST PUSH0 PUSH1 0x20 DUP3 ADD SWAP1 POP PUSH2 0x1283 PUSH0 DUP4 ADD DUP5 PUSH2 0x1261 JUMP JUMPDEST SWAP3 SWAP2 POP POP JUMP JUMPDEST PUSH0 DUP2 SWAP1 POP SWAP2 SWAP1 POP JUMP JUMPDEST PUSH0 PUSH1 0xFF DUP3 AND SWAP1 POP SWAP2 SWAP1 POP JUMP JUMPDEST PUSH0 DUP2 SWAP1 POP SWAP2 SWAP1 POP JUMP JUMPDEST PUSH0 PUSH2 0x12C1 PUSH2 0x12BC PUSH2 0x12B7 DUP5 PUSH2 0x1289 JUMP JUMPDEST PUSH2 0x129E JUMP JUMPDEST PUSH2 0x1292 JUMP JUMPDEST SWAP1 POP SWAP2 SWAP1 POP JUMP JUMPDEST PUSH2 0x12D1 DUP2 PUSH2 0x12A7 JUMP JUMPDEST DUP3 MSTORE POP POP JUMP JUMPDEST PUSH0 PUSH1 0x20 DUP3 ADD SWAP1 POP PUSH2 0x12EA PUSH0 DUP4 ADD DUP5 PUSH2 0x12C8 JUMP JUMPDEST SWAP3 SWAP2 POP POP JUMP JUMPDEST PUSH0 DUP2 SWAP1 POP SWAP3 SWAP2 POP POP JUMP JUMPDEST PUSH0 PUSH2 0x1304 DUP3 PUSH2 0x11A1 JUMP JUMPDEST PUSH2 0x130E DUP2 DUP6 PUSH2 0x12F0 JUMP JUMPDEST SWAP4 POP PUSH2 0x131E DUP2 DUP6 PUSH1 0x20 DUP7 ADD PUSH2 0x11BB JUMP JUMPDEST DUP1 DUP5 ADD SWAP2 POP POP SWAP3 SWAP2 POP POP JUMP JUMPDEST PUSH0 PUSH2 0x1335 DUP3 DUP5 PUSH2 0x12FA JUMP JUMPDEST SWAP2 POP DUP2 SWAP1 POP SWAP3 SWAP2 POP POP JUMP JUMPDEST PUSH0 PUSH2 0x135A PUSH2 0x1355 PUSH2 0x1350 DUP5 PUSH2 0x1289 JUMP JUMPDEST PUSH2 0x129E JUMP JUMPDEST PUSH2 0x1258 JUMP JUMPDEST SWAP1 POP SWAP2 SWAP1 POP JUMP JUMPDEST PUSH2 0x136A DUP2 PUSH2 0x1340 JUMP JUMPDEST DUP3 MSTORE POP POP JUMP JUMPDEST PUSH0 PUSH1 0x20 DUP3 ADD SWAP1 POP PUSH2 0x1383 PUSH0 DUP4 ADD DUP5 PUSH2 0x1361 JUMP JUMPDEST SWAP3 SWAP2 POP POP JUMP JUMPDEST PUSH0 PUSH1 0x40 MLOAD SWAP1 POP SWAP1 JUMP JUMPDEST PUSH0 PUSH0 REVERT JUMPDEST PUSH0 PUSH0 REVERT JUMPDEST PUSH0 PUSH0 REVERT JUMPDEST PUSH0 PUSH0 REVERT JUMPDEST PUSH32 0x4E487B7100000000000000000000000000000000000000000000000000000000 PUSH0 MSTORE PUSH1 0x41 PUSH1 0x4 MSTORE PUSH1 0x24 PUSH0 REVERT JUMPDEST PUSH2 0x13D8 DUP3 PUSH2 0x11C9 JUMP JUMPDEST DUP2 ADD DUP2 DUP2 LT PUSH8 0xFFFFFFFFFFFFFFFF DUP3 GT OR ISZERO PUSH2 0x13F7 JUMPI PUSH2 0x13F6 PUSH2 0x13A2 JUMP JUMPDEST JUMPDEST DUP1 PUSH1 0x40 MSTORE POP POP POP JUMP JUMPDEST PUSH0 PUSH2 0x1409 PUSH2 0x1389 JUMP JUMPDEST SWAP1 POP PUSH2 0x1415 DUP3 DUP3 PUSH2 0x13CF JUMP JUMPDEST SWAP2 SWAP1 POP JUMP JUMPDEST PUSH0 PUSH8 0xFFFFFFFFFFFFFFFF DUP3 GT ISZERO PUSH2 0x1434 JUMPI PUSH2 0x1433 PUSH2 0x13A2 JUMP JUMPDEST JUMPDEST PUSH2 0x143D DUP3 PUSH2 0x11C9 JUMP JUMPDEST SWAP1 POP PUSH1 0x20 DUP2 ADD SWAP1 POP SWAP2 SWAP1 POP JUMP JUMPDEST PUSH0 PUSH2 0x145C PUSH2 0x1457 DUP5 PUSH2 0x141A JUMP JUMPDEST PUSH2 0x1400 JUMP JUMPDEST SWAP1 POP DUP3 DUP2 MSTORE PUSH1 0x20 DUP2 ADD DUP5 DUP5 DUP5 ADD GT ISZERO PUSH2 0x1478 JUMPI PUSH2 0x1477 PUSH2 0x139E JUMP JUMPDEST JUMPDEST PUSH2 0x1483 DUP5 DUP3 DUP6 PUSH2 0x11BB JUMP JUMPDEST POP SWAP4 SWAP3 POP POP POP JUMP JUMPDEST PUSH0 DUP3 PUSH1 0x1F DUP4 ADD SLT PUSH2 0x149F JUMPI PUSH2 0x149E PUSH2 0x139A JUMP JUMPDEST JUMPDEST DUP2 MLOAD PUSH2 0x14AF DUP5 DUP3 PUSH1 0x20 DUP7 ADD PUSH2 0x144A JUMP JUMPDEST SWAP2 POP POP SWAP3 SWAP2 POP POP JUMP JUMPDEST PUSH2 0x14C1 DUP2 PUSH2 0x1258 JUMP JUMPDEST DUP2 EQ PUSH2 0x14CB JUMPI PUSH0 PUSH0 REVERT JUMPDEST POP JUMP JUMPDEST PUSH0 DUP2 MLOAD SWAP1 POP PUSH2 0x14DC DUP2 PUSH2 0x14B8 JUMP JUMPDEST SWAP3 SWAP2 POP POP JUMP JUMPDEST PUSH0 PUSH0 PUSH1 0x40 DUP4 DUP6 SUB SLT ISZERO PUSH2 0x14F8 JUMPI PUSH2 0x14F7 PUSH2 0x1392 JUMP JUMPDEST JUMPDEST PUSH0 DUP4 ADD MLOAD PUSH8 0xFFFFFFFFFFFFFFFF DUP2 GT ISZERO PUSH2 0x1515 JUMPI PUSH2 0x1514 PUSH2 0x1396 JUMP JUMPDEST JUMPDEST PUSH2 0x1521 DUP6 DUP3 DUP7 ADD PUSH2 0x148B JUMP JUMPDEST SWAP3 POP POP PUSH1 0x20 PUSH2 0x1532 DUP6 DUP3 DUP7 ADD PUSH2 0x14CE JUMP JUMPDEST SWAP2 POP POP SWAP3 POP SWAP3 SWAP1 POP JUMP JUMPDEST POP JUMP JUMPDEST PUSH0 PUSH2 0x154A PUSH0 DUP4 PUSH2 0x12F0 JUMP JUMPDEST SWAP2 POP PUSH2 0x1555 DUP3 PUSH2 0x153C JUMP JUMPDEST PUSH0 DUP3 ADD SWAP1 POP SWAP2 SWAP1 POP JUMP JUMPDEST PUSH0 PUSH2 0x1569 DUP3 PUSH2 0x153F JUMP JUMPDEST SWAP2 POP DUP2 SWAP1 POP SWAP2 SWAP1 POP JUMP INVALID LOG2 PUSH5 0x6970667358 0x22 SLT KECCAK256 EXTCODESIZE SIGNEXTEND 0xAF DUP6 0xDE 0xCE 0xC2 LOG3 RETF JUMP PUSH16 0xAED279C7F2F66D7674806FC16B499733 0x2A LOG1 DUP12 0xA7 0x2B PUSH5 0x736F6C6343 STOP ADDMOD 0x1E STOP CALLER "
		},
		"gasEstimates": {
			"creation": {
				"codeDepositCost": "1109000",
				"executionCost": "infinite",
				"totalCost": "infinite"
			},
			"external": {
				"pay1()": "395",
				"pay2()": "399",
				"payA()": "384",
				"payB()": "426",
				"payC()": "infinite",
				"payD()": "infinite",
				"payE()": "infinite",
				"payF()": "infinite",
				"payG()": "infinite",
				"payH()": "230",
				"payI()": "infinite",
				"payJ()": "infinite",
				"payK()": "infinite",
				"payL()": "infinite",
				"payM()": "infinite",
				"payN()": "infinite",
				"payO()": "infinite",
				"payP()": "infinite",
				"payQ()": "infinite",
				"payR()": "infinite",
				"payS()": "infinite"
			}
		},
		"methodIdentifiers": {
			"pay1()": "f6a15805",
			"pay2()": "7e1b3abf",
			"payA()": "13c9030d",
			"payB()": "4c986871",
			"payC()": "dfde0226",
			"payD()": "db73d515",
			"payE()": "2b15f51c",
			"payF()": "8fcf5d96",
			"payG()": "cd4ecbbe",
			"payH()": "8200adbd",
			"payI()": "75bafd2a",
			"payJ()": "8b84610c",
			"payK()": "b94ccc1e",
			"payL()": "1dabd7cd",
			"payM()": "b4518ece",
			"payN()": "f96f435b",
			"payO()": "7843fef4",
			"payP()": "ffd6f100",
			"payQ()": "793f6e73",
			"payR()": "0f5f848f",
			"payS()": "afc505c2"
		}
	},
	"abi": [
		{
			"inputs": [
				{
					"internalType": "address payable",
					"name": "_test",
					"type": "address"
				}
			],
			"stateMutability": "payable",
			"type": "constructor"
		},
		{
			"inputs": [],
			"name": "pay1",
			"outputs": [
				{
					"internalType": "uint256",
					"name": "",
					"type": "uint256"
				}
			],
			"stateMutability": "payable",
			"type": "function"
		},
		{
			"inputs": [],
			"name": "pay2",
			"outputs": [
				{
					"internalType": "uint256",
					"name": "",
					"type": "uint256"
				}
			],
			"stateMutability": "payable",
			"type": "function"
		},
		{
			"inputs": [],
			"name": "payA",
			"outputs": [
				{
					"internalType": "bool",
					"name": "",
					"type": "bool"
				}
			],
			"stateMutability": "pure",
			"type": "function"
		},
		{
			"inputs": [],
			"name": "payB",
			"outputs": [
				{
					"internalType": "bool",
					"name": "",
					"type": "bool"
				}
			],
			"stateMutability": "payable",
			"type": "function"
		},
		{
			"inputs": [],
			"name": "payC",
			"outputs": [
				{
					"internalType": "bool",
					"name": "",
					"type": "bool"
				}
			],
			"stateMutability": "payable",
			"type": "function"
		},
		{
			"inputs": [],
			"name": "payD",
			"outputs": [
				{
					"internalType": "bool",
					"name": "",
					"type": "bool"
				}
			],
			"stateMutability": "payable",
			"type": "function"
		},
		{
			"inputs": [],
			"name": "payE",
			"outputs": [
				{
					"internalType": "bool",
					"name": "",
					"type": "bool"
				},
				{
					"internalType": "bytes",
					"name": "",
					"type": "bytes"
				}
			],
			"stateMutability": "payable",
			"type": "function"
		},
		{
			"inputs": [],
			"name": "payF",
			"outputs": [
				{
					"internalType": "bool",
					"name": "",
					"type": "bool"
				},
				{
					"internalType": "bytes",
					"name": "",
					"type": "bytes"
				}
			],
			"stateMutability": "payable",
			"type": "function"
		},
		{
			"inputs": [],
			"name": "payG",
			"outputs": [
				{
					"internalType": "bool",
					"name": "",
					"type": "bool"
				},
				{
					"internalType": "bytes",
					"name": "",
					"type": "bytes"
				}
			],
			"stateMutability": "payable",
			"type": "function"
		},
		{
			"inputs": [],
			"name": "payH",
			"outputs": [],
			"stateMutability": "payable",
			"type": "function"
		},
		{
			"inputs": [],
			"name": "payI",
			"outputs": [],
			"stateMutability": "payable",
			"type": "function"
		},
		{
			"inputs": [],
			"name": "payJ",
			"outputs": [
				{
					"internalType": "bool",
					"name": "",
					"type": "bool"
				},
				{
					"internalType": "bytes",
					"name": "",
					"type": "bytes"
				}
			],
			"stateMutability": "payable",
			"type": "function"
		},
		{
			"inputs": [],
			"name": "payK",
			"outputs": [
				{
					"internalType": "bool",
					"name": "",
					"type": "bool"
				},
				{
					"internalType": "bytes",
					"name": "",
					"type": "bytes"
				}
			],
			"stateMutability": "payable",
			"type": "function"
		},
		{
			"inputs": [],
			"name": "payL",
			"outputs": [],
			"stateMutability": "payable",
			"type": "function"
		},
		{
			"inputs": [],
			"name": "payM",
			"outputs": [],
			"stateMutability": "payable",
			"type": "function"
		},
		{
			"inputs": [],
			"name": "payN",
			"outputs": [
				{
					"internalType": "bool",
					"name": "",
					"type": "bool"
				},
				{
					"internalType": "bytes",
					"name": "",
					"type": "bytes"
				}
			],
			"stateMutability": "payable",
			"type": "function"
		},
		{
			"inputs": [],
			"name": "payO",
			"outputs": [
				{
					"internalType": "bool",
					"name": "",
					"type": "bool"
				},
				{
					"internalType": "bytes",
					"name": "",
					"type": "bytes"
				}
			],
			"stateMutability": "payable",
			"type": "function"
		},
		{
			"inputs": [],
			"name": "payP",
			"outputs": [
				{
					"internalType": "bool",
					"name": "",
					"type": "bool"
				},
				{
					"internalType": "bytes",
					"name": "",
					"type": "bytes"
				}
			],
			"stateMutability": "payable",
			"type": "function"
		},
		{
			"inputs": [],
			"name": "payQ",
			"outputs": [
				{
					"internalType": "bool",
					"name": "",
					"type": "bool"
				},
				{
					"internalType": "bytes",
					"name": "",
					"type": "bytes"
				}
			],
			"stateMutability": "payable",
			"type": "function"
		},
		{
			"inputs": [],
			"name": "payR",
			"outputs": [
				{
					"internalType": "bool",
					"name": "",
					"type": "bool"
				},
				{
					"internalType": "bytes",
					"name": "",
					"type": "bytes"
				}
			],
			"stateMutability": "payable",
			"type": "function"
		},
		{
			"inputs": [],
			"name": "payS",
			"outputs": [
				{
					"internalType": "bool",
					"name": "",
					"type": "bool"
				},
				{
					"internalType": "bytes",
					"name": "",
					"type": "bytes"
				}
			],
			"stateMutability": "payable",
			"type": "function"
		}
	]
}