{
	"data": {
		"bytecode": {
			"linkReferences": {},
			"object": "6080604052348015600e575f5ffd5b506103648061001c5f395ff3fe608060405234801561000f575f5ffd5b5060043610610034575f3560e01c80633a32b54914610038578063d93746d514610056575b5f5ffd5b610040610074565b60405161004d9190610198565b60405180910390f35b61005e6100b1565b60405161006b9190610198565b60405180910390f35b60606040518060400160405280601081526020017f546869732069732065787465726e616c00000000000000000000000000000000815250905090565b60603073ffffffffffffffffffffffffffffffffffffffff16633a32b5496040518163ffffffff1660e01b81526004015f60405180830381865afa1580156100fb573d5f5f3e3d5ffd5b505050506040513d5f823e3d601f19601f8201168201806040525081019061012391906102e7565b905090565b5f81519050919050565b5f82825260208201905092915050565b8281835e5f83830152505050565b5f601f19601f8301169050919050565b5f61016a82610128565b6101748185610132565b9350610184818560208601610142565b61018d81610150565b840191505092915050565b5f6020820190508181035f8301526101b08184610160565b905092915050565b5f604051905090565b5f5ffd5b5f5ffd5b5f5ffd5b5f5ffd5b7f4e487b71000000000000000000000000000000000000000000000000000000005f52604160045260245ffd5b61020782610150565b810181811067ffffffffffffffff82111715610226576102256101d1565b5b80604052505050565b5f6102386101b8565b905061024482826101fe565b919050565b5f67ffffffffffffffff821115610263576102626101d1565b5b61026c82610150565b9050602081019050919050565b5f61028b61028684610249565b61022f565b9050828152602081018484840111156102a7576102a66101cd565b5b6102b2848285610142565b509392505050565b5f82601f8301126102ce576102cd6101c9565b5b81516102de848260208601610279565b91505092915050565b5f602082840312156102fc576102fb6101c1565b5b5f82015167ffffffffffffffff811115610319576103186101c5565b5b610325848285016102ba565b9150509291505056fea2646970667358221220411cf077e49528356f3d7180710c057065f4d88c57c56b605c5b187fd6dac10c64736f6c634300081e0033",
			"opcodes": "PUSH1 0x80 PUSH1 0x40 MSTORE CALLVALUE DUP1 ISZERO PUSH1 0xE JUMPI PUSH0 PUSH0 REVERT JUMPDEST POP PUSH2 0x364 DUP1 PUSH2 0x1C PUSH0 CODECOPY PUSH0 RETURN INVALID PUSH1 0x80 PUSH1 0x40 MSTORE CALLVALUE DUP1 ISZERO PUSH2 0xF JUMPI PUSH0 PUSH0 REVERT JUMPDEST POP PUSH1 0x4 CALLDATASIZE LT PUSH2 0x34 JUMPI PUSH0 CALLDATALOAD PUSH1 0xE0 SHR DUP1 PUSH4 0x3A32B549 EQ PUSH2 0x38 JUMPI DUP1 PUSH4 0xD93746D5 EQ PUSH2 0x56 JUMPI JUMPDEST PUSH0 PUSH0 REVERT JUMPDEST PUSH2 0x40 PUSH2 0x74 JUMP JUMPDEST PUSH1 0x40 MLOAD PUSH2 0x4D SWAP2 SWAP1 PUSH2 0x198 JUMP JUMPDEST PUSH1 0x40 MLOAD DUP1 SWAP2 SUB SWAP1 RETURN JUMPDEST PUSH2 0x5E PUSH2 0xB1 JUMP JUMPDEST PUSH1 0x40 MLOAD PUSH2 0x6B SWAP2 SWAP1 PUSH2 0x198 JUMP JUMPDEST PUSH1 0x40 MLOAD DUP1 SWAP2 SUB SWAP1 RETURN JUMPDEST PUSH1 0x60 PUSH1 0x40 MLOAD DUP1 PUSH1 0x40 ADD PUSH1 0x40 MSTORE DUP1 PUSH1 0x10 DUP2 MSTORE PUSH1 0x20 ADD PUSH32 0x546869732069732065787465726E616C00000000000000000000000000000000 DUP2 MSTORE POP SWAP1 POP SWAP1 JUMP JUMPDEST PUSH1 0x60 ADDRESS PUSH20 0xFFFFFFFFFFFFFFFFFFFFFFFFFFFFFFFFFFFFFFFF AND PUSH4 0x3A32B549 PUSH1 0x40 MLOAD DUP2 PUSH4 0xFFFFFFFF AND PUSH1 0xE0 SHL DUP2 MSTORE PUSH1 0x4 ADD PUSH0 PUSH1 0x40 MLOAD DUP1 DUP4 SUB DUP2 DUP7 GAS STATICCALL ISZERO DUP1 ISZERO PUSH2 0xFB JUMPI RETURNDATASIZE PUSH0 PUSH0 RETURNDATACOPY RETURNDATASIZE PUSH0 REVERT JUMPDEST POP POP POP POP PUSH1 0x40 MLOAD RETURNDATASIZE PUSH0 DUP3 RETURNDATACOPY RETURNDATASIZE PUSH1 0x1F NOT PUSH1 0x1F DUP3 ADD AND DUP3 ADD DUP1 PUSH1 0x40 MSTORE POP DUP2 ADD SWAP1 PUSH2 0x123 SWAP2 SWAP1 PUSH2 0x2E7 JUMP JUMPDEST SWAP1 POP SWAP1 JUMP JUMPDEST PUSH0 DUP2 MLOAD SWAP1 POP SWAP2 SWAP1 POP JUMP JUMPDEST PUSH0 DUP3 DUP3 MSTORE PUSH1 0x20 DUP3 ADD SWAP1 POP SWAP3 SWAP2 POP POP JUMP JUMPDEST DUP3 DUP2 DUP4 MCOPY PUSH0 DUP4 DUP4 ADD MSTORE POP POP POP JUMP JUMPDEST PUSH0 PUSH1 0x1F NOT PUSH1 0x1F DUP4 ADD AND SWAP1 POP SWAP2 SWAP1 POP JUMP JUMPDEST PUSH0 PUSH2 0x16A DUP3 PUSH2 0x128 JUMP JUMPDEST PUSH2 0x174 DUP2 DUP6 PUSH2 0x132 JUMP JUMPDEST SWAP4 POP PUSH2 0x184 DUP2 DUP6 PUSH1 0x20 DUP7 ADD PUSH2 0x142 JUMP JUMPDEST PUSH2 0x18D DUP2 PUSH2 0x150 JUMP JUMPDEST DUP5 ADD SWAP2 POP POP SWAP3 SWAP2 POP POP JUMP JUMPDEST PUSH0 PUSH1 0x20 DUP3 ADD SWAP1 POP DUP2 DUP2 SUB PUSH0 DUP4 ADD MSTORE PUSH2 0x1B0 DUP2 DUP5 PUSH2 0x160 JUMP JUMPDEST SWAP1 POP SWAP3 SWAP2 POP POP JUMP JUMPDEST PUSH0 PUSH1 0x40 MLOAD SWAP1 POP SWAP1 JUMP JUMPDEST PUSH0 PUSH0 REVERT JUMPDEST PUSH0 PUSH0 REVERT JUMPDEST PUSH0 PUSH0 REVERT JUMPDEST PUSH0 PUSH0 REVERT JUMPDEST PUSH32 0x4E487B7100000000000000000000000000000000000000000000000000000000 PUSH0 MSTORE PUSH1 0x41 PUSH1 0x4 MSTORE PUSH1 0x24 PUSH0 REVERT JUMPDEST PUSH2 0x207 DUP3 PUSH2 0x150 JUMP JUMPDEST DUP2 ADD DUP2 DUP2 LT PUSH8 0xFFFFFFFFFFFFFFFF DUP3 GT OR ISZERO PUSH2 0x226 JUMPI PUSH2 0x225 PUSH2 0x1D1 JUMP JUMPDEST JUMPDEST DUP1 PUSH1 0x40 MSTORE POP POP POP JUMP JUMPDEST PUSH0 PUSH2 0x238 PUSH2 0x1B8 JUMP JUMPDEST SWAP1 POP PUSH2 0x244 DUP3 DUP3 PUSH2 0x1FE JUMP JUMPDEST SWAP2 SWAP1 POP JUMP JUMPDEST PUSH0 PUSH8 0xFFFFFFFFFFFFFFFF DUP3 GT ISZERO PUSH2 0x263 JUMPI PUSH2 0x262 PUSH2 0x1D1 JUMP JUMPDEST JUMPDEST PUSH2 0x26C DUP3 PUSH2 0x150 JUMP JUMPDEST SWAP1 POP PUSH1 0x20 DUP2 ADD SWAP1 POP SWAP2 SWAP1 POP JUMP JUMPDEST PUSH0 PUSH2 0x28B PUSH2 0x286 DUP5 PUSH2 0x249 JUMP JUMPDEST PUSH2 0x22F JUMP JUMPDEST SWAP1 POP DUP3 DUP2 MSTORE PUSH1 0x20 DUP2 ADD DUP5 DUP5 DUP5 ADD GT ISZERO PUSH2 0x2A7 JUMPI PUSH2 0x2A6 PUSH2 0x1CD JUMP JUMPDEST JUMPDEST PUSH2 0x2B2 DUP5 DUP3 DUP6 PUSH2 0x142 JUMP JUMPDEST POP SWAP4 SWAP3 POP POP POP JUMP JUMPDEST PUSH0 DUP3 PUSH1 0x1F DUP4 ADD SLT PUSH2 0x2CE JUMPI PUSH2 0x2CD PUSH2 0x1C9 JUMP JUMPDEST JUMPDEST DUP2 MLOAD PUSH2 0x2DE DUP5 DUP3 PUSH1 0x20 DUP7 ADD PUSH2 0x279 JUMP JUMPDEST SWAP2 POP POP SWAP3 SWAP2 POP POP JUMP JUMPDEST PUSH0 PUSH1 0x20 DUP3 DUP5 SUB SLT ISZERO PUSH2 0x2FC JUMPI PUSH2 0x2FB PUSH2 0x1C1 JUMP JUMPDEST JUMPDEST PUSH0 DUP3 ADD MLOAD PUSH8 0xFFFFFFFFFFFFFFFF DUP2 GT ISZERO PUSH2 0x319 JUMPI PUSH2 0x318 PUSH2 0x1C5 JUMP JUMPDEST JUMPDEST PUSH2 0x325 DUP5 DUP3 DUP6 ADD PUSH2 0x2BA JUMP JUMPDEST SWAP2 POP POP SWAP3 SWAP2 POP POP JUMP INVALID LOG2 PUSH5 0x6970667358 0x22 SLT KECCAK256 COINBASE SHR CREATE PUSH24 0xE49528356F3D7180710C057065F4D88C57C56B605C5B187F 0xD6 0xDA 0xC1 0xC PUSH5 0x736F6C6343 STOP ADDMOD 0x1E STOP CALLER "
		},
		"gasEstimates": {
			"creation": {
				"codeDepositCost": "173600",
				"executionCost": "218",
				"totalCost": "173818"
			},
			"external": {
				"externalFunction()": "infinite",
				"testInheritance()": "infinite"
			}
		},
		"methodIdentifiers": {
			"externalFunction()": "3a32b549",
			"testInheritance()": "d93746d5"
		}
	},
	"abi": [
		{
			"inputs": [],
			"name": "externalFunction",
			"outputs": [
				{
					"internalType": "string",
					"name": "",
					"type": "string"
				}
			],
			"stateMutability": "pure",
			"type": "function"
		},
		{
			"inputs": [],
			"name": "testInheritance",
			"outputs": [
				{
					"internalType": "string",
					"name": "",
					"type": "string"
				}
			],
			"stateMutability": "view",
			"type": "function"
		}
	]
}