{
	"data": {
		"bytecode": {
			"linkReferences": {},
			"object": "608060405234801561000f575f5ffd5b5060015f5f604960f81b7effffffffffffffffffffffffffffffffffffffffffffffffffffffffffffff191681526020019081526020015f208190555060055f5f605660f81b7effffffffffffffffffffffffffffffffffffffffffffffffffffffffffffff191681526020019081526020015f2081905550600a5f5f605860f81b7effffffffffffffffffffffffffffffffffffffffffffffffffffffffffffff191681526020019081526020015f208190555060325f5f604c60f81b7effffffffffffffffffffffffffffffffffffffffffffffffffffffffffffff191681526020019081526020015f208190555060645f5f604360f81b7effffffffffffffffffffffffffffffffffffffffffffffffffffffffffffff191681526020019081526020015f20819055506101f45f5f604460f81b7effffffffffffffffffffffffffffffffffffffffffffffffffffffffffffff191681526020019081526020015f20819055506103e85f5f604d60f81b7effffffffffffffffffffffffffffffffffffffffffffffffffffffffffffff191681526020019081526020015f2081905550610b89806101c35f395ff3fe608060405234801561000f575f5ffd5b5060043610610029575f3560e01c8063c1dcab141461002d575b5f5ffd5b610047600480360381019061004291906108f4565b61005d565b6040516100549190610953565b60405180910390f35b5f5f8290505f81519050600181101580156100795750600f8111155b6100b8576040517f08c379a00000000000000000000000000000000000000000000000000000000081526004016100af906109c6565b60405180910390fd5b5f5f90505b81811015610185575f5f5f8584815181106100db576100da6109e4565b5b602001015160f81c60f81b7effffffffffffffffffffffffffffffffffffffffffffffffffffffffffffff19167effffffffffffffffffffffffffffffffffffffffffffffffffffffffffffff191681526020019081526020015f205403610178576040517f08c379a000000000000000000000000000000000000000000000000000000000815260040161016f90610a5b565b60405180910390fd5b80806001019150506100bd565b5060018103610209575f5f835f815181106101a3576101a26109e4565b5b602001015160f81c60f81b7effffffffffffffffffffffffffffffffffffffffffffffffffffffffffffff19167effffffffffffffffffffffffffffffffffffffffffffffffffffffffffffff191681526020019081526020015f2054925050506107a2565b5f8167ffffffffffffffff811115610224576102236107d0565b5b6040519080825280602002602001820160405280156102525781602001602082028036833780820191505090505b5090505f5f90505b82811015610300575f5f858381518110610277576102766109e4565b5b602001015160f81c60f81b7effffffffffffffffffffffffffffffffffffffffffffffffffffffffffffff19167effffffffffffffffffffffffffffffffffffffffffffffffffffffffffffff191681526020019081526020015f20548282815181106102e7576102e66109e4565b5b602002602001018181525050808060010191505061025a565b505f5f5f90505b6001846103149190610aa6565b8110156107995760018382815181106103305761032f6109e4565b5b602002602001015114801561036b57506005836001836103509190610ad9565b81518110610361576103606109e4565b5b6020026020010151145b156103d0575f838281518110610384576103836109e4565b5b6020026020010181815250506004836001836103a09190610ad9565b815181106103b1576103b06109e4565b5b60200260200101818152505080806103c890610b0c565b91505061075e565b60018382815181106103e5576103e46109e4565b5b60200260200101511480156104205750600a836001836104059190610ad9565b81518110610416576104156109e4565b5b6020026020010151145b15610485575f838281518110610439576104386109e4565b5b6020026020010181815250506009836001836104559190610ad9565b81518110610466576104656109e4565b5b602002602001018181525050808061047d90610b0c565b91505061075d565b600a83828151811061049a576104996109e4565b5b60200260200101511480156104d557506032836001836104ba9190610ad9565b815181106104cb576104ca6109e4565b5b6020026020010151145b1561053a575f8382815181106104ee576104ed6109e4565b5b60200260200101818152505060288360018361050a9190610ad9565b8151811061051b5761051a6109e4565b5b602002602001018181525050808061053290610b0c565b91505061075c565b600a83828151811061054f5761054e6109e4565b5b602002602001015114801561058a575060648360018361056f9190610ad9565b815181106105805761057f6109e4565b5b6020026020010151145b156105ef575f8382815181106105a3576105a26109e4565b5b602002602001018181525050605a836001836105bf9190610ad9565b815181106105d0576105cf6109e4565b5b60200260200101818152505080806105e790610b0c565b91505061075b565b6064838281518110610604576106036109e4565b5b602002602001015114801561064057506101f4836001836106259190610ad9565b81518110610636576106356109e4565b5b6020026020010151145b156106a6575f838281518110610659576106586109e4565b5b602002602001018181525050610190836001836106769190610ad9565b81518110610687576106866109e4565b5b602002602001018181525050808061069e90610b0c565b91505061075a565b60648382815181106106bb576106ba6109e4565b5b60200260200101511480156106f757506103e8836001836106dc9190610ad9565b815181106106ed576106ec6109e4565b5b6020026020010151145b15610759575f8382815181106107105761070f6109e4565b5b6020026020010181815250506103848360018361072d9190610ad9565b8151811061073e5761073d6109e4565b5b602002602001018181525050808061075590610b0c565b9150505b5b5b5b5b5b828181518110610771576107706109e4565b5b6020026020010151826107849190610ad9565b9150808061079190610b0c565b915050610307565b50809450505050505b919050565b5f604051905090565b5f5ffd5b5f5ffd5b5f5ffd5b5f5ffd5b5f601f19601f8301169050919050565b7f4e487b71000000000000000000000000000000000000000000000000000000005f52604160045260245ffd5b610806826107c0565b810181811067ffffffffffffffff82111715610825576108246107d0565b5b80604052505050565b5f6108376107a7565b905061084382826107fd565b919050565b5f67ffffffffffffffff821115610862576108616107d0565b5b61086b826107c0565b9050602081019050919050565b828183375f83830152505050565b5f61089861089384610848565b61082e565b9050828152602081018484840111156108b4576108b36107bc565b5b6108bf848285610878565b509392505050565b5f82601f8301126108db576108da6107b8565b5b81356108eb848260208601610886565b91505092915050565b5f60208284031215610909576109086107b0565b5b5f82013567ffffffffffffffff811115610926576109256107b4565b5b610932848285016108c7565b91505092915050565b5f819050919050565b61094d8161093b565b82525050565b5f6020820190506109665f830184610944565b92915050565b5f82825260208201905092915050565b7f696e76616c696420737472696e67206c656e67746800000000000000000000005f82015250565b5f6109b060158361096c565b91506109bb8261097c565b602082019050919050565b5f6020820190508181035f8301526109dd816109a4565b9050919050565b7f4e487b71000000000000000000000000000000000000000000000000000000005f52603260045260245ffd5b7f696e76616c696420737472696e670000000000000000000000000000000000005f82015250565b5f610a45600e8361096c565b9150610a5082610a11565b602082019050919050565b5f6020820190508181035f830152610a7281610a39565b9050919050565b7f4e487b71000000000000000000000000000000000000000000000000000000005f52601160045260245ffd5b5f610ab08261093b565b9150610abb8361093b565b9250828203905081811115610ad357610ad2610a79565b5b92915050565b5f610ae38261093b565b9150610aee8361093b565b9250828201905080821115610b0657610b05610a79565b5b92915050565b5f610b168261093b565b91507fffffffffffffffffffffffffffffffffffffffffffffffffffffffffffffffff8203610b4857610b47610a79565b5b60018201905091905056fea26469706673582212201efdf2b877d325660b6a96a83795b13cb3aba52c7976eeccfcac88566ecaf4af64736f6c634300081e0033",
			"opcodes": "PUSH1 0x80 PUSH1 0x40 MSTORE CALLVALUE DUP1 ISZERO PUSH2 0xF JUMPI PUSH0 PUSH0 REVERT JUMPDEST POP PUSH1 0x1 PUSH0 PUSH0 PUSH1 0x49 PUSH1 0xF8 SHL PUSH31 0xFFFFFFFFFFFFFFFFFFFFFFFFFFFFFFFFFFFFFFFFFFFFFFFFFFFFFFFFFFFFFF NOT AND DUP2 MSTORE PUSH1 0x20 ADD SWAP1 DUP2 MSTORE PUSH1 0x20 ADD PUSH0 KECCAK256 DUP2 SWAP1 SSTORE POP PUSH1 0x5 PUSH0 PUSH0 PUSH1 0x56 PUSH1 0xF8 SHL PUSH31 0xFFFFFFFFFFFFFFFFFFFFFFFFFFFFFFFFFFFFFFFFFFFFFFFFFFFFFFFFFFFFFF NOT AND DUP2 MSTORE PUSH1 0x20 ADD SWAP1 DUP2 MSTORE PUSH1 0x20 ADD PUSH0 KECCAK256 DUP2 SWAP1 SSTORE POP PUSH1 0xA PUSH0 PUSH0 PUSH1 0x58 PUSH1 0xF8 SHL PUSH31 0xFFFFFFFFFFFFFFFFFFFFFFFFFFFFFFFFFFFFFFFFFFFFFFFFFFFFFFFFFFFFFF NOT AND DUP2 MSTORE PUSH1 0x20 ADD SWAP1 DUP2 MSTORE PUSH1 0x20 ADD PUSH0 KECCAK256 DUP2 SWAP1 SSTORE POP PUSH1 0x32 PUSH0 PUSH0 PUSH1 0x4C PUSH1 0xF8 SHL PUSH31 0xFFFFFFFFFFFFFFFFFFFFFFFFFFFFFFFFFFFFFFFFFFFFFFFFFFFFFFFFFFFFFF NOT AND DUP2 MSTORE PUSH1 0x20 ADD SWAP1 DUP2 MSTORE PUSH1 0x20 ADD PUSH0 KECCAK256 DUP2 SWAP1 SSTORE POP PUSH1 0x64 PUSH0 PUSH0 PUSH1 0x43 PUSH1 0xF8 SHL PUSH31 0xFFFFFFFFFFFFFFFFFFFFFFFFFFFFFFFFFFFFFFFFFFFFFFFFFFFFFFFFFFFFFF NOT AND DUP2 MSTORE PUSH1 0x20 ADD SWAP1 DUP2 MSTORE PUSH1 0x20 ADD PUSH0 KECCAK256 DUP2 SWAP1 SSTORE POP PUSH2 0x1F4 PUSH0 PUSH0 PUSH1 0x44 PUSH1 0xF8 SHL PUSH31 0xFFFFFFFFFFFFFFFFFFFFFFFFFFFFFFFFFFFFFFFFFFFFFFFFFFFFFFFFFFFFFF NOT AND DUP2 MSTORE PUSH1 0x20 ADD SWAP1 DUP2 MSTORE PUSH1 0x20 ADD PUSH0 KECCAK256 DUP2 SWAP1 SSTORE POP PUSH2 0x3E8 PUSH0 PUSH0 PUSH1 0x4D PUSH1 0xF8 SHL PUSH31 0xFFFFFFFFFFFFFFFFFFFFFFFFFFFFFFFFFFFFFFFFFFFFFFFFFFFFFFFFFFFFFF NOT AND DUP2 MSTORE PUSH1 0x20 ADD SWAP1 DUP2 MSTORE PUSH1 0x20 ADD PUSH0 KECCAK256 DUP2 SWAP1 SSTORE POP PUSH2 0xB89 DUP1 PUSH2 0x1C3 PUSH0 CODECOPY PUSH0 RETURN INVALID PUSH1 0x80 PUSH1 0x40 MSTORE CALLVALUE DUP1 ISZERO PUSH2 0xF JUMPI PUSH0 PUSH0 REVERT JUMPDEST POP PUSH1 0x4 CALLDATASIZE LT PUSH2 0x29 JUMPI PUSH0 CALLDATALOAD PUSH1 0xE0 SHR DUP1 PUSH4 0xC1DCAB14 EQ PUSH2 0x2D JUMPI JUMPDEST PUSH0 PUSH0 REVERT JUMPDEST PUSH2 0x47 PUSH1 0x4 DUP1 CALLDATASIZE SUB DUP2 ADD SWAP1 PUSH2 0x42 SWAP2 SWAP1 PUSH2 0x8F4 JUMP JUMPDEST PUSH2 0x5D JUMP JUMPDEST PUSH1 0x40 MLOAD PUSH2 0x54 SWAP2 SWAP1 PUSH2 0x953 JUMP JUMPDEST PUSH1 0x40 MLOAD DUP1 SWAP2 SUB SWAP1 RETURN JUMPDEST PUSH0 PUSH0 DUP3 SWAP1 POP PUSH0 DUP2 MLOAD SWAP1 POP PUSH1 0x1 DUP2 LT ISZERO DUP1 ISZERO PUSH2 0x79 JUMPI POP PUSH1 0xF DUP2 GT ISZERO JUMPDEST PUSH2 0xB8 JUMPI PUSH1 0x40 MLOAD PUSH32 0x8C379A000000000000000000000000000000000000000000000000000000000 DUP2 MSTORE PUSH1 0x4 ADD PUSH2 0xAF SWAP1 PUSH2 0x9C6 JUMP JUMPDEST PUSH1 0x40 MLOAD DUP1 SWAP2 SUB SWAP1 REVERT JUMPDEST PUSH0 PUSH0 SWAP1 POP JUMPDEST DUP2 DUP2 LT ISZERO PUSH2 0x185 JUMPI PUSH0 PUSH0 PUSH0 DUP6 DUP5 DUP2 MLOAD DUP2 LT PUSH2 0xDB JUMPI PUSH2 0xDA PUSH2 0x9E4 JUMP JUMPDEST JUMPDEST PUSH1 0x20 ADD ADD MLOAD PUSH1 0xF8 SHR PUSH1 0xF8 SHL PUSH31 0xFFFFFFFFFFFFFFFFFFFFFFFFFFFFFFFFFFFFFFFFFFFFFFFFFFFFFFFFFFFFFF NOT AND PUSH31 0xFFFFFFFFFFFFFFFFFFFFFFFFFFFFFFFFFFFFFFFFFFFFFFFFFFFFFFFFFFFFFF NOT AND DUP2 MSTORE PUSH1 0x20 ADD SWAP1 DUP2 MSTORE PUSH1 0x20 ADD PUSH0 KECCAK256 SLOAD SUB PUSH2 0x178 JUMPI PUSH1 0x40 MLOAD PUSH32 0x8C379A000000000000000000000000000000000000000000000000000000000 DUP2 MSTORE PUSH1 0x4 ADD PUSH2 0x16F SWAP1 PUSH2 0xA5B JUMP JUMPDEST PUSH1 0x40 MLOAD DUP1 SWAP2 SUB SWAP1 REVERT JUMPDEST DUP1 DUP1 PUSH1 0x1 ADD SWAP2 POP POP PUSH2 0xBD JUMP JUMPDEST POP PUSH1 0x1 DUP2 SUB PUSH2 0x209 JUMPI PUSH0 PUSH0 DUP4 PUSH0 DUP2 MLOAD DUP2 LT PUSH2 0x1A3 JUMPI PUSH2 0x1A2 PUSH2 0x9E4 JUMP JUMPDEST JUMPDEST PUSH1 0x20 ADD ADD MLOAD PUSH1 0xF8 SHR PUSH1 0xF8 SHL PUSH31 0xFFFFFFFFFFFFFFFFFFFFFFFFFFFFFFFFFFFFFFFFFFFFFFFFFFFFFFFFFFFFFF NOT AND PUSH31 0xFFFFFFFFFFFFFFFFFFFFFFFFFFFFFFFFFFFFFFFFFFFFFFFFFFFFFFFFFFFFFF NOT AND DUP2 MSTORE PUSH1 0x20 ADD SWAP1 DUP2 MSTORE PUSH1 0x20 ADD PUSH0 KECCAK256 SLOAD SWAP3 POP POP POP PUSH2 0x7A2 JUMP JUMPDEST PUSH0 DUP2 PUSH8 0xFFFFFFFFFFFFFFFF DUP2 GT ISZERO PUSH2 0x224 JUMPI PUSH2 0x223 PUSH2 0x7D0 JUMP JUMPDEST JUMPDEST PUSH1 0x40 MLOAD SWAP1 DUP1 DUP3 MSTORE DUP1 PUSH1 0x20 MUL PUSH1 0x20 ADD DUP3 ADD PUSH1 0x40 MSTORE DUP1 ISZERO PUSH2 0x252 JUMPI DUP2 PUSH1 0x20 ADD PUSH1 0x20 DUP3 MUL DUP1 CALLDATASIZE DUP4 CALLDATACOPY DUP1 DUP3 ADD SWAP2 POP POP SWAP1 POP JUMPDEST POP SWAP1 POP PUSH0 PUSH0 SWAP1 POP JUMPDEST DUP3 DUP2 LT ISZERO PUSH2 0x300 JUMPI PUSH0 PUSH0 DUP6 DUP4 DUP2 MLOAD DUP2 LT PUSH2 0x277 JUMPI PUSH2 0x276 PUSH2 0x9E4 JUMP JUMPDEST JUMPDEST PUSH1 0x20 ADD ADD MLOAD PUSH1 0xF8 SHR PUSH1 0xF8 SHL PUSH31 0xFFFFFFFFFFFFFFFFFFFFFFFFFFFFFFFFFFFFFFFFFFFFFFFFFFFFFFFFFFFFFF NOT AND PUSH31 0xFFFFFFFFFFFFFFFFFFFFFFFFFFFFFFFFFFFFFFFFFFFFFFFFFFFFFFFFFFFFFF NOT AND DUP2 MSTORE PUSH1 0x20 ADD SWAP1 DUP2 MSTORE PUSH1 0x20 ADD PUSH0 KECCAK256 SLOAD DUP3 DUP3 DUP2 MLOAD DUP2 LT PUSH2 0x2E7 JUMPI PUSH2 0x2E6 PUSH2 0x9E4 JUMP JUMPDEST JUMPDEST PUSH1 0x20 MUL PUSH1 0x20 ADD ADD DUP2 DUP2 MSTORE POP POP DUP1 DUP1 PUSH1 0x1 ADD SWAP2 POP POP PUSH2 0x25A JUMP JUMPDEST POP PUSH0 PUSH0 PUSH0 SWAP1 POP JUMPDEST PUSH1 0x1 DUP5 PUSH2 0x314 SWAP2 SWAP1 PUSH2 0xAA6 JUMP JUMPDEST DUP2 LT ISZERO PUSH2 0x799 JUMPI PUSH1 0x1 DUP4 DUP3 DUP2 MLOAD DUP2 LT PUSH2 0x330 JUMPI PUSH2 0x32F PUSH2 0x9E4 JUMP JUMPDEST JUMPDEST PUSH1 0x20 MUL PUSH1 0x20 ADD ADD MLOAD EQ DUP1 ISZERO PUSH2 0x36B JUMPI POP PUSH1 0x5 DUP4 PUSH1 0x1 DUP4 PUSH2 0x350 SWAP2 SWAP1 PUSH2 0xAD9 JUMP JUMPDEST DUP2 MLOAD DUP2 LT PUSH2 0x361 JUMPI PUSH2 0x360 PUSH2 0x9E4 JUMP JUMPDEST JUMPDEST PUSH1 0x20 MUL PUSH1 0x20 ADD ADD MLOAD EQ JUMPDEST ISZERO PUSH2 0x3D0 JUMPI PUSH0 DUP4 DUP3 DUP2 MLOAD DUP2 LT PUSH2 0x384 JUMPI PUSH2 0x383 PUSH2 0x9E4 JUMP JUMPDEST JUMPDEST PUSH1 0x20 MUL PUSH1 0x20 ADD ADD DUP2 DUP2 MSTORE POP POP PUSH1 0x4 DUP4 PUSH1 0x1 DUP4 PUSH2 0x3A0 SWAP2 SWAP1 PUSH2 0xAD9 JUMP JUMPDEST DUP2 MLOAD DUP2 LT PUSH2 0x3B1 JUMPI PUSH2 0x3B0 PUSH2 0x9E4 JUMP JUMPDEST JUMPDEST PUSH1 0x20 MUL PUSH1 0x20 ADD ADD DUP2 DUP2 MSTORE POP POP DUP1 DUP1 PUSH2 0x3C8 SWAP1 PUSH2 0xB0C JUMP JUMPDEST SWAP2 POP POP PUSH2 0x75E JUMP JUMPDEST PUSH1 0x1 DUP4 DUP3 DUP2 MLOAD DUP2 LT PUSH2 0x3E5 JUMPI PUSH2 0x3E4 PUSH2 0x9E4 JUMP JUMPDEST JUMPDEST PUSH1 0x20 MUL PUSH1 0x20 ADD ADD MLOAD EQ DUP1 ISZERO PUSH2 0x420 JUMPI POP PUSH1 0xA DUP4 PUSH1 0x1 DUP4 PUSH2 0x405 SWAP2 SWAP1 PUSH2 0xAD9 JUMP JUMPDEST DUP2 MLOAD DUP2 LT PUSH2 0x416 JUMPI PUSH2 0x415 PUSH2 0x9E4 JUMP JUMPDEST JUMPDEST PUSH1 0x20 MUL PUSH1 0x20 ADD ADD MLOAD EQ JUMPDEST ISZERO PUSH2 0x485 JUMPI PUSH0 DUP4 DUP3 DUP2 MLOAD DUP2 LT PUSH2 0x439 JUMPI PUSH2 0x438 PUSH2 0x9E4 JUMP JUMPDEST JUMPDEST PUSH1 0x20 MUL PUSH1 0x20 ADD ADD DUP2 DUP2 MSTORE POP POP PUSH1 0x9 DUP4 PUSH1 0x1 DUP4 PUSH2 0x455 SWAP2 SWAP1 PUSH2 0xAD9 JUMP JUMPDEST DUP2 MLOAD DUP2 LT PUSH2 0x466 JUMPI PUSH2 0x465 PUSH2 0x9E4 JUMP JUMPDEST JUMPDEST PUSH1 0x20 MUL PUSH1 0x20 ADD ADD DUP2 DUP2 MSTORE POP POP DUP1 DUP1 PUSH2 0x47D SWAP1 PUSH2 0xB0C JUMP JUMPDEST SWAP2 POP POP PUSH2 0x75D JUMP JUMPDEST PUSH1 0xA DUP4 DUP3 DUP2 MLOAD DUP2 LT PUSH2 0x49A JUMPI PUSH2 0x499 PUSH2 0x9E4 JUMP JUMPDEST JUMPDEST PUSH1 0x20 MUL PUSH1 0x20 ADD ADD MLOAD EQ DUP1 ISZERO PUSH2 0x4D5 JUMPI POP PUSH1 0x32 DUP4 PUSH1 0x1 DUP4 PUSH2 0x4BA SWAP2 SWAP1 PUSH2 0xAD9 JUMP JUMPDEST DUP2 MLOAD DUP2 LT PUSH2 0x4CB JUMPI PUSH2 0x4CA PUSH2 0x9E4 JUMP JUMPDEST JUMPDEST PUSH1 0x20 MUL PUSH1 0x20 ADD ADD MLOAD EQ JUMPDEST ISZERO PUSH2 0x53A JUMPI PUSH0 DUP4 DUP3 DUP2 MLOAD DUP2 LT PUSH2 0x4EE JUMPI PUSH2 0x4ED PUSH2 0x9E4 JUMP JUMPDEST JUMPDEST PUSH1 0x20 MUL PUSH1 0x20 ADD ADD DUP2 DUP2 MSTORE POP POP PUSH1 0x28 DUP4 PUSH1 0x1 DUP4 PUSH2 0x50A SWAP2 SWAP1 PUSH2 0xAD9 JUMP JUMPDEST DUP2 MLOAD DUP2 LT PUSH2 0x51B JUMPI PUSH2 0x51A PUSH2 0x9E4 JUMP JUMPDEST JUMPDEST PUSH1 0x20 MUL PUSH1 0x20 ADD ADD DUP2 DUP2 MSTORE POP POP DUP1 DUP1 PUSH2 0x532 SWAP1 PUSH2 0xB0C JUMP JUMPDEST SWAP2 POP POP PUSH2 0x75C JUMP JUMPDEST PUSH1 0xA DUP4 DUP3 DUP2 MLOAD DUP2 LT PUSH2 0x54F JUMPI PUSH2 0x54E PUSH2 0x9E4 JUMP JUMPDEST JUMPDEST PUSH1 0x20 MUL PUSH1 0x20 ADD ADD MLOAD EQ DUP1 ISZERO PUSH2 0x58A JUMPI POP PUSH1 0x64 DUP4 PUSH1 0x1 DUP4 PUSH2 0x56F SWAP2 SWAP1 PUSH2 0xAD9 JUMP JUMPDEST DUP2 MLOAD DUP2 LT PUSH2 0x580 JUMPI PUSH2 0x57F PUSH2 0x9E4 JUMP JUMPDEST JUMPDEST PUSH1 0x20 MUL PUSH1 0x20 ADD ADD MLOAD EQ JUMPDEST ISZERO PUSH2 0x5EF JUMPI PUSH0 DUP4 DUP3 DUP2 MLOAD DUP2 LT PUSH2 0x5A3 JUMPI PUSH2 0x5A2 PUSH2 0x9E4 JUMP JUMPDEST JUMPDEST PUSH1 0x20 MUL PUSH1 0x20 ADD ADD DUP2 DUP2 MSTORE POP POP PUSH1 0x5A DUP4 PUSH1 0x1 DUP4 PUSH2 0x5BF SWAP2 SWAP1 PUSH2 0xAD9 JUMP JUMPDEST DUP2 MLOAD DUP2 LT PUSH2 0x5D0 JUMPI PUSH2 0x5CF PUSH2 0x9E4 JUMP JUMPDEST JUMPDEST PUSH1 0x20 MUL PUSH1 0x20 ADD ADD DUP2 DUP2 MSTORE POP POP DUP1 DUP1 PUSH2 0x5E7 SWAP1 PUSH2 0xB0C JUMP JUMPDEST SWAP2 POP POP PUSH2 0x75B JUMP JUMPDEST PUSH1 0x64 DUP4 DUP3 DUP2 MLOAD DUP2 LT PUSH2 0x604 JUMPI PUSH2 0x603 PUSH2 0x9E4 JUMP JUMPDEST JUMPDEST PUSH1 0x20 MUL PUSH1 0x20 ADD ADD MLOAD EQ DUP1 ISZERO PUSH2 0x640 JUMPI POP PUSH2 0x1F4 DUP4 PUSH1 0x1 DUP4 PUSH2 0x625 SWAP2 SWAP1 PUSH2 0xAD9 JUMP JUMPDEST DUP2 MLOAD DUP2 LT PUSH2 0x636 JUMPI PUSH2 0x635 PUSH2 0x9E4 JUMP JUMPDEST JUMPDEST PUSH1 0x20 MUL PUSH1 0x20 ADD ADD MLOAD EQ JUMPDEST ISZERO PUSH2 0x6A6 JUMPI PUSH0 DUP4 DUP3 DUP2 MLOAD DUP2 LT PUSH2 0x659 JUMPI PUSH2 0x658 PUSH2 0x9E4 JUMP JUMPDEST JUMPDEST PUSH1 0x20 MUL PUSH1 0x20 ADD ADD DUP2 DUP2 MSTORE POP POP PUSH2 0x190 DUP4 PUSH1 0x1 DUP4 PUSH2 0x676 SWAP2 SWAP1 PUSH2 0xAD9 JUMP JUMPDEST DUP2 MLOAD DUP2 LT PUSH2 0x687 JUMPI PUSH2 0x686 PUSH2 0x9E4 JUMP JUMPDEST JUMPDEST PUSH1 0x20 MUL PUSH1 0x20 ADD ADD DUP2 DUP2 MSTORE POP POP DUP1 DUP1 PUSH2 0x69E SWAP1 PUSH2 0xB0C JUMP JUMPDEST SWAP2 POP POP PUSH2 0x75A JUMP JUMPDEST PUSH1 0x64 DUP4 DUP3 DUP2 MLOAD DUP2 LT PUSH2 0x6BB JUMPI PUSH2 0x6BA PUSH2 0x9E4 JUMP JUMPDEST JUMPDEST PUSH1 0x20 MUL PUSH1 0x20 ADD ADD MLOAD EQ DUP1 ISZERO PUSH2 0x6F7 JUMPI POP PUSH2 0x3E8 DUP4 PUSH1 0x1 DUP4 PUSH2 0x6DC SWAP2 SWAP1 PUSH2 0xAD9 JUMP JUMPDEST DUP2 MLOAD DUP2 LT PUSH2 0x6ED JUMPI PUSH2 0x6EC PUSH2 0x9E4 JUMP JUMPDEST JUMPDEST PUSH1 0x20 MUL PUSH1 0x20 ADD ADD MLOAD EQ JUMPDEST ISZERO PUSH2 0x759 JUMPI PUSH0 DUP4 DUP3 DUP2 MLOAD DUP2 LT PUSH2 0x710 JUMPI PUSH2 0x70F PUSH2 0x9E4 JUMP JUMPDEST JUMPDEST PUSH1 0x20 MUL PUSH1 0x20 ADD ADD DUP2 DUP2 MSTORE POP POP PUSH2 0x384 DUP4 PUSH1 0x1 DUP4 PUSH2 0x72D SWAP2 SWAP1 PUSH2 0xAD9 JUMP JUMPDEST DUP2 MLOAD DUP2 LT PUSH2 0x73E JUMPI PUSH2 0x73D PUSH2 0x9E4 JUMP JUMPDEST JUMPDEST PUSH1 0x20 MUL PUSH1 0x20 ADD ADD DUP2 DUP2 MSTORE POP POP DUP1 DUP1 PUSH2 0x755 SWAP1 PUSH2 0xB0C JUMP JUMPDEST SWAP2 POP POP JUMPDEST JUMPDEST JUMPDEST JUMPDEST JUMPDEST JUMPDEST DUP3 DUP2 DUP2 MLOAD DUP2 LT PUSH2 0x771 JUMPI PUSH2 0x770 PUSH2 0x9E4 JUMP JUMPDEST JUMPDEST PUSH1 0x20 MUL PUSH1 0x20 ADD ADD MLOAD DUP3 PUSH2 0x784 SWAP2 SWAP1 PUSH2 0xAD9 JUMP JUMPDEST SWAP2 POP DUP1 DUP1 PUSH2 0x791 SWAP1 PUSH2 0xB0C JUMP JUMPDEST SWAP2 POP POP PUSH2 0x307 JUMP JUMPDEST POP DUP1 SWAP5 POP POP POP POP POP JUMPDEST SWAP2 SWAP1 POP JUMP JUMPDEST PUSH0 PUSH1 0x40 MLOAD SWAP1 POP SWAP1 JUMP JUMPDEST PUSH0 PUSH0 REVERT JUMPDEST PUSH0 PUSH0 REVERT JUMPDEST PUSH0 PUSH0 REVERT JUMPDEST PUSH0 PUSH0 REVERT JUMPDEST PUSH0 PUSH1 0x1F NOT PUSH1 0x1F DUP4 ADD AND SWAP1 POP SWAP2 SWAP1 POP JUMP JUMPDEST PUSH32 0x4E487B7100000000000000000000000000000000000000000000000000000000 PUSH0 MSTORE PUSH1 0x41 PUSH1 0x4 MSTORE PUSH1 0x24 PUSH0 REVERT JUMPDEST PUSH2 0x806 DUP3 PUSH2 0x7C0 JUMP JUMPDEST DUP2 ADD DUP2 DUP2 LT PUSH8 0xFFFFFFFFFFFFFFFF DUP3 GT OR ISZERO PUSH2 0x825 JUMPI PUSH2 0x824 PUSH2 0x7D0 JUMP JUMPDEST JUMPDEST DUP1 PUSH1 0x40 MSTORE POP POP POP JUMP JUMPDEST PUSH0 PUSH2 0x837 PUSH2 0x7A7 JUMP JUMPDEST SWAP1 POP PUSH2 0x843 DUP3 DUP3 PUSH2 0x7FD JUMP JUMPDEST SWAP2 SWAP1 POP JUMP JUMPDEST PUSH0 PUSH8 0xFFFFFFFFFFFFFFFF DUP3 GT ISZERO PUSH2 0x862 JUMPI PUSH2 0x861 PUSH2 0x7D0 JUMP JUMPDEST JUMPDEST PUSH2 0x86B DUP3 PUSH2 0x7C0 JUMP JUMPDEST SWAP1 POP PUSH1 0x20 DUP2 ADD SWAP1 POP SWAP2 SWAP1 POP JUMP JUMPDEST DUP3 DUP2 DUP4 CALLDATACOPY PUSH0 DUP4 DUP4 ADD MSTORE POP POP POP JUMP JUMPDEST PUSH0 PUSH2 0x898 PUSH2 0x893 DUP5 PUSH2 0x848 JUMP JUMPDEST PUSH2 0x82E JUMP JUMPDEST SWAP1 POP DUP3 DUP2 MSTORE PUSH1 0x20 DUP2 ADD DUP5 DUP5 DUP5 ADD GT ISZERO PUSH2 0x8B4 JUMPI PUSH2 0x8B3 PUSH2 0x7BC JUMP JUMPDEST JUMPDEST PUSH2 0x8BF DUP5 DUP3 DUP6 PUSH2 0x878 JUMP JUMPDEST POP SWAP4 SWAP3 POP POP POP JUMP JUMPDEST PUSH0 DUP3 PUSH1 0x1F DUP4 ADD SLT PUSH2 0x8DB JUMPI PUSH2 0x8DA PUSH2 0x7B8 JUMP JUMPDEST JUMPDEST DUP2 CALLDATALOAD PUSH2 0x8EB DUP5 DUP3 PUSH1 0x20 DUP7 ADD PUSH2 0x886 JUMP JUMPDEST SWAP2 POP POP SWAP3 SWAP2 POP POP JUMP JUMPDEST PUSH0 PUSH1 0x20 DUP3 DUP5 SUB SLT ISZERO PUSH2 0x909 JUMPI PUSH2 0x908 PUSH2 0x7B0 JUMP JUMPDEST JUMPDEST PUSH0 DUP3 ADD CALLDATALOAD PUSH8 0xFFFFFFFFFFFFFFFF DUP2 GT ISZERO PUSH2 0x926 JUMPI PUSH2 0x925 PUSH2 0x7B4 JUMP JUMPDEST JUMPDEST PUSH2 0x932 DUP5 DUP3 DUP6 ADD PUSH2 0x8C7 JUMP JUMPDEST SWAP2 POP POP SWAP3 SWAP2 POP POP JUMP JUMPDEST PUSH0 DUP2 SWAP1 POP SWAP2 SWAP1 POP JUMP JUMPDEST PUSH2 0x94D DUP2 PUSH2 0x93B JUMP JUMPDEST DUP3 MSTORE POP POP JUMP JUMPDEST PUSH0 PUSH1 0x20 DUP3 ADD SWAP1 POP PUSH2 0x966 PUSH0 DUP4 ADD DUP5 PUSH2 0x944 JUMP JUMPDEST SWAP3 SWAP2 POP POP JUMP JUMPDEST PUSH0 DUP3 DUP3 MSTORE PUSH1 0x20 DUP3 ADD SWAP1 POP SWAP3 SWAP2 POP POP JUMP JUMPDEST PUSH32 0x696E76616C696420737472696E67206C656E6774680000000000000000000000 PUSH0 DUP3 ADD MSTORE POP JUMP JUMPDEST PUSH0 PUSH2 0x9B0 PUSH1 0x15 DUP4 PUSH2 0x96C JUMP JUMPDEST SWAP2 POP PUSH2 0x9BB DUP3 PUSH2 0x97C JUMP JUMPDEST PUSH1 0x20 DUP3 ADD SWAP1 POP SWAP2 SWAP1 POP JUMP JUMPDEST PUSH0 PUSH1 0x20 DUP3 ADD SWAP1 POP DUP2 DUP2 SUB PUSH0 DUP4 ADD MSTORE PUSH2 0x9DD DUP2 PUSH2 0x9A4 JUMP JUMPDEST SWAP1 POP SWAP2 SWAP1 POP JUMP JUMPDEST PUSH32 0x4E487B7100000000000000000000000000000000000000000000000000000000 PUSH0 MSTORE PUSH1 0x32 PUSH1 0x4 MSTORE PUSH1 0x24 PUSH0 REVERT JUMPDEST PUSH32 0x696E76616C696420737472696E67000000000000000000000000000000000000 PUSH0 DUP3 ADD MSTORE POP JUMP JUMPDEST PUSH0 PUSH2 0xA45 PUSH1 0xE DUP4 PUSH2 0x96C JUMP JUMPDEST SWAP2 POP PUSH2 0xA50 DUP3 PUSH2 0xA11 JUMP JUMPDEST PUSH1 0x20 DUP3 ADD SWAP1 POP SWAP2 SWAP1 POP JUMP JUMPDEST PUSH0 PUSH1 0x20 DUP3 ADD SWAP1 POP DUP2 DUP2 SUB PUSH0 DUP4 ADD MSTORE PUSH2 0xA72 DUP2 PUSH2 0xA39 JUMP JUMPDEST SWAP1 POP SWAP2 SWAP1 POP JUMP JUMPDEST PUSH32 0x4E487B7100000000000000000000000000000000000000000000000000000000 PUSH0 MSTORE PUSH1 0x11 PUSH1 0x4 MSTORE PUSH1 0x24 PUSH0 REVERT JUMPDEST PUSH0 PUSH2 0xAB0 DUP3 PUSH2 0x93B JUMP JUMPDEST SWAP2 POP PUSH2 0xABB DUP4 PUSH2 0x93B JUMP JUMPDEST SWAP3 POP DUP3 DUP3 SUB SWAP1 POP DUP2 DUP2 GT ISZERO PUSH2 0xAD3 JUMPI PUSH2 0xAD2 PUSH2 0xA79 JUMP JUMPDEST JUMPDEST SWAP3 SWAP2 POP POP JUMP JUMPDEST PUSH0 PUSH2 0xAE3 DUP3 PUSH2 0x93B JUMP JUMPDEST SWAP2 POP PUSH2 0xAEE DUP4 PUSH2 0x93B JUMP JUMPDEST SWAP3 POP DUP3 DUP3 ADD SWAP1 POP DUP1 DUP3 GT ISZERO PUSH2 0xB06 JUMPI PUSH2 0xB05 PUSH2 0xA79 JUMP JUMPDEST JUMPDEST SWAP3 SWAP2 POP POP JUMP JUMPDEST PUSH0 PUSH2 0xB16 DUP3 PUSH2 0x93B JUMP JUMPDEST SWAP2 POP PUSH32 0xFFFFFFFFFFFFFFFFFFFFFFFFFFFFFFFFFFFFFFFFFFFFFFFFFFFFFFFFFFFFFFFF DUP3 SUB PUSH2 0xB48 JUMPI PUSH2 0xB47 PUSH2 0xA79 JUMP JUMPDEST JUMPDEST PUSH1 0x1 DUP3 ADD SWAP1 POP SWAP2 SWAP1 POP JUMP INVALID LOG2 PUSH5 0x6970667358 0x22 SLT KECCAK256 0x1E REVERT CALLCODE 0xB8 PUSH24 0xD325660B6A96A83795B13CB3ABA52C7976EECCFCAC88566E 0xCA DELEGATECALL 0xAF PUSH5 0x736F6C6343 STOP ADDMOD 0x1E STOP CALLER "
		},
		"gasEstimates": {
			"creation": {
				"codeDepositCost": "590600",
				"executionCost": "156051",
				"totalCost": "746651"
			},
			"external": {
				"change(string)": "infinite"
			}
		},
		"methodIdentifiers": {
			"change(string)": "c1dcab14"
		}
	},
	"abi": [
		{
			"inputs": [],
			"stateMutability": "nonpayable",
			"type": "constructor"
		},
		{
			"inputs": [
				{
					"internalType": "string",
					"name": "s",
					"type": "string"
				}
			],
			"name": "change",
			"outputs": [
				{
					"internalType": "uint256",
					"name": "",
					"type": "uint256"
				}
			],
			"stateMutability": "view",
			"type": "function"
		}
	]
}