{
	"data": {
		"bytecode": {
			"linkReferences": {},
			"object": "6080604052348015600e575f5ffd5b506102268061001c5f395ff3fe608060405234801561000f575f5ffd5b506004361061003f575f3560e01c80632e64cec1146100435780636057361d14610061578063bb4e3f4d1461007d575b5f5ffd5b61004b6100ad565b60405161005891906100e2565b60405180910390f35b61007b60048036038101906100769190610129565b6100b5565b005b6100976004803603810190610092919061018a565b6100be565b6040516100a491906101d7565b60405180910390f35b5f5f54905090565b805f8190555050565b5f818301905092915050565b5f819050919050565b6100dc816100ca565b82525050565b5f6020820190506100f55f8301846100d3565b92915050565b5f5ffd5b610108816100ca565b8114610112575f5ffd5b50565b5f81359050610123816100ff565b92915050565b5f6020828403121561013e5761013d6100fb565b5b5f61014b84828501610115565b91505092915050565b5f60ff82169050919050565b61016981610154565b8114610173575f5ffd5b50565b5f8135905061018481610160565b92915050565b5f5f604083850312156101a05761019f6100fb565b5b5f6101ad85828601610176565b92505060206101be85828601610176565b9150509250929050565b6101d181610154565b82525050565b5f6020820190506101ea5f8301846101c8565b9291505056fea26469706673582212204460af838822f3b4984c1281b616d56b6251fe8eb4ff3a9e370aec05cd1f75f364736f6c634300081e0033",
			"opcodes": "PUSH1 0x80 PUSH1 0x40 MSTORE CALLVALUE DUP1 ISZERO PUSH1 0xE JUMPI PUSH0 PUSH0 REVERT JUMPDEST POP PUSH2 0x226 DUP1 PUSH2 0x1C PUSH0 CODECOPY PUSH0 RETURN INVALID PUSH1 0x80 PUSH1 0x40 MSTORE CALLVALUE DUP1 ISZERO PUSH2 0xF JUMPI PUSH0 PUSH0 REVERT JUMPDEST POP PUSH1 0x4 CALLDATASIZE LT PUSH2 0x3F JUMPI PUSH0 CALLDATALOAD PUSH1 0xE0 SHR DUP1 PUSH4 0x2E64CEC1 EQ PUSH2 0x43 JUMPI DUP1 PUSH4 0x6057361D EQ PUSH2 0x61 JUMPI DUP1 PUSH4 0xBB4E3F4D EQ PUSH2 0x7D JUMPI JUMPDEST PUSH0 PUSH0 REVERT JUMPDEST PUSH2 0x4B PUSH2 0xAD JUMP JUMPDEST PUSH1 0x40 MLOAD PUSH2 0x58 SWAP2 SWAP1 PUSH2 0xE2 JUMP JUMPDEST PUSH1 0x40 MLOAD DUP1 SWAP2 SUB SWAP1 RETURN JUMPDEST PUSH2 0x7B PUSH1 0x4 DUP1 CALLDATASIZE SUB DUP2 ADD SWAP1 PUSH2 0x76 SWAP2 SWAP1 PUSH2 0x129 JUMP JUMPDEST PUSH2 0xB5 JUMP JUMPDEST STOP JUMPDEST PUSH2 0x97 PUSH1 0x4 DUP1 CALLDATASIZE SUB DUP2 ADD SWAP1 PUSH2 0x92 SWAP2 SWAP1 PUSH2 0x18A JUMP JUMPDEST PUSH2 0xBE JUMP JUMPDEST PUSH1 0x40 MLOAD PUSH2 0xA4 SWAP2 SWAP1 PUSH2 0x1D7 JUMP JUMPDEST PUSH1 0x40 MLOAD DUP1 SWAP2 SUB SWAP1 RETURN JUMPDEST PUSH0 PUSH0 SLOAD SWAP1 POP SWAP1 JUMP JUMPDEST DUP1 PUSH0 DUP2 SWAP1 SSTORE POP POP JUMP JUMPDEST PUSH0 DUP2 DUP4 ADD SWAP1 POP SWAP3 SWAP2 POP POP JUMP JUMPDEST PUSH0 DUP2 SWAP1 POP SWAP2 SWAP1 POP JUMP JUMPDEST PUSH2 0xDC DUP2 PUSH2 0xCA JUMP JUMPDEST DUP3 MSTORE POP POP JUMP JUMPDEST PUSH0 PUSH1 0x20 DUP3 ADD SWAP1 POP PUSH2 0xF5 PUSH0 DUP4 ADD DUP5 PUSH2 0xD3 JUMP JUMPDEST SWAP3 SWAP2 POP POP JUMP JUMPDEST PUSH0 PUSH0 REVERT JUMPDEST PUSH2 0x108 DUP2 PUSH2 0xCA JUMP JUMPDEST DUP2 EQ PUSH2 0x112 JUMPI PUSH0 PUSH0 REVERT JUMPDEST POP JUMP JUMPDEST PUSH0 DUP2 CALLDATALOAD SWAP1 POP PUSH2 0x123 DUP2 PUSH2 0xFF JUMP JUMPDEST SWAP3 SWAP2 POP POP JUMP JUMPDEST PUSH0 PUSH1 0x20 DUP3 DUP5 SUB SLT ISZERO PUSH2 0x13E JUMPI PUSH2 0x13D PUSH2 0xFB JUMP JUMPDEST JUMPDEST PUSH0 PUSH2 0x14B DUP5 DUP3 DUP6 ADD PUSH2 0x115 JUMP JUMPDEST SWAP2 POP POP SWAP3 SWAP2 POP POP JUMP JUMPDEST PUSH0 PUSH1 0xFF DUP3 AND SWAP1 POP SWAP2 SWAP1 POP JUMP JUMPDEST PUSH2 0x169 DUP2 PUSH2 0x154 JUMP JUMPDEST DUP2 EQ PUSH2 0x173 JUMPI PUSH0 PUSH0 REVERT JUMPDEST POP JUMP JUMPDEST PUSH0 DUP2 CALLDATALOAD SWAP1 POP PUSH2 0x184 DUP2 PUSH2 0x160 JUMP JUMPDEST SWAP3 SWAP2 POP POP JUMP JUMPDEST PUSH0 PUSH0 PUSH1 0x40 DUP4 DUP6 SUB SLT ISZERO PUSH2 0x1A0 JUMPI PUSH2 0x19F PUSH2 0xFB JUMP JUMPDEST JUMPDEST PUSH0 PUSH2 0x1AD DUP6 DUP3 DUP7 ADD PUSH2 0x176 JUMP JUMPDEST SWAP3 POP POP PUSH1 0x20 PUSH2 0x1BE DUP6 DUP3 DUP7 ADD PUSH2 0x176 JUMP JUMPDEST SWAP2 POP POP SWAP3 POP SWAP3 SWAP1 POP JUMP JUMPDEST PUSH2 0x1D1 DUP2 PUSH2 0x154 JUMP JUMPDEST DUP3 MSTORE POP POP JUMP JUMPDEST PUSH0 PUSH1 0x20 DUP3 ADD SWAP1 POP PUSH2 0x1EA PUSH0 DUP4 ADD DUP5 PUSH2 0x1C8 JUMP JUMPDEST SWAP3 SWAP2 POP POP JUMP INVALID LOG2 PUSH5 0x6970667358 0x22 SLT KECCAK256 PREVRANDAO PUSH1 0xAF DUP4 DUP9 0x22 RETURN 0xB4 SWAP9 0x4C SLT DUP2 0xB6 AND 0xD5 PUSH12 0x6251FE8EB4FF3A9E370AEC05 0xCD 0x1F PUSH22 0xF364736F6C634300081E003300000000000000000000 "
		},
		"gasEstimates": {
			"creation": {
				"codeDepositCost": "110000",
				"executionCost": "157",
				"totalCost": "110157"
			},
			"external": {
				"add(uint8,uint8)": "infinite",
				"retrieve()": "2409",
				"store(uint256)": "22514"
			}
		},
		"methodIdentifiers": {
			"add(uint8,uint8)": "bb4e3f4d",
			"retrieve()": "2e64cec1",
			"store(uint256)": "6057361d"
		}
	},
	"abi": [
		{
			"inputs": [
				{
					"internalType": "uint8",
					"name": "a",
					"type": "uint8"
				},
				{
					"internalType": "uint8",
					"name": "b",
					"type": "uint8"
				}
			],
			"name": "add",
			"outputs": [
				{
					"internalType": "uint8",
					"name": "c",
					"type": "uint8"
				}
			],
			"stateMutability": "pure",
			"type": "function"
		},
		{
			"inputs": [],
			"name": "retrieve",
			"outputs": [
				{
					"internalType": "uint256",
					"name": "",
					"type": "uint256"
				}
			],
			"stateMutability": "view",
			"type": "function"
		},
		{
			"inputs": [
				{
					"internalType": "uint256",
					"name": "num",
					"type": "uint256"
				}
			],
			"name": "store",
			"outputs": [],
			"stateMutability": "nonpayable",
			"type": "function"
		}
	]
}