{
	"data": {
		"bytecode": {
			"linkReferences": {},
			"object": "6080604052348015600e575f5ffd5b506101258061001c5f395ff3fe6080604052348015600e575f5ffd5b50600436106026575f3560e01c8063cc80f6f314602a575b5f5ffd5b60306032565b005b735b38da6a701c568545dcfcb03fcb875f56beddc473ffffffffffffffffffffffffffffffffffffffff167f212d7263066aaf725f5eaacab4697d8a021b27a2d68091298f8d4dbf54e5eb6c60d5604051608b919060d8565b60405180910390a2565b5f819050919050565b5f819050919050565b5f819050919050565b5f60c460c060bc846095565b60a7565b609e565b9050919050565b60d28160b0565b82525050565b5f60208201905060e95f83018460cb565b9291505056fea2646970667358221220bf58effba3d90e03e8d549b22b55d12bcbe561852ed5782154a9c791876ed13064736f6c634300081e0033",
			"opcodes": "PUSH1 0x80 PUSH1 0x40 MSTORE CALLVALUE DUP1 ISZERO PUSH1 0xE JUMPI PUSH0 PUSH0 REVERT JUMPDEST POP PUSH2 0x125 DUP1 PUSH2 0x1C PUSH0 CODECOPY PUSH0 RETURN INVALID PUSH1 0x80 PUSH1 0x40 MSTORE CALLVALUE DUP1 ISZERO PUSH1 0xE JUMPI PUSH0 PUSH0 REVERT JUMPDEST POP PUSH1 0x4 CALLDATASIZE LT PUSH1 0x26 JUMPI PUSH0 CALLDATALOAD PUSH1 0xE0 SHR DUP1 PUSH4 0xCC80F6F3 EQ PUSH1 0x2A JUMPI JUMPDEST PUSH0 PUSH0 REVERT JUMPDEST PUSH1 0x30 PUSH1 0x32 JUMP JUMPDEST STOP JUMPDEST PUSH20 0x5B38DA6A701C568545DCFCB03FCB875F56BEDDC4 PUSH20 0xFFFFFFFFFFFFFFFFFFFFFFFFFFFFFFFFFFFFFFFF AND PUSH32 0x212D7263066AAF725F5EAACAB4697D8A021B27A2D68091298F8D4DBF54E5EB6C PUSH1 0xD5 PUSH1 0x40 MLOAD PUSH1 0x8B SWAP2 SWAP1 PUSH1 0xD8 JUMP JUMPDEST PUSH1 0x40 MLOAD DUP1 SWAP2 SUB SWAP1 LOG2 JUMP JUMPDEST PUSH0 DUP2 SWAP1 POP SWAP2 SWAP1 POP JUMP JUMPDEST PUSH0 DUP2 SWAP1 POP SWAP2 SWAP1 POP JUMP JUMPDEST PUSH0 DUP2 SWAP1 POP SWAP2 SWAP1 POP JUMP JUMPDEST PUSH0 PUSH1 0xC4 PUSH1 0xC0 PUSH1 0xBC DUP5 PUSH1 0x95 JUMP JUMPDEST PUSH1 0xA7 JUMP JUMPDEST PUSH1 0x9E JUMP JUMPDEST SWAP1 POP SWAP2 SWAP1 POP JUMP JUMPDEST PUSH1 0xD2 DUP2 PUSH1 0xB0 JUMP JUMPDEST DUP3 MSTORE POP POP JUMP JUMPDEST PUSH0 PUSH1 0x20 DUP3 ADD SWAP1 POP PUSH1 0xE9 PUSH0 DUP4 ADD DUP5 PUSH1 0xCB JUMP JUMPDEST SWAP3 SWAP2 POP POP JUMP INVALID LOG2 PUSH5 0x6970667358 0x22 SLT KECCAK256 0xBF PC 0xEF EXTSTATICCALL LOG3 0xD9 0xE SUB 0xE8 0xD5 BLOBHASH 0xB2 0x2B SSTORE DATALOADN 0x2BCB JUMPF 0x6185 0x2E 0xD5 PUSH25 0x2154A9C791876ED13064736F6C634300081E00330000000000 "
		},
		"gasEstimates": {
			"creation": {
				"codeDepositCost": "58600",
				"executionCost": "109",
				"totalCost": "58709"
			},
			"external": {
				"show()": "1819"
			}
		},
		"methodIdentifiers": {
			"show()": "cc80f6f3"
		}
	},
	"abi": [
		{
			"anonymous": false,
			"inputs": [
				{
					"indexed": true,
					"internalType": "address",
					"name": "from",
					"type": "address"
				},
				{
					"indexed": false,
					"internalType": "uint256",
					"name": "value",
					"type": "uint256"
				}
			],
			"name": "Input",
			"type": "event"
		},
		{
			"inputs": [],
			"name": "show",
			"outputs": [],
			"stateMutability": "nonpayable",
			"type": "function"
		}
	]
}