{
	"data": {
		"bytecode": {
			"linkReferences": {},
			"object": "6080604052348015600e575f5ffd5b5061088e8061001c5f395ff3fe608060405234801561000f575f5ffd5b5060043610610055575f3560e01c80630900f010146100595780635c60da1b14610075578063c298557814610093578063f2c31bd91461009d578063f851a440146100bb575b5f5ffd5b610073600480360381019061006e9190610392565b6100d9565b005b61007d610218565b60405161008a91906103cc565b60405180910390f35b61009b61023c565b005b6100a5610283565b6040516100b29190610455565b60405180910390f35b6100c361030f565b6040516100d091906103cc565b60405180910390f35b60015f9054906101000a900473ffffffffffffffffffffffffffffffffffffffff1673ffffffffffffffffffffffffffffffffffffffff163373ffffffffffffffffffffffffffffffffffffffff1614610168576040517f08c379a000000000000000000000000000000000000000000000000000000000815260040161015f906104bf565b60405180910390fd5b5f73ffffffffffffffffffffffffffffffffffffffff168173ffffffffffffffffffffffffffffffffffffffff16036101d6576040517f08c379a00000000000000000000000000000000000000000000000000000000081526004016101cd90610527565b60405180910390fd5b805f5f6101000a81548173ffffffffffffffffffffffffffffffffffffffff021916908373ffffffffffffffffffffffffffffffffffffffff16021790555050565b5f5f9054906101000a900473ffffffffffffffffffffffffffffffffffffffff1681565b6040518060400160405280600381526020017f6e65770000000000000000000000000000000000000000000000000000000000815250600290816102809190610789565b50565b600280546102909061059f565b80601f01602080910402602001604051908101604052809291908181526020018280546102bc9061059f565b80156103075780601f106102de57610100808354040283529160200191610307565b820191905f5260205f20905b8154815290600101906020018083116102ea57829003601f168201915b505050505081565b60015f9054906101000a900473ffffffffffffffffffffffffffffffffffffffff1681565b5f5ffd5b5f73ffffffffffffffffffffffffffffffffffffffff82169050919050565b5f61036182610338565b9050919050565b61037181610357565b811461037b575f5ffd5b50565b5f8135905061038c81610368565b92915050565b5f602082840312156103a7576103a6610334565b5b5f6103b48482850161037e565b91505092915050565b6103c681610357565b82525050565b5f6020820190506103df5f8301846103bd565b92915050565b5f81519050919050565b5f82825260208201905092915050565b8281835e5f83830152505050565b5f601f19601f8301169050919050565b5f610427826103e5565b61043181856103ef565b93506104418185602086016103ff565b61044a8161040d565b840191505092915050565b5f6020820190508181035f83015261046d818461041d565b905092915050565b7f6e6f742061646d696e00000000000000000000000000000000000000000000005f82015250565b5f6104a96009836103ef565b91506104b482610475565b602082019050919050565b5f6020820190508181035f8301526104d68161049d565b9050919050565b7f61646472657373206973207a65726f00000000000000000000000000000000005f82015250565b5f610511600f836103ef565b915061051c826104dd565b602082019050919050565b5f6020820190508181035f83015261053e81610505565b9050919050565b7f4e487b71000000000000000000000000000000000000000000000000000000005f52604160045260245ffd5b7f4e487b71000000000000000000000000000000000000000000000000000000005f52602260045260245ffd5b5f60028204905060018216806105b657607f821691505b6020821081036105c9576105c8610572565b5b50919050565b5f819050815f5260205f209050919050565b5f6020601f8301049050919050565b5f82821b905092915050565b5f6008830261062b7fffffffffffffffffffffffffffffffffffffffffffffffffffffffffffffffff826105f0565b61063586836105f0565b95508019841693508086168417925050509392505050565b5f819050919050565b5f819050919050565b5f61067961067461066f8461064d565b610656565b61064d565b9050919050565b5f819050919050565b6106928361065f565b6106a661069e82610680565b8484546105fc565b825550505050565b5f5f905090565b6106bd6106ae565b6106c8818484610689565b505050565b5f5b828110156106ee576106e35f8284016106b5565b6001810190506106cf565b505050565b601f82111561074157828211156107405761070d816105cf565b610716836105e1565b61071f856105e1565b602086101561072c575f90505b80830161073b828403826106cd565b505050505b5b505050565b5f82821c905092915050565b5f6107615f1984600802610746565b1980831691505092915050565b5f6107798383610752565b9150826002028217905092915050565b610792826103e5565b67ffffffffffffffff8111156107ab576107aa610545565b5b6107b5825461059f565b6107c08282856106f3565b5f60209050601f8311600181146107f1575f84156107df578287015190505b6107e9858261076e565b865550610850565b601f1984166107ff866105cf565b5f5b8281101561082657848901518255600182019150602085019450602081019050610801565b86831015610843578489015161083f601f891682610752565b8355505b6001600288020188555050505b50505050505056fea264697066735822122072b14b4407116f2069b12f6b0c119d8b3d7bcb9e8f99974db4acc7bd3e49fbca64736f6c63430008220033",
			"opcodes": "PUSH1 0x80 PUSH1 0x40 MSTORE CALLVALUE DUP1 ISZERO PUSH1 0xE JUMPI PUSH0 PUSH0 REVERT JUMPDEST POP PUSH2 0x88E DUP1 PUSH2 0x1C PUSH0 CODECOPY PUSH0 RETURN INVALID PUSH1 0x80 PUSH1 0x40 MSTORE CALLVALUE DUP1 ISZERO PUSH2 0xF JUMPI PUSH0 PUSH0 REVERT JUMPDEST POP PUSH1 0x4 CALLDATASIZE LT PUSH2 0x55 JUMPI PUSH0 CALLDATALOAD PUSH1 0xE0 SHR DUP1 PUSH4 0x900F010 EQ PUSH2 0x59 JUMPI DUP1 PUSH4 0x5C60DA1B EQ PUSH2 0x75 JUMPI DUP1 PUSH4 0xC2985578 EQ PUSH2 0x93 JUMPI DUP1 PUSH4 0xF2C31BD9 EQ PUSH2 0x9D JUMPI DUP1 PUSH4 0xF851A440 EQ PUSH2 0xBB JUMPI JUMPDEST PUSH0 PUSH0 REVERT JUMPDEST PUSH2 0x73 PUSH1 0x4 DUP1 CALLDATASIZE SUB DUP2 ADD SWAP1 PUSH2 0x6E SWAP2 SWAP1 PUSH2 0x392 JUMP JUMPDEST PUSH2 0xD9 JUMP JUMPDEST STOP JUMPDEST PUSH2 0x7D PUSH2 0x218 JUMP JUMPDEST PUSH1 0x40 MLOAD PUSH2 0x8A SWAP2 SWAP1 PUSH2 0x3CC JUMP JUMPDEST PUSH1 0x40 MLOAD DUP1 SWAP2 SUB SWAP1 RETURN JUMPDEST PUSH2 0x9B PUSH2 0x23C JUMP JUMPDEST STOP JUMPDEST PUSH2 0xA5 PUSH2 0x283 JUMP JUMPDEST PUSH1 0x40 MLOAD PUSH2 0xB2 SWAP2 SWAP1 PUSH2 0x455 JUMP JUMPDEST PUSH1 0x40 MLOAD DUP1 SWAP2 SUB SWAP1 RETURN JUMPDEST PUSH2 0xC3 PUSH2 0x30F JUMP JUMPDEST PUSH1 0x40 MLOAD PUSH2 0xD0 SWAP2 SWAP1 PUSH2 0x3CC JUMP JUMPDEST PUSH1 0x40 MLOAD DUP1 SWAP2 SUB SWAP1 RETURN JUMPDEST PUSH1 0x1 PUSH0 SWAP1 SLOAD SWAP1 PUSH2 0x100 EXP SWAP1 DIV PUSH20 0xFFFFFFFFFFFFFFFFFFFFFFFFFFFFFFFFFFFFFFFF AND PUSH20 0xFFFFFFFFFFFFFFFFFFFFFFFFFFFFFFFFFFFFFFFF AND CALLER PUSH20 0xFFFFFFFFFFFFFFFFFFFFFFFFFFFFFFFFFFFFFFFF AND EQ PUSH2 0x168 JUMPI PUSH1 0x40 MLOAD PUSH32 0x8C379A000000000000000000000000000000000000000000000000000000000 DUP2 MSTORE PUSH1 0x4 ADD PUSH2 0x15F SWAP1 PUSH2 0x4BF JUMP JUMPDEST PUSH1 0x40 MLOAD DUP1 SWAP2 SUB SWAP1 REVERT JUMPDEST PUSH0 PUSH20 0xFFFFFFFFFFFFFFFFFFFFFFFFFFFFFFFFFFFFFFFF AND DUP2 PUSH20 0xFFFFFFFFFFFFFFFFFFFFFFFFFFFFFFFFFFFFFFFF AND SUB PUSH2 0x1D6 JUMPI PUSH1 0x40 MLOAD PUSH32 0x8C379A000000000000000000000000000000000000000000000000000000000 DUP2 MSTORE PUSH1 0x4 ADD PUSH2 0x1CD SWAP1 PUSH2 0x527 JUMP JUMPDEST PUSH1 0x40 MLOAD DUP1 SWAP2 SUB SWAP1 REVERT JUMPDEST DUP1 PUSH0 PUSH0 PUSH2 0x100 EXP DUP2 SLOAD DUP2 PUSH20 0xFFFFFFFFFFFFFFFFFFFFFFFFFFFFFFFFFFFFFFFF MUL NOT AND SWAP1 DUP4 PUSH20 0xFFFFFFFFFFFFFFFFFFFFFFFFFFFFFFFFFFFFFFFF AND MUL OR SWAP1 SSTORE POP POP JUMP JUMPDEST PUSH0 PUSH0 SWAP1 SLOAD SWAP1 PUSH2 0x100 EXP SWAP1 DIV PUSH20 0xFFFFFFFFFFFFFFFFFFFFFFFFFFFFFFFFFFFFFFFF AND DUP2 JUMP JUMPDEST PUSH1 0x40 MLOAD DUP1 PUSH1 0x40 ADD PUSH1 0x40 MSTORE DUP1 PUSH1 0x3 DUP2 MSTORE PUSH1 0x20 ADD PUSH32 0x6E65770000000000000000000000000000000000000000000000000000000000 DUP2 MSTORE POP PUSH1 0x2 SWAP1 DUP2 PUSH2 0x280 SWAP2 SWAP1 PUSH2 0x789 JUMP JUMPDEST POP JUMP JUMPDEST PUSH1 0x2 DUP1 SLOAD PUSH2 0x290 SWAP1 PUSH2 0x59F JUMP JUMPDEST DUP1 PUSH1 0x1F ADD PUSH1 0x20 DUP1 SWAP2 DIV MUL PUSH1 0x20 ADD PUSH1 0x40 MLOAD SWAP1 DUP2 ADD PUSH1 0x40 MSTORE DUP1 SWAP3 SWAP2 SWAP1 DUP2 DUP2 MSTORE PUSH1 0x20 ADD DUP3 DUP1 SLOAD PUSH2 0x2BC SWAP1 PUSH2 0x59F JUMP JUMPDEST DUP1 ISZERO PUSH2 0x307 JUMPI DUP1 PUSH1 0x1F LT PUSH2 0x2DE JUMPI PUSH2 0x100 DUP1 DUP4 SLOAD DIV MUL DUP4 MSTORE SWAP2 PUSH1 0x20 ADD SWAP2 PUSH2 0x307 JUMP JUMPDEST DUP3 ADD SWAP2 SWAP1 PUSH0 MSTORE PUSH1 0x20 PUSH0 KECCAK256 SWAP1 JUMPDEST DUP2 SLOAD DUP2 MSTORE SWAP1 PUSH1 0x1 ADD SWAP1 PUSH1 0x20 ADD DUP1 DUP4 GT PUSH2 0x2EA JUMPI DUP3 SWAP1 SUB PUSH1 0x1F AND DUP3 ADD SWAP2 JUMPDEST POP POP POP POP POP DUP2 JUMP JUMPDEST PUSH1 0x1 PUSH0 SWAP1 SLOAD SWAP1 PUSH2 0x100 EXP SWAP1 DIV PUSH20 0xFFFFFFFFFFFFFFFFFFFFFFFFFFFFFFFFFFFFFFFF AND DUP2 JUMP JUMPDEST PUSH0 PUSH0 REVERT JUMPDEST PUSH0 PUSH20 0xFFFFFFFFFFFFFFFFFFFFFFFFFFFFFFFFFFFFFFFF DUP3 AND SWAP1 POP SWAP2 SWAP1 POP JUMP JUMPDEST PUSH0 PUSH2 0x361 DUP3 PUSH2 0x338 JUMP JUMPDEST SWAP1 POP SWAP2 SWAP1 POP JUMP JUMPDEST PUSH2 0x371 DUP2 PUSH2 0x357 JUMP JUMPDEST DUP2 EQ PUSH2 0x37B JUMPI PUSH0 PUSH0 REVERT JUMPDEST POP JUMP JUMPDEST PUSH0 DUP2 CALLDATALOAD SWAP1 POP PUSH2 0x38C DUP2 PUSH2 0x368 JUMP JUMPDEST SWAP3 SWAP2 POP POP JUMP JUMPDEST PUSH0 PUSH1 0x20 DUP3 DUP5 SUB SLT ISZERO PUSH2 0x3A7 JUMPI PUSH2 0x3A6 PUSH2 0x334 JUMP JUMPDEST JUMPDEST PUSH0 PUSH2 0x3B4 DUP5 DUP3 DUP6 ADD PUSH2 0x37E JUMP JUMPDEST SWAP2 POP POP SWAP3 SWAP2 POP POP JUMP JUMPDEST PUSH2 0x3C6 DUP2 PUSH2 0x357 JUMP JUMPDEST DUP3 MSTORE POP POP JUMP JUMPDEST PUSH0 PUSH1 0x20 DUP3 ADD SWAP1 POP PUSH2 0x3DF PUSH0 DUP4 ADD DUP5 PUSH2 0x3BD JUMP JUMPDEST SWAP3 SWAP2 POP POP JUMP JUMPDEST PUSH0 DUP2 MLOAD SWAP1 POP SWAP2 SWAP1 POP JUMP JUMPDEST PUSH0 DUP3 DUP3 MSTORE PUSH1 0x20 DUP3 ADD SWAP1 POP SWAP3 SWAP2 POP POP JUMP JUMPDEST DUP3 DUP2 DUP4 MCOPY PUSH0 DUP4 DUP4 ADD MSTORE POP POP POP JUMP JUMPDEST PUSH0 PUSH1 0x1F NOT PUSH1 0x1F DUP4 ADD AND SWAP1 POP SWAP2 SWAP1 POP JUMP JUMPDEST PUSH0 PUSH2 0x427 DUP3 PUSH2 0x3E5 JUMP JUMPDEST PUSH2 0x431 DUP2 DUP6 PUSH2 0x3EF JUMP JUMPDEST SWAP4 POP PUSH2 0x441 DUP2 DUP6 PUSH1 0x20 DUP7 ADD PUSH2 0x3FF JUMP JUMPDEST PUSH2 0x44A DUP2 PUSH2 0x40D JUMP JUMPDEST DUP5 ADD SWAP2 POP POP SWAP3 SWAP2 POP POP JUMP JUMPDEST PUSH0 PUSH1 0x20 DUP3 ADD SWAP1 POP DUP2 DUP2 SUB PUSH0 DUP4 ADD MSTORE PUSH2 0x46D DUP2 DUP5 PUSH2 0x41D JUMP JUMPDEST SWAP1 POP SWAP3 SWAP2 POP POP JUMP JUMPDEST PUSH32 0x6E6F742061646D696E0000000000000000000000000000000000000000000000 PUSH0 DUP3 ADD MSTORE POP JUMP JUMPDEST PUSH0 PUSH2 0x4A9 PUSH1 0x9 DUP4 PUSH2 0x3EF JUMP JUMPDEST SWAP2 POP PUSH2 0x4B4 DUP3 PUSH2 0x475 JUMP JUMPDEST PUSH1 0x20 DUP3 ADD SWAP1 POP SWAP2 SWAP1 POP JUMP JUMPDEST PUSH0 PUSH1 0x20 DUP3 ADD SWAP1 POP DUP2 DUP2 SUB PUSH0 DUP4 ADD MSTORE PUSH2 0x4D6 DUP2 PUSH2 0x49D JUMP JUMPDEST SWAP1 POP SWAP2 SWAP1 POP JUMP JUMPDEST PUSH32 0x61646472657373206973207A65726F0000000000000000000000000000000000 PUSH0 DUP3 ADD MSTORE POP JUMP JUMPDEST PUSH0 PUSH2 0x511 PUSH1 0xF DUP4 PUSH2 0x3EF JUMP JUMPDEST SWAP2 POP PUSH2 0x51C DUP3 PUSH2 0x4DD JUMP JUMPDEST PUSH1 0x20 DUP3 ADD SWAP1 POP SWAP2 SWAP1 POP JUMP JUMPDEST PUSH0 PUSH1 0x20 DUP3 ADD SWAP1 POP DUP2 DUP2 SUB PUSH0 DUP4 ADD MSTORE PUSH2 0x53E DUP2 PUSH2 0x505 JUMP JUMPDEST SWAP1 POP SWAP2 SWAP1 POP JUMP JUMPDEST PUSH32 0x4E487B7100000000000000000000000000000000000000000000000000000000 PUSH0 MSTORE PUSH1 0x41 PUSH1 0x4 MSTORE PUSH1 0x24 PUSH0 REVERT JUMPDEST PUSH32 0x4E487B7100000000000000000000000000000000000000000000000000000000 PUSH0 MSTORE PUSH1 0x22 PUSH1 0x4 MSTORE PUSH1 0x24 PUSH0 REVERT JUMPDEST PUSH0 PUSH1 0x2 DUP3 DIV SWAP1 POP PUSH1 0x1 DUP3 AND DUP1 PUSH2 0x5B6 JUMPI PUSH1 0x7F DUP3 AND SWAP2 POP JUMPDEST PUSH1 0x20 DUP3 LT DUP2 SUB PUSH2 0x5C9 JUMPI PUSH2 0x5C8 PUSH2 0x572 JUMP JUMPDEST JUMPDEST POP SWAP2 SWAP1 POP JUMP JUMPDEST PUSH0 DUP2 SWAP1 POP DUP2 PUSH0 MSTORE PUSH1 0x20 PUSH0 KECCAK256 SWAP1 POP SWAP2 SWAP1 POP JUMP JUMPDEST PUSH0 PUSH1 0x20 PUSH1 0x1F DUP4 ADD DIV SWAP1 POP SWAP2 SWAP1 POP JUMP JUMPDEST PUSH0 DUP3 DUP3 SHL SWAP1 POP SWAP3 SWAP2 POP POP JUMP JUMPDEST PUSH0 PUSH1 0x8 DUP4 MUL PUSH2 0x62B PUSH32 0xFFFFFFFFFFFFFFFFFFFFFFFFFFFFFFFFFFFFFFFFFFFFFFFFFFFFFFFFFFFFFFFF DUP3 PUSH2 0x5F0 JUMP JUMPDEST PUSH2 0x635 DUP7 DUP4 PUSH2 0x5F0 JUMP JUMPDEST SWAP6 POP DUP1 NOT DUP5 AND SWAP4 POP DUP1 DUP7 AND DUP5 OR SWAP3 POP POP POP SWAP4 SWAP3 POP POP POP JUMP JUMPDEST PUSH0 DUP2 SWAP1 POP SWAP2 SWAP1 POP JUMP JUMPDEST PUSH0 DUP2 SWAP1 POP SWAP2 SWAP1 POP JUMP JUMPDEST PUSH0 PUSH2 0x679 PUSH2 0x674 PUSH2 0x66F DUP5 PUSH2 0x64D JUMP JUMPDEST PUSH2 0x656 JUMP JUMPDEST PUSH2 0x64D JUMP JUMPDEST SWAP1 POP SWAP2 SWAP1 POP JUMP JUMPDEST PUSH0 DUP2 SWAP1 POP SWAP2 SWAP1 POP JUMP JUMPDEST PUSH2 0x692 DUP4 PUSH2 0x65F JUMP JUMPDEST PUSH2 0x6A6 PUSH2 0x69E DUP3 PUSH2 0x680 JUMP JUMPDEST DUP5 DUP5 SLOAD PUSH2 0x5FC JUMP JUMPDEST DUP3 SSTORE POP POP POP POP JUMP JUMPDEST PUSH0 PUSH0 SWAP1 POP SWAP1 JUMP JUMPDEST PUSH2 0x6BD PUSH2 0x6AE JUMP JUMPDEST PUSH2 0x6C8 DUP2 DUP5 DUP5 PUSH2 0x689 JUMP JUMPDEST POP POP POP JUMP JUMPDEST PUSH0 JUMPDEST DUP3 DUP2 LT ISZERO PUSH2 0x6EE JUMPI PUSH2 0x6E3 PUSH0 DUP3 DUP5 ADD PUSH2 0x6B5 JUMP JUMPDEST PUSH1 0x1 DUP2 ADD SWAP1 POP PUSH2 0x6CF JUMP JUMPDEST POP POP POP JUMP JUMPDEST PUSH1 0x1F DUP3 GT ISZERO PUSH2 0x741 JUMPI DUP3 DUP3 GT ISZERO PUSH2 0x740 JUMPI PUSH2 0x70D DUP2 PUSH2 0x5CF JUMP JUMPDEST PUSH2 0x716 DUP4 PUSH2 0x5E1 JUMP JUMPDEST PUSH2 0x71F DUP6 PUSH2 0x5E1 JUMP JUMPDEST PUSH1 0x20 DUP7 LT ISZERO PUSH2 0x72C JUMPI PUSH0 SWAP1 POP JUMPDEST DUP1 DUP4 ADD PUSH2 0x73B DUP3 DUP5 SUB DUP3 PUSH2 0x6CD JUMP JUMPDEST POP POP POP POP JUMPDEST JUMPDEST POP POP POP JUMP JUMPDEST PUSH0 DUP3 DUP3 SHR SWAP1 POP SWAP3 SWAP2 POP POP JUMP JUMPDEST PUSH0 PUSH2 0x761 PUSH0 NOT DUP5 PUSH1 0x8 MUL PUSH2 0x746 JUMP JUMPDEST NOT DUP1 DUP4 AND SWAP2 POP POP SWAP3 SWAP2 POP POP JUMP JUMPDEST PUSH0 PUSH2 0x779 DUP4 DUP4 PUSH2 0x752 JUMP JUMPDEST SWAP2 POP DUP3 PUSH1 0x2 MUL DUP3 OR SWAP1 POP SWAP3 SWAP2 POP POP JUMP JUMPDEST PUSH2 0x792 DUP3 PUSH2 0x3E5 JUMP JUMPDEST PUSH8 0xFFFFFFFFFFFFFFFF DUP2 GT ISZERO PUSH2 0x7AB JUMPI PUSH2 0x7AA PUSH2 0x545 JUMP JUMPDEST JUMPDEST PUSH2 0x7B5 DUP3 SLOAD PUSH2 0x59F JUMP JUMPDEST PUSH2 0x7C0 DUP3 DUP3 DUP6 PUSH2 0x6F3 JUMP JUMPDEST PUSH0 PUSH1 0x20 SWAP1 POP PUSH1 0x1F DUP4 GT PUSH1 0x1 DUP2 EQ PUSH2 0x7F1 JUMPI PUSH0 DUP5 ISZERO PUSH2 0x7DF JUMPI DUP3 DUP8 ADD MLOAD SWAP1 POP JUMPDEST PUSH2 0x7E9 DUP6 DUP3 PUSH2 0x76E JUMP JUMPDEST DUP7 SSTORE POP PUSH2 0x850 JUMP JUMPDEST PUSH1 0x1F NOT DUP5 AND PUSH2 0x7FF DUP7 PUSH2 0x5CF JUMP JUMPDEST PUSH0 JUMPDEST DUP3 DUP2 LT ISZERO PUSH2 0x826 JUMPI DUP5 DUP10 ADD MLOAD DUP3 SSTORE PUSH1 0x1 DUP3 ADD SWAP2 POP PUSH1 0x20 DUP6 ADD SWAP5 POP PUSH1 0x20 DUP2 ADD SWAP1 POP PUSH2 0x801 JUMP JUMPDEST DUP7 DUP4 LT ISZERO PUSH2 0x843 JUMPI DUP5 DUP10 ADD MLOAD PUSH2 0x83F PUSH1 0x1F DUP10 AND DUP3 PUSH2 0x752 JUMP JUMPDEST DUP4 SSTORE POP JUMPDEST PUSH1 0x1 PUSH1 0x2 DUP9 MUL ADD DUP9 SSTORE POP POP POP JUMPDEST POP POP POP POP POP POP JUMP INVALID LOG2 PUSH5 0x6970667358 0x22 SLT KECCAK256 PUSH19 0xB14B4407116F2069B12F6B0C119D8B3D7BCB9E DUP16 SWAP10 SWAP8 0x4D 0xB4 0xAC 0xC7 0xBD RETURNDATACOPY BLOBHASH EXTSTATICCALL 0xCA PUSH5 0x736F6C6343 STOP ADDMOD 0x22 STOP CALLER "
		},
		"gasEstimates": {
			"creation": {
				"codeDepositCost": "438000",
				"executionCost": "472",
				"totalCost": "438472"
			},
			"external": {
				"admin()": "2574",
				"foo()": "infinite",
				"implementation()": "2507",
				"upgrade(address)": "26895",
				"words()": "infinite"
			}
		},
		"methodIdentifiers": {
			"admin()": "f851a440",
			"foo()": "c2985578",
			"implementation()": "5c60da1b",
			"upgrade(address)": "0900f010",
			"words()": "f2c31bd9"
		}
	},
	"abi": [
		{
			"inputs": [],
			"name": "admin",
			"outputs": [
				{
					"internalType": "address",
					"name": "",
					"type": "address"
				}
			],
			"stateMutability": "view",
			"type": "function"
		},
		{
			"inputs": [],
			"name": "foo",
			"outputs": [],
			"stateMutability": "nonpayable",
			"type": "function"
		},
		{
			"inputs": [],
			"name": "implementation",
			"outputs": [
				{
					"internalType": "address",
					"name": "",
					"type": "address"
				}
			],
			"stateMutability": "view",
			"type": "function"
		},
		{
			"inputs": [
				{
					"internalType": "address",
					"name": "newImplementation",
					"type": "address"
				}
			],
			"name": "upgrade",
			"outputs": [],
			"stateMutability": "nonpayable",
			"type": "function"
		},
		{
			"inputs": [],
			"name": "words",
			"outputs": [
				{
					"internalType": "string",
					"name": "",
					"type": "string"
				}
			],
			"stateMutability": "view",
			"type": "function"
		}
	]
}